{
	"contracts/Sales.sol": {
		"Sales": {
			"abi": [
				{
					"inputs": [
						{
							"internalType": "address",
							"name": "_token",
							"type": "address"
						}
					],
					"stateMutability": "nonpayable",
					"type": "constructor"
				},
				{
					"inputs": [
						{
							"internalType": "address",
							"name": "owner",
							"type": "address"
						}
					],
					"name": "OwnableInvalidOwner",
					"type": "error"
				},
				{
					"inputs": [
						{
							"internalType": "address",
							"name": "account",
							"type": "address"
						}
					],
					"name": "OwnableUnauthorizedAccount",
					"type": "error"
				},
				{
					"anonymous": false,
					"inputs": [
						{
							"indexed": true,
							"internalType": "address",
							"name": "previousOwner",
							"type": "address"
						},
						{
							"indexed": true,
							"internalType": "address",
							"name": "newOwner",
							"type": "address"
						}
					],
					"name": "OwnershipTransferred",
					"type": "event"
				},
				{
					"anonymous": false,
					"inputs": [
						{
							"indexed": true,
							"internalType": "uint256",
							"name": "saleId",
							"type": "uint256"
						},
						{
							"indexed": true,
							"internalType": "string",
							"name": "name",
							"type": "string"
						},
						{
							"indexed": true,
							"internalType": "uint256",
							"name": "startAt",
							"type": "uint256"
						}
					],
					"name": "SaleInfo",
					"type": "event"
				},
				{
					"inputs": [],
					"name": "getLatestMintedSale",
					"outputs": [
						{
							"internalType": "string",
							"name": "",
							"type": "string"
						},
						{
							"internalType": "uint256",
							"name": "",
							"type": "uint256"
						},
						{
							"internalType": "address",
							"name": "",
							"type": "address"
						}
					],
					"stateMutability": "view",
					"type": "function"
				},
				{
					"inputs": [],
					"name": "getLatestSaleCount",
					"outputs": [
						{
							"internalType": "uint256",
							"name": "",
							"type": "uint256"
						}
					],
					"stateMutability": "view",
					"type": "function"
				},
				{
					"inputs": [],
					"name": "owner",
					"outputs": [
						{
							"internalType": "address",
							"name": "",
							"type": "address"
						}
					],
					"stateMutability": "view",
					"type": "function"
				},
				{
					"inputs": [],
					"name": "renounceOwnership",
					"outputs": [],
					"stateMutability": "nonpayable",
					"type": "function"
				},
				{
					"inputs": [
						{
							"internalType": "string",
							"name": "",
							"type": "string"
						}
					],
					"name": "saleId",
					"outputs": [
						{
							"internalType": "uint256",
							"name": "",
							"type": "uint256"
						}
					],
					"stateMutability": "view",
					"type": "function"
				},
				{
					"inputs": [
						{
							"internalType": "uint256",
							"name": "",
							"type": "uint256"
						}
					],
					"name": "saleInfo",
					"outputs": [
						{
							"internalType": "string",
							"name": "name",
							"type": "string"
						},
						{
							"internalType": "uint160",
							"name": "supply",
							"type": "uint160"
						},
						{
							"internalType": "address",
							"name": "walletAddress",
							"type": "address"
						},
						{
							"internalType": "uint256",
							"name": "startAt",
							"type": "uint256"
						}
					],
					"stateMutability": "view",
					"type": "function"
				},
				{
					"inputs": [],
					"name": "startSale",
					"outputs": [],
					"stateMutability": "nonpayable",
					"type": "function"
				},
				{
					"inputs": [],
					"name": "token",
					"outputs": [
						{
							"internalType": "contract IAnryton",
							"name": "",
							"type": "address"
						}
					],
					"stateMutability": "view",
					"type": "function"
				},
				{
					"inputs": [
						{
							"internalType": "address",
							"name": "newOwner",
							"type": "address"
						}
					],
					"name": "transferOwnership",
					"outputs": [],
					"stateMutability": "nonpayable",
					"type": "function"
				}
			],
			"devdoc": {
				"errors": {
					"OwnableInvalidOwner(address)": [
						{
							"details": "The owner is not a valid owner account. (eg. `address(0)`)"
						}
					],
					"OwnableUnauthorizedAccount(address)": [
						{
							"details": "The caller account is not authorized to perform an operation."
						}
					]
				},
				"kind": "dev",
				"methods": {
					"owner()": {
						"details": "Returns the address of the current owner."
					},
					"renounceOwnership()": {
						"details": "Leaves the contract without owner. It will not be possible to call `onlyOwner` functions. Can only be called by the current owner. NOTE: Renouncing ownership will leave the contract without an owner, thereby disabling any functionality that is only available to the owner."
					},
					"transferOwnership(address)": {
						"details": "Transfers ownership of the contract to a new account (`newOwner`). Can only be called by the current owner."
					}
				},
				"version": 1
			},
			"evm": {
				"assembly": "    /* \"contracts/Sales.sol\":136:2547  contract Sales is Ownable {... */\n  mstore(0x40, 0xa0)\n    /* \"contracts/Sales.sol\":198:199  0 */\n  0x00\n    /* \"contracts/Sales.sol\":168:199  uint256 private saleCounter = 0 */\n  0x01\n  sstore\n    /* \"contracts/Sales.sol\":584:697  constructor(address _token) Ownable(msg.sender) {... */\n  callvalue\n  dup1\n  iszero\n  tag_1\n  jumpi\n  0x00\n  dup1\n  revert\ntag_1:\n  pop\n  mload(0x40)\n  sub(codesize, bytecodeSize)\n  dup1\n  bytecodeSize\n  dup4\n  codecopy\n  dup2\n  dup2\n  add\n  0x40\n  mstore\n  dup2\n  add\n  swap1\n  tag_2\n  swap2\n  swap1\n  tag_3\n  jump\t// in\ntag_2:\n    /* \"contracts/Sales.sol\":620:630  msg.sender */\n  caller\n    /* \"@openzeppelin/contracts/access/Ownable.sol\":1296:1297  0 */\n  0x00\n    /* \"@openzeppelin/contracts/access/Ownable.sol\":1272:1298  initialOwner == address(0) */\n  0xffffffffffffffffffffffffffffffffffffffff\n  and\n    /* \"@openzeppelin/contracts/access/Ownable.sol\":1272:1284  initialOwner */\n  dup2\n    /* \"@openzeppelin/contracts/access/Ownable.sol\":1272:1298  initialOwner == address(0) */\n  0xffffffffffffffffffffffffffffffffffffffff\n  and\n  sub\n    /* \"@openzeppelin/contracts/access/Ownable.sol\":1268:1363  if (initialOwner == address(0)) {... */\n  tag_7\n  jumpi\n    /* \"@openzeppelin/contracts/access/Ownable.sol\":1349:1350  0 */\n  0x00\n    /* \"@openzeppelin/contracts/access/Ownable.sol\":1321:1352  OwnableInvalidOwner(address(0)) */\n  mload(0x40)\n  0x1e4fbdf700000000000000000000000000000000000000000000000000000000\n  dup2\n  mstore\n  0x04\n  add\n  tag_8\n  swap2\n  swap1\n  tag_9\n  jump\t// in\ntag_8:\n  mload(0x40)\n  dup1\n  swap2\n  sub\n  swap1\n  revert\n    /* \"@openzeppelin/contracts/access/Ownable.sol\":1268:1363  if (initialOwner == address(0)) {... */\ntag_7:\n    /* \"@openzeppelin/contracts/access/Ownable.sol\":1372:1404  _transferOwnership(initialOwner) */\n  tag_10\n    /* \"@openzeppelin/contracts/access/Ownable.sol\":1391:1403  initialOwner */\n  dup2\n    /* \"@openzeppelin/contracts/access/Ownable.sol\":1372:1390  _transferOwnership */\n  shl(0x20, tag_11)\n    /* \"@openzeppelin/contracts/access/Ownable.sol\":1372:1404  _transferOwnership(initialOwner) */\n  0x20\n  shr\n  jump\t// in\ntag_10:\n    /* \"@openzeppelin/contracts/access/Ownable.sol\":1224:1411  constructor(address initialOwner) {... */\n  pop\n    /* \"contracts/Sales.sol\":659:665  _token */\n  dup1\n    /* \"contracts/Sales.sol\":642:666  token = IAnryton(_token) */\n  0xffffffffffffffffffffffffffffffffffffffff\n  and\n  0x80\n  dup2\n  0xffffffffffffffffffffffffffffffffffffffff\n  and\n  dup2\n  mstore\n  pop\n  pop\n    /* \"contracts/Sales.sol\":676:690  _defaultSale() */\n  tag_13\n    /* \"contracts/Sales.sol\":676:688  _defaultSale */\n  shl(0x20, tag_14)\n    /* \"contracts/Sales.sol\":676:690  _defaultSale() */\n  0x20\n  shr\n  jump\t// in\ntag_13:\n    /* \"contracts/Sales.sol\":584:697  constructor(address _token) Ownable(msg.sender) {... */\n  pop\n    /* \"contracts/Sales.sol\":136:2547  contract Sales is Ownable {... */\n  jump(tag_15)\n    /* \"@openzeppelin/contracts/access/Ownable.sol\":2911:3098  function _transferOwnership(address newOwner) internal virtual {... */\ntag_11:\n    /* \"@openzeppelin/contracts/access/Ownable.sol\":2984:3000  address oldOwner */\n  0x00\n    /* \"@openzeppelin/contracts/access/Ownable.sol\":3003:3009  _owner */\n  dup1\n  0x00\n  swap1\n  sload\n  swap1\n  0x0100\n  exp\n  swap1\n  div\n  0xffffffffffffffffffffffffffffffffffffffff\n  and\n    /* \"@openzeppelin/contracts/access/Ownable.sol\":2984:3009  address oldOwner = _owner */\n  swap1\n  pop\n    /* \"@openzeppelin/contracts/access/Ownable.sol\":3028:3036  newOwner */\n  dup2\n    /* \"@openzeppelin/contracts/access/Ownable.sol\":3019:3025  _owner */\n  0x00\n  dup1\n    /* \"@openzeppelin/contracts/access/Ownable.sol\":3019:3036  _owner = newOwner */\n  0x0100\n  exp\n  dup2\n  sload\n  dup2\n  0xffffffffffffffffffffffffffffffffffffffff\n  mul\n  not\n  and\n  swap1\n  dup4\n  0xffffffffffffffffffffffffffffffffffffffff\n  and\n  mul\n  or\n  swap1\n  sstore\n  pop\n    /* \"@openzeppelin/contracts/access/Ownable.sol\":3082:3090  newOwner */\n  dup2\n    /* \"@openzeppelin/contracts/access/Ownable.sol\":3051:3091  OwnershipTransferred(oldOwner, newOwner) */\n  0xffffffffffffffffffffffffffffffffffffffff\n  and\n    /* \"@openzeppelin/contracts/access/Ownable.sol\":3072:3080  oldOwner */\n  dup2\n    /* \"@openzeppelin/contracts/access/Ownable.sol\":3051:3091  OwnershipTransferred(oldOwner, newOwner) */\n  0xffffffffffffffffffffffffffffffffffffffff\n  and\n  0x8be0079c531659141344cd1fd0a4f28419497f9722a3daafe3b4186f6b6457e0\n  mload(0x40)\n  mload(0x40)\n  dup1\n  swap2\n  sub\n  swap1\n  log3\n    /* \"@openzeppelin/contracts/access/Ownable.sol\":2974:3098  {... */\n  pop\n    /* \"@openzeppelin/contracts/access/Ownable.sol\":2911:3098  function _transferOwnership(address newOwner) internal virtual {... */\n  pop\n  jump\t// out\n    /* \"contracts/Sales.sol\":813:873  function _defaultSale() private {... */\ntag_14:\n    /* \"contracts/Sales.sol\":855:866  startSale() */\n  tag_18\n    /* \"contracts/Sales.sol\":855:864  startSale */\n  shl(0x20, tag_19)\n    /* \"contracts/Sales.sol\":855:866  startSale() */\n  0x20\n  shr\n  jump\t// in\ntag_18:\n    /* \"contracts/Sales.sol\":813:873  function _defaultSale() private {... */\n  jump\t// out\n    /* \"contracts/Sales.sol\":996:1397  function startSale() public onlyOwner {... */\ntag_19:\n    /* \"@openzeppelin/contracts/access/Ownable.sol\":1530:1543  _checkOwner() */\n  tag_21\n    /* \"@openzeppelin/contracts/access/Ownable.sol\":1530:1541  _checkOwner */\n  shl(0x20, tag_22)\n    /* \"@openzeppelin/contracts/access/Ownable.sol\":1530:1543  _checkOwner() */\n  0x20\n  shr\n  jump\t// in\ntag_21:\n    /* \"contracts/Sales.sol\":1044:1064  uint256 _currentTime */\n  0x00\n    /* \"contracts/Sales.sol\":1067:1082  block.timestamp */\n  timestamp\n    /* \"contracts/Sales.sol\":1044:1082  uint256 _currentTime = block.timestamp */\n  swap1\n  pop\n    /* \"contracts/Sales.sol\":1092:1106  uint256 _count */\n  0x00\n    /* \"contracts/Sales.sol\":1111:1122  saleCounter */\n  0x01\n  0x00\n    /* \"contracts/Sales.sol\":1109:1122  ++saleCounter */\n  dup2\n  sload\n  tag_24\n  swap1\n  tag_25\n  jump\t// in\ntag_24:\n  swap2\n  swap1\n  pop\n  dup2\n  swap1\n  sstore\n    /* \"contracts/Sales.sol\":1092:1122  uint256 _count = ++saleCounter */\n  swap1\n  pop\n    /* \"contracts/Sales.sol\":1146:1169  string memory _saleName */\n  0x00\n    /* \"contracts/Sales.sol\":1183:1198  uint256 _supply */\n  dup1\n    /* \"contracts/Sales.sol\":1212:1234  address _walletAddress */\n  0x00\n    /* \"contracts/Sales.sol\":1247:1268  getLatestMintedSale() */\n  tag_26\n    /* \"contracts/Sales.sol\":1247:1266  getLatestMintedSale */\n  shl(0x20, tag_27)\n    /* \"contracts/Sales.sol\":1247:1268  getLatestMintedSale() */\n  0x20\n  shr\n  jump\t// in\ntag_26:\n    /* \"contracts/Sales.sol\":1132:1268  (... */\n  swap3\n  pop\n  swap3\n  pop\n  swap3\n  pop\n    /* \"contracts/Sales.sol\":1324:1390  _addSale(_count, _saleName, _supply, _walletAddress, _currentTime) */\n  tag_28\n    /* \"contracts/Sales.sol\":1333:1339  _count */\n  dup5\n    /* \"contracts/Sales.sol\":1341:1350  _saleName */\n  dup5\n    /* \"contracts/Sales.sol\":1352:1359  _supply */\n  dup5\n    /* \"contracts/Sales.sol\":1361:1375  _walletAddress */\n  dup5\n    /* \"contracts/Sales.sol\":1377:1389  _currentTime */\n  dup10\n    /* \"contracts/Sales.sol\":1324:1332  _addSale */\n  shl(0x20, tag_29)\n    /* \"contracts/Sales.sol\":1324:1390  _addSale(_count, _saleName, _supply, _walletAddress, _currentTime) */\n  0x20\n  shr\n  jump\t// in\ntag_28:\n    /* \"contracts/Sales.sol\":1034:1397  {... */\n  pop\n  pop\n  pop\n  pop\n  pop\n    /* \"contracts/Sales.sol\":996:1397  function startSale() public onlyOwner {... */\n  jump\t// out\n    /* \"@openzeppelin/contracts/access/Ownable.sol\":1795:1957  function _checkOwner() internal view virtual {... */\ntag_22:\n    /* \"@openzeppelin/contracts/access/Ownable.sol\":1865:1877  _msgSender() */\n  tag_31\n    /* \"@openzeppelin/contracts/access/Ownable.sol\":1865:1875  _msgSender */\n  shl(0x20, tag_32)\n    /* \"@openzeppelin/contracts/access/Ownable.sol\":1865:1877  _msgSender() */\n  0x20\n  shr\n  jump\t// in\ntag_31:\n    /* \"@openzeppelin/contracts/access/Ownable.sol\":1854:1877  owner() != _msgSender() */\n  0xffffffffffffffffffffffffffffffffffffffff\n  and\n    /* \"@openzeppelin/contracts/access/Ownable.sol\":1854:1861  owner() */\n  tag_33\n    /* \"@openzeppelin/contracts/access/Ownable.sol\":1854:1859  owner */\n  shl(0x20, tag_34)\n    /* \"@openzeppelin/contracts/access/Ownable.sol\":1854:1861  owner() */\n  0x20\n  shr\n  jump\t// in\ntag_33:\n    /* \"@openzeppelin/contracts/access/Ownable.sol\":1854:1877  owner() != _msgSender() */\n  0xffffffffffffffffffffffffffffffffffffffff\n  and\n  eq\n    /* \"@openzeppelin/contracts/access/Ownable.sol\":1850:1951  if (owner() != _msgSender()) {... */\n  tag_35\n  jumpi\n    /* \"@openzeppelin/contracts/access/Ownable.sol\":1927:1939  _msgSender() */\n  tag_36\n    /* \"@openzeppelin/contracts/access/Ownable.sol\":1927:1937  _msgSender */\n  shl(0x20, tag_32)\n    /* \"@openzeppelin/contracts/access/Ownable.sol\":1927:1939  _msgSender() */\n  0x20\n  shr\n  jump\t// in\ntag_36:\n    /* \"@openzeppelin/contracts/access/Ownable.sol\":1900:1940  OwnableUnauthorizedAccount(_msgSender()) */\n  mload(0x40)\n  0x118cdaa700000000000000000000000000000000000000000000000000000000\n  dup2\n  mstore\n  0x04\n  add\n  tag_37\n  swap2\n  swap1\n  tag_9\n  jump\t// in\ntag_37:\n  mload(0x40)\n  dup1\n  swap2\n  sub\n  swap1\n  revert\n    /* \"@openzeppelin/contracts/access/Ownable.sol\":1850:1951  if (owner() != _msgSender()) {... */\ntag_35:\n    /* \"@openzeppelin/contracts/access/Ownable.sol\":1795:1957  function _checkOwner() internal view virtual {... */\n  jump\t// out\n    /* \"contracts/Sales.sol\":1999:2339  function getLatestMintedSale()... */\ntag_27:\n    /* \"contracts/Sales.sol\":2075:2088  string memory */\n  0x60\n    /* \"contracts/Sales.sol\":2090:2097  uint256 */\n  0x00\n    /* \"contracts/Sales.sol\":2099:2106  address */\n  dup1\n    /* \"contracts/Sales.sol\":2122:2145  string memory _saleName */\n  0x00\n    /* \"contracts/Sales.sol\":2148:2153  token */\n  mload(0x80)\n    /* \"contracts/Sales.sol\":2148:2167  token.getLatestSale */\n  0xffffffffffffffffffffffffffffffffffffffff\n  and\n  0x944df045\n    /* \"contracts/Sales.sol\":2148:2169  token.getLatestSale() */\n  mload(0x40)\n  dup2\n  0xffffffff\n  and\n  0xe0\n  shl\n  dup2\n  mstore\n  0x04\n  add\n  0x00\n  mload(0x40)\n  dup1\n  dup4\n  sub\n  dup2\n  dup7\n  gas\n  staticcall\n  iszero\n  dup1\n  iszero\n  tag_40\n  jumpi\n  returndatasize\n  0x00\n  dup1\n  returndatacopy\n  revert(0x00, returndatasize)\ntag_40:\n  pop\n  pop\n  pop\n  pop\n  mload(0x40)\n  returndatasize\n  0x00\n  dup3\n  returndatacopy\n  returndatasize\n  not(0x1f)\n  0x1f\n  dup3\n  add\n  and\n  dup3\n  add\n  dup1\n  0x40\n  mstore\n  pop\n  dup2\n  add\n  swap1\n  tag_41\n  swap2\n  swap1\n  tag_42\n  jump\t// in\ntag_41:\n    /* \"contracts/Sales.sol\":2122:2169  string memory _saleName = token.getLatestSale() */\n  swap1\n  pop\n    /* \"contracts/Sales.sol\":2180:2195  uint256 _supply */\n  0x00\n    /* \"contracts/Sales.sol\":2197:2219  address _walletAddress */\n  dup1\n    /* \"contracts/Sales.sol\":2223:2228  token */\n  mload(0x80)\n    /* \"contracts/Sales.sol\":2223:2268  token... */\n  0xffffffffffffffffffffffffffffffffffffffff\n  and\n  0x060a9aeb\n    /* \"contracts/Sales.sol\":2269:2278  _saleName */\n  dup5\n    /* \"contracts/Sales.sol\":2223:2279  token... */\n  mload(0x40)\n  dup3\n  0xffffffff\n  and\n  0xe0\n  shl\n  dup2\n  mstore\n  0x04\n  add\n  tag_43\n  swap2\n  swap1\n  tag_44\n  jump\t// in\ntag_43:\n  0x40\n  dup1\n  mload\n  dup1\n  dup4\n  sub\n  dup2\n  dup7\n  gas\n  staticcall\n  iszero\n  dup1\n  iszero\n  tag_46\n  jumpi\n  returndatasize\n  0x00\n  dup1\n  returndatacopy\n  revert(0x00, returndatasize)\ntag_46:\n  pop\n  pop\n  pop\n  pop\n  mload(0x40)\n  returndatasize\n  not(0x1f)\n  0x1f\n  dup3\n  add\n  and\n  dup3\n  add\n  dup1\n  0x40\n  mstore\n  pop\n  dup2\n  add\n  swap1\n  tag_47\n  swap2\n  swap1\n  tag_48\n  jump\t// in\ntag_47:\n    /* \"contracts/Sales.sol\":2179:2279  (uint256 _supply, address _walletAddress) = token... */\n  swap2\n  pop\n  swap2\n  pop\n    /* \"contracts/Sales.sol\":2297:2306  _saleName */\n  dup3\n    /* \"contracts/Sales.sol\":2308:2315  _supply */\n  dup3\n    /* \"contracts/Sales.sol\":2317:2331  _walletAddress */\n  dup3\n    /* \"contracts/Sales.sol\":2289:2332  return (_saleName, _supply, _walletAddress) */\n  swap6\n  pop\n  swap6\n  pop\n  swap6\n  pop\n  pop\n  pop\n  pop\n    /* \"contracts/Sales.sol\":1999:2339  function getLatestMintedSale()... */\n  swap1\n  swap2\n  swap3\n  jump\t// out\n    /* \"contracts/Sales.sol\":1403:1879  function _addSale(... */\ntag_29:\n    /* \"contracts/Sales.sol\":1613:1622  _saleName */\n  dup4\n    /* \"contracts/Sales.sol\":1589:1597  saleInfo */\n  0x03\n    /* \"contracts/Sales.sol\":1589:1605  saleInfo[_count] */\n  0x00\n    /* \"contracts/Sales.sol\":1598:1604  _count */\n  dup8\n    /* \"contracts/Sales.sol\":1589:1605  saleInfo[_count] */\n  dup2\n  mstore\n  0x20\n  add\n  swap1\n  dup2\n  mstore\n  0x20\n  add\n  0x00\n  keccak256\n    /* \"contracts/Sales.sol\":1589:1610  saleInfo[_count].name */\n  0x00\n  add\n    /* \"contracts/Sales.sol\":1589:1622  saleInfo[_count].name = _saleName */\n  swap1\n  dup2\n  tag_50\n  swap2\n  swap1\n  tag_51\n  jump\t// in\ntag_50:\n  pop\n    /* \"contracts/Sales.sol\":1666:1673  _supply */\n  dup3\n    /* \"contracts/Sales.sol\":1632:1640  saleInfo */\n  0x03\n    /* \"contracts/Sales.sol\":1632:1648  saleInfo[_count] */\n  0x00\n    /* \"contracts/Sales.sol\":1641:1647  _count */\n  dup8\n    /* \"contracts/Sales.sol\":1632:1648  saleInfo[_count] */\n  dup2\n  mstore\n  0x20\n  add\n  swap1\n  dup2\n  mstore\n  0x20\n  add\n  0x00\n  keccak256\n    /* \"contracts/Sales.sol\":1632:1655  saleInfo[_count].supply */\n  0x01\n  add\n  0x00\n    /* \"contracts/Sales.sol\":1632:1674  saleInfo[_count].supply = uint160(_supply) */\n  0x0100\n  exp\n  dup2\n  sload\n  dup2\n  0xffffffffffffffffffffffffffffffffffffffff\n  mul\n  not\n  and\n  swap1\n  dup4\n  0xffffffffffffffffffffffffffffffffffffffff\n  and\n  mul\n  or\n  swap1\n  sstore\n  pop\n    /* \"contracts/Sales.sol\":1717:1731  _walletAddress */\n  dup2\n    /* \"contracts/Sales.sol\":1684:1692  saleInfo */\n  0x03\n    /* \"contracts/Sales.sol\":1684:1700  saleInfo[_count] */\n  0x00\n    /* \"contracts/Sales.sol\":1693:1699  _count */\n  dup8\n    /* \"contracts/Sales.sol\":1684:1700  saleInfo[_count] */\n  dup2\n  mstore\n  0x20\n  add\n  swap1\n  dup2\n  mstore\n  0x20\n  add\n  0x00\n  keccak256\n    /* \"contracts/Sales.sol\":1684:1714  saleInfo[_count].walletAddress */\n  0x02\n  add\n  0x00\n    /* \"contracts/Sales.sol\":1684:1731  saleInfo[_count].walletAddress = _walletAddress */\n  0x0100\n  exp\n  dup2\n  sload\n  dup2\n  0xffffffffffffffffffffffffffffffffffffffff\n  mul\n  not\n  and\n  swap1\n  dup4\n  0xffffffffffffffffffffffffffffffffffffffff\n  and\n  mul\n  or\n  swap1\n  sstore\n  pop\n    /* \"contracts/Sales.sol\":1768:1780  _currentTime */\n  dup1\n    /* \"contracts/Sales.sol\":1741:1749  saleInfo */\n  0x03\n    /* \"contracts/Sales.sol\":1741:1757  saleInfo[_count] */\n  0x00\n    /* \"contracts/Sales.sol\":1750:1756  _count */\n  dup8\n    /* \"contracts/Sales.sol\":1741:1757  saleInfo[_count] */\n  dup2\n  mstore\n  0x20\n  add\n  swap1\n  dup2\n  mstore\n  0x20\n  add\n  0x00\n  keccak256\n    /* \"contracts/Sales.sol\":1741:1765  saleInfo[_count].startAt */\n  0x03\n  add\n    /* \"contracts/Sales.sol\":1741:1780  saleInfo[_count].startAt = _currentTime */\n  dup2\n  swap1\n  sstore\n  pop\n    /* \"contracts/Sales.sol\":1810:1816  _count */\n  dup5\n    /* \"contracts/Sales.sol\":1790:1796  saleId */\n  0x02\n    /* \"contracts/Sales.sol\":1797:1806  _saleName */\n  dup6\n    /* \"contracts/Sales.sol\":1790:1807  saleId[_saleName] */\n  mload(0x40)\n  tag_52\n  swap2\n  swap1\n  tag_53\n  jump\t// in\ntag_52:\n  swap1\n  dup2\n  mstore\n  0x20\n  add\n  mload(0x40)\n  dup1\n  swap2\n  sub\n  swap1\n  keccak256\n    /* \"contracts/Sales.sol\":1790:1816  saleId[_saleName] = _count */\n  dup2\n  swap1\n  sstore\n  pop\n    /* \"contracts/Sales.sol\":1859:1871  _currentTime */\n  dup1\n    /* \"contracts/Sales.sol\":1848:1857  _saleName */\n  dup5\n    /* \"contracts/Sales.sol\":1831:1872  SaleInfo(_count, _saleName, _currentTime) */\n  mload(0x40)\n  tag_54\n  swap2\n  swap1\n  tag_53\n  jump\t// in\ntag_54:\n  mload(0x40)\n  dup1\n  swap2\n  sub\n  swap1\n  keccak256\n    /* \"contracts/Sales.sol\":1840:1846  _count */\n  dup7\n    /* \"contracts/Sales.sol\":1831:1872  SaleInfo(_count, _saleName, _currentTime) */\n  0x0c19bb44b59579be200a2b8014813f052e8d673471778b18db3aae536dce7ba5\n  mload(0x40)\n  mload(0x40)\n  dup1\n  swap2\n  sub\n  swap1\n  log4\n    /* \"contracts/Sales.sol\":1403:1879  function _addSale(... */\n  pop\n  pop\n  pop\n  pop\n  pop\n  jump\t// out\n    /* \"@openzeppelin/contracts/utils/Context.sol\":655:751  function _msgSender() internal view virtual returns (address) {... */\ntag_32:\n    /* \"@openzeppelin/contracts/utils/Context.sol\":708:715  address */\n  0x00\n    /* \"@openzeppelin/contracts/utils/Context.sol\":734:744  msg.sender */\n  caller\n    /* \"@openzeppelin/contracts/utils/Context.sol\":727:744  return msg.sender */\n  swap1\n  pop\n    /* \"@openzeppelin/contracts/utils/Context.sol\":655:751  function _msgSender() internal view virtual returns (address) {... */\n  swap1\n  jump\t// out\n    /* \"@openzeppelin/contracts/access/Ownable.sol\":1637:1722  function owner() public view virtual returns (address) {... */\ntag_34:\n    /* \"@openzeppelin/contracts/access/Ownable.sol\":1683:1690  address */\n  0x00\n    /* \"@openzeppelin/contracts/access/Ownable.sol\":1709:1715  _owner */\n  dup1\n  0x00\n  swap1\n  sload\n  swap1\n  0x0100\n  exp\n  swap1\n  div\n  0xffffffffffffffffffffffffffffffffffffffff\n  and\n    /* \"@openzeppelin/contracts/access/Ownable.sol\":1702:1715  return _owner */\n  swap1\n  pop\n    /* \"@openzeppelin/contracts/access/Ownable.sol\":1637:1722  function owner() public view virtual returns (address) {... */\n  swap1\n  jump\t// out\n    /* \"#utility.yul\":7:82   */\ntag_57:\n    /* \"#utility.yul\":40:46   */\n  0x00\n    /* \"#utility.yul\":73:75   */\n  0x40\n    /* \"#utility.yul\":67:76   */\n  mload\n    /* \"#utility.yul\":57:76   */\n  swap1\n  pop\n    /* \"#utility.yul\":7:82   */\n  swap1\n  jump\t// out\n    /* \"#utility.yul\":88:205   */\ntag_58:\n    /* \"#utility.yul\":197:198   */\n  0x00\n    /* \"#utility.yul\":194:195   */\n  dup1\n    /* \"#utility.yul\":187:199   */\n  revert\n    /* \"#utility.yul\":211:328   */\ntag_59:\n    /* \"#utility.yul\":320:321   */\n  0x00\n    /* \"#utility.yul\":317:318   */\n  dup1\n    /* \"#utility.yul\":310:322   */\n  revert\n    /* \"#utility.yul\":334:460   */\ntag_60:\n    /* \"#utility.yul\":371:378   */\n  0x00\n    /* \"#utility.yul\":411:453   */\n  0xffffffffffffffffffffffffffffffffffffffff\n    /* \"#utility.yul\":404:409   */\n  dup3\n    /* \"#utility.yul\":400:454   */\n  and\n    /* \"#utility.yul\":389:454   */\n  swap1\n  pop\n    /* \"#utility.yul\":334:460   */\n  swap2\n  swap1\n  pop\n  jump\t// out\n    /* \"#utility.yul\":466:562   */\ntag_61:\n    /* \"#utility.yul\":503:510   */\n  0x00\n    /* \"#utility.yul\":532:556   */\n  tag_107\n    /* \"#utility.yul\":550:555   */\n  dup3\n    /* \"#utility.yul\":532:556   */\n  tag_60\n  jump\t// in\ntag_107:\n    /* \"#utility.yul\":521:556   */\n  swap1\n  pop\n    /* \"#utility.yul\":466:562   */\n  swap2\n  swap1\n  pop\n  jump\t// out\n    /* \"#utility.yul\":568:690   */\ntag_62:\n    /* \"#utility.yul\":641:665   */\n  tag_109\n    /* \"#utility.yul\":659:664   */\n  dup2\n    /* \"#utility.yul\":641:665   */\n  tag_61\n  jump\t// in\ntag_109:\n    /* \"#utility.yul\":634:639   */\n  dup2\n    /* \"#utility.yul\":631:666   */\n  eq\n    /* \"#utility.yul\":621:684   */\n  tag_110\n  jumpi\n    /* \"#utility.yul\":680:681   */\n  0x00\n    /* \"#utility.yul\":677:678   */\n  dup1\n    /* \"#utility.yul\":670:682   */\n  revert\n    /* \"#utility.yul\":621:684   */\ntag_110:\n    /* \"#utility.yul\":568:690   */\n  pop\n  jump\t// out\n    /* \"#utility.yul\":696:839   */\ntag_63:\n    /* \"#utility.yul\":753:758   */\n  0x00\n    /* \"#utility.yul\":784:790   */\n  dup2\n    /* \"#utility.yul\":778:791   */\n  mload\n    /* \"#utility.yul\":769:791   */\n  swap1\n  pop\n    /* \"#utility.yul\":800:833   */\n  tag_112\n    /* \"#utility.yul\":827:832   */\n  dup2\n    /* \"#utility.yul\":800:833   */\n  tag_62\n  jump\t// in\ntag_112:\n    /* \"#utility.yul\":696:839   */\n  swap3\n  swap2\n  pop\n  pop\n  jump\t// out\n    /* \"#utility.yul\":845:1196   */\ntag_3:\n    /* \"#utility.yul\":915:921   */\n  0x00\n    /* \"#utility.yul\":964:966   */\n  0x20\n    /* \"#utility.yul\":952:961   */\n  dup3\n    /* \"#utility.yul\":943:950   */\n  dup5\n    /* \"#utility.yul\":939:962   */\n  sub\n    /* \"#utility.yul\":935:967   */\n  slt\n    /* \"#utility.yul\":932:1051   */\n  iszero\n  tag_114\n  jumpi\n    /* \"#utility.yul\":970:1049   */\n  tag_115\n  tag_58\n  jump\t// in\ntag_115:\n    /* \"#utility.yul\":932:1051   */\ntag_114:\n    /* \"#utility.yul\":1090:1091   */\n  0x00\n    /* \"#utility.yul\":1115:1179   */\n  tag_116\n    /* \"#utility.yul\":1171:1178   */\n  dup5\n    /* \"#utility.yul\":1162:1168   */\n  dup3\n    /* \"#utility.yul\":1151:1160   */\n  dup6\n    /* \"#utility.yul\":1147:1169   */\n  add\n    /* \"#utility.yul\":1115:1179   */\n  tag_63\n  jump\t// in\ntag_116:\n    /* \"#utility.yul\":1105:1179   */\n  swap2\n  pop\n    /* \"#utility.yul\":1061:1189   */\n  pop\n    /* \"#utility.yul\":845:1196   */\n  swap3\n  swap2\n  pop\n  pop\n  jump\t// out\n    /* \"#utility.yul\":1202:1320   */\ntag_64:\n    /* \"#utility.yul\":1289:1313   */\n  tag_118\n    /* \"#utility.yul\":1307:1312   */\n  dup2\n    /* \"#utility.yul\":1289:1313   */\n  tag_61\n  jump\t// in\ntag_118:\n    /* \"#utility.yul\":1284:1287   */\n  dup3\n    /* \"#utility.yul\":1277:1314   */\n  mstore\n    /* \"#utility.yul\":1202:1320   */\n  pop\n  pop\n  jump\t// out\n    /* \"#utility.yul\":1326:1548   */\ntag_9:\n    /* \"#utility.yul\":1419:1423   */\n  0x00\n    /* \"#utility.yul\":1457:1459   */\n  0x20\n    /* \"#utility.yul\":1446:1455   */\n  dup3\n    /* \"#utility.yul\":1442:1460   */\n  add\n    /* \"#utility.yul\":1434:1460   */\n  swap1\n  pop\n    /* \"#utility.yul\":1470:1541   */\n  tag_120\n    /* \"#utility.yul\":1538:1539   */\n  0x00\n    /* \"#utility.yul\":1527:1536   */\n  dup4\n    /* \"#utility.yul\":1523:1540   */\n  add\n    /* \"#utility.yul\":1514:1520   */\n  dup5\n    /* \"#utility.yul\":1470:1541   */\n  tag_64\n  jump\t// in\ntag_120:\n    /* \"#utility.yul\":1326:1548   */\n  swap3\n  swap2\n  pop\n  pop\n  jump\t// out\n    /* \"#utility.yul\":1554:1734   */\ntag_65:\n    /* \"#utility.yul\":1602:1679   */\n  0x4e487b7100000000000000000000000000000000000000000000000000000000\n    /* \"#utility.yul\":1599:1600   */\n  0x00\n    /* \"#utility.yul\":1592:1680   */\n  mstore\n    /* \"#utility.yul\":1699:1703   */\n  0x11\n    /* \"#utility.yul\":1696:1697   */\n  0x04\n    /* \"#utility.yul\":1689:1704   */\n  mstore\n    /* \"#utility.yul\":1723:1727   */\n  0x24\n    /* \"#utility.yul\":1720:1721   */\n  0x00\n    /* \"#utility.yul\":1713:1728   */\n  revert\n    /* \"#utility.yul\":1740:1817   */\ntag_66:\n    /* \"#utility.yul\":1777:1784   */\n  0x00\n    /* \"#utility.yul\":1806:1811   */\n  dup2\n    /* \"#utility.yul\":1795:1811   */\n  swap1\n  pop\n    /* \"#utility.yul\":1740:1817   */\n  swap2\n  swap1\n  pop\n  jump\t// out\n    /* \"#utility.yul\":1823:2056   */\ntag_25:\n    /* \"#utility.yul\":1862:1865   */\n  0x00\n    /* \"#utility.yul\":1885:1909   */\n  tag_124\n    /* \"#utility.yul\":1903:1908   */\n  dup3\n    /* \"#utility.yul\":1885:1909   */\n  tag_66\n  jump\t// in\ntag_124:\n    /* \"#utility.yul\":1876:1909   */\n  swap2\n  pop\n    /* \"#utility.yul\":1931:1997   */\n  0xffffffffffffffffffffffffffffffffffffffffffffffffffffffffffffffff\n    /* \"#utility.yul\":1924:1929   */\n  dup3\n    /* \"#utility.yul\":1921:1998   */\n  sub\n    /* \"#utility.yul\":1918:2021   */\n  tag_125\n  jumpi\n    /* \"#utility.yul\":2001:2019   */\n  tag_126\n  tag_65\n  jump\t// in\ntag_126:\n    /* \"#utility.yul\":1918:2021   */\ntag_125:\n    /* \"#utility.yul\":2048:2049   */\n  0x01\n    /* \"#utility.yul\":2041:2046   */\n  dup3\n    /* \"#utility.yul\":2037:2050   */\n  add\n    /* \"#utility.yul\":2030:2050   */\n  swap1\n  pop\n    /* \"#utility.yul\":1823:2056   */\n  swap2\n  swap1\n  pop\n  jump\t// out\n    /* \"#utility.yul\":2062:2179   */\ntag_67:\n    /* \"#utility.yul\":2171:2172   */\n  0x00\n    /* \"#utility.yul\":2168:2169   */\n  dup1\n    /* \"#utility.yul\":2161:2173   */\n  revert\n    /* \"#utility.yul\":2185:2302   */\ntag_68:\n    /* \"#utility.yul\":2294:2295   */\n  0x00\n    /* \"#utility.yul\":2291:2292   */\n  dup1\n    /* \"#utility.yul\":2284:2296   */\n  revert\n    /* \"#utility.yul\":2308:2410   */\ntag_69:\n    /* \"#utility.yul\":2349:2355   */\n  0x00\n    /* \"#utility.yul\":2400:2402   */\n  0x1f\n    /* \"#utility.yul\":2396:2403   */\n  not\n    /* \"#utility.yul\":2391:2393   */\n  0x1f\n    /* \"#utility.yul\":2384:2389   */\n  dup4\n    /* \"#utility.yul\":2380:2394   */\n  add\n    /* \"#utility.yul\":2376:2404   */\n  and\n    /* \"#utility.yul\":2366:2404   */\n  swap1\n  pop\n    /* \"#utility.yul\":2308:2410   */\n  swap2\n  swap1\n  pop\n  jump\t// out\n    /* \"#utility.yul\":2416:2596   */\ntag_70:\n    /* \"#utility.yul\":2464:2541   */\n  0x4e487b7100000000000000000000000000000000000000000000000000000000\n    /* \"#utility.yul\":2461:2462   */\n  0x00\n    /* \"#utility.yul\":2454:2542   */\n  mstore\n    /* \"#utility.yul\":2561:2565   */\n  0x41\n    /* \"#utility.yul\":2558:2559   */\n  0x04\n    /* \"#utility.yul\":2551:2566   */\n  mstore\n    /* \"#utility.yul\":2585:2589   */\n  0x24\n    /* \"#utility.yul\":2582:2583   */\n  0x00\n    /* \"#utility.yul\":2575:2590   */\n  revert\n    /* \"#utility.yul\":2602:2883   */\ntag_71:\n    /* \"#utility.yul\":2685:2712   */\n  tag_132\n    /* \"#utility.yul\":2707:2711   */\n  dup3\n    /* \"#utility.yul\":2685:2712   */\n  tag_69\n  jump\t// in\ntag_132:\n    /* \"#utility.yul\":2677:2683   */\n  dup2\n    /* \"#utility.yul\":2673:2713   */\n  add\n    /* \"#utility.yul\":2815:2821   */\n  dup2\n    /* \"#utility.yul\":2803:2813   */\n  dup2\n    /* \"#utility.yul\":2800:2822   */\n  lt\n    /* \"#utility.yul\":2779:2797   */\n  0xffffffffffffffff\n    /* \"#utility.yul\":2767:2777   */\n  dup3\n    /* \"#utility.yul\":2764:2798   */\n  gt\n    /* \"#utility.yul\":2761:2823   */\n  or\n    /* \"#utility.yul\":2758:2846   */\n  iszero\n  tag_133\n  jumpi\n    /* \"#utility.yul\":2826:2844   */\n  tag_134\n  tag_70\n  jump\t// in\ntag_134:\n    /* \"#utility.yul\":2758:2846   */\ntag_133:\n    /* \"#utility.yul\":2866:2876   */\n  dup1\n    /* \"#utility.yul\":2862:2864   */\n  0x40\n    /* \"#utility.yul\":2855:2877   */\n  mstore\n    /* \"#utility.yul\":2645:2883   */\n  pop\n    /* \"#utility.yul\":2602:2883   */\n  pop\n  pop\n  jump\t// out\n    /* \"#utility.yul\":2889:3018   */\ntag_72:\n    /* \"#utility.yul\":2923:2929   */\n  0x00\n    /* \"#utility.yul\":2950:2970   */\n  tag_136\n  tag_57\n  jump\t// in\ntag_136:\n    /* \"#utility.yul\":2940:2970   */\n  swap1\n  pop\n    /* \"#utility.yul\":2979:3012   */\n  tag_137\n    /* \"#utility.yul\":3007:3011   */\n  dup3\n    /* \"#utility.yul\":2999:3005   */\n  dup3\n    /* \"#utility.yul\":2979:3012   */\n  tag_71\n  jump\t// in\ntag_137:\n    /* \"#utility.yul\":2889:3018   */\n  swap2\n  swap1\n  pop\n  jump\t// out\n    /* \"#utility.yul\":3024:3332   */\ntag_73:\n    /* \"#utility.yul\":3086:3090   */\n  0x00\n    /* \"#utility.yul\":3176:3194   */\n  0xffffffffffffffff\n    /* \"#utility.yul\":3168:3174   */\n  dup3\n    /* \"#utility.yul\":3165:3195   */\n  gt\n    /* \"#utility.yul\":3162:3218   */\n  iszero\n  tag_139\n  jumpi\n    /* \"#utility.yul\":3198:3216   */\n  tag_140\n  tag_70\n  jump\t// in\ntag_140:\n    /* \"#utility.yul\":3162:3218   */\ntag_139:\n    /* \"#utility.yul\":3236:3265   */\n  tag_141\n    /* \"#utility.yul\":3258:3264   */\n  dup3\n    /* \"#utility.yul\":3236:3265   */\n  tag_69\n  jump\t// in\ntag_141:\n    /* \"#utility.yul\":3228:3265   */\n  swap1\n  pop\n    /* \"#utility.yul\":3320:3324   */\n  0x20\n    /* \"#utility.yul\":3314:3318   */\n  dup2\n    /* \"#utility.yul\":3310:3325   */\n  add\n    /* \"#utility.yul\":3302:3325   */\n  swap1\n  pop\n    /* \"#utility.yul\":3024:3332   */\n  swap2\n  swap1\n  pop\n  jump\t// out\n    /* \"#utility.yul\":3338:3584   */\ntag_74:\n    /* \"#utility.yul\":3419:3420   */\n  0x00\n    /* \"#utility.yul\":3429:3542   */\ntag_143:\n    /* \"#utility.yul\":3443:3449   */\n  dup4\n    /* \"#utility.yul\":3440:3441   */\n  dup2\n    /* \"#utility.yul\":3437:3450   */\n  lt\n    /* \"#utility.yul\":3429:3542   */\n  iszero\n  tag_145\n  jumpi\n    /* \"#utility.yul\":3528:3529   */\n  dup1\n    /* \"#utility.yul\":3523:3526   */\n  dup3\n    /* \"#utility.yul\":3519:3530   */\n  add\n    /* \"#utility.yul\":3513:3531   */\n  mload\n    /* \"#utility.yul\":3509:3510   */\n  dup2\n    /* \"#utility.yul\":3504:3507   */\n  dup5\n    /* \"#utility.yul\":3500:3511   */\n  add\n    /* \"#utility.yul\":3493:3532   */\n  mstore\n    /* \"#utility.yul\":3465:3467   */\n  0x20\n    /* \"#utility.yul\":3462:3463   */\n  dup2\n    /* \"#utility.yul\":3458:3468   */\n  add\n    /* \"#utility.yul\":3453:3468   */\n  swap1\n  pop\n    /* \"#utility.yul\":3429:3542   */\n  jump(tag_143)\ntag_145:\n    /* \"#utility.yul\":3576:3577   */\n  0x00\n    /* \"#utility.yul\":3567:3573   */\n  dup5\n    /* \"#utility.yul\":3562:3565   */\n  dup5\n    /* \"#utility.yul\":3558:3574   */\n  add\n    /* \"#utility.yul\":3551:3578   */\n  mstore\n    /* \"#utility.yul\":3400:3584   */\n  pop\n    /* \"#utility.yul\":3338:3584   */\n  pop\n  pop\n  pop\n  jump\t// out\n    /* \"#utility.yul\":3590:4024   */\ntag_75:\n    /* \"#utility.yul\":3679:3684   */\n  0x00\n    /* \"#utility.yul\":3704:3770   */\n  tag_147\n    /* \"#utility.yul\":3720:3769   */\n  tag_148\n    /* \"#utility.yul\":3762:3768   */\n  dup5\n    /* \"#utility.yul\":3720:3769   */\n  tag_73\n  jump\t// in\ntag_148:\n    /* \"#utility.yul\":3704:3770   */\n  tag_72\n  jump\t// in\ntag_147:\n    /* \"#utility.yul\":3695:3770   */\n  swap1\n  pop\n    /* \"#utility.yul\":3793:3799   */\n  dup3\n    /* \"#utility.yul\":3786:3791   */\n  dup2\n    /* \"#utility.yul\":3779:3800   */\n  mstore\n    /* \"#utility.yul\":3831:3835   */\n  0x20\n    /* \"#utility.yul\":3824:3829   */\n  dup2\n    /* \"#utility.yul\":3820:3836   */\n  add\n    /* \"#utility.yul\":3869:3872   */\n  dup5\n    /* \"#utility.yul\":3860:3866   */\n  dup5\n    /* \"#utility.yul\":3855:3858   */\n  dup5\n    /* \"#utility.yul\":3851:3867   */\n  add\n    /* \"#utility.yul\":3848:3873   */\n  gt\n    /* \"#utility.yul\":3845:3957   */\n  iszero\n  tag_149\n  jumpi\n    /* \"#utility.yul\":3876:3955   */\n  tag_150\n  tag_68\n  jump\t// in\ntag_150:\n    /* \"#utility.yul\":3845:3957   */\ntag_149:\n    /* \"#utility.yul\":3966:4018   */\n  tag_151\n    /* \"#utility.yul\":4011:4017   */\n  dup5\n    /* \"#utility.yul\":4006:4009   */\n  dup3\n    /* \"#utility.yul\":4001:4004   */\n  dup6\n    /* \"#utility.yul\":3966:4018   */\n  tag_74\n  jump\t// in\ntag_151:\n    /* \"#utility.yul\":3685:4024   */\n  pop\n    /* \"#utility.yul\":3590:4024   */\n  swap4\n  swap3\n  pop\n  pop\n  pop\n  jump\t// out\n    /* \"#utility.yul\":4044:4399   */\ntag_76:\n    /* \"#utility.yul\":4111:4116   */\n  0x00\n    /* \"#utility.yul\":4160:4163   */\n  dup3\n    /* \"#utility.yul\":4153:4157   */\n  0x1f\n    /* \"#utility.yul\":4145:4151   */\n  dup4\n    /* \"#utility.yul\":4141:4158   */\n  add\n    /* \"#utility.yul\":4137:4164   */\n  slt\n    /* \"#utility.yul\":4127:4249   */\n  tag_153\n  jumpi\n    /* \"#utility.yul\":4168:4247   */\n  tag_154\n  tag_67\n  jump\t// in\ntag_154:\n    /* \"#utility.yul\":4127:4249   */\ntag_153:\n    /* \"#utility.yul\":4278:4284   */\n  dup2\n    /* \"#utility.yul\":4272:4285   */\n  mload\n    /* \"#utility.yul\":4303:4393   */\n  tag_155\n    /* \"#utility.yul\":4389:4392   */\n  dup5\n    /* \"#utility.yul\":4381:4387   */\n  dup3\n    /* \"#utility.yul\":4374:4378   */\n  0x20\n    /* \"#utility.yul\":4366:4372   */\n  dup7\n    /* \"#utility.yul\":4362:4379   */\n  add\n    /* \"#utility.yul\":4303:4393   */\n  tag_75\n  jump\t// in\ntag_155:\n    /* \"#utility.yul\":4294:4393   */\n  swap2\n  pop\n    /* \"#utility.yul\":4117:4399   */\n  pop\n    /* \"#utility.yul\":4044:4399   */\n  swap3\n  swap2\n  pop\n  pop\n  jump\t// out\n    /* \"#utility.yul\":4405:4929   */\ntag_42:\n    /* \"#utility.yul\":4485:4491   */\n  0x00\n    /* \"#utility.yul\":4534:4536   */\n  0x20\n    /* \"#utility.yul\":4522:4531   */\n  dup3\n    /* \"#utility.yul\":4513:4520   */\n  dup5\n    /* \"#utility.yul\":4509:4532   */\n  sub\n    /* \"#utility.yul\":4505:4537   */\n  slt\n    /* \"#utility.yul\":4502:4621   */\n  iszero\n  tag_157\n  jumpi\n    /* \"#utility.yul\":4540:4619   */\n  tag_158\n  tag_58\n  jump\t// in\ntag_158:\n    /* \"#utility.yul\":4502:4621   */\ntag_157:\n    /* \"#utility.yul\":4681:4682   */\n  0x00\n    /* \"#utility.yul\":4670:4679   */\n  dup3\n    /* \"#utility.yul\":4666:4683   */\n  add\n    /* \"#utility.yul\":4660:4684   */\n  mload\n    /* \"#utility.yul\":4711:4729   */\n  0xffffffffffffffff\n    /* \"#utility.yul\":4703:4709   */\n  dup2\n    /* \"#utility.yul\":4700:4730   */\n  gt\n    /* \"#utility.yul\":4697:4814   */\n  iszero\n  tag_159\n  jumpi\n    /* \"#utility.yul\":4733:4812   */\n  tag_160\n  tag_59\n  jump\t// in\ntag_160:\n    /* \"#utility.yul\":4697:4814   */\ntag_159:\n    /* \"#utility.yul\":4838:4912   */\n  tag_161\n    /* \"#utility.yul\":4904:4911   */\n  dup5\n    /* \"#utility.yul\":4895:4901   */\n  dup3\n    /* \"#utility.yul\":4884:4893   */\n  dup6\n    /* \"#utility.yul\":4880:4902   */\n  add\n    /* \"#utility.yul\":4838:4912   */\n  tag_76\n  jump\t// in\ntag_161:\n    /* \"#utility.yul\":4828:4912   */\n  swap2\n  pop\n    /* \"#utility.yul\":4631:4922   */\n  pop\n    /* \"#utility.yul\":4405:4929   */\n  swap3\n  swap2\n  pop\n  pop\n  jump\t// out\n    /* \"#utility.yul\":4935:5034   */\ntag_77:\n    /* \"#utility.yul\":4987:4993   */\n  0x00\n    /* \"#utility.yul\":5021:5026   */\n  dup2\n    /* \"#utility.yul\":5015:5027   */\n  mload\n    /* \"#utility.yul\":5005:5027   */\n  swap1\n  pop\n    /* \"#utility.yul\":4935:5034   */\n  swap2\n  swap1\n  pop\n  jump\t// out\n    /* \"#utility.yul\":5040:5209   */\ntag_78:\n    /* \"#utility.yul\":5124:5135   */\n  0x00\n    /* \"#utility.yul\":5158:5164   */\n  dup3\n    /* \"#utility.yul\":5153:5156   */\n  dup3\n    /* \"#utility.yul\":5146:5165   */\n  mstore\n    /* \"#utility.yul\":5198:5202   */\n  0x20\n    /* \"#utility.yul\":5193:5196   */\n  dup3\n    /* \"#utility.yul\":5189:5203   */\n  add\n    /* \"#utility.yul\":5174:5203   */\n  swap1\n  pop\n    /* \"#utility.yul\":5040:5209   */\n  swap3\n  swap2\n  pop\n  pop\n  jump\t// out\n    /* \"#utility.yul\":5215:5592   */\ntag_79:\n    /* \"#utility.yul\":5303:5306   */\n  0x00\n    /* \"#utility.yul\":5331:5370   */\n  tag_165\n    /* \"#utility.yul\":5364:5369   */\n  dup3\n    /* \"#utility.yul\":5331:5370   */\n  tag_77\n  jump\t// in\ntag_165:\n    /* \"#utility.yul\":5386:5457   */\n  tag_166\n    /* \"#utility.yul\":5450:5456   */\n  dup2\n    /* \"#utility.yul\":5445:5448   */\n  dup6\n    /* \"#utility.yul\":5386:5457   */\n  tag_78\n  jump\t// in\ntag_166:\n    /* \"#utility.yul\":5379:5457   */\n  swap4\n  pop\n    /* \"#utility.yul\":5466:5531   */\n  tag_167\n    /* \"#utility.yul\":5524:5530   */\n  dup2\n    /* \"#utility.yul\":5519:5522   */\n  dup6\n    /* \"#utility.yul\":5512:5516   */\n  0x20\n    /* \"#utility.yul\":5505:5510   */\n  dup7\n    /* \"#utility.yul\":5501:5517   */\n  add\n    /* \"#utility.yul\":5466:5531   */\n  tag_74\n  jump\t// in\ntag_167:\n    /* \"#utility.yul\":5556:5585   */\n  tag_168\n    /* \"#utility.yul\":5578:5584   */\n  dup2\n    /* \"#utility.yul\":5556:5585   */\n  tag_69\n  jump\t// in\ntag_168:\n    /* \"#utility.yul\":5551:5554   */\n  dup5\n    /* \"#utility.yul\":5547:5586   */\n  add\n    /* \"#utility.yul\":5540:5586   */\n  swap2\n  pop\n    /* \"#utility.yul\":5307:5592   */\n  pop\n    /* \"#utility.yul\":5215:5592   */\n  swap3\n  swap2\n  pop\n  pop\n  jump\t// out\n    /* \"#utility.yul\":5598:5911   */\ntag_44:\n    /* \"#utility.yul\":5711:5715   */\n  0x00\n    /* \"#utility.yul\":5749:5751   */\n  0x20\n    /* \"#utility.yul\":5738:5747   */\n  dup3\n    /* \"#utility.yul\":5734:5752   */\n  add\n    /* \"#utility.yul\":5726:5752   */\n  swap1\n  pop\n    /* \"#utility.yul\":5798:5807   */\n  dup2\n    /* \"#utility.yul\":5792:5796   */\n  dup2\n    /* \"#utility.yul\":5788:5808   */\n  sub\n    /* \"#utility.yul\":5784:5785   */\n  0x00\n    /* \"#utility.yul\":5773:5782   */\n  dup4\n    /* \"#utility.yul\":5769:5786   */\n  add\n    /* \"#utility.yul\":5762:5809   */\n  mstore\n    /* \"#utility.yul\":5826:5904   */\n  tag_170\n    /* \"#utility.yul\":5899:5903   */\n  dup2\n    /* \"#utility.yul\":5890:5896   */\n  dup5\n    /* \"#utility.yul\":5826:5904   */\n  tag_79\n  jump\t// in\ntag_170:\n    /* \"#utility.yul\":5818:5904   */\n  swap1\n  pop\n    /* \"#utility.yul\":5598:5911   */\n  swap3\n  swap2\n  pop\n  pop\n  jump\t// out\n    /* \"#utility.yul\":5917:6039   */\ntag_80:\n    /* \"#utility.yul\":5990:6014   */\n  tag_172\n    /* \"#utility.yul\":6008:6013   */\n  dup2\n    /* \"#utility.yul\":5990:6014   */\n  tag_66\n  jump\t// in\ntag_172:\n    /* \"#utility.yul\":5983:5988   */\n  dup2\n    /* \"#utility.yul\":5980:6015   */\n  eq\n    /* \"#utility.yul\":5970:6033   */\n  tag_173\n  jumpi\n    /* \"#utility.yul\":6029:6030   */\n  0x00\n    /* \"#utility.yul\":6026:6027   */\n  dup1\n    /* \"#utility.yul\":6019:6031   */\n  revert\n    /* \"#utility.yul\":5970:6033   */\ntag_173:\n    /* \"#utility.yul\":5917:6039   */\n  pop\n  jump\t// out\n    /* \"#utility.yul\":6045:6188   */\ntag_81:\n    /* \"#utility.yul\":6102:6107   */\n  0x00\n    /* \"#utility.yul\":6133:6139   */\n  dup2\n    /* \"#utility.yul\":6127:6140   */\n  mload\n    /* \"#utility.yul\":6118:6140   */\n  swap1\n  pop\n    /* \"#utility.yul\":6149:6182   */\n  tag_175\n    /* \"#utility.yul\":6176:6181   */\n  dup2\n    /* \"#utility.yul\":6149:6182   */\n  tag_80\n  jump\t// in\ntag_175:\n    /* \"#utility.yul\":6045:6188   */\n  swap3\n  swap2\n  pop\n  pop\n  jump\t// out\n    /* \"#utility.yul\":6194:6701   */\ntag_48:\n    /* \"#utility.yul\":6273:6279   */\n  0x00\n    /* \"#utility.yul\":6281:6287   */\n  dup1\n    /* \"#utility.yul\":6330:6332   */\n  0x40\n    /* \"#utility.yul\":6318:6327   */\n  dup4\n    /* \"#utility.yul\":6309:6316   */\n  dup6\n    /* \"#utility.yul\":6305:6328   */\n  sub\n    /* \"#utility.yul\":6301:6333   */\n  slt\n    /* \"#utility.yul\":6298:6417   */\n  iszero\n  tag_177\n  jumpi\n    /* \"#utility.yul\":6336:6415   */\n  tag_178\n  tag_58\n  jump\t// in\ntag_178:\n    /* \"#utility.yul\":6298:6417   */\ntag_177:\n    /* \"#utility.yul\":6456:6457   */\n  0x00\n    /* \"#utility.yul\":6481:6545   */\n  tag_179\n    /* \"#utility.yul\":6537:6544   */\n  dup6\n    /* \"#utility.yul\":6528:6534   */\n  dup3\n    /* \"#utility.yul\":6517:6526   */\n  dup7\n    /* \"#utility.yul\":6513:6535   */\n  add\n    /* \"#utility.yul\":6481:6545   */\n  tag_81\n  jump\t// in\ntag_179:\n    /* \"#utility.yul\":6471:6545   */\n  swap3\n  pop\n    /* \"#utility.yul\":6427:6555   */\n  pop\n    /* \"#utility.yul\":6594:6596   */\n  0x20\n    /* \"#utility.yul\":6620:6684   */\n  tag_180\n    /* \"#utility.yul\":6676:6683   */\n  dup6\n    /* \"#utility.yul\":6667:6673   */\n  dup3\n    /* \"#utility.yul\":6656:6665   */\n  dup7\n    /* \"#utility.yul\":6652:6674   */\n  add\n    /* \"#utility.yul\":6620:6684   */\n  tag_63\n  jump\t// in\ntag_180:\n    /* \"#utility.yul\":6610:6684   */\n  swap2\n  pop\n    /* \"#utility.yul\":6565:6694   */\n  pop\n    /* \"#utility.yul\":6194:6701   */\n  swap3\n  pop\n  swap3\n  swap1\n  pop\n  jump\t// out\n    /* \"#utility.yul\":6707:6887   */\ntag_82:\n    /* \"#utility.yul\":6755:6832   */\n  0x4e487b7100000000000000000000000000000000000000000000000000000000\n    /* \"#utility.yul\":6752:6753   */\n  0x00\n    /* \"#utility.yul\":6745:6833   */\n  mstore\n    /* \"#utility.yul\":6852:6856   */\n  0x22\n    /* \"#utility.yul\":6849:6850   */\n  0x04\n    /* \"#utility.yul\":6842:6857   */\n  mstore\n    /* \"#utility.yul\":6876:6880   */\n  0x24\n    /* \"#utility.yul\":6873:6874   */\n  0x00\n    /* \"#utility.yul\":6866:6881   */\n  revert\n    /* \"#utility.yul\":6893:7213   */\ntag_83:\n    /* \"#utility.yul\":6937:6943   */\n  0x00\n    /* \"#utility.yul\":6974:6975   */\n  0x02\n    /* \"#utility.yul\":6968:6972   */\n  dup3\n    /* \"#utility.yul\":6964:6976   */\n  div\n    /* \"#utility.yul\":6954:6976   */\n  swap1\n  pop\n    /* \"#utility.yul\":7021:7022   */\n  0x01\n    /* \"#utility.yul\":7015:7019   */\n  dup3\n    /* \"#utility.yul\":7011:7023   */\n  and\n    /* \"#utility.yul\":7042:7060   */\n  dup1\n    /* \"#utility.yul\":7032:7113   */\n  tag_183\n  jumpi\n    /* \"#utility.yul\":7098:7102   */\n  0x7f\n    /* \"#utility.yul\":7090:7096   */\n  dup3\n    /* \"#utility.yul\":7086:7103   */\n  and\n    /* \"#utility.yul\":7076:7103   */\n  swap2\n  pop\n    /* \"#utility.yul\":7032:7113   */\ntag_183:\n    /* \"#utility.yul\":7160:7162   */\n  0x20\n    /* \"#utility.yul\":7152:7158   */\n  dup3\n    /* \"#utility.yul\":7149:7163   */\n  lt\n    /* \"#utility.yul\":7129:7147   */\n  dup2\n    /* \"#utility.yul\":7126:7164   */\n  sub\n    /* \"#utility.yul\":7123:7207   */\n  tag_184\n  jumpi\n    /* \"#utility.yul\":7179:7197   */\n  tag_185\n  tag_82\n  jump\t// in\ntag_185:\n    /* \"#utility.yul\":7123:7207   */\ntag_184:\n    /* \"#utility.yul\":6944:7213   */\n  pop\n    /* \"#utility.yul\":6893:7213   */\n  swap2\n  swap1\n  pop\n  jump\t// out\n    /* \"#utility.yul\":7219:7360   */\ntag_84:\n    /* \"#utility.yul\":7268:7272   */\n  0x00\n    /* \"#utility.yul\":7291:7294   */\n  dup2\n    /* \"#utility.yul\":7283:7294   */\n  swap1\n  pop\n    /* \"#utility.yul\":7314:7317   */\n  dup2\n    /* \"#utility.yul\":7311:7312   */\n  0x00\n    /* \"#utility.yul\":7304:7318   */\n  mstore\n    /* \"#utility.yul\":7348:7352   */\n  0x20\n    /* \"#utility.yul\":7345:7346   */\n  0x00\n    /* \"#utility.yul\":7335:7353   */\n  keccak256\n    /* \"#utility.yul\":7327:7353   */\n  swap1\n  pop\n    /* \"#utility.yul\":7219:7360   */\n  swap2\n  swap1\n  pop\n  jump\t// out\n    /* \"#utility.yul\":7366:7459   */\ntag_85:\n    /* \"#utility.yul\":7403:7409   */\n  0x00\n    /* \"#utility.yul\":7450:7452   */\n  0x20\n    /* \"#utility.yul\":7445:7447   */\n  0x1f\n    /* \"#utility.yul\":7438:7443   */\n  dup4\n    /* \"#utility.yul\":7434:7448   */\n  add\n    /* \"#utility.yul\":7430:7453   */\n  div\n    /* \"#utility.yul\":7420:7453   */\n  swap1\n  pop\n    /* \"#utility.yul\":7366:7459   */\n  swap2\n  swap1\n  pop\n  jump\t// out\n    /* \"#utility.yul\":7465:7572   */\ntag_86:\n    /* \"#utility.yul\":7509:7517   */\n  0x00\n    /* \"#utility.yul\":7559:7564   */\n  dup3\n    /* \"#utility.yul\":7553:7557   */\n  dup3\n    /* \"#utility.yul\":7549:7565   */\n  shl\n    /* \"#utility.yul\":7528:7565   */\n  swap1\n  pop\n    /* \"#utility.yul\":7465:7572   */\n  swap3\n  swap2\n  pop\n  pop\n  jump\t// out\n    /* \"#utility.yul\":7578:7971   */\ntag_87:\n    /* \"#utility.yul\":7647:7653   */\n  0x00\n    /* \"#utility.yul\":7697:7698   */\n  0x08\n    /* \"#utility.yul\":7685:7695   */\n  dup4\n    /* \"#utility.yul\":7681:7699   */\n  mul\n    /* \"#utility.yul\":7720:7817   */\n  tag_190\n    /* \"#utility.yul\":7750:7816   */\n  0xffffffffffffffffffffffffffffffffffffffffffffffffffffffffffffffff\n    /* \"#utility.yul\":7739:7748   */\n  dup3\n    /* \"#utility.yul\":7720:7817   */\n  tag_86\n  jump\t// in\ntag_190:\n    /* \"#utility.yul\":7838:7877   */\n  tag_191\n    /* \"#utility.yul\":7868:7876   */\n  dup7\n    /* \"#utility.yul\":7857:7866   */\n  dup4\n    /* \"#utility.yul\":7838:7877   */\n  tag_86\n  jump\t// in\ntag_191:\n    /* \"#utility.yul\":7826:7877   */\n  swap6\n  pop\n    /* \"#utility.yul\":7910:7914   */\n  dup1\n    /* \"#utility.yul\":7906:7915   */\n  not\n    /* \"#utility.yul\":7899:7904   */\n  dup5\n    /* \"#utility.yul\":7895:7916   */\n  and\n    /* \"#utility.yul\":7886:7916   */\n  swap4\n  pop\n    /* \"#utility.yul\":7959:7963   */\n  dup1\n    /* \"#utility.yul\":7949:7957   */\n  dup7\n    /* \"#utility.yul\":7945:7964   */\n  and\n    /* \"#utility.yul\":7938:7943   */\n  dup5\n    /* \"#utility.yul\":7935:7965   */\n  or\n    /* \"#utility.yul\":7925:7965   */\n  swap3\n  pop\n    /* \"#utility.yul\":7654:7971   */\n  pop\n  pop\n    /* \"#utility.yul\":7578:7971   */\n  swap4\n  swap3\n  pop\n  pop\n  pop\n  jump\t// out\n    /* \"#utility.yul\":7977:8037   */\ntag_88:\n    /* \"#utility.yul\":8005:8008   */\n  0x00\n    /* \"#utility.yul\":8026:8031   */\n  dup2\n    /* \"#utility.yul\":8019:8031   */\n  swap1\n  pop\n    /* \"#utility.yul\":7977:8037   */\n  swap2\n  swap1\n  pop\n  jump\t// out\n    /* \"#utility.yul\":8043:8185   */\ntag_89:\n    /* \"#utility.yul\":8093:8102   */\n  0x00\n    /* \"#utility.yul\":8126:8179   */\n  tag_194\n    /* \"#utility.yul\":8144:8178   */\n  tag_195\n    /* \"#utility.yul\":8153:8177   */\n  tag_196\n    /* \"#utility.yul\":8171:8176   */\n  dup5\n    /* \"#utility.yul\":8153:8177   */\n  tag_66\n  jump\t// in\ntag_196:\n    /* \"#utility.yul\":8144:8178   */\n  tag_88\n  jump\t// in\ntag_195:\n    /* \"#utility.yul\":8126:8179   */\n  tag_66\n  jump\t// in\ntag_194:\n    /* \"#utility.yul\":8113:8179   */\n  swap1\n  pop\n    /* \"#utility.yul\":8043:8185   */\n  swap2\n  swap1\n  pop\n  jump\t// out\n    /* \"#utility.yul\":8191:8266   */\ntag_90:\n    /* \"#utility.yul\":8234:8237   */\n  0x00\n    /* \"#utility.yul\":8255:8260   */\n  dup2\n    /* \"#utility.yul\":8248:8260   */\n  swap1\n  pop\n    /* \"#utility.yul\":8191:8266   */\n  swap2\n  swap1\n  pop\n  jump\t// out\n    /* \"#utility.yul\":8272:8541   */\ntag_91:\n    /* \"#utility.yul\":8382:8421   */\n  tag_199\n    /* \"#utility.yul\":8413:8420   */\n  dup4\n    /* \"#utility.yul\":8382:8421   */\n  tag_89\n  jump\t// in\ntag_199:\n    /* \"#utility.yul\":8443:8534   */\n  tag_200\n    /* \"#utility.yul\":8492:8533   */\n  tag_201\n    /* \"#utility.yul\":8516:8532   */\n  dup3\n    /* \"#utility.yul\":8492:8533   */\n  tag_90\n  jump\t// in\ntag_201:\n    /* \"#utility.yul\":8484:8490   */\n  dup5\n    /* \"#utility.yul\":8477:8481   */\n  dup5\n    /* \"#utility.yul\":8471:8482   */\n  sload\n    /* \"#utility.yul\":8443:8534   */\n  tag_87\n  jump\t// in\ntag_200:\n    /* \"#utility.yul\":8437:8441   */\n  dup3\n    /* \"#utility.yul\":8430:8535   */\n  sstore\n    /* \"#utility.yul\":8348:8541   */\n  pop\n    /* \"#utility.yul\":8272:8541   */\n  pop\n  pop\n  pop\n  jump\t// out\n    /* \"#utility.yul\":8547:8620   */\ntag_92:\n    /* \"#utility.yul\":8592:8595   */\n  0x00\n    /* \"#utility.yul\":8547:8620   */\n  swap1\n  jump\t// out\n    /* \"#utility.yul\":8626:8815   */\ntag_93:\n    /* \"#utility.yul\":8703:8735   */\n  tag_204\n  tag_92\n  jump\t// in\ntag_204:\n    /* \"#utility.yul\":8744:8809   */\n  tag_205\n    /* \"#utility.yul\":8802:8808   */\n  dup2\n    /* \"#utility.yul\":8794:8800   */\n  dup5\n    /* \"#utility.yul\":8788:8792   */\n  dup5\n    /* \"#utility.yul\":8744:8809   */\n  tag_91\n  jump\t// in\ntag_205:\n    /* \"#utility.yul\":8679:8815   */\n  pop\n    /* \"#utility.yul\":8626:8815   */\n  pop\n  pop\n  jump\t// out\n    /* \"#utility.yul\":8821:9007   */\ntag_94:\n    /* \"#utility.yul\":8881:9001   */\ntag_207:\n    /* \"#utility.yul\":8898:8901   */\n  dup2\n    /* \"#utility.yul\":8891:8896   */\n  dup2\n    /* \"#utility.yul\":8888:8902   */\n  lt\n    /* \"#utility.yul\":8881:9001   */\n  iszero\n  tag_209\n  jumpi\n    /* \"#utility.yul\":8952:8991   */\n  tag_210\n    /* \"#utility.yul\":8989:8990   */\n  0x00\n    /* \"#utility.yul\":8982:8987   */\n  dup3\n    /* \"#utility.yul\":8952:8991   */\n  tag_93\n  jump\t// in\ntag_210:\n    /* \"#utility.yul\":8925:8926   */\n  0x01\n    /* \"#utility.yul\":8918:8923   */\n  dup2\n    /* \"#utility.yul\":8914:8927   */\n  add\n    /* \"#utility.yul\":8905:8927   */\n  swap1\n  pop\n    /* \"#utility.yul\":8881:9001   */\n  jump(tag_207)\ntag_209:\n    /* \"#utility.yul\":8821:9007   */\n  pop\n  pop\n  jump\t// out\n    /* \"#utility.yul\":9013:9556   */\ntag_95:\n    /* \"#utility.yul\":9114:9116   */\n  0x1f\n    /* \"#utility.yul\":9109:9112   */\n  dup3\n    /* \"#utility.yul\":9106:9117   */\n  gt\n    /* \"#utility.yul\":9103:9549   */\n  iszero\n  tag_212\n  jumpi\n    /* \"#utility.yul\":9148:9186   */\n  tag_213\n    /* \"#utility.yul\":9180:9185   */\n  dup2\n    /* \"#utility.yul\":9148:9186   */\n  tag_84\n  jump\t// in\ntag_213:\n    /* \"#utility.yul\":9232:9261   */\n  tag_214\n    /* \"#utility.yul\":9250:9260   */\n  dup5\n    /* \"#utility.yul\":9232:9261   */\n  tag_85\n  jump\t// in\ntag_214:\n    /* \"#utility.yul\":9222:9230   */\n  dup2\n    /* \"#utility.yul\":9218:9262   */\n  add\n    /* \"#utility.yul\":9415:9417   */\n  0x20\n    /* \"#utility.yul\":9403:9413   */\n  dup6\n    /* \"#utility.yul\":9400:9418   */\n  lt\n    /* \"#utility.yul\":9397:9446   */\n  iszero\n  tag_215\n  jumpi\n    /* \"#utility.yul\":9436:9444   */\n  dup2\n    /* \"#utility.yul\":9421:9444   */\n  swap1\n  pop\n    /* \"#utility.yul\":9397:9446   */\ntag_215:\n    /* \"#utility.yul\":9459:9539   */\n  tag_216\n    /* \"#utility.yul\":9515:9537   */\n  tag_217\n    /* \"#utility.yul\":9533:9536   */\n  dup6\n    /* \"#utility.yul\":9515:9537   */\n  tag_85\n  jump\t// in\ntag_217:\n    /* \"#utility.yul\":9505:9513   */\n  dup4\n    /* \"#utility.yul\":9501:9538   */\n  add\n    /* \"#utility.yul\":9488:9499   */\n  dup3\n    /* \"#utility.yul\":9459:9539   */\n  tag_94\n  jump\t// in\ntag_216:\n    /* \"#utility.yul\":9118:9549   */\n  pop\n  pop\n    /* \"#utility.yul\":9103:9549   */\ntag_212:\n    /* \"#utility.yul\":9013:9556   */\n  pop\n  pop\n  pop\n  jump\t// out\n    /* \"#utility.yul\":9562:9679   */\ntag_96:\n    /* \"#utility.yul\":9616:9624   */\n  0x00\n    /* \"#utility.yul\":9666:9671   */\n  dup3\n    /* \"#utility.yul\":9660:9664   */\n  dup3\n    /* \"#utility.yul\":9656:9672   */\n  shr\n    /* \"#utility.yul\":9635:9672   */\n  swap1\n  pop\n    /* \"#utility.yul\":9562:9679   */\n  swap3\n  swap2\n  pop\n  pop\n  jump\t// out\n    /* \"#utility.yul\":9685:9854   */\ntag_97:\n    /* \"#utility.yul\":9729:9735   */\n  0x00\n    /* \"#utility.yul\":9762:9813   */\n  tag_220\n    /* \"#utility.yul\":9810:9811   */\n  0x00\n    /* \"#utility.yul\":9806:9812   */\n  not\n    /* \"#utility.yul\":9798:9803   */\n  dup5\n    /* \"#utility.yul\":9795:9796   */\n  0x08\n    /* \"#utility.yul\":9791:9804   */\n  mul\n    /* \"#utility.yul\":9762:9813   */\n  tag_96\n  jump\t// in\ntag_220:\n    /* \"#utility.yul\":9758:9814   */\n  not\n    /* \"#utility.yul\":9843:9847   */\n  dup1\n    /* \"#utility.yul\":9837:9841   */\n  dup4\n    /* \"#utility.yul\":9833:9848   */\n  and\n    /* \"#utility.yul\":9823:9848   */\n  swap2\n  pop\n    /* \"#utility.yul\":9736:9854   */\n  pop\n    /* \"#utility.yul\":9685:9854   */\n  swap3\n  swap2\n  pop\n  pop\n  jump\t// out\n    /* \"#utility.yul\":9859:10154   */\ntag_98:\n    /* \"#utility.yul\":9935:9939   */\n  0x00\n    /* \"#utility.yul\":10081:10110   */\n  tag_222\n    /* \"#utility.yul\":10106:10109   */\n  dup4\n    /* \"#utility.yul\":10100:10104   */\n  dup4\n    /* \"#utility.yul\":10081:10110   */\n  tag_97\n  jump\t// in\ntag_222:\n    /* \"#utility.yul\":10073:10110   */\n  swap2\n  pop\n    /* \"#utility.yul\":10143:10146   */\n  dup3\n    /* \"#utility.yul\":10140:10141   */\n  0x02\n    /* \"#utility.yul\":10136:10147   */\n  mul\n    /* \"#utility.yul\":10130:10134   */\n  dup3\n    /* \"#utility.yul\":10127:10148   */\n  or\n    /* \"#utility.yul\":10119:10148   */\n  swap1\n  pop\n    /* \"#utility.yul\":9859:10154   */\n  swap3\n  swap2\n  pop\n  pop\n  jump\t// out\n    /* \"#utility.yul\":10159:11554   */\ntag_51:\n    /* \"#utility.yul\":10276:10313   */\n  tag_224\n    /* \"#utility.yul\":10309:10312   */\n  dup3\n    /* \"#utility.yul\":10276:10313   */\n  tag_77\n  jump\t// in\ntag_224:\n    /* \"#utility.yul\":10378:10396   */\n  0xffffffffffffffff\n    /* \"#utility.yul\":10370:10376   */\n  dup2\n    /* \"#utility.yul\":10367:10397   */\n  gt\n    /* \"#utility.yul\":10364:10420   */\n  iszero\n  tag_225\n  jumpi\n    /* \"#utility.yul\":10400:10418   */\n  tag_226\n  tag_70\n  jump\t// in\ntag_226:\n    /* \"#utility.yul\":10364:10420   */\ntag_225:\n    /* \"#utility.yul\":10444:10482   */\n  tag_227\n    /* \"#utility.yul\":10476:10480   */\n  dup3\n    /* \"#utility.yul\":10470:10481   */\n  sload\n    /* \"#utility.yul\":10444:10482   */\n  tag_83\n  jump\t// in\ntag_227:\n    /* \"#utility.yul\":10529:10596   */\n  tag_228\n    /* \"#utility.yul\":10589:10595   */\n  dup3\n    /* \"#utility.yul\":10581:10587   */\n  dup3\n    /* \"#utility.yul\":10575:10579   */\n  dup6\n    /* \"#utility.yul\":10529:10596   */\n  tag_95\n  jump\t// in\ntag_228:\n    /* \"#utility.yul\":10623:10624   */\n  0x00\n    /* \"#utility.yul\":10647:10651   */\n  0x20\n    /* \"#utility.yul\":10634:10651   */\n  swap1\n  pop\n    /* \"#utility.yul\":10679:10681   */\n  0x1f\n    /* \"#utility.yul\":10671:10677   */\n  dup4\n    /* \"#utility.yul\":10668:10682   */\n  gt\n    /* \"#utility.yul\":10696:10697   */\n  0x01\n    /* \"#utility.yul\":10691:11309   */\n  dup2\n  eq\n  tag_230\n  jumpi\n    /* \"#utility.yul\":11353:11354   */\n  0x00\n    /* \"#utility.yul\":11370:11376   */\n  dup5\n    /* \"#utility.yul\":11367:11444   */\n  iszero\n  tag_231\n  jumpi\n    /* \"#utility.yul\":11419:11428   */\n  dup3\n    /* \"#utility.yul\":11414:11417   */\n  dup8\n    /* \"#utility.yul\":11410:11429   */\n  add\n    /* \"#utility.yul\":11404:11430   */\n  mload\n    /* \"#utility.yul\":11395:11430   */\n  swap1\n  pop\n    /* \"#utility.yul\":11367:11444   */\ntag_231:\n    /* \"#utility.yul\":11470:11537   */\n  tag_232\n    /* \"#utility.yul\":11530:11536   */\n  dup6\n    /* \"#utility.yul\":11523:11528   */\n  dup3\n    /* \"#utility.yul\":11470:11537   */\n  tag_98\n  jump\t// in\ntag_232:\n    /* \"#utility.yul\":11464:11468   */\n  dup7\n    /* \"#utility.yul\":11457:11538   */\n  sstore\n    /* \"#utility.yul\":11326:11548   */\n  pop\n    /* \"#utility.yul\":10661:11548   */\n  jump(tag_229)\n    /* \"#utility.yul\":10691:11309   */\ntag_230:\n    /* \"#utility.yul\":10743:10747   */\n  0x1f\n    /* \"#utility.yul\":10739:10748   */\n  not\n    /* \"#utility.yul\":10731:10737   */\n  dup5\n    /* \"#utility.yul\":10727:10749   */\n  and\n    /* \"#utility.yul\":10777:10814   */\n  tag_233\n    /* \"#utility.yul\":10809:10813   */\n  dup7\n    /* \"#utility.yul\":10777:10814   */\n  tag_84\n  jump\t// in\ntag_233:\n    /* \"#utility.yul\":10836:10837   */\n  0x00\n    /* \"#utility.yul\":10850:11058   */\ntag_234:\n    /* \"#utility.yul\":10864:10871   */\n  dup3\n    /* \"#utility.yul\":10861:10862   */\n  dup2\n    /* \"#utility.yul\":10858:10872   */\n  lt\n    /* \"#utility.yul\":10850:11058   */\n  iszero\n  tag_236\n  jumpi\n    /* \"#utility.yul\":10943:10952   */\n  dup5\n    /* \"#utility.yul\":10938:10941   */\n  dup10\n    /* \"#utility.yul\":10934:10953   */\n  add\n    /* \"#utility.yul\":10928:10954   */\n  mload\n    /* \"#utility.yul\":10920:10926   */\n  dup3\n    /* \"#utility.yul\":10913:10955   */\n  sstore\n    /* \"#utility.yul\":10994:10995   */\n  0x01\n    /* \"#utility.yul\":10986:10992   */\n  dup3\n    /* \"#utility.yul\":10982:10996   */\n  add\n    /* \"#utility.yul\":10972:10996   */\n  swap2\n  pop\n    /* \"#utility.yul\":11041:11043   */\n  0x20\n    /* \"#utility.yul\":11030:11039   */\n  dup6\n    /* \"#utility.yul\":11026:11044   */\n  add\n    /* \"#utility.yul\":11013:11044   */\n  swap5\n  pop\n    /* \"#utility.yul\":10887:10891   */\n  0x20\n    /* \"#utility.yul\":10884:10885   */\n  dup2\n    /* \"#utility.yul\":10880:10892   */\n  add\n    /* \"#utility.yul\":10875:10892   */\n  swap1\n  pop\n    /* \"#utility.yul\":10850:11058   */\n  jump(tag_234)\ntag_236:\n    /* \"#utility.yul\":11086:11092   */\n  dup7\n    /* \"#utility.yul\":11077:11084   */\n  dup4\n    /* \"#utility.yul\":11074:11093   */\n  lt\n    /* \"#utility.yul\":11071:11250   */\n  iszero\n  tag_237\n  jumpi\n    /* \"#utility.yul\":11144:11153   */\n  dup5\n    /* \"#utility.yul\":11139:11142   */\n  dup10\n    /* \"#utility.yul\":11135:11154   */\n  add\n    /* \"#utility.yul\":11129:11155   */\n  mload\n    /* \"#utility.yul\":11187:11235   */\n  tag_238\n    /* \"#utility.yul\":11229:11233   */\n  0x1f\n    /* \"#utility.yul\":11221:11227   */\n  dup10\n    /* \"#utility.yul\":11217:11234   */\n  and\n    /* \"#utility.yul\":11206:11215   */\n  dup3\n    /* \"#utility.yul\":11187:11235   */\n  tag_97\n  jump\t// in\ntag_238:\n    /* \"#utility.yul\":11179:11185   */\n  dup4\n    /* \"#utility.yul\":11172:11236   */\n  sstore\n    /* \"#utility.yul\":11094:11250   */\n  pop\n    /* \"#utility.yul\":11071:11250   */\ntag_237:\n    /* \"#utility.yul\":11296:11297   */\n  0x01\n    /* \"#utility.yul\":11292:11293   */\n  0x02\n    /* \"#utility.yul\":11284:11290   */\n  dup9\n    /* \"#utility.yul\":11280:11294   */\n  mul\n    /* \"#utility.yul\":11276:11298   */\n  add\n    /* \"#utility.yul\":11270:11274   */\n  dup9\n    /* \"#utility.yul\":11263:11299   */\n  sstore\n    /* \"#utility.yul\":10698:11309   */\n  pop\n  pop\n  pop\n    /* \"#utility.yul\":10661:11548   */\ntag_229:\n  pop\n    /* \"#utility.yul\":10251:11554   */\n  pop\n  pop\n  pop\n    /* \"#utility.yul\":10159:11554   */\n  pop\n  pop\n  jump\t// out\n    /* \"#utility.yul\":11560:11708   */\ntag_99:\n    /* \"#utility.yul\":11662:11673   */\n  0x00\n    /* \"#utility.yul\":11699:11702   */\n  dup2\n    /* \"#utility.yul\":11684:11702   */\n  swap1\n  pop\n    /* \"#utility.yul\":11560:11708   */\n  swap3\n  swap2\n  pop\n  pop\n  jump\t// out\n    /* \"#utility.yul\":11714:12104   */\ntag_100:\n    /* \"#utility.yul\":11820:11823   */\n  0x00\n    /* \"#utility.yul\":11848:11887   */\n  tag_241\n    /* \"#utility.yul\":11881:11886   */\n  dup3\n    /* \"#utility.yul\":11848:11887   */\n  tag_77\n  jump\t// in\ntag_241:\n    /* \"#utility.yul\":11903:11992   */\n  tag_242\n    /* \"#utility.yul\":11985:11991   */\n  dup2\n    /* \"#utility.yul\":11980:11983   */\n  dup6\n    /* \"#utility.yul\":11903:11992   */\n  tag_99\n  jump\t// in\ntag_242:\n    /* \"#utility.yul\":11896:11992   */\n  swap4\n  pop\n    /* \"#utility.yul\":12001:12066   */\n  tag_243\n    /* \"#utility.yul\":12059:12065   */\n  dup2\n    /* \"#utility.yul\":12054:12057   */\n  dup6\n    /* \"#utility.yul\":12047:12051   */\n  0x20\n    /* \"#utility.yul\":12040:12045   */\n  dup7\n    /* \"#utility.yul\":12036:12052   */\n  add\n    /* \"#utility.yul\":12001:12066   */\n  tag_74\n  jump\t// in\ntag_243:\n    /* \"#utility.yul\":12091:12097   */\n  dup1\n    /* \"#utility.yul\":12086:12089   */\n  dup5\n    /* \"#utility.yul\":12082:12098   */\n  add\n    /* \"#utility.yul\":12075:12098   */\n  swap2\n  pop\n    /* \"#utility.yul\":11824:12104   */\n  pop\n    /* \"#utility.yul\":11714:12104   */\n  swap3\n  swap2\n  pop\n  pop\n  jump\t// out\n    /* \"#utility.yul\":12110:12385   */\ntag_53:\n    /* \"#utility.yul\":12242:12245   */\n  0x00\n    /* \"#utility.yul\":12264:12359   */\n  tag_245\n    /* \"#utility.yul\":12355:12358   */\n  dup3\n    /* \"#utility.yul\":12346:12352   */\n  dup5\n    /* \"#utility.yul\":12264:12359   */\n  tag_100\n  jump\t// in\ntag_245:\n    /* \"#utility.yul\":12257:12359   */\n  swap2\n  pop\n    /* \"#utility.yul\":12376:12379   */\n  dup2\n    /* \"#utility.yul\":12369:12379   */\n  swap1\n  pop\n    /* \"#utility.yul\":12110:12385   */\n  swap3\n  swap2\n  pop\n  pop\n  jump\t// out\n    /* \"contracts/Sales.sol\":136:2547  contract Sales is Ownable {... */\ntag_15:\n  mload(0x80)\n  codecopy(0x00, dataOffset(sub_0), dataSize(sub_0))\n  0x00\n  assignImmutable(\"0x226555216d4597f421fa68bd1a9868d9b0c3bc5894491f1df5f0f5c84a2d1e77\")\n  return(0x00, dataSize(sub_0))\nstop\n\nsub_0: assembly {\n        /* \"contracts/Sales.sol\":136:2547  contract Sales is Ownable {... */\n      mstore(0x40, 0x80)\n      callvalue\n      dup1\n      iszero\n      tag_1\n      jumpi\n      0x00\n      dup1\n      revert\n    tag_1:\n      pop\n      jumpi(tag_2, lt(calldatasize, 0x04))\n      shr(0xe0, calldataload(0x00))\n      dup1\n      0x8da5cb5b\n      gt\n      tag_12\n      jumpi\n      dup1\n      0x8da5cb5b\n      eq\n      tag_7\n      jumpi\n      dup1\n      0xb66a0e5d\n      eq\n      tag_8\n      jumpi\n      dup1\n      0xc5dc51d4\n      eq\n      tag_9\n      jumpi\n      dup1\n      0xf2fde38b\n      eq\n      tag_10\n      jumpi\n      dup1\n      0xfc0c546a\n      eq\n      tag_11\n      jumpi\n      jump(tag_2)\n    tag_12:\n      dup1\n      0x02eb4b88\n      eq\n      tag_3\n      jumpi\n      dup1\n      0x2c7283c3\n      eq\n      tag_4\n      jumpi\n      dup1\n      0x715018a6\n      eq\n      tag_5\n      jumpi\n      dup1\n      0x8ce902f2\n      eq\n      tag_6\n      jumpi\n    tag_2:\n      0x00\n      dup1\n      revert\n        /* \"contracts/Sales.sol\":416:456  mapping(uint256 => Sale) public saleInfo */\n    tag_3:\n      tag_13\n      0x04\n      dup1\n      calldatasize\n      sub\n      dup2\n      add\n      swap1\n      tag_14\n      swap2\n      swap1\n      tag_15\n      jump\t// in\n    tag_14:\n      tag_16\n      jump\t// in\n    tag_13:\n      mload(0x40)\n      tag_17\n      swap5\n      swap4\n      swap3\n      swap2\n      swap1\n      tag_18\n      jump\t// in\n    tag_17:\n      mload(0x40)\n      dup1\n      swap2\n      sub\n      swap1\n      return\n        /* \"contracts/Sales.sol\":370:410  mapping(string => uint256) public saleId */\n    tag_4:\n      tag_19\n      0x04\n      dup1\n      calldatasize\n      sub\n      dup2\n      add\n      swap1\n      tag_20\n      swap2\n      swap1\n      tag_21\n      jump\t// in\n    tag_20:\n      tag_22\n      jump\t// in\n    tag_19:\n      mload(0x40)\n      tag_23\n      swap2\n      swap1\n      tag_24\n      jump\t// in\n    tag_23:\n      mload(0x40)\n      dup1\n      swap2\n      sub\n      swap1\n      return\n        /* \"@openzeppelin/contracts/access/Ownable.sol\":2292:2393  function renounceOwnership() public virtual onlyOwner {... */\n    tag_5:\n      tag_25\n      tag_26\n      jump\t// in\n    tag_25:\n      stop\n        /* \"contracts/Sales.sol\":2450:2545  function getLatestSaleCount() public view returns (uint256) {... */\n    tag_6:\n      tag_27\n      tag_28\n      jump\t// in\n    tag_27:\n      mload(0x40)\n      tag_29\n      swap2\n      swap1\n      tag_24\n      jump\t// in\n    tag_29:\n      mload(0x40)\n      dup1\n      swap2\n      sub\n      swap1\n      return\n        /* \"@openzeppelin/contracts/access/Ownable.sol\":1637:1722  function owner() public view virtual returns (address) {... */\n    tag_7:\n      tag_30\n      tag_31\n      jump\t// in\n    tag_30:\n      mload(0x40)\n      tag_32\n      swap2\n      swap1\n      tag_33\n      jump\t// in\n    tag_32:\n      mload(0x40)\n      dup1\n      swap2\n      sub\n      swap1\n      return\n        /* \"contracts/Sales.sol\":996:1397  function startSale() public onlyOwner {... */\n    tag_8:\n      tag_34\n      tag_35\n      jump\t// in\n    tag_34:\n      stop\n        /* \"contracts/Sales.sol\":1999:2339  function getLatestMintedSale()... */\n    tag_9:\n      tag_36\n      tag_37\n      jump\t// in\n    tag_36:\n      mload(0x40)\n      tag_38\n      swap4\n      swap3\n      swap2\n      swap1\n      tag_39\n      jump\t// in\n    tag_38:\n      mload(0x40)\n      dup1\n      swap2\n      sub\n      swap1\n      return\n        /* \"@openzeppelin/contracts/access/Ownable.sol\":2542:2757  function transferOwnership(address newOwner) public virtual onlyOwner {... */\n    tag_10:\n      tag_40\n      0x04\n      dup1\n      calldatasize\n      sub\n      dup2\n      add\n      swap1\n      tag_41\n      swap2\n      swap1\n      tag_42\n      jump\t// in\n    tag_41:\n      tag_43\n      jump\t// in\n    tag_40:\n      stop\n        /* \"contracts/Sales.sol\":332:363  IAnryton immutable public token */\n    tag_11:\n      tag_44\n      tag_45\n      jump\t// in\n    tag_44:\n      mload(0x40)\n      tag_46\n      swap2\n      swap1\n      tag_47\n      jump\t// in\n    tag_46:\n      mload(0x40)\n      dup1\n      swap2\n      sub\n      swap1\n      return\n        /* \"contracts/Sales.sol\":416:456  mapping(uint256 => Sale) public saleInfo */\n    tag_16:\n      mstore(0x20, 0x03)\n      dup1\n      0x00\n      mstore\n      keccak256(0x00, 0x40)\n      0x00\n      swap2\n      pop\n      swap1\n      pop\n      dup1\n      0x00\n      add\n      dup1\n      sload\n      tag_48\n      swap1\n      tag_49\n      jump\t// in\n    tag_48:\n      dup1\n      0x1f\n      add\n      0x20\n      dup1\n      swap2\n      div\n      mul\n      0x20\n      add\n      mload(0x40)\n      swap1\n      dup2\n      add\n      0x40\n      mstore\n      dup1\n      swap3\n      swap2\n      swap1\n      dup2\n      dup2\n      mstore\n      0x20\n      add\n      dup3\n      dup1\n      sload\n      tag_50\n      swap1\n      tag_49\n      jump\t// in\n    tag_50:\n      dup1\n      iszero\n      tag_51\n      jumpi\n      dup1\n      0x1f\n      lt\n      tag_52\n      jumpi\n      0x0100\n      dup1\n      dup4\n      sload\n      div\n      mul\n      dup4\n      mstore\n      swap2\n      0x20\n      add\n      swap2\n      jump(tag_51)\n    tag_52:\n      dup3\n      add\n      swap2\n      swap1\n      0x00\n      mstore\n      keccak256(0x00, 0x20)\n      swap1\n    tag_53:\n      dup2\n      sload\n      dup2\n      mstore\n      swap1\n      0x01\n      add\n      swap1\n      0x20\n      add\n      dup1\n      dup4\n      gt\n      tag_53\n      jumpi\n      dup3\n      swap1\n      sub\n      0x1f\n      and\n      dup3\n      add\n      swap2\n    tag_51:\n      pop\n      pop\n      pop\n      pop\n      pop\n      swap1\n      dup1\n      0x01\n      add\n      0x00\n      swap1\n      sload\n      swap1\n      0x0100\n      exp\n      swap1\n      div\n      0xffffffffffffffffffffffffffffffffffffffff\n      and\n      swap1\n      dup1\n      0x02\n      add\n      0x00\n      swap1\n      sload\n      swap1\n      0x0100\n      exp\n      swap1\n      div\n      0xffffffffffffffffffffffffffffffffffffffff\n      and\n      swap1\n      dup1\n      0x03\n      add\n      sload\n      swap1\n      pop\n      dup5\n      jump\t// out\n        /* \"contracts/Sales.sol\":370:410  mapping(string => uint256) public saleId */\n    tag_22:\n      0x02\n      dup2\n      dup1\n      mload\n      0x20\n      dup2\n      add\n      dup3\n      add\n      dup1\n      mload\n      dup5\n      dup3\n      mstore\n      0x20\n      dup4\n      add\n      0x20\n      dup6\n      add\n      keccak256\n      dup2\n      dup4\n      mstore\n      dup1\n      swap6\n      pop\n      pop\n      pop\n      pop\n      pop\n      pop\n      0x00\n      swap2\n      pop\n      swap1\n      pop\n      sload\n      dup2\n      jump\t// out\n        /* \"@openzeppelin/contracts/access/Ownable.sol\":2292:2393  function renounceOwnership() public virtual onlyOwner {... */\n    tag_26:\n        /* \"@openzeppelin/contracts/access/Ownable.sol\":1530:1543  _checkOwner() */\n      tag_55\n        /* \"@openzeppelin/contracts/access/Ownable.sol\":1530:1541  _checkOwner */\n      tag_56\n        /* \"@openzeppelin/contracts/access/Ownable.sol\":1530:1543  _checkOwner() */\n      jump\t// in\n    tag_55:\n        /* \"@openzeppelin/contracts/access/Ownable.sol\":2356:2386  _transferOwnership(address(0)) */\n      tag_58\n        /* \"@openzeppelin/contracts/access/Ownable.sol\":2383:2384  0 */\n      0x00\n        /* \"@openzeppelin/contracts/access/Ownable.sol\":2356:2374  _transferOwnership */\n      tag_59\n        /* \"@openzeppelin/contracts/access/Ownable.sol\":2356:2386  _transferOwnership(address(0)) */\n      jump\t// in\n    tag_58:\n        /* \"@openzeppelin/contracts/access/Ownable.sol\":2292:2393  function renounceOwnership() public virtual onlyOwner {... */\n      jump\t// out\n        /* \"contracts/Sales.sol\":2450:2545  function getLatestSaleCount() public view returns (uint256) {... */\n    tag_28:\n        /* \"contracts/Sales.sol\":2501:2508  uint256 */\n      0x00\n        /* \"contracts/Sales.sol\":2527:2538  saleCounter */\n      sload(0x01)\n        /* \"contracts/Sales.sol\":2520:2538  return saleCounter */\n      swap1\n      pop\n        /* \"contracts/Sales.sol\":2450:2545  function getLatestSaleCount() public view returns (uint256) {... */\n      swap1\n      jump\t// out\n        /* \"@openzeppelin/contracts/access/Ownable.sol\":1637:1722  function owner() public view virtual returns (address) {... */\n    tag_31:\n        /* \"@openzeppelin/contracts/access/Ownable.sol\":1683:1690  address */\n      0x00\n        /* \"@openzeppelin/contracts/access/Ownable.sol\":1709:1715  _owner */\n      dup1\n      0x00\n      swap1\n      sload\n      swap1\n      0x0100\n      exp\n      swap1\n      div\n      0xffffffffffffffffffffffffffffffffffffffff\n      and\n        /* \"@openzeppelin/contracts/access/Ownable.sol\":1702:1715  return _owner */\n      swap1\n      pop\n        /* \"@openzeppelin/contracts/access/Ownable.sol\":1637:1722  function owner() public view virtual returns (address) {... */\n      swap1\n      jump\t// out\n        /* \"contracts/Sales.sol\":996:1397  function startSale() public onlyOwner {... */\n    tag_35:\n        /* \"@openzeppelin/contracts/access/Ownable.sol\":1530:1543  _checkOwner() */\n      tag_63\n        /* \"@openzeppelin/contracts/access/Ownable.sol\":1530:1541  _checkOwner */\n      tag_56\n        /* \"@openzeppelin/contracts/access/Ownable.sol\":1530:1543  _checkOwner() */\n      jump\t// in\n    tag_63:\n        /* \"contracts/Sales.sol\":1044:1064  uint256 _currentTime */\n      0x00\n        /* \"contracts/Sales.sol\":1067:1082  block.timestamp */\n      timestamp\n        /* \"contracts/Sales.sol\":1044:1082  uint256 _currentTime = block.timestamp */\n      swap1\n      pop\n        /* \"contracts/Sales.sol\":1092:1106  uint256 _count */\n      0x00\n        /* \"contracts/Sales.sol\":1111:1122  saleCounter */\n      0x01\n      0x00\n        /* \"contracts/Sales.sol\":1109:1122  ++saleCounter */\n      dup2\n      sload\n      tag_65\n      swap1\n      tag_66\n      jump\t// in\n    tag_65:\n      swap2\n      swap1\n      pop\n      dup2\n      swap1\n      sstore\n        /* \"contracts/Sales.sol\":1092:1122  uint256 _count = ++saleCounter */\n      swap1\n      pop\n        /* \"contracts/Sales.sol\":1146:1169  string memory _saleName */\n      0x00\n        /* \"contracts/Sales.sol\":1183:1198  uint256 _supply */\n      dup1\n        /* \"contracts/Sales.sol\":1212:1234  address _walletAddress */\n      0x00\n        /* \"contracts/Sales.sol\":1247:1268  getLatestMintedSale() */\n      tag_67\n        /* \"contracts/Sales.sol\":1247:1266  getLatestMintedSale */\n      tag_37\n        /* \"contracts/Sales.sol\":1247:1268  getLatestMintedSale() */\n      jump\t// in\n    tag_67:\n        /* \"contracts/Sales.sol\":1132:1268  (... */\n      swap3\n      pop\n      swap3\n      pop\n      swap3\n      pop\n        /* \"contracts/Sales.sol\":1324:1390  _addSale(_count, _saleName, _supply, _walletAddress, _currentTime) */\n      tag_68\n        /* \"contracts/Sales.sol\":1333:1339  _count */\n      dup5\n        /* \"contracts/Sales.sol\":1341:1350  _saleName */\n      dup5\n        /* \"contracts/Sales.sol\":1352:1359  _supply */\n      dup5\n        /* \"contracts/Sales.sol\":1361:1375  _walletAddress */\n      dup5\n        /* \"contracts/Sales.sol\":1377:1389  _currentTime */\n      dup10\n        /* \"contracts/Sales.sol\":1324:1332  _addSale */\n      tag_69\n        /* \"contracts/Sales.sol\":1324:1390  _addSale(_count, _saleName, _supply, _walletAddress, _currentTime) */\n      jump\t// in\n    tag_68:\n        /* \"contracts/Sales.sol\":1034:1397  {... */\n      pop\n      pop\n      pop\n      pop\n      pop\n        /* \"contracts/Sales.sol\":996:1397  function startSale() public onlyOwner {... */\n      jump\t// out\n        /* \"contracts/Sales.sol\":1999:2339  function getLatestMintedSale()... */\n    tag_37:\n        /* \"contracts/Sales.sol\":2075:2088  string memory */\n      0x60\n        /* \"contracts/Sales.sol\":2090:2097  uint256 */\n      0x00\n        /* \"contracts/Sales.sol\":2099:2106  address */\n      dup1\n        /* \"contracts/Sales.sol\":2122:2145  string memory _saleName */\n      0x00\n        /* \"contracts/Sales.sol\":2148:2153  token */\n      immutable(\"0x226555216d4597f421fa68bd1a9868d9b0c3bc5894491f1df5f0f5c84a2d1e77\")\n        /* \"contracts/Sales.sol\":2148:2167  token.getLatestSale */\n      0xffffffffffffffffffffffffffffffffffffffff\n      and\n      0x944df045\n        /* \"contracts/Sales.sol\":2148:2169  token.getLatestSale() */\n      mload(0x40)\n      dup2\n      0xffffffff\n      and\n      0xe0\n      shl\n      dup2\n      mstore\n      0x04\n      add\n      0x00\n      mload(0x40)\n      dup1\n      dup4\n      sub\n      dup2\n      dup7\n      gas\n      staticcall\n      iszero\n      dup1\n      iszero\n      tag_72\n      jumpi\n      returndatasize\n      0x00\n      dup1\n      returndatacopy\n      revert(0x00, returndatasize)\n    tag_72:\n      pop\n      pop\n      pop\n      pop\n      mload(0x40)\n      returndatasize\n      0x00\n      dup3\n      returndatacopy\n      returndatasize\n      not(0x1f)\n      0x1f\n      dup3\n      add\n      and\n      dup3\n      add\n      dup1\n      0x40\n      mstore\n      pop\n      dup2\n      add\n      swap1\n      tag_73\n      swap2\n      swap1\n      tag_74\n      jump\t// in\n    tag_73:\n        /* \"contracts/Sales.sol\":2122:2169  string memory _saleName = token.getLatestSale() */\n      swap1\n      pop\n        /* \"contracts/Sales.sol\":2180:2195  uint256 _supply */\n      0x00\n        /* \"contracts/Sales.sol\":2197:2219  address _walletAddress */\n      dup1\n        /* \"contracts/Sales.sol\":2223:2228  token */\n      immutable(\"0x226555216d4597f421fa68bd1a9868d9b0c3bc5894491f1df5f0f5c84a2d1e77\")\n        /* \"contracts/Sales.sol\":2223:2268  token... */\n      0xffffffffffffffffffffffffffffffffffffffff\n      and\n      0x060a9aeb\n        /* \"contracts/Sales.sol\":2269:2278  _saleName */\n      dup5\n        /* \"contracts/Sales.sol\":2223:2279  token... */\n      mload(0x40)\n      dup3\n      0xffffffff\n      and\n      0xe0\n      shl\n      dup2\n      mstore\n      0x04\n      add\n      tag_75\n      swap2\n      swap1\n      tag_76\n      jump\t// in\n    tag_75:\n      0x40\n      dup1\n      mload\n      dup1\n      dup4\n      sub\n      dup2\n      dup7\n      gas\n      staticcall\n      iszero\n      dup1\n      iszero\n      tag_78\n      jumpi\n      returndatasize\n      0x00\n      dup1\n      returndatacopy\n      revert(0x00, returndatasize)\n    tag_78:\n      pop\n      pop\n      pop\n      pop\n      mload(0x40)\n      returndatasize\n      not(0x1f)\n      0x1f\n      dup3\n      add\n      and\n      dup3\n      add\n      dup1\n      0x40\n      mstore\n      pop\n      dup2\n      add\n      swap1\n      tag_79\n      swap2\n      swap1\n      tag_80\n      jump\t// in\n    tag_79:\n        /* \"contracts/Sales.sol\":2179:2279  (uint256 _supply, address _walletAddress) = token... */\n      swap2\n      pop\n      swap2\n      pop\n        /* \"contracts/Sales.sol\":2297:2306  _saleName */\n      dup3\n        /* \"contracts/Sales.sol\":2308:2315  _supply */\n      dup3\n        /* \"contracts/Sales.sol\":2317:2331  _walletAddress */\n      dup3\n        /* \"contracts/Sales.sol\":2289:2332  return (_saleName, _supply, _walletAddress) */\n      swap6\n      pop\n      swap6\n      pop\n      swap6\n      pop\n      pop\n      pop\n      pop\n        /* \"contracts/Sales.sol\":1999:2339  function getLatestMintedSale()... */\n      swap1\n      swap2\n      swap3\n      jump\t// out\n        /* \"@openzeppelin/contracts/access/Ownable.sol\":2542:2757  function transferOwnership(address newOwner) public virtual onlyOwner {... */\n    tag_43:\n        /* \"@openzeppelin/contracts/access/Ownable.sol\":1530:1543  _checkOwner() */\n      tag_82\n        /* \"@openzeppelin/contracts/access/Ownable.sol\":1530:1541  _checkOwner */\n      tag_56\n        /* \"@openzeppelin/contracts/access/Ownable.sol\":1530:1543  _checkOwner() */\n      jump\t// in\n    tag_82:\n        /* \"@openzeppelin/contracts/access/Ownable.sol\":2646:2647  0 */\n      0x00\n        /* \"@openzeppelin/contracts/access/Ownable.sol\":2626:2648  newOwner == address(0) */\n      0xffffffffffffffffffffffffffffffffffffffff\n      and\n        /* \"@openzeppelin/contracts/access/Ownable.sol\":2626:2634  newOwner */\n      dup2\n        /* \"@openzeppelin/contracts/access/Ownable.sol\":2626:2648  newOwner == address(0) */\n      0xffffffffffffffffffffffffffffffffffffffff\n      and\n      sub\n        /* \"@openzeppelin/contracts/access/Ownable.sol\":2622:2713  if (newOwner == address(0)) {... */\n      tag_84\n      jumpi\n        /* \"@openzeppelin/contracts/access/Ownable.sol\":2699:2700  0 */\n      0x00\n        /* \"@openzeppelin/contracts/access/Ownable.sol\":2671:2702  OwnableInvalidOwner(address(0)) */\n      mload(0x40)\n      0x1e4fbdf700000000000000000000000000000000000000000000000000000000\n      dup2\n      mstore\n      0x04\n      add\n      tag_85\n      swap2\n      swap1\n      tag_33\n      jump\t// in\n    tag_85:\n      mload(0x40)\n      dup1\n      swap2\n      sub\n      swap1\n      revert\n        /* \"@openzeppelin/contracts/access/Ownable.sol\":2622:2713  if (newOwner == address(0)) {... */\n    tag_84:\n        /* \"@openzeppelin/contracts/access/Ownable.sol\":2722:2750  _transferOwnership(newOwner) */\n      tag_86\n        /* \"@openzeppelin/contracts/access/Ownable.sol\":2741:2749  newOwner */\n      dup2\n        /* \"@openzeppelin/contracts/access/Ownable.sol\":2722:2740  _transferOwnership */\n      tag_59\n        /* \"@openzeppelin/contracts/access/Ownable.sol\":2722:2750  _transferOwnership(newOwner) */\n      jump\t// in\n    tag_86:\n        /* \"@openzeppelin/contracts/access/Ownable.sol\":2542:2757  function transferOwnership(address newOwner) public virtual onlyOwner {... */\n      pop\n      jump\t// out\n        /* \"contracts/Sales.sol\":332:363  IAnryton immutable public token */\n    tag_45:\n      immutable(\"0x226555216d4597f421fa68bd1a9868d9b0c3bc5894491f1df5f0f5c84a2d1e77\")\n      dup2\n      jump\t// out\n        /* \"@openzeppelin/contracts/access/Ownable.sol\":1795:1957  function _checkOwner() internal view virtual {... */\n    tag_56:\n        /* \"@openzeppelin/contracts/access/Ownable.sol\":1865:1877  _msgSender() */\n      tag_88\n        /* \"@openzeppelin/contracts/access/Ownable.sol\":1865:1875  _msgSender */\n      tag_89\n        /* \"@openzeppelin/contracts/access/Ownable.sol\":1865:1877  _msgSender() */\n      jump\t// in\n    tag_88:\n        /* \"@openzeppelin/contracts/access/Ownable.sol\":1854:1877  owner() != _msgSender() */\n      0xffffffffffffffffffffffffffffffffffffffff\n      and\n        /* \"@openzeppelin/contracts/access/Ownable.sol\":1854:1861  owner() */\n      tag_90\n        /* \"@openzeppelin/contracts/access/Ownable.sol\":1854:1859  owner */\n      tag_31\n        /* \"@openzeppelin/contracts/access/Ownable.sol\":1854:1861  owner() */\n      jump\t// in\n    tag_90:\n        /* \"@openzeppelin/contracts/access/Ownable.sol\":1854:1877  owner() != _msgSender() */\n      0xffffffffffffffffffffffffffffffffffffffff\n      and\n      eq\n        /* \"@openzeppelin/contracts/access/Ownable.sol\":1850:1951  if (owner() != _msgSender()) {... */\n      tag_91\n      jumpi\n        /* \"@openzeppelin/contracts/access/Ownable.sol\":1927:1939  _msgSender() */\n      tag_92\n        /* \"@openzeppelin/contracts/access/Ownable.sol\":1927:1937  _msgSender */\n      tag_89\n        /* \"@openzeppelin/contracts/access/Ownable.sol\":1927:1939  _msgSender() */\n      jump\t// in\n    tag_92:\n        /* \"@openzeppelin/contracts/access/Ownable.sol\":1900:1940  OwnableUnauthorizedAccount(_msgSender()) */\n      mload(0x40)\n      0x118cdaa700000000000000000000000000000000000000000000000000000000\n      dup2\n      mstore\n      0x04\n      add\n      tag_93\n      swap2\n      swap1\n      tag_33\n      jump\t// in\n    tag_93:\n      mload(0x40)\n      dup1\n      swap2\n      sub\n      swap1\n      revert\n        /* \"@openzeppelin/contracts/access/Ownable.sol\":1850:1951  if (owner() != _msgSender()) {... */\n    tag_91:\n        /* \"@openzeppelin/contracts/access/Ownable.sol\":1795:1957  function _checkOwner() internal view virtual {... */\n      jump\t// out\n        /* \"@openzeppelin/contracts/access/Ownable.sol\":2911:3098  function _transferOwnership(address newOwner) internal virtual {... */\n    tag_59:\n        /* \"@openzeppelin/contracts/access/Ownable.sol\":2984:3000  address oldOwner */\n      0x00\n        /* \"@openzeppelin/contracts/access/Ownable.sol\":3003:3009  _owner */\n      dup1\n      0x00\n      swap1\n      sload\n      swap1\n      0x0100\n      exp\n      swap1\n      div\n      0xffffffffffffffffffffffffffffffffffffffff\n      and\n        /* \"@openzeppelin/contracts/access/Ownable.sol\":2984:3009  address oldOwner = _owner */\n      swap1\n      pop\n        /* \"@openzeppelin/contracts/access/Ownable.sol\":3028:3036  newOwner */\n      dup2\n        /* \"@openzeppelin/contracts/access/Ownable.sol\":3019:3025  _owner */\n      0x00\n      dup1\n        /* \"@openzeppelin/contracts/access/Ownable.sol\":3019:3036  _owner = newOwner */\n      0x0100\n      exp\n      dup2\n      sload\n      dup2\n      0xffffffffffffffffffffffffffffffffffffffff\n      mul\n      not\n      and\n      swap1\n      dup4\n      0xffffffffffffffffffffffffffffffffffffffff\n      and\n      mul\n      or\n      swap1\n      sstore\n      pop\n        /* \"@openzeppelin/contracts/access/Ownable.sol\":3082:3090  newOwner */\n      dup2\n        /* \"@openzeppelin/contracts/access/Ownable.sol\":3051:3091  OwnershipTransferred(oldOwner, newOwner) */\n      0xffffffffffffffffffffffffffffffffffffffff\n      and\n        /* \"@openzeppelin/contracts/access/Ownable.sol\":3072:3080  oldOwner */\n      dup2\n        /* \"@openzeppelin/contracts/access/Ownable.sol\":3051:3091  OwnershipTransferred(oldOwner, newOwner) */\n      0xffffffffffffffffffffffffffffffffffffffff\n      and\n      0x8be0079c531659141344cd1fd0a4f28419497f9722a3daafe3b4186f6b6457e0\n      mload(0x40)\n      mload(0x40)\n      dup1\n      swap2\n      sub\n      swap1\n      log3\n        /* \"@openzeppelin/contracts/access/Ownable.sol\":2974:3098  {... */\n      pop\n        /* \"@openzeppelin/contracts/access/Ownable.sol\":2911:3098  function _transferOwnership(address newOwner) internal virtual {... */\n      pop\n      jump\t// out\n        /* \"contracts/Sales.sol\":1403:1879  function _addSale(... */\n    tag_69:\n        /* \"contracts/Sales.sol\":1613:1622  _saleName */\n      dup4\n        /* \"contracts/Sales.sol\":1589:1597  saleInfo */\n      0x03\n        /* \"contracts/Sales.sol\":1589:1605  saleInfo[_count] */\n      0x00\n        /* \"contracts/Sales.sol\":1598:1604  _count */\n      dup8\n        /* \"contracts/Sales.sol\":1589:1605  saleInfo[_count] */\n      dup2\n      mstore\n      0x20\n      add\n      swap1\n      dup2\n      mstore\n      0x20\n      add\n      0x00\n      keccak256\n        /* \"contracts/Sales.sol\":1589:1610  saleInfo[_count].name */\n      0x00\n      add\n        /* \"contracts/Sales.sol\":1589:1622  saleInfo[_count].name = _saleName */\n      swap1\n      dup2\n      tag_96\n      swap2\n      swap1\n      tag_97\n      jump\t// in\n    tag_96:\n      pop\n        /* \"contracts/Sales.sol\":1666:1673  _supply */\n      dup3\n        /* \"contracts/Sales.sol\":1632:1640  saleInfo */\n      0x03\n        /* \"contracts/Sales.sol\":1632:1648  saleInfo[_count] */\n      0x00\n        /* \"contracts/Sales.sol\":1641:1647  _count */\n      dup8\n        /* \"contracts/Sales.sol\":1632:1648  saleInfo[_count] */\n      dup2\n      mstore\n      0x20\n      add\n      swap1\n      dup2\n      mstore\n      0x20\n      add\n      0x00\n      keccak256\n        /* \"contracts/Sales.sol\":1632:1655  saleInfo[_count].supply */\n      0x01\n      add\n      0x00\n        /* \"contracts/Sales.sol\":1632:1674  saleInfo[_count].supply = uint160(_supply) */\n      0x0100\n      exp\n      dup2\n      sload\n      dup2\n      0xffffffffffffffffffffffffffffffffffffffff\n      mul\n      not\n      and\n      swap1\n      dup4\n      0xffffffffffffffffffffffffffffffffffffffff\n      and\n      mul\n      or\n      swap1\n      sstore\n      pop\n        /* \"contracts/Sales.sol\":1717:1731  _walletAddress */\n      dup2\n        /* \"contracts/Sales.sol\":1684:1692  saleInfo */\n      0x03\n        /* \"contracts/Sales.sol\":1684:1700  saleInfo[_count] */\n      0x00\n        /* \"contracts/Sales.sol\":1693:1699  _count */\n      dup8\n        /* \"contracts/Sales.sol\":1684:1700  saleInfo[_count] */\n      dup2\n      mstore\n      0x20\n      add\n      swap1\n      dup2\n      mstore\n      0x20\n      add\n      0x00\n      keccak256\n        /* \"contracts/Sales.sol\":1684:1714  saleInfo[_count].walletAddress */\n      0x02\n      add\n      0x00\n        /* \"contracts/Sales.sol\":1684:1731  saleInfo[_count].walletAddress = _walletAddress */\n      0x0100\n      exp\n      dup2\n      sload\n      dup2\n      0xffffffffffffffffffffffffffffffffffffffff\n      mul\n      not\n      and\n      swap1\n      dup4\n      0xffffffffffffffffffffffffffffffffffffffff\n      and\n      mul\n      or\n      swap1\n      sstore\n      pop\n        /* \"contracts/Sales.sol\":1768:1780  _currentTime */\n      dup1\n        /* \"contracts/Sales.sol\":1741:1749  saleInfo */\n      0x03\n        /* \"contracts/Sales.sol\":1741:1757  saleInfo[_count] */\n      0x00\n        /* \"contracts/Sales.sol\":1750:1756  _count */\n      dup8\n        /* \"contracts/Sales.sol\":1741:1757  saleInfo[_count] */\n      dup2\n      mstore\n      0x20\n      add\n      swap1\n      dup2\n      mstore\n      0x20\n      add\n      0x00\n      keccak256\n        /* \"contracts/Sales.sol\":1741:1765  saleInfo[_count].startAt */\n      0x03\n      add\n        /* \"contracts/Sales.sol\":1741:1780  saleInfo[_count].startAt = _currentTime */\n      dup2\n      swap1\n      sstore\n      pop\n        /* \"contracts/Sales.sol\":1810:1816  _count */\n      dup5\n        /* \"contracts/Sales.sol\":1790:1796  saleId */\n      0x02\n        /* \"contracts/Sales.sol\":1797:1806  _saleName */\n      dup6\n        /* \"contracts/Sales.sol\":1790:1807  saleId[_saleName] */\n      mload(0x40)\n      tag_98\n      swap2\n      swap1\n      tag_99\n      jump\t// in\n    tag_98:\n      swap1\n      dup2\n      mstore\n      0x20\n      add\n      mload(0x40)\n      dup1\n      swap2\n      sub\n      swap1\n      keccak256\n        /* \"contracts/Sales.sol\":1790:1816  saleId[_saleName] = _count */\n      dup2\n      swap1\n      sstore\n      pop\n        /* \"contracts/Sales.sol\":1859:1871  _currentTime */\n      dup1\n        /* \"contracts/Sales.sol\":1848:1857  _saleName */\n      dup5\n        /* \"contracts/Sales.sol\":1831:1872  SaleInfo(_count, _saleName, _currentTime) */\n      mload(0x40)\n      tag_100\n      swap2\n      swap1\n      tag_99\n      jump\t// in\n    tag_100:\n      mload(0x40)\n      dup1\n      swap2\n      sub\n      swap1\n      keccak256\n        /* \"contracts/Sales.sol\":1840:1846  _count */\n      dup7\n        /* \"contracts/Sales.sol\":1831:1872  SaleInfo(_count, _saleName, _currentTime) */\n      0x0c19bb44b59579be200a2b8014813f052e8d673471778b18db3aae536dce7ba5\n      mload(0x40)\n      mload(0x40)\n      dup1\n      swap2\n      sub\n      swap1\n      log4\n        /* \"contracts/Sales.sol\":1403:1879  function _addSale(... */\n      pop\n      pop\n      pop\n      pop\n      pop\n      jump\t// out\n        /* \"@openzeppelin/contracts/utils/Context.sol\":655:751  function _msgSender() internal view virtual returns (address) {... */\n    tag_89:\n        /* \"@openzeppelin/contracts/utils/Context.sol\":708:715  address */\n      0x00\n        /* \"@openzeppelin/contracts/utils/Context.sol\":734:744  msg.sender */\n      caller\n        /* \"@openzeppelin/contracts/utils/Context.sol\":727:744  return msg.sender */\n      swap1\n      pop\n        /* \"@openzeppelin/contracts/utils/Context.sol\":655:751  function _msgSender() internal view virtual returns (address) {... */\n      swap1\n      jump\t// out\n        /* \"#utility.yul\":7:82   */\n    tag_102:\n        /* \"#utility.yul\":40:46   */\n      0x00\n        /* \"#utility.yul\":73:75   */\n      0x40\n        /* \"#utility.yul\":67:76   */\n      mload\n        /* \"#utility.yul\":57:76   */\n      swap1\n      pop\n        /* \"#utility.yul\":7:82   */\n      swap1\n      jump\t// out\n        /* \"#utility.yul\":88:205   */\n    tag_103:\n        /* \"#utility.yul\":197:198   */\n      0x00\n        /* \"#utility.yul\":194:195   */\n      dup1\n        /* \"#utility.yul\":187:199   */\n      revert\n        /* \"#utility.yul\":211:328   */\n    tag_104:\n        /* \"#utility.yul\":320:321   */\n      0x00\n        /* \"#utility.yul\":317:318   */\n      dup1\n        /* \"#utility.yul\":310:322   */\n      revert\n        /* \"#utility.yul\":334:411   */\n    tag_105:\n        /* \"#utility.yul\":371:378   */\n      0x00\n        /* \"#utility.yul\":400:405   */\n      dup2\n        /* \"#utility.yul\":389:405   */\n      swap1\n      pop\n        /* \"#utility.yul\":334:411   */\n      swap2\n      swap1\n      pop\n      jump\t// out\n        /* \"#utility.yul\":417:539   */\n    tag_106:\n        /* \"#utility.yul\":490:514   */\n      tag_162\n        /* \"#utility.yul\":508:513   */\n      dup2\n        /* \"#utility.yul\":490:514   */\n      tag_105\n      jump\t// in\n    tag_162:\n        /* \"#utility.yul\":483:488   */\n      dup2\n        /* \"#utility.yul\":480:515   */\n      eq\n        /* \"#utility.yul\":470:533   */\n      tag_163\n      jumpi\n        /* \"#utility.yul\":529:530   */\n      0x00\n        /* \"#utility.yul\":526:527   */\n      dup1\n        /* \"#utility.yul\":519:531   */\n      revert\n        /* \"#utility.yul\":470:533   */\n    tag_163:\n        /* \"#utility.yul\":417:539   */\n      pop\n      jump\t// out\n        /* \"#utility.yul\":545:684   */\n    tag_107:\n        /* \"#utility.yul\":591:596   */\n      0x00\n        /* \"#utility.yul\":629:635   */\n      dup2\n        /* \"#utility.yul\":616:636   */\n      calldataload\n        /* \"#utility.yul\":607:636   */\n      swap1\n      pop\n        /* \"#utility.yul\":645:678   */\n      tag_165\n        /* \"#utility.yul\":672:677   */\n      dup2\n        /* \"#utility.yul\":645:678   */\n      tag_106\n      jump\t// in\n    tag_165:\n        /* \"#utility.yul\":545:684   */\n      swap3\n      swap2\n      pop\n      pop\n      jump\t// out\n        /* \"#utility.yul\":690:1019   */\n    tag_15:\n        /* \"#utility.yul\":749:755   */\n      0x00\n        /* \"#utility.yul\":798:800   */\n      0x20\n        /* \"#utility.yul\":786:795   */\n      dup3\n        /* \"#utility.yul\":777:784   */\n      dup5\n        /* \"#utility.yul\":773:796   */\n      sub\n        /* \"#utility.yul\":769:801   */\n      slt\n        /* \"#utility.yul\":766:885   */\n      iszero\n      tag_167\n      jumpi\n        /* \"#utility.yul\":804:883   */\n      tag_168\n      tag_103\n      jump\t// in\n    tag_168:\n        /* \"#utility.yul\":766:885   */\n    tag_167:\n        /* \"#utility.yul\":924:925   */\n      0x00\n        /* \"#utility.yul\":949:1002   */\n      tag_169\n        /* \"#utility.yul\":994:1001   */\n      dup5\n        /* \"#utility.yul\":985:991   */\n      dup3\n        /* \"#utility.yul\":974:983   */\n      dup6\n        /* \"#utility.yul\":970:992   */\n      add\n        /* \"#utility.yul\":949:1002   */\n      tag_107\n      jump\t// in\n    tag_169:\n        /* \"#utility.yul\":939:1002   */\n      swap2\n      pop\n        /* \"#utility.yul\":895:1012   */\n      pop\n        /* \"#utility.yul\":690:1019   */\n      swap3\n      swap2\n      pop\n      pop\n      jump\t// out\n        /* \"#utility.yul\":1025:1124   */\n    tag_108:\n        /* \"#utility.yul\":1077:1083   */\n      0x00\n        /* \"#utility.yul\":1111:1116   */\n      dup2\n        /* \"#utility.yul\":1105:1117   */\n      mload\n        /* \"#utility.yul\":1095:1117   */\n      swap1\n      pop\n        /* \"#utility.yul\":1025:1124   */\n      swap2\n      swap1\n      pop\n      jump\t// out\n        /* \"#utility.yul\":1130:1299   */\n    tag_109:\n        /* \"#utility.yul\":1214:1225   */\n      0x00\n        /* \"#utility.yul\":1248:1254   */\n      dup3\n        /* \"#utility.yul\":1243:1246   */\n      dup3\n        /* \"#utility.yul\":1236:1255   */\n      mstore\n        /* \"#utility.yul\":1288:1292   */\n      0x20\n        /* \"#utility.yul\":1283:1286   */\n      dup3\n        /* \"#utility.yul\":1279:1293   */\n      add\n        /* \"#utility.yul\":1264:1293   */\n      swap1\n      pop\n        /* \"#utility.yul\":1130:1299   */\n      swap3\n      swap2\n      pop\n      pop\n      jump\t// out\n        /* \"#utility.yul\":1305:1551   */\n    tag_110:\n        /* \"#utility.yul\":1386:1387   */\n      0x00\n        /* \"#utility.yul\":1396:1509   */\n    tag_173:\n        /* \"#utility.yul\":1410:1416   */\n      dup4\n        /* \"#utility.yul\":1407:1408   */\n      dup2\n        /* \"#utility.yul\":1404:1417   */\n      lt\n        /* \"#utility.yul\":1396:1509   */\n      iszero\n      tag_175\n      jumpi\n        /* \"#utility.yul\":1495:1496   */\n      dup1\n        /* \"#utility.yul\":1490:1493   */\n      dup3\n        /* \"#utility.yul\":1486:1497   */\n      add\n        /* \"#utility.yul\":1480:1498   */\n      mload\n        /* \"#utility.yul\":1476:1477   */\n      dup2\n        /* \"#utility.yul\":1471:1474   */\n      dup5\n        /* \"#utility.yul\":1467:1478   */\n      add\n        /* \"#utility.yul\":1460:1499   */\n      mstore\n        /* \"#utility.yul\":1432:1434   */\n      0x20\n        /* \"#utility.yul\":1429:1430   */\n      dup2\n        /* \"#utility.yul\":1425:1435   */\n      add\n        /* \"#utility.yul\":1420:1435   */\n      swap1\n      pop\n        /* \"#utility.yul\":1396:1509   */\n      jump(tag_173)\n    tag_175:\n        /* \"#utility.yul\":1543:1544   */\n      0x00\n        /* \"#utility.yul\":1534:1540   */\n      dup5\n        /* \"#utility.yul\":1529:1532   */\n      dup5\n        /* \"#utility.yul\":1525:1541   */\n      add\n        /* \"#utility.yul\":1518:1545   */\n      mstore\n        /* \"#utility.yul\":1367:1551   */\n      pop\n        /* \"#utility.yul\":1305:1551   */\n      pop\n      pop\n      pop\n      jump\t// out\n        /* \"#utility.yul\":1557:1659   */\n    tag_111:\n        /* \"#utility.yul\":1598:1604   */\n      0x00\n        /* \"#utility.yul\":1649:1651   */\n      0x1f\n        /* \"#utility.yul\":1645:1652   */\n      not\n        /* \"#utility.yul\":1640:1642   */\n      0x1f\n        /* \"#utility.yul\":1633:1638   */\n      dup4\n        /* \"#utility.yul\":1629:1643   */\n      add\n        /* \"#utility.yul\":1625:1653   */\n      and\n        /* \"#utility.yul\":1615:1653   */\n      swap1\n      pop\n        /* \"#utility.yul\":1557:1659   */\n      swap2\n      swap1\n      pop\n      jump\t// out\n        /* \"#utility.yul\":1665:2042   */\n    tag_112:\n        /* \"#utility.yul\":1753:1756   */\n      0x00\n        /* \"#utility.yul\":1781:1820   */\n      tag_178\n        /* \"#utility.yul\":1814:1819   */\n      dup3\n        /* \"#utility.yul\":1781:1820   */\n      tag_108\n      jump\t// in\n    tag_178:\n        /* \"#utility.yul\":1836:1907   */\n      tag_179\n        /* \"#utility.yul\":1900:1906   */\n      dup2\n        /* \"#utility.yul\":1895:1898   */\n      dup6\n        /* \"#utility.yul\":1836:1907   */\n      tag_109\n      jump\t// in\n    tag_179:\n        /* \"#utility.yul\":1829:1907   */\n      swap4\n      pop\n        /* \"#utility.yul\":1916:1981   */\n      tag_180\n        /* \"#utility.yul\":1974:1980   */\n      dup2\n        /* \"#utility.yul\":1969:1972   */\n      dup6\n        /* \"#utility.yul\":1962:1966   */\n      0x20\n        /* \"#utility.yul\":1955:1960   */\n      dup7\n        /* \"#utility.yul\":1951:1967   */\n      add\n        /* \"#utility.yul\":1916:1981   */\n      tag_110\n      jump\t// in\n    tag_180:\n        /* \"#utility.yul\":2006:2035   */\n      tag_181\n        /* \"#utility.yul\":2028:2034   */\n      dup2\n        /* \"#utility.yul\":2006:2035   */\n      tag_111\n      jump\t// in\n    tag_181:\n        /* \"#utility.yul\":2001:2004   */\n      dup5\n        /* \"#utility.yul\":1997:2036   */\n      add\n        /* \"#utility.yul\":1990:2036   */\n      swap2\n      pop\n        /* \"#utility.yul\":1757:2042   */\n      pop\n        /* \"#utility.yul\":1665:2042   */\n      swap3\n      swap2\n      pop\n      pop\n      jump\t// out\n        /* \"#utility.yul\":2048:2174   */\n    tag_113:\n        /* \"#utility.yul\":2085:2092   */\n      0x00\n        /* \"#utility.yul\":2125:2167   */\n      0xffffffffffffffffffffffffffffffffffffffff\n        /* \"#utility.yul\":2118:2123   */\n      dup3\n        /* \"#utility.yul\":2114:2168   */\n      and\n        /* \"#utility.yul\":2103:2168   */\n      swap1\n      pop\n        /* \"#utility.yul\":2048:2174   */\n      swap2\n      swap1\n      pop\n      jump\t// out\n        /* \"#utility.yul\":2180:2298   */\n    tag_114:\n        /* \"#utility.yul\":2267:2291   */\n      tag_184\n        /* \"#utility.yul\":2285:2290   */\n      dup2\n        /* \"#utility.yul\":2267:2291   */\n      tag_113\n      jump\t// in\n    tag_184:\n        /* \"#utility.yul\":2262:2265   */\n      dup3\n        /* \"#utility.yul\":2255:2292   */\n      mstore\n        /* \"#utility.yul\":2180:2298   */\n      pop\n      pop\n      jump\t// out\n        /* \"#utility.yul\":2304:2400   */\n    tag_115:\n        /* \"#utility.yul\":2341:2348   */\n      0x00\n        /* \"#utility.yul\":2370:2394   */\n      tag_186\n        /* \"#utility.yul\":2388:2393   */\n      dup3\n        /* \"#utility.yul\":2370:2394   */\n      tag_113\n      jump\t// in\n    tag_186:\n        /* \"#utility.yul\":2359:2394   */\n      swap1\n      pop\n        /* \"#utility.yul\":2304:2400   */\n      swap2\n      swap1\n      pop\n      jump\t// out\n        /* \"#utility.yul\":2406:2524   */\n    tag_116:\n        /* \"#utility.yul\":2493:2517   */\n      tag_188\n        /* \"#utility.yul\":2511:2516   */\n      dup2\n        /* \"#utility.yul\":2493:2517   */\n      tag_115\n      jump\t// in\n    tag_188:\n        /* \"#utility.yul\":2488:2491   */\n      dup3\n        /* \"#utility.yul\":2481:2518   */\n      mstore\n        /* \"#utility.yul\":2406:2524   */\n      pop\n      pop\n      jump\t// out\n        /* \"#utility.yul\":2530:2648   */\n    tag_117:\n        /* \"#utility.yul\":2617:2641   */\n      tag_190\n        /* \"#utility.yul\":2635:2640   */\n      dup2\n        /* \"#utility.yul\":2617:2641   */\n      tag_105\n      jump\t// in\n    tag_190:\n        /* \"#utility.yul\":2612:2615   */\n      dup3\n        /* \"#utility.yul\":2605:2642   */\n      mstore\n        /* \"#utility.yul\":2530:2648   */\n      pop\n      pop\n      jump\t// out\n        /* \"#utility.yul\":2654:3298   */\n    tag_18:\n        /* \"#utility.yul\":2851:2855   */\n      0x00\n        /* \"#utility.yul\":2889:2892   */\n      0x80\n        /* \"#utility.yul\":2878:2887   */\n      dup3\n        /* \"#utility.yul\":2874:2893   */\n      add\n        /* \"#utility.yul\":2866:2893   */\n      swap1\n      pop\n        /* \"#utility.yul\":2939:2948   */\n      dup2\n        /* \"#utility.yul\":2933:2937   */\n      dup2\n        /* \"#utility.yul\":2929:2949   */\n      sub\n        /* \"#utility.yul\":2925:2926   */\n      0x00\n        /* \"#utility.yul\":2914:2923   */\n      dup4\n        /* \"#utility.yul\":2910:2927   */\n      add\n        /* \"#utility.yul\":2903:2950   */\n      mstore\n        /* \"#utility.yul\":2967:3045   */\n      tag_192\n        /* \"#utility.yul\":3040:3044   */\n      dup2\n        /* \"#utility.yul\":3031:3037   */\n      dup8\n        /* \"#utility.yul\":2967:3045   */\n      tag_112\n      jump\t// in\n    tag_192:\n        /* \"#utility.yul\":2959:3045   */\n      swap1\n      pop\n        /* \"#utility.yul\":3055:3127   */\n      tag_193\n        /* \"#utility.yul\":3123:3125   */\n      0x20\n        /* \"#utility.yul\":3112:3121   */\n      dup4\n        /* \"#utility.yul\":3108:3126   */\n      add\n        /* \"#utility.yul\":3099:3105   */\n      dup7\n        /* \"#utility.yul\":3055:3127   */\n      tag_114\n      jump\t// in\n    tag_193:\n        /* \"#utility.yul\":3137:3209   */\n      tag_194\n        /* \"#utility.yul\":3205:3207   */\n      0x40\n        /* \"#utility.yul\":3194:3203   */\n      dup4\n        /* \"#utility.yul\":3190:3208   */\n      add\n        /* \"#utility.yul\":3181:3187   */\n      dup6\n        /* \"#utility.yul\":3137:3209   */\n      tag_116\n      jump\t// in\n    tag_194:\n        /* \"#utility.yul\":3219:3291   */\n      tag_195\n        /* \"#utility.yul\":3287:3289   */\n      0x60\n        /* \"#utility.yul\":3276:3285   */\n      dup4\n        /* \"#utility.yul\":3272:3290   */\n      add\n        /* \"#utility.yul\":3263:3269   */\n      dup5\n        /* \"#utility.yul\":3219:3291   */\n      tag_117\n      jump\t// in\n    tag_195:\n        /* \"#utility.yul\":2654:3298   */\n      swap6\n      swap5\n      pop\n      pop\n      pop\n      pop\n      pop\n      jump\t// out\n        /* \"#utility.yul\":3304:3421   */\n    tag_118:\n        /* \"#utility.yul\":3413:3414   */\n      0x00\n        /* \"#utility.yul\":3410:3411   */\n      dup1\n        /* \"#utility.yul\":3403:3415   */\n      revert\n        /* \"#utility.yul\":3427:3544   */\n    tag_119:\n        /* \"#utility.yul\":3536:3537   */\n      0x00\n        /* \"#utility.yul\":3533:3534   */\n      dup1\n        /* \"#utility.yul\":3526:3538   */\n      revert\n        /* \"#utility.yul\":3550:3730   */\n    tag_120:\n        /* \"#utility.yul\":3598:3675   */\n      0x4e487b7100000000000000000000000000000000000000000000000000000000\n        /* \"#utility.yul\":3595:3596   */\n      0x00\n        /* \"#utility.yul\":3588:3676   */\n      mstore\n        /* \"#utility.yul\":3695:3699   */\n      0x41\n        /* \"#utility.yul\":3692:3693   */\n      0x04\n        /* \"#utility.yul\":3685:3700   */\n      mstore\n        /* \"#utility.yul\":3719:3723   */\n      0x24\n        /* \"#utility.yul\":3716:3717   */\n      0x00\n        /* \"#utility.yul\":3709:3724   */\n      revert\n        /* \"#utility.yul\":3736:4017   */\n    tag_121:\n        /* \"#utility.yul\":3819:3846   */\n      tag_200\n        /* \"#utility.yul\":3841:3845   */\n      dup3\n        /* \"#utility.yul\":3819:3846   */\n      tag_111\n      jump\t// in\n    tag_200:\n        /* \"#utility.yul\":3811:3817   */\n      dup2\n        /* \"#utility.yul\":3807:3847   */\n      add\n        /* \"#utility.yul\":3949:3955   */\n      dup2\n        /* \"#utility.yul\":3937:3947   */\n      dup2\n        /* \"#utility.yul\":3934:3956   */\n      lt\n        /* \"#utility.yul\":3913:3931   */\n      0xffffffffffffffff\n        /* \"#utility.yul\":3901:3911   */\n      dup3\n        /* \"#utility.yul\":3898:3932   */\n      gt\n        /* \"#utility.yul\":3895:3957   */\n      or\n        /* \"#utility.yul\":3892:3980   */\n      iszero\n      tag_201\n      jumpi\n        /* \"#utility.yul\":3960:3978   */\n      tag_202\n      tag_120\n      jump\t// in\n    tag_202:\n        /* \"#utility.yul\":3892:3980   */\n    tag_201:\n        /* \"#utility.yul\":4000:4010   */\n      dup1\n        /* \"#utility.yul\":3996:3998   */\n      0x40\n        /* \"#utility.yul\":3989:4011   */\n      mstore\n        /* \"#utility.yul\":3779:4017   */\n      pop\n        /* \"#utility.yul\":3736:4017   */\n      pop\n      pop\n      jump\t// out\n        /* \"#utility.yul\":4023:4152   */\n    tag_122:\n        /* \"#utility.yul\":4057:4063   */\n      0x00\n        /* \"#utility.yul\":4084:4104   */\n      tag_204\n      tag_102\n      jump\t// in\n    tag_204:\n        /* \"#utility.yul\":4074:4104   */\n      swap1\n      pop\n        /* \"#utility.yul\":4113:4146   */\n      tag_205\n        /* \"#utility.yul\":4141:4145   */\n      dup3\n        /* \"#utility.yul\":4133:4139   */\n      dup3\n        /* \"#utility.yul\":4113:4146   */\n      tag_121\n      jump\t// in\n    tag_205:\n        /* \"#utility.yul\":4023:4152   */\n      swap2\n      swap1\n      pop\n      jump\t// out\n        /* \"#utility.yul\":4158:4466   */\n    tag_123:\n        /* \"#utility.yul\":4220:4224   */\n      0x00\n        /* \"#utility.yul\":4310:4328   */\n      0xffffffffffffffff\n        /* \"#utility.yul\":4302:4308   */\n      dup3\n        /* \"#utility.yul\":4299:4329   */\n      gt\n        /* \"#utility.yul\":4296:4352   */\n      iszero\n      tag_207\n      jumpi\n        /* \"#utility.yul\":4332:4350   */\n      tag_208\n      tag_120\n      jump\t// in\n    tag_208:\n        /* \"#utility.yul\":4296:4352   */\n    tag_207:\n        /* \"#utility.yul\":4370:4399   */\n      tag_209\n        /* \"#utility.yul\":4392:4398   */\n      dup3\n        /* \"#utility.yul\":4370:4399   */\n      tag_111\n      jump\t// in\n    tag_209:\n        /* \"#utility.yul\":4362:4399   */\n      swap1\n      pop\n        /* \"#utility.yul\":4454:4458   */\n      0x20\n        /* \"#utility.yul\":4448:4452   */\n      dup2\n        /* \"#utility.yul\":4444:4459   */\n      add\n        /* \"#utility.yul\":4436:4459   */\n      swap1\n      pop\n        /* \"#utility.yul\":4158:4466   */\n      swap2\n      swap1\n      pop\n      jump\t// out\n        /* \"#utility.yul\":4472:4618   */\n    tag_124:\n        /* \"#utility.yul\":4569:4575   */\n      dup3\n        /* \"#utility.yul\":4564:4567   */\n      dup2\n        /* \"#utility.yul\":4559:4562   */\n      dup4\n        /* \"#utility.yul\":4546:4576   */\n      calldatacopy\n        /* \"#utility.yul\":4610:4611   */\n      0x00\n        /* \"#utility.yul\":4601:4607   */\n      dup4\n        /* \"#utility.yul\":4596:4599   */\n      dup4\n        /* \"#utility.yul\":4592:4608   */\n      add\n        /* \"#utility.yul\":4585:4612   */\n      mstore\n        /* \"#utility.yul\":4472:4618   */\n      pop\n      pop\n      pop\n      jump\t// out\n        /* \"#utility.yul\":4624:5049   */\n    tag_125:\n        /* \"#utility.yul\":4702:4707   */\n      0x00\n        /* \"#utility.yul\":4727:4793   */\n      tag_212\n        /* \"#utility.yul\":4743:4792   */\n      tag_213\n        /* \"#utility.yul\":4785:4791   */\n      dup5\n        /* \"#utility.yul\":4743:4792   */\n      tag_123\n      jump\t// in\n    tag_213:\n        /* \"#utility.yul\":4727:4793   */\n      tag_122\n      jump\t// in\n    tag_212:\n        /* \"#utility.yul\":4718:4793   */\n      swap1\n      pop\n        /* \"#utility.yul\":4816:4822   */\n      dup3\n        /* \"#utility.yul\":4809:4814   */\n      dup2\n        /* \"#utility.yul\":4802:4823   */\n      mstore\n        /* \"#utility.yul\":4854:4858   */\n      0x20\n        /* \"#utility.yul\":4847:4852   */\n      dup2\n        /* \"#utility.yul\":4843:4859   */\n      add\n        /* \"#utility.yul\":4892:4895   */\n      dup5\n        /* \"#utility.yul\":4883:4889   */\n      dup5\n        /* \"#utility.yul\":4878:4881   */\n      dup5\n        /* \"#utility.yul\":4874:4890   */\n      add\n        /* \"#utility.yul\":4871:4896   */\n      gt\n        /* \"#utility.yul\":4868:4980   */\n      iszero\n      tag_214\n      jumpi\n        /* \"#utility.yul\":4899:4978   */\n      tag_215\n      tag_119\n      jump\t// in\n    tag_215:\n        /* \"#utility.yul\":4868:4980   */\n    tag_214:\n        /* \"#utility.yul\":4989:5043   */\n      tag_216\n        /* \"#utility.yul\":5036:5042   */\n      dup5\n        /* \"#utility.yul\":5031:5034   */\n      dup3\n        /* \"#utility.yul\":5026:5029   */\n      dup6\n        /* \"#utility.yul\":4989:5043   */\n      tag_124\n      jump\t// in\n    tag_216:\n        /* \"#utility.yul\":4708:5049   */\n      pop\n        /* \"#utility.yul\":4624:5049   */\n      swap4\n      swap3\n      pop\n      pop\n      pop\n      jump\t// out\n        /* \"#utility.yul\":5069:5409   */\n    tag_126:\n        /* \"#utility.yul\":5125:5130   */\n      0x00\n        /* \"#utility.yul\":5174:5177   */\n      dup3\n        /* \"#utility.yul\":5167:5171   */\n      0x1f\n        /* \"#utility.yul\":5159:5165   */\n      dup4\n        /* \"#utility.yul\":5155:5172   */\n      add\n        /* \"#utility.yul\":5151:5178   */\n      slt\n        /* \"#utility.yul\":5141:5263   */\n      tag_218\n      jumpi\n        /* \"#utility.yul\":5182:5261   */\n      tag_219\n      tag_118\n      jump\t// in\n    tag_219:\n        /* \"#utility.yul\":5141:5263   */\n    tag_218:\n        /* \"#utility.yul\":5299:5305   */\n      dup2\n        /* \"#utility.yul\":5286:5306   */\n      calldataload\n        /* \"#utility.yul\":5324:5403   */\n      tag_220\n        /* \"#utility.yul\":5399:5402   */\n      dup5\n        /* \"#utility.yul\":5391:5397   */\n      dup3\n        /* \"#utility.yul\":5384:5388   */\n      0x20\n        /* \"#utility.yul\":5376:5382   */\n      dup7\n        /* \"#utility.yul\":5372:5389   */\n      add\n        /* \"#utility.yul\":5324:5403   */\n      tag_125\n      jump\t// in\n    tag_220:\n        /* \"#utility.yul\":5315:5403   */\n      swap2\n      pop\n        /* \"#utility.yul\":5131:5409   */\n      pop\n        /* \"#utility.yul\":5069:5409   */\n      swap3\n      swap2\n      pop\n      pop\n      jump\t// out\n        /* \"#utility.yul\":5415:5924   */\n    tag_21:\n        /* \"#utility.yul\":5484:5490   */\n      0x00\n        /* \"#utility.yul\":5533:5535   */\n      0x20\n        /* \"#utility.yul\":5521:5530   */\n      dup3\n        /* \"#utility.yul\":5512:5519   */\n      dup5\n        /* \"#utility.yul\":5508:5531   */\n      sub\n        /* \"#utility.yul\":5504:5536   */\n      slt\n        /* \"#utility.yul\":5501:5620   */\n      iszero\n      tag_222\n      jumpi\n        /* \"#utility.yul\":5539:5618   */\n      tag_223\n      tag_103\n      jump\t// in\n    tag_223:\n        /* \"#utility.yul\":5501:5620   */\n    tag_222:\n        /* \"#utility.yul\":5687:5688   */\n      0x00\n        /* \"#utility.yul\":5676:5685   */\n      dup3\n        /* \"#utility.yul\":5672:5689   */\n      add\n        /* \"#utility.yul\":5659:5690   */\n      calldataload\n        /* \"#utility.yul\":5717:5735   */\n      0xffffffffffffffff\n        /* \"#utility.yul\":5709:5715   */\n      dup2\n        /* \"#utility.yul\":5706:5736   */\n      gt\n        /* \"#utility.yul\":5703:5820   */\n      iszero\n      tag_224\n      jumpi\n        /* \"#utility.yul\":5739:5818   */\n      tag_225\n      tag_104\n      jump\t// in\n    tag_225:\n        /* \"#utility.yul\":5703:5820   */\n    tag_224:\n        /* \"#utility.yul\":5844:5907   */\n      tag_226\n        /* \"#utility.yul\":5899:5906   */\n      dup5\n        /* \"#utility.yul\":5890:5896   */\n      dup3\n        /* \"#utility.yul\":5879:5888   */\n      dup6\n        /* \"#utility.yul\":5875:5897   */\n      add\n        /* \"#utility.yul\":5844:5907   */\n      tag_126\n      jump\t// in\n    tag_226:\n        /* \"#utility.yul\":5834:5907   */\n      swap2\n      pop\n        /* \"#utility.yul\":5630:5917   */\n      pop\n        /* \"#utility.yul\":5415:5924   */\n      swap3\n      swap2\n      pop\n      pop\n      jump\t// out\n        /* \"#utility.yul\":5930:6152   */\n    tag_24:\n        /* \"#utility.yul\":6023:6027   */\n      0x00\n        /* \"#utility.yul\":6061:6063   */\n      0x20\n        /* \"#utility.yul\":6050:6059   */\n      dup3\n        /* \"#utility.yul\":6046:6064   */\n      add\n        /* \"#utility.yul\":6038:6064   */\n      swap1\n      pop\n        /* \"#utility.yul\":6074:6145   */\n      tag_228\n        /* \"#utility.yul\":6142:6143   */\n      0x00\n        /* \"#utility.yul\":6131:6140   */\n      dup4\n        /* \"#utility.yul\":6127:6144   */\n      add\n        /* \"#utility.yul\":6118:6124   */\n      dup5\n        /* \"#utility.yul\":6074:6145   */\n      tag_117\n      jump\t// in\n    tag_228:\n        /* \"#utility.yul\":5930:6152   */\n      swap3\n      swap2\n      pop\n      pop\n      jump\t// out\n        /* \"#utility.yul\":6158:6380   */\n    tag_33:\n        /* \"#utility.yul\":6251:6255   */\n      0x00\n        /* \"#utility.yul\":6289:6291   */\n      0x20\n        /* \"#utility.yul\":6278:6287   */\n      dup3\n        /* \"#utility.yul\":6274:6292   */\n      add\n        /* \"#utility.yul\":6266:6292   */\n      swap1\n      pop\n        /* \"#utility.yul\":6302:6373   */\n      tag_230\n        /* \"#utility.yul\":6370:6371   */\n      0x00\n        /* \"#utility.yul\":6359:6368   */\n      dup4\n        /* \"#utility.yul\":6355:6372   */\n      add\n        /* \"#utility.yul\":6346:6352   */\n      dup5\n        /* \"#utility.yul\":6302:6373   */\n      tag_116\n      jump\t// in\n    tag_230:\n        /* \"#utility.yul\":6158:6380   */\n      swap3\n      swap2\n      pop\n      pop\n      jump\t// out\n        /* \"#utility.yul\":6386:6919   */\n    tag_39:\n        /* \"#utility.yul\":6555:6559   */\n      0x00\n        /* \"#utility.yul\":6593:6595   */\n      0x60\n        /* \"#utility.yul\":6582:6591   */\n      dup3\n        /* \"#utility.yul\":6578:6596   */\n      add\n        /* \"#utility.yul\":6570:6596   */\n      swap1\n      pop\n        /* \"#utility.yul\":6642:6651   */\n      dup2\n        /* \"#utility.yul\":6636:6640   */\n      dup2\n        /* \"#utility.yul\":6632:6652   */\n      sub\n        /* \"#utility.yul\":6628:6629   */\n      0x00\n        /* \"#utility.yul\":6617:6626   */\n      dup4\n        /* \"#utility.yul\":6613:6630   */\n      add\n        /* \"#utility.yul\":6606:6653   */\n      mstore\n        /* \"#utility.yul\":6670:6748   */\n      tag_232\n        /* \"#utility.yul\":6743:6747   */\n      dup2\n        /* \"#utility.yul\":6734:6740   */\n      dup7\n        /* \"#utility.yul\":6670:6748   */\n      tag_112\n      jump\t// in\n    tag_232:\n        /* \"#utility.yul\":6662:6748   */\n      swap1\n      pop\n        /* \"#utility.yul\":6758:6830   */\n      tag_233\n        /* \"#utility.yul\":6826:6828   */\n      0x20\n        /* \"#utility.yul\":6815:6824   */\n      dup4\n        /* \"#utility.yul\":6811:6829   */\n      add\n        /* \"#utility.yul\":6802:6808   */\n      dup6\n        /* \"#utility.yul\":6758:6830   */\n      tag_117\n      jump\t// in\n    tag_233:\n        /* \"#utility.yul\":6840:6912   */\n      tag_234\n        /* \"#utility.yul\":6908:6910   */\n      0x40\n        /* \"#utility.yul\":6897:6906   */\n      dup4\n        /* \"#utility.yul\":6893:6911   */\n      add\n        /* \"#utility.yul\":6884:6890   */\n      dup5\n        /* \"#utility.yul\":6840:6912   */\n      tag_116\n      jump\t// in\n    tag_234:\n        /* \"#utility.yul\":6386:6919   */\n      swap5\n      swap4\n      pop\n      pop\n      pop\n      pop\n      jump\t// out\n        /* \"#utility.yul\":6925:7047   */\n    tag_127:\n        /* \"#utility.yul\":6998:7022   */\n      tag_236\n        /* \"#utility.yul\":7016:7021   */\n      dup2\n        /* \"#utility.yul\":6998:7022   */\n      tag_115\n      jump\t// in\n    tag_236:\n        /* \"#utility.yul\":6991:6996   */\n      dup2\n        /* \"#utility.yul\":6988:7023   */\n      eq\n        /* \"#utility.yul\":6978:7041   */\n      tag_237\n      jumpi\n        /* \"#utility.yul\":7037:7038   */\n      0x00\n        /* \"#utility.yul\":7034:7035   */\n      dup1\n        /* \"#utility.yul\":7027:7039   */\n      revert\n        /* \"#utility.yul\":6978:7041   */\n    tag_237:\n        /* \"#utility.yul\":6925:7047   */\n      pop\n      jump\t// out\n        /* \"#utility.yul\":7053:7192   */\n    tag_128:\n        /* \"#utility.yul\":7099:7104   */\n      0x00\n        /* \"#utility.yul\":7137:7143   */\n      dup2\n        /* \"#utility.yul\":7124:7144   */\n      calldataload\n        /* \"#utility.yul\":7115:7144   */\n      swap1\n      pop\n        /* \"#utility.yul\":7153:7186   */\n      tag_239\n        /* \"#utility.yul\":7180:7185   */\n      dup2\n        /* \"#utility.yul\":7153:7186   */\n      tag_127\n      jump\t// in\n    tag_239:\n        /* \"#utility.yul\":7053:7192   */\n      swap3\n      swap2\n      pop\n      pop\n      jump\t// out\n        /* \"#utility.yul\":7198:7527   */\n    tag_42:\n        /* \"#utility.yul\":7257:7263   */\n      0x00\n        /* \"#utility.yul\":7306:7308   */\n      0x20\n        /* \"#utility.yul\":7294:7303   */\n      dup3\n        /* \"#utility.yul\":7285:7292   */\n      dup5\n        /* \"#utility.yul\":7281:7304   */\n      sub\n        /* \"#utility.yul\":7277:7309   */\n      slt\n        /* \"#utility.yul\":7274:7393   */\n      iszero\n      tag_241\n      jumpi\n        /* \"#utility.yul\":7312:7391   */\n      tag_242\n      tag_103\n      jump\t// in\n    tag_242:\n        /* \"#utility.yul\":7274:7393   */\n    tag_241:\n        /* \"#utility.yul\":7432:7433   */\n      0x00\n        /* \"#utility.yul\":7457:7510   */\n      tag_243\n        /* \"#utility.yul\":7502:7509   */\n      dup5\n        /* \"#utility.yul\":7493:7499   */\n      dup3\n        /* \"#utility.yul\":7482:7491   */\n      dup6\n        /* \"#utility.yul\":7478:7500   */\n      add\n        /* \"#utility.yul\":7457:7510   */\n      tag_128\n      jump\t// in\n    tag_243:\n        /* \"#utility.yul\":7447:7510   */\n      swap2\n      pop\n        /* \"#utility.yul\":7403:7520   */\n      pop\n        /* \"#utility.yul\":7198:7527   */\n      swap3\n      swap2\n      pop\n      pop\n      jump\t// out\n        /* \"#utility.yul\":7533:7593   */\n    tag_129:\n        /* \"#utility.yul\":7561:7564   */\n      0x00\n        /* \"#utility.yul\":7582:7587   */\n      dup2\n        /* \"#utility.yul\":7575:7587   */\n      swap1\n      pop\n        /* \"#utility.yul\":7533:7593   */\n      swap2\n      swap1\n      pop\n      jump\t// out\n        /* \"#utility.yul\":7599:7741   */\n    tag_130:\n        /* \"#utility.yul\":7649:7658   */\n      0x00\n        /* \"#utility.yul\":7682:7735   */\n      tag_246\n        /* \"#utility.yul\":7700:7734   */\n      tag_247\n        /* \"#utility.yul\":7709:7733   */\n      tag_248\n        /* \"#utility.yul\":7727:7732   */\n      dup5\n        /* \"#utility.yul\":7709:7733   */\n      tag_113\n      jump\t// in\n    tag_248:\n        /* \"#utility.yul\":7700:7734   */\n      tag_129\n      jump\t// in\n    tag_247:\n        /* \"#utility.yul\":7682:7735   */\n      tag_113\n      jump\t// in\n    tag_246:\n        /* \"#utility.yul\":7669:7735   */\n      swap1\n      pop\n        /* \"#utility.yul\":7599:7741   */\n      swap2\n      swap1\n      pop\n      jump\t// out\n        /* \"#utility.yul\":7747:7873   */\n    tag_131:\n        /* \"#utility.yul\":7797:7806   */\n      0x00\n        /* \"#utility.yul\":7830:7867   */\n      tag_250\n        /* \"#utility.yul\":7861:7866   */\n      dup3\n        /* \"#utility.yul\":7830:7867   */\n      tag_130\n      jump\t// in\n    tag_250:\n        /* \"#utility.yul\":7817:7867   */\n      swap1\n      pop\n        /* \"#utility.yul\":7747:7873   */\n      swap2\n      swap1\n      pop\n      jump\t// out\n        /* \"#utility.yul\":7879:8021   */\n    tag_132:\n        /* \"#utility.yul\":7945:7954   */\n      0x00\n        /* \"#utility.yul\":7978:8015   */\n      tag_252\n        /* \"#utility.yul\":8009:8014   */\n      dup3\n        /* \"#utility.yul\":7978:8015   */\n      tag_131\n      jump\t// in\n    tag_252:\n        /* \"#utility.yul\":7965:8015   */\n      swap1\n      pop\n        /* \"#utility.yul\":7879:8021   */\n      swap2\n      swap1\n      pop\n      jump\t// out\n        /* \"#utility.yul\":8027:8190   */\n    tag_133:\n        /* \"#utility.yul\":8130:8183   */\n      tag_254\n        /* \"#utility.yul\":8177:8182   */\n      dup2\n        /* \"#utility.yul\":8130:8183   */\n      tag_132\n      jump\t// in\n    tag_254:\n        /* \"#utility.yul\":8125:8128   */\n      dup3\n        /* \"#utility.yul\":8118:8184   */\n      mstore\n        /* \"#utility.yul\":8027:8190   */\n      pop\n      pop\n      jump\t// out\n        /* \"#utility.yul\":8196:8450   */\n    tag_47:\n        /* \"#utility.yul\":8305:8309   */\n      0x00\n        /* \"#utility.yul\":8343:8345   */\n      0x20\n        /* \"#utility.yul\":8332:8341   */\n      dup3\n        /* \"#utility.yul\":8328:8346   */\n      add\n        /* \"#utility.yul\":8320:8346   */\n      swap1\n      pop\n        /* \"#utility.yul\":8356:8443   */\n      tag_256\n        /* \"#utility.yul\":8440:8441   */\n      0x00\n        /* \"#utility.yul\":8429:8438   */\n      dup4\n        /* \"#utility.yul\":8425:8442   */\n      add\n        /* \"#utility.yul\":8416:8422   */\n      dup5\n        /* \"#utility.yul\":8356:8443   */\n      tag_133\n      jump\t// in\n    tag_256:\n        /* \"#utility.yul\":8196:8450   */\n      swap3\n      swap2\n      pop\n      pop\n      jump\t// out\n        /* \"#utility.yul\":8456:8636   */\n    tag_134:\n        /* \"#utility.yul\":8504:8581   */\n      0x4e487b7100000000000000000000000000000000000000000000000000000000\n        /* \"#utility.yul\":8501:8502   */\n      0x00\n        /* \"#utility.yul\":8494:8582   */\n      mstore\n        /* \"#utility.yul\":8601:8605   */\n      0x22\n        /* \"#utility.yul\":8598:8599   */\n      0x04\n        /* \"#utility.yul\":8591:8606   */\n      mstore\n        /* \"#utility.yul\":8625:8629   */\n      0x24\n        /* \"#utility.yul\":8622:8623   */\n      0x00\n        /* \"#utility.yul\":8615:8630   */\n      revert\n        /* \"#utility.yul\":8642:8962   */\n    tag_49:\n        /* \"#utility.yul\":8686:8692   */\n      0x00\n        /* \"#utility.yul\":8723:8724   */\n      0x02\n        /* \"#utility.yul\":8717:8721   */\n      dup3\n        /* \"#utility.yul\":8713:8725   */\n      div\n        /* \"#utility.yul\":8703:8725   */\n      swap1\n      pop\n        /* \"#utility.yul\":8770:8771   */\n      0x01\n        /* \"#utility.yul\":8764:8768   */\n      dup3\n        /* \"#utility.yul\":8760:8772   */\n      and\n        /* \"#utility.yul\":8791:8809   */\n      dup1\n        /* \"#utility.yul\":8781:8862   */\n      tag_259\n      jumpi\n        /* \"#utility.yul\":8847:8851   */\n      0x7f\n        /* \"#utility.yul\":8839:8845   */\n      dup3\n        /* \"#utility.yul\":8835:8852   */\n      and\n        /* \"#utility.yul\":8825:8852   */\n      swap2\n      pop\n        /* \"#utility.yul\":8781:8862   */\n    tag_259:\n        /* \"#utility.yul\":8909:8911   */\n      0x20\n        /* \"#utility.yul\":8901:8907   */\n      dup3\n        /* \"#utility.yul\":8898:8912   */\n      lt\n        /* \"#utility.yul\":8878:8896   */\n      dup2\n        /* \"#utility.yul\":8875:8913   */\n      sub\n        /* \"#utility.yul\":8872:8956   */\n      tag_260\n      jumpi\n        /* \"#utility.yul\":8928:8946   */\n      tag_261\n      tag_134\n      jump\t// in\n    tag_261:\n        /* \"#utility.yul\":8872:8956   */\n    tag_260:\n        /* \"#utility.yul\":8693:8962   */\n      pop\n        /* \"#utility.yul\":8642:8962   */\n      swap2\n      swap1\n      pop\n      jump\t// out\n        /* \"#utility.yul\":8968:9148   */\n    tag_135:\n        /* \"#utility.yul\":9016:9093   */\n      0x4e487b7100000000000000000000000000000000000000000000000000000000\n        /* \"#utility.yul\":9013:9014   */\n      0x00\n        /* \"#utility.yul\":9006:9094   */\n      mstore\n        /* \"#utility.yul\":9113:9117   */\n      0x11\n        /* \"#utility.yul\":9110:9111   */\n      0x04\n        /* \"#utility.yul\":9103:9118   */\n      mstore\n        /* \"#utility.yul\":9137:9141   */\n      0x24\n        /* \"#utility.yul\":9134:9135   */\n      0x00\n        /* \"#utility.yul\":9127:9142   */\n      revert\n        /* \"#utility.yul\":9154:9387   */\n    tag_66:\n        /* \"#utility.yul\":9193:9196   */\n      0x00\n        /* \"#utility.yul\":9216:9240   */\n      tag_264\n        /* \"#utility.yul\":9234:9239   */\n      dup3\n        /* \"#utility.yul\":9216:9240   */\n      tag_105\n      jump\t// in\n    tag_264:\n        /* \"#utility.yul\":9207:9240   */\n      swap2\n      pop\n        /* \"#utility.yul\":9262:9328   */\n      0xffffffffffffffffffffffffffffffffffffffffffffffffffffffffffffffff\n        /* \"#utility.yul\":9255:9260   */\n      dup3\n        /* \"#utility.yul\":9252:9329   */\n      sub\n        /* \"#utility.yul\":9249:9352   */\n      tag_265\n      jumpi\n        /* \"#utility.yul\":9332:9350   */\n      tag_266\n      tag_135\n      jump\t// in\n    tag_266:\n        /* \"#utility.yul\":9249:9352   */\n    tag_265:\n        /* \"#utility.yul\":9379:9380   */\n      0x01\n        /* \"#utility.yul\":9372:9377   */\n      dup3\n        /* \"#utility.yul\":9368:9381   */\n      add\n        /* \"#utility.yul\":9361:9381   */\n      swap1\n      pop\n        /* \"#utility.yul\":9154:9387   */\n      swap2\n      swap1\n      pop\n      jump\t// out\n        /* \"#utility.yul\":9393:9827   */\n    tag_136:\n        /* \"#utility.yul\":9482:9487   */\n      0x00\n        /* \"#utility.yul\":9507:9573   */\n      tag_268\n        /* \"#utility.yul\":9523:9572   */\n      tag_269\n        /* \"#utility.yul\":9565:9571   */\n      dup5\n        /* \"#utility.yul\":9523:9572   */\n      tag_123\n      jump\t// in\n    tag_269:\n        /* \"#utility.yul\":9507:9573   */\n      tag_122\n      jump\t// in\n    tag_268:\n        /* \"#utility.yul\":9498:9573   */\n      swap1\n      pop\n        /* \"#utility.yul\":9596:9602   */\n      dup3\n        /* \"#utility.yul\":9589:9594   */\n      dup2\n        /* \"#utility.yul\":9582:9603   */\n      mstore\n        /* \"#utility.yul\":9634:9638   */\n      0x20\n        /* \"#utility.yul\":9627:9632   */\n      dup2\n        /* \"#utility.yul\":9623:9639   */\n      add\n        /* \"#utility.yul\":9672:9675   */\n      dup5\n        /* \"#utility.yul\":9663:9669   */\n      dup5\n        /* \"#utility.yul\":9658:9661   */\n      dup5\n        /* \"#utility.yul\":9654:9670   */\n      add\n        /* \"#utility.yul\":9651:9676   */\n      gt\n        /* \"#utility.yul\":9648:9760   */\n      iszero\n      tag_270\n      jumpi\n        /* \"#utility.yul\":9679:9758   */\n      tag_271\n      tag_119\n      jump\t// in\n    tag_271:\n        /* \"#utility.yul\":9648:9760   */\n    tag_270:\n        /* \"#utility.yul\":9769:9821   */\n      tag_272\n        /* \"#utility.yul\":9814:9820   */\n      dup5\n        /* \"#utility.yul\":9809:9812   */\n      dup3\n        /* \"#utility.yul\":9804:9807   */\n      dup6\n        /* \"#utility.yul\":9769:9821   */\n      tag_110\n      jump\t// in\n    tag_272:\n        /* \"#utility.yul\":9488:9827   */\n      pop\n        /* \"#utility.yul\":9393:9827   */\n      swap4\n      swap3\n      pop\n      pop\n      pop\n      jump\t// out\n        /* \"#utility.yul\":9847:10202   */\n    tag_137:\n        /* \"#utility.yul\":9914:9919   */\n      0x00\n        /* \"#utility.yul\":9963:9966   */\n      dup3\n        /* \"#utility.yul\":9956:9960   */\n      0x1f\n        /* \"#utility.yul\":9948:9954   */\n      dup4\n        /* \"#utility.yul\":9944:9961   */\n      add\n        /* \"#utility.yul\":9940:9967   */\n      slt\n        /* \"#utility.yul\":9930:10052   */\n      tag_274\n      jumpi\n        /* \"#utility.yul\":9971:10050   */\n      tag_275\n      tag_118\n      jump\t// in\n    tag_275:\n        /* \"#utility.yul\":9930:10052   */\n    tag_274:\n        /* \"#utility.yul\":10081:10087   */\n      dup2\n        /* \"#utility.yul\":10075:10088   */\n      mload\n        /* \"#utility.yul\":10106:10196   */\n      tag_276\n        /* \"#utility.yul\":10192:10195   */\n      dup5\n        /* \"#utility.yul\":10184:10190   */\n      dup3\n        /* \"#utility.yul\":10177:10181   */\n      0x20\n        /* \"#utility.yul\":10169:10175   */\n      dup7\n        /* \"#utility.yul\":10165:10182   */\n      add\n        /* \"#utility.yul\":10106:10196   */\n      tag_136\n      jump\t// in\n    tag_276:\n        /* \"#utility.yul\":10097:10196   */\n      swap2\n      pop\n        /* \"#utility.yul\":9920:10202   */\n      pop\n        /* \"#utility.yul\":9847:10202   */\n      swap3\n      swap2\n      pop\n      pop\n      jump\t// out\n        /* \"#utility.yul\":10208:10732   */\n    tag_74:\n        /* \"#utility.yul\":10288:10294   */\n      0x00\n        /* \"#utility.yul\":10337:10339   */\n      0x20\n        /* \"#utility.yul\":10325:10334   */\n      dup3\n        /* \"#utility.yul\":10316:10323   */\n      dup5\n        /* \"#utility.yul\":10312:10335   */\n      sub\n        /* \"#utility.yul\":10308:10340   */\n      slt\n        /* \"#utility.yul\":10305:10424   */\n      iszero\n      tag_278\n      jumpi\n        /* \"#utility.yul\":10343:10422   */\n      tag_279\n      tag_103\n      jump\t// in\n    tag_279:\n        /* \"#utility.yul\":10305:10424   */\n    tag_278:\n        /* \"#utility.yul\":10484:10485   */\n      0x00\n        /* \"#utility.yul\":10473:10482   */\n      dup3\n        /* \"#utility.yul\":10469:10486   */\n      add\n        /* \"#utility.yul\":10463:10487   */\n      mload\n        /* \"#utility.yul\":10514:10532   */\n      0xffffffffffffffff\n        /* \"#utility.yul\":10506:10512   */\n      dup2\n        /* \"#utility.yul\":10503:10533   */\n      gt\n        /* \"#utility.yul\":10500:10617   */\n      iszero\n      tag_280\n      jumpi\n        /* \"#utility.yul\":10536:10615   */\n      tag_281\n      tag_104\n      jump\t// in\n    tag_281:\n        /* \"#utility.yul\":10500:10617   */\n    tag_280:\n        /* \"#utility.yul\":10641:10715   */\n      tag_282\n        /* \"#utility.yul\":10707:10714   */\n      dup5\n        /* \"#utility.yul\":10698:10704   */\n      dup3\n        /* \"#utility.yul\":10687:10696   */\n      dup6\n        /* \"#utility.yul\":10683:10705   */\n      add\n        /* \"#utility.yul\":10641:10715   */\n      tag_137\n      jump\t// in\n    tag_282:\n        /* \"#utility.yul\":10631:10715   */\n      swap2\n      pop\n        /* \"#utility.yul\":10434:10725   */\n      pop\n        /* \"#utility.yul\":10208:10732   */\n      swap3\n      swap2\n      pop\n      pop\n      jump\t// out\n        /* \"#utility.yul\":10738:11051   */\n    tag_76:\n        /* \"#utility.yul\":10851:10855   */\n      0x00\n        /* \"#utility.yul\":10889:10891   */\n      0x20\n        /* \"#utility.yul\":10878:10887   */\n      dup3\n        /* \"#utility.yul\":10874:10892   */\n      add\n        /* \"#utility.yul\":10866:10892   */\n      swap1\n      pop\n        /* \"#utility.yul\":10938:10947   */\n      dup2\n        /* \"#utility.yul\":10932:10936   */\n      dup2\n        /* \"#utility.yul\":10928:10948   */\n      sub\n        /* \"#utility.yul\":10924:10925   */\n      0x00\n        /* \"#utility.yul\":10913:10922   */\n      dup4\n        /* \"#utility.yul\":10909:10926   */\n      add\n        /* \"#utility.yul\":10902:10949   */\n      mstore\n        /* \"#utility.yul\":10966:11044   */\n      tag_284\n        /* \"#utility.yul\":11039:11043   */\n      dup2\n        /* \"#utility.yul\":11030:11036   */\n      dup5\n        /* \"#utility.yul\":10966:11044   */\n      tag_112\n      jump\t// in\n    tag_284:\n        /* \"#utility.yul\":10958:11044   */\n      swap1\n      pop\n        /* \"#utility.yul\":10738:11051   */\n      swap3\n      swap2\n      pop\n      pop\n      jump\t// out\n        /* \"#utility.yul\":11057:11200   */\n    tag_138:\n        /* \"#utility.yul\":11114:11119   */\n      0x00\n        /* \"#utility.yul\":11145:11151   */\n      dup2\n        /* \"#utility.yul\":11139:11152   */\n      mload\n        /* \"#utility.yul\":11130:11152   */\n      swap1\n      pop\n        /* \"#utility.yul\":11161:11194   */\n      tag_286\n        /* \"#utility.yul\":11188:11193   */\n      dup2\n        /* \"#utility.yul\":11161:11194   */\n      tag_106\n      jump\t// in\n    tag_286:\n        /* \"#utility.yul\":11057:11200   */\n      swap3\n      swap2\n      pop\n      pop\n      jump\t// out\n        /* \"#utility.yul\":11206:11349   */\n    tag_139:\n        /* \"#utility.yul\":11263:11268   */\n      0x00\n        /* \"#utility.yul\":11294:11300   */\n      dup2\n        /* \"#utility.yul\":11288:11301   */\n      mload\n        /* \"#utility.yul\":11279:11301   */\n      swap1\n      pop\n        /* \"#utility.yul\":11310:11343   */\n      tag_288\n        /* \"#utility.yul\":11337:11342   */\n      dup2\n        /* \"#utility.yul\":11310:11343   */\n      tag_127\n      jump\t// in\n    tag_288:\n        /* \"#utility.yul\":11206:11349   */\n      swap3\n      swap2\n      pop\n      pop\n      jump\t// out\n        /* \"#utility.yul\":11355:11862   */\n    tag_80:\n        /* \"#utility.yul\":11434:11440   */\n      0x00\n        /* \"#utility.yul\":11442:11448   */\n      dup1\n        /* \"#utility.yul\":11491:11493   */\n      0x40\n        /* \"#utility.yul\":11479:11488   */\n      dup4\n        /* \"#utility.yul\":11470:11477   */\n      dup6\n        /* \"#utility.yul\":11466:11489   */\n      sub\n        /* \"#utility.yul\":11462:11494   */\n      slt\n        /* \"#utility.yul\":11459:11578   */\n      iszero\n      tag_290\n      jumpi\n        /* \"#utility.yul\":11497:11576   */\n      tag_291\n      tag_103\n      jump\t// in\n    tag_291:\n        /* \"#utility.yul\":11459:11578   */\n    tag_290:\n        /* \"#utility.yul\":11617:11618   */\n      0x00\n        /* \"#utility.yul\":11642:11706   */\n      tag_292\n        /* \"#utility.yul\":11698:11705   */\n      dup6\n        /* \"#utility.yul\":11689:11695   */\n      dup3\n        /* \"#utility.yul\":11678:11687   */\n      dup7\n        /* \"#utility.yul\":11674:11696   */\n      add\n        /* \"#utility.yul\":11642:11706   */\n      tag_138\n      jump\t// in\n    tag_292:\n        /* \"#utility.yul\":11632:11706   */\n      swap3\n      pop\n        /* \"#utility.yul\":11588:11716   */\n      pop\n        /* \"#utility.yul\":11755:11757   */\n      0x20\n        /* \"#utility.yul\":11781:11845   */\n      tag_293\n        /* \"#utility.yul\":11837:11844   */\n      dup6\n        /* \"#utility.yul\":11828:11834   */\n      dup3\n        /* \"#utility.yul\":11817:11826   */\n      dup7\n        /* \"#utility.yul\":11813:11835   */\n      add\n        /* \"#utility.yul\":11781:11845   */\n      tag_139\n      jump\t// in\n    tag_293:\n        /* \"#utility.yul\":11771:11845   */\n      swap2\n      pop\n        /* \"#utility.yul\":11726:11855   */\n      pop\n        /* \"#utility.yul\":11355:11862   */\n      swap3\n      pop\n      swap3\n      swap1\n      pop\n      jump\t// out\n        /* \"#utility.yul\":11868:12009   */\n    tag_140:\n        /* \"#utility.yul\":11917:11921   */\n      0x00\n        /* \"#utility.yul\":11940:11943   */\n      dup2\n        /* \"#utility.yul\":11932:11943   */\n      swap1\n      pop\n        /* \"#utility.yul\":11963:11966   */\n      dup2\n        /* \"#utility.yul\":11960:11961   */\n      0x00\n        /* \"#utility.yul\":11953:11967   */\n      mstore\n        /* \"#utility.yul\":11997:12001   */\n      0x20\n        /* \"#utility.yul\":11994:11995   */\n      0x00\n        /* \"#utility.yul\":11984:12002   */\n      keccak256\n        /* \"#utility.yul\":11976:12002   */\n      swap1\n      pop\n        /* \"#utility.yul\":11868:12009   */\n      swap2\n      swap1\n      pop\n      jump\t// out\n        /* \"#utility.yul\":12015:12108   */\n    tag_141:\n        /* \"#utility.yul\":12052:12058   */\n      0x00\n        /* \"#utility.yul\":12099:12101   */\n      0x20\n        /* \"#utility.yul\":12094:12096   */\n      0x1f\n        /* \"#utility.yul\":12087:12092   */\n      dup4\n        /* \"#utility.yul\":12083:12097   */\n      add\n        /* \"#utility.yul\":12079:12102   */\n      div\n        /* \"#utility.yul\":12069:12102   */\n      swap1\n      pop\n        /* \"#utility.yul\":12015:12108   */\n      swap2\n      swap1\n      pop\n      jump\t// out\n        /* \"#utility.yul\":12114:12221   */\n    tag_142:\n        /* \"#utility.yul\":12158:12166   */\n      0x00\n        /* \"#utility.yul\":12208:12213   */\n      dup3\n        /* \"#utility.yul\":12202:12206   */\n      dup3\n        /* \"#utility.yul\":12198:12214   */\n      shl\n        /* \"#utility.yul\":12177:12214   */\n      swap1\n      pop\n        /* \"#utility.yul\":12114:12221   */\n      swap3\n      swap2\n      pop\n      pop\n      jump\t// out\n        /* \"#utility.yul\":12227:12620   */\n    tag_143:\n        /* \"#utility.yul\":12296:12302   */\n      0x00\n        /* \"#utility.yul\":12346:12347   */\n      0x08\n        /* \"#utility.yul\":12334:12344   */\n      dup4\n        /* \"#utility.yul\":12330:12348   */\n      mul\n        /* \"#utility.yul\":12369:12466   */\n      tag_298\n        /* \"#utility.yul\":12399:12465   */\n      0xffffffffffffffffffffffffffffffffffffffffffffffffffffffffffffffff\n        /* \"#utility.yul\":12388:12397   */\n      dup3\n        /* \"#utility.yul\":12369:12466   */\n      tag_142\n      jump\t// in\n    tag_298:\n        /* \"#utility.yul\":12487:12526   */\n      tag_299\n        /* \"#utility.yul\":12517:12525   */\n      dup7\n        /* \"#utility.yul\":12506:12515   */\n      dup4\n        /* \"#utility.yul\":12487:12526   */\n      tag_142\n      jump\t// in\n    tag_299:\n        /* \"#utility.yul\":12475:12526   */\n      swap6\n      pop\n        /* \"#utility.yul\":12559:12563   */\n      dup1\n        /* \"#utility.yul\":12555:12564   */\n      not\n        /* \"#utility.yul\":12548:12553   */\n      dup5\n        /* \"#utility.yul\":12544:12565   */\n      and\n        /* \"#utility.yul\":12535:12565   */\n      swap4\n      pop\n        /* \"#utility.yul\":12608:12612   */\n      dup1\n        /* \"#utility.yul\":12598:12606   */\n      dup7\n        /* \"#utility.yul\":12594:12613   */\n      and\n        /* \"#utility.yul\":12587:12592   */\n      dup5\n        /* \"#utility.yul\":12584:12614   */\n      or\n        /* \"#utility.yul\":12574:12614   */\n      swap3\n      pop\n        /* \"#utility.yul\":12303:12620   */\n      pop\n      pop\n        /* \"#utility.yul\":12227:12620   */\n      swap4\n      swap3\n      pop\n      pop\n      pop\n      jump\t// out\n        /* \"#utility.yul\":12626:12768   */\n    tag_144:\n        /* \"#utility.yul\":12676:12685   */\n      0x00\n        /* \"#utility.yul\":12709:12762   */\n      tag_301\n        /* \"#utility.yul\":12727:12761   */\n      tag_302\n        /* \"#utility.yul\":12736:12760   */\n      tag_303\n        /* \"#utility.yul\":12754:12759   */\n      dup5\n        /* \"#utility.yul\":12736:12760   */\n      tag_105\n      jump\t// in\n    tag_303:\n        /* \"#utility.yul\":12727:12761   */\n      tag_129\n      jump\t// in\n    tag_302:\n        /* \"#utility.yul\":12709:12762   */\n      tag_105\n      jump\t// in\n    tag_301:\n        /* \"#utility.yul\":12696:12762   */\n      swap1\n      pop\n        /* \"#utility.yul\":12626:12768   */\n      swap2\n      swap1\n      pop\n      jump\t// out\n        /* \"#utility.yul\":12774:12849   */\n    tag_145:\n        /* \"#utility.yul\":12817:12820   */\n      0x00\n        /* \"#utility.yul\":12838:12843   */\n      dup2\n        /* \"#utility.yul\":12831:12843   */\n      swap1\n      pop\n        /* \"#utility.yul\":12774:12849   */\n      swap2\n      swap1\n      pop\n      jump\t// out\n        /* \"#utility.yul\":12855:13124   */\n    tag_146:\n        /* \"#utility.yul\":12965:13004   */\n      tag_306\n        /* \"#utility.yul\":12996:13003   */\n      dup4\n        /* \"#utility.yul\":12965:13004   */\n      tag_144\n      jump\t// in\n    tag_306:\n        /* \"#utility.yul\":13026:13117   */\n      tag_307\n        /* \"#utility.yul\":13075:13116   */\n      tag_308\n        /* \"#utility.yul\":13099:13115   */\n      dup3\n        /* \"#utility.yul\":13075:13116   */\n      tag_145\n      jump\t// in\n    tag_308:\n        /* \"#utility.yul\":13067:13073   */\n      dup5\n        /* \"#utility.yul\":13060:13064   */\n      dup5\n        /* \"#utility.yul\":13054:13065   */\n      sload\n        /* \"#utility.yul\":13026:13117   */\n      tag_143\n      jump\t// in\n    tag_307:\n        /* \"#utility.yul\":13020:13024   */\n      dup3\n        /* \"#utility.yul\":13013:13118   */\n      sstore\n        /* \"#utility.yul\":12931:13124   */\n      pop\n        /* \"#utility.yul\":12855:13124   */\n      pop\n      pop\n      pop\n      jump\t// out\n        /* \"#utility.yul\":13130:13203   */\n    tag_147:\n        /* \"#utility.yul\":13175:13178   */\n      0x00\n        /* \"#utility.yul\":13130:13203   */\n      swap1\n      jump\t// out\n        /* \"#utility.yul\":13209:13398   */\n    tag_148:\n        /* \"#utility.yul\":13286:13318   */\n      tag_311\n      tag_147\n      jump\t// in\n    tag_311:\n        /* \"#utility.yul\":13327:13392   */\n      tag_312\n        /* \"#utility.yul\":13385:13391   */\n      dup2\n        /* \"#utility.yul\":13377:13383   */\n      dup5\n        /* \"#utility.yul\":13371:13375   */\n      dup5\n        /* \"#utility.yul\":13327:13392   */\n      tag_146\n      jump\t// in\n    tag_312:\n        /* \"#utility.yul\":13262:13398   */\n      pop\n        /* \"#utility.yul\":13209:13398   */\n      pop\n      pop\n      jump\t// out\n        /* \"#utility.yul\":13404:13590   */\n    tag_149:\n        /* \"#utility.yul\":13464:13584   */\n    tag_314:\n        /* \"#utility.yul\":13481:13484   */\n      dup2\n        /* \"#utility.yul\":13474:13479   */\n      dup2\n        /* \"#utility.yul\":13471:13485   */\n      lt\n        /* \"#utility.yul\":13464:13584   */\n      iszero\n      tag_316\n      jumpi\n        /* \"#utility.yul\":13535:13574   */\n      tag_317\n        /* \"#utility.yul\":13572:13573   */\n      0x00\n        /* \"#utility.yul\":13565:13570   */\n      dup3\n        /* \"#utility.yul\":13535:13574   */\n      tag_148\n      jump\t// in\n    tag_317:\n        /* \"#utility.yul\":13508:13509   */\n      0x01\n        /* \"#utility.yul\":13501:13506   */\n      dup2\n        /* \"#utility.yul\":13497:13510   */\n      add\n        /* \"#utility.yul\":13488:13510   */\n      swap1\n      pop\n        /* \"#utility.yul\":13464:13584   */\n      jump(tag_314)\n    tag_316:\n        /* \"#utility.yul\":13404:13590   */\n      pop\n      pop\n      jump\t// out\n        /* \"#utility.yul\":13596:14139   */\n    tag_150:\n        /* \"#utility.yul\":13697:13699   */\n      0x1f\n        /* \"#utility.yul\":13692:13695   */\n      dup3\n        /* \"#utility.yul\":13689:13700   */\n      gt\n        /* \"#utility.yul\":13686:14132   */\n      iszero\n      tag_319\n      jumpi\n        /* \"#utility.yul\":13731:13769   */\n      tag_320\n        /* \"#utility.yul\":13763:13768   */\n      dup2\n        /* \"#utility.yul\":13731:13769   */\n      tag_140\n      jump\t// in\n    tag_320:\n        /* \"#utility.yul\":13815:13844   */\n      tag_321\n        /* \"#utility.yul\":13833:13843   */\n      dup5\n        /* \"#utility.yul\":13815:13844   */\n      tag_141\n      jump\t// in\n    tag_321:\n        /* \"#utility.yul\":13805:13813   */\n      dup2\n        /* \"#utility.yul\":13801:13845   */\n      add\n        /* \"#utility.yul\":13998:14000   */\n      0x20\n        /* \"#utility.yul\":13986:13996   */\n      dup6\n        /* \"#utility.yul\":13983:14001   */\n      lt\n        /* \"#utility.yul\":13980:14029   */\n      iszero\n      tag_322\n      jumpi\n        /* \"#utility.yul\":14019:14027   */\n      dup2\n        /* \"#utility.yul\":14004:14027   */\n      swap1\n      pop\n        /* \"#utility.yul\":13980:14029   */\n    tag_322:\n        /* \"#utility.yul\":14042:14122   */\n      tag_323\n        /* \"#utility.yul\":14098:14120   */\n      tag_324\n        /* \"#utility.yul\":14116:14119   */\n      dup6\n        /* \"#utility.yul\":14098:14120   */\n      tag_141\n      jump\t// in\n    tag_324:\n        /* \"#utility.yul\":14088:14096   */\n      dup4\n        /* \"#utility.yul\":14084:14121   */\n      add\n        /* \"#utility.yul\":14071:14082   */\n      dup3\n        /* \"#utility.yul\":14042:14122   */\n      tag_149\n      jump\t// in\n    tag_323:\n        /* \"#utility.yul\":13701:14132   */\n      pop\n      pop\n        /* \"#utility.yul\":13686:14132   */\n    tag_319:\n        /* \"#utility.yul\":13596:14139   */\n      pop\n      pop\n      pop\n      jump\t// out\n        /* \"#utility.yul\":14145:14262   */\n    tag_151:\n        /* \"#utility.yul\":14199:14207   */\n      0x00\n        /* \"#utility.yul\":14249:14254   */\n      dup3\n        /* \"#utility.yul\":14243:14247   */\n      dup3\n        /* \"#utility.yul\":14239:14255   */\n      shr\n        /* \"#utility.yul\":14218:14255   */\n      swap1\n      pop\n        /* \"#utility.yul\":14145:14262   */\n      swap3\n      swap2\n      pop\n      pop\n      jump\t// out\n        /* \"#utility.yul\":14268:14437   */\n    tag_152:\n        /* \"#utility.yul\":14312:14318   */\n      0x00\n        /* \"#utility.yul\":14345:14396   */\n      tag_327\n        /* \"#utility.yul\":14393:14394   */\n      0x00\n        /* \"#utility.yul\":14389:14395   */\n      not\n        /* \"#utility.yul\":14381:14386   */\n      dup5\n        /* \"#utility.yul\":14378:14379   */\n      0x08\n        /* \"#utility.yul\":14374:14387   */\n      mul\n        /* \"#utility.yul\":14345:14396   */\n      tag_151\n      jump\t// in\n    tag_327:\n        /* \"#utility.yul\":14341:14397   */\n      not\n        /* \"#utility.yul\":14426:14430   */\n      dup1\n        /* \"#utility.yul\":14420:14424   */\n      dup4\n        /* \"#utility.yul\":14416:14431   */\n      and\n        /* \"#utility.yul\":14406:14431   */\n      swap2\n      pop\n        /* \"#utility.yul\":14319:14437   */\n      pop\n        /* \"#utility.yul\":14268:14437   */\n      swap3\n      swap2\n      pop\n      pop\n      jump\t// out\n        /* \"#utility.yul\":14442:14737   */\n    tag_153:\n        /* \"#utility.yul\":14518:14522   */\n      0x00\n        /* \"#utility.yul\":14664:14693   */\n      tag_329\n        /* \"#utility.yul\":14689:14692   */\n      dup4\n        /* \"#utility.yul\":14683:14687   */\n      dup4\n        /* \"#utility.yul\":14664:14693   */\n      tag_152\n      jump\t// in\n    tag_329:\n        /* \"#utility.yul\":14656:14693   */\n      swap2\n      pop\n        /* \"#utility.yul\":14726:14729   */\n      dup3\n        /* \"#utility.yul\":14723:14724   */\n      0x02\n        /* \"#utility.yul\":14719:14730   */\n      mul\n        /* \"#utility.yul\":14713:14717   */\n      dup3\n        /* \"#utility.yul\":14710:14731   */\n      or\n        /* \"#utility.yul\":14702:14731   */\n      swap1\n      pop\n        /* \"#utility.yul\":14442:14737   */\n      swap3\n      swap2\n      pop\n      pop\n      jump\t// out\n        /* \"#utility.yul\":14742:16137   */\n    tag_97:\n        /* \"#utility.yul\":14859:14896   */\n      tag_331\n        /* \"#utility.yul\":14892:14895   */\n      dup3\n        /* \"#utility.yul\":14859:14896   */\n      tag_108\n      jump\t// in\n    tag_331:\n        /* \"#utility.yul\":14961:14979   */\n      0xffffffffffffffff\n        /* \"#utility.yul\":14953:14959   */\n      dup2\n        /* \"#utility.yul\":14950:14980   */\n      gt\n        /* \"#utility.yul\":14947:15003   */\n      iszero\n      tag_332\n      jumpi\n        /* \"#utility.yul\":14983:15001   */\n      tag_333\n      tag_120\n      jump\t// in\n    tag_333:\n        /* \"#utility.yul\":14947:15003   */\n    tag_332:\n        /* \"#utility.yul\":15027:15065   */\n      tag_334\n        /* \"#utility.yul\":15059:15063   */\n      dup3\n        /* \"#utility.yul\":15053:15064   */\n      sload\n        /* \"#utility.yul\":15027:15065   */\n      tag_49\n      jump\t// in\n    tag_334:\n        /* \"#utility.yul\":15112:15179   */\n      tag_335\n        /* \"#utility.yul\":15172:15178   */\n      dup3\n        /* \"#utility.yul\":15164:15170   */\n      dup3\n        /* \"#utility.yul\":15158:15162   */\n      dup6\n        /* \"#utility.yul\":15112:15179   */\n      tag_150\n      jump\t// in\n    tag_335:\n        /* \"#utility.yul\":15206:15207   */\n      0x00\n        /* \"#utility.yul\":15230:15234   */\n      0x20\n        /* \"#utility.yul\":15217:15234   */\n      swap1\n      pop\n        /* \"#utility.yul\":15262:15264   */\n      0x1f\n        /* \"#utility.yul\":15254:15260   */\n      dup4\n        /* \"#utility.yul\":15251:15265   */\n      gt\n        /* \"#utility.yul\":15279:15280   */\n      0x01\n        /* \"#utility.yul\":15274:15892   */\n      dup2\n      eq\n      tag_337\n      jumpi\n        /* \"#utility.yul\":15936:15937   */\n      0x00\n        /* \"#utility.yul\":15953:15959   */\n      dup5\n        /* \"#utility.yul\":15950:16027   */\n      iszero\n      tag_338\n      jumpi\n        /* \"#utility.yul\":16002:16011   */\n      dup3\n        /* \"#utility.yul\":15997:16000   */\n      dup8\n        /* \"#utility.yul\":15993:16012   */\n      add\n        /* \"#utility.yul\":15987:16013   */\n      mload\n        /* \"#utility.yul\":15978:16013   */\n      swap1\n      pop\n        /* \"#utility.yul\":15950:16027   */\n    tag_338:\n        /* \"#utility.yul\":16053:16120   */\n      tag_339\n        /* \"#utility.yul\":16113:16119   */\n      dup6\n        /* \"#utility.yul\":16106:16111   */\n      dup3\n        /* \"#utility.yul\":16053:16120   */\n      tag_153\n      jump\t// in\n    tag_339:\n        /* \"#utility.yul\":16047:16051   */\n      dup7\n        /* \"#utility.yul\":16040:16121   */\n      sstore\n        /* \"#utility.yul\":15909:16131   */\n      pop\n        /* \"#utility.yul\":15244:16131   */\n      jump(tag_336)\n        /* \"#utility.yul\":15274:15892   */\n    tag_337:\n        /* \"#utility.yul\":15326:15330   */\n      0x1f\n        /* \"#utility.yul\":15322:15331   */\n      not\n        /* \"#utility.yul\":15314:15320   */\n      dup5\n        /* \"#utility.yul\":15310:15332   */\n      and\n        /* \"#utility.yul\":15360:15397   */\n      tag_340\n        /* \"#utility.yul\":15392:15396   */\n      dup7\n        /* \"#utility.yul\":15360:15397   */\n      tag_140\n      jump\t// in\n    tag_340:\n        /* \"#utility.yul\":15419:15420   */\n      0x00\n        /* \"#utility.yul\":15433:15641   */\n    tag_341:\n        /* \"#utility.yul\":15447:15454   */\n      dup3\n        /* \"#utility.yul\":15444:15445   */\n      dup2\n        /* \"#utility.yul\":15441:15455   */\n      lt\n        /* \"#utility.yul\":15433:15641   */\n      iszero\n      tag_343\n      jumpi\n        /* \"#utility.yul\":15526:15535   */\n      dup5\n        /* \"#utility.yul\":15521:15524   */\n      dup10\n        /* \"#utility.yul\":15517:15536   */\n      add\n        /* \"#utility.yul\":15511:15537   */\n      mload\n        /* \"#utility.yul\":15503:15509   */\n      dup3\n        /* \"#utility.yul\":15496:15538   */\n      sstore\n        /* \"#utility.yul\":15577:15578   */\n      0x01\n        /* \"#utility.yul\":15569:15575   */\n      dup3\n        /* \"#utility.yul\":15565:15579   */\n      add\n        /* \"#utility.yul\":15555:15579   */\n      swap2\n      pop\n        /* \"#utility.yul\":15624:15626   */\n      0x20\n        /* \"#utility.yul\":15613:15622   */\n      dup6\n        /* \"#utility.yul\":15609:15627   */\n      add\n        /* \"#utility.yul\":15596:15627   */\n      swap5\n      pop\n        /* \"#utility.yul\":15470:15474   */\n      0x20\n        /* \"#utility.yul\":15467:15468   */\n      dup2\n        /* \"#utility.yul\":15463:15475   */\n      add\n        /* \"#utility.yul\":15458:15475   */\n      swap1\n      pop\n        /* \"#utility.yul\":15433:15641   */\n      jump(tag_341)\n    tag_343:\n        /* \"#utility.yul\":15669:15675   */\n      dup7\n        /* \"#utility.yul\":15660:15667   */\n      dup4\n        /* \"#utility.yul\":15657:15676   */\n      lt\n        /* \"#utility.yul\":15654:15833   */\n      iszero\n      tag_344\n      jumpi\n        /* \"#utility.yul\":15727:15736   */\n      dup5\n        /* \"#utility.yul\":15722:15725   */\n      dup10\n        /* \"#utility.yul\":15718:15737   */\n      add\n        /* \"#utility.yul\":15712:15738   */\n      mload\n        /* \"#utility.yul\":15770:15818   */\n      tag_345\n        /* \"#utility.yul\":15812:15816   */\n      0x1f\n        /* \"#utility.yul\":15804:15810   */\n      dup10\n        /* \"#utility.yul\":15800:15817   */\n      and\n        /* \"#utility.yul\":15789:15798   */\n      dup3\n        /* \"#utility.yul\":15770:15818   */\n      tag_152\n      jump\t// in\n    tag_345:\n        /* \"#utility.yul\":15762:15768   */\n      dup4\n        /* \"#utility.yul\":15755:15819   */\n      sstore\n        /* \"#utility.yul\":15677:15833   */\n      pop\n        /* \"#utility.yul\":15654:15833   */\n    tag_344:\n        /* \"#utility.yul\":15879:15880   */\n      0x01\n        /* \"#utility.yul\":15875:15876   */\n      0x02\n        /* \"#utility.yul\":15867:15873   */\n      dup9\n        /* \"#utility.yul\":15863:15877   */\n      mul\n        /* \"#utility.yul\":15859:15881   */\n      add\n        /* \"#utility.yul\":15853:15857   */\n      dup9\n        /* \"#utility.yul\":15846:15882   */\n      sstore\n        /* \"#utility.yul\":15281:15892   */\n      pop\n      pop\n      pop\n        /* \"#utility.yul\":15244:16131   */\n    tag_336:\n      pop\n        /* \"#utility.yul\":14834:16137   */\n      pop\n      pop\n      pop\n        /* \"#utility.yul\":14742:16137   */\n      pop\n      pop\n      jump\t// out\n        /* \"#utility.yul\":16143:16291   */\n    tag_154:\n        /* \"#utility.yul\":16245:16256   */\n      0x00\n        /* \"#utility.yul\":16282:16285   */\n      dup2\n        /* \"#utility.yul\":16267:16285   */\n      swap1\n      pop\n        /* \"#utility.yul\":16143:16291   */\n      swap3\n      swap2\n      pop\n      pop\n      jump\t// out\n        /* \"#utility.yul\":16297:16687   */\n    tag_155:\n        /* \"#utility.yul\":16403:16406   */\n      0x00\n        /* \"#utility.yul\":16431:16470   */\n      tag_348\n        /* \"#utility.yul\":16464:16469   */\n      dup3\n        /* \"#utility.yul\":16431:16470   */\n      tag_108\n      jump\t// in\n    tag_348:\n        /* \"#utility.yul\":16486:16575   */\n      tag_349\n        /* \"#utility.yul\":16568:16574   */\n      dup2\n        /* \"#utility.yul\":16563:16566   */\n      dup6\n        /* \"#utility.yul\":16486:16575   */\n      tag_154\n      jump\t// in\n    tag_349:\n        /* \"#utility.yul\":16479:16575   */\n      swap4\n      pop\n        /* \"#utility.yul\":16584:16649   */\n      tag_350\n        /* \"#utility.yul\":16642:16648   */\n      dup2\n        /* \"#utility.yul\":16637:16640   */\n      dup6\n        /* \"#utility.yul\":16630:16634   */\n      0x20\n        /* \"#utility.yul\":16623:16628   */\n      dup7\n        /* \"#utility.yul\":16619:16635   */\n      add\n        /* \"#utility.yul\":16584:16649   */\n      tag_110\n      jump\t// in\n    tag_350:\n        /* \"#utility.yul\":16674:16680   */\n      dup1\n        /* \"#utility.yul\":16669:16672   */\n      dup5\n        /* \"#utility.yul\":16665:16681   */\n      add\n        /* \"#utility.yul\":16658:16681   */\n      swap2\n      pop\n        /* \"#utility.yul\":16407:16687   */\n      pop\n        /* \"#utility.yul\":16297:16687   */\n      swap3\n      swap2\n      pop\n      pop\n      jump\t// out\n        /* \"#utility.yul\":16693:16968   */\n    tag_99:\n        /* \"#utility.yul\":16825:16828   */\n      0x00\n        /* \"#utility.yul\":16847:16942   */\n      tag_352\n        /* \"#utility.yul\":16938:16941   */\n      dup3\n        /* \"#utility.yul\":16929:16935   */\n      dup5\n        /* \"#utility.yul\":16847:16942   */\n      tag_155\n      jump\t// in\n    tag_352:\n        /* \"#utility.yul\":16840:16942   */\n      swap2\n      pop\n        /* \"#utility.yul\":16959:16962   */\n      dup2\n        /* \"#utility.yul\":16952:16962   */\n      swap1\n      pop\n        /* \"#utility.yul\":16693:16968   */\n      swap3\n      swap2\n      pop\n      pop\n      jump\t// out\n\n    auxdata: 0xa26469706673582212200b74300d163f9dc5fead020b8a9bf76bbe5ac986bd98a0e69bb447eaa4b274ad64736f6c63430008130033\n}\n",
				"bytecode": {
					"linkReferences": {},
					"object": "60a060405260006001553480156200001657600080fd5b5060405162001ef138038062001ef183398181016040528101906200003c91906200060f565b33600073ffffffffffffffffffffffffffffffffffffffff168173ffffffffffffffffffffffffffffffffffffffff1603620000b25760006040517f1e4fbdf7000000000000000000000000000000000000000000000000000000008152600401620000a9919062000652565b60405180910390fd5b620000c3816200010f60201b60201c565b508073ffffffffffffffffffffffffffffffffffffffff1660808173ffffffffffffffffffffffffffffffffffffffff168152505062000108620001d360201b60201c565b5062000d36565b60008060009054906101000a900473ffffffffffffffffffffffffffffffffffffffff169050816000806101000a81548173ffffffffffffffffffffffffffffffffffffffff021916908373ffffffffffffffffffffffffffffffffffffffff1602179055508173ffffffffffffffffffffffffffffffffffffffff168173ffffffffffffffffffffffffffffffffffffffff167f8be0079c531659141344cd1fd0a4f28419497f9722a3daafe3b4186f6b6457e060405160405180910390a35050565b620001e3620001e560201b60201c565b565b620001f56200024c60201b60201c565b600042905060006001600081546200020d90620006a8565b919050819055905060008060006200022a620002ee60201b60201c565b9250925092506200024584848484896200040860201b60201c565b5050505050565b6200025c6200056560201b60201c565b73ffffffffffffffffffffffffffffffffffffffff16620002826200056d60201b60201c565b73ffffffffffffffffffffffffffffffffffffffff1614620002ec57620002ae6200056560201b60201c565b6040517f118cdaa7000000000000000000000000000000000000000000000000000000008152600401620002e3919062000652565b60405180910390fd5b565b6060600080600060805173ffffffffffffffffffffffffffffffffffffffff1663944df0456040518163ffffffff1660e01b8152600401600060405180830381865afa15801562000343573d6000803e3d6000fd5b505050506040513d6000823e3d601f19601f820116820180604052508101906200036e919062000874565b905060008060805173ffffffffffffffffffffffffffffffffffffffff1663060a9aeb846040518263ffffffff1660e01b8152600401620003b0919062000922565b6040805180830381865afa158015620003cd573d6000803e3d6000fd5b505050506040513d601f19601f82011682018060405250810190620003f3919062000977565b91509150828282955095509550505050909192565b836003600087815260200190815260200160002060000190816200042d919062000bf4565b50826003600087815260200190815260200160002060010160006101000a81548173ffffffffffffffffffffffffffffffffffffffff021916908373ffffffffffffffffffffffffffffffffffffffff160217905550816003600087815260200190815260200160002060020160006101000a81548173ffffffffffffffffffffffffffffffffffffffff021916908373ffffffffffffffffffffffffffffffffffffffff1602179055508060036000878152602001908152602001600020600301819055508460028560405162000506919062000d1d565b908152602001604051809103902081905550808460405162000529919062000d1d565b6040518091039020867f0c19bb44b59579be200a2b8014813f052e8d673471778b18db3aae536dce7ba560405160405180910390a45050505050565b600033905090565b60008060009054906101000a900473ffffffffffffffffffffffffffffffffffffffff16905090565b6000604051905090565b600080fd5b600080fd5b600073ffffffffffffffffffffffffffffffffffffffff82169050919050565b6000620005d782620005aa565b9050919050565b620005e981620005ca565b8114620005f557600080fd5b50565b6000815190506200060981620005de565b92915050565b600060208284031215620006285762000627620005a0565b5b60006200063884828501620005f8565b91505092915050565b6200064c81620005ca565b82525050565b600060208201905062000669600083018462000641565b92915050565b7f4e487b7100000000000000000000000000000000000000000000000000000000600052601160045260246000fd5b6000819050919050565b6000620006b5826200069e565b91507fffffffffffffffffffffffffffffffffffffffffffffffffffffffffffffffff8203620006ea57620006e96200066f565b5b600182019050919050565b600080fd5b600080fd5b6000601f19601f8301169050919050565b7f4e487b7100000000000000000000000000000000000000000000000000000000600052604160045260246000fd5b6200074a82620006ff565b810181811067ffffffffffffffff821117156200076c576200076b62000710565b5b80604052505050565b60006200078162000596565b90506200078f82826200073f565b919050565b600067ffffffffffffffff821115620007b257620007b162000710565b5b620007bd82620006ff565b9050602081019050919050565b60005b83811015620007ea578082015181840152602081019050620007cd565b60008484015250505050565b60006200080d620008078462000794565b62000775565b9050828152602081018484840111156200082c576200082b620006fa565b5b62000839848285620007ca565b509392505050565b600082601f830112620008595762000858620006f5565b5b81516200086b848260208601620007f6565b91505092915050565b6000602082840312156200088d576200088c620005a0565b5b600082015167ffffffffffffffff811115620008ae57620008ad620005a5565b5b620008bc8482850162000841565b91505092915050565b600081519050919050565b600082825260208201905092915050565b6000620008ee82620008c5565b620008fa8185620008d0565b93506200090c818560208601620007ca565b6200091781620006ff565b840191505092915050565b600060208201905081810360008301526200093e8184620008e1565b905092915050565b62000951816200069e565b81146200095d57600080fd5b50565b600081519050620009718162000946565b92915050565b60008060408385031215620009915762000990620005a0565b5b6000620009a18582860162000960565b9250506020620009b485828601620005f8565b9150509250929050565b7f4e487b7100000000000000000000000000000000000000000000000000000000600052602260045260246000fd5b6000600282049050600182168062000a0657607f821691505b60208210810362000a1c5762000a1b620009be565b5b50919050565b60008190508160005260206000209050919050565b60006020601f8301049050919050565b600082821b905092915050565b60006008830262000a867fffffffffffffffffffffffffffffffffffffffffffffffffffffffffffffffff8262000a47565b62000a92868362000a47565b95508019841693508086168417925050509392505050565b6000819050919050565b600062000ad562000acf62000ac9846200069e565b62000aaa565b6200069e565b9050919050565b6000819050919050565b62000af18362000ab4565b62000b0962000b008262000adc565b84845462000a54565b825550505050565b600090565b62000b2062000b11565b62000b2d81848462000ae6565b505050565b5b8181101562000b555762000b4960008262000b16565b60018101905062000b33565b5050565b601f82111562000ba45762000b6e8162000a22565b62000b798462000a37565b8101602085101562000b89578190505b62000ba162000b988562000a37565b83018262000b32565b50505b505050565b600082821c905092915050565b600062000bc96000198460080262000ba9565b1980831691505092915050565b600062000be4838362000bb6565b9150826002028217905092915050565b62000bff82620008c5565b67ffffffffffffffff81111562000c1b5762000c1a62000710565b5b62000c278254620009ed565b62000c3482828562000b59565b600060209050601f83116001811462000c6c576000841562000c57578287015190505b62000c63858262000bd6565b86555062000cd3565b601f19841662000c7c8662000a22565b60005b8281101562000ca65784890151825560018201915060208501945060208101905062000c7f565b8683101562000cc6578489015162000cc2601f89168262000bb6565b8355505b6001600288020188555050505b505050505050565b600081905092915050565b600062000cf382620008c5565b62000cff818562000cdb565b935062000d11818560208601620007ca565b80840191505092915050565b600062000d2b828462000ce6565b915081905092915050565b60805161119162000d606000396000818161036801528181610401015261053501526111916000f3fe608060405234801561001057600080fd5b50600436106100935760003560e01c80638da5cb5b116100665780638da5cb5b14610123578063b66a0e5d14610141578063c5dc51d41461014b578063f2fde38b1461016b578063fc0c546a1461018757610093565b806302eb4b88146100985780632c7283c3146100cb578063715018a6146100fb5780638ce902f214610105575b600080fd5b6100b260048036038101906100ad919061084b565b6101a5565b6040516100c29493929190610967565b60405180910390f35b6100e560048036038101906100e09190610ae8565b61029d565b6040516100f29190610b31565b60405180910390f35b6101036102cb565b005b61010d6102df565b60405161011a9190610b31565b60405180910390f35b61012b6102e9565b6040516101389190610b4c565b60405180910390f35b610149610312565b005b61015361035f565b60405161016293929190610b67565b60405180910390f35b61018560048036038101906101809190610bd1565b6104ad565b005b61018f610533565b60405161019c9190610c5d565b60405180910390f35b60036020528060005260406000206000915090508060000180546101c890610ca7565b80601f01602080910402602001604051908101604052809291908181526020018280546101f490610ca7565b80156102415780601f1061021657610100808354040283529160200191610241565b820191906000526020600020905b81548152906001019060200180831161022457829003601f168201915b5050505050908060010160009054906101000a900473ffffffffffffffffffffffffffffffffffffffff16908060020160009054906101000a900473ffffffffffffffffffffffffffffffffffffffff16908060030154905084565b6002818051602081018201805184825260208301602085012081835280955050505050506000915090505481565b6102d3610557565b6102dd60006105de565b565b6000600154905090565b60008060009054906101000a900473ffffffffffffffffffffffffffffffffffffffff16905090565b61031a610557565b6000429050600060016000815461033090610d07565b9190508190559050600080600061034561035f565b92509250925061035884848484896106a2565b5050505050565b606060008060007f000000000000000000000000000000000000000000000000000000000000000073ffffffffffffffffffffffffffffffffffffffff1663944df0456040518163ffffffff1660e01b8152600401600060405180830381865afa1580156103d1573d6000803e3d6000fd5b505050506040513d6000823e3d601f19601f820116820180604052508101906103fa9190610dbf565b90506000807f000000000000000000000000000000000000000000000000000000000000000073ffffffffffffffffffffffffffffffffffffffff1663060a9aeb846040518263ffffffff1660e01b81526004016104589190610e08565b6040805180830381865afa158015610474573d6000803e3d6000fd5b505050506040513d601f19601f820116820180604052508101906104989190610e54565b91509150828282955095509550505050909192565b6104b5610557565b600073ffffffffffffffffffffffffffffffffffffffff168173ffffffffffffffffffffffffffffffffffffffff16036105275760006040517f1e4fbdf700000000000000000000000000000000000000000000000000000000815260040161051e9190610b4c565b60405180910390fd5b610530816105de565b50565b7f000000000000000000000000000000000000000000000000000000000000000081565b61055f6107f9565b73ffffffffffffffffffffffffffffffffffffffff1661057d6102e9565b73ffffffffffffffffffffffffffffffffffffffff16146105dc576105a06107f9565b6040517f118cdaa70000000000000000000000000000000000000000000000000000000081526004016105d39190610b4c565b60405180910390fd5b565b60008060009054906101000a900473ffffffffffffffffffffffffffffffffffffffff169050816000806101000a81548173ffffffffffffffffffffffffffffffffffffffff021916908373ffffffffffffffffffffffffffffffffffffffff1602179055508173ffffffffffffffffffffffffffffffffffffffff168173ffffffffffffffffffffffffffffffffffffffff167f8be0079c531659141344cd1fd0a4f28419497f9722a3daafe3b4186f6b6457e060405160405180910390a35050565b836003600087815260200190815260200160002060000190816106c59190611036565b50826003600087815260200190815260200160002060010160006101000a81548173ffffffffffffffffffffffffffffffffffffffff021916908373ffffffffffffffffffffffffffffffffffffffff160217905550816003600087815260200190815260200160002060020160006101000a81548173ffffffffffffffffffffffffffffffffffffffff021916908373ffffffffffffffffffffffffffffffffffffffff1602179055508060036000878152602001908152602001600020600301819055508460028560405161079c9190611144565b90815260200160405180910390208190555080846040516107bd9190611144565b6040518091039020867f0c19bb44b59579be200a2b8014813f052e8d673471778b18db3aae536dce7ba560405160405180910390a45050505050565b600033905090565b6000604051905090565b600080fd5b600080fd5b6000819050919050565b61082881610815565b811461083357600080fd5b50565b6000813590506108458161081f565b92915050565b6000602082840312156108615761086061080b565b5b600061086f84828501610836565b91505092915050565b600081519050919050565b600082825260208201905092915050565b60005b838110156108b2578082015181840152602081019050610897565b60008484015250505050565b6000601f19601f8301169050919050565b60006108da82610878565b6108e48185610883565b93506108f4818560208601610894565b6108fd816108be565b840191505092915050565b600073ffffffffffffffffffffffffffffffffffffffff82169050919050565b61093181610908565b82525050565b600061094282610908565b9050919050565b61095281610937565b82525050565b61096181610815565b82525050565b6000608082019050818103600083015261098181876108cf565b90506109906020830186610928565b61099d6040830185610949565b6109aa6060830184610958565b95945050505050565b600080fd5b600080fd5b7f4e487b7100000000000000000000000000000000000000000000000000000000600052604160045260246000fd5b6109f5826108be565b810181811067ffffffffffffffff82111715610a1457610a136109bd565b5b80604052505050565b6000610a27610801565b9050610a3382826109ec565b919050565b600067ffffffffffffffff821115610a5357610a526109bd565b5b610a5c826108be565b9050602081019050919050565b82818337600083830152505050565b6000610a8b610a8684610a38565b610a1d565b905082815260208101848484011115610aa757610aa66109b8565b5b610ab2848285610a69565b509392505050565b600082601f830112610acf57610ace6109b3565b5b8135610adf848260208601610a78565b91505092915050565b600060208284031215610afe57610afd61080b565b5b600082013567ffffffffffffffff811115610b1c57610b1b610810565b5b610b2884828501610aba565b91505092915050565b6000602082019050610b466000830184610958565b92915050565b6000602082019050610b616000830184610949565b92915050565b60006060820190508181036000830152610b8181866108cf565b9050610b906020830185610958565b610b9d6040830184610949565b949350505050565b610bae81610937565b8114610bb957600080fd5b50565b600081359050610bcb81610ba5565b92915050565b600060208284031215610be757610be661080b565b5b6000610bf584828501610bbc565b91505092915050565b6000819050919050565b6000610c23610c1e610c1984610908565b610bfe565b610908565b9050919050565b6000610c3582610c08565b9050919050565b6000610c4782610c2a565b9050919050565b610c5781610c3c565b82525050565b6000602082019050610c726000830184610c4e565b92915050565b7f4e487b7100000000000000000000000000000000000000000000000000000000600052602260045260246000fd5b60006002820490506001821680610cbf57607f821691505b602082108103610cd257610cd1610c78565b5b50919050565b7f4e487b7100000000000000000000000000000000000000000000000000000000600052601160045260246000fd5b6000610d1282610815565b91507fffffffffffffffffffffffffffffffffffffffffffffffffffffffffffffffff8203610d4457610d43610cd8565b5b600182019050919050565b6000610d62610d5d84610a38565b610a1d565b905082815260208101848484011115610d7e57610d7d6109b8565b5b610d89848285610894565b509392505050565b600082601f830112610da657610da56109b3565b5b8151610db6848260208601610d4f565b91505092915050565b600060208284031215610dd557610dd461080b565b5b600082015167ffffffffffffffff811115610df357610df2610810565b5b610dff84828501610d91565b91505092915050565b60006020820190508181036000830152610e2281846108cf565b905092915050565b600081519050610e398161081f565b92915050565b600081519050610e4e81610ba5565b92915050565b60008060408385031215610e6b57610e6a61080b565b5b6000610e7985828601610e2a565b9250506020610e8a85828601610e3f565b9150509250929050565b60008190508160005260206000209050919050565b60006020601f8301049050919050565b600082821b905092915050565b600060088302610ef67fffffffffffffffffffffffffffffffffffffffffffffffffffffffffffffffff82610eb9565b610f008683610eb9565b95508019841693508086168417925050509392505050565b6000610f33610f2e610f2984610815565b610bfe565b610815565b9050919050565b6000819050919050565b610f4d83610f18565b610f61610f5982610f3a565b848454610ec6565b825550505050565b600090565b610f76610f69565b610f81818484610f44565b505050565b5b81811015610fa557610f9a600082610f6e565b600181019050610f87565b5050565b601f821115610fea57610fbb81610e94565b610fc484610ea9565b81016020851015610fd3578190505b610fe7610fdf85610ea9565b830182610f86565b50505b505050565b600082821c905092915050565b600061100d60001984600802610fef565b1980831691505092915050565b60006110268383610ffc565b9150826002028217905092915050565b61103f82610878565b67ffffffffffffffff811115611058576110576109bd565b5b6110628254610ca7565b61106d828285610fa9565b600060209050601f8311600181146110a0576000841561108e578287015190505b611098858261101a565b865550611100565b601f1984166110ae86610e94565b60005b828110156110d6578489015182556001820191506020850194506020810190506110b1565b868310156110f357848901516110ef601f891682610ffc565b8355505b6001600288020188555050505b505050505050565b600081905092915050565b600061111e82610878565b6111288185611108565b9350611138818560208601610894565b80840191505092915050565b60006111508284611113565b91508190509291505056fea26469706673582212200b74300d163f9dc5fead020b8a9bf76bbe5ac986bd98a0e69bb447eaa4b274ad64736f6c63430008130033",
					"opcodes": "PUSH1 0xA0 PUSH1 0x40 MSTORE PUSH1 0x0 PUSH1 0x1 SSTORE CALLVALUE DUP1 ISZERO PUSH3 0x16 JUMPI PUSH1 0x0 DUP1 REVERT JUMPDEST POP PUSH1 0x40 MLOAD PUSH3 0x1EF1 CODESIZE SUB DUP1 PUSH3 0x1EF1 DUP4 CODECOPY DUP2 DUP2 ADD PUSH1 0x40 MSTORE DUP2 ADD SWAP1 PUSH3 0x3C SWAP2 SWAP1 PUSH3 0x60F JUMP JUMPDEST CALLER PUSH1 0x0 PUSH20 0xFFFFFFFFFFFFFFFFFFFFFFFFFFFFFFFFFFFFFFFF AND DUP2 PUSH20 0xFFFFFFFFFFFFFFFFFFFFFFFFFFFFFFFFFFFFFFFF AND SUB PUSH3 0xB2 JUMPI PUSH1 0x0 PUSH1 0x40 MLOAD PUSH32 0x1E4FBDF700000000000000000000000000000000000000000000000000000000 DUP2 MSTORE PUSH1 0x4 ADD PUSH3 0xA9 SWAP2 SWAP1 PUSH3 0x652 JUMP JUMPDEST PUSH1 0x40 MLOAD DUP1 SWAP2 SUB SWAP1 REVERT JUMPDEST PUSH3 0xC3 DUP2 PUSH3 0x10F PUSH1 0x20 SHL PUSH1 0x20 SHR JUMP JUMPDEST POP DUP1 PUSH20 0xFFFFFFFFFFFFFFFFFFFFFFFFFFFFFFFFFFFFFFFF AND PUSH1 0x80 DUP2 PUSH20 0xFFFFFFFFFFFFFFFFFFFFFFFFFFFFFFFFFFFFFFFF AND DUP2 MSTORE POP POP PUSH3 0x108 PUSH3 0x1D3 PUSH1 0x20 SHL PUSH1 0x20 SHR JUMP JUMPDEST POP PUSH3 0xD36 JUMP JUMPDEST PUSH1 0x0 DUP1 PUSH1 0x0 SWAP1 SLOAD SWAP1 PUSH2 0x100 EXP SWAP1 DIV PUSH20 0xFFFFFFFFFFFFFFFFFFFFFFFFFFFFFFFFFFFFFFFF AND SWAP1 POP DUP2 PUSH1 0x0 DUP1 PUSH2 0x100 EXP DUP2 SLOAD DUP2 PUSH20 0xFFFFFFFFFFFFFFFFFFFFFFFFFFFFFFFFFFFFFFFF MUL NOT AND SWAP1 DUP4 PUSH20 0xFFFFFFFFFFFFFFFFFFFFFFFFFFFFFFFFFFFFFFFF AND MUL OR SWAP1 SSTORE POP DUP2 PUSH20 0xFFFFFFFFFFFFFFFFFFFFFFFFFFFFFFFFFFFFFFFF AND DUP2 PUSH20 0xFFFFFFFFFFFFFFFFFFFFFFFFFFFFFFFFFFFFFFFF AND PUSH32 0x8BE0079C531659141344CD1FD0A4F28419497F9722A3DAAFE3B4186F6B6457E0 PUSH1 0x40 MLOAD PUSH1 0x40 MLOAD DUP1 SWAP2 SUB SWAP1 LOG3 POP POP JUMP JUMPDEST PUSH3 0x1E3 PUSH3 0x1E5 PUSH1 0x20 SHL PUSH1 0x20 SHR JUMP JUMPDEST JUMP JUMPDEST PUSH3 0x1F5 PUSH3 0x24C PUSH1 0x20 SHL PUSH1 0x20 SHR JUMP JUMPDEST PUSH1 0x0 TIMESTAMP SWAP1 POP PUSH1 0x0 PUSH1 0x1 PUSH1 0x0 DUP2 SLOAD PUSH3 0x20D SWAP1 PUSH3 0x6A8 JUMP JUMPDEST SWAP2 SWAP1 POP DUP2 SWAP1 SSTORE SWAP1 POP PUSH1 0x0 DUP1 PUSH1 0x0 PUSH3 0x22A PUSH3 0x2EE PUSH1 0x20 SHL PUSH1 0x20 SHR JUMP JUMPDEST SWAP3 POP SWAP3 POP SWAP3 POP PUSH3 0x245 DUP5 DUP5 DUP5 DUP5 DUP10 PUSH3 0x408 PUSH1 0x20 SHL PUSH1 0x20 SHR JUMP JUMPDEST POP POP POP POP POP JUMP JUMPDEST PUSH3 0x25C PUSH3 0x565 PUSH1 0x20 SHL PUSH1 0x20 SHR JUMP JUMPDEST PUSH20 0xFFFFFFFFFFFFFFFFFFFFFFFFFFFFFFFFFFFFFFFF AND PUSH3 0x282 PUSH3 0x56D PUSH1 0x20 SHL PUSH1 0x20 SHR JUMP JUMPDEST PUSH20 0xFFFFFFFFFFFFFFFFFFFFFFFFFFFFFFFFFFFFFFFF AND EQ PUSH3 0x2EC JUMPI PUSH3 0x2AE PUSH3 0x565 PUSH1 0x20 SHL PUSH1 0x20 SHR JUMP JUMPDEST PUSH1 0x40 MLOAD PUSH32 0x118CDAA700000000000000000000000000000000000000000000000000000000 DUP2 MSTORE PUSH1 0x4 ADD PUSH3 0x2E3 SWAP2 SWAP1 PUSH3 0x652 JUMP JUMPDEST PUSH1 0x40 MLOAD DUP1 SWAP2 SUB SWAP1 REVERT JUMPDEST JUMP JUMPDEST PUSH1 0x60 PUSH1 0x0 DUP1 PUSH1 0x0 PUSH1 0x80 MLOAD PUSH20 0xFFFFFFFFFFFFFFFFFFFFFFFFFFFFFFFFFFFFFFFF AND PUSH4 0x944DF045 PUSH1 0x40 MLOAD DUP2 PUSH4 0xFFFFFFFF AND PUSH1 0xE0 SHL DUP2 MSTORE PUSH1 0x4 ADD PUSH1 0x0 PUSH1 0x40 MLOAD DUP1 DUP4 SUB DUP2 DUP7 GAS STATICCALL ISZERO DUP1 ISZERO PUSH3 0x343 JUMPI RETURNDATASIZE PUSH1 0x0 DUP1 RETURNDATACOPY RETURNDATASIZE PUSH1 0x0 REVERT JUMPDEST POP POP POP POP PUSH1 0x40 MLOAD RETURNDATASIZE PUSH1 0x0 DUP3 RETURNDATACOPY RETURNDATASIZE PUSH1 0x1F NOT PUSH1 0x1F DUP3 ADD AND DUP3 ADD DUP1 PUSH1 0x40 MSTORE POP DUP2 ADD SWAP1 PUSH3 0x36E SWAP2 SWAP1 PUSH3 0x874 JUMP JUMPDEST SWAP1 POP PUSH1 0x0 DUP1 PUSH1 0x80 MLOAD PUSH20 0xFFFFFFFFFFFFFFFFFFFFFFFFFFFFFFFFFFFFFFFF AND PUSH4 0x60A9AEB DUP5 PUSH1 0x40 MLOAD DUP3 PUSH4 0xFFFFFFFF AND PUSH1 0xE0 SHL DUP2 MSTORE PUSH1 0x4 ADD PUSH3 0x3B0 SWAP2 SWAP1 PUSH3 0x922 JUMP JUMPDEST PUSH1 0x40 DUP1 MLOAD DUP1 DUP4 SUB DUP2 DUP7 GAS STATICCALL ISZERO DUP1 ISZERO PUSH3 0x3CD JUMPI RETURNDATASIZE PUSH1 0x0 DUP1 RETURNDATACOPY RETURNDATASIZE PUSH1 0x0 REVERT JUMPDEST POP POP POP POP PUSH1 0x40 MLOAD RETURNDATASIZE PUSH1 0x1F NOT PUSH1 0x1F DUP3 ADD AND DUP3 ADD DUP1 PUSH1 0x40 MSTORE POP DUP2 ADD SWAP1 PUSH3 0x3F3 SWAP2 SWAP1 PUSH3 0x977 JUMP JUMPDEST SWAP2 POP SWAP2 POP DUP3 DUP3 DUP3 SWAP6 POP SWAP6 POP SWAP6 POP POP POP POP SWAP1 SWAP2 SWAP3 JUMP JUMPDEST DUP4 PUSH1 0x3 PUSH1 0x0 DUP8 DUP2 MSTORE PUSH1 0x20 ADD SWAP1 DUP2 MSTORE PUSH1 0x20 ADD PUSH1 0x0 KECCAK256 PUSH1 0x0 ADD SWAP1 DUP2 PUSH3 0x42D SWAP2 SWAP1 PUSH3 0xBF4 JUMP JUMPDEST POP DUP3 PUSH1 0x3 PUSH1 0x0 DUP8 DUP2 MSTORE PUSH1 0x20 ADD SWAP1 DUP2 MSTORE PUSH1 0x20 ADD PUSH1 0x0 KECCAK256 PUSH1 0x1 ADD PUSH1 0x0 PUSH2 0x100 EXP DUP2 SLOAD DUP2 PUSH20 0xFFFFFFFFFFFFFFFFFFFFFFFFFFFFFFFFFFFFFFFF MUL NOT AND SWAP1 DUP4 PUSH20 0xFFFFFFFFFFFFFFFFFFFFFFFFFFFFFFFFFFFFFFFF AND MUL OR SWAP1 SSTORE POP DUP2 PUSH1 0x3 PUSH1 0x0 DUP8 DUP2 MSTORE PUSH1 0x20 ADD SWAP1 DUP2 MSTORE PUSH1 0x20 ADD PUSH1 0x0 KECCAK256 PUSH1 0x2 ADD PUSH1 0x0 PUSH2 0x100 EXP DUP2 SLOAD DUP2 PUSH20 0xFFFFFFFFFFFFFFFFFFFFFFFFFFFFFFFFFFFFFFFF MUL NOT AND SWAP1 DUP4 PUSH20 0xFFFFFFFFFFFFFFFFFFFFFFFFFFFFFFFFFFFFFFFF AND MUL OR SWAP1 SSTORE POP DUP1 PUSH1 0x3 PUSH1 0x0 DUP8 DUP2 MSTORE PUSH1 0x20 ADD SWAP1 DUP2 MSTORE PUSH1 0x20 ADD PUSH1 0x0 KECCAK256 PUSH1 0x3 ADD DUP2 SWAP1 SSTORE POP DUP5 PUSH1 0x2 DUP6 PUSH1 0x40 MLOAD PUSH3 0x506 SWAP2 SWAP1 PUSH3 0xD1D JUMP JUMPDEST SWAP1 DUP2 MSTORE PUSH1 0x20 ADD PUSH1 0x40 MLOAD DUP1 SWAP2 SUB SWAP1 KECCAK256 DUP2 SWAP1 SSTORE POP DUP1 DUP5 PUSH1 0x40 MLOAD PUSH3 0x529 SWAP2 SWAP1 PUSH3 0xD1D JUMP JUMPDEST PUSH1 0x40 MLOAD DUP1 SWAP2 SUB SWAP1 KECCAK256 DUP7 PUSH32 0xC19BB44B59579BE200A2B8014813F052E8D673471778B18DB3AAE536DCE7BA5 PUSH1 0x40 MLOAD PUSH1 0x40 MLOAD DUP1 SWAP2 SUB SWAP1 LOG4 POP POP POP POP POP JUMP JUMPDEST PUSH1 0x0 CALLER SWAP1 POP SWAP1 JUMP JUMPDEST PUSH1 0x0 DUP1 PUSH1 0x0 SWAP1 SLOAD SWAP1 PUSH2 0x100 EXP SWAP1 DIV PUSH20 0xFFFFFFFFFFFFFFFFFFFFFFFFFFFFFFFFFFFFFFFF AND SWAP1 POP SWAP1 JUMP JUMPDEST PUSH1 0x0 PUSH1 0x40 MLOAD SWAP1 POP SWAP1 JUMP JUMPDEST PUSH1 0x0 DUP1 REVERT JUMPDEST PUSH1 0x0 DUP1 REVERT JUMPDEST PUSH1 0x0 PUSH20 0xFFFFFFFFFFFFFFFFFFFFFFFFFFFFFFFFFFFFFFFF DUP3 AND SWAP1 POP SWAP2 SWAP1 POP JUMP JUMPDEST PUSH1 0x0 PUSH3 0x5D7 DUP3 PUSH3 0x5AA JUMP JUMPDEST SWAP1 POP SWAP2 SWAP1 POP JUMP JUMPDEST PUSH3 0x5E9 DUP2 PUSH3 0x5CA JUMP JUMPDEST DUP2 EQ PUSH3 0x5F5 JUMPI PUSH1 0x0 DUP1 REVERT JUMPDEST POP JUMP JUMPDEST PUSH1 0x0 DUP2 MLOAD SWAP1 POP PUSH3 0x609 DUP2 PUSH3 0x5DE JUMP JUMPDEST SWAP3 SWAP2 POP POP JUMP JUMPDEST PUSH1 0x0 PUSH1 0x20 DUP3 DUP5 SUB SLT ISZERO PUSH3 0x628 JUMPI PUSH3 0x627 PUSH3 0x5A0 JUMP JUMPDEST JUMPDEST PUSH1 0x0 PUSH3 0x638 DUP5 DUP3 DUP6 ADD PUSH3 0x5F8 JUMP JUMPDEST SWAP2 POP POP SWAP3 SWAP2 POP POP JUMP JUMPDEST PUSH3 0x64C DUP2 PUSH3 0x5CA JUMP JUMPDEST DUP3 MSTORE POP POP JUMP JUMPDEST PUSH1 0x0 PUSH1 0x20 DUP3 ADD SWAP1 POP PUSH3 0x669 PUSH1 0x0 DUP4 ADD DUP5 PUSH3 0x641 JUMP JUMPDEST SWAP3 SWAP2 POP POP JUMP JUMPDEST PUSH32 0x4E487B7100000000000000000000000000000000000000000000000000000000 PUSH1 0x0 MSTORE PUSH1 0x11 PUSH1 0x4 MSTORE PUSH1 0x24 PUSH1 0x0 REVERT JUMPDEST PUSH1 0x0 DUP2 SWAP1 POP SWAP2 SWAP1 POP JUMP JUMPDEST PUSH1 0x0 PUSH3 0x6B5 DUP3 PUSH3 0x69E JUMP JUMPDEST SWAP2 POP PUSH32 0xFFFFFFFFFFFFFFFFFFFFFFFFFFFFFFFFFFFFFFFFFFFFFFFFFFFFFFFFFFFFFFFF DUP3 SUB PUSH3 0x6EA JUMPI PUSH3 0x6E9 PUSH3 0x66F JUMP JUMPDEST JUMPDEST PUSH1 0x1 DUP3 ADD SWAP1 POP SWAP2 SWAP1 POP JUMP JUMPDEST PUSH1 0x0 DUP1 REVERT JUMPDEST PUSH1 0x0 DUP1 REVERT JUMPDEST PUSH1 0x0 PUSH1 0x1F NOT PUSH1 0x1F DUP4 ADD AND SWAP1 POP SWAP2 SWAP1 POP JUMP JUMPDEST PUSH32 0x4E487B7100000000000000000000000000000000000000000000000000000000 PUSH1 0x0 MSTORE PUSH1 0x41 PUSH1 0x4 MSTORE PUSH1 0x24 PUSH1 0x0 REVERT JUMPDEST PUSH3 0x74A DUP3 PUSH3 0x6FF JUMP JUMPDEST DUP2 ADD DUP2 DUP2 LT PUSH8 0xFFFFFFFFFFFFFFFF DUP3 GT OR ISZERO PUSH3 0x76C JUMPI PUSH3 0x76B PUSH3 0x710 JUMP JUMPDEST JUMPDEST DUP1 PUSH1 0x40 MSTORE POP POP POP JUMP JUMPDEST PUSH1 0x0 PUSH3 0x781 PUSH3 0x596 JUMP JUMPDEST SWAP1 POP PUSH3 0x78F DUP3 DUP3 PUSH3 0x73F JUMP JUMPDEST SWAP2 SWAP1 POP JUMP JUMPDEST PUSH1 0x0 PUSH8 0xFFFFFFFFFFFFFFFF DUP3 GT ISZERO PUSH3 0x7B2 JUMPI PUSH3 0x7B1 PUSH3 0x710 JUMP JUMPDEST JUMPDEST PUSH3 0x7BD DUP3 PUSH3 0x6FF JUMP JUMPDEST SWAP1 POP PUSH1 0x20 DUP2 ADD SWAP1 POP SWAP2 SWAP1 POP JUMP JUMPDEST PUSH1 0x0 JUMPDEST DUP4 DUP2 LT ISZERO PUSH3 0x7EA JUMPI DUP1 DUP3 ADD MLOAD DUP2 DUP5 ADD MSTORE PUSH1 0x20 DUP2 ADD SWAP1 POP PUSH3 0x7CD JUMP JUMPDEST PUSH1 0x0 DUP5 DUP5 ADD MSTORE POP POP POP POP JUMP JUMPDEST PUSH1 0x0 PUSH3 0x80D PUSH3 0x807 DUP5 PUSH3 0x794 JUMP JUMPDEST PUSH3 0x775 JUMP JUMPDEST SWAP1 POP DUP3 DUP2 MSTORE PUSH1 0x20 DUP2 ADD DUP5 DUP5 DUP5 ADD GT ISZERO PUSH3 0x82C JUMPI PUSH3 0x82B PUSH3 0x6FA JUMP JUMPDEST JUMPDEST PUSH3 0x839 DUP5 DUP3 DUP6 PUSH3 0x7CA JUMP JUMPDEST POP SWAP4 SWAP3 POP POP POP JUMP JUMPDEST PUSH1 0x0 DUP3 PUSH1 0x1F DUP4 ADD SLT PUSH3 0x859 JUMPI PUSH3 0x858 PUSH3 0x6F5 JUMP JUMPDEST JUMPDEST DUP2 MLOAD PUSH3 0x86B DUP5 DUP3 PUSH1 0x20 DUP7 ADD PUSH3 0x7F6 JUMP JUMPDEST SWAP2 POP POP SWAP3 SWAP2 POP POP JUMP JUMPDEST PUSH1 0x0 PUSH1 0x20 DUP3 DUP5 SUB SLT ISZERO PUSH3 0x88D JUMPI PUSH3 0x88C PUSH3 0x5A0 JUMP JUMPDEST JUMPDEST PUSH1 0x0 DUP3 ADD MLOAD PUSH8 0xFFFFFFFFFFFFFFFF DUP2 GT ISZERO PUSH3 0x8AE JUMPI PUSH3 0x8AD PUSH3 0x5A5 JUMP JUMPDEST JUMPDEST PUSH3 0x8BC DUP5 DUP3 DUP6 ADD PUSH3 0x841 JUMP JUMPDEST SWAP2 POP POP SWAP3 SWAP2 POP POP JUMP JUMPDEST PUSH1 0x0 DUP2 MLOAD SWAP1 POP SWAP2 SWAP1 POP JUMP JUMPDEST PUSH1 0x0 DUP3 DUP3 MSTORE PUSH1 0x20 DUP3 ADD SWAP1 POP SWAP3 SWAP2 POP POP JUMP JUMPDEST PUSH1 0x0 PUSH3 0x8EE DUP3 PUSH3 0x8C5 JUMP JUMPDEST PUSH3 0x8FA DUP2 DUP6 PUSH3 0x8D0 JUMP JUMPDEST SWAP4 POP PUSH3 0x90C DUP2 DUP6 PUSH1 0x20 DUP7 ADD PUSH3 0x7CA JUMP JUMPDEST PUSH3 0x917 DUP2 PUSH3 0x6FF JUMP JUMPDEST DUP5 ADD SWAP2 POP POP SWAP3 SWAP2 POP POP JUMP JUMPDEST PUSH1 0x0 PUSH1 0x20 DUP3 ADD SWAP1 POP DUP2 DUP2 SUB PUSH1 0x0 DUP4 ADD MSTORE PUSH3 0x93E DUP2 DUP5 PUSH3 0x8E1 JUMP JUMPDEST SWAP1 POP SWAP3 SWAP2 POP POP JUMP JUMPDEST PUSH3 0x951 DUP2 PUSH3 0x69E JUMP JUMPDEST DUP2 EQ PUSH3 0x95D JUMPI PUSH1 0x0 DUP1 REVERT JUMPDEST POP JUMP JUMPDEST PUSH1 0x0 DUP2 MLOAD SWAP1 POP PUSH3 0x971 DUP2 PUSH3 0x946 JUMP JUMPDEST SWAP3 SWAP2 POP POP JUMP JUMPDEST PUSH1 0x0 DUP1 PUSH1 0x40 DUP4 DUP6 SUB SLT ISZERO PUSH3 0x991 JUMPI PUSH3 0x990 PUSH3 0x5A0 JUMP JUMPDEST JUMPDEST PUSH1 0x0 PUSH3 0x9A1 DUP6 DUP3 DUP7 ADD PUSH3 0x960 JUMP JUMPDEST SWAP3 POP POP PUSH1 0x20 PUSH3 0x9B4 DUP6 DUP3 DUP7 ADD PUSH3 0x5F8 JUMP JUMPDEST SWAP2 POP POP SWAP3 POP SWAP3 SWAP1 POP JUMP JUMPDEST PUSH32 0x4E487B7100000000000000000000000000000000000000000000000000000000 PUSH1 0x0 MSTORE PUSH1 0x22 PUSH1 0x4 MSTORE PUSH1 0x24 PUSH1 0x0 REVERT JUMPDEST PUSH1 0x0 PUSH1 0x2 DUP3 DIV SWAP1 POP PUSH1 0x1 DUP3 AND DUP1 PUSH3 0xA06 JUMPI PUSH1 0x7F DUP3 AND SWAP2 POP JUMPDEST PUSH1 0x20 DUP3 LT DUP2 SUB PUSH3 0xA1C JUMPI PUSH3 0xA1B PUSH3 0x9BE JUMP JUMPDEST JUMPDEST POP SWAP2 SWAP1 POP JUMP JUMPDEST PUSH1 0x0 DUP2 SWAP1 POP DUP2 PUSH1 0x0 MSTORE PUSH1 0x20 PUSH1 0x0 KECCAK256 SWAP1 POP SWAP2 SWAP1 POP JUMP JUMPDEST PUSH1 0x0 PUSH1 0x20 PUSH1 0x1F DUP4 ADD DIV SWAP1 POP SWAP2 SWAP1 POP JUMP JUMPDEST PUSH1 0x0 DUP3 DUP3 SHL SWAP1 POP SWAP3 SWAP2 POP POP JUMP JUMPDEST PUSH1 0x0 PUSH1 0x8 DUP4 MUL PUSH3 0xA86 PUSH32 0xFFFFFFFFFFFFFFFFFFFFFFFFFFFFFFFFFFFFFFFFFFFFFFFFFFFFFFFFFFFFFFFF DUP3 PUSH3 0xA47 JUMP JUMPDEST PUSH3 0xA92 DUP7 DUP4 PUSH3 0xA47 JUMP JUMPDEST SWAP6 POP DUP1 NOT DUP5 AND SWAP4 POP DUP1 DUP7 AND DUP5 OR SWAP3 POP POP POP SWAP4 SWAP3 POP POP POP JUMP JUMPDEST PUSH1 0x0 DUP2 SWAP1 POP SWAP2 SWAP1 POP JUMP JUMPDEST PUSH1 0x0 PUSH3 0xAD5 PUSH3 0xACF PUSH3 0xAC9 DUP5 PUSH3 0x69E JUMP JUMPDEST PUSH3 0xAAA JUMP JUMPDEST PUSH3 0x69E JUMP JUMPDEST SWAP1 POP SWAP2 SWAP1 POP JUMP JUMPDEST PUSH1 0x0 DUP2 SWAP1 POP SWAP2 SWAP1 POP JUMP JUMPDEST PUSH3 0xAF1 DUP4 PUSH3 0xAB4 JUMP JUMPDEST PUSH3 0xB09 PUSH3 0xB00 DUP3 PUSH3 0xADC JUMP JUMPDEST DUP5 DUP5 SLOAD PUSH3 0xA54 JUMP JUMPDEST DUP3 SSTORE POP POP POP POP JUMP JUMPDEST PUSH1 0x0 SWAP1 JUMP JUMPDEST PUSH3 0xB20 PUSH3 0xB11 JUMP JUMPDEST PUSH3 0xB2D DUP2 DUP5 DUP5 PUSH3 0xAE6 JUMP JUMPDEST POP POP POP JUMP JUMPDEST JUMPDEST DUP2 DUP2 LT ISZERO PUSH3 0xB55 JUMPI PUSH3 0xB49 PUSH1 0x0 DUP3 PUSH3 0xB16 JUMP JUMPDEST PUSH1 0x1 DUP2 ADD SWAP1 POP PUSH3 0xB33 JUMP JUMPDEST POP POP JUMP JUMPDEST PUSH1 0x1F DUP3 GT ISZERO PUSH3 0xBA4 JUMPI PUSH3 0xB6E DUP2 PUSH3 0xA22 JUMP JUMPDEST PUSH3 0xB79 DUP5 PUSH3 0xA37 JUMP JUMPDEST DUP2 ADD PUSH1 0x20 DUP6 LT ISZERO PUSH3 0xB89 JUMPI DUP2 SWAP1 POP JUMPDEST PUSH3 0xBA1 PUSH3 0xB98 DUP6 PUSH3 0xA37 JUMP JUMPDEST DUP4 ADD DUP3 PUSH3 0xB32 JUMP JUMPDEST POP POP JUMPDEST POP POP POP JUMP JUMPDEST PUSH1 0x0 DUP3 DUP3 SHR SWAP1 POP SWAP3 SWAP2 POP POP JUMP JUMPDEST PUSH1 0x0 PUSH3 0xBC9 PUSH1 0x0 NOT DUP5 PUSH1 0x8 MUL PUSH3 0xBA9 JUMP JUMPDEST NOT DUP1 DUP4 AND SWAP2 POP POP SWAP3 SWAP2 POP POP JUMP JUMPDEST PUSH1 0x0 PUSH3 0xBE4 DUP4 DUP4 PUSH3 0xBB6 JUMP JUMPDEST SWAP2 POP DUP3 PUSH1 0x2 MUL DUP3 OR SWAP1 POP SWAP3 SWAP2 POP POP JUMP JUMPDEST PUSH3 0xBFF DUP3 PUSH3 0x8C5 JUMP JUMPDEST PUSH8 0xFFFFFFFFFFFFFFFF DUP2 GT ISZERO PUSH3 0xC1B JUMPI PUSH3 0xC1A PUSH3 0x710 JUMP JUMPDEST JUMPDEST PUSH3 0xC27 DUP3 SLOAD PUSH3 0x9ED JUMP JUMPDEST PUSH3 0xC34 DUP3 DUP3 DUP6 PUSH3 0xB59 JUMP JUMPDEST PUSH1 0x0 PUSH1 0x20 SWAP1 POP PUSH1 0x1F DUP4 GT PUSH1 0x1 DUP2 EQ PUSH3 0xC6C JUMPI PUSH1 0x0 DUP5 ISZERO PUSH3 0xC57 JUMPI DUP3 DUP8 ADD MLOAD SWAP1 POP JUMPDEST PUSH3 0xC63 DUP6 DUP3 PUSH3 0xBD6 JUMP JUMPDEST DUP7 SSTORE POP PUSH3 0xCD3 JUMP JUMPDEST PUSH1 0x1F NOT DUP5 AND PUSH3 0xC7C DUP7 PUSH3 0xA22 JUMP JUMPDEST PUSH1 0x0 JUMPDEST DUP3 DUP2 LT ISZERO PUSH3 0xCA6 JUMPI DUP5 DUP10 ADD MLOAD DUP3 SSTORE PUSH1 0x1 DUP3 ADD SWAP2 POP PUSH1 0x20 DUP6 ADD SWAP5 POP PUSH1 0x20 DUP2 ADD SWAP1 POP PUSH3 0xC7F JUMP JUMPDEST DUP7 DUP4 LT ISZERO PUSH3 0xCC6 JUMPI DUP5 DUP10 ADD MLOAD PUSH3 0xCC2 PUSH1 0x1F DUP10 AND DUP3 PUSH3 0xBB6 JUMP JUMPDEST DUP4 SSTORE POP JUMPDEST PUSH1 0x1 PUSH1 0x2 DUP9 MUL ADD DUP9 SSTORE POP POP POP JUMPDEST POP POP POP POP POP POP JUMP JUMPDEST PUSH1 0x0 DUP2 SWAP1 POP SWAP3 SWAP2 POP POP JUMP JUMPDEST PUSH1 0x0 PUSH3 0xCF3 DUP3 PUSH3 0x8C5 JUMP JUMPDEST PUSH3 0xCFF DUP2 DUP6 PUSH3 0xCDB JUMP JUMPDEST SWAP4 POP PUSH3 0xD11 DUP2 DUP6 PUSH1 0x20 DUP7 ADD PUSH3 0x7CA JUMP JUMPDEST DUP1 DUP5 ADD SWAP2 POP POP SWAP3 SWAP2 POP POP JUMP JUMPDEST PUSH1 0x0 PUSH3 0xD2B DUP3 DUP5 PUSH3 0xCE6 JUMP JUMPDEST SWAP2 POP DUP2 SWAP1 POP SWAP3 SWAP2 POP POP JUMP JUMPDEST PUSH1 0x80 MLOAD PUSH2 0x1191 PUSH3 0xD60 PUSH1 0x0 CODECOPY PUSH1 0x0 DUP2 DUP2 PUSH2 0x368 ADD MSTORE DUP2 DUP2 PUSH2 0x401 ADD MSTORE PUSH2 0x535 ADD MSTORE PUSH2 0x1191 PUSH1 0x0 RETURN INVALID PUSH1 0x80 PUSH1 0x40 MSTORE CALLVALUE DUP1 ISZERO PUSH2 0x10 JUMPI PUSH1 0x0 DUP1 REVERT JUMPDEST POP PUSH1 0x4 CALLDATASIZE LT PUSH2 0x93 JUMPI PUSH1 0x0 CALLDATALOAD PUSH1 0xE0 SHR DUP1 PUSH4 0x8DA5CB5B GT PUSH2 0x66 JUMPI DUP1 PUSH4 0x8DA5CB5B EQ PUSH2 0x123 JUMPI DUP1 PUSH4 0xB66A0E5D EQ PUSH2 0x141 JUMPI DUP1 PUSH4 0xC5DC51D4 EQ PUSH2 0x14B JUMPI DUP1 PUSH4 0xF2FDE38B EQ PUSH2 0x16B JUMPI DUP1 PUSH4 0xFC0C546A EQ PUSH2 0x187 JUMPI PUSH2 0x93 JUMP JUMPDEST DUP1 PUSH4 0x2EB4B88 EQ PUSH2 0x98 JUMPI DUP1 PUSH4 0x2C7283C3 EQ PUSH2 0xCB JUMPI DUP1 PUSH4 0x715018A6 EQ PUSH2 0xFB JUMPI DUP1 PUSH4 0x8CE902F2 EQ PUSH2 0x105 JUMPI JUMPDEST PUSH1 0x0 DUP1 REVERT JUMPDEST PUSH2 0xB2 PUSH1 0x4 DUP1 CALLDATASIZE SUB DUP2 ADD SWAP1 PUSH2 0xAD SWAP2 SWAP1 PUSH2 0x84B JUMP JUMPDEST PUSH2 0x1A5 JUMP JUMPDEST PUSH1 0x40 MLOAD PUSH2 0xC2 SWAP5 SWAP4 SWAP3 SWAP2 SWAP1 PUSH2 0x967 JUMP JUMPDEST PUSH1 0x40 MLOAD DUP1 SWAP2 SUB SWAP1 RETURN JUMPDEST PUSH2 0xE5 PUSH1 0x4 DUP1 CALLDATASIZE SUB DUP2 ADD SWAP1 PUSH2 0xE0 SWAP2 SWAP1 PUSH2 0xAE8 JUMP JUMPDEST PUSH2 0x29D JUMP JUMPDEST PUSH1 0x40 MLOAD PUSH2 0xF2 SWAP2 SWAP1 PUSH2 0xB31 JUMP JUMPDEST PUSH1 0x40 MLOAD DUP1 SWAP2 SUB SWAP1 RETURN JUMPDEST PUSH2 0x103 PUSH2 0x2CB JUMP JUMPDEST STOP JUMPDEST PUSH2 0x10D PUSH2 0x2DF JUMP JUMPDEST PUSH1 0x40 MLOAD PUSH2 0x11A SWAP2 SWAP1 PUSH2 0xB31 JUMP JUMPDEST PUSH1 0x40 MLOAD DUP1 SWAP2 SUB SWAP1 RETURN JUMPDEST PUSH2 0x12B PUSH2 0x2E9 JUMP JUMPDEST PUSH1 0x40 MLOAD PUSH2 0x138 SWAP2 SWAP1 PUSH2 0xB4C JUMP JUMPDEST PUSH1 0x40 MLOAD DUP1 SWAP2 SUB SWAP1 RETURN JUMPDEST PUSH2 0x149 PUSH2 0x312 JUMP JUMPDEST STOP JUMPDEST PUSH2 0x153 PUSH2 0x35F JUMP JUMPDEST PUSH1 0x40 MLOAD PUSH2 0x162 SWAP4 SWAP3 SWAP2 SWAP1 PUSH2 0xB67 JUMP JUMPDEST PUSH1 0x40 MLOAD DUP1 SWAP2 SUB SWAP1 RETURN JUMPDEST PUSH2 0x185 PUSH1 0x4 DUP1 CALLDATASIZE SUB DUP2 ADD SWAP1 PUSH2 0x180 SWAP2 SWAP1 PUSH2 0xBD1 JUMP JUMPDEST PUSH2 0x4AD JUMP JUMPDEST STOP JUMPDEST PUSH2 0x18F PUSH2 0x533 JUMP JUMPDEST PUSH1 0x40 MLOAD PUSH2 0x19C SWAP2 SWAP1 PUSH2 0xC5D JUMP JUMPDEST PUSH1 0x40 MLOAD DUP1 SWAP2 SUB SWAP1 RETURN JUMPDEST PUSH1 0x3 PUSH1 0x20 MSTORE DUP1 PUSH1 0x0 MSTORE PUSH1 0x40 PUSH1 0x0 KECCAK256 PUSH1 0x0 SWAP2 POP SWAP1 POP DUP1 PUSH1 0x0 ADD DUP1 SLOAD PUSH2 0x1C8 SWAP1 PUSH2 0xCA7 JUMP JUMPDEST DUP1 PUSH1 0x1F ADD PUSH1 0x20 DUP1 SWAP2 DIV MUL PUSH1 0x20 ADD PUSH1 0x40 MLOAD SWAP1 DUP2 ADD PUSH1 0x40 MSTORE DUP1 SWAP3 SWAP2 SWAP1 DUP2 DUP2 MSTORE PUSH1 0x20 ADD DUP3 DUP1 SLOAD PUSH2 0x1F4 SWAP1 PUSH2 0xCA7 JUMP JUMPDEST DUP1 ISZERO PUSH2 0x241 JUMPI DUP1 PUSH1 0x1F LT PUSH2 0x216 JUMPI PUSH2 0x100 DUP1 DUP4 SLOAD DIV MUL DUP4 MSTORE SWAP2 PUSH1 0x20 ADD SWAP2 PUSH2 0x241 JUMP JUMPDEST DUP3 ADD SWAP2 SWAP1 PUSH1 0x0 MSTORE PUSH1 0x20 PUSH1 0x0 KECCAK256 SWAP1 JUMPDEST DUP2 SLOAD DUP2 MSTORE SWAP1 PUSH1 0x1 ADD SWAP1 PUSH1 0x20 ADD DUP1 DUP4 GT PUSH2 0x224 JUMPI DUP3 SWAP1 SUB PUSH1 0x1F AND DUP3 ADD SWAP2 JUMPDEST POP POP POP POP POP SWAP1 DUP1 PUSH1 0x1 ADD PUSH1 0x0 SWAP1 SLOAD SWAP1 PUSH2 0x100 EXP SWAP1 DIV PUSH20 0xFFFFFFFFFFFFFFFFFFFFFFFFFFFFFFFFFFFFFFFF AND SWAP1 DUP1 PUSH1 0x2 ADD PUSH1 0x0 SWAP1 SLOAD SWAP1 PUSH2 0x100 EXP SWAP1 DIV PUSH20 0xFFFFFFFFFFFFFFFFFFFFFFFFFFFFFFFFFFFFFFFF AND SWAP1 DUP1 PUSH1 0x3 ADD SLOAD SWAP1 POP DUP5 JUMP JUMPDEST PUSH1 0x2 DUP2 DUP1 MLOAD PUSH1 0x20 DUP2 ADD DUP3 ADD DUP1 MLOAD DUP5 DUP3 MSTORE PUSH1 0x20 DUP4 ADD PUSH1 0x20 DUP6 ADD KECCAK256 DUP2 DUP4 MSTORE DUP1 SWAP6 POP POP POP POP POP POP PUSH1 0x0 SWAP2 POP SWAP1 POP SLOAD DUP2 JUMP JUMPDEST PUSH2 0x2D3 PUSH2 0x557 JUMP JUMPDEST PUSH2 0x2DD PUSH1 0x0 PUSH2 0x5DE JUMP JUMPDEST JUMP JUMPDEST PUSH1 0x0 PUSH1 0x1 SLOAD SWAP1 POP SWAP1 JUMP JUMPDEST PUSH1 0x0 DUP1 PUSH1 0x0 SWAP1 SLOAD SWAP1 PUSH2 0x100 EXP SWAP1 DIV PUSH20 0xFFFFFFFFFFFFFFFFFFFFFFFFFFFFFFFFFFFFFFFF AND SWAP1 POP SWAP1 JUMP JUMPDEST PUSH2 0x31A PUSH2 0x557 JUMP JUMPDEST PUSH1 0x0 TIMESTAMP SWAP1 POP PUSH1 0x0 PUSH1 0x1 PUSH1 0x0 DUP2 SLOAD PUSH2 0x330 SWAP1 PUSH2 0xD07 JUMP JUMPDEST SWAP2 SWAP1 POP DUP2 SWAP1 SSTORE SWAP1 POP PUSH1 0x0 DUP1 PUSH1 0x0 PUSH2 0x345 PUSH2 0x35F JUMP JUMPDEST SWAP3 POP SWAP3 POP SWAP3 POP PUSH2 0x358 DUP5 DUP5 DUP5 DUP5 DUP10 PUSH2 0x6A2 JUMP JUMPDEST POP POP POP POP POP JUMP JUMPDEST PUSH1 0x60 PUSH1 0x0 DUP1 PUSH1 0x0 PUSH32 0x0 PUSH20 0xFFFFFFFFFFFFFFFFFFFFFFFFFFFFFFFFFFFFFFFF AND PUSH4 0x944DF045 PUSH1 0x40 MLOAD DUP2 PUSH4 0xFFFFFFFF AND PUSH1 0xE0 SHL DUP2 MSTORE PUSH1 0x4 ADD PUSH1 0x0 PUSH1 0x40 MLOAD DUP1 DUP4 SUB DUP2 DUP7 GAS STATICCALL ISZERO DUP1 ISZERO PUSH2 0x3D1 JUMPI RETURNDATASIZE PUSH1 0x0 DUP1 RETURNDATACOPY RETURNDATASIZE PUSH1 0x0 REVERT JUMPDEST POP POP POP POP PUSH1 0x40 MLOAD RETURNDATASIZE PUSH1 0x0 DUP3 RETURNDATACOPY RETURNDATASIZE PUSH1 0x1F NOT PUSH1 0x1F DUP3 ADD AND DUP3 ADD DUP1 PUSH1 0x40 MSTORE POP DUP2 ADD SWAP1 PUSH2 0x3FA SWAP2 SWAP1 PUSH2 0xDBF JUMP JUMPDEST SWAP1 POP PUSH1 0x0 DUP1 PUSH32 0x0 PUSH20 0xFFFFFFFFFFFFFFFFFFFFFFFFFFFFFFFFFFFFFFFF AND PUSH4 0x60A9AEB DUP5 PUSH1 0x40 MLOAD DUP3 PUSH4 0xFFFFFFFF AND PUSH1 0xE0 SHL DUP2 MSTORE PUSH1 0x4 ADD PUSH2 0x458 SWAP2 SWAP1 PUSH2 0xE08 JUMP JUMPDEST PUSH1 0x40 DUP1 MLOAD DUP1 DUP4 SUB DUP2 DUP7 GAS STATICCALL ISZERO DUP1 ISZERO PUSH2 0x474 JUMPI RETURNDATASIZE PUSH1 0x0 DUP1 RETURNDATACOPY RETURNDATASIZE PUSH1 0x0 REVERT JUMPDEST POP POP POP POP PUSH1 0x40 MLOAD RETURNDATASIZE PUSH1 0x1F NOT PUSH1 0x1F DUP3 ADD AND DUP3 ADD DUP1 PUSH1 0x40 MSTORE POP DUP2 ADD SWAP1 PUSH2 0x498 SWAP2 SWAP1 PUSH2 0xE54 JUMP JUMPDEST SWAP2 POP SWAP2 POP DUP3 DUP3 DUP3 SWAP6 POP SWAP6 POP SWAP6 POP POP POP POP SWAP1 SWAP2 SWAP3 JUMP JUMPDEST PUSH2 0x4B5 PUSH2 0x557 JUMP JUMPDEST PUSH1 0x0 PUSH20 0xFFFFFFFFFFFFFFFFFFFFFFFFFFFFFFFFFFFFFFFF AND DUP2 PUSH20 0xFFFFFFFFFFFFFFFFFFFFFFFFFFFFFFFFFFFFFFFF AND SUB PUSH2 0x527 JUMPI PUSH1 0x0 PUSH1 0x40 MLOAD PUSH32 0x1E4FBDF700000000000000000000000000000000000000000000000000000000 DUP2 MSTORE PUSH1 0x4 ADD PUSH2 0x51E SWAP2 SWAP1 PUSH2 0xB4C JUMP JUMPDEST PUSH1 0x40 MLOAD DUP1 SWAP2 SUB SWAP1 REVERT JUMPDEST PUSH2 0x530 DUP2 PUSH2 0x5DE JUMP JUMPDEST POP JUMP JUMPDEST PUSH32 0x0 DUP2 JUMP JUMPDEST PUSH2 0x55F PUSH2 0x7F9 JUMP JUMPDEST PUSH20 0xFFFFFFFFFFFFFFFFFFFFFFFFFFFFFFFFFFFFFFFF AND PUSH2 0x57D PUSH2 0x2E9 JUMP JUMPDEST PUSH20 0xFFFFFFFFFFFFFFFFFFFFFFFFFFFFFFFFFFFFFFFF AND EQ PUSH2 0x5DC JUMPI PUSH2 0x5A0 PUSH2 0x7F9 JUMP JUMPDEST PUSH1 0x40 MLOAD PUSH32 0x118CDAA700000000000000000000000000000000000000000000000000000000 DUP2 MSTORE PUSH1 0x4 ADD PUSH2 0x5D3 SWAP2 SWAP1 PUSH2 0xB4C JUMP JUMPDEST PUSH1 0x40 MLOAD DUP1 SWAP2 SUB SWAP1 REVERT JUMPDEST JUMP JUMPDEST PUSH1 0x0 DUP1 PUSH1 0x0 SWAP1 SLOAD SWAP1 PUSH2 0x100 EXP SWAP1 DIV PUSH20 0xFFFFFFFFFFFFFFFFFFFFFFFFFFFFFFFFFFFFFFFF AND SWAP1 POP DUP2 PUSH1 0x0 DUP1 PUSH2 0x100 EXP DUP2 SLOAD DUP2 PUSH20 0xFFFFFFFFFFFFFFFFFFFFFFFFFFFFFFFFFFFFFFFF MUL NOT AND SWAP1 DUP4 PUSH20 0xFFFFFFFFFFFFFFFFFFFFFFFFFFFFFFFFFFFFFFFF AND MUL OR SWAP1 SSTORE POP DUP2 PUSH20 0xFFFFFFFFFFFFFFFFFFFFFFFFFFFFFFFFFFFFFFFF AND DUP2 PUSH20 0xFFFFFFFFFFFFFFFFFFFFFFFFFFFFFFFFFFFFFFFF AND PUSH32 0x8BE0079C531659141344CD1FD0A4F28419497F9722A3DAAFE3B4186F6B6457E0 PUSH1 0x40 MLOAD PUSH1 0x40 MLOAD DUP1 SWAP2 SUB SWAP1 LOG3 POP POP JUMP JUMPDEST DUP4 PUSH1 0x3 PUSH1 0x0 DUP8 DUP2 MSTORE PUSH1 0x20 ADD SWAP1 DUP2 MSTORE PUSH1 0x20 ADD PUSH1 0x0 KECCAK256 PUSH1 0x0 ADD SWAP1 DUP2 PUSH2 0x6C5 SWAP2 SWAP1 PUSH2 0x1036 JUMP JUMPDEST POP DUP3 PUSH1 0x3 PUSH1 0x0 DUP8 DUP2 MSTORE PUSH1 0x20 ADD SWAP1 DUP2 MSTORE PUSH1 0x20 ADD PUSH1 0x0 KECCAK256 PUSH1 0x1 ADD PUSH1 0x0 PUSH2 0x100 EXP DUP2 SLOAD DUP2 PUSH20 0xFFFFFFFFFFFFFFFFFFFFFFFFFFFFFFFFFFFFFFFF MUL NOT AND SWAP1 DUP4 PUSH20 0xFFFFFFFFFFFFFFFFFFFFFFFFFFFFFFFFFFFFFFFF AND MUL OR SWAP1 SSTORE POP DUP2 PUSH1 0x3 PUSH1 0x0 DUP8 DUP2 MSTORE PUSH1 0x20 ADD SWAP1 DUP2 MSTORE PUSH1 0x20 ADD PUSH1 0x0 KECCAK256 PUSH1 0x2 ADD PUSH1 0x0 PUSH2 0x100 EXP DUP2 SLOAD DUP2 PUSH20 0xFFFFFFFFFFFFFFFFFFFFFFFFFFFFFFFFFFFFFFFF MUL NOT AND SWAP1 DUP4 PUSH20 0xFFFFFFFFFFFFFFFFFFFFFFFFFFFFFFFFFFFFFFFF AND MUL OR SWAP1 SSTORE POP DUP1 PUSH1 0x3 PUSH1 0x0 DUP8 DUP2 MSTORE PUSH1 0x20 ADD SWAP1 DUP2 MSTORE PUSH1 0x20 ADD PUSH1 0x0 KECCAK256 PUSH1 0x3 ADD DUP2 SWAP1 SSTORE POP DUP5 PUSH1 0x2 DUP6 PUSH1 0x40 MLOAD PUSH2 0x79C SWAP2 SWAP1 PUSH2 0x1144 JUMP JUMPDEST SWAP1 DUP2 MSTORE PUSH1 0x20 ADD PUSH1 0x40 MLOAD DUP1 SWAP2 SUB SWAP1 KECCAK256 DUP2 SWAP1 SSTORE POP DUP1 DUP5 PUSH1 0x40 MLOAD PUSH2 0x7BD SWAP2 SWAP1 PUSH2 0x1144 JUMP JUMPDEST PUSH1 0x40 MLOAD DUP1 SWAP2 SUB SWAP1 KECCAK256 DUP7 PUSH32 0xC19BB44B59579BE200A2B8014813F052E8D673471778B18DB3AAE536DCE7BA5 PUSH1 0x40 MLOAD PUSH1 0x40 MLOAD DUP1 SWAP2 SUB SWAP1 LOG4 POP POP POP POP POP JUMP JUMPDEST PUSH1 0x0 CALLER SWAP1 POP SWAP1 JUMP JUMPDEST PUSH1 0x0 PUSH1 0x40 MLOAD SWAP1 POP SWAP1 JUMP JUMPDEST PUSH1 0x0 DUP1 REVERT JUMPDEST PUSH1 0x0 DUP1 REVERT JUMPDEST PUSH1 0x0 DUP2 SWAP1 POP SWAP2 SWAP1 POP JUMP JUMPDEST PUSH2 0x828 DUP2 PUSH2 0x815 JUMP JUMPDEST DUP2 EQ PUSH2 0x833 JUMPI PUSH1 0x0 DUP1 REVERT JUMPDEST POP JUMP JUMPDEST PUSH1 0x0 DUP2 CALLDATALOAD SWAP1 POP PUSH2 0x845 DUP2 PUSH2 0x81F JUMP JUMPDEST SWAP3 SWAP2 POP POP JUMP JUMPDEST PUSH1 0x0 PUSH1 0x20 DUP3 DUP5 SUB SLT ISZERO PUSH2 0x861 JUMPI PUSH2 0x860 PUSH2 0x80B JUMP JUMPDEST JUMPDEST PUSH1 0x0 PUSH2 0x86F DUP5 DUP3 DUP6 ADD PUSH2 0x836 JUMP JUMPDEST SWAP2 POP POP SWAP3 SWAP2 POP POP JUMP JUMPDEST PUSH1 0x0 DUP2 MLOAD SWAP1 POP SWAP2 SWAP1 POP JUMP JUMPDEST PUSH1 0x0 DUP3 DUP3 MSTORE PUSH1 0x20 DUP3 ADD SWAP1 POP SWAP3 SWAP2 POP POP JUMP JUMPDEST PUSH1 0x0 JUMPDEST DUP4 DUP2 LT ISZERO PUSH2 0x8B2 JUMPI DUP1 DUP3 ADD MLOAD DUP2 DUP5 ADD MSTORE PUSH1 0x20 DUP2 ADD SWAP1 POP PUSH2 0x897 JUMP JUMPDEST PUSH1 0x0 DUP5 DUP5 ADD MSTORE POP POP POP POP JUMP JUMPDEST PUSH1 0x0 PUSH1 0x1F NOT PUSH1 0x1F DUP4 ADD AND SWAP1 POP SWAP2 SWAP1 POP JUMP JUMPDEST PUSH1 0x0 PUSH2 0x8DA DUP3 PUSH2 0x878 JUMP JUMPDEST PUSH2 0x8E4 DUP2 DUP6 PUSH2 0x883 JUMP JUMPDEST SWAP4 POP PUSH2 0x8F4 DUP2 DUP6 PUSH1 0x20 DUP7 ADD PUSH2 0x894 JUMP JUMPDEST PUSH2 0x8FD DUP2 PUSH2 0x8BE JUMP JUMPDEST DUP5 ADD SWAP2 POP POP SWAP3 SWAP2 POP POP JUMP JUMPDEST PUSH1 0x0 PUSH20 0xFFFFFFFFFFFFFFFFFFFFFFFFFFFFFFFFFFFFFFFF DUP3 AND SWAP1 POP SWAP2 SWAP1 POP JUMP JUMPDEST PUSH2 0x931 DUP2 PUSH2 0x908 JUMP JUMPDEST DUP3 MSTORE POP POP JUMP JUMPDEST PUSH1 0x0 PUSH2 0x942 DUP3 PUSH2 0x908 JUMP JUMPDEST SWAP1 POP SWAP2 SWAP1 POP JUMP JUMPDEST PUSH2 0x952 DUP2 PUSH2 0x937 JUMP JUMPDEST DUP3 MSTORE POP POP JUMP JUMPDEST PUSH2 0x961 DUP2 PUSH2 0x815 JUMP JUMPDEST DUP3 MSTORE POP POP JUMP JUMPDEST PUSH1 0x0 PUSH1 0x80 DUP3 ADD SWAP1 POP DUP2 DUP2 SUB PUSH1 0x0 DUP4 ADD MSTORE PUSH2 0x981 DUP2 DUP8 PUSH2 0x8CF JUMP JUMPDEST SWAP1 POP PUSH2 0x990 PUSH1 0x20 DUP4 ADD DUP7 PUSH2 0x928 JUMP JUMPDEST PUSH2 0x99D PUSH1 0x40 DUP4 ADD DUP6 PUSH2 0x949 JUMP JUMPDEST PUSH2 0x9AA PUSH1 0x60 DUP4 ADD DUP5 PUSH2 0x958 JUMP JUMPDEST SWAP6 SWAP5 POP POP POP POP POP JUMP JUMPDEST PUSH1 0x0 DUP1 REVERT JUMPDEST PUSH1 0x0 DUP1 REVERT JUMPDEST PUSH32 0x4E487B7100000000000000000000000000000000000000000000000000000000 PUSH1 0x0 MSTORE PUSH1 0x41 PUSH1 0x4 MSTORE PUSH1 0x24 PUSH1 0x0 REVERT JUMPDEST PUSH2 0x9F5 DUP3 PUSH2 0x8BE JUMP JUMPDEST DUP2 ADD DUP2 DUP2 LT PUSH8 0xFFFFFFFFFFFFFFFF DUP3 GT OR ISZERO PUSH2 0xA14 JUMPI PUSH2 0xA13 PUSH2 0x9BD JUMP JUMPDEST JUMPDEST DUP1 PUSH1 0x40 MSTORE POP POP POP JUMP JUMPDEST PUSH1 0x0 PUSH2 0xA27 PUSH2 0x801 JUMP JUMPDEST SWAP1 POP PUSH2 0xA33 DUP3 DUP3 PUSH2 0x9EC JUMP JUMPDEST SWAP2 SWAP1 POP JUMP JUMPDEST PUSH1 0x0 PUSH8 0xFFFFFFFFFFFFFFFF DUP3 GT ISZERO PUSH2 0xA53 JUMPI PUSH2 0xA52 PUSH2 0x9BD JUMP JUMPDEST JUMPDEST PUSH2 0xA5C DUP3 PUSH2 0x8BE JUMP JUMPDEST SWAP1 POP PUSH1 0x20 DUP2 ADD SWAP1 POP SWAP2 SWAP1 POP JUMP JUMPDEST DUP3 DUP2 DUP4 CALLDATACOPY PUSH1 0x0 DUP4 DUP4 ADD MSTORE POP POP POP JUMP JUMPDEST PUSH1 0x0 PUSH2 0xA8B PUSH2 0xA86 DUP5 PUSH2 0xA38 JUMP JUMPDEST PUSH2 0xA1D JUMP JUMPDEST SWAP1 POP DUP3 DUP2 MSTORE PUSH1 0x20 DUP2 ADD DUP5 DUP5 DUP5 ADD GT ISZERO PUSH2 0xAA7 JUMPI PUSH2 0xAA6 PUSH2 0x9B8 JUMP JUMPDEST JUMPDEST PUSH2 0xAB2 DUP5 DUP3 DUP6 PUSH2 0xA69 JUMP JUMPDEST POP SWAP4 SWAP3 POP POP POP JUMP JUMPDEST PUSH1 0x0 DUP3 PUSH1 0x1F DUP4 ADD SLT PUSH2 0xACF JUMPI PUSH2 0xACE PUSH2 0x9B3 JUMP JUMPDEST JUMPDEST DUP2 CALLDATALOAD PUSH2 0xADF DUP5 DUP3 PUSH1 0x20 DUP7 ADD PUSH2 0xA78 JUMP JUMPDEST SWAP2 POP POP SWAP3 SWAP2 POP POP JUMP JUMPDEST PUSH1 0x0 PUSH1 0x20 DUP3 DUP5 SUB SLT ISZERO PUSH2 0xAFE JUMPI PUSH2 0xAFD PUSH2 0x80B JUMP JUMPDEST JUMPDEST PUSH1 0x0 DUP3 ADD CALLDATALOAD PUSH8 0xFFFFFFFFFFFFFFFF DUP2 GT ISZERO PUSH2 0xB1C JUMPI PUSH2 0xB1B PUSH2 0x810 JUMP JUMPDEST JUMPDEST PUSH2 0xB28 DUP5 DUP3 DUP6 ADD PUSH2 0xABA JUMP JUMPDEST SWAP2 POP POP SWAP3 SWAP2 POP POP JUMP JUMPDEST PUSH1 0x0 PUSH1 0x20 DUP3 ADD SWAP1 POP PUSH2 0xB46 PUSH1 0x0 DUP4 ADD DUP5 PUSH2 0x958 JUMP JUMPDEST SWAP3 SWAP2 POP POP JUMP JUMPDEST PUSH1 0x0 PUSH1 0x20 DUP3 ADD SWAP1 POP PUSH2 0xB61 PUSH1 0x0 DUP4 ADD DUP5 PUSH2 0x949 JUMP JUMPDEST SWAP3 SWAP2 POP POP JUMP JUMPDEST PUSH1 0x0 PUSH1 0x60 DUP3 ADD SWAP1 POP DUP2 DUP2 SUB PUSH1 0x0 DUP4 ADD MSTORE PUSH2 0xB81 DUP2 DUP7 PUSH2 0x8CF JUMP JUMPDEST SWAP1 POP PUSH2 0xB90 PUSH1 0x20 DUP4 ADD DUP6 PUSH2 0x958 JUMP JUMPDEST PUSH2 0xB9D PUSH1 0x40 DUP4 ADD DUP5 PUSH2 0x949 JUMP JUMPDEST SWAP5 SWAP4 POP POP POP POP JUMP JUMPDEST PUSH2 0xBAE DUP2 PUSH2 0x937 JUMP JUMPDEST DUP2 EQ PUSH2 0xBB9 JUMPI PUSH1 0x0 DUP1 REVERT JUMPDEST POP JUMP JUMPDEST PUSH1 0x0 DUP2 CALLDATALOAD SWAP1 POP PUSH2 0xBCB DUP2 PUSH2 0xBA5 JUMP JUMPDEST SWAP3 SWAP2 POP POP JUMP JUMPDEST PUSH1 0x0 PUSH1 0x20 DUP3 DUP5 SUB SLT ISZERO PUSH2 0xBE7 JUMPI PUSH2 0xBE6 PUSH2 0x80B JUMP JUMPDEST JUMPDEST PUSH1 0x0 PUSH2 0xBF5 DUP5 DUP3 DUP6 ADD PUSH2 0xBBC JUMP JUMPDEST SWAP2 POP POP SWAP3 SWAP2 POP POP JUMP JUMPDEST PUSH1 0x0 DUP2 SWAP1 POP SWAP2 SWAP1 POP JUMP JUMPDEST PUSH1 0x0 PUSH2 0xC23 PUSH2 0xC1E PUSH2 0xC19 DUP5 PUSH2 0x908 JUMP JUMPDEST PUSH2 0xBFE JUMP JUMPDEST PUSH2 0x908 JUMP JUMPDEST SWAP1 POP SWAP2 SWAP1 POP JUMP JUMPDEST PUSH1 0x0 PUSH2 0xC35 DUP3 PUSH2 0xC08 JUMP JUMPDEST SWAP1 POP SWAP2 SWAP1 POP JUMP JUMPDEST PUSH1 0x0 PUSH2 0xC47 DUP3 PUSH2 0xC2A JUMP JUMPDEST SWAP1 POP SWAP2 SWAP1 POP JUMP JUMPDEST PUSH2 0xC57 DUP2 PUSH2 0xC3C JUMP JUMPDEST DUP3 MSTORE POP POP JUMP JUMPDEST PUSH1 0x0 PUSH1 0x20 DUP3 ADD SWAP1 POP PUSH2 0xC72 PUSH1 0x0 DUP4 ADD DUP5 PUSH2 0xC4E JUMP JUMPDEST SWAP3 SWAP2 POP POP JUMP JUMPDEST PUSH32 0x4E487B7100000000000000000000000000000000000000000000000000000000 PUSH1 0x0 MSTORE PUSH1 0x22 PUSH1 0x4 MSTORE PUSH1 0x24 PUSH1 0x0 REVERT JUMPDEST PUSH1 0x0 PUSH1 0x2 DUP3 DIV SWAP1 POP PUSH1 0x1 DUP3 AND DUP1 PUSH2 0xCBF JUMPI PUSH1 0x7F DUP3 AND SWAP2 POP JUMPDEST PUSH1 0x20 DUP3 LT DUP2 SUB PUSH2 0xCD2 JUMPI PUSH2 0xCD1 PUSH2 0xC78 JUMP JUMPDEST JUMPDEST POP SWAP2 SWAP1 POP JUMP JUMPDEST PUSH32 0x4E487B7100000000000000000000000000000000000000000000000000000000 PUSH1 0x0 MSTORE PUSH1 0x11 PUSH1 0x4 MSTORE PUSH1 0x24 PUSH1 0x0 REVERT JUMPDEST PUSH1 0x0 PUSH2 0xD12 DUP3 PUSH2 0x815 JUMP JUMPDEST SWAP2 POP PUSH32 0xFFFFFFFFFFFFFFFFFFFFFFFFFFFFFFFFFFFFFFFFFFFFFFFFFFFFFFFFFFFFFFFF DUP3 SUB PUSH2 0xD44 JUMPI PUSH2 0xD43 PUSH2 0xCD8 JUMP JUMPDEST JUMPDEST PUSH1 0x1 DUP3 ADD SWAP1 POP SWAP2 SWAP1 POP JUMP JUMPDEST PUSH1 0x0 PUSH2 0xD62 PUSH2 0xD5D DUP5 PUSH2 0xA38 JUMP JUMPDEST PUSH2 0xA1D JUMP JUMPDEST SWAP1 POP DUP3 DUP2 MSTORE PUSH1 0x20 DUP2 ADD DUP5 DUP5 DUP5 ADD GT ISZERO PUSH2 0xD7E JUMPI PUSH2 0xD7D PUSH2 0x9B8 JUMP JUMPDEST JUMPDEST PUSH2 0xD89 DUP5 DUP3 DUP6 PUSH2 0x894 JUMP JUMPDEST POP SWAP4 SWAP3 POP POP POP JUMP JUMPDEST PUSH1 0x0 DUP3 PUSH1 0x1F DUP4 ADD SLT PUSH2 0xDA6 JUMPI PUSH2 0xDA5 PUSH2 0x9B3 JUMP JUMPDEST JUMPDEST DUP2 MLOAD PUSH2 0xDB6 DUP5 DUP3 PUSH1 0x20 DUP7 ADD PUSH2 0xD4F JUMP JUMPDEST SWAP2 POP POP SWAP3 SWAP2 POP POP JUMP JUMPDEST PUSH1 0x0 PUSH1 0x20 DUP3 DUP5 SUB SLT ISZERO PUSH2 0xDD5 JUMPI PUSH2 0xDD4 PUSH2 0x80B JUMP JUMPDEST JUMPDEST PUSH1 0x0 DUP3 ADD MLOAD PUSH8 0xFFFFFFFFFFFFFFFF DUP2 GT ISZERO PUSH2 0xDF3 JUMPI PUSH2 0xDF2 PUSH2 0x810 JUMP JUMPDEST JUMPDEST PUSH2 0xDFF DUP5 DUP3 DUP6 ADD PUSH2 0xD91 JUMP JUMPDEST SWAP2 POP POP SWAP3 SWAP2 POP POP JUMP JUMPDEST PUSH1 0x0 PUSH1 0x20 DUP3 ADD SWAP1 POP DUP2 DUP2 SUB PUSH1 0x0 DUP4 ADD MSTORE PUSH2 0xE22 DUP2 DUP5 PUSH2 0x8CF JUMP JUMPDEST SWAP1 POP SWAP3 SWAP2 POP POP JUMP JUMPDEST PUSH1 0x0 DUP2 MLOAD SWAP1 POP PUSH2 0xE39 DUP2 PUSH2 0x81F JUMP JUMPDEST SWAP3 SWAP2 POP POP JUMP JUMPDEST PUSH1 0x0 DUP2 MLOAD SWAP1 POP PUSH2 0xE4E DUP2 PUSH2 0xBA5 JUMP JUMPDEST SWAP3 SWAP2 POP POP JUMP JUMPDEST PUSH1 0x0 DUP1 PUSH1 0x40 DUP4 DUP6 SUB SLT ISZERO PUSH2 0xE6B JUMPI PUSH2 0xE6A PUSH2 0x80B JUMP JUMPDEST JUMPDEST PUSH1 0x0 PUSH2 0xE79 DUP6 DUP3 DUP7 ADD PUSH2 0xE2A JUMP JUMPDEST SWAP3 POP POP PUSH1 0x20 PUSH2 0xE8A DUP6 DUP3 DUP7 ADD PUSH2 0xE3F JUMP JUMPDEST SWAP2 POP POP SWAP3 POP SWAP3 SWAP1 POP JUMP JUMPDEST PUSH1 0x0 DUP2 SWAP1 POP DUP2 PUSH1 0x0 MSTORE PUSH1 0x20 PUSH1 0x0 KECCAK256 SWAP1 POP SWAP2 SWAP1 POP JUMP JUMPDEST PUSH1 0x0 PUSH1 0x20 PUSH1 0x1F DUP4 ADD DIV SWAP1 POP SWAP2 SWAP1 POP JUMP JUMPDEST PUSH1 0x0 DUP3 DUP3 SHL SWAP1 POP SWAP3 SWAP2 POP POP JUMP JUMPDEST PUSH1 0x0 PUSH1 0x8 DUP4 MUL PUSH2 0xEF6 PUSH32 0xFFFFFFFFFFFFFFFFFFFFFFFFFFFFFFFFFFFFFFFFFFFFFFFFFFFFFFFFFFFFFFFF DUP3 PUSH2 0xEB9 JUMP JUMPDEST PUSH2 0xF00 DUP7 DUP4 PUSH2 0xEB9 JUMP JUMPDEST SWAP6 POP DUP1 NOT DUP5 AND SWAP4 POP DUP1 DUP7 AND DUP5 OR SWAP3 POP POP POP SWAP4 SWAP3 POP POP POP JUMP JUMPDEST PUSH1 0x0 PUSH2 0xF33 PUSH2 0xF2E PUSH2 0xF29 DUP5 PUSH2 0x815 JUMP JUMPDEST PUSH2 0xBFE JUMP JUMPDEST PUSH2 0x815 JUMP JUMPDEST SWAP1 POP SWAP2 SWAP1 POP JUMP JUMPDEST PUSH1 0x0 DUP2 SWAP1 POP SWAP2 SWAP1 POP JUMP JUMPDEST PUSH2 0xF4D DUP4 PUSH2 0xF18 JUMP JUMPDEST PUSH2 0xF61 PUSH2 0xF59 DUP3 PUSH2 0xF3A JUMP JUMPDEST DUP5 DUP5 SLOAD PUSH2 0xEC6 JUMP JUMPDEST DUP3 SSTORE POP POP POP POP JUMP JUMPDEST PUSH1 0x0 SWAP1 JUMP JUMPDEST PUSH2 0xF76 PUSH2 0xF69 JUMP JUMPDEST PUSH2 0xF81 DUP2 DUP5 DUP5 PUSH2 0xF44 JUMP JUMPDEST POP POP POP JUMP JUMPDEST JUMPDEST DUP2 DUP2 LT ISZERO PUSH2 0xFA5 JUMPI PUSH2 0xF9A PUSH1 0x0 DUP3 PUSH2 0xF6E JUMP JUMPDEST PUSH1 0x1 DUP2 ADD SWAP1 POP PUSH2 0xF87 JUMP JUMPDEST POP POP JUMP JUMPDEST PUSH1 0x1F DUP3 GT ISZERO PUSH2 0xFEA JUMPI PUSH2 0xFBB DUP2 PUSH2 0xE94 JUMP JUMPDEST PUSH2 0xFC4 DUP5 PUSH2 0xEA9 JUMP JUMPDEST DUP2 ADD PUSH1 0x20 DUP6 LT ISZERO PUSH2 0xFD3 JUMPI DUP2 SWAP1 POP JUMPDEST PUSH2 0xFE7 PUSH2 0xFDF DUP6 PUSH2 0xEA9 JUMP JUMPDEST DUP4 ADD DUP3 PUSH2 0xF86 JUMP JUMPDEST POP POP JUMPDEST POP POP POP JUMP JUMPDEST PUSH1 0x0 DUP3 DUP3 SHR SWAP1 POP SWAP3 SWAP2 POP POP JUMP JUMPDEST PUSH1 0x0 PUSH2 0x100D PUSH1 0x0 NOT DUP5 PUSH1 0x8 MUL PUSH2 0xFEF JUMP JUMPDEST NOT DUP1 DUP4 AND SWAP2 POP POP SWAP3 SWAP2 POP POP JUMP JUMPDEST PUSH1 0x0 PUSH2 0x1026 DUP4 DUP4 PUSH2 0xFFC JUMP JUMPDEST SWAP2 POP DUP3 PUSH1 0x2 MUL DUP3 OR SWAP1 POP SWAP3 SWAP2 POP POP JUMP JUMPDEST PUSH2 0x103F DUP3 PUSH2 0x878 JUMP JUMPDEST PUSH8 0xFFFFFFFFFFFFFFFF DUP2 GT ISZERO PUSH2 0x1058 JUMPI PUSH2 0x1057 PUSH2 0x9BD JUMP JUMPDEST JUMPDEST PUSH2 0x1062 DUP3 SLOAD PUSH2 0xCA7 JUMP JUMPDEST PUSH2 0x106D DUP3 DUP3 DUP6 PUSH2 0xFA9 JUMP JUMPDEST PUSH1 0x0 PUSH1 0x20 SWAP1 POP PUSH1 0x1F DUP4 GT PUSH1 0x1 DUP2 EQ PUSH2 0x10A0 JUMPI PUSH1 0x0 DUP5 ISZERO PUSH2 0x108E JUMPI DUP3 DUP8 ADD MLOAD SWAP1 POP JUMPDEST PUSH2 0x1098 DUP6 DUP3 PUSH2 0x101A JUMP JUMPDEST DUP7 SSTORE POP PUSH2 0x1100 JUMP JUMPDEST PUSH1 0x1F NOT DUP5 AND PUSH2 0x10AE DUP7 PUSH2 0xE94 JUMP JUMPDEST PUSH1 0x0 JUMPDEST DUP3 DUP2 LT ISZERO PUSH2 0x10D6 JUMPI DUP5 DUP10 ADD MLOAD DUP3 SSTORE PUSH1 0x1 DUP3 ADD SWAP2 POP PUSH1 0x20 DUP6 ADD SWAP5 POP PUSH1 0x20 DUP2 ADD SWAP1 POP PUSH2 0x10B1 JUMP JUMPDEST DUP7 DUP4 LT ISZERO PUSH2 0x10F3 JUMPI DUP5 DUP10 ADD MLOAD PUSH2 0x10EF PUSH1 0x1F DUP10 AND DUP3 PUSH2 0xFFC JUMP JUMPDEST DUP4 SSTORE POP JUMPDEST PUSH1 0x1 PUSH1 0x2 DUP9 MUL ADD DUP9 SSTORE POP POP POP JUMPDEST POP POP POP POP POP POP JUMP JUMPDEST PUSH1 0x0 DUP2 SWAP1 POP SWAP3 SWAP2 POP POP JUMP JUMPDEST PUSH1 0x0 PUSH2 0x111E DUP3 PUSH2 0x878 JUMP JUMPDEST PUSH2 0x1128 DUP2 DUP6 PUSH2 0x1108 JUMP JUMPDEST SWAP4 POP PUSH2 0x1138 DUP2 DUP6 PUSH1 0x20 DUP7 ADD PUSH2 0x894 JUMP JUMPDEST DUP1 DUP5 ADD SWAP2 POP POP SWAP3 SWAP2 POP POP JUMP JUMPDEST PUSH1 0x0 PUSH2 0x1150 DUP3 DUP5 PUSH2 0x1113 JUMP JUMPDEST SWAP2 POP DUP2 SWAP1 POP SWAP3 SWAP2 POP POP JUMP INVALID LOG2 PUSH5 0x6970667358 0x22 SLT KECCAK256 SIGNEXTEND PUSH21 0x300D163F9DC5FEAD020B8A9BF76BBE5AC986BD98A0 0xE6 SWAP12 0xB4 SELFBALANCE 0xEA LOG4 0xB2 PUSH21 0xAD64736F6C63430008130033000000000000000000 "
				},
				"gasEstimates": {
					"creation": {
						"codeDepositCost": "899400",
						"executionCost": "infinite",
						"totalCost": "infinite"
					},
					"external": {
						"getLatestMintedSale()": "infinite",
						"getLatestSaleCount()": "2504",
						"owner()": "2522",
						"renounceOwnership()": "infinite",
						"saleId(string)": "infinite",
						"saleInfo(uint256)": "infinite",
						"startSale()": "infinite",
						"token()": "infinite",
						"transferOwnership(address)": "infinite"
					},
					"internal": {
						"_addSale(uint256,string memory,uint256,address,uint256)": "infinite",
						"_defaultSale()": "infinite"
					}
				},
				"methodIdentifiers": {
					"getLatestMintedSale()": "c5dc51d4",
					"getLatestSaleCount()": "8ce902f2",
					"owner()": "8da5cb5b",
					"renounceOwnership()": "715018a6",
					"saleId(string)": "2c7283c3",
					"saleInfo(uint256)": "02eb4b88",
					"startSale()": "b66a0e5d",
					"token()": "fc0c546a",
					"transferOwnership(address)": "f2fde38b"
				}
			},
			"storageLayout": {
				"storage": [
					{
						"astId": 8,
						"contract": "contracts/Sales.sol:Sales",
						"label": "_owner",
						"offset": 0,
						"slot": "0",
						"type": "t_address"
					},
					{
						"astId": 289,
						"contract": "contracts/Sales.sol:Sales",
						"label": "saleCounter",
						"offset": 0,
						"slot": "1",
						"type": "t_uint256"
					},
					{
						"astId": 305,
						"contract": "contracts/Sales.sol:Sales",
						"label": "saleId",
						"offset": 0,
						"slot": "2",
						"type": "t_mapping(t_string_memory_ptr,t_uint256)"
					},
					{
						"astId": 310,
						"contract": "contracts/Sales.sol:Sales",
						"label": "saleInfo",
						"offset": 0,
						"slot": "3",
						"type": "t_mapping(t_uint256,t_struct(Sale)298_storage)"
					}
				],
				"types": {
					"t_address": {
						"encoding": "inplace",
						"label": "address",
						"numberOfBytes": "20"
					},
					"t_mapping(t_string_memory_ptr,t_uint256)": {
						"encoding": "mapping",
						"key": "t_string_memory_ptr",
						"label": "mapping(string => uint256)",
						"numberOfBytes": "32",
						"value": "t_uint256"
					},
					"t_mapping(t_uint256,t_struct(Sale)298_storage)": {
						"encoding": "mapping",
						"key": "t_uint256",
						"label": "mapping(uint256 => struct Sales.Sale)",
						"numberOfBytes": "32",
						"value": "t_struct(Sale)298_storage"
					},
					"t_string_memory_ptr": {
						"encoding": "bytes",
						"label": "string",
						"numberOfBytes": "32"
					},
					"t_string_storage": {
						"encoding": "bytes",
						"label": "string",
						"numberOfBytes": "32"
					},
					"t_struct(Sale)298_storage": {
						"encoding": "inplace",
						"label": "struct Sales.Sale",
						"members": [
							{
								"astId": 291,
								"contract": "contracts/Sales.sol:Sales",
								"label": "name",
								"offset": 0,
								"slot": "0",
								"type": "t_string_storage"
							},
							{
								"astId": 293,
								"contract": "contracts/Sales.sol:Sales",
								"label": "supply",
								"offset": 0,
								"slot": "1",
								"type": "t_uint160"
							},
							{
								"astId": 295,
								"contract": "contracts/Sales.sol:Sales",
								"label": "walletAddress",
								"offset": 0,
								"slot": "2",
								"type": "t_address"
							},
							{
								"astId": 297,
								"contract": "contracts/Sales.sol:Sales",
								"label": "startAt",
								"offset": 0,
								"slot": "3",
								"type": "t_uint256"
							}
						],
						"numberOfBytes": "128"
					},
					"t_uint160": {
						"encoding": "inplace",
						"label": "uint160",
						"numberOfBytes": "20"
					},
					"t_uint256": {
						"encoding": "inplace",
						"label": "uint256",
						"numberOfBytes": "32"
					}
				}
			},
			"userdoc": {
				"kind": "user",
				"methods": {},
				"version": 1
			}
		}
	}
}