{
	"contracts/Anryton.sol": {
		"Anryton": {
			"abi": [
				{
					"inputs": [
						{
							"internalType": "string",
							"name": "_tokenName",
							"type": "string"
						},
						{
							"internalType": "string",
							"name": "_tokenSymbol",
							"type": "string"
						}
					],
					"stateMutability": "nonpayable",
					"type": "constructor"
				},
				{
					"inputs": [
						{
							"internalType": "address",
							"name": "spender",
							"type": "address"
						},
						{
							"internalType": "uint256",
							"name": "allowance",
							"type": "uint256"
						},
						{
							"internalType": "uint256",
							"name": "needed",
							"type": "uint256"
						}
					],
					"name": "ERC20InsufficientAllowance",
					"type": "error"
				},
				{
					"inputs": [
						{
							"internalType": "address",
							"name": "sender",
							"type": "address"
						},
						{
							"internalType": "uint256",
							"name": "balance",
							"type": "uint256"
						},
						{
							"internalType": "uint256",
							"name": "needed",
							"type": "uint256"
						}
					],
					"name": "ERC20InsufficientBalance",
					"type": "error"
				},
				{
					"inputs": [
						{
							"internalType": "address",
							"name": "approver",
							"type": "address"
						}
					],
					"name": "ERC20InvalidApprover",
					"type": "error"
				},
				{
					"inputs": [
						{
							"internalType": "address",
							"name": "receiver",
							"type": "address"
						}
					],
					"name": "ERC20InvalidReceiver",
					"type": "error"
				},
				{
					"inputs": [
						{
							"internalType": "address",
							"name": "sender",
							"type": "address"
						}
					],
					"name": "ERC20InvalidSender",
					"type": "error"
				},
				{
					"inputs": [
						{
							"internalType": "address",
							"name": "spender",
							"type": "address"
						}
					],
					"name": "ERC20InvalidSpender",
					"type": "error"
				},
				{
					"inputs": [
						{
							"internalType": "address",
							"name": "owner",
							"type": "address"
						}
					],
					"name": "OwnableInvalidOwner",
					"type": "error"
				},
				{
					"inputs": [
						{
							"internalType": "address",
							"name": "account",
							"type": "address"
						}
					],
					"name": "OwnableUnauthorizedAccount",
					"type": "error"
				},
				{
					"anonymous": false,
					"inputs": [
						{
							"indexed": true,
							"internalType": "address",
							"name": "owner",
							"type": "address"
						},
						{
							"indexed": true,
							"internalType": "address",
							"name": "spender",
							"type": "address"
						},
						{
							"indexed": false,
							"internalType": "uint256",
							"name": "value",
							"type": "uint256"
						}
					],
					"name": "Approval",
					"type": "event"
				},
				{
					"anonymous": false,
					"inputs": [
						{
							"indexed": true,
							"internalType": "string",
							"name": "sale",
							"type": "string"
						},
						{
							"indexed": true,
							"internalType": "uint256",
							"name": "supply",
							"type": "uint256"
						},
						{
							"indexed": true,
							"internalType": "address",
							"name": "walletAddress",
							"type": "address"
						}
					],
					"name": "MintedWalletSuupply",
					"type": "event"
				},
				{
					"anonymous": false,
					"inputs": [
						{
							"indexed": true,
							"internalType": "address",
							"name": "previousOwner",
							"type": "address"
						},
						{
							"indexed": true,
							"internalType": "address",
							"name": "newOwner",
							"type": "address"
						}
					],
					"name": "OwnershipTransferred",
					"type": "event"
				},
				{
					"anonymous": false,
					"inputs": [
						{
							"indexed": true,
							"internalType": "address",
							"name": "from",
							"type": "address"
						},
						{
							"indexed": true,
							"internalType": "address",
							"name": "to",
							"type": "address"
						},
						{
							"indexed": false,
							"internalType": "uint256",
							"name": "value",
							"type": "uint256"
						}
					],
					"name": "Transfer",
					"type": "event"
				},
				{
					"inputs": [
						{
							"internalType": "address",
							"name": "owner",
							"type": "address"
						},
						{
							"internalType": "address",
							"name": "spender",
							"type": "address"
						}
					],
					"name": "allowance",
					"outputs": [
						{
							"internalType": "uint256",
							"name": "",
							"type": "uint256"
						}
					],
					"stateMutability": "view",
					"type": "function"
				},
				{
					"inputs": [
						{
							"internalType": "address",
							"name": "spender",
							"type": "address"
						},
						{
							"internalType": "uint256",
							"name": "value",
							"type": "uint256"
						}
					],
					"name": "approve",
					"outputs": [
						{
							"internalType": "bool",
							"name": "",
							"type": "bool"
						}
					],
					"stateMutability": "nonpayable",
					"type": "function"
				},
				{
					"inputs": [
						{
							"internalType": "address",
							"name": "account",
							"type": "address"
						}
					],
					"name": "balanceOf",
					"outputs": [
						{
							"internalType": "uint256",
							"name": "",
							"type": "uint256"
						}
					],
					"stateMutability": "view",
					"type": "function"
				},
				{
					"inputs": [],
					"name": "decimals",
					"outputs": [
						{
							"internalType": "uint8",
							"name": "",
							"type": "uint8"
						}
					],
					"stateMutability": "view",
					"type": "function"
				},
				{
					"inputs": [
						{
							"internalType": "string",
							"name": "saleName",
							"type": "string"
						}
					],
					"name": "getAssignedWalletAndSupply",
					"outputs": [
						{
							"internalType": "uint256",
							"name": "",
							"type": "uint256"
						},
						{
							"internalType": "address",
							"name": "",
							"type": "address"
						}
					],
					"stateMutability": "view",
					"type": "function"
				},
				{
					"inputs": [],
					"name": "getLatestSale",
					"outputs": [
						{
							"internalType": "string",
							"name": "",
							"type": "string"
						}
					],
					"stateMutability": "view",
					"type": "function"
				},
				{
					"inputs": [],
					"name": "getMaxSupply",
					"outputs": [
						{
							"internalType": "uint160",
							"name": "",
							"type": "uint160"
						}
					],
					"stateMutability": "pure",
					"type": "function"
				},
				{
					"inputs": [],
					"name": "mint",
					"outputs": [],
					"stateMutability": "nonpayable",
					"type": "function"
				},
				{
					"inputs": [
						{
							"internalType": "uint256",
							"name": "",
							"type": "uint256"
						}
					],
					"name": "mintedSale",
					"outputs": [
						{
							"internalType": "string",
							"name": "name",
							"type": "string"
						},
						{
							"internalType": "uint160",
							"name": "supply",
							"type": "uint160"
						},
						{
							"internalType": "address",
							"name": "walletAddress",
							"type": "address"
						}
					],
					"stateMutability": "view",
					"type": "function"
				},
				{
					"inputs": [],
					"name": "mintingCounter",
					"outputs": [
						{
							"internalType": "uint8",
							"name": "",
							"type": "uint8"
						}
					],
					"stateMutability": "view",
					"type": "function"
				},
				{
					"inputs": [],
					"name": "name",
					"outputs": [
						{
							"internalType": "string",
							"name": "",
							"type": "string"
						}
					],
					"stateMutability": "view",
					"type": "function"
				},
				{
					"inputs": [],
					"name": "owner",
					"outputs": [
						{
							"internalType": "address",
							"name": "",
							"type": "address"
						}
					],
					"stateMutability": "view",
					"type": "function"
				},
				{
					"inputs": [],
					"name": "renounceOwnership",
					"outputs": [],
					"stateMutability": "nonpayable",
					"type": "function"
				},
				{
					"inputs": [],
					"name": "symbol",
					"outputs": [
						{
							"internalType": "string",
							"name": "",
							"type": "string"
						}
					],
					"stateMutability": "view",
					"type": "function"
				},
				{
					"inputs": [],
					"name": "totalSupply",
					"outputs": [
						{
							"internalType": "uint256",
							"name": "",
							"type": "uint256"
						}
					],
					"stateMutability": "view",
					"type": "function"
				},
				{
					"inputs": [
						{
							"internalType": "address",
							"name": "to",
							"type": "address"
						},
						{
							"internalType": "uint256",
							"name": "value",
							"type": "uint256"
						}
					],
					"name": "transfer",
					"outputs": [
						{
							"internalType": "bool",
							"name": "",
							"type": "bool"
						}
					],
					"stateMutability": "nonpayable",
					"type": "function"
				},
				{
					"inputs": [
						{
							"internalType": "address",
							"name": "from",
							"type": "address"
						},
						{
							"internalType": "address",
							"name": "to",
							"type": "address"
						},
						{
							"internalType": "uint256",
							"name": "value",
							"type": "uint256"
						}
					],
					"name": "transferFrom",
					"outputs": [
						{
							"internalType": "bool",
							"name": "",
							"type": "bool"
						}
					],
					"stateMutability": "nonpayable",
					"type": "function"
				},
				{
					"inputs": [
						{
							"internalType": "address",
							"name": "newOwner",
							"type": "address"
						}
					],
					"name": "transferOwnership",
					"outputs": [],
					"stateMutability": "nonpayable",
					"type": "function"
				}
			],
			"devdoc": {
				"errors": {
					"ERC20InsufficientAllowance(address,uint256,uint256)": [
						{
							"details": "Indicates a failure with the `spender`’s `allowance`. Used in transfers.",
							"params": {
								"allowance": "Amount of tokens a `spender` is allowed to operate with.",
								"needed": "Minimum amount required to perform a transfer.",
								"spender": "Address that may be allowed to operate on tokens without being their owner."
							}
						}
					],
					"ERC20InsufficientBalance(address,uint256,uint256)": [
						{
							"details": "Indicates an error related to the current `balance` of a `sender`. Used in transfers.",
							"params": {
								"balance": "Current balance for the interacting account.",
								"needed": "Minimum amount required to perform a transfer.",
								"sender": "Address whose tokens are being transferred."
							}
						}
					],
					"ERC20InvalidApprover(address)": [
						{
							"details": "Indicates a failure with the `approver` of a token to be approved. Used in approvals.",
							"params": {
								"approver": "Address initiating an approval operation."
							}
						}
					],
					"ERC20InvalidReceiver(address)": [
						{
							"details": "Indicates a failure with the token `receiver`. Used in transfers.",
							"params": {
								"receiver": "Address to which tokens are being transferred."
							}
						}
					],
					"ERC20InvalidSender(address)": [
						{
							"details": "Indicates a failure with the token `sender`. Used in transfers.",
							"params": {
								"sender": "Address whose tokens are being transferred."
							}
						}
					],
					"ERC20InvalidSpender(address)": [
						{
							"details": "Indicates a failure with the `spender` to be approved. Used in approvals.",
							"params": {
								"spender": "Address that may be allowed to operate on tokens without being their owner."
							}
						}
					],
					"OwnableInvalidOwner(address)": [
						{
							"details": "The owner is not a valid owner account. (eg. `address(0)`)"
						}
					],
					"OwnableUnauthorizedAccount(address)": [
						{
							"details": "The caller account is not authorized to perform an operation."
						}
					]
				},
				"events": {
					"Approval(address,address,uint256)": {
						"details": "Emitted when the allowance of a `spender` for an `owner` is set by a call to {approve}. `value` is the new allowance."
					},
					"Transfer(address,address,uint256)": {
						"details": "Emitted when `value` tokens are moved from one account (`from`) to another (`to`). Note that `value` may be zero."
					}
				},
				"kind": "dev",
				"methods": {
					"allowance(address,address)": {
						"details": "See {IERC20-allowance}."
					},
					"approve(address,uint256)": {
						"details": "See {IERC20-approve}. NOTE: If `value` is the maximum `uint256`, the allowance is not updated on `transferFrom`. This is semantically equivalent to an infinite approval. Requirements: - `spender` cannot be the zero address."
					},
					"balanceOf(address)": {
						"details": "See {IERC20-balanceOf}."
					},
					"decimals()": {
						"details": "Returns the number of decimals used to get its user representation. For example, if `decimals` equals `2`, a balance of `505` tokens should be displayed to a user as `5.05` (`505 / 10 ** 2`). Tokens usually opt for a value of 18, imitating the relationship between Ether and Wei. This is the default value returned by this function, unless it's overridden. NOTE: This information is only used for _display_ purposes: it in no way affects any of the arithmetic of the contract, including {IERC20-balanceOf} and {IERC20-transfer}."
					},
					"name()": {
						"details": "Returns the name of the token."
					},
					"owner()": {
						"details": "Returns the address of the current owner."
					},
					"renounceOwnership()": {
						"details": "Leaves the contract without owner. It will not be possible to call `onlyOwner` functions. Can only be called by the current owner. NOTE: Renouncing ownership will leave the contract without an owner, thereby disabling any functionality that is only available to the owner."
					},
					"symbol()": {
						"details": "Returns the symbol of the token, usually a shorter version of the name."
					},
					"totalSupply()": {
						"details": "See {IERC20-totalSupply}."
					},
					"transfer(address,uint256)": {
						"details": "See {IERC20-transfer}. Requirements: - `to` cannot be the zero address. - the caller must have a balance of at least `value`."
					},
					"transferFrom(address,address,uint256)": {
						"details": "See {IERC20-transferFrom}. Emits an {Approval} event indicating the updated allowance. This is not required by the EIP. See the note at the beginning of {ERC20}. NOTE: Does not update the allowance if the current allowance is the maximum `uint256`. Requirements: - `from` and `to` cannot be the zero address. - `from` must have a balance of at least `value`. - the caller must have allowance for ``from``'s tokens of at least `value`."
					},
					"transferOwnership(address)": {
						"details": "Transfers ownership of the contract to a new account (`newOwner`). Can only be called by the current owner."
					}
				},
				"version": 1
			},
			"evm": {
				"assembly": "    /* \"contracts/Anryton.sol\":167:4718  contract Anryton is ERC20, Ownable {... */\n  mstore(0x40, 0x80)\n    /* \"contracts/Anryton.sol\":386:430  string private _latestSale = \"FRIEND_FAMILY\" */\n  mload(0x40)\n  dup1\n  0x40\n  add\n  0x40\n  mstore\n  dup1\n  0x0d\n  dup2\n  mstore\n  0x20\n  add\n  0x465249454e445f46414d494c5900000000000000000000000000000000000000\n  dup2\n  mstore\n  pop\n  0x06\n  swap1\n  dup2\n  tag_1\n  swap2\n  swap1\n  tag_2\n  jump\t// in\ntag_1:\n  pop\n    /* \"contracts/Anryton.sol\":466:467  0 */\n  0x00\n    /* \"contracts/Anryton.sol\":436:467  uint8 public mintingCounter = 0 */\n  0x07\n  exp(0x0100, 0x00)\n  dup2\n  sload\n  dup2\n  0xff\n  mul\n  not\n  and\n  swap1\n  dup4\n  0xff\n  and\n  mul\n  or\n  swap1\n  sstore\n  pop\n    /* \"contracts/Anryton.sol\":872:1056  constructor(... */\n  callvalue\n  dup1\n  iszero\n  tag_3\n  jumpi\n  0x00\n  dup1\n  revert\ntag_3:\n  pop\n  mload(0x40)\n  sub(codesize, bytecodeSize)\n  dup1\n  bytecodeSize\n  dup4\n  codecopy\n  dup2\n  dup2\n  add\n  0x40\n  mstore\n  dup2\n  add\n  swap1\n  tag_4\n  swap2\n  swap1\n  tag_5\n  jump\t// in\ntag_4:\n    /* \"contracts/Anryton.sol\":1000:1010  msg.sender */\n  caller\n    /* \"contracts/Anryton.sol\":966:976  _tokenName */\n  dup3\n    /* \"contracts/Anryton.sol\":978:990  _tokenSymbol */\n  dup3\n    /* \"@openzeppelin/contracts/token/ERC20/ERC20.sol\":1969:1974  name_ */\n  dup2\n    /* \"@openzeppelin/contracts/token/ERC20/ERC20.sol\":1961:1966  _name */\n  0x03\n    /* \"@openzeppelin/contracts/token/ERC20/ERC20.sol\":1961:1974  _name = name_ */\n  swap1\n  dup2\n  tag_10\n  swap2\n  swap1\n  tag_2\n  jump\t// in\ntag_10:\n  pop\n    /* \"@openzeppelin/contracts/token/ERC20/ERC20.sol\":1994:2001  symbol_ */\n  dup1\n    /* \"@openzeppelin/contracts/token/ERC20/ERC20.sol\":1984:1991  _symbol */\n  0x04\n    /* \"@openzeppelin/contracts/token/ERC20/ERC20.sol\":1984:2001  _symbol = symbol_ */\n  swap1\n  dup2\n  tag_11\n  swap2\n  swap1\n  tag_2\n  jump\t// in\ntag_11:\n  pop\n    /* \"@openzeppelin/contracts/token/ERC20/ERC20.sol\":1895:2008  constructor(string memory name_, string memory symbol_) {... */\n  pop\n  pop\n    /* \"@openzeppelin/contracts/access/Ownable.sol\":1296:1297  0 */\n  0x00\n    /* \"@openzeppelin/contracts/access/Ownable.sol\":1272:1298  initialOwner == address(0) */\n  0xffffffffffffffffffffffffffffffffffffffff\n  and\n    /* \"@openzeppelin/contracts/access/Ownable.sol\":1272:1284  initialOwner */\n  dup2\n    /* \"@openzeppelin/contracts/access/Ownable.sol\":1272:1298  initialOwner == address(0) */\n  0xffffffffffffffffffffffffffffffffffffffff\n  and\n  sub\n    /* \"@openzeppelin/contracts/access/Ownable.sol\":1268:1363  if (initialOwner == address(0)) {... */\n  tag_13\n  jumpi\n    /* \"@openzeppelin/contracts/access/Ownable.sol\":1349:1350  0 */\n  0x00\n    /* \"@openzeppelin/contracts/access/Ownable.sol\":1321:1352  OwnableInvalidOwner(address(0)) */\n  mload(0x40)\n  0x1e4fbdf700000000000000000000000000000000000000000000000000000000\n  dup2\n  mstore\n  0x04\n  add\n  tag_14\n  swap2\n  swap1\n  tag_15\n  jump\t// in\ntag_14:\n  mload(0x40)\n  dup1\n  swap2\n  sub\n  swap1\n  revert\n    /* \"@openzeppelin/contracts/access/Ownable.sol\":1268:1363  if (initialOwner == address(0)) {... */\ntag_13:\n    /* \"@openzeppelin/contracts/access/Ownable.sol\":1372:1404  _transferOwnership(initialOwner) */\n  tag_16\n    /* \"@openzeppelin/contracts/access/Ownable.sol\":1391:1403  initialOwner */\n  dup2\n    /* \"@openzeppelin/contracts/access/Ownable.sol\":1372:1390  _transferOwnership */\n  shl(0x20, tag_17)\n    /* \"@openzeppelin/contracts/access/Ownable.sol\":1372:1404  _transferOwnership(initialOwner) */\n  0x20\n  shr\n  jump\t// in\ntag_16:\n    /* \"@openzeppelin/contracts/access/Ownable.sol\":1224:1411  constructor(address initialOwner) {... */\n  pop\n    /* \"contracts/Anryton.sol\":1022:1049  _setCommissions(msg.sender) */\n  tag_19\n    /* \"contracts/Anryton.sol\":1038:1048  msg.sender */\n  caller\n    /* \"contracts/Anryton.sol\":1022:1037  _setCommissions */\n  shl(0x20, tag_20)\n    /* \"contracts/Anryton.sol\":1022:1049  _setCommissions(msg.sender) */\n  0x20\n  shr\n  jump\t// in\ntag_19:\n    /* \"contracts/Anryton.sol\":872:1056  constructor(... */\n  pop\n  pop\n    /* \"contracts/Anryton.sol\":167:4718  contract Anryton is ERC20, Ownable {... */\n  jump(tag_21)\n    /* \"@openzeppelin/contracts/access/Ownable.sol\":2911:3098  function _transferOwnership(address newOwner) internal virtual {... */\ntag_17:\n    /* \"@openzeppelin/contracts/access/Ownable.sol\":2984:3000  address oldOwner */\n  0x00\n    /* \"@openzeppelin/contracts/access/Ownable.sol\":3003:3009  _owner */\n  0x05\n  0x00\n  swap1\n  sload\n  swap1\n  0x0100\n  exp\n  swap1\n  div\n  0xffffffffffffffffffffffffffffffffffffffff\n  and\n    /* \"@openzeppelin/contracts/access/Ownable.sol\":2984:3009  address oldOwner = _owner */\n  swap1\n  pop\n    /* \"@openzeppelin/contracts/access/Ownable.sol\":3028:3036  newOwner */\n  dup2\n    /* \"@openzeppelin/contracts/access/Ownable.sol\":3019:3025  _owner */\n  0x05\n  0x00\n    /* \"@openzeppelin/contracts/access/Ownable.sol\":3019:3036  _owner = newOwner */\n  0x0100\n  exp\n  dup2\n  sload\n  dup2\n  0xffffffffffffffffffffffffffffffffffffffff\n  mul\n  not\n  and\n  swap1\n  dup4\n  0xffffffffffffffffffffffffffffffffffffffff\n  and\n  mul\n  or\n  swap1\n  sstore\n  pop\n    /* \"@openzeppelin/contracts/access/Ownable.sol\":3082:3090  newOwner */\n  dup2\n    /* \"@openzeppelin/contracts/access/Ownable.sol\":3051:3091  OwnershipTransferred(oldOwner, newOwner) */\n  0xffffffffffffffffffffffffffffffffffffffff\n  and\n    /* \"@openzeppelin/contracts/access/Ownable.sol\":3072:3080  oldOwner */\n  dup2\n    /* \"@openzeppelin/contracts/access/Ownable.sol\":3051:3091  OwnershipTransferred(oldOwner, newOwner) */\n  0xffffffffffffffffffffffffffffffffffffffff\n  and\n  0x8be0079c531659141344cd1fd0a4f28419497f9722a3daafe3b4186f6b6457e0\n  mload(0x40)\n  mload(0x40)\n  dup1\n  swap2\n  sub\n  swap1\n  log3\n    /* \"@openzeppelin/contracts/access/Ownable.sol\":2974:3098  {... */\n  pop\n    /* \"@openzeppelin/contracts/access/Ownable.sol\":2911:3098  function _transferOwnership(address newOwner) internal virtual {... */\n  pop\n  jump\t// out\n    /* \"contracts/Anryton.sol\":1062:2122  function _setCommissions(address _owner) private {... */\ntag_20:\n    /* \"contracts/Anryton.sol\":1121:1180  _calcSaleSupply(1, \"FRIEND_FAMILY\", _owner, 12000000 ether) */\n  tag_24\n    /* \"contracts/Anryton.sol\":1137:1138  1 */\n  0x01\n    /* \"contracts/Anryton.sol\":1121:1180  _calcSaleSupply(1, \"FRIEND_FAMILY\", _owner, 12000000 ether) */\n  mload(0x40)\n  dup1\n  0x40\n  add\n  0x40\n  mstore\n  dup1\n  0x0d\n  dup2\n  mstore\n  0x20\n  add\n  0x465249454e445f46414d494c5900000000000000000000000000000000000000\n  dup2\n  mstore\n  pop\n    /* \"contracts/Anryton.sol\":1157:1163  _owner */\n  dup4\n    /* \"contracts/Anryton.sol\":1165:1179  12000000 ether */\n  0x09ed194db19b238c000000\n    /* \"contracts/Anryton.sol\":1121:1136  _calcSaleSupply */\n  shl(0x20, tag_25)\n    /* \"contracts/Anryton.sol\":1121:1180  _calcSaleSupply(1, \"FRIEND_FAMILY\", _owner, 12000000 ether) */\n  0x20\n  shr\n  jump\t// in\ntag_24:\n    /* \"contracts/Anryton.sol\":1190:1248  _calcSaleSupply(2, \"PRIVATE_SALE\", _owner, 24000000 ether) */\n  tag_26\n    /* \"contracts/Anryton.sol\":1206:1207  2 */\n  0x02\n    /* \"contracts/Anryton.sol\":1190:1248  _calcSaleSupply(2, \"PRIVATE_SALE\", _owner, 24000000 ether) */\n  mload(0x40)\n  dup1\n  0x40\n  add\n  0x40\n  mstore\n  dup1\n  0x0c\n  dup2\n  mstore\n  0x20\n  add\n  0x505249564154455f53414c450000000000000000000000000000000000000000\n  dup2\n  mstore\n  pop\n    /* \"contracts/Anryton.sol\":1225:1231  _owner */\n  dup4\n    /* \"contracts/Anryton.sol\":1233:1247  24000000 ether */\n  0x13da329b63364718000000\n    /* \"contracts/Anryton.sol\":1190:1205  _calcSaleSupply */\n  shl(0x20, tag_25)\n    /* \"contracts/Anryton.sol\":1190:1248  _calcSaleSupply(2, \"PRIVATE_SALE\", _owner, 24000000 ether) */\n  0x20\n  shr\n  jump\t// in\ntag_26:\n    /* \"contracts/Anryton.sol\":1258:1315  _calcSaleSupply(3, \"PUBLIC_SALE\", _owner, 24000000 ether) */\n  tag_27\n    /* \"contracts/Anryton.sol\":1274:1275  3 */\n  0x03\n    /* \"contracts/Anryton.sol\":1258:1315  _calcSaleSupply(3, \"PUBLIC_SALE\", _owner, 24000000 ether) */\n  mload(0x40)\n  dup1\n  0x40\n  add\n  0x40\n  mstore\n  dup1\n  0x0b\n  dup2\n  mstore\n  0x20\n  add\n  0x5055424c49435f53414c45000000000000000000000000000000000000000000\n  dup2\n  mstore\n  pop\n    /* \"contracts/Anryton.sol\":1292:1298  _owner */\n  dup4\n    /* \"contracts/Anryton.sol\":1300:1314  24000000 ether */\n  0x13da329b63364718000000\n    /* \"contracts/Anryton.sol\":1258:1273  _calcSaleSupply */\n  shl(0x20, tag_25)\n    /* \"contracts/Anryton.sol\":1258:1315  _calcSaleSupply(3, \"PUBLIC_SALE\", _owner, 24000000 ether) */\n  0x20\n  shr\n  jump\t// in\ntag_27:\n    /* \"contracts/Anryton.sol\":1325:1375  _calcSaleSupply(4, \"TEAM\", _owner, 40000000 ether) */\n  tag_28\n    /* \"contracts/Anryton.sol\":1341:1342  4 */\n  0x04\n    /* \"contracts/Anryton.sol\":1325:1375  _calcSaleSupply(4, \"TEAM\", _owner, 40000000 ether) */\n  mload(0x40)\n  dup1\n  0x40\n  add\n  0x40\n  mstore\n  dup1\n  0x04\n  dup2\n  mstore\n  0x20\n  add\n  0x5445414d00000000000000000000000000000000000000000000000000000000\n  dup2\n  mstore\n  pop\n    /* \"contracts/Anryton.sol\":1352:1358  _owner */\n  dup4\n    /* \"contracts/Anryton.sol\":1360:1374  40000000 ether */\n  0x2116545850052128000000\n    /* \"contracts/Anryton.sol\":1325:1340  _calcSaleSupply */\n  shl(0x20, tag_25)\n    /* \"contracts/Anryton.sol\":1325:1375  _calcSaleSupply(4, \"TEAM\", _owner, 40000000 ether) */\n  0x20\n  shr\n  jump\t// in\ntag_28:\n    /* \"contracts/Anryton.sol\":1385:1440  _calcSaleSupply(5, \"RESERVES\", _owner, 100000000 ether) */\n  tag_29\n    /* \"contracts/Anryton.sol\":1401:1402  5 */\n  0x05\n    /* \"contracts/Anryton.sol\":1385:1440  _calcSaleSupply(5, \"RESERVES\", _owner, 100000000 ether) */\n  mload(0x40)\n  dup1\n  0x40\n  add\n  0x40\n  mstore\n  dup1\n  0x08\n  dup2\n  mstore\n  0x20\n  add\n  0x5245534552564553000000000000000000000000000000000000000000000000\n  dup2\n  mstore\n  pop\n    /* \"contracts/Anryton.sol\":1416:1422  _owner */\n  dup4\n    /* \"contracts/Anryton.sol\":1424:1439  100000000 ether */\n  0x52b7d2dcc80cd2e4000000\n    /* \"contracts/Anryton.sol\":1385:1400  _calcSaleSupply */\n  shl(0x20, tag_25)\n    /* \"contracts/Anryton.sol\":1385:1440  _calcSaleSupply(5, \"RESERVES\", _owner, 100000000 ether) */\n  0x20\n  shr\n  jump\t// in\ntag_29:\n    /* \"contracts/Anryton.sol\":1450:1580  _calcSaleSupply(... */\n  tag_30\n    /* \"contracts/Anryton.sol\":1479:1480  6 */\n  0x06\n    /* \"contracts/Anryton.sol\":1450:1580  _calcSaleSupply(... */\n  mload(0x40)\n  dup1\n  0x40\n  add\n  0x40\n  mstore\n  dup1\n  0x1a\n  dup2\n  mstore\n  0x20\n  add\n  0x53544f524147455f4d494e54494e475f414c4c4f434154494f4e000000000000\n  dup2\n  mstore\n  pop\n    /* \"contracts/Anryton.sol\":1536:1542  _owner */\n  dup4\n    /* \"contracts/Anryton.sol\":1556:1570  40000000 ether */\n  0x2116545850052128000000\n    /* \"contracts/Anryton.sol\":1450:1465  _calcSaleSupply */\n  shl(0x20, tag_25)\n    /* \"contracts/Anryton.sol\":1450:1580  _calcSaleSupply(... */\n  0x20\n  shr\n  jump\t// in\ntag_30:\n    /* \"contracts/Anryton.sol\":1590:1649  _calcSaleSupply(7, \"GRANTS_REWARD\", _owner, 80000000 ether) */\n  tag_31\n    /* \"contracts/Anryton.sol\":1606:1607  7 */\n  0x07\n    /* \"contracts/Anryton.sol\":1590:1649  _calcSaleSupply(7, \"GRANTS_REWARD\", _owner, 80000000 ether) */\n  mload(0x40)\n  dup1\n  0x40\n  add\n  0x40\n  mstore\n  dup1\n  0x0d\n  dup2\n  mstore\n  0x20\n  add\n  0x4752414e54535f52455741524400000000000000000000000000000000000000\n  dup2\n  mstore\n  pop\n    /* \"contracts/Anryton.sol\":1626:1632  _owner */\n  dup4\n    /* \"contracts/Anryton.sol\":1634:1648  80000000 ether */\n  0x422ca8b0a00a4250000000\n    /* \"contracts/Anryton.sol\":1590:1605  _calcSaleSupply */\n  shl(0x20, tag_25)\n    /* \"contracts/Anryton.sol\":1590:1649  _calcSaleSupply(7, \"GRANTS_REWARD\", _owner, 80000000 ether) */\n  0x20\n  shr\n  jump\t// in\ntag_31:\n    /* \"contracts/Anryton.sol\":1659:1715  _calcSaleSupply(8, \"MARKETTING\", _owner, 40000000 ether) */\n  tag_32\n    /* \"contracts/Anryton.sol\":1675:1676  8 */\n  0x08\n    /* \"contracts/Anryton.sol\":1659:1715  _calcSaleSupply(8, \"MARKETTING\", _owner, 40000000 ether) */\n  mload(0x40)\n  dup1\n  0x40\n  add\n  0x40\n  mstore\n  dup1\n  0x0a\n  dup2\n  mstore\n  0x20\n  add\n  0x4d41524b455454494e4700000000000000000000000000000000000000000000\n  dup2\n  mstore\n  pop\n    /* \"contracts/Anryton.sol\":1692:1698  _owner */\n  dup4\n    /* \"contracts/Anryton.sol\":1700:1714  40000000 ether */\n  0x2116545850052128000000\n    /* \"contracts/Anryton.sol\":1659:1674  _calcSaleSupply */\n  shl(0x20, tag_25)\n    /* \"contracts/Anryton.sol\":1659:1715  _calcSaleSupply(8, \"MARKETTING\", _owner, 40000000 ether) */\n  0x20\n  shr\n  jump\t// in\ntag_32:\n    /* \"contracts/Anryton.sol\":1725:1779  _calcSaleSupply(9, \"ADVISORS\", _owner, 12000000 ether) */\n  tag_33\n    /* \"contracts/Anryton.sol\":1741:1742  9 */\n  0x09\n    /* \"contracts/Anryton.sol\":1725:1779  _calcSaleSupply(9, \"ADVISORS\", _owner, 12000000 ether) */\n  mload(0x40)\n  dup1\n  0x40\n  add\n  0x40\n  mstore\n  dup1\n  0x08\n  dup2\n  mstore\n  0x20\n  add\n  0x41445649534f5253000000000000000000000000000000000000000000000000\n  dup2\n  mstore\n  pop\n    /* \"contracts/Anryton.sol\":1756:1762  _owner */\n  dup4\n    /* \"contracts/Anryton.sol\":1764:1778  12000000 ether */\n  0x09ed194db19b238c000000\n    /* \"contracts/Anryton.sol\":1725:1740  _calcSaleSupply */\n  shl(0x20, tag_25)\n    /* \"contracts/Anryton.sol\":1725:1779  _calcSaleSupply(9, \"ADVISORS\", _owner, 12000000 ether) */\n  0x20\n  shr\n  jump\t// in\ntag_33:\n    /* \"contracts/Anryton.sol\":1789:1920  _calcSaleSupply(... */\n  tag_34\n    /* \"contracts/Anryton.sol\":1818:1820  10 */\n  0x0a\n    /* \"contracts/Anryton.sol\":1789:1920  _calcSaleSupply(... */\n  mload(0x40)\n  dup1\n  0x40\n  add\n  0x40\n  mstore\n  dup1\n  0x1a\n  dup2\n  mstore\n  0x20\n  add\n  0x4c49515549444954595f45584348414e47455f4c495354494e47000000000000\n  dup2\n  mstore\n  pop\n    /* \"contracts/Anryton.sol\":1876:1882  _owner */\n  dup4\n    /* \"contracts/Anryton.sol\":1896:1910  20000000 ether */\n  0x108b2a2c28029094000000\n    /* \"contracts/Anryton.sol\":1789:1804  _calcSaleSupply */\n  shl(0x20, tag_25)\n    /* \"contracts/Anryton.sol\":1789:1920  _calcSaleSupply(... */\n  0x20\n  shr\n  jump\t// in\ntag_34:\n    /* \"contracts/Anryton.sol\":1930:1983  _calcSaleSupply(11, \"STAKING\", _owner, 8000000 ether) */\n  tag_35\n    /* \"contracts/Anryton.sol\":1946:1948  11 */\n  0x0b\n    /* \"contracts/Anryton.sol\":1930:1983  _calcSaleSupply(11, \"STAKING\", _owner, 8000000 ether) */\n  mload(0x40)\n  dup1\n  0x40\n  add\n  0x40\n  mstore\n  dup1\n  0x07\n  dup2\n  mstore\n  0x20\n  add\n  0x5354414b494e4700000000000000000000000000000000000000000000000000\n  dup2\n  mstore\n  pop\n    /* \"contracts/Anryton.sol\":1961:1967  _owner */\n  dup4\n    /* \"contracts/Anryton.sol\":1969:1982  8000000 ether */\n  0x069e10de76676d08000000\n    /* \"contracts/Anryton.sol\":1930:1945  _calcSaleSupply */\n  shl(0x20, tag_25)\n    /* \"contracts/Anryton.sol\":1930:1983  _calcSaleSupply(11, \"STAKING\", _owner, 8000000 ether) */\n  0x20\n  shr\n  jump\t// in\ntag_35:\n    /* \"contracts/Anryton.sol\":2109:2115  mint() */\n  tag_36\n    /* \"contracts/Anryton.sol\":2109:2113  mint */\n  shl(0x20, tag_37)\n    /* \"contracts/Anryton.sol\":2109:2115  mint() */\n  0x20\n  shr\n  jump\t// in\ntag_36:\n    /* \"contracts/Anryton.sol\":1062:2122  function _setCommissions(address _owner) private {... */\n  pop\n  jump\t// out\n    /* \"contracts/Anryton.sol\":2219:2518  function _calcSaleSupply(... */\ntag_25:\n    /* \"contracts/Anryton.sol\":2402:2407  _name */\n  dup3\n    /* \"contracts/Anryton.sol\":2376:2386  mintedSale */\n  0x0a\n    /* \"contracts/Anryton.sol\":2376:2394  mintedSale[serial] */\n  0x00\n    /* \"contracts/Anryton.sol\":2387:2393  serial */\n  dup7\n    /* \"contracts/Anryton.sol\":2376:2394  mintedSale[serial] */\n  0xff\n  and\n  dup2\n  mstore\n  0x20\n  add\n  swap1\n  dup2\n  mstore\n  0x20\n  add\n  0x00\n  keccak256\n    /* \"contracts/Anryton.sol\":2376:2399  mintedSale[serial].name */\n  0x00\n  add\n    /* \"contracts/Anryton.sol\":2376:2407  mintedSale[serial].name = _name */\n  swap1\n  dup2\n  tag_39\n  swap2\n  swap1\n  tag_2\n  jump\t// in\ntag_39:\n  pop\n    /* \"contracts/Anryton.sol\":2445:2452  _supply */\n  dup1\n    /* \"contracts/Anryton.sol\":2417:2427  mintedSale */\n  0x0a\n    /* \"contracts/Anryton.sol\":2417:2435  mintedSale[serial] */\n  0x00\n    /* \"contracts/Anryton.sol\":2428:2434  serial */\n  dup7\n    /* \"contracts/Anryton.sol\":2417:2435  mintedSale[serial] */\n  0xff\n  and\n  dup2\n  mstore\n  0x20\n  add\n  swap1\n  dup2\n  mstore\n  0x20\n  add\n  0x00\n  keccak256\n    /* \"contracts/Anryton.sol\":2417:2442  mintedSale[serial].supply */\n  0x01\n  add\n  0x00\n    /* \"contracts/Anryton.sol\":2417:2452  mintedSale[serial].supply = _supply */\n  0x0100\n  exp\n  dup2\n  sload\n  dup2\n  0xffffffffffffffffffffffffffffffffffffffff\n  mul\n  not\n  and\n  swap1\n  dup4\n  0xffffffffffffffffffffffffffffffffffffffff\n  and\n  mul\n  or\n  swap1\n  sstore\n  pop\n    /* \"contracts/Anryton.sol\":2497:2511  _walletAddress */\n  dup2\n    /* \"contracts/Anryton.sol\":2462:2472  mintedSale */\n  0x0a\n    /* \"contracts/Anryton.sol\":2462:2480  mintedSale[serial] */\n  0x00\n    /* \"contracts/Anryton.sol\":2473:2479  serial */\n  dup7\n    /* \"contracts/Anryton.sol\":2462:2480  mintedSale[serial] */\n  0xff\n  and\n  dup2\n  mstore\n  0x20\n  add\n  swap1\n  dup2\n  mstore\n  0x20\n  add\n  0x00\n  keccak256\n    /* \"contracts/Anryton.sol\":2462:2494  mintedSale[serial].walletAddress */\n  0x02\n  add\n  0x00\n    /* \"contracts/Anryton.sol\":2462:2511  mintedSale[serial].walletAddress = _walletAddress */\n  0x0100\n  exp\n  dup2\n  sload\n  dup2\n  0xffffffffffffffffffffffffffffffffffffffff\n  mul\n  not\n  and\n  swap1\n  dup4\n  0xffffffffffffffffffffffffffffffffffffffff\n  and\n  mul\n  or\n  swap1\n  sstore\n  pop\n    /* \"contracts/Anryton.sol\":2219:2518  function _calcSaleSupply(... */\n  pop\n  pop\n  pop\n  pop\n  jump\t// out\n    /* \"contracts/Anryton.sol\":2661:3402  function mint() public onlyOwner {... */\ntag_37:\n    /* \"@openzeppelin/contracts/access/Ownable.sol\":1530:1543  _checkOwner() */\n  tag_41\n    /* \"@openzeppelin/contracts/access/Ownable.sol\":1530:1541  _checkOwner */\n  shl(0x20, tag_42)\n    /* \"@openzeppelin/contracts/access/Ownable.sol\":1530:1543  _checkOwner() */\n  0x20\n  shr\n  jump\t// in\ntag_41:\n    /* \"contracts/Anryton.sol\":2704:2719  uint8 saleCount */\n  0x00\n    /* \"contracts/Anryton.sol\":2724:2738  mintingCounter */\n  0x07\n  0x00\n    /* \"contracts/Anryton.sol\":2722:2738  ++mintingCounter */\n  dup2\n  dup2\n  swap1\n  sload\n  swap1\n  0x0100\n  exp\n  swap1\n  div\n  0xff\n  and\n  tag_44\n  swap1\n  tag_45\n  jump\t// in\ntag_44:\n  swap2\n  swap1\n  0x0100\n  exp\n  dup2\n  sload\n  dup2\n  0xff\n  mul\n  not\n  and\n  swap1\n  dup4\n  0xff\n  and\n  mul\n  or\n  swap1\n  sstore\n    /* \"contracts/Anryton.sol\":2704:2738  uint8 saleCount = ++mintingCounter */\n  swap1\n  pop\n    /* \"contracts/Anryton.sol\":2748:2778  MintingSale memory mintingSale */\n  0x00\n    /* \"contracts/Anryton.sol\":2781:2791  mintedSale */\n  0x0a\n    /* \"contracts/Anryton.sol\":2781:2802  mintedSale[saleCount] */\n  0x00\n    /* \"contracts/Anryton.sol\":2792:2801  saleCount */\n  dup4\n    /* \"contracts/Anryton.sol\":2781:2802  mintedSale[saleCount] */\n  0xff\n  and\n  dup2\n  mstore\n  0x20\n  add\n  swap1\n  dup2\n  mstore\n  0x20\n  add\n  0x00\n  keccak256\n    /* \"contracts/Anryton.sol\":2748:2802  MintingSale memory mintingSale = mintedSale[saleCount] */\n  mload(0x40)\n  dup1\n  0x60\n  add\n  0x40\n  mstore\n  swap1\n  dup2\n  0x00\n  dup3\n  add\n  dup1\n  sload\n  tag_46\n  swap1\n  tag_47\n  jump\t// in\ntag_46:\n  dup1\n  0x1f\n  add\n  0x20\n  dup1\n  swap2\n  div\n  mul\n  0x20\n  add\n  mload(0x40)\n  swap1\n  dup2\n  add\n  0x40\n  mstore\n  dup1\n  swap3\n  swap2\n  swap1\n  dup2\n  dup2\n  mstore\n  0x20\n  add\n  dup3\n  dup1\n  sload\n  tag_48\n  swap1\n  tag_47\n  jump\t// in\ntag_48:\n  dup1\n  iszero\n  tag_49\n  jumpi\n  dup1\n  0x1f\n  lt\n  tag_50\n  jumpi\n  0x0100\n  dup1\n  dup4\n  sload\n  div\n  mul\n  dup4\n  mstore\n  swap2\n  0x20\n  add\n  swap2\n  jump(tag_49)\ntag_50:\n  dup3\n  add\n  swap2\n  swap1\n  0x00\n  mstore\n  keccak256(0x00, 0x20)\n  swap1\ntag_51:\n  dup2\n  sload\n  dup2\n  mstore\n  swap1\n  0x01\n  add\n  swap1\n  0x20\n  add\n  dup1\n  dup4\n  gt\n  tag_51\n  jumpi\n  dup3\n  swap1\n  sub\n  0x1f\n  and\n  dup3\n  add\n  swap2\ntag_49:\n  pop\n  pop\n  pop\n  pop\n  pop\n  dup2\n  mstore\n  0x20\n  add\n  0x01\n  dup3\n  add\n  0x00\n  swap1\n  sload\n  swap1\n  0x0100\n  exp\n  swap1\n  div\n  0xffffffffffffffffffffffffffffffffffffffff\n  and\n  0xffffffffffffffffffffffffffffffffffffffff\n  and\n  0xffffffffffffffffffffffffffffffffffffffff\n  and\n  dup2\n  mstore\n  0x20\n  add\n  0x02\n  dup3\n  add\n  0x00\n  swap1\n  sload\n  swap1\n  0x0100\n  exp\n  swap1\n  div\n  0xffffffffffffffffffffffffffffffffffffffff\n  and\n  0xffffffffffffffffffffffffffffffffffffffff\n  and\n  0xffffffffffffffffffffffffffffffffffffffff\n  and\n  dup2\n  mstore\n  pop\n  pop\n  swap1\n  pop\n    /* \"contracts/Anryton.sol\":2925:2926  0 */\n  0x00\n    /* \"contracts/Anryton.sol\":2904:2915  mintingSale */\n  dup2\n    /* \"contracts/Anryton.sol\":2904:2922  mintingSale.supply */\n  0x20\n  add\n  mload\n    /* \"contracts/Anryton.sol\":2904:2926  mintingSale.supply > 0 */\n  0xffffffffffffffffffffffffffffffffffffffff\n  and\n  gt\n    /* \"contracts/Anryton.sol\":2883:2999  require(... */\n  tag_52\n  jumpi\n  mload(0x40)\n  0x08c379a000000000000000000000000000000000000000000000000000000000\n  dup2\n  mstore\n  0x04\n  add\n  tag_53\n  swap1\n  tag_54\n  jump\t// in\ntag_53:\n  mload(0x40)\n  dup1\n  swap2\n  sub\n  swap1\n  revert\ntag_52:\n    /* \"contracts/Anryton.sol\":3067:3068  0 */\n  0x00\n    /* \"contracts/Anryton.sol\":3030:3069  mintingSale.walletAddress != address(0) */\n  0xffffffffffffffffffffffffffffffffffffffff\n  and\n    /* \"contracts/Anryton.sol\":3030:3041  mintingSale */\n  dup2\n    /* \"contracts/Anryton.sol\":3030:3055  mintingSale.walletAddress */\n  0x40\n  add\n  mload\n    /* \"contracts/Anryton.sol\":3030:3069  mintingSale.walletAddress != address(0) */\n  0xffffffffffffffffffffffffffffffffffffffff\n  and\n  sub\n    /* \"contracts/Anryton.sol\":3009:3143  require(... */\n  tag_55\n  jumpi\n  mload(0x40)\n  0x08c379a000000000000000000000000000000000000000000000000000000000\n  dup2\n  mstore\n  0x04\n  add\n  tag_56\n  swap1\n  tag_57\n  jump\t// in\ntag_56:\n  mload(0x40)\n  dup1\n  swap2\n  sub\n  swap1\n  revert\ntag_55:\n    /* \"contracts/Anryton.sol\":3202:3254  _mint(mintingSale.walletAddress, mintingSale.supply) */\n  tag_58\n    /* \"contracts/Anryton.sol\":3208:3219  mintingSale */\n  dup2\n    /* \"contracts/Anryton.sol\":3208:3233  mintingSale.walletAddress */\n  0x40\n  add\n  mload\n    /* \"contracts/Anryton.sol\":3235:3246  mintingSale */\n  dup3\n    /* \"contracts/Anryton.sol\":3235:3253  mintingSale.supply */\n  0x20\n  add\n  mload\n    /* \"contracts/Anryton.sol\":3202:3254  _mint(mintingSale.walletAddress, mintingSale.supply) */\n  0xffffffffffffffffffffffffffffffffffffffff\n  and\n    /* \"contracts/Anryton.sol\":3202:3207  _mint */\n  shl(0x20, tag_59)\n    /* \"contracts/Anryton.sol\":3202:3254  _mint(mintingSale.walletAddress, mintingSale.supply) */\n  0x20\n  shr\n  jump\t// in\ntag_58:\n    /* \"contracts/Anryton.sol\":3264:3395  _setSaleSupplyWallet(... */\n  tag_60\n    /* \"contracts/Anryton.sol\":3298:3309  mintingSale */\n  dup2\n    /* \"contracts/Anryton.sol\":3298:3314  mintingSale.name */\n  0x00\n  add\n  mload\n    /* \"contracts/Anryton.sol\":3328:3339  mintingSale */\n  dup3\n    /* \"contracts/Anryton.sol\":3328:3353  mintingSale.walletAddress */\n  0x40\n  add\n  mload\n    /* \"contracts/Anryton.sol\":3367:3378  mintingSale */\n  dup4\n    /* \"contracts/Anryton.sol\":3367:3385  mintingSale.supply */\n  0x20\n  add\n  mload\n    /* \"contracts/Anryton.sol\":3264:3395  _setSaleSupplyWallet(... */\n  0xffffffffffffffffffffffffffffffffffffffff\n  and\n    /* \"contracts/Anryton.sol\":3264:3284  _setSaleSupplyWallet */\n  shl(0x20, tag_61)\n    /* \"contracts/Anryton.sol\":3264:3395  _setSaleSupplyWallet(... */\n  0x20\n  shr\n  jump\t// in\ntag_60:\n    /* \"contracts/Anryton.sol\":2694:3402  {... */\n  pop\n  pop\n    /* \"contracts/Anryton.sol\":2661:3402  function mint() public onlyOwner {... */\n  jump\t// out\n    /* \"@openzeppelin/contracts/access/Ownable.sol\":1795:1957  function _checkOwner() internal view virtual {... */\ntag_42:\n    /* \"@openzeppelin/contracts/access/Ownable.sol\":1865:1877  _msgSender() */\n  tag_63\n    /* \"@openzeppelin/contracts/access/Ownable.sol\":1865:1875  _msgSender */\n  shl(0x20, tag_64)\n    /* \"@openzeppelin/contracts/access/Ownable.sol\":1865:1877  _msgSender() */\n  0x20\n  shr\n  jump\t// in\ntag_63:\n    /* \"@openzeppelin/contracts/access/Ownable.sol\":1854:1877  owner() != _msgSender() */\n  0xffffffffffffffffffffffffffffffffffffffff\n  and\n    /* \"@openzeppelin/contracts/access/Ownable.sol\":1854:1861  owner() */\n  tag_65\n    /* \"@openzeppelin/contracts/access/Ownable.sol\":1854:1859  owner */\n  shl(0x20, tag_66)\n    /* \"@openzeppelin/contracts/access/Ownable.sol\":1854:1861  owner() */\n  0x20\n  shr\n  jump\t// in\ntag_65:\n    /* \"@openzeppelin/contracts/access/Ownable.sol\":1854:1877  owner() != _msgSender() */\n  0xffffffffffffffffffffffffffffffffffffffff\n  and\n  eq\n    /* \"@openzeppelin/contracts/access/Ownable.sol\":1850:1951  if (owner() != _msgSender()) {... */\n  tag_67\n  jumpi\n    /* \"@openzeppelin/contracts/access/Ownable.sol\":1927:1939  _msgSender() */\n  tag_68\n    /* \"@openzeppelin/contracts/access/Ownable.sol\":1927:1937  _msgSender */\n  shl(0x20, tag_64)\n    /* \"@openzeppelin/contracts/access/Ownable.sol\":1927:1939  _msgSender() */\n  0x20\n  shr\n  jump\t// in\ntag_68:\n    /* \"@openzeppelin/contracts/access/Ownable.sol\":1900:1940  OwnableUnauthorizedAccount(_msgSender()) */\n  mload(0x40)\n  0x118cdaa700000000000000000000000000000000000000000000000000000000\n  dup2\n  mstore\n  0x04\n  add\n  tag_69\n  swap2\n  swap1\n  tag_15\n  jump\t// in\ntag_69:\n  mload(0x40)\n  dup1\n  swap2\n  sub\n  swap1\n  revert\n    /* \"@openzeppelin/contracts/access/Ownable.sol\":1850:1951  if (owner() != _msgSender()) {... */\ntag_67:\n    /* \"@openzeppelin/contracts/access/Ownable.sol\":1795:1957  function _checkOwner() internal view virtual {... */\n  jump\t// out\n    /* \"@openzeppelin/contracts/token/ERC20/ERC20.sol\":7720:7928  function _mint(address account, uint256 value) internal {... */\ntag_59:\n    /* \"@openzeppelin/contracts/token/ERC20/ERC20.sol\":7809:7810  0 */\n  0x00\n    /* \"@openzeppelin/contracts/token/ERC20/ERC20.sol\":7790:7811  account == address(0) */\n  0xffffffffffffffffffffffffffffffffffffffff\n  and\n    /* \"@openzeppelin/contracts/token/ERC20/ERC20.sol\":7790:7797  account */\n  dup3\n    /* \"@openzeppelin/contracts/token/ERC20/ERC20.sol\":7790:7811  account == address(0) */\n  0xffffffffffffffffffffffffffffffffffffffff\n  and\n  sub\n    /* \"@openzeppelin/contracts/token/ERC20/ERC20.sol\":7786:7877  if (account == address(0)) {... */\n  tag_71\n  jumpi\n    /* \"@openzeppelin/contracts/token/ERC20/ERC20.sol\":7863:7864  0 */\n  0x00\n    /* \"@openzeppelin/contracts/token/ERC20/ERC20.sol\":7834:7866  ERC20InvalidReceiver(address(0)) */\n  mload(0x40)\n  0xec442f0500000000000000000000000000000000000000000000000000000000\n  dup2\n  mstore\n  0x04\n  add\n  tag_72\n  swap2\n  swap1\n  tag_15\n  jump\t// in\ntag_72:\n  mload(0x40)\n  dup1\n  swap2\n  sub\n  swap1\n  revert\n    /* \"@openzeppelin/contracts/token/ERC20/ERC20.sol\":7786:7877  if (account == address(0)) {... */\ntag_71:\n    /* \"@openzeppelin/contracts/token/ERC20/ERC20.sol\":7886:7921  _update(address(0), account, value) */\n  tag_73\n    /* \"@openzeppelin/contracts/token/ERC20/ERC20.sol\":7902:7903  0 */\n  0x00\n    /* \"@openzeppelin/contracts/token/ERC20/ERC20.sol\":7906:7913  account */\n  dup4\n    /* \"@openzeppelin/contracts/token/ERC20/ERC20.sol\":7915:7920  value */\n  dup4\n    /* \"@openzeppelin/contracts/token/ERC20/ERC20.sol\":7886:7893  _update */\n  shl(0x20, tag_74)\n    /* \"@openzeppelin/contracts/token/ERC20/ERC20.sol\":7886:7921  _update(address(0), account, value) */\n  0x20\n  shr\n  jump\t// in\ntag_73:\n    /* \"@openzeppelin/contracts/token/ERC20/ERC20.sol\":7720:7928  function _mint(address account, uint256 value) internal {... */\n  pop\n  pop\n  jump\t// out\n    /* \"contracts/Anryton.sol\":3520:3887  function _setSaleSupplyWallet(... */\ntag_61:\n    /* \"contracts/Anryton.sol\":3678:3687  _saleName */\n  dup3\n    /* \"contracts/Anryton.sol\":3664:3675  _latestSale */\n  0x06\n    /* \"contracts/Anryton.sol\":3664:3687  _latestSale = _saleName */\n  swap1\n  dup2\n  tag_76\n  swap2\n  swap1\n  tag_2\n  jump\t// in\ntag_76:\n  pop\n    /* \"contracts/Anryton.sol\":3731:3745  _walletAddress */\n  dup2\n    /* \"contracts/Anryton.sol\":3697:3717  assignedWalletToSale */\n  0x08\n    /* \"contracts/Anryton.sol\":3718:3727  _saleName */\n  dup5\n    /* \"contracts/Anryton.sol\":3697:3728  assignedWalletToSale[_saleName] */\n  mload(0x40)\n  tag_77\n  swap2\n  swap1\n  tag_78\n  jump\t// in\ntag_77:\n  swap1\n  dup2\n  mstore\n  0x20\n  add\n  mload(0x40)\n  dup1\n  swap2\n  sub\n  swap1\n  keccak256\n  0x00\n    /* \"contracts/Anryton.sol\":3697:3745  assignedWalletToSale[_saleName] = _walletAddress */\n  0x0100\n  exp\n  dup2\n  sload\n  dup2\n  0xffffffffffffffffffffffffffffffffffffffff\n  mul\n  not\n  and\n  swap1\n  dup4\n  0xffffffffffffffffffffffffffffffffffffffff\n  and\n  mul\n  or\n  swap1\n  sstore\n  pop\n    /* \"contracts/Anryton.sol\":3803:3810  _supply */\n  dup1\n    /* \"contracts/Anryton.sol\":3755:3773  mintedWalletSupply */\n  0x09\n    /* \"contracts/Anryton.sol\":3774:3783  _saleName */\n  dup5\n    /* \"contracts/Anryton.sol\":3755:3784  mintedWalletSupply[_saleName] */\n  mload(0x40)\n  tag_79\n  swap2\n  swap1\n  tag_78\n  jump\t// in\ntag_79:\n  swap1\n  dup2\n  mstore\n  0x20\n  add\n  mload(0x40)\n  dup1\n  swap2\n  sub\n  swap1\n  keccak256\n    /* \"contracts/Anryton.sol\":3755:3800  mintedWalletSupply[_saleName][_walletAddress] */\n  0x00\n    /* \"contracts/Anryton.sol\":3785:3799  _walletAddress */\n  dup5\n    /* \"contracts/Anryton.sol\":3755:3800  mintedWalletSupply[_saleName][_walletAddress] */\n  0xffffffffffffffffffffffffffffffffffffffff\n  and\n  0xffffffffffffffffffffffffffffffffffffffff\n  and\n  dup2\n  mstore\n  0x20\n  add\n  swap1\n  dup2\n  mstore\n  0x20\n  add\n  0x00\n  keccak256\n    /* \"contracts/Anryton.sol\":3755:3810  mintedWalletSupply[_saleName][_walletAddress] = _supply */\n  dup2\n  swap1\n  sstore\n  pop\n    /* \"contracts/Anryton.sol\":3865:3879  _walletAddress */\n  dup2\n    /* \"contracts/Anryton.sol\":3825:3880  MintedWalletSuupply(_saleName, _supply, _walletAddress) */\n  0xffffffffffffffffffffffffffffffffffffffff\n  and\n    /* \"contracts/Anryton.sol\":3856:3863  _supply */\n  dup2\n    /* \"contracts/Anryton.sol\":3845:3854  _saleName */\n  dup5\n    /* \"contracts/Anryton.sol\":3825:3880  MintedWalletSuupply(_saleName, _supply, _walletAddress) */\n  mload(0x40)\n  tag_80\n  swap2\n  swap1\n  tag_78\n  jump\t// in\ntag_80:\n  mload(0x40)\n  dup1\n  swap2\n  sub\n  swap1\n  keccak256\n  0x42e47c5f4ef490fa970d56126f2584efc00f3485d64635df2e3d0f587d4211b7\n  mload(0x40)\n  mload(0x40)\n  dup1\n  swap2\n  sub\n  swap1\n  log4\n    /* \"contracts/Anryton.sol\":3520:3887  function _setSaleSupplyWallet(... */\n  pop\n  pop\n  pop\n  jump\t// out\n    /* \"@openzeppelin/contracts/utils/Context.sol\":655:751  function _msgSender() internal view virtual returns (address) {... */\ntag_64:\n    /* \"@openzeppelin/contracts/utils/Context.sol\":708:715  address */\n  0x00\n    /* \"@openzeppelin/contracts/utils/Context.sol\":734:744  msg.sender */\n  caller\n    /* \"@openzeppelin/contracts/utils/Context.sol\":727:744  return msg.sender */\n  swap1\n  pop\n    /* \"@openzeppelin/contracts/utils/Context.sol\":655:751  function _msgSender() internal view virtual returns (address) {... */\n  swap1\n  jump\t// out\n    /* \"@openzeppelin/contracts/access/Ownable.sol\":1637:1722  function owner() public view virtual returns (address) {... */\ntag_66:\n    /* \"@openzeppelin/contracts/access/Ownable.sol\":1683:1690  address */\n  0x00\n    /* \"@openzeppelin/contracts/access/Ownable.sol\":1709:1715  _owner */\n  0x05\n  0x00\n  swap1\n  sload\n  swap1\n  0x0100\n  exp\n  swap1\n  div\n  0xffffffffffffffffffffffffffffffffffffffff\n  and\n    /* \"@openzeppelin/contracts/access/Ownable.sol\":1702:1715  return _owner */\n  swap1\n  pop\n    /* \"@openzeppelin/contracts/access/Ownable.sol\":1637:1722  function owner() public view virtual returns (address) {... */\n  swap1\n  jump\t// out\n    /* \"@openzeppelin/contracts/token/ERC20/ERC20.sol\":6270:7377  function _update(address from, address to, uint256 value) internal virtual {... */\ntag_74:\n    /* \"@openzeppelin/contracts/token/ERC20/ERC20.sol\":6375:6376  0 */\n  0x00\n    /* \"@openzeppelin/contracts/token/ERC20/ERC20.sol\":6359:6377  from == address(0) */\n  0xffffffffffffffffffffffffffffffffffffffff\n  and\n    /* \"@openzeppelin/contracts/token/ERC20/ERC20.sol\":6359:6363  from */\n  dup4\n    /* \"@openzeppelin/contracts/token/ERC20/ERC20.sol\":6359:6377  from == address(0) */\n  0xffffffffffffffffffffffffffffffffffffffff\n  and\n  sub\n    /* \"@openzeppelin/contracts/token/ERC20/ERC20.sol\":6355:6895  if (from == address(0)) {... */\n  tag_84\n  jumpi\n    /* \"@openzeppelin/contracts/token/ERC20/ERC20.sol\":6511:6516  value */\n  dup1\n    /* \"@openzeppelin/contracts/token/ERC20/ERC20.sol\":6495:6507  _totalSupply */\n  0x02\n  0x00\n    /* \"@openzeppelin/contracts/token/ERC20/ERC20.sol\":6495:6516  _totalSupply += value */\n  dup3\n  dup3\n  sload\n  tag_85\n  swap2\n  swap1\n  tag_86\n  jump\t// in\ntag_85:\n  swap3\n  pop\n  pop\n  dup2\n  swap1\n  sstore\n  pop\n    /* \"@openzeppelin/contracts/token/ERC20/ERC20.sol\":6355:6895  if (from == address(0)) {... */\n  jump(tag_87)\ntag_84:\n    /* \"@openzeppelin/contracts/token/ERC20/ERC20.sol\":6547:6566  uint256 fromBalance */\n  0x00\n    /* \"@openzeppelin/contracts/token/ERC20/ERC20.sol\":6569:6578  _balances */\n  dup1\n    /* \"@openzeppelin/contracts/token/ERC20/ERC20.sol\":6569:6584  _balances[from] */\n  0x00\n    /* \"@openzeppelin/contracts/token/ERC20/ERC20.sol\":6579:6583  from */\n  dup6\n    /* \"@openzeppelin/contracts/token/ERC20/ERC20.sol\":6569:6584  _balances[from] */\n  0xffffffffffffffffffffffffffffffffffffffff\n  and\n  0xffffffffffffffffffffffffffffffffffffffff\n  and\n  dup2\n  mstore\n  0x20\n  add\n  swap1\n  dup2\n  mstore\n  0x20\n  add\n  0x00\n  keccak256\n  sload\n    /* \"@openzeppelin/contracts/token/ERC20/ERC20.sol\":6547:6584  uint256 fromBalance = _balances[from] */\n  swap1\n  pop\n    /* \"@openzeppelin/contracts/token/ERC20/ERC20.sol\":6616:6621  value */\n  dup2\n    /* \"@openzeppelin/contracts/token/ERC20/ERC20.sol\":6602:6613  fromBalance */\n  dup2\n    /* \"@openzeppelin/contracts/token/ERC20/ERC20.sol\":6602:6621  fromBalance < value */\n  lt\n    /* \"@openzeppelin/contracts/token/ERC20/ERC20.sol\":6598:6713  if (fromBalance < value) {... */\n  iszero\n  tag_88\n  jumpi\n    /* \"@openzeppelin/contracts/token/ERC20/ERC20.sol\":6673:6677  from */\n  dup4\n    /* \"@openzeppelin/contracts/token/ERC20/ERC20.sol\":6679:6690  fromBalance */\n  dup2\n    /* \"@openzeppelin/contracts/token/ERC20/ERC20.sol\":6692:6697  value */\n  dup4\n    /* \"@openzeppelin/contracts/token/ERC20/ERC20.sol\":6648:6698  ERC20InsufficientBalance(from, fromBalance, value) */\n  mload(0x40)\n  0xe450d38c00000000000000000000000000000000000000000000000000000000\n  dup2\n  mstore\n  0x04\n  add\n  tag_89\n  swap4\n  swap3\n  swap2\n  swap1\n  tag_90\n  jump\t// in\ntag_89:\n  mload(0x40)\n  dup1\n  swap2\n  sub\n  swap1\n  revert\n    /* \"@openzeppelin/contracts/token/ERC20/ERC20.sol\":6598:6713  if (fromBalance < value) {... */\ntag_88:\n    /* \"@openzeppelin/contracts/token/ERC20/ERC20.sol\":6865:6870  value */\n  dup2\n    /* \"@openzeppelin/contracts/token/ERC20/ERC20.sol\":6851:6862  fromBalance */\n  dup2\n    /* \"@openzeppelin/contracts/token/ERC20/ERC20.sol\":6851:6870  fromBalance - value */\n  sub\n    /* \"@openzeppelin/contracts/token/ERC20/ERC20.sol\":6833:6842  _balances */\n  0x00\n    /* \"@openzeppelin/contracts/token/ERC20/ERC20.sol\":6833:6848  _balances[from] */\n  dup1\n    /* \"@openzeppelin/contracts/token/ERC20/ERC20.sol\":6843:6847  from */\n  dup7\n    /* \"@openzeppelin/contracts/token/ERC20/ERC20.sol\":6833:6848  _balances[from] */\n  0xffffffffffffffffffffffffffffffffffffffff\n  and\n  0xffffffffffffffffffffffffffffffffffffffff\n  and\n  dup2\n  mstore\n  0x20\n  add\n  swap1\n  dup2\n  mstore\n  0x20\n  add\n  0x00\n  keccak256\n    /* \"@openzeppelin/contracts/token/ERC20/ERC20.sol\":6833:6870  _balances[from] = fromBalance - value */\n  dup2\n  swap1\n  sstore\n  pop\n    /* \"@openzeppelin/contracts/token/ERC20/ERC20.sol\":6533:6895  {... */\n  pop\n    /* \"@openzeppelin/contracts/token/ERC20/ERC20.sol\":6355:6895  if (from == address(0)) {... */\ntag_87:\n    /* \"@openzeppelin/contracts/token/ERC20/ERC20.sol\":6923:6924  0 */\n  0x00\n    /* \"@openzeppelin/contracts/token/ERC20/ERC20.sol\":6909:6925  to == address(0) */\n  0xffffffffffffffffffffffffffffffffffffffff\n  and\n    /* \"@openzeppelin/contracts/token/ERC20/ERC20.sol\":6909:6911  to */\n  dup3\n    /* \"@openzeppelin/contracts/token/ERC20/ERC20.sol\":6909:6925  to == address(0) */\n  0xffffffffffffffffffffffffffffffffffffffff\n  and\n  sub\n    /* \"@openzeppelin/contracts/token/ERC20/ERC20.sol\":6905:7330  if (to == address(0)) {... */\n  tag_91\n  jumpi\n    /* \"@openzeppelin/contracts/token/ERC20/ERC20.sol\":7088:7093  value */\n  dup1\n    /* \"@openzeppelin/contracts/token/ERC20/ERC20.sol\":7072:7084  _totalSupply */\n  0x02\n  0x00\n    /* \"@openzeppelin/contracts/token/ERC20/ERC20.sol\":7072:7093  _totalSupply -= value */\n  dup3\n  dup3\n  sload\n  sub\n  swap3\n  pop\n  pop\n  dup2\n  swap1\n  sstore\n  pop\n    /* \"@openzeppelin/contracts/token/ERC20/ERC20.sol\":6905:7330  if (to == address(0)) {... */\n  jump(tag_92)\ntag_91:\n    /* \"@openzeppelin/contracts/token/ERC20/ERC20.sol\":7300:7305  value */\n  dup1\n    /* \"@openzeppelin/contracts/token/ERC20/ERC20.sol\":7283:7292  _balances */\n  0x00\n    /* \"@openzeppelin/contracts/token/ERC20/ERC20.sol\":7283:7296  _balances[to] */\n  dup1\n    /* \"@openzeppelin/contracts/token/ERC20/ERC20.sol\":7293:7295  to */\n  dup5\n    /* \"@openzeppelin/contracts/token/ERC20/ERC20.sol\":7283:7296  _balances[to] */\n  0xffffffffffffffffffffffffffffffffffffffff\n  and\n  0xffffffffffffffffffffffffffffffffffffffff\n  and\n  dup2\n  mstore\n  0x20\n  add\n  swap1\n  dup2\n  mstore\n  0x20\n  add\n  0x00\n  keccak256\n  0x00\n    /* \"@openzeppelin/contracts/token/ERC20/ERC20.sol\":7283:7305  _balances[to] += value */\n  dup3\n  dup3\n  sload\n  add\n  swap3\n  pop\n  pop\n  dup2\n  swap1\n  sstore\n  pop\n    /* \"@openzeppelin/contracts/token/ERC20/ERC20.sol\":6905:7330  if (to == address(0)) {... */\ntag_92:\n    /* \"@openzeppelin/contracts/token/ERC20/ERC20.sol\":7360:7362  to */\n  dup2\n    /* \"@openzeppelin/contracts/token/ERC20/ERC20.sol\":7345:7370  Transfer(from, to, value) */\n  0xffffffffffffffffffffffffffffffffffffffff\n  and\n    /* \"@openzeppelin/contracts/token/ERC20/ERC20.sol\":7354:7358  from */\n  dup4\n    /* \"@openzeppelin/contracts/token/ERC20/ERC20.sol\":7345:7370  Transfer(from, to, value) */\n  0xffffffffffffffffffffffffffffffffffffffff\n  and\n  0xddf252ad1be2c89b69c2b068fc378daa952ba7f163c4a11628f55a4df523b3ef\n    /* \"@openzeppelin/contracts/token/ERC20/ERC20.sol\":7364:7369  value */\n  dup4\n    /* \"@openzeppelin/contracts/token/ERC20/ERC20.sol\":7345:7370  Transfer(from, to, value) */\n  mload(0x40)\n  tag_93\n  swap2\n  swap1\n  tag_94\n  jump\t// in\ntag_93:\n  mload(0x40)\n  dup1\n  swap2\n  sub\n  swap1\n  log3\n    /* \"@openzeppelin/contracts/token/ERC20/ERC20.sol\":6270:7377  function _update(address from, address to, uint256 value) internal virtual {... */\n  pop\n  pop\n  pop\n  jump\t// out\n    /* \"#utility.yul\":7:106   */\ntag_95:\n    /* \"#utility.yul\":59:65   */\n  0x00\n    /* \"#utility.yul\":93:98   */\n  dup2\n    /* \"#utility.yul\":87:99   */\n  mload\n    /* \"#utility.yul\":77:99   */\n  swap1\n  pop\n    /* \"#utility.yul\":7:106   */\n  swap2\n  swap1\n  pop\n  jump\t// out\n    /* \"#utility.yul\":112:292   */\ntag_96:\n    /* \"#utility.yul\":160:237   */\n  0x4e487b7100000000000000000000000000000000000000000000000000000000\n    /* \"#utility.yul\":157:158   */\n  0x00\n    /* \"#utility.yul\":150:238   */\n  mstore\n    /* \"#utility.yul\":257:261   */\n  0x41\n    /* \"#utility.yul\":254:255   */\n  0x04\n    /* \"#utility.yul\":247:262   */\n  mstore\n    /* \"#utility.yul\":281:285   */\n  0x24\n    /* \"#utility.yul\":278:279   */\n  0x00\n    /* \"#utility.yul\":271:286   */\n  revert\n    /* \"#utility.yul\":298:478   */\ntag_97:\n    /* \"#utility.yul\":346:423   */\n  0x4e487b7100000000000000000000000000000000000000000000000000000000\n    /* \"#utility.yul\":343:344   */\n  0x00\n    /* \"#utility.yul\":336:424   */\n  mstore\n    /* \"#utility.yul\":443:447   */\n  0x22\n    /* \"#utility.yul\":440:441   */\n  0x04\n    /* \"#utility.yul\":433:448   */\n  mstore\n    /* \"#utility.yul\":467:471   */\n  0x24\n    /* \"#utility.yul\":464:465   */\n  0x00\n    /* \"#utility.yul\":457:472   */\n  revert\n    /* \"#utility.yul\":484:804   */\ntag_47:\n    /* \"#utility.yul\":528:534   */\n  0x00\n    /* \"#utility.yul\":565:566   */\n  0x02\n    /* \"#utility.yul\":559:563   */\n  dup3\n    /* \"#utility.yul\":555:567   */\n  div\n    /* \"#utility.yul\":545:567   */\n  swap1\n  pop\n    /* \"#utility.yul\":612:613   */\n  0x01\n    /* \"#utility.yul\":606:610   */\n  dup3\n    /* \"#utility.yul\":602:614   */\n  and\n    /* \"#utility.yul\":633:651   */\n  dup1\n    /* \"#utility.yul\":623:704   */\n  tag_144\n  jumpi\n    /* \"#utility.yul\":689:693   */\n  0x7f\n    /* \"#utility.yul\":681:687   */\n  dup3\n    /* \"#utility.yul\":677:694   */\n  and\n    /* \"#utility.yul\":667:694   */\n  swap2\n  pop\n    /* \"#utility.yul\":623:704   */\ntag_144:\n    /* \"#utility.yul\":751:753   */\n  0x20\n    /* \"#utility.yul\":743:749   */\n  dup3\n    /* \"#utility.yul\":740:754   */\n  lt\n    /* \"#utility.yul\":720:738   */\n  dup2\n    /* \"#utility.yul\":717:755   */\n  sub\n    /* \"#utility.yul\":714:798   */\n  tag_145\n  jumpi\n    /* \"#utility.yul\":770:788   */\n  tag_146\n  tag_97\n  jump\t// in\ntag_146:\n    /* \"#utility.yul\":714:798   */\ntag_145:\n    /* \"#utility.yul\":535:804   */\n  pop\n    /* \"#utility.yul\":484:804   */\n  swap2\n  swap1\n  pop\n  jump\t// out\n    /* \"#utility.yul\":810:951   */\ntag_98:\n    /* \"#utility.yul\":859:863   */\n  0x00\n    /* \"#utility.yul\":882:885   */\n  dup2\n    /* \"#utility.yul\":874:885   */\n  swap1\n  pop\n    /* \"#utility.yul\":905:908   */\n  dup2\n    /* \"#utility.yul\":902:903   */\n  0x00\n    /* \"#utility.yul\":895:909   */\n  mstore\n    /* \"#utility.yul\":939:943   */\n  0x20\n    /* \"#utility.yul\":936:937   */\n  0x00\n    /* \"#utility.yul\":926:944   */\n  keccak256\n    /* \"#utility.yul\":918:944   */\n  swap1\n  pop\n    /* \"#utility.yul\":810:951   */\n  swap2\n  swap1\n  pop\n  jump\t// out\n    /* \"#utility.yul\":957:1050   */\ntag_99:\n    /* \"#utility.yul\":994:1000   */\n  0x00\n    /* \"#utility.yul\":1041:1043   */\n  0x20\n    /* \"#utility.yul\":1036:1038   */\n  0x1f\n    /* \"#utility.yul\":1029:1034   */\n  dup4\n    /* \"#utility.yul\":1025:1039   */\n  add\n    /* \"#utility.yul\":1021:1044   */\n  div\n    /* \"#utility.yul\":1011:1044   */\n  swap1\n  pop\n    /* \"#utility.yul\":957:1050   */\n  swap2\n  swap1\n  pop\n  jump\t// out\n    /* \"#utility.yul\":1056:1163   */\ntag_100:\n    /* \"#utility.yul\":1100:1108   */\n  0x00\n    /* \"#utility.yul\":1150:1155   */\n  dup3\n    /* \"#utility.yul\":1144:1148   */\n  dup3\n    /* \"#utility.yul\":1140:1156   */\n  shl\n    /* \"#utility.yul\":1119:1156   */\n  swap1\n  pop\n    /* \"#utility.yul\":1056:1163   */\n  swap3\n  swap2\n  pop\n  pop\n  jump\t// out\n    /* \"#utility.yul\":1169:1562   */\ntag_101:\n    /* \"#utility.yul\":1238:1244   */\n  0x00\n    /* \"#utility.yul\":1288:1289   */\n  0x08\n    /* \"#utility.yul\":1276:1286   */\n  dup4\n    /* \"#utility.yul\":1272:1290   */\n  mul\n    /* \"#utility.yul\":1311:1408   */\n  tag_151\n    /* \"#utility.yul\":1341:1407   */\n  0xffffffffffffffffffffffffffffffffffffffffffffffffffffffffffffffff\n    /* \"#utility.yul\":1330:1339   */\n  dup3\n    /* \"#utility.yul\":1311:1408   */\n  tag_100\n  jump\t// in\ntag_151:\n    /* \"#utility.yul\":1429:1468   */\n  tag_152\n    /* \"#utility.yul\":1459:1467   */\n  dup7\n    /* \"#utility.yul\":1448:1457   */\n  dup4\n    /* \"#utility.yul\":1429:1468   */\n  tag_100\n  jump\t// in\ntag_152:\n    /* \"#utility.yul\":1417:1468   */\n  swap6\n  pop\n    /* \"#utility.yul\":1501:1505   */\n  dup1\n    /* \"#utility.yul\":1497:1506   */\n  not\n    /* \"#utility.yul\":1490:1495   */\n  dup5\n    /* \"#utility.yul\":1486:1507   */\n  and\n    /* \"#utility.yul\":1477:1507   */\n  swap4\n  pop\n    /* \"#utility.yul\":1550:1554   */\n  dup1\n    /* \"#utility.yul\":1540:1548   */\n  dup7\n    /* \"#utility.yul\":1536:1555   */\n  and\n    /* \"#utility.yul\":1529:1534   */\n  dup5\n    /* \"#utility.yul\":1526:1556   */\n  or\n    /* \"#utility.yul\":1516:1556   */\n  swap3\n  pop\n    /* \"#utility.yul\":1245:1562   */\n  pop\n  pop\n    /* \"#utility.yul\":1169:1562   */\n  swap4\n  swap3\n  pop\n  pop\n  pop\n  jump\t// out\n    /* \"#utility.yul\":1568:1645   */\ntag_102:\n    /* \"#utility.yul\":1605:1612   */\n  0x00\n    /* \"#utility.yul\":1634:1639   */\n  dup2\n    /* \"#utility.yul\":1623:1639   */\n  swap1\n  pop\n    /* \"#utility.yul\":1568:1645   */\n  swap2\n  swap1\n  pop\n  jump\t// out\n    /* \"#utility.yul\":1651:1711   */\ntag_103:\n    /* \"#utility.yul\":1679:1682   */\n  0x00\n    /* \"#utility.yul\":1700:1705   */\n  dup2\n    /* \"#utility.yul\":1693:1705   */\n  swap1\n  pop\n    /* \"#utility.yul\":1651:1711   */\n  swap2\n  swap1\n  pop\n  jump\t// out\n    /* \"#utility.yul\":1717:1859   */\ntag_104:\n    /* \"#utility.yul\":1767:1776   */\n  0x00\n    /* \"#utility.yul\":1800:1853   */\n  tag_156\n    /* \"#utility.yul\":1818:1852   */\n  tag_157\n    /* \"#utility.yul\":1827:1851   */\n  tag_158\n    /* \"#utility.yul\":1845:1850   */\n  dup5\n    /* \"#utility.yul\":1827:1851   */\n  tag_102\n  jump\t// in\ntag_158:\n    /* \"#utility.yul\":1818:1852   */\n  tag_103\n  jump\t// in\ntag_157:\n    /* \"#utility.yul\":1800:1853   */\n  tag_102\n  jump\t// in\ntag_156:\n    /* \"#utility.yul\":1787:1853   */\n  swap1\n  pop\n    /* \"#utility.yul\":1717:1859   */\n  swap2\n  swap1\n  pop\n  jump\t// out\n    /* \"#utility.yul\":1865:1940   */\ntag_105:\n    /* \"#utility.yul\":1908:1911   */\n  0x00\n    /* \"#utility.yul\":1929:1934   */\n  dup2\n    /* \"#utility.yul\":1922:1934   */\n  swap1\n  pop\n    /* \"#utility.yul\":1865:1940   */\n  swap2\n  swap1\n  pop\n  jump\t// out\n    /* \"#utility.yul\":1946:2215   */\ntag_106:\n    /* \"#utility.yul\":2056:2095   */\n  tag_161\n    /* \"#utility.yul\":2087:2094   */\n  dup4\n    /* \"#utility.yul\":2056:2095   */\n  tag_104\n  jump\t// in\ntag_161:\n    /* \"#utility.yul\":2117:2208   */\n  tag_162\n    /* \"#utility.yul\":2166:2207   */\n  tag_163\n    /* \"#utility.yul\":2190:2206   */\n  dup3\n    /* \"#utility.yul\":2166:2207   */\n  tag_105\n  jump\t// in\ntag_163:\n    /* \"#utility.yul\":2158:2164   */\n  dup5\n    /* \"#utility.yul\":2151:2155   */\n  dup5\n    /* \"#utility.yul\":2145:2156   */\n  sload\n    /* \"#utility.yul\":2117:2208   */\n  tag_101\n  jump\t// in\ntag_162:\n    /* \"#utility.yul\":2111:2115   */\n  dup3\n    /* \"#utility.yul\":2104:2209   */\n  sstore\n    /* \"#utility.yul\":2022:2215   */\n  pop\n    /* \"#utility.yul\":1946:2215   */\n  pop\n  pop\n  pop\n  jump\t// out\n    /* \"#utility.yul\":2221:2294   */\ntag_107:\n    /* \"#utility.yul\":2266:2269   */\n  0x00\n    /* \"#utility.yul\":2221:2294   */\n  swap1\n  jump\t// out\n    /* \"#utility.yul\":2300:2489   */\ntag_108:\n    /* \"#utility.yul\":2377:2409   */\n  tag_166\n  tag_107\n  jump\t// in\ntag_166:\n    /* \"#utility.yul\":2418:2483   */\n  tag_167\n    /* \"#utility.yul\":2476:2482   */\n  dup2\n    /* \"#utility.yul\":2468:2474   */\n  dup5\n    /* \"#utility.yul\":2462:2466   */\n  dup5\n    /* \"#utility.yul\":2418:2483   */\n  tag_106\n  jump\t// in\ntag_167:\n    /* \"#utility.yul\":2353:2489   */\n  pop\n    /* \"#utility.yul\":2300:2489   */\n  pop\n  pop\n  jump\t// out\n    /* \"#utility.yul\":2495:2681   */\ntag_109:\n    /* \"#utility.yul\":2555:2675   */\ntag_169:\n    /* \"#utility.yul\":2572:2575   */\n  dup2\n    /* \"#utility.yul\":2565:2570   */\n  dup2\n    /* \"#utility.yul\":2562:2576   */\n  lt\n    /* \"#utility.yul\":2555:2675   */\n  iszero\n  tag_171\n  jumpi\n    /* \"#utility.yul\":2626:2665   */\n  tag_172\n    /* \"#utility.yul\":2663:2664   */\n  0x00\n    /* \"#utility.yul\":2656:2661   */\n  dup3\n    /* \"#utility.yul\":2626:2665   */\n  tag_108\n  jump\t// in\ntag_172:\n    /* \"#utility.yul\":2599:2600   */\n  0x01\n    /* \"#utility.yul\":2592:2597   */\n  dup2\n    /* \"#utility.yul\":2588:2601   */\n  add\n    /* \"#utility.yul\":2579:2601   */\n  swap1\n  pop\n    /* \"#utility.yul\":2555:2675   */\n  jump(tag_169)\ntag_171:\n    /* \"#utility.yul\":2495:2681   */\n  pop\n  pop\n  jump\t// out\n    /* \"#utility.yul\":2687:3230   */\ntag_110:\n    /* \"#utility.yul\":2788:2790   */\n  0x1f\n    /* \"#utility.yul\":2783:2786   */\n  dup3\n    /* \"#utility.yul\":2780:2791   */\n  gt\n    /* \"#utility.yul\":2777:3223   */\n  iszero\n  tag_174\n  jumpi\n    /* \"#utility.yul\":2822:2860   */\n  tag_175\n    /* \"#utility.yul\":2854:2859   */\n  dup2\n    /* \"#utility.yul\":2822:2860   */\n  tag_98\n  jump\t// in\ntag_175:\n    /* \"#utility.yul\":2906:2935   */\n  tag_176\n    /* \"#utility.yul\":2924:2934   */\n  dup5\n    /* \"#utility.yul\":2906:2935   */\n  tag_99\n  jump\t// in\ntag_176:\n    /* \"#utility.yul\":2896:2904   */\n  dup2\n    /* \"#utility.yul\":2892:2936   */\n  add\n    /* \"#utility.yul\":3089:3091   */\n  0x20\n    /* \"#utility.yul\":3077:3087   */\n  dup6\n    /* \"#utility.yul\":3074:3092   */\n  lt\n    /* \"#utility.yul\":3071:3120   */\n  iszero\n  tag_177\n  jumpi\n    /* \"#utility.yul\":3110:3118   */\n  dup2\n    /* \"#utility.yul\":3095:3118   */\n  swap1\n  pop\n    /* \"#utility.yul\":3071:3120   */\ntag_177:\n    /* \"#utility.yul\":3133:3213   */\n  tag_178\n    /* \"#utility.yul\":3189:3211   */\n  tag_179\n    /* \"#utility.yul\":3207:3210   */\n  dup6\n    /* \"#utility.yul\":3189:3211   */\n  tag_99\n  jump\t// in\ntag_179:\n    /* \"#utility.yul\":3179:3187   */\n  dup4\n    /* \"#utility.yul\":3175:3212   */\n  add\n    /* \"#utility.yul\":3162:3173   */\n  dup3\n    /* \"#utility.yul\":3133:3213   */\n  tag_109\n  jump\t// in\ntag_178:\n    /* \"#utility.yul\":2792:3223   */\n  pop\n  pop\n    /* \"#utility.yul\":2777:3223   */\ntag_174:\n    /* \"#utility.yul\":2687:3230   */\n  pop\n  pop\n  pop\n  jump\t// out\n    /* \"#utility.yul\":3236:3353   */\ntag_111:\n    /* \"#utility.yul\":3290:3298   */\n  0x00\n    /* \"#utility.yul\":3340:3345   */\n  dup3\n    /* \"#utility.yul\":3334:3338   */\n  dup3\n    /* \"#utility.yul\":3330:3346   */\n  shr\n    /* \"#utility.yul\":3309:3346   */\n  swap1\n  pop\n    /* \"#utility.yul\":3236:3353   */\n  swap3\n  swap2\n  pop\n  pop\n  jump\t// out\n    /* \"#utility.yul\":3359:3528   */\ntag_112:\n    /* \"#utility.yul\":3403:3409   */\n  0x00\n    /* \"#utility.yul\":3436:3487   */\n  tag_182\n    /* \"#utility.yul\":3484:3485   */\n  0x00\n    /* \"#utility.yul\":3480:3486   */\n  not\n    /* \"#utility.yul\":3472:3477   */\n  dup5\n    /* \"#utility.yul\":3469:3470   */\n  0x08\n    /* \"#utility.yul\":3465:3478   */\n  mul\n    /* \"#utility.yul\":3436:3487   */\n  tag_111\n  jump\t// in\ntag_182:\n    /* \"#utility.yul\":3432:3488   */\n  not\n    /* \"#utility.yul\":3517:3521   */\n  dup1\n    /* \"#utility.yul\":3511:3515   */\n  dup4\n    /* \"#utility.yul\":3507:3522   */\n  and\n    /* \"#utility.yul\":3497:3522   */\n  swap2\n  pop\n    /* \"#utility.yul\":3410:3528   */\n  pop\n    /* \"#utility.yul\":3359:3528   */\n  swap3\n  swap2\n  pop\n  pop\n  jump\t// out\n    /* \"#utility.yul\":3533:3828   */\ntag_113:\n    /* \"#utility.yul\":3609:3613   */\n  0x00\n    /* \"#utility.yul\":3755:3784   */\n  tag_184\n    /* \"#utility.yul\":3780:3783   */\n  dup4\n    /* \"#utility.yul\":3774:3778   */\n  dup4\n    /* \"#utility.yul\":3755:3784   */\n  tag_112\n  jump\t// in\ntag_184:\n    /* \"#utility.yul\":3747:3784   */\n  swap2\n  pop\n    /* \"#utility.yul\":3817:3820   */\n  dup3\n    /* \"#utility.yul\":3814:3815   */\n  0x02\n    /* \"#utility.yul\":3810:3821   */\n  mul\n    /* \"#utility.yul\":3804:3808   */\n  dup3\n    /* \"#utility.yul\":3801:3822   */\n  or\n    /* \"#utility.yul\":3793:3822   */\n  swap1\n  pop\n    /* \"#utility.yul\":3533:3828   */\n  swap3\n  swap2\n  pop\n  pop\n  jump\t// out\n    /* \"#utility.yul\":3833:5228   */\ntag_2:\n    /* \"#utility.yul\":3950:3987   */\n  tag_186\n    /* \"#utility.yul\":3983:3986   */\n  dup3\n    /* \"#utility.yul\":3950:3987   */\n  tag_95\n  jump\t// in\ntag_186:\n    /* \"#utility.yul\":4052:4070   */\n  0xffffffffffffffff\n    /* \"#utility.yul\":4044:4050   */\n  dup2\n    /* \"#utility.yul\":4041:4071   */\n  gt\n    /* \"#utility.yul\":4038:4094   */\n  iszero\n  tag_187\n  jumpi\n    /* \"#utility.yul\":4074:4092   */\n  tag_188\n  tag_96\n  jump\t// in\ntag_188:\n    /* \"#utility.yul\":4038:4094   */\ntag_187:\n    /* \"#utility.yul\":4118:4156   */\n  tag_189\n    /* \"#utility.yul\":4150:4154   */\n  dup3\n    /* \"#utility.yul\":4144:4155   */\n  sload\n    /* \"#utility.yul\":4118:4156   */\n  tag_47\n  jump\t// in\ntag_189:\n    /* \"#utility.yul\":4203:4270   */\n  tag_190\n    /* \"#utility.yul\":4263:4269   */\n  dup3\n    /* \"#utility.yul\":4255:4261   */\n  dup3\n    /* \"#utility.yul\":4249:4253   */\n  dup6\n    /* \"#utility.yul\":4203:4270   */\n  tag_110\n  jump\t// in\ntag_190:\n    /* \"#utility.yul\":4297:4298   */\n  0x00\n    /* \"#utility.yul\":4321:4325   */\n  0x20\n    /* \"#utility.yul\":4308:4325   */\n  swap1\n  pop\n    /* \"#utility.yul\":4353:4355   */\n  0x1f\n    /* \"#utility.yul\":4345:4351   */\n  dup4\n    /* \"#utility.yul\":4342:4356   */\n  gt\n    /* \"#utility.yul\":4370:4371   */\n  0x01\n    /* \"#utility.yul\":4365:4983   */\n  dup2\n  eq\n  tag_192\n  jumpi\n    /* \"#utility.yul\":5027:5028   */\n  0x00\n    /* \"#utility.yul\":5044:5050   */\n  dup5\n    /* \"#utility.yul\":5041:5118   */\n  iszero\n  tag_193\n  jumpi\n    /* \"#utility.yul\":5093:5102   */\n  dup3\n    /* \"#utility.yul\":5088:5091   */\n  dup8\n    /* \"#utility.yul\":5084:5103   */\n  add\n    /* \"#utility.yul\":5078:5104   */\n  mload\n    /* \"#utility.yul\":5069:5104   */\n  swap1\n  pop\n    /* \"#utility.yul\":5041:5118   */\ntag_193:\n    /* \"#utility.yul\":5144:5211   */\n  tag_194\n    /* \"#utility.yul\":5204:5210   */\n  dup6\n    /* \"#utility.yul\":5197:5202   */\n  dup3\n    /* \"#utility.yul\":5144:5211   */\n  tag_113\n  jump\t// in\ntag_194:\n    /* \"#utility.yul\":5138:5142   */\n  dup7\n    /* \"#utility.yul\":5131:5212   */\n  sstore\n    /* \"#utility.yul\":5000:5222   */\n  pop\n    /* \"#utility.yul\":4335:5222   */\n  jump(tag_191)\n    /* \"#utility.yul\":4365:4983   */\ntag_192:\n    /* \"#utility.yul\":4417:4421   */\n  0x1f\n    /* \"#utility.yul\":4413:4422   */\n  not\n    /* \"#utility.yul\":4405:4411   */\n  dup5\n    /* \"#utility.yul\":4401:4423   */\n  and\n    /* \"#utility.yul\":4451:4488   */\n  tag_195\n    /* \"#utility.yul\":4483:4487   */\n  dup7\n    /* \"#utility.yul\":4451:4488   */\n  tag_98\n  jump\t// in\ntag_195:\n    /* \"#utility.yul\":4510:4511   */\n  0x00\n    /* \"#utility.yul\":4524:4732   */\ntag_196:\n    /* \"#utility.yul\":4538:4545   */\n  dup3\n    /* \"#utility.yul\":4535:4536   */\n  dup2\n    /* \"#utility.yul\":4532:4546   */\n  lt\n    /* \"#utility.yul\":4524:4732   */\n  iszero\n  tag_198\n  jumpi\n    /* \"#utility.yul\":4617:4626   */\n  dup5\n    /* \"#utility.yul\":4612:4615   */\n  dup10\n    /* \"#utility.yul\":4608:4627   */\n  add\n    /* \"#utility.yul\":4602:4628   */\n  mload\n    /* \"#utility.yul\":4594:4600   */\n  dup3\n    /* \"#utility.yul\":4587:4629   */\n  sstore\n    /* \"#utility.yul\":4668:4669   */\n  0x01\n    /* \"#utility.yul\":4660:4666   */\n  dup3\n    /* \"#utility.yul\":4656:4670   */\n  add\n    /* \"#utility.yul\":4646:4670   */\n  swap2\n  pop\n    /* \"#utility.yul\":4715:4717   */\n  0x20\n    /* \"#utility.yul\":4704:4713   */\n  dup6\n    /* \"#utility.yul\":4700:4718   */\n  add\n    /* \"#utility.yul\":4687:4718   */\n  swap5\n  pop\n    /* \"#utility.yul\":4561:4565   */\n  0x20\n    /* \"#utility.yul\":4558:4559   */\n  dup2\n    /* \"#utility.yul\":4554:4566   */\n  add\n    /* \"#utility.yul\":4549:4566   */\n  swap1\n  pop\n    /* \"#utility.yul\":4524:4732   */\n  jump(tag_196)\ntag_198:\n    /* \"#utility.yul\":4760:4766   */\n  dup7\n    /* \"#utility.yul\":4751:4758   */\n  dup4\n    /* \"#utility.yul\":4748:4767   */\n  lt\n    /* \"#utility.yul\":4745:4924   */\n  iszero\n  tag_199\n  jumpi\n    /* \"#utility.yul\":4818:4827   */\n  dup5\n    /* \"#utility.yul\":4813:4816   */\n  dup10\n    /* \"#utility.yul\":4809:4828   */\n  add\n    /* \"#utility.yul\":4803:4829   */\n  mload\n    /* \"#utility.yul\":4861:4909   */\n  tag_200\n    /* \"#utility.yul\":4903:4907   */\n  0x1f\n    /* \"#utility.yul\":4895:4901   */\n  dup10\n    /* \"#utility.yul\":4891:4908   */\n  and\n    /* \"#utility.yul\":4880:4889   */\n  dup3\n    /* \"#utility.yul\":4861:4909   */\n  tag_112\n  jump\t// in\ntag_200:\n    /* \"#utility.yul\":4853:4859   */\n  dup4\n    /* \"#utility.yul\":4846:4910   */\n  sstore\n    /* \"#utility.yul\":4768:4924   */\n  pop\n    /* \"#utility.yul\":4745:4924   */\ntag_199:\n    /* \"#utility.yul\":4970:4971   */\n  0x01\n    /* \"#utility.yul\":4966:4967   */\n  0x02\n    /* \"#utility.yul\":4958:4964   */\n  dup9\n    /* \"#utility.yul\":4954:4968   */\n  mul\n    /* \"#utility.yul\":4950:4972   */\n  add\n    /* \"#utility.yul\":4944:4948   */\n  dup9\n    /* \"#utility.yul\":4937:4973   */\n  sstore\n    /* \"#utility.yul\":4372:4983   */\n  pop\n  pop\n  pop\n    /* \"#utility.yul\":4335:5222   */\ntag_191:\n  pop\n    /* \"#utility.yul\":3925:5228   */\n  pop\n  pop\n  pop\n    /* \"#utility.yul\":3833:5228   */\n  pop\n  pop\n  jump\t// out\n    /* \"#utility.yul\":5234:5309   */\ntag_114:\n    /* \"#utility.yul\":5267:5273   */\n  0x00\n    /* \"#utility.yul\":5300:5302   */\n  0x40\n    /* \"#utility.yul\":5294:5303   */\n  mload\n    /* \"#utility.yul\":5284:5303   */\n  swap1\n  pop\n    /* \"#utility.yul\":5234:5309   */\n  swap1\n  jump\t// out\n    /* \"#utility.yul\":5315:5432   */\ntag_115:\n    /* \"#utility.yul\":5424:5425   */\n  0x00\n    /* \"#utility.yul\":5421:5422   */\n  dup1\n    /* \"#utility.yul\":5414:5426   */\n  revert\n    /* \"#utility.yul\":5438:5555   */\ntag_116:\n    /* \"#utility.yul\":5547:5548   */\n  0x00\n    /* \"#utility.yul\":5544:5545   */\n  dup1\n    /* \"#utility.yul\":5537:5549   */\n  revert\n    /* \"#utility.yul\":5561:5678   */\ntag_117:\n    /* \"#utility.yul\":5670:5671   */\n  0x00\n    /* \"#utility.yul\":5667:5668   */\n  dup1\n    /* \"#utility.yul\":5660:5672   */\n  revert\n    /* \"#utility.yul\":5684:5801   */\ntag_118:\n    /* \"#utility.yul\":5793:5794   */\n  0x00\n    /* \"#utility.yul\":5790:5791   */\n  dup1\n    /* \"#utility.yul\":5783:5795   */\n  revert\n    /* \"#utility.yul\":5807:5909   */\ntag_119:\n    /* \"#utility.yul\":5848:5854   */\n  0x00\n    /* \"#utility.yul\":5899:5901   */\n  0x1f\n    /* \"#utility.yul\":5895:5902   */\n  not\n    /* \"#utility.yul\":5890:5892   */\n  0x1f\n    /* \"#utility.yul\":5883:5888   */\n  dup4\n    /* \"#utility.yul\":5879:5893   */\n  add\n    /* \"#utility.yul\":5875:5903   */\n  and\n    /* \"#utility.yul\":5865:5903   */\n  swap1\n  pop\n    /* \"#utility.yul\":5807:5909   */\n  swap2\n  swap1\n  pop\n  jump\t// out\n    /* \"#utility.yul\":5915:6196   */\ntag_120:\n    /* \"#utility.yul\":5998:6025   */\n  tag_208\n    /* \"#utility.yul\":6020:6024   */\n  dup3\n    /* \"#utility.yul\":5998:6025   */\n  tag_119\n  jump\t// in\ntag_208:\n    /* \"#utility.yul\":5990:5996   */\n  dup2\n    /* \"#utility.yul\":5986:6026   */\n  add\n    /* \"#utility.yul\":6128:6134   */\n  dup2\n    /* \"#utility.yul\":6116:6126   */\n  dup2\n    /* \"#utility.yul\":6113:6135   */\n  lt\n    /* \"#utility.yul\":6092:6110   */\n  0xffffffffffffffff\n    /* \"#utility.yul\":6080:6090   */\n  dup3\n    /* \"#utility.yul\":6077:6111   */\n  gt\n    /* \"#utility.yul\":6074:6136   */\n  or\n    /* \"#utility.yul\":6071:6159   */\n  iszero\n  tag_209\n  jumpi\n    /* \"#utility.yul\":6139:6157   */\n  tag_210\n  tag_96\n  jump\t// in\ntag_210:\n    /* \"#utility.yul\":6071:6159   */\ntag_209:\n    /* \"#utility.yul\":6179:6189   */\n  dup1\n    /* \"#utility.yul\":6175:6177   */\n  0x40\n    /* \"#utility.yul\":6168:6190   */\n  mstore\n    /* \"#utility.yul\":5958:6196   */\n  pop\n    /* \"#utility.yul\":5915:6196   */\n  pop\n  pop\n  jump\t// out\n    /* \"#utility.yul\":6202:6331   */\ntag_121:\n    /* \"#utility.yul\":6236:6242   */\n  0x00\n    /* \"#utility.yul\":6263:6283   */\n  tag_212\n  tag_114\n  jump\t// in\ntag_212:\n    /* \"#utility.yul\":6253:6283   */\n  swap1\n  pop\n    /* \"#utility.yul\":6292:6325   */\n  tag_213\n    /* \"#utility.yul\":6320:6324   */\n  dup3\n    /* \"#utility.yul\":6312:6318   */\n  dup3\n    /* \"#utility.yul\":6292:6325   */\n  tag_120\n  jump\t// in\ntag_213:\n    /* \"#utility.yul\":6202:6331   */\n  swap2\n  swap1\n  pop\n  jump\t// out\n    /* \"#utility.yul\":6337:6645   */\ntag_122:\n    /* \"#utility.yul\":6399:6403   */\n  0x00\n    /* \"#utility.yul\":6489:6507   */\n  0xffffffffffffffff\n    /* \"#utility.yul\":6481:6487   */\n  dup3\n    /* \"#utility.yul\":6478:6508   */\n  gt\n    /* \"#utility.yul\":6475:6531   */\n  iszero\n  tag_215\n  jumpi\n    /* \"#utility.yul\":6511:6529   */\n  tag_216\n  tag_96\n  jump\t// in\ntag_216:\n    /* \"#utility.yul\":6475:6531   */\ntag_215:\n    /* \"#utility.yul\":6549:6578   */\n  tag_217\n    /* \"#utility.yul\":6571:6577   */\n  dup3\n    /* \"#utility.yul\":6549:6578   */\n  tag_119\n  jump\t// in\ntag_217:\n    /* \"#utility.yul\":6541:6578   */\n  swap1\n  pop\n    /* \"#utility.yul\":6633:6637   */\n  0x20\n    /* \"#utility.yul\":6627:6631   */\n  dup2\n    /* \"#utility.yul\":6623:6638   */\n  add\n    /* \"#utility.yul\":6615:6638   */\n  swap1\n  pop\n    /* \"#utility.yul\":6337:6645   */\n  swap2\n  swap1\n  pop\n  jump\t// out\n    /* \"#utility.yul\":6651:6897   */\ntag_123:\n    /* \"#utility.yul\":6732:6733   */\n  0x00\n    /* \"#utility.yul\":6742:6855   */\ntag_219:\n    /* \"#utility.yul\":6756:6762   */\n  dup4\n    /* \"#utility.yul\":6753:6754   */\n  dup2\n    /* \"#utility.yul\":6750:6763   */\n  lt\n    /* \"#utility.yul\":6742:6855   */\n  iszero\n  tag_221\n  jumpi\n    /* \"#utility.yul\":6841:6842   */\n  dup1\n    /* \"#utility.yul\":6836:6839   */\n  dup3\n    /* \"#utility.yul\":6832:6843   */\n  add\n    /* \"#utility.yul\":6826:6844   */\n  mload\n    /* \"#utility.yul\":6822:6823   */\n  dup2\n    /* \"#utility.yul\":6817:6820   */\n  dup5\n    /* \"#utility.yul\":6813:6824   */\n  add\n    /* \"#utility.yul\":6806:6845   */\n  mstore\n    /* \"#utility.yul\":6778:6780   */\n  0x20\n    /* \"#utility.yul\":6775:6776   */\n  dup2\n    /* \"#utility.yul\":6771:6781   */\n  add\n    /* \"#utility.yul\":6766:6781   */\n  swap1\n  pop\n    /* \"#utility.yul\":6742:6855   */\n  jump(tag_219)\ntag_221:\n    /* \"#utility.yul\":6889:6890   */\n  0x00\n    /* \"#utility.yul\":6880:6886   */\n  dup5\n    /* \"#utility.yul\":6875:6878   */\n  dup5\n    /* \"#utility.yul\":6871:6887   */\n  add\n    /* \"#utility.yul\":6864:6891   */\n  mstore\n    /* \"#utility.yul\":6713:6897   */\n  pop\n    /* \"#utility.yul\":6651:6897   */\n  pop\n  pop\n  pop\n  jump\t// out\n    /* \"#utility.yul\":6903:7337   */\ntag_124:\n    /* \"#utility.yul\":6992:6997   */\n  0x00\n    /* \"#utility.yul\":7017:7083   */\n  tag_223\n    /* \"#utility.yul\":7033:7082   */\n  tag_224\n    /* \"#utility.yul\":7075:7081   */\n  dup5\n    /* \"#utility.yul\":7033:7082   */\n  tag_122\n  jump\t// in\ntag_224:\n    /* \"#utility.yul\":7017:7083   */\n  tag_121\n  jump\t// in\ntag_223:\n    /* \"#utility.yul\":7008:7083   */\n  swap1\n  pop\n    /* \"#utility.yul\":7106:7112   */\n  dup3\n    /* \"#utility.yul\":7099:7104   */\n  dup2\n    /* \"#utility.yul\":7092:7113   */\n  mstore\n    /* \"#utility.yul\":7144:7148   */\n  0x20\n    /* \"#utility.yul\":7137:7142   */\n  dup2\n    /* \"#utility.yul\":7133:7149   */\n  add\n    /* \"#utility.yul\":7182:7185   */\n  dup5\n    /* \"#utility.yul\":7173:7179   */\n  dup5\n    /* \"#utility.yul\":7168:7171   */\n  dup5\n    /* \"#utility.yul\":7164:7180   */\n  add\n    /* \"#utility.yul\":7161:7186   */\n  gt\n    /* \"#utility.yul\":7158:7270   */\n  iszero\n  tag_225\n  jumpi\n    /* \"#utility.yul\":7189:7268   */\n  tag_226\n  tag_118\n  jump\t// in\ntag_226:\n    /* \"#utility.yul\":7158:7270   */\ntag_225:\n    /* \"#utility.yul\":7279:7331   */\n  tag_227\n    /* \"#utility.yul\":7324:7330   */\n  dup5\n    /* \"#utility.yul\":7319:7322   */\n  dup3\n    /* \"#utility.yul\":7314:7317   */\n  dup6\n    /* \"#utility.yul\":7279:7331   */\n  tag_123\n  jump\t// in\ntag_227:\n    /* \"#utility.yul\":6998:7337   */\n  pop\n    /* \"#utility.yul\":6903:7337   */\n  swap4\n  swap3\n  pop\n  pop\n  pop\n  jump\t// out\n    /* \"#utility.yul\":7357:7712   */\ntag_125:\n    /* \"#utility.yul\":7424:7429   */\n  0x00\n    /* \"#utility.yul\":7473:7476   */\n  dup3\n    /* \"#utility.yul\":7466:7470   */\n  0x1f\n    /* \"#utility.yul\":7458:7464   */\n  dup4\n    /* \"#utility.yul\":7454:7471   */\n  add\n    /* \"#utility.yul\":7450:7477   */\n  slt\n    /* \"#utility.yul\":7440:7562   */\n  tag_229\n  jumpi\n    /* \"#utility.yul\":7481:7560   */\n  tag_230\n  tag_117\n  jump\t// in\ntag_230:\n    /* \"#utility.yul\":7440:7562   */\ntag_229:\n    /* \"#utility.yul\":7591:7597   */\n  dup2\n    /* \"#utility.yul\":7585:7598   */\n  mload\n    /* \"#utility.yul\":7616:7706   */\n  tag_231\n    /* \"#utility.yul\":7702:7705   */\n  dup5\n    /* \"#utility.yul\":7694:7700   */\n  dup3\n    /* \"#utility.yul\":7687:7691   */\n  0x20\n    /* \"#utility.yul\":7679:7685   */\n  dup7\n    /* \"#utility.yul\":7675:7692   */\n  add\n    /* \"#utility.yul\":7616:7706   */\n  tag_124\n  jump\t// in\ntag_231:\n    /* \"#utility.yul\":7607:7706   */\n  swap2\n  pop\n    /* \"#utility.yul\":7430:7712   */\n  pop\n    /* \"#utility.yul\":7357:7712   */\n  swap3\n  swap2\n  pop\n  pop\n  jump\t// out\n    /* \"#utility.yul\":7718:8571   */\ntag_5:\n    /* \"#utility.yul\":7817:7823   */\n  0x00\n    /* \"#utility.yul\":7825:7831   */\n  dup1\n    /* \"#utility.yul\":7874:7876   */\n  0x40\n    /* \"#utility.yul\":7862:7871   */\n  dup4\n    /* \"#utility.yul\":7853:7860   */\n  dup6\n    /* \"#utility.yul\":7849:7872   */\n  sub\n    /* \"#utility.yul\":7845:7877   */\n  slt\n    /* \"#utility.yul\":7842:7961   */\n  iszero\n  tag_233\n  jumpi\n    /* \"#utility.yul\":7880:7959   */\n  tag_234\n  tag_115\n  jump\t// in\ntag_234:\n    /* \"#utility.yul\":7842:7961   */\ntag_233:\n    /* \"#utility.yul\":8021:8022   */\n  0x00\n    /* \"#utility.yul\":8010:8019   */\n  dup4\n    /* \"#utility.yul\":8006:8023   */\n  add\n    /* \"#utility.yul\":8000:8024   */\n  mload\n    /* \"#utility.yul\":8051:8069   */\n  0xffffffffffffffff\n    /* \"#utility.yul\":8043:8049   */\n  dup2\n    /* \"#utility.yul\":8040:8070   */\n  gt\n    /* \"#utility.yul\":8037:8154   */\n  iszero\n  tag_235\n  jumpi\n    /* \"#utility.yul\":8073:8152   */\n  tag_236\n  tag_116\n  jump\t// in\ntag_236:\n    /* \"#utility.yul\":8037:8154   */\ntag_235:\n    /* \"#utility.yul\":8178:8252   */\n  tag_237\n    /* \"#utility.yul\":8244:8251   */\n  dup6\n    /* \"#utility.yul\":8235:8241   */\n  dup3\n    /* \"#utility.yul\":8224:8233   */\n  dup7\n    /* \"#utility.yul\":8220:8242   */\n  add\n    /* \"#utility.yul\":8178:8252   */\n  tag_125\n  jump\t// in\ntag_237:\n    /* \"#utility.yul\":8168:8252   */\n  swap3\n  pop\n    /* \"#utility.yul\":7971:8262   */\n  pop\n    /* \"#utility.yul\":8322:8324   */\n  0x20\n    /* \"#utility.yul\":8311:8320   */\n  dup4\n    /* \"#utility.yul\":8307:8325   */\n  add\n    /* \"#utility.yul\":8301:8326   */\n  mload\n    /* \"#utility.yul\":8353:8371   */\n  0xffffffffffffffff\n    /* \"#utility.yul\":8345:8351   */\n  dup2\n    /* \"#utility.yul\":8342:8372   */\n  gt\n    /* \"#utility.yul\":8339:8456   */\n  iszero\n  tag_238\n  jumpi\n    /* \"#utility.yul\":8375:8454   */\n  tag_239\n  tag_116\n  jump\t// in\ntag_239:\n    /* \"#utility.yul\":8339:8456   */\ntag_238:\n    /* \"#utility.yul\":8480:8554   */\n  tag_240\n    /* \"#utility.yul\":8546:8553   */\n  dup6\n    /* \"#utility.yul\":8537:8543   */\n  dup3\n    /* \"#utility.yul\":8526:8535   */\n  dup7\n    /* \"#utility.yul\":8522:8544   */\n  add\n    /* \"#utility.yul\":8480:8554   */\n  tag_125\n  jump\t// in\ntag_240:\n    /* \"#utility.yul\":8470:8554   */\n  swap2\n  pop\n    /* \"#utility.yul\":8272:8564   */\n  pop\n    /* \"#utility.yul\":7718:8571   */\n  swap3\n  pop\n  swap3\n  swap1\n  pop\n  jump\t// out\n    /* \"#utility.yul\":8577:8703   */\ntag_126:\n    /* \"#utility.yul\":8614:8621   */\n  0x00\n    /* \"#utility.yul\":8654:8696   */\n  0xffffffffffffffffffffffffffffffffffffffff\n    /* \"#utility.yul\":8647:8652   */\n  dup3\n    /* \"#utility.yul\":8643:8697   */\n  and\n    /* \"#utility.yul\":8632:8697   */\n  swap1\n  pop\n    /* \"#utility.yul\":8577:8703   */\n  swap2\n  swap1\n  pop\n  jump\t// out\n    /* \"#utility.yul\":8709:8805   */\ntag_127:\n    /* \"#utility.yul\":8746:8753   */\n  0x00\n    /* \"#utility.yul\":8775:8799   */\n  tag_243\n    /* \"#utility.yul\":8793:8798   */\n  dup3\n    /* \"#utility.yul\":8775:8799   */\n  tag_126\n  jump\t// in\ntag_243:\n    /* \"#utility.yul\":8764:8799   */\n  swap1\n  pop\n    /* \"#utility.yul\":8709:8805   */\n  swap2\n  swap1\n  pop\n  jump\t// out\n    /* \"#utility.yul\":8811:8929   */\ntag_128:\n    /* \"#utility.yul\":8898:8922   */\n  tag_245\n    /* \"#utility.yul\":8916:8921   */\n  dup2\n    /* \"#utility.yul\":8898:8922   */\n  tag_127\n  jump\t// in\ntag_245:\n    /* \"#utility.yul\":8893:8896   */\n  dup3\n    /* \"#utility.yul\":8886:8923   */\n  mstore\n    /* \"#utility.yul\":8811:8929   */\n  pop\n  pop\n  jump\t// out\n    /* \"#utility.yul\":8935:9157   */\ntag_15:\n    /* \"#utility.yul\":9028:9032   */\n  0x00\n    /* \"#utility.yul\":9066:9068   */\n  0x20\n    /* \"#utility.yul\":9055:9064   */\n  dup3\n    /* \"#utility.yul\":9051:9069   */\n  add\n    /* \"#utility.yul\":9043:9069   */\n  swap1\n  pop\n    /* \"#utility.yul\":9079:9150   */\n  tag_247\n    /* \"#utility.yul\":9147:9148   */\n  0x00\n    /* \"#utility.yul\":9136:9145   */\n  dup4\n    /* \"#utility.yul\":9132:9149   */\n  add\n    /* \"#utility.yul\":9123:9129   */\n  dup5\n    /* \"#utility.yul\":9079:9150   */\n  tag_128\n  jump\t// in\ntag_247:\n    /* \"#utility.yul\":8935:9157   */\n  swap3\n  swap2\n  pop\n  pop\n  jump\t// out\n    /* \"#utility.yul\":9163:9343   */\ntag_129:\n    /* \"#utility.yul\":9211:9288   */\n  0x4e487b7100000000000000000000000000000000000000000000000000000000\n    /* \"#utility.yul\":9208:9209   */\n  0x00\n    /* \"#utility.yul\":9201:9289   */\n  mstore\n    /* \"#utility.yul\":9308:9312   */\n  0x11\n    /* \"#utility.yul\":9305:9306   */\n  0x04\n    /* \"#utility.yul\":9298:9313   */\n  mstore\n    /* \"#utility.yul\":9332:9336   */\n  0x24\n    /* \"#utility.yul\":9329:9330   */\n  0x00\n    /* \"#utility.yul\":9322:9337   */\n  revert\n    /* \"#utility.yul\":9349:9435   */\ntag_130:\n    /* \"#utility.yul\":9384:9391   */\n  0x00\n    /* \"#utility.yul\":9424:9428   */\n  0xff\n    /* \"#utility.yul\":9417:9422   */\n  dup3\n    /* \"#utility.yul\":9413:9429   */\n  and\n    /* \"#utility.yul\":9402:9429   */\n  swap1\n  pop\n    /* \"#utility.yul\":9349:9435   */\n  swap2\n  swap1\n  pop\n  jump\t// out\n    /* \"#utility.yul\":9441:9608   */\ntag_45:\n    /* \"#utility.yul\":9478:9481   */\n  0x00\n    /* \"#utility.yul\":9501:9523   */\n  tag_251\n    /* \"#utility.yul\":9517:9522   */\n  dup3\n    /* \"#utility.yul\":9501:9523   */\n  tag_130\n  jump\t// in\ntag_251:\n    /* \"#utility.yul\":9492:9523   */\n  swap2\n  pop\n    /* \"#utility.yul\":9545:9549   */\n  0xff\n    /* \"#utility.yul\":9538:9543   */\n  dup3\n    /* \"#utility.yul\":9535:9550   */\n  sub\n    /* \"#utility.yul\":9532:9573   */\n  tag_252\n  jumpi\n    /* \"#utility.yul\":9553:9571   */\n  tag_253\n  tag_129\n  jump\t// in\ntag_253:\n    /* \"#utility.yul\":9532:9573   */\ntag_252:\n    /* \"#utility.yul\":9600:9601   */\n  0x01\n    /* \"#utility.yul\":9593:9598   */\n  dup3\n    /* \"#utility.yul\":9589:9602   */\n  add\n    /* \"#utility.yul\":9582:9602   */\n  swap1\n  pop\n    /* \"#utility.yul\":9441:9608   */\n  swap2\n  swap1\n  pop\n  jump\t// out\n    /* \"#utility.yul\":9614:9783   */\ntag_131:\n    /* \"#utility.yul\":9698:9709   */\n  0x00\n    /* \"#utility.yul\":9732:9738   */\n  dup3\n    /* \"#utility.yul\":9727:9730   */\n  dup3\n    /* \"#utility.yul\":9720:9739   */\n  mstore\n    /* \"#utility.yul\":9772:9776   */\n  0x20\n    /* \"#utility.yul\":9767:9770   */\n  dup3\n    /* \"#utility.yul\":9763:9777   */\n  add\n    /* \"#utility.yul\":9748:9777   */\n  swap1\n  pop\n    /* \"#utility.yul\":9614:9783   */\n  swap3\n  swap2\n  pop\n  pop\n  jump\t// out\n    /* \"#utility.yul\":9789:10023   */\ntag_132:\n    /* \"#utility.yul\":9929:9963   */\n  0x45524332303a3a204d696e7420616d6f756e742073686f756c64206265206772\n    /* \"#utility.yul\":9925:9926   */\n  0x00\n    /* \"#utility.yul\":9917:9923   */\n  dup3\n    /* \"#utility.yul\":9913:9927   */\n  add\n    /* \"#utility.yul\":9906:9964   */\n  mstore\n    /* \"#utility.yul\":9998:10015   */\n  0x6561746572207468616e207a65726f0000000000000000000000000000000000\n    /* \"#utility.yul\":9993:9995   */\n  0x20\n    /* \"#utility.yul\":9985:9991   */\n  dup3\n    /* \"#utility.yul\":9981:9996   */\n  add\n    /* \"#utility.yul\":9974:10016   */\n  mstore\n    /* \"#utility.yul\":9789:10023   */\n  pop\n  jump\t// out\n    /* \"#utility.yul\":10029:10395   */\ntag_133:\n    /* \"#utility.yul\":10171:10174   */\n  0x00\n    /* \"#utility.yul\":10192:10259   */\n  tag_257\n    /* \"#utility.yul\":10256:10258   */\n  0x2f\n    /* \"#utility.yul\":10251:10254   */\n  dup4\n    /* \"#utility.yul\":10192:10259   */\n  tag_131\n  jump\t// in\ntag_257:\n    /* \"#utility.yul\":10185:10259   */\n  swap2\n  pop\n    /* \"#utility.yul\":10268:10361   */\n  tag_258\n    /* \"#utility.yul\":10357:10360   */\n  dup3\n    /* \"#utility.yul\":10268:10361   */\n  tag_132\n  jump\t// in\ntag_258:\n    /* \"#utility.yul\":10386:10388   */\n  0x40\n    /* \"#utility.yul\":10381:10384   */\n  dup3\n    /* \"#utility.yul\":10377:10389   */\n  add\n    /* \"#utility.yul\":10370:10389   */\n  swap1\n  pop\n    /* \"#utility.yul\":10029:10395   */\n  swap2\n  swap1\n  pop\n  jump\t// out\n    /* \"#utility.yul\":10401:10820   */\ntag_54:\n    /* \"#utility.yul\":10567:10571   */\n  0x00\n    /* \"#utility.yul\":10605:10607   */\n  0x20\n    /* \"#utility.yul\":10594:10603   */\n  dup3\n    /* \"#utility.yul\":10590:10608   */\n  add\n    /* \"#utility.yul\":10582:10608   */\n  swap1\n  pop\n    /* \"#utility.yul\":10654:10663   */\n  dup2\n    /* \"#utility.yul\":10648:10652   */\n  dup2\n    /* \"#utility.yul\":10644:10664   */\n  sub\n    /* \"#utility.yul\":10640:10641   */\n  0x00\n    /* \"#utility.yul\":10629:10638   */\n  dup4\n    /* \"#utility.yul\":10625:10642   */\n  add\n    /* \"#utility.yul\":10618:10665   */\n  mstore\n    /* \"#utility.yul\":10682:10813   */\n  tag_260\n    /* \"#utility.yul\":10808:10812   */\n  dup2\n    /* \"#utility.yul\":10682:10813   */\n  tag_133\n  jump\t// in\ntag_260:\n    /* \"#utility.yul\":10674:10813   */\n  swap1\n  pop\n    /* \"#utility.yul\":10401:10820   */\n  swap2\n  swap1\n  pop\n  jump\t// out\n    /* \"#utility.yul\":10826:11061   */\ntag_134:\n    /* \"#utility.yul\":10966:11000   */\n  0x45524332303a3a20757365722073686f756c64206e6f7420626520657175616c\n    /* \"#utility.yul\":10962:10963   */\n  0x00\n    /* \"#utility.yul\":10954:10960   */\n  dup3\n    /* \"#utility.yul\":10950:10964   */\n  add\n    /* \"#utility.yul\":10943:11001   */\n  mstore\n    /* \"#utility.yul\":11035:11053   */\n  0x20746f2061646472657373207a65726f00000000000000000000000000000000\n    /* \"#utility.yul\":11030:11032   */\n  0x20\n    /* \"#utility.yul\":11022:11028   */\n  dup3\n    /* \"#utility.yul\":11018:11033   */\n  add\n    /* \"#utility.yul\":11011:11054   */\n  mstore\n    /* \"#utility.yul\":10826:11061   */\n  pop\n  jump\t// out\n    /* \"#utility.yul\":11067:11433   */\ntag_135:\n    /* \"#utility.yul\":11209:11212   */\n  0x00\n    /* \"#utility.yul\":11230:11297   */\n  tag_263\n    /* \"#utility.yul\":11294:11296   */\n  0x30\n    /* \"#utility.yul\":11289:11292   */\n  dup4\n    /* \"#utility.yul\":11230:11297   */\n  tag_131\n  jump\t// in\ntag_263:\n    /* \"#utility.yul\":11223:11297   */\n  swap2\n  pop\n    /* \"#utility.yul\":11306:11399   */\n  tag_264\n    /* \"#utility.yul\":11395:11398   */\n  dup3\n    /* \"#utility.yul\":11306:11399   */\n  tag_134\n  jump\t// in\ntag_264:\n    /* \"#utility.yul\":11424:11426   */\n  0x40\n    /* \"#utility.yul\":11419:11422   */\n  dup3\n    /* \"#utility.yul\":11415:11427   */\n  add\n    /* \"#utility.yul\":11408:11427   */\n  swap1\n  pop\n    /* \"#utility.yul\":11067:11433   */\n  swap2\n  swap1\n  pop\n  jump\t// out\n    /* \"#utility.yul\":11439:11858   */\ntag_57:\n    /* \"#utility.yul\":11605:11609   */\n  0x00\n    /* \"#utility.yul\":11643:11645   */\n  0x20\n    /* \"#utility.yul\":11632:11641   */\n  dup3\n    /* \"#utility.yul\":11628:11646   */\n  add\n    /* \"#utility.yul\":11620:11646   */\n  swap1\n  pop\n    /* \"#utility.yul\":11692:11701   */\n  dup2\n    /* \"#utility.yul\":11686:11690   */\n  dup2\n    /* \"#utility.yul\":11682:11702   */\n  sub\n    /* \"#utility.yul\":11678:11679   */\n  0x00\n    /* \"#utility.yul\":11667:11676   */\n  dup4\n    /* \"#utility.yul\":11663:11680   */\n  add\n    /* \"#utility.yul\":11656:11703   */\n  mstore\n    /* \"#utility.yul\":11720:11851   */\n  tag_266\n    /* \"#utility.yul\":11846:11850   */\n  dup2\n    /* \"#utility.yul\":11720:11851   */\n  tag_135\n  jump\t// in\ntag_266:\n    /* \"#utility.yul\":11712:11851   */\n  swap1\n  pop\n    /* \"#utility.yul\":11439:11858   */\n  swap2\n  swap1\n  pop\n  jump\t// out\n    /* \"#utility.yul\":11864:12012   */\ntag_136:\n    /* \"#utility.yul\":11966:11977   */\n  0x00\n    /* \"#utility.yul\":12003:12006   */\n  dup2\n    /* \"#utility.yul\":11988:12006   */\n  swap1\n  pop\n    /* \"#utility.yul\":11864:12012   */\n  swap3\n  swap2\n  pop\n  pop\n  jump\t// out\n    /* \"#utility.yul\":12018:12408   */\ntag_137:\n    /* \"#utility.yul\":12124:12127   */\n  0x00\n    /* \"#utility.yul\":12152:12191   */\n  tag_269\n    /* \"#utility.yul\":12185:12190   */\n  dup3\n    /* \"#utility.yul\":12152:12191   */\n  tag_95\n  jump\t// in\ntag_269:\n    /* \"#utility.yul\":12207:12296   */\n  tag_270\n    /* \"#utility.yul\":12289:12295   */\n  dup2\n    /* \"#utility.yul\":12284:12287   */\n  dup6\n    /* \"#utility.yul\":12207:12296   */\n  tag_136\n  jump\t// in\ntag_270:\n    /* \"#utility.yul\":12200:12296   */\n  swap4\n  pop\n    /* \"#utility.yul\":12305:12370   */\n  tag_271\n    /* \"#utility.yul\":12363:12369   */\n  dup2\n    /* \"#utility.yul\":12358:12361   */\n  dup6\n    /* \"#utility.yul\":12351:12355   */\n  0x20\n    /* \"#utility.yul\":12344:12349   */\n  dup7\n    /* \"#utility.yul\":12340:12356   */\n  add\n    /* \"#utility.yul\":12305:12370   */\n  tag_123\n  jump\t// in\ntag_271:\n    /* \"#utility.yul\":12395:12401   */\n  dup1\n    /* \"#utility.yul\":12390:12393   */\n  dup5\n    /* \"#utility.yul\":12386:12402   */\n  add\n    /* \"#utility.yul\":12379:12402   */\n  swap2\n  pop\n    /* \"#utility.yul\":12128:12408   */\n  pop\n    /* \"#utility.yul\":12018:12408   */\n  swap3\n  swap2\n  pop\n  pop\n  jump\t// out\n    /* \"#utility.yul\":12414:12689   */\ntag_78:\n    /* \"#utility.yul\":12546:12549   */\n  0x00\n    /* \"#utility.yul\":12568:12663   */\n  tag_273\n    /* \"#utility.yul\":12659:12662   */\n  dup3\n    /* \"#utility.yul\":12650:12656   */\n  dup5\n    /* \"#utility.yul\":12568:12663   */\n  tag_137\n  jump\t// in\ntag_273:\n    /* \"#utility.yul\":12561:12663   */\n  swap2\n  pop\n    /* \"#utility.yul\":12680:12683   */\n  dup2\n    /* \"#utility.yul\":12673:12683   */\n  swap1\n  pop\n    /* \"#utility.yul\":12414:12689   */\n  swap3\n  swap2\n  pop\n  pop\n  jump\t// out\n    /* \"#utility.yul\":12695:12886   */\ntag_86:\n    /* \"#utility.yul\":12735:12738   */\n  0x00\n    /* \"#utility.yul\":12754:12774   */\n  tag_275\n    /* \"#utility.yul\":12772:12773   */\n  dup3\n    /* \"#utility.yul\":12754:12774   */\n  tag_102\n  jump\t// in\ntag_275:\n    /* \"#utility.yul\":12749:12774   */\n  swap2\n  pop\n    /* \"#utility.yul\":12788:12808   */\n  tag_276\n    /* \"#utility.yul\":12806:12807   */\n  dup4\n    /* \"#utility.yul\":12788:12808   */\n  tag_102\n  jump\t// in\ntag_276:\n    /* \"#utility.yul\":12783:12808   */\n  swap3\n  pop\n    /* \"#utility.yul\":12831:12832   */\n  dup3\n    /* \"#utility.yul\":12828:12829   */\n  dup3\n    /* \"#utility.yul\":12824:12833   */\n  add\n    /* \"#utility.yul\":12817:12833   */\n  swap1\n  pop\n    /* \"#utility.yul\":12852:12855   */\n  dup1\n    /* \"#utility.yul\":12849:12850   */\n  dup3\n    /* \"#utility.yul\":12846:12856   */\n  gt\n    /* \"#utility.yul\":12843:12879   */\n  iszero\n  tag_277\n  jumpi\n    /* \"#utility.yul\":12859:12877   */\n  tag_278\n  tag_129\n  jump\t// in\ntag_278:\n    /* \"#utility.yul\":12843:12879   */\ntag_277:\n    /* \"#utility.yul\":12695:12886   */\n  swap3\n  swap2\n  pop\n  pop\n  jump\t// out\n    /* \"#utility.yul\":12892:13010   */\ntag_138:\n    /* \"#utility.yul\":12979:13003   */\n  tag_280\n    /* \"#utility.yul\":12997:13002   */\n  dup2\n    /* \"#utility.yul\":12979:13003   */\n  tag_102\n  jump\t// in\ntag_280:\n    /* \"#utility.yul\":12974:12977   */\n  dup3\n    /* \"#utility.yul\":12967:13004   */\n  mstore\n    /* \"#utility.yul\":12892:13010   */\n  pop\n  pop\n  jump\t// out\n    /* \"#utility.yul\":13016:13458   */\ntag_90:\n    /* \"#utility.yul\":13165:13169   */\n  0x00\n    /* \"#utility.yul\":13203:13205   */\n  0x60\n    /* \"#utility.yul\":13192:13201   */\n  dup3\n    /* \"#utility.yul\":13188:13206   */\n  add\n    /* \"#utility.yul\":13180:13206   */\n  swap1\n  pop\n    /* \"#utility.yul\":13216:13287   */\n  tag_282\n    /* \"#utility.yul\":13284:13285   */\n  0x00\n    /* \"#utility.yul\":13273:13282   */\n  dup4\n    /* \"#utility.yul\":13269:13286   */\n  add\n    /* \"#utility.yul\":13260:13266   */\n  dup7\n    /* \"#utility.yul\":13216:13287   */\n  tag_128\n  jump\t// in\ntag_282:\n    /* \"#utility.yul\":13297:13369   */\n  tag_283\n    /* \"#utility.yul\":13365:13367   */\n  0x20\n    /* \"#utility.yul\":13354:13363   */\n  dup4\n    /* \"#utility.yul\":13350:13368   */\n  add\n    /* \"#utility.yul\":13341:13347   */\n  dup6\n    /* \"#utility.yul\":13297:13369   */\n  tag_138\n  jump\t// in\ntag_283:\n    /* \"#utility.yul\":13379:13451   */\n  tag_284\n    /* \"#utility.yul\":13447:13449   */\n  0x40\n    /* \"#utility.yul\":13436:13445   */\n  dup4\n    /* \"#utility.yul\":13432:13450   */\n  add\n    /* \"#utility.yul\":13423:13429   */\n  dup5\n    /* \"#utility.yul\":13379:13451   */\n  tag_138\n  jump\t// in\ntag_284:\n    /* \"#utility.yul\":13016:13458   */\n  swap5\n  swap4\n  pop\n  pop\n  pop\n  pop\n  jump\t// out\n    /* \"#utility.yul\":13464:13686   */\ntag_94:\n    /* \"#utility.yul\":13557:13561   */\n  0x00\n    /* \"#utility.yul\":13595:13597   */\n  0x20\n    /* \"#utility.yul\":13584:13593   */\n  dup3\n    /* \"#utility.yul\":13580:13598   */\n  add\n    /* \"#utility.yul\":13572:13598   */\n  swap1\n  pop\n    /* \"#utility.yul\":13608:13679   */\n  tag_286\n    /* \"#utility.yul\":13676:13677   */\n  0x00\n    /* \"#utility.yul\":13665:13674   */\n  dup4\n    /* \"#utility.yul\":13661:13678   */\n  add\n    /* \"#utility.yul\":13652:13658   */\n  dup5\n    /* \"#utility.yul\":13608:13679   */\n  tag_138\n  jump\t// in\ntag_286:\n    /* \"#utility.yul\":13464:13686   */\n  swap3\n  swap2\n  pop\n  pop\n  jump\t// out\n    /* \"contracts/Anryton.sol\":167:4718  contract Anryton is ERC20, Ownable {... */\ntag_21:\n  dataSize(sub_0)\n  dup1\n  dataOffset(sub_0)\n  0x00\n  codecopy\n  0x00\n  return\nstop\n\nsub_0: assembly {\n        /* \"contracts/Anryton.sol\":167:4718  contract Anryton is ERC20, Ownable {... */\n      mstore(0x40, 0x80)\n      callvalue\n      dup1\n      iszero\n      tag_1\n      jumpi\n      0x00\n      dup1\n      revert\n    tag_1:\n      pop\n      jumpi(tag_2, lt(calldatasize, 0x04))\n      shr(0xe0, calldataload(0x00))\n      dup1\n      0x70a08231\n      gt\n      tag_21\n      jumpi\n      dup1\n      0x95d89b41\n      gt\n      tag_22\n      jumpi\n      dup1\n      0x95d89b41\n      eq\n      tag_16\n      jumpi\n      dup1\n      0xa9059cbb\n      eq\n      tag_17\n      jumpi\n      dup1\n      0xdd62ed3e\n      eq\n      tag_18\n      jumpi\n      dup1\n      0xf2fde38b\n      eq\n      tag_19\n      jumpi\n      dup1\n      0xf3d22d38\n      eq\n      tag_20\n      jumpi\n      jump(tag_2)\n    tag_22:\n      dup1\n      0x70a08231\n      eq\n      tag_12\n      jumpi\n      dup1\n      0x715018a6\n      eq\n      tag_13\n      jumpi\n      dup1\n      0x8da5cb5b\n      eq\n      tag_14\n      jumpi\n      dup1\n      0x944df045\n      eq\n      tag_15\n      jumpi\n      jump(tag_2)\n    tag_21:\n      dup1\n      0x18160ddd\n      gt\n      tag_23\n      jumpi\n      dup1\n      0x18160ddd\n      eq\n      tag_7\n      jumpi\n      dup1\n      0x2240166d\n      eq\n      tag_8\n      jumpi\n      dup1\n      0x23b872dd\n      eq\n      tag_9\n      jumpi\n      dup1\n      0x313ce567\n      eq\n      tag_10\n      jumpi\n      dup1\n      0x4c0f38c2\n      eq\n      tag_11\n      jumpi\n      jump(tag_2)\n    tag_23:\n      dup1\n      0x060a9aeb\n      eq\n      tag_3\n      jumpi\n      dup1\n      0x06fdde03\n      eq\n      tag_4\n      jumpi\n      dup1\n      0x095ea7b3\n      eq\n      tag_5\n      jumpi\n      dup1\n      0x1249c58b\n      eq\n      tag_6\n      jumpi\n    tag_2:\n      0x00\n      dup1\n      revert\n        /* \"contracts/Anryton.sol\":4015:4321  function getAssignedWalletAndSupply(... */\n    tag_3:\n      tag_24\n      0x04\n      dup1\n      calldatasize\n      sub\n      dup2\n      add\n      swap1\n      tag_25\n      swap2\n      swap1\n      tag_26\n      jump\t// in\n    tag_25:\n      tag_27\n      jump\t// in\n    tag_24:\n      mload(0x40)\n      tag_28\n      swap3\n      swap2\n      swap1\n      tag_29\n      jump\t// in\n    tag_28:\n      mload(0x40)\n      dup1\n      swap2\n      sub\n      swap1\n      return\n        /* \"@openzeppelin/contracts/token/ERC20/ERC20.sol\":2073:2162  function name() public view virtual returns (string memory) {... */\n    tag_4:\n      tag_30\n      tag_31\n      jump\t// in\n    tag_30:\n      mload(0x40)\n      tag_32\n      swap2\n      swap1\n      tag_33\n      jump\t// in\n    tag_32:\n      mload(0x40)\n      dup1\n      swap2\n      sub\n      swap1\n      return\n        /* \"@openzeppelin/contracts/token/ERC20/ERC20.sol\":4292:4478  function approve(address spender, uint256 value) public virtual returns (bool) {... */\n    tag_5:\n      tag_34\n      0x04\n      dup1\n      calldatasize\n      sub\n      dup2\n      add\n      swap1\n      tag_35\n      swap2\n      swap1\n      tag_36\n      jump\t// in\n    tag_35:\n      tag_37\n      jump\t// in\n    tag_34:\n      mload(0x40)\n      tag_38\n      swap2\n      swap1\n      tag_39\n      jump\t// in\n    tag_38:\n      mload(0x40)\n      dup1\n      swap2\n      sub\n      swap1\n      return\n        /* \"contracts/Anryton.sol\":2661:3402  function mint() public onlyOwner {... */\n    tag_6:\n      tag_40\n      tag_41\n      jump\t// in\n    tag_40:\n      stop\n        /* \"@openzeppelin/contracts/token/ERC20/ERC20.sol\":3143:3240  function totalSupply() public view virtual returns (uint256) {... */\n    tag_7:\n      tag_42\n      tag_43\n      jump\t// in\n    tag_42:\n      mload(0x40)\n      tag_44\n      swap2\n      swap1\n      tag_45\n      jump\t// in\n    tag_44:\n      mload(0x40)\n      dup1\n      swap2\n      sub\n      swap1\n      return\n        /* \"contracts/Anryton.sol\":681:727  mapping(uint => MintingSale) public mintedSale */\n    tag_8:\n      tag_46\n      0x04\n      dup1\n      calldatasize\n      sub\n      dup2\n      add\n      swap1\n      tag_47\n      swap2\n      swap1\n      tag_48\n      jump\t// in\n    tag_47:\n      tag_49\n      jump\t// in\n    tag_46:\n      mload(0x40)\n      tag_50\n      swap4\n      swap3\n      swap2\n      swap1\n      tag_51\n      jump\t// in\n    tag_50:\n      mload(0x40)\n      dup1\n      swap2\n      sub\n      swap1\n      return\n        /* \"@openzeppelin/contracts/token/ERC20/ERC20.sol\":5038:5282  function transferFrom(address from, address to, uint256 value) public virtual returns (bool) {... */\n    tag_9:\n      tag_52\n      0x04\n      dup1\n      calldatasize\n      sub\n      dup2\n      add\n      swap1\n      tag_53\n      swap2\n      swap1\n      tag_54\n      jump\t// in\n    tag_53:\n      tag_55\n      jump\t// in\n    tag_52:\n      mload(0x40)\n      tag_56\n      swap2\n      swap1\n      tag_39\n      jump\t// in\n    tag_56:\n      mload(0x40)\n      dup1\n      swap2\n      sub\n      swap1\n      return\n        /* \"@openzeppelin/contracts/token/ERC20/ERC20.sol\":3001:3083  function decimals() public view virtual returns (uint8) {... */\n    tag_10:\n      tag_57\n      tag_58\n      jump\t// in\n    tag_57:\n      mload(0x40)\n      tag_59\n      swap2\n      swap1\n      tag_60\n      jump\t// in\n    tag_59:\n      mload(0x40)\n      dup1\n      swap2\n      sub\n      swap1\n      return\n        /* \"contracts/Anryton.sol\":4622:4716  function getMaxSupply() public pure returns (uint160) {... */\n    tag_11:\n      tag_61\n      tag_62\n      jump\t// in\n    tag_61:\n      mload(0x40)\n      tag_63\n      swap2\n      swap1\n      tag_64\n      jump\t// in\n    tag_63:\n      mload(0x40)\n      dup1\n      swap2\n      sub\n      swap1\n      return\n        /* \"@openzeppelin/contracts/token/ERC20/ERC20.sol\":3298:3414  function balanceOf(address account) public view virtual returns (uint256) {... */\n    tag_12:\n      tag_65\n      0x04\n      dup1\n      calldatasize\n      sub\n      dup2\n      add\n      swap1\n      tag_66\n      swap2\n      swap1\n      tag_67\n      jump\t// in\n    tag_66:\n      tag_68\n      jump\t// in\n    tag_65:\n      mload(0x40)\n      tag_69\n      swap2\n      swap1\n      tag_45\n      jump\t// in\n    tag_69:\n      mload(0x40)\n      dup1\n      swap2\n      sub\n      swap1\n      return\n        /* \"@openzeppelin/contracts/access/Ownable.sol\":2292:2393  function renounceOwnership() public virtual onlyOwner {... */\n    tag_13:\n      tag_70\n      tag_71\n      jump\t// in\n    tag_70:\n      stop\n        /* \"@openzeppelin/contracts/access/Ownable.sol\":1637:1722  function owner() public view virtual returns (address) {... */\n    tag_14:\n      tag_72\n      tag_73\n      jump\t// in\n    tag_72:\n      mload(0x40)\n      tag_74\n      swap2\n      swap1\n      tag_75\n      jump\t// in\n    tag_74:\n      mload(0x40)\n      dup1\n      swap2\n      sub\n      swap1\n      return\n        /* \"contracts/Anryton.sol\":4429:4525  function getLatestSale() public view returns (string memory) {... */\n    tag_15:\n      tag_76\n      tag_77\n      jump\t// in\n    tag_76:\n      mload(0x40)\n      tag_78\n      swap2\n      swap1\n      tag_33\n      jump\t// in\n    tag_78:\n      mload(0x40)\n      dup1\n      swap2\n      sub\n      swap1\n      return\n        /* \"@openzeppelin/contracts/token/ERC20/ERC20.sol\":2275:2368  function symbol() public view virtual returns (string memory) {... */\n    tag_16:\n      tag_79\n      tag_80\n      jump\t// in\n    tag_79:\n      mload(0x40)\n      tag_81\n      swap2\n      swap1\n      tag_33\n      jump\t// in\n    tag_81:\n      mload(0x40)\n      dup1\n      swap2\n      sub\n      swap1\n      return\n        /* \"@openzeppelin/contracts/token/ERC20/ERC20.sol\":3609:3787  function transfer(address to, uint256 value) public virtual returns (bool) {... */\n    tag_17:\n      tag_82\n      0x04\n      dup1\n      calldatasize\n      sub\n      dup2\n      add\n      swap1\n      tag_83\n      swap2\n      swap1\n      tag_36\n      jump\t// in\n    tag_83:\n      tag_84\n      jump\t// in\n    tag_82:\n      mload(0x40)\n      tag_85\n      swap2\n      swap1\n      tag_39\n      jump\t// in\n    tag_85:\n      mload(0x40)\n      dup1\n      swap2\n      sub\n      swap1\n      return\n        /* \"@openzeppelin/contracts/token/ERC20/ERC20.sol\":3845:3985  function allowance(address owner, address spender) public view virtual returns (uint256) {... */\n    tag_18:\n      tag_86\n      0x04\n      dup1\n      calldatasize\n      sub\n      dup2\n      add\n      swap1\n      tag_87\n      swap2\n      swap1\n      tag_88\n      jump\t// in\n    tag_87:\n      tag_89\n      jump\t// in\n    tag_86:\n      mload(0x40)\n      tag_90\n      swap2\n      swap1\n      tag_45\n      jump\t// in\n    tag_90:\n      mload(0x40)\n      dup1\n      swap2\n      sub\n      swap1\n      return\n        /* \"@openzeppelin/contracts/access/Ownable.sol\":2542:2757  function transferOwnership(address newOwner) public virtual onlyOwner {... */\n    tag_19:\n      tag_91\n      0x04\n      dup1\n      calldatasize\n      sub\n      dup2\n      add\n      swap1\n      tag_92\n      swap2\n      swap1\n      tag_67\n      jump\t// in\n    tag_92:\n      tag_93\n      jump\t// in\n    tag_91:\n      stop\n        /* \"contracts/Anryton.sol\":436:467  uint8 public mintingCounter = 0 */\n    tag_20:\n      tag_94\n      tag_95\n      jump\t// in\n    tag_94:\n      mload(0x40)\n      tag_96\n      swap2\n      swap1\n      tag_60\n      jump\t// in\n    tag_96:\n      mload(0x40)\n      dup1\n      swap2\n      sub\n      swap1\n      return\n        /* \"contracts/Anryton.sol\":4015:4321  function getAssignedWalletAndSupply(... */\n    tag_27:\n        /* \"contracts/Anryton.sol\":4110:4117  uint256 */\n      0x00\n        /* \"contracts/Anryton.sol\":4119:4126  address */\n      dup1\n        /* \"contracts/Anryton.sol\":4138:4159  address walletAddress */\n      0x00\n        /* \"contracts/Anryton.sol\":4162:4182  assignedWalletToSale */\n      0x08\n        /* \"contracts/Anryton.sol\":4183:4191  saleName */\n      dup5\n        /* \"contracts/Anryton.sol\":4162:4192  assignedWalletToSale[saleName] */\n      mload(0x40)\n      tag_98\n      swap2\n      swap1\n      tag_99\n      jump\t// in\n    tag_98:\n      swap1\n      dup2\n      mstore\n      0x20\n      add\n      mload(0x40)\n      dup1\n      swap2\n      sub\n      swap1\n      keccak256\n      0x00\n      swap1\n      sload\n      swap1\n      0x0100\n      exp\n      swap1\n      div\n      0xffffffffffffffffffffffffffffffffffffffff\n      and\n        /* \"contracts/Anryton.sol\":4138:4192  address walletAddress = assignedWalletToSale[saleName] */\n      swap1\n      pop\n        /* \"contracts/Anryton.sol\":4202:4222  uint256 mintedSupply */\n      0x00\n        /* \"contracts/Anryton.sol\":4225:4243  mintedWalletSupply */\n      0x09\n        /* \"contracts/Anryton.sol\":4244:4252  saleName */\n      dup6\n        /* \"contracts/Anryton.sol\":4225:4253  mintedWalletSupply[saleName] */\n      mload(0x40)\n      tag_100\n      swap2\n      swap1\n      tag_99\n      jump\t// in\n    tag_100:\n      swap1\n      dup2\n      mstore\n      0x20\n      add\n      mload(0x40)\n      dup1\n      swap2\n      sub\n      swap1\n      keccak256\n        /* \"contracts/Anryton.sol\":4225:4268  mintedWalletSupply[saleName][walletAddress] */\n      0x00\n        /* \"contracts/Anryton.sol\":4254:4267  walletAddress */\n      dup4\n        /* \"contracts/Anryton.sol\":4225:4268  mintedWalletSupply[saleName][walletAddress] */\n      0xffffffffffffffffffffffffffffffffffffffff\n      and\n      0xffffffffffffffffffffffffffffffffffffffff\n      and\n      dup2\n      mstore\n      0x20\n      add\n      swap1\n      dup2\n      mstore\n      0x20\n      add\n      0x00\n      keccak256\n      sload\n        /* \"contracts/Anryton.sol\":4202:4268  uint256 mintedSupply = mintedWalletSupply[saleName][walletAddress] */\n      swap1\n      pop\n        /* \"contracts/Anryton.sol\":4286:4298  mintedSupply */\n      dup1\n        /* \"contracts/Anryton.sol\":4300:4313  walletAddress */\n      dup3\n        /* \"contracts/Anryton.sol\":4278:4314  return (mintedSupply, walletAddress) */\n      swap4\n      pop\n      swap4\n      pop\n      pop\n      pop\n        /* \"contracts/Anryton.sol\":4015:4321  function getAssignedWalletAndSupply(... */\n      swap2\n      pop\n      swap2\n      jump\t// out\n        /* \"@openzeppelin/contracts/token/ERC20/ERC20.sol\":2073:2162  function name() public view virtual returns (string memory) {... */\n    tag_31:\n        /* \"@openzeppelin/contracts/token/ERC20/ERC20.sol\":2118:2131  string memory */\n      0x60\n        /* \"@openzeppelin/contracts/token/ERC20/ERC20.sol\":2150:2155  _name */\n      0x03\n        /* \"@openzeppelin/contracts/token/ERC20/ERC20.sol\":2143:2155  return _name */\n      dup1\n      sload\n      tag_102\n      swap1\n      tag_103\n      jump\t// in\n    tag_102:\n      dup1\n      0x1f\n      add\n      0x20\n      dup1\n      swap2\n      div\n      mul\n      0x20\n      add\n      mload(0x40)\n      swap1\n      dup2\n      add\n      0x40\n      mstore\n      dup1\n      swap3\n      swap2\n      swap1\n      dup2\n      dup2\n      mstore\n      0x20\n      add\n      dup3\n      dup1\n      sload\n      tag_104\n      swap1\n      tag_103\n      jump\t// in\n    tag_104:\n      dup1\n      iszero\n      tag_105\n      jumpi\n      dup1\n      0x1f\n      lt\n      tag_106\n      jumpi\n      0x0100\n      dup1\n      dup4\n      sload\n      div\n      mul\n      dup4\n      mstore\n      swap2\n      0x20\n      add\n      swap2\n      jump(tag_105)\n    tag_106:\n      dup3\n      add\n      swap2\n      swap1\n      0x00\n      mstore\n      keccak256(0x00, 0x20)\n      swap1\n    tag_107:\n      dup2\n      sload\n      dup2\n      mstore\n      swap1\n      0x01\n      add\n      swap1\n      0x20\n      add\n      dup1\n      dup4\n      gt\n      tag_107\n      jumpi\n      dup3\n      swap1\n      sub\n      0x1f\n      and\n      dup3\n      add\n      swap2\n    tag_105:\n      pop\n      pop\n      pop\n      pop\n      pop\n      swap1\n      pop\n        /* \"@openzeppelin/contracts/token/ERC20/ERC20.sol\":2073:2162  function name() public view virtual returns (string memory) {... */\n      swap1\n      jump\t// out\n        /* \"@openzeppelin/contracts/token/ERC20/ERC20.sol\":4292:4478  function approve(address spender, uint256 value) public virtual returns (bool) {... */\n    tag_37:\n        /* \"@openzeppelin/contracts/token/ERC20/ERC20.sol\":4365:4369  bool */\n      0x00\n        /* \"@openzeppelin/contracts/token/ERC20/ERC20.sol\":4381:4394  address owner */\n      dup1\n        /* \"@openzeppelin/contracts/token/ERC20/ERC20.sol\":4397:4409  _msgSender() */\n      tag_109\n        /* \"@openzeppelin/contracts/token/ERC20/ERC20.sol\":4397:4407  _msgSender */\n      tag_110\n        /* \"@openzeppelin/contracts/token/ERC20/ERC20.sol\":4397:4409  _msgSender() */\n      jump\t// in\n    tag_109:\n        /* \"@openzeppelin/contracts/token/ERC20/ERC20.sol\":4381:4409  address owner = _msgSender() */\n      swap1\n      pop\n        /* \"@openzeppelin/contracts/token/ERC20/ERC20.sol\":4419:4450  _approve(owner, spender, value) */\n      tag_111\n        /* \"@openzeppelin/contracts/token/ERC20/ERC20.sol\":4428:4433  owner */\n      dup2\n        /* \"@openzeppelin/contracts/token/ERC20/ERC20.sol\":4435:4442  spender */\n      dup6\n        /* \"@openzeppelin/contracts/token/ERC20/ERC20.sol\":4444:4449  value */\n      dup6\n        /* \"@openzeppelin/contracts/token/ERC20/ERC20.sol\":4419:4427  _approve */\n      tag_112\n        /* \"@openzeppelin/contracts/token/ERC20/ERC20.sol\":4419:4450  _approve(owner, spender, value) */\n      jump\t// in\n    tag_111:\n        /* \"@openzeppelin/contracts/token/ERC20/ERC20.sol\":4467:4471  true */\n      0x01\n        /* \"@openzeppelin/contracts/token/ERC20/ERC20.sol\":4460:4471  return true */\n      swap2\n      pop\n      pop\n        /* \"@openzeppelin/contracts/token/ERC20/ERC20.sol\":4292:4478  function approve(address spender, uint256 value) public virtual returns (bool) {... */\n      swap3\n      swap2\n      pop\n      pop\n      jump\t// out\n        /* \"contracts/Anryton.sol\":2661:3402  function mint() public onlyOwner {... */\n    tag_41:\n        /* \"@openzeppelin/contracts/access/Ownable.sol\":1530:1543  _checkOwner() */\n      tag_114\n        /* \"@openzeppelin/contracts/access/Ownable.sol\":1530:1541  _checkOwner */\n      tag_115\n        /* \"@openzeppelin/contracts/access/Ownable.sol\":1530:1543  _checkOwner() */\n      jump\t// in\n    tag_114:\n        /* \"contracts/Anryton.sol\":2704:2719  uint8 saleCount */\n      0x00\n        /* \"contracts/Anryton.sol\":2724:2738  mintingCounter */\n      0x07\n      0x00\n        /* \"contracts/Anryton.sol\":2722:2738  ++mintingCounter */\n      dup2\n      dup2\n      swap1\n      sload\n      swap1\n      0x0100\n      exp\n      swap1\n      div\n      0xff\n      and\n      tag_117\n      swap1\n      tag_118\n      jump\t// in\n    tag_117:\n      swap2\n      swap1\n      0x0100\n      exp\n      dup2\n      sload\n      dup2\n      0xff\n      mul\n      not\n      and\n      swap1\n      dup4\n      0xff\n      and\n      mul\n      or\n      swap1\n      sstore\n        /* \"contracts/Anryton.sol\":2704:2738  uint8 saleCount = ++mintingCounter */\n      swap1\n      pop\n        /* \"contracts/Anryton.sol\":2748:2778  MintingSale memory mintingSale */\n      0x00\n        /* \"contracts/Anryton.sol\":2781:2791  mintedSale */\n      0x0a\n        /* \"contracts/Anryton.sol\":2781:2802  mintedSale[saleCount] */\n      0x00\n        /* \"contracts/Anryton.sol\":2792:2801  saleCount */\n      dup4\n        /* \"contracts/Anryton.sol\":2781:2802  mintedSale[saleCount] */\n      0xff\n      and\n      dup2\n      mstore\n      0x20\n      add\n      swap1\n      dup2\n      mstore\n      0x20\n      add\n      0x00\n      keccak256\n        /* \"contracts/Anryton.sol\":2748:2802  MintingSale memory mintingSale = mintedSale[saleCount] */\n      mload(0x40)\n      dup1\n      0x60\n      add\n      0x40\n      mstore\n      swap1\n      dup2\n      0x00\n      dup3\n      add\n      dup1\n      sload\n      tag_119\n      swap1\n      tag_103\n      jump\t// in\n    tag_119:\n      dup1\n      0x1f\n      add\n      0x20\n      dup1\n      swap2\n      div\n      mul\n      0x20\n      add\n      mload(0x40)\n      swap1\n      dup2\n      add\n      0x40\n      mstore\n      dup1\n      swap3\n      swap2\n      swap1\n      dup2\n      dup2\n      mstore\n      0x20\n      add\n      dup3\n      dup1\n      sload\n      tag_120\n      swap1\n      tag_103\n      jump\t// in\n    tag_120:\n      dup1\n      iszero\n      tag_121\n      jumpi\n      dup1\n      0x1f\n      lt\n      tag_122\n      jumpi\n      0x0100\n      dup1\n      dup4\n      sload\n      div\n      mul\n      dup4\n      mstore\n      swap2\n      0x20\n      add\n      swap2\n      jump(tag_121)\n    tag_122:\n      dup3\n      add\n      swap2\n      swap1\n      0x00\n      mstore\n      keccak256(0x00, 0x20)\n      swap1\n    tag_123:\n      dup2\n      sload\n      dup2\n      mstore\n      swap1\n      0x01\n      add\n      swap1\n      0x20\n      add\n      dup1\n      dup4\n      gt\n      tag_123\n      jumpi\n      dup3\n      swap1\n      sub\n      0x1f\n      and\n      dup3\n      add\n      swap2\n    tag_121:\n      pop\n      pop\n      pop\n      pop\n      pop\n      dup2\n      mstore\n      0x20\n      add\n      0x01\n      dup3\n      add\n      0x00\n      swap1\n      sload\n      swap1\n      0x0100\n      exp\n      swap1\n      div\n      0xffffffffffffffffffffffffffffffffffffffff\n      and\n      0xffffffffffffffffffffffffffffffffffffffff\n      and\n      0xffffffffffffffffffffffffffffffffffffffff\n      and\n      dup2\n      mstore\n      0x20\n      add\n      0x02\n      dup3\n      add\n      0x00\n      swap1\n      sload\n      swap1\n      0x0100\n      exp\n      swap1\n      div\n      0xffffffffffffffffffffffffffffffffffffffff\n      and\n      0xffffffffffffffffffffffffffffffffffffffff\n      and\n      0xffffffffffffffffffffffffffffffffffffffff\n      and\n      dup2\n      mstore\n      pop\n      pop\n      swap1\n      pop\n        /* \"contracts/Anryton.sol\":2925:2926  0 */\n      0x00\n        /* \"contracts/Anryton.sol\":2904:2915  mintingSale */\n      dup2\n        /* \"contracts/Anryton.sol\":2904:2922  mintingSale.supply */\n      0x20\n      add\n      mload\n        /* \"contracts/Anryton.sol\":2904:2926  mintingSale.supply > 0 */\n      0xffffffffffffffffffffffffffffffffffffffff\n      and\n      gt\n        /* \"contracts/Anryton.sol\":2883:2999  require(... */\n      tag_124\n      jumpi\n      mload(0x40)\n      0x08c379a000000000000000000000000000000000000000000000000000000000\n      dup2\n      mstore\n      0x04\n      add\n      tag_125\n      swap1\n      tag_126\n      jump\t// in\n    tag_125:\n      mload(0x40)\n      dup1\n      swap2\n      sub\n      swap1\n      revert\n    tag_124:\n        /* \"contracts/Anryton.sol\":3067:3068  0 */\n      0x00\n        /* \"contracts/Anryton.sol\":3030:3069  mintingSale.walletAddress != address(0) */\n      0xffffffffffffffffffffffffffffffffffffffff\n      and\n        /* \"contracts/Anryton.sol\":3030:3041  mintingSale */\n      dup2\n        /* \"contracts/Anryton.sol\":3030:3055  mintingSale.walletAddress */\n      0x40\n      add\n      mload\n        /* \"contracts/Anryton.sol\":3030:3069  mintingSale.walletAddress != address(0) */\n      0xffffffffffffffffffffffffffffffffffffffff\n      and\n      sub\n        /* \"contracts/Anryton.sol\":3009:3143  require(... */\n      tag_127\n      jumpi\n      mload(0x40)\n      0x08c379a000000000000000000000000000000000000000000000000000000000\n      dup2\n      mstore\n      0x04\n      add\n      tag_128\n      swap1\n      tag_129\n      jump\t// in\n    tag_128:\n      mload(0x40)\n      dup1\n      swap2\n      sub\n      swap1\n      revert\n    tag_127:\n        /* \"contracts/Anryton.sol\":3202:3254  _mint(mintingSale.walletAddress, mintingSale.supply) */\n      tag_130\n        /* \"contracts/Anryton.sol\":3208:3219  mintingSale */\n      dup2\n        /* \"contracts/Anryton.sol\":3208:3233  mintingSale.walletAddress */\n      0x40\n      add\n      mload\n        /* \"contracts/Anryton.sol\":3235:3246  mintingSale */\n      dup3\n        /* \"contracts/Anryton.sol\":3235:3253  mintingSale.supply */\n      0x20\n      add\n      mload\n        /* \"contracts/Anryton.sol\":3202:3254  _mint(mintingSale.walletAddress, mintingSale.supply) */\n      0xffffffffffffffffffffffffffffffffffffffff\n      and\n        /* \"contracts/Anryton.sol\":3202:3207  _mint */\n      tag_131\n        /* \"contracts/Anryton.sol\":3202:3254  _mint(mintingSale.walletAddress, mintingSale.supply) */\n      jump\t// in\n    tag_130:\n        /* \"contracts/Anryton.sol\":3264:3395  _setSaleSupplyWallet(... */\n      tag_132\n        /* \"contracts/Anryton.sol\":3298:3309  mintingSale */\n      dup2\n        /* \"contracts/Anryton.sol\":3298:3314  mintingSale.name */\n      0x00\n      add\n      mload\n        /* \"contracts/Anryton.sol\":3328:3339  mintingSale */\n      dup3\n        /* \"contracts/Anryton.sol\":3328:3353  mintingSale.walletAddress */\n      0x40\n      add\n      mload\n        /* \"contracts/Anryton.sol\":3367:3378  mintingSale */\n      dup4\n        /* \"contracts/Anryton.sol\":3367:3385  mintingSale.supply */\n      0x20\n      add\n      mload\n        /* \"contracts/Anryton.sol\":3264:3395  _setSaleSupplyWallet(... */\n      0xffffffffffffffffffffffffffffffffffffffff\n      and\n        /* \"contracts/Anryton.sol\":3264:3284  _setSaleSupplyWallet */\n      tag_133\n        /* \"contracts/Anryton.sol\":3264:3395  _setSaleSupplyWallet(... */\n      jump\t// in\n    tag_132:\n        /* \"contracts/Anryton.sol\":2694:3402  {... */\n      pop\n      pop\n        /* \"contracts/Anryton.sol\":2661:3402  function mint() public onlyOwner {... */\n      jump\t// out\n        /* \"@openzeppelin/contracts/token/ERC20/ERC20.sol\":3143:3240  function totalSupply() public view virtual returns (uint256) {... */\n    tag_43:\n        /* \"@openzeppelin/contracts/token/ERC20/ERC20.sol\":3195:3202  uint256 */\n      0x00\n        /* \"@openzeppelin/contracts/token/ERC20/ERC20.sol\":3221:3233  _totalSupply */\n      sload(0x02)\n        /* \"@openzeppelin/contracts/token/ERC20/ERC20.sol\":3214:3233  return _totalSupply */\n      swap1\n      pop\n        /* \"@openzeppelin/contracts/token/ERC20/ERC20.sol\":3143:3240  function totalSupply() public view virtual returns (uint256) {... */\n      swap1\n      jump\t// out\n        /* \"contracts/Anryton.sol\":681:727  mapping(uint => MintingSale) public mintedSale */\n    tag_49:\n      mstore(0x20, 0x0a)\n      dup1\n      0x00\n      mstore\n      keccak256(0x00, 0x40)\n      0x00\n      swap2\n      pop\n      swap1\n      pop\n      dup1\n      0x00\n      add\n      dup1\n      sload\n      tag_135\n      swap1\n      tag_103\n      jump\t// in\n    tag_135:\n      dup1\n      0x1f\n      add\n      0x20\n      dup1\n      swap2\n      div\n      mul\n      0x20\n      add\n      mload(0x40)\n      swap1\n      dup2\n      add\n      0x40\n      mstore\n      dup1\n      swap3\n      swap2\n      swap1\n      dup2\n      dup2\n      mstore\n      0x20\n      add\n      dup3\n      dup1\n      sload\n      tag_136\n      swap1\n      tag_103\n      jump\t// in\n    tag_136:\n      dup1\n      iszero\n      tag_137\n      jumpi\n      dup1\n      0x1f\n      lt\n      tag_138\n      jumpi\n      0x0100\n      dup1\n      dup4\n      sload\n      div\n      mul\n      dup4\n      mstore\n      swap2\n      0x20\n      add\n      swap2\n      jump(tag_137)\n    tag_138:\n      dup3\n      add\n      swap2\n      swap1\n      0x00\n      mstore\n      keccak256(0x00, 0x20)\n      swap1\n    tag_139:\n      dup2\n      sload\n      dup2\n      mstore\n      swap1\n      0x01\n      add\n      swap1\n      0x20\n      add\n      dup1\n      dup4\n      gt\n      tag_139\n      jumpi\n      dup3\n      swap1\n      sub\n      0x1f\n      and\n      dup3\n      add\n      swap2\n    tag_137:\n      pop\n      pop\n      pop\n      pop\n      pop\n      swap1\n      dup1\n      0x01\n      add\n      0x00\n      swap1\n      sload\n      swap1\n      0x0100\n      exp\n      swap1\n      div\n      0xffffffffffffffffffffffffffffffffffffffff\n      and\n      swap1\n      dup1\n      0x02\n      add\n      0x00\n      swap1\n      sload\n      swap1\n      0x0100\n      exp\n      swap1\n      div\n      0xffffffffffffffffffffffffffffffffffffffff\n      and\n      swap1\n      pop\n      dup4\n      jump\t// out\n        /* \"@openzeppelin/contracts/token/ERC20/ERC20.sol\":5038:5282  function transferFrom(address from, address to, uint256 value) public virtual returns (bool) {... */\n    tag_55:\n        /* \"@openzeppelin/contracts/token/ERC20/ERC20.sol\":5125:5129  bool */\n      0x00\n        /* \"@openzeppelin/contracts/token/ERC20/ERC20.sol\":5141:5156  address spender */\n      dup1\n        /* \"@openzeppelin/contracts/token/ERC20/ERC20.sol\":5159:5171  _msgSender() */\n      tag_141\n        /* \"@openzeppelin/contracts/token/ERC20/ERC20.sol\":5159:5169  _msgSender */\n      tag_110\n        /* \"@openzeppelin/contracts/token/ERC20/ERC20.sol\":5159:5171  _msgSender() */\n      jump\t// in\n    tag_141:\n        /* \"@openzeppelin/contracts/token/ERC20/ERC20.sol\":5141:5171  address spender = _msgSender() */\n      swap1\n      pop\n        /* \"@openzeppelin/contracts/token/ERC20/ERC20.sol\":5181:5218  _spendAllowance(from, spender, value) */\n      tag_142\n        /* \"@openzeppelin/contracts/token/ERC20/ERC20.sol\":5197:5201  from */\n      dup6\n        /* \"@openzeppelin/contracts/token/ERC20/ERC20.sol\":5203:5210  spender */\n      dup3\n        /* \"@openzeppelin/contracts/token/ERC20/ERC20.sol\":5212:5217  value */\n      dup6\n        /* \"@openzeppelin/contracts/token/ERC20/ERC20.sol\":5181:5196  _spendAllowance */\n      tag_143\n        /* \"@openzeppelin/contracts/token/ERC20/ERC20.sol\":5181:5218  _spendAllowance(from, spender, value) */\n      jump\t// in\n    tag_142:\n        /* \"@openzeppelin/contracts/token/ERC20/ERC20.sol\":5228:5254  _transfer(from, to, value) */\n      tag_144\n        /* \"@openzeppelin/contracts/token/ERC20/ERC20.sol\":5238:5242  from */\n      dup6\n        /* \"@openzeppelin/contracts/token/ERC20/ERC20.sol\":5244:5246  to */\n      dup6\n        /* \"@openzeppelin/contracts/token/ERC20/ERC20.sol\":5248:5253  value */\n      dup6\n        /* \"@openzeppelin/contracts/token/ERC20/ERC20.sol\":5228:5237  _transfer */\n      tag_145\n        /* \"@openzeppelin/contracts/token/ERC20/ERC20.sol\":5228:5254  _transfer(from, to, value) */\n      jump\t// in\n    tag_144:\n        /* \"@openzeppelin/contracts/token/ERC20/ERC20.sol\":5271:5275  true */\n      0x01\n        /* \"@openzeppelin/contracts/token/ERC20/ERC20.sol\":5264:5275  return true */\n      swap2\n      pop\n      pop\n        /* \"@openzeppelin/contracts/token/ERC20/ERC20.sol\":5038:5282  function transferFrom(address from, address to, uint256 value) public virtual returns (bool) {... */\n      swap4\n      swap3\n      pop\n      pop\n      pop\n      jump\t// out\n        /* \"@openzeppelin/contracts/token/ERC20/ERC20.sol\":3001:3083  function decimals() public view virtual returns (uint8) {... */\n    tag_58:\n        /* \"@openzeppelin/contracts/token/ERC20/ERC20.sol\":3050:3055  uint8 */\n      0x00\n        /* \"@openzeppelin/contracts/token/ERC20/ERC20.sol\":3074:3076  18 */\n      0x12\n        /* \"@openzeppelin/contracts/token/ERC20/ERC20.sol\":3067:3076  return 18 */\n      swap1\n      pop\n        /* \"@openzeppelin/contracts/token/ERC20/ERC20.sol\":3001:3083  function decimals() public view virtual returns (uint8) {... */\n      swap1\n      jump\t// out\n        /* \"contracts/Anryton.sol\":4622:4716  function getMaxSupply() public pure returns (uint160) {... */\n    tag_62:\n        /* \"contracts/Anryton.sol\":4667:4674  uint160 */\n      0x00\n        /* \"contracts/Anryton.sol\":365:380  400000000 ether */\n      0x014adf4b7320334b90000000\n        /* \"contracts/Anryton.sol\":4686:4709  return MAX_TOTAL_SUPPLY */\n      swap1\n      pop\n        /* \"contracts/Anryton.sol\":4622:4716  function getMaxSupply() public pure returns (uint160) {... */\n      swap1\n      jump\t// out\n        /* \"@openzeppelin/contracts/token/ERC20/ERC20.sol\":3298:3414  function balanceOf(address account) public view virtual returns (uint256) {... */\n    tag_68:\n        /* \"@openzeppelin/contracts/token/ERC20/ERC20.sol\":3363:3370  uint256 */\n      0x00\n        /* \"@openzeppelin/contracts/token/ERC20/ERC20.sol\":3389:3398  _balances */\n      dup1\n        /* \"@openzeppelin/contracts/token/ERC20/ERC20.sol\":3389:3407  _balances[account] */\n      0x00\n        /* \"@openzeppelin/contracts/token/ERC20/ERC20.sol\":3399:3406  account */\n      dup4\n        /* \"@openzeppelin/contracts/token/ERC20/ERC20.sol\":3389:3407  _balances[account] */\n      0xffffffffffffffffffffffffffffffffffffffff\n      and\n      0xffffffffffffffffffffffffffffffffffffffff\n      and\n      dup2\n      mstore\n      0x20\n      add\n      swap1\n      dup2\n      mstore\n      0x20\n      add\n      0x00\n      keccak256\n      sload\n        /* \"@openzeppelin/contracts/token/ERC20/ERC20.sol\":3382:3407  return _balances[account] */\n      swap1\n      pop\n        /* \"@openzeppelin/contracts/token/ERC20/ERC20.sol\":3298:3414  function balanceOf(address account) public view virtual returns (uint256) {... */\n      swap2\n      swap1\n      pop\n      jump\t// out\n        /* \"@openzeppelin/contracts/access/Ownable.sol\":2292:2393  function renounceOwnership() public virtual onlyOwner {... */\n    tag_71:\n        /* \"@openzeppelin/contracts/access/Ownable.sol\":1530:1543  _checkOwner() */\n      tag_150\n        /* \"@openzeppelin/contracts/access/Ownable.sol\":1530:1541  _checkOwner */\n      tag_115\n        /* \"@openzeppelin/contracts/access/Ownable.sol\":1530:1543  _checkOwner() */\n      jump\t// in\n    tag_150:\n        /* \"@openzeppelin/contracts/access/Ownable.sol\":2356:2386  _transferOwnership(address(0)) */\n      tag_152\n        /* \"@openzeppelin/contracts/access/Ownable.sol\":2383:2384  0 */\n      0x00\n        /* \"@openzeppelin/contracts/access/Ownable.sol\":2356:2374  _transferOwnership */\n      tag_153\n        /* \"@openzeppelin/contracts/access/Ownable.sol\":2356:2386  _transferOwnership(address(0)) */\n      jump\t// in\n    tag_152:\n        /* \"@openzeppelin/contracts/access/Ownable.sol\":2292:2393  function renounceOwnership() public virtual onlyOwner {... */\n      jump\t// out\n        /* \"@openzeppelin/contracts/access/Ownable.sol\":1637:1722  function owner() public view virtual returns (address) {... */\n    tag_73:\n        /* \"@openzeppelin/contracts/access/Ownable.sol\":1683:1690  address */\n      0x00\n        /* \"@openzeppelin/contracts/access/Ownable.sol\":1709:1715  _owner */\n      0x05\n      0x00\n      swap1\n      sload\n      swap1\n      0x0100\n      exp\n      swap1\n      div\n      0xffffffffffffffffffffffffffffffffffffffff\n      and\n        /* \"@openzeppelin/contracts/access/Ownable.sol\":1702:1715  return _owner */\n      swap1\n      pop\n        /* \"@openzeppelin/contracts/access/Ownable.sol\":1637:1722  function owner() public view virtual returns (address) {... */\n      swap1\n      jump\t// out\n        /* \"contracts/Anryton.sol\":4429:4525  function getLatestSale() public view returns (string memory) {... */\n    tag_77:\n        /* \"contracts/Anryton.sol\":4475:4488  string memory */\n      0x60\n        /* \"contracts/Anryton.sol\":4507:4518  _latestSale */\n      0x06\n        /* \"contracts/Anryton.sol\":4500:4518  return _latestSale */\n      dup1\n      sload\n      tag_156\n      swap1\n      tag_103\n      jump\t// in\n    tag_156:\n      dup1\n      0x1f\n      add\n      0x20\n      dup1\n      swap2\n      div\n      mul\n      0x20\n      add\n      mload(0x40)\n      swap1\n      dup2\n      add\n      0x40\n      mstore\n      dup1\n      swap3\n      swap2\n      swap1\n      dup2\n      dup2\n      mstore\n      0x20\n      add\n      dup3\n      dup1\n      sload\n      tag_157\n      swap1\n      tag_103\n      jump\t// in\n    tag_157:\n      dup1\n      iszero\n      tag_158\n      jumpi\n      dup1\n      0x1f\n      lt\n      tag_159\n      jumpi\n      0x0100\n      dup1\n      dup4\n      sload\n      div\n      mul\n      dup4\n      mstore\n      swap2\n      0x20\n      add\n      swap2\n      jump(tag_158)\n    tag_159:\n      dup3\n      add\n      swap2\n      swap1\n      0x00\n      mstore\n      keccak256(0x00, 0x20)\n      swap1\n    tag_160:\n      dup2\n      sload\n      dup2\n      mstore\n      swap1\n      0x01\n      add\n      swap1\n      0x20\n      add\n      dup1\n      dup4\n      gt\n      tag_160\n      jumpi\n      dup3\n      swap1\n      sub\n      0x1f\n      and\n      dup3\n      add\n      swap2\n    tag_158:\n      pop\n      pop\n      pop\n      pop\n      pop\n      swap1\n      pop\n        /* \"contracts/Anryton.sol\":4429:4525  function getLatestSale() public view returns (string memory) {... */\n      swap1\n      jump\t// out\n        /* \"@openzeppelin/contracts/token/ERC20/ERC20.sol\":2275:2368  function symbol() public view virtual returns (string memory) {... */\n    tag_80:\n        /* \"@openzeppelin/contracts/token/ERC20/ERC20.sol\":2322:2335  string memory */\n      0x60\n        /* \"@openzeppelin/contracts/token/ERC20/ERC20.sol\":2354:2361  _symbol */\n      0x04\n        /* \"@openzeppelin/contracts/token/ERC20/ERC20.sol\":2347:2361  return _symbol */\n      dup1\n      sload\n      tag_162\n      swap1\n      tag_103\n      jump\t// in\n    tag_162:\n      dup1\n      0x1f\n      add\n      0x20\n      dup1\n      swap2\n      div\n      mul\n      0x20\n      add\n      mload(0x40)\n      swap1\n      dup2\n      add\n      0x40\n      mstore\n      dup1\n      swap3\n      swap2\n      swap1\n      dup2\n      dup2\n      mstore\n      0x20\n      add\n      dup3\n      dup1\n      sload\n      tag_163\n      swap1\n      tag_103\n      jump\t// in\n    tag_163:\n      dup1\n      iszero\n      tag_164\n      jumpi\n      dup1\n      0x1f\n      lt\n      tag_165\n      jumpi\n      0x0100\n      dup1\n      dup4\n      sload\n      div\n      mul\n      dup4\n      mstore\n      swap2\n      0x20\n      add\n      swap2\n      jump(tag_164)\n    tag_165:\n      dup3\n      add\n      swap2\n      swap1\n      0x00\n      mstore\n      keccak256(0x00, 0x20)\n      swap1\n    tag_166:\n      dup2\n      sload\n      dup2\n      mstore\n      swap1\n      0x01\n      add\n      swap1\n      0x20\n      add\n      dup1\n      dup4\n      gt\n      tag_166\n      jumpi\n      dup3\n      swap1\n      sub\n      0x1f\n      and\n      dup3\n      add\n      swap2\n    tag_164:\n      pop\n      pop\n      pop\n      pop\n      pop\n      swap1\n      pop\n        /* \"@openzeppelin/contracts/token/ERC20/ERC20.sol\":2275:2368  function symbol() public view virtual returns (string memory) {... */\n      swap1\n      jump\t// out\n        /* \"@openzeppelin/contracts/token/ERC20/ERC20.sol\":3609:3787  function transfer(address to, uint256 value) public virtual returns (bool) {... */\n    tag_84:\n        /* \"@openzeppelin/contracts/token/ERC20/ERC20.sol\":3678:3682  bool */\n      0x00\n        /* \"@openzeppelin/contracts/token/ERC20/ERC20.sol\":3694:3707  address owner */\n      dup1\n        /* \"@openzeppelin/contracts/token/ERC20/ERC20.sol\":3710:3722  _msgSender() */\n      tag_168\n        /* \"@openzeppelin/contracts/token/ERC20/ERC20.sol\":3710:3720  _msgSender */\n      tag_110\n        /* \"@openzeppelin/contracts/token/ERC20/ERC20.sol\":3710:3722  _msgSender() */\n      jump\t// in\n    tag_168:\n        /* \"@openzeppelin/contracts/token/ERC20/ERC20.sol\":3694:3722  address owner = _msgSender() */\n      swap1\n      pop\n        /* \"@openzeppelin/contracts/token/ERC20/ERC20.sol\":3732:3759  _transfer(owner, to, value) */\n      tag_169\n        /* \"@openzeppelin/contracts/token/ERC20/ERC20.sol\":3742:3747  owner */\n      dup2\n        /* \"@openzeppelin/contracts/token/ERC20/ERC20.sol\":3749:3751  to */\n      dup6\n        /* \"@openzeppelin/contracts/token/ERC20/ERC20.sol\":3753:3758  value */\n      dup6\n        /* \"@openzeppelin/contracts/token/ERC20/ERC20.sol\":3732:3741  _transfer */\n      tag_145\n        /* \"@openzeppelin/contracts/token/ERC20/ERC20.sol\":3732:3759  _transfer(owner, to, value) */\n      jump\t// in\n    tag_169:\n        /* \"@openzeppelin/contracts/token/ERC20/ERC20.sol\":3776:3780  true */\n      0x01\n        /* \"@openzeppelin/contracts/token/ERC20/ERC20.sol\":3769:3780  return true */\n      swap2\n      pop\n      pop\n        /* \"@openzeppelin/contracts/token/ERC20/ERC20.sol\":3609:3787  function transfer(address to, uint256 value) public virtual returns (bool) {... */\n      swap3\n      swap2\n      pop\n      pop\n      jump\t// out\n        /* \"@openzeppelin/contracts/token/ERC20/ERC20.sol\":3845:3985  function allowance(address owner, address spender) public view virtual returns (uint256) {... */\n    tag_89:\n        /* \"@openzeppelin/contracts/token/ERC20/ERC20.sol\":3925:3932  uint256 */\n      0x00\n        /* \"@openzeppelin/contracts/token/ERC20/ERC20.sol\":3951:3962  _allowances */\n      0x01\n        /* \"@openzeppelin/contracts/token/ERC20/ERC20.sol\":3951:3969  _allowances[owner] */\n      0x00\n        /* \"@openzeppelin/contracts/token/ERC20/ERC20.sol\":3963:3968  owner */\n      dup5\n        /* \"@openzeppelin/contracts/token/ERC20/ERC20.sol\":3951:3969  _allowances[owner] */\n      0xffffffffffffffffffffffffffffffffffffffff\n      and\n      0xffffffffffffffffffffffffffffffffffffffff\n      and\n      dup2\n      mstore\n      0x20\n      add\n      swap1\n      dup2\n      mstore\n      0x20\n      add\n      0x00\n      keccak256\n        /* \"@openzeppelin/contracts/token/ERC20/ERC20.sol\":3951:3978  _allowances[owner][spender] */\n      0x00\n        /* \"@openzeppelin/contracts/token/ERC20/ERC20.sol\":3970:3977  spender */\n      dup4\n        /* \"@openzeppelin/contracts/token/ERC20/ERC20.sol\":3951:3978  _allowances[owner][spender] */\n      0xffffffffffffffffffffffffffffffffffffffff\n      and\n      0xffffffffffffffffffffffffffffffffffffffff\n      and\n      dup2\n      mstore\n      0x20\n      add\n      swap1\n      dup2\n      mstore\n      0x20\n      add\n      0x00\n      keccak256\n      sload\n        /* \"@openzeppelin/contracts/token/ERC20/ERC20.sol\":3944:3978  return _allowances[owner][spender] */\n      swap1\n      pop\n        /* \"@openzeppelin/contracts/token/ERC20/ERC20.sol\":3845:3985  function allowance(address owner, address spender) public view virtual returns (uint256) {... */\n      swap3\n      swap2\n      pop\n      pop\n      jump\t// out\n        /* \"@openzeppelin/contracts/access/Ownable.sol\":2542:2757  function transferOwnership(address newOwner) public virtual onlyOwner {... */\n    tag_93:\n        /* \"@openzeppelin/contracts/access/Ownable.sol\":1530:1543  _checkOwner() */\n      tag_172\n        /* \"@openzeppelin/contracts/access/Ownable.sol\":1530:1541  _checkOwner */\n      tag_115\n        /* \"@openzeppelin/contracts/access/Ownable.sol\":1530:1543  _checkOwner() */\n      jump\t// in\n    tag_172:\n        /* \"@openzeppelin/contracts/access/Ownable.sol\":2646:2647  0 */\n      0x00\n        /* \"@openzeppelin/contracts/access/Ownable.sol\":2626:2648  newOwner == address(0) */\n      0xffffffffffffffffffffffffffffffffffffffff\n      and\n        /* \"@openzeppelin/contracts/access/Ownable.sol\":2626:2634  newOwner */\n      dup2\n        /* \"@openzeppelin/contracts/access/Ownable.sol\":2626:2648  newOwner == address(0) */\n      0xffffffffffffffffffffffffffffffffffffffff\n      and\n      sub\n        /* \"@openzeppelin/contracts/access/Ownable.sol\":2622:2713  if (newOwner == address(0)) {... */\n      tag_174\n      jumpi\n        /* \"@openzeppelin/contracts/access/Ownable.sol\":2699:2700  0 */\n      0x00\n        /* \"@openzeppelin/contracts/access/Ownable.sol\":2671:2702  OwnableInvalidOwner(address(0)) */\n      mload(0x40)\n      0x1e4fbdf700000000000000000000000000000000000000000000000000000000\n      dup2\n      mstore\n      0x04\n      add\n      tag_175\n      swap2\n      swap1\n      tag_75\n      jump\t// in\n    tag_175:\n      mload(0x40)\n      dup1\n      swap2\n      sub\n      swap1\n      revert\n        /* \"@openzeppelin/contracts/access/Ownable.sol\":2622:2713  if (newOwner == address(0)) {... */\n    tag_174:\n        /* \"@openzeppelin/contracts/access/Ownable.sol\":2722:2750  _transferOwnership(newOwner) */\n      tag_176\n        /* \"@openzeppelin/contracts/access/Ownable.sol\":2741:2749  newOwner */\n      dup2\n        /* \"@openzeppelin/contracts/access/Ownable.sol\":2722:2740  _transferOwnership */\n      tag_153\n        /* \"@openzeppelin/contracts/access/Ownable.sol\":2722:2750  _transferOwnership(newOwner) */\n      jump\t// in\n    tag_176:\n        /* \"@openzeppelin/contracts/access/Ownable.sol\":2542:2757  function transferOwnership(address newOwner) public virtual onlyOwner {... */\n      pop\n      jump\t// out\n        /* \"contracts/Anryton.sol\":436:467  uint8 public mintingCounter = 0 */\n    tag_95:\n      0x07\n      0x00\n      swap1\n      sload\n      swap1\n      0x0100\n      exp\n      swap1\n      div\n      0xff\n      and\n      dup2\n      jump\t// out\n        /* \"@openzeppelin/contracts/utils/Context.sol\":655:751  function _msgSender() internal view virtual returns (address) {... */\n    tag_110:\n        /* \"@openzeppelin/contracts/utils/Context.sol\":708:715  address */\n      0x00\n        /* \"@openzeppelin/contracts/utils/Context.sol\":734:744  msg.sender */\n      caller\n        /* \"@openzeppelin/contracts/utils/Context.sol\":727:744  return msg.sender */\n      swap1\n      pop\n        /* \"@openzeppelin/contracts/utils/Context.sol\":655:751  function _msgSender() internal view virtual returns (address) {... */\n      swap1\n      jump\t// out\n        /* \"@openzeppelin/contracts/token/ERC20/ERC20.sol\":8988:9116  function _approve(address owner, address spender, uint256 value) internal {... */\n    tag_112:\n        /* \"@openzeppelin/contracts/token/ERC20/ERC20.sol\":9072:9109  _approve(owner, spender, value, true) */\n      tag_179\n        /* \"@openzeppelin/contracts/token/ERC20/ERC20.sol\":9081:9086  owner */\n      dup4\n        /* \"@openzeppelin/contracts/token/ERC20/ERC20.sol\":9088:9095  spender */\n      dup4\n        /* \"@openzeppelin/contracts/token/ERC20/ERC20.sol\":9097:9102  value */\n      dup4\n        /* \"@openzeppelin/contracts/token/ERC20/ERC20.sol\":9104:9108  true */\n      0x01\n        /* \"@openzeppelin/contracts/token/ERC20/ERC20.sol\":9072:9080  _approve */\n      tag_180\n        /* \"@openzeppelin/contracts/token/ERC20/ERC20.sol\":9072:9109  _approve(owner, spender, value, true) */\n      jump\t// in\n    tag_179:\n        /* \"@openzeppelin/contracts/token/ERC20/ERC20.sol\":8988:9116  function _approve(address owner, address spender, uint256 value) internal {... */\n      pop\n      pop\n      pop\n      jump\t// out\n        /* \"@openzeppelin/contracts/access/Ownable.sol\":1795:1957  function _checkOwner() internal view virtual {... */\n    tag_115:\n        /* \"@openzeppelin/contracts/access/Ownable.sol\":1865:1877  _msgSender() */\n      tag_182\n        /* \"@openzeppelin/contracts/access/Ownable.sol\":1865:1875  _msgSender */\n      tag_110\n        /* \"@openzeppelin/contracts/access/Ownable.sol\":1865:1877  _msgSender() */\n      jump\t// in\n    tag_182:\n        /* \"@openzeppelin/contracts/access/Ownable.sol\":1854:1877  owner() != _msgSender() */\n      0xffffffffffffffffffffffffffffffffffffffff\n      and\n        /* \"@openzeppelin/contracts/access/Ownable.sol\":1854:1861  owner() */\n      tag_183\n        /* \"@openzeppelin/contracts/access/Ownable.sol\":1854:1859  owner */\n      tag_73\n        /* \"@openzeppelin/contracts/access/Ownable.sol\":1854:1861  owner() */\n      jump\t// in\n    tag_183:\n        /* \"@openzeppelin/contracts/access/Ownable.sol\":1854:1877  owner() != _msgSender() */\n      0xffffffffffffffffffffffffffffffffffffffff\n      and\n      eq\n        /* \"@openzeppelin/contracts/access/Ownable.sol\":1850:1951  if (owner() != _msgSender()) {... */\n      tag_184\n      jumpi\n        /* \"@openzeppelin/contracts/access/Ownable.sol\":1927:1939  _msgSender() */\n      tag_185\n        /* \"@openzeppelin/contracts/access/Ownable.sol\":1927:1937  _msgSender */\n      tag_110\n        /* \"@openzeppelin/contracts/access/Ownable.sol\":1927:1939  _msgSender() */\n      jump\t// in\n    tag_185:\n        /* \"@openzeppelin/contracts/access/Ownable.sol\":1900:1940  OwnableUnauthorizedAccount(_msgSender()) */\n      mload(0x40)\n      0x118cdaa700000000000000000000000000000000000000000000000000000000\n      dup2\n      mstore\n      0x04\n      add\n      tag_186\n      swap2\n      swap1\n      tag_75\n      jump\t// in\n    tag_186:\n      mload(0x40)\n      dup1\n      swap2\n      sub\n      swap1\n      revert\n        /* \"@openzeppelin/contracts/access/Ownable.sol\":1850:1951  if (owner() != _msgSender()) {... */\n    tag_184:\n        /* \"@openzeppelin/contracts/access/Ownable.sol\":1795:1957  function _checkOwner() internal view virtual {... */\n      jump\t// out\n        /* \"@openzeppelin/contracts/token/ERC20/ERC20.sol\":7720:7928  function _mint(address account, uint256 value) internal {... */\n    tag_131:\n        /* \"@openzeppelin/contracts/token/ERC20/ERC20.sol\":7809:7810  0 */\n      0x00\n        /* \"@openzeppelin/contracts/token/ERC20/ERC20.sol\":7790:7811  account == address(0) */\n      0xffffffffffffffffffffffffffffffffffffffff\n      and\n        /* \"@openzeppelin/contracts/token/ERC20/ERC20.sol\":7790:7797  account */\n      dup3\n        /* \"@openzeppelin/contracts/token/ERC20/ERC20.sol\":7790:7811  account == address(0) */\n      0xffffffffffffffffffffffffffffffffffffffff\n      and\n      sub\n        /* \"@openzeppelin/contracts/token/ERC20/ERC20.sol\":7786:7877  if (account == address(0)) {... */\n      tag_188\n      jumpi\n        /* \"@openzeppelin/contracts/token/ERC20/ERC20.sol\":7863:7864  0 */\n      0x00\n        /* \"@openzeppelin/contracts/token/ERC20/ERC20.sol\":7834:7866  ERC20InvalidReceiver(address(0)) */\n      mload(0x40)\n      0xec442f0500000000000000000000000000000000000000000000000000000000\n      dup2\n      mstore\n      0x04\n      add\n      tag_189\n      swap2\n      swap1\n      tag_75\n      jump\t// in\n    tag_189:\n      mload(0x40)\n      dup1\n      swap2\n      sub\n      swap1\n      revert\n        /* \"@openzeppelin/contracts/token/ERC20/ERC20.sol\":7786:7877  if (account == address(0)) {... */\n    tag_188:\n        /* \"@openzeppelin/contracts/token/ERC20/ERC20.sol\":7886:7921  _update(address(0), account, value) */\n      tag_190\n        /* \"@openzeppelin/contracts/token/ERC20/ERC20.sol\":7902:7903  0 */\n      0x00\n        /* \"@openzeppelin/contracts/token/ERC20/ERC20.sol\":7906:7913  account */\n      dup4\n        /* \"@openzeppelin/contracts/token/ERC20/ERC20.sol\":7915:7920  value */\n      dup4\n        /* \"@openzeppelin/contracts/token/ERC20/ERC20.sol\":7886:7893  _update */\n      tag_191\n        /* \"@openzeppelin/contracts/token/ERC20/ERC20.sol\":7886:7921  _update(address(0), account, value) */\n      jump\t// in\n    tag_190:\n        /* \"@openzeppelin/contracts/token/ERC20/ERC20.sol\":7720:7928  function _mint(address account, uint256 value) internal {... */\n      pop\n      pop\n      jump\t// out\n        /* \"contracts/Anryton.sol\":3520:3887  function _setSaleSupplyWallet(... */\n    tag_133:\n        /* \"contracts/Anryton.sol\":3678:3687  _saleName */\n      dup3\n        /* \"contracts/Anryton.sol\":3664:3675  _latestSale */\n      0x06\n        /* \"contracts/Anryton.sol\":3664:3687  _latestSale = _saleName */\n      swap1\n      dup2\n      tag_193\n      swap2\n      swap1\n      tag_194\n      jump\t// in\n    tag_193:\n      pop\n        /* \"contracts/Anryton.sol\":3731:3745  _walletAddress */\n      dup2\n        /* \"contracts/Anryton.sol\":3697:3717  assignedWalletToSale */\n      0x08\n        /* \"contracts/Anryton.sol\":3718:3727  _saleName */\n      dup5\n        /* \"contracts/Anryton.sol\":3697:3728  assignedWalletToSale[_saleName] */\n      mload(0x40)\n      tag_195\n      swap2\n      swap1\n      tag_99\n      jump\t// in\n    tag_195:\n      swap1\n      dup2\n      mstore\n      0x20\n      add\n      mload(0x40)\n      dup1\n      swap2\n      sub\n      swap1\n      keccak256\n      0x00\n        /* \"contracts/Anryton.sol\":3697:3745  assignedWalletToSale[_saleName] = _walletAddress */\n      0x0100\n      exp\n      dup2\n      sload\n      dup2\n      0xffffffffffffffffffffffffffffffffffffffff\n      mul\n      not\n      and\n      swap1\n      dup4\n      0xffffffffffffffffffffffffffffffffffffffff\n      and\n      mul\n      or\n      swap1\n      sstore\n      pop\n        /* \"contracts/Anryton.sol\":3803:3810  _supply */\n      dup1\n        /* \"contracts/Anryton.sol\":3755:3773  mintedWalletSupply */\n      0x09\n        /* \"contracts/Anryton.sol\":3774:3783  _saleName */\n      dup5\n        /* \"contracts/Anryton.sol\":3755:3784  mintedWalletSupply[_saleName] */\n      mload(0x40)\n      tag_196\n      swap2\n      swap1\n      tag_99\n      jump\t// in\n    tag_196:\n      swap1\n      dup2\n      mstore\n      0x20\n      add\n      mload(0x40)\n      dup1\n      swap2\n      sub\n      swap1\n      keccak256\n        /* \"contracts/Anryton.sol\":3755:3800  mintedWalletSupply[_saleName][_walletAddress] */\n      0x00\n        /* \"contracts/Anryton.sol\":3785:3799  _walletAddress */\n      dup5\n        /* \"contracts/Anryton.sol\":3755:3800  mintedWalletSupply[_saleName][_walletAddress] */\n      0xffffffffffffffffffffffffffffffffffffffff\n      and\n      0xffffffffffffffffffffffffffffffffffffffff\n      and\n      dup2\n      mstore\n      0x20\n      add\n      swap1\n      dup2\n      mstore\n      0x20\n      add\n      0x00\n      keccak256\n        /* \"contracts/Anryton.sol\":3755:3810  mintedWalletSupply[_saleName][_walletAddress] = _supply */\n      dup2\n      swap1\n      sstore\n      pop\n        /* \"contracts/Anryton.sol\":3865:3879  _walletAddress */\n      dup2\n        /* \"contracts/Anryton.sol\":3825:3880  MintedWalletSuupply(_saleName, _supply, _walletAddress) */\n      0xffffffffffffffffffffffffffffffffffffffff\n      and\n        /* \"contracts/Anryton.sol\":3856:3863  _supply */\n      dup2\n        /* \"contracts/Anryton.sol\":3845:3854  _saleName */\n      dup5\n        /* \"contracts/Anryton.sol\":3825:3880  MintedWalletSuupply(_saleName, _supply, _walletAddress) */\n      mload(0x40)\n      tag_197\n      swap2\n      swap1\n      tag_99\n      jump\t// in\n    tag_197:\n      mload(0x40)\n      dup1\n      swap2\n      sub\n      swap1\n      keccak256\n      0x42e47c5f4ef490fa970d56126f2584efc00f3485d64635df2e3d0f587d4211b7\n      mload(0x40)\n      mload(0x40)\n      dup1\n      swap2\n      sub\n      swap1\n      log4\n        /* \"contracts/Anryton.sol\":3520:3887  function _setSaleSupplyWallet(... */\n      pop\n      pop\n      pop\n      jump\t// out\n        /* \"@openzeppelin/contracts/token/ERC20/ERC20.sol\":10662:11139  function _spendAllowance(address owner, address spender, uint256 value) internal virtual {... */\n    tag_143:\n        /* \"@openzeppelin/contracts/token/ERC20/ERC20.sol\":10761:10785  uint256 currentAllowance */\n      0x00\n        /* \"@openzeppelin/contracts/token/ERC20/ERC20.sol\":10788:10813  allowance(owner, spender) */\n      tag_199\n        /* \"@openzeppelin/contracts/token/ERC20/ERC20.sol\":10798:10803  owner */\n      dup5\n        /* \"@openzeppelin/contracts/token/ERC20/ERC20.sol\":10805:10812  spender */\n      dup5\n        /* \"@openzeppelin/contracts/token/ERC20/ERC20.sol\":10788:10797  allowance */\n      tag_89\n        /* \"@openzeppelin/contracts/token/ERC20/ERC20.sol\":10788:10813  allowance(owner, spender) */\n      jump\t// in\n    tag_199:\n        /* \"@openzeppelin/contracts/token/ERC20/ERC20.sol\":10761:10813  uint256 currentAllowance = allowance(owner, spender) */\n      swap1\n      pop\n        /* \"@openzeppelin/contracts/token/ERC20/ERC20.sol\":10847:10864  type(uint256).max */\n      0xffffffffffffffffffffffffffffffffffffffffffffffffffffffffffffffff\n        /* \"@openzeppelin/contracts/token/ERC20/ERC20.sol\":10827:10843  currentAllowance */\n      dup2\n        /* \"@openzeppelin/contracts/token/ERC20/ERC20.sol\":10827:10864  currentAllowance != type(uint256).max */\n      eq\n        /* \"@openzeppelin/contracts/token/ERC20/ERC20.sol\":10823:11133  if (currentAllowance != type(uint256).max) {... */\n      tag_200\n      jumpi\n        /* \"@openzeppelin/contracts/token/ERC20/ERC20.sol\":10903:10908  value */\n      dup2\n        /* \"@openzeppelin/contracts/token/ERC20/ERC20.sol\":10884:10900  currentAllowance */\n      dup2\n        /* \"@openzeppelin/contracts/token/ERC20/ERC20.sol\":10884:10908  currentAllowance < value */\n      lt\n        /* \"@openzeppelin/contracts/token/ERC20/ERC20.sol\":10880:11010  if (currentAllowance < value) {... */\n      iszero\n      tag_201\n      jumpi\n        /* \"@openzeppelin/contracts/token/ERC20/ERC20.sol\":10962:10969  spender */\n      dup3\n        /* \"@openzeppelin/contracts/token/ERC20/ERC20.sol\":10971:10987  currentAllowance */\n      dup2\n        /* \"@openzeppelin/contracts/token/ERC20/ERC20.sol\":10989:10994  value */\n      dup4\n        /* \"@openzeppelin/contracts/token/ERC20/ERC20.sol\":10935:10995  ERC20InsufficientAllowance(spender, currentAllowance, value) */\n      mload(0x40)\n      0xfb8f41b200000000000000000000000000000000000000000000000000000000\n      dup2\n      mstore\n      0x04\n      add\n      tag_202\n      swap4\n      swap3\n      swap2\n      swap1\n      tag_203\n      jump\t// in\n    tag_202:\n      mload(0x40)\n      dup1\n      swap2\n      sub\n      swap1\n      revert\n        /* \"@openzeppelin/contracts/token/ERC20/ERC20.sol\":10880:11010  if (currentAllowance < value) {... */\n    tag_201:\n        /* \"@openzeppelin/contracts/token/ERC20/ERC20.sol\":11051:11108  _approve(owner, spender, currentAllowance - value, false) */\n      tag_204\n        /* \"@openzeppelin/contracts/token/ERC20/ERC20.sol\":11060:11065  owner */\n      dup5\n        /* \"@openzeppelin/contracts/token/ERC20/ERC20.sol\":11067:11074  spender */\n      dup5\n        /* \"@openzeppelin/contracts/token/ERC20/ERC20.sol\":11095:11100  value */\n      dup5\n        /* \"@openzeppelin/contracts/token/ERC20/ERC20.sol\":11076:11092  currentAllowance */\n      dup5\n        /* \"@openzeppelin/contracts/token/ERC20/ERC20.sol\":11076:11100  currentAllowance - value */\n      sub\n        /* \"@openzeppelin/contracts/token/ERC20/ERC20.sol\":11102:11107  false */\n      0x00\n        /* \"@openzeppelin/contracts/token/ERC20/ERC20.sol\":11051:11059  _approve */\n      tag_180\n        /* \"@openzeppelin/contracts/token/ERC20/ERC20.sol\":11051:11108  _approve(owner, spender, currentAllowance - value, false) */\n      jump\t// in\n    tag_204:\n        /* \"@openzeppelin/contracts/token/ERC20/ERC20.sol\":10823:11133  if (currentAllowance != type(uint256).max) {... */\n    tag_200:\n        /* \"@openzeppelin/contracts/token/ERC20/ERC20.sol\":10751:11139  {... */\n      pop\n        /* \"@openzeppelin/contracts/token/ERC20/ERC20.sol\":10662:11139  function _spendAllowance(address owner, address spender, uint256 value) internal virtual {... */\n      pop\n      pop\n      pop\n      jump\t// out\n        /* \"@openzeppelin/contracts/token/ERC20/ERC20.sol\":5655:5955  function _transfer(address from, address to, uint256 value) internal {... */\n    tag_145:\n        /* \"@openzeppelin/contracts/token/ERC20/ERC20.sol\":5754:5755  0 */\n      0x00\n        /* \"@openzeppelin/contracts/token/ERC20/ERC20.sol\":5738:5756  from == address(0) */\n      0xffffffffffffffffffffffffffffffffffffffff\n      and\n        /* \"@openzeppelin/contracts/token/ERC20/ERC20.sol\":5738:5742  from */\n      dup4\n        /* \"@openzeppelin/contracts/token/ERC20/ERC20.sol\":5738:5756  from == address(0) */\n      0xffffffffffffffffffffffffffffffffffffffff\n      and\n      sub\n        /* \"@openzeppelin/contracts/token/ERC20/ERC20.sol\":5734:5820  if (from == address(0)) {... */\n      tag_206\n      jumpi\n        /* \"@openzeppelin/contracts/token/ERC20/ERC20.sol\":5806:5807  0 */\n      0x00\n        /* \"@openzeppelin/contracts/token/ERC20/ERC20.sol\":5779:5809  ERC20InvalidSender(address(0)) */\n      mload(0x40)\n      0x96c6fd1e00000000000000000000000000000000000000000000000000000000\n      dup2\n      mstore\n      0x04\n      add\n      tag_207\n      swap2\n      swap1\n      tag_75\n      jump\t// in\n    tag_207:\n      mload(0x40)\n      dup1\n      swap2\n      sub\n      swap1\n      revert\n        /* \"@openzeppelin/contracts/token/ERC20/ERC20.sol\":5734:5820  if (from == address(0)) {... */\n    tag_206:\n        /* \"@openzeppelin/contracts/token/ERC20/ERC20.sol\":5847:5848  0 */\n      0x00\n        /* \"@openzeppelin/contracts/token/ERC20/ERC20.sol\":5833:5849  to == address(0) */\n      0xffffffffffffffffffffffffffffffffffffffff\n      and\n        /* \"@openzeppelin/contracts/token/ERC20/ERC20.sol\":5833:5835  to */\n      dup3\n        /* \"@openzeppelin/contracts/token/ERC20/ERC20.sol\":5833:5849  to == address(0) */\n      0xffffffffffffffffffffffffffffffffffffffff\n      and\n      sub\n        /* \"@openzeppelin/contracts/token/ERC20/ERC20.sol\":5829:5915  if (to == address(0)) {... */\n      tag_208\n      jumpi\n        /* \"@openzeppelin/contracts/token/ERC20/ERC20.sol\":5901:5902  0 */\n      0x00\n        /* \"@openzeppelin/contracts/token/ERC20/ERC20.sol\":5872:5904  ERC20InvalidReceiver(address(0)) */\n      mload(0x40)\n      0xec442f0500000000000000000000000000000000000000000000000000000000\n      dup2\n      mstore\n      0x04\n      add\n      tag_209\n      swap2\n      swap1\n      tag_75\n      jump\t// in\n    tag_209:\n      mload(0x40)\n      dup1\n      swap2\n      sub\n      swap1\n      revert\n        /* \"@openzeppelin/contracts/token/ERC20/ERC20.sol\":5829:5915  if (to == address(0)) {... */\n    tag_208:\n        /* \"@openzeppelin/contracts/token/ERC20/ERC20.sol\":5924:5948  _update(from, to, value) */\n      tag_210\n        /* \"@openzeppelin/contracts/token/ERC20/ERC20.sol\":5932:5936  from */\n      dup4\n        /* \"@openzeppelin/contracts/token/ERC20/ERC20.sol\":5938:5940  to */\n      dup4\n        /* \"@openzeppelin/contracts/token/ERC20/ERC20.sol\":5942:5947  value */\n      dup4\n        /* \"@openzeppelin/contracts/token/ERC20/ERC20.sol\":5924:5931  _update */\n      tag_191\n        /* \"@openzeppelin/contracts/token/ERC20/ERC20.sol\":5924:5948  _update(from, to, value) */\n      jump\t// in\n    tag_210:\n        /* \"@openzeppelin/contracts/token/ERC20/ERC20.sol\":5655:5955  function _transfer(address from, address to, uint256 value) internal {... */\n      pop\n      pop\n      pop\n      jump\t// out\n        /* \"@openzeppelin/contracts/access/Ownable.sol\":2911:3098  function _transferOwnership(address newOwner) internal virtual {... */\n    tag_153:\n        /* \"@openzeppelin/contracts/access/Ownable.sol\":2984:3000  address oldOwner */\n      0x00\n        /* \"@openzeppelin/contracts/access/Ownable.sol\":3003:3009  _owner */\n      0x05\n      0x00\n      swap1\n      sload\n      swap1\n      0x0100\n      exp\n      swap1\n      div\n      0xffffffffffffffffffffffffffffffffffffffff\n      and\n        /* \"@openzeppelin/contracts/access/Ownable.sol\":2984:3009  address oldOwner = _owner */\n      swap1\n      pop\n        /* \"@openzeppelin/contracts/access/Ownable.sol\":3028:3036  newOwner */\n      dup2\n        /* \"@openzeppelin/contracts/access/Ownable.sol\":3019:3025  _owner */\n      0x05\n      0x00\n        /* \"@openzeppelin/contracts/access/Ownable.sol\":3019:3036  _owner = newOwner */\n      0x0100\n      exp\n      dup2\n      sload\n      dup2\n      0xffffffffffffffffffffffffffffffffffffffff\n      mul\n      not\n      and\n      swap1\n      dup4\n      0xffffffffffffffffffffffffffffffffffffffff\n      and\n      mul\n      or\n      swap1\n      sstore\n      pop\n        /* \"@openzeppelin/contracts/access/Ownable.sol\":3082:3090  newOwner */\n      dup2\n        /* \"@openzeppelin/contracts/access/Ownable.sol\":3051:3091  OwnershipTransferred(oldOwner, newOwner) */\n      0xffffffffffffffffffffffffffffffffffffffff\n      and\n        /* \"@openzeppelin/contracts/access/Ownable.sol\":3072:3080  oldOwner */\n      dup2\n        /* \"@openzeppelin/contracts/access/Ownable.sol\":3051:3091  OwnershipTransferred(oldOwner, newOwner) */\n      0xffffffffffffffffffffffffffffffffffffffff\n      and\n      0x8be0079c531659141344cd1fd0a4f28419497f9722a3daafe3b4186f6b6457e0\n      mload(0x40)\n      mload(0x40)\n      dup1\n      swap2\n      sub\n      swap1\n      log3\n        /* \"@openzeppelin/contracts/access/Ownable.sol\":2974:3098  {... */\n      pop\n        /* \"@openzeppelin/contracts/access/Ownable.sol\":2911:3098  function _transferOwnership(address newOwner) internal virtual {... */\n      pop\n      jump\t// out\n        /* \"@openzeppelin/contracts/token/ERC20/ERC20.sol\":9948:10380  function _approve(address owner, address spender, uint256 value, bool emitEvent) internal virtual {... */\n    tag_180:\n        /* \"@openzeppelin/contracts/token/ERC20/ERC20.sol\":10077:10078  0 */\n      0x00\n        /* \"@openzeppelin/contracts/token/ERC20/ERC20.sol\":10060:10079  owner == address(0) */\n      0xffffffffffffffffffffffffffffffffffffffff\n      and\n        /* \"@openzeppelin/contracts/token/ERC20/ERC20.sol\":10060:10065  owner */\n      dup5\n        /* \"@openzeppelin/contracts/token/ERC20/ERC20.sol\":10060:10079  owner == address(0) */\n      0xffffffffffffffffffffffffffffffffffffffff\n      and\n      sub\n        /* \"@openzeppelin/contracts/token/ERC20/ERC20.sol\":10056:10145  if (owner == address(0)) {... */\n      tag_213\n      jumpi\n        /* \"@openzeppelin/contracts/token/ERC20/ERC20.sol\":10131:10132  0 */\n      0x00\n        /* \"@openzeppelin/contracts/token/ERC20/ERC20.sol\":10102:10134  ERC20InvalidApprover(address(0)) */\n      mload(0x40)\n      0xe602df0500000000000000000000000000000000000000000000000000000000\n      dup2\n      mstore\n      0x04\n      add\n      tag_214\n      swap2\n      swap1\n      tag_75\n      jump\t// in\n    tag_214:\n      mload(0x40)\n      dup1\n      swap2\n      sub\n      swap1\n      revert\n        /* \"@openzeppelin/contracts/token/ERC20/ERC20.sol\":10056:10145  if (owner == address(0)) {... */\n    tag_213:\n        /* \"@openzeppelin/contracts/token/ERC20/ERC20.sol\":10177:10178  0 */\n      0x00\n        /* \"@openzeppelin/contracts/token/ERC20/ERC20.sol\":10158:10179  spender == address(0) */\n      0xffffffffffffffffffffffffffffffffffffffff\n      and\n        /* \"@openzeppelin/contracts/token/ERC20/ERC20.sol\":10158:10165  spender */\n      dup4\n        /* \"@openzeppelin/contracts/token/ERC20/ERC20.sol\":10158:10179  spender == address(0) */\n      0xffffffffffffffffffffffffffffffffffffffff\n      and\n      sub\n        /* \"@openzeppelin/contracts/token/ERC20/ERC20.sol\":10154:10244  if (spender == address(0)) {... */\n      tag_215\n      jumpi\n        /* \"@openzeppelin/contracts/token/ERC20/ERC20.sol\":10230:10231  0 */\n      0x00\n        /* \"@openzeppelin/contracts/token/ERC20/ERC20.sol\":10202:10233  ERC20InvalidSpender(address(0)) */\n      mload(0x40)\n      0x94280d6200000000000000000000000000000000000000000000000000000000\n      dup2\n      mstore\n      0x04\n      add\n      tag_216\n      swap2\n      swap1\n      tag_75\n      jump\t// in\n    tag_216:\n      mload(0x40)\n      dup1\n      swap2\n      sub\n      swap1\n      revert\n        /* \"@openzeppelin/contracts/token/ERC20/ERC20.sol\":10154:10244  if (spender == address(0)) {... */\n    tag_215:\n        /* \"@openzeppelin/contracts/token/ERC20/ERC20.sol\":10283:10288  value */\n      dup2\n        /* \"@openzeppelin/contracts/token/ERC20/ERC20.sol\":10253:10264  _allowances */\n      0x01\n        /* \"@openzeppelin/contracts/token/ERC20/ERC20.sol\":10253:10271  _allowances[owner] */\n      0x00\n        /* \"@openzeppelin/contracts/token/ERC20/ERC20.sol\":10265:10270  owner */\n      dup7\n        /* \"@openzeppelin/contracts/token/ERC20/ERC20.sol\":10253:10271  _allowances[owner] */\n      0xffffffffffffffffffffffffffffffffffffffff\n      and\n      0xffffffffffffffffffffffffffffffffffffffff\n      and\n      dup2\n      mstore\n      0x20\n      add\n      swap1\n      dup2\n      mstore\n      0x20\n      add\n      0x00\n      keccak256\n        /* \"@openzeppelin/contracts/token/ERC20/ERC20.sol\":10253:10280  _allowances[owner][spender] */\n      0x00\n        /* \"@openzeppelin/contracts/token/ERC20/ERC20.sol\":10272:10279  spender */\n      dup6\n        /* \"@openzeppelin/contracts/token/ERC20/ERC20.sol\":10253:10280  _allowances[owner][spender] */\n      0xffffffffffffffffffffffffffffffffffffffff\n      and\n      0xffffffffffffffffffffffffffffffffffffffff\n      and\n      dup2\n      mstore\n      0x20\n      add\n      swap1\n      dup2\n      mstore\n      0x20\n      add\n      0x00\n      keccak256\n        /* \"@openzeppelin/contracts/token/ERC20/ERC20.sol\":10253:10288  _allowances[owner][spender] = value */\n      dup2\n      swap1\n      sstore\n      pop\n        /* \"@openzeppelin/contracts/token/ERC20/ERC20.sol\":10302:10311  emitEvent */\n      dup1\n        /* \"@openzeppelin/contracts/token/ERC20/ERC20.sol\":10298:10374  if (emitEvent) {... */\n      iszero\n      tag_217\n      jumpi\n        /* \"@openzeppelin/contracts/token/ERC20/ERC20.sol\":10348:10355  spender */\n      dup3\n        /* \"@openzeppelin/contracts/token/ERC20/ERC20.sol\":10332:10363  Approval(owner, spender, value) */\n      0xffffffffffffffffffffffffffffffffffffffff\n      and\n        /* \"@openzeppelin/contracts/token/ERC20/ERC20.sol\":10341:10346  owner */\n      dup5\n        /* \"@openzeppelin/contracts/token/ERC20/ERC20.sol\":10332:10363  Approval(owner, spender, value) */\n      0xffffffffffffffffffffffffffffffffffffffff\n      and\n      0x8c5be1e5ebec7d5bd14f71427d1e84f3dd0314c0f7b2291e5b200ac8c7c3b925\n        /* \"@openzeppelin/contracts/token/ERC20/ERC20.sol\":10357:10362  value */\n      dup5\n        /* \"@openzeppelin/contracts/token/ERC20/ERC20.sol\":10332:10363  Approval(owner, spender, value) */\n      mload(0x40)\n      tag_218\n      swap2\n      swap1\n      tag_45\n      jump\t// in\n    tag_218:\n      mload(0x40)\n      dup1\n      swap2\n      sub\n      swap1\n      log3\n        /* \"@openzeppelin/contracts/token/ERC20/ERC20.sol\":10298:10374  if (emitEvent) {... */\n    tag_217:\n        /* \"@openzeppelin/contracts/token/ERC20/ERC20.sol\":9948:10380  function _approve(address owner, address spender, uint256 value, bool emitEvent) internal virtual {... */\n      pop\n      pop\n      pop\n      pop\n      jump\t// out\n        /* \"@openzeppelin/contracts/token/ERC20/ERC20.sol\":6270:7377  function _update(address from, address to, uint256 value) internal virtual {... */\n    tag_191:\n        /* \"@openzeppelin/contracts/token/ERC20/ERC20.sol\":6375:6376  0 */\n      0x00\n        /* \"@openzeppelin/contracts/token/ERC20/ERC20.sol\":6359:6377  from == address(0) */\n      0xffffffffffffffffffffffffffffffffffffffff\n      and\n        /* \"@openzeppelin/contracts/token/ERC20/ERC20.sol\":6359:6363  from */\n      dup4\n        /* \"@openzeppelin/contracts/token/ERC20/ERC20.sol\":6359:6377  from == address(0) */\n      0xffffffffffffffffffffffffffffffffffffffff\n      and\n      sub\n        /* \"@openzeppelin/contracts/token/ERC20/ERC20.sol\":6355:6895  if (from == address(0)) {... */\n      tag_220\n      jumpi\n        /* \"@openzeppelin/contracts/token/ERC20/ERC20.sol\":6511:6516  value */\n      dup1\n        /* \"@openzeppelin/contracts/token/ERC20/ERC20.sol\":6495:6507  _totalSupply */\n      0x02\n      0x00\n        /* \"@openzeppelin/contracts/token/ERC20/ERC20.sol\":6495:6516  _totalSupply += value */\n      dup3\n      dup3\n      sload\n      tag_221\n      swap2\n      swap1\n      tag_222\n      jump\t// in\n    tag_221:\n      swap3\n      pop\n      pop\n      dup2\n      swap1\n      sstore\n      pop\n        /* \"@openzeppelin/contracts/token/ERC20/ERC20.sol\":6355:6895  if (from == address(0)) {... */\n      jump(tag_223)\n    tag_220:\n        /* \"@openzeppelin/contracts/token/ERC20/ERC20.sol\":6547:6566  uint256 fromBalance */\n      0x00\n        /* \"@openzeppelin/contracts/token/ERC20/ERC20.sol\":6569:6578  _balances */\n      dup1\n        /* \"@openzeppelin/contracts/token/ERC20/ERC20.sol\":6569:6584  _balances[from] */\n      0x00\n        /* \"@openzeppelin/contracts/token/ERC20/ERC20.sol\":6579:6583  from */\n      dup6\n        /* \"@openzeppelin/contracts/token/ERC20/ERC20.sol\":6569:6584  _balances[from] */\n      0xffffffffffffffffffffffffffffffffffffffff\n      and\n      0xffffffffffffffffffffffffffffffffffffffff\n      and\n      dup2\n      mstore\n      0x20\n      add\n      swap1\n      dup2\n      mstore\n      0x20\n      add\n      0x00\n      keccak256\n      sload\n        /* \"@openzeppelin/contracts/token/ERC20/ERC20.sol\":6547:6584  uint256 fromBalance = _balances[from] */\n      swap1\n      pop\n        /* \"@openzeppelin/contracts/token/ERC20/ERC20.sol\":6616:6621  value */\n      dup2\n        /* \"@openzeppelin/contracts/token/ERC20/ERC20.sol\":6602:6613  fromBalance */\n      dup2\n        /* \"@openzeppelin/contracts/token/ERC20/ERC20.sol\":6602:6621  fromBalance < value */\n      lt\n        /* \"@openzeppelin/contracts/token/ERC20/ERC20.sol\":6598:6713  if (fromBalance < value) {... */\n      iszero\n      tag_224\n      jumpi\n        /* \"@openzeppelin/contracts/token/ERC20/ERC20.sol\":6673:6677  from */\n      dup4\n        /* \"@openzeppelin/contracts/token/ERC20/ERC20.sol\":6679:6690  fromBalance */\n      dup2\n        /* \"@openzeppelin/contracts/token/ERC20/ERC20.sol\":6692:6697  value */\n      dup4\n        /* \"@openzeppelin/contracts/token/ERC20/ERC20.sol\":6648:6698  ERC20InsufficientBalance(from, fromBalance, value) */\n      mload(0x40)\n      0xe450d38c00000000000000000000000000000000000000000000000000000000\n      dup2\n      mstore\n      0x04\n      add\n      tag_225\n      swap4\n      swap3\n      swap2\n      swap1\n      tag_203\n      jump\t// in\n    tag_225:\n      mload(0x40)\n      dup1\n      swap2\n      sub\n      swap1\n      revert\n        /* \"@openzeppelin/contracts/token/ERC20/ERC20.sol\":6598:6713  if (fromBalance < value) {... */\n    tag_224:\n        /* \"@openzeppelin/contracts/token/ERC20/ERC20.sol\":6865:6870  value */\n      dup2\n        /* \"@openzeppelin/contracts/token/ERC20/ERC20.sol\":6851:6862  fromBalance */\n      dup2\n        /* \"@openzeppelin/contracts/token/ERC20/ERC20.sol\":6851:6870  fromBalance - value */\n      sub\n        /* \"@openzeppelin/contracts/token/ERC20/ERC20.sol\":6833:6842  _balances */\n      0x00\n        /* \"@openzeppelin/contracts/token/ERC20/ERC20.sol\":6833:6848  _balances[from] */\n      dup1\n        /* \"@openzeppelin/contracts/token/ERC20/ERC20.sol\":6843:6847  from */\n      dup7\n        /* \"@openzeppelin/contracts/token/ERC20/ERC20.sol\":6833:6848  _balances[from] */\n      0xffffffffffffffffffffffffffffffffffffffff\n      and\n      0xffffffffffffffffffffffffffffffffffffffff\n      and\n      dup2\n      mstore\n      0x20\n      add\n      swap1\n      dup2\n      mstore\n      0x20\n      add\n      0x00\n      keccak256\n        /* \"@openzeppelin/contracts/token/ERC20/ERC20.sol\":6833:6870  _balances[from] = fromBalance - value */\n      dup2\n      swap1\n      sstore\n      pop\n        /* \"@openzeppelin/contracts/token/ERC20/ERC20.sol\":6533:6895  {... */\n      pop\n        /* \"@openzeppelin/contracts/token/ERC20/ERC20.sol\":6355:6895  if (from == address(0)) {... */\n    tag_223:\n        /* \"@openzeppelin/contracts/token/ERC20/ERC20.sol\":6923:6924  0 */\n      0x00\n        /* \"@openzeppelin/contracts/token/ERC20/ERC20.sol\":6909:6925  to == address(0) */\n      0xffffffffffffffffffffffffffffffffffffffff\n      and\n        /* \"@openzeppelin/contracts/token/ERC20/ERC20.sol\":6909:6911  to */\n      dup3\n        /* \"@openzeppelin/contracts/token/ERC20/ERC20.sol\":6909:6925  to == address(0) */\n      0xffffffffffffffffffffffffffffffffffffffff\n      and\n      sub\n        /* \"@openzeppelin/contracts/token/ERC20/ERC20.sol\":6905:7330  if (to == address(0)) {... */\n      tag_226\n      jumpi\n        /* \"@openzeppelin/contracts/token/ERC20/ERC20.sol\":7088:7093  value */\n      dup1\n        /* \"@openzeppelin/contracts/token/ERC20/ERC20.sol\":7072:7084  _totalSupply */\n      0x02\n      0x00\n        /* \"@openzeppelin/contracts/token/ERC20/ERC20.sol\":7072:7093  _totalSupply -= value */\n      dup3\n      dup3\n      sload\n      sub\n      swap3\n      pop\n      pop\n      dup2\n      swap1\n      sstore\n      pop\n        /* \"@openzeppelin/contracts/token/ERC20/ERC20.sol\":6905:7330  if (to == address(0)) {... */\n      jump(tag_227)\n    tag_226:\n        /* \"@openzeppelin/contracts/token/ERC20/ERC20.sol\":7300:7305  value */\n      dup1\n        /* \"@openzeppelin/contracts/token/ERC20/ERC20.sol\":7283:7292  _balances */\n      0x00\n        /* \"@openzeppelin/contracts/token/ERC20/ERC20.sol\":7283:7296  _balances[to] */\n      dup1\n        /* \"@openzeppelin/contracts/token/ERC20/ERC20.sol\":7293:7295  to */\n      dup5\n        /* \"@openzeppelin/contracts/token/ERC20/ERC20.sol\":7283:7296  _balances[to] */\n      0xffffffffffffffffffffffffffffffffffffffff\n      and\n      0xffffffffffffffffffffffffffffffffffffffff\n      and\n      dup2\n      mstore\n      0x20\n      add\n      swap1\n      dup2\n      mstore\n      0x20\n      add\n      0x00\n      keccak256\n      0x00\n        /* \"@openzeppelin/contracts/token/ERC20/ERC20.sol\":7283:7305  _balances[to] += value */\n      dup3\n      dup3\n      sload\n      add\n      swap3\n      pop\n      pop\n      dup2\n      swap1\n      sstore\n      pop\n        /* \"@openzeppelin/contracts/token/ERC20/ERC20.sol\":6905:7330  if (to == address(0)) {... */\n    tag_227:\n        /* \"@openzeppelin/contracts/token/ERC20/ERC20.sol\":7360:7362  to */\n      dup2\n        /* \"@openzeppelin/contracts/token/ERC20/ERC20.sol\":7345:7370  Transfer(from, to, value) */\n      0xffffffffffffffffffffffffffffffffffffffff\n      and\n        /* \"@openzeppelin/contracts/token/ERC20/ERC20.sol\":7354:7358  from */\n      dup4\n        /* \"@openzeppelin/contracts/token/ERC20/ERC20.sol\":7345:7370  Transfer(from, to, value) */\n      0xffffffffffffffffffffffffffffffffffffffff\n      and\n      0xddf252ad1be2c89b69c2b068fc378daa952ba7f163c4a11628f55a4df523b3ef\n        /* \"@openzeppelin/contracts/token/ERC20/ERC20.sol\":7364:7369  value */\n      dup4\n        /* \"@openzeppelin/contracts/token/ERC20/ERC20.sol\":7345:7370  Transfer(from, to, value) */\n      mload(0x40)\n      tag_228\n      swap2\n      swap1\n      tag_45\n      jump\t// in\n    tag_228:\n      mload(0x40)\n      dup1\n      swap2\n      sub\n      swap1\n      log3\n        /* \"@openzeppelin/contracts/token/ERC20/ERC20.sol\":6270:7377  function _update(address from, address to, uint256 value) internal virtual {... */\n      pop\n      pop\n      pop\n      jump\t// out\n        /* \"#utility.yul\":7:82   */\n    tag_229:\n        /* \"#utility.yul\":40:46   */\n      0x00\n        /* \"#utility.yul\":73:75   */\n      0x40\n        /* \"#utility.yul\":67:76   */\n      mload\n        /* \"#utility.yul\":57:76   */\n      swap1\n      pop\n        /* \"#utility.yul\":7:82   */\n      swap1\n      jump\t// out\n        /* \"#utility.yul\":88:205   */\n    tag_230:\n        /* \"#utility.yul\":197:198   */\n      0x00\n        /* \"#utility.yul\":194:195   */\n      dup1\n        /* \"#utility.yul\":187:199   */\n      revert\n        /* \"#utility.yul\":211:328   */\n    tag_231:\n        /* \"#utility.yul\":320:321   */\n      0x00\n        /* \"#utility.yul\":317:318   */\n      dup1\n        /* \"#utility.yul\":310:322   */\n      revert\n        /* \"#utility.yul\":334:451   */\n    tag_232:\n        /* \"#utility.yul\":443:444   */\n      0x00\n        /* \"#utility.yul\":440:441   */\n      dup1\n        /* \"#utility.yul\":433:445   */\n      revert\n        /* \"#utility.yul\":457:574   */\n    tag_233:\n        /* \"#utility.yul\":566:567   */\n      0x00\n        /* \"#utility.yul\":563:564   */\n      dup1\n        /* \"#utility.yul\":556:568   */\n      revert\n        /* \"#utility.yul\":580:682   */\n    tag_234:\n        /* \"#utility.yul\":621:627   */\n      0x00\n        /* \"#utility.yul\":672:674   */\n      0x1f\n        /* \"#utility.yul\":668:675   */\n      not\n        /* \"#utility.yul\":663:665   */\n      0x1f\n        /* \"#utility.yul\":656:661   */\n      dup4\n        /* \"#utility.yul\":652:666   */\n      add\n        /* \"#utility.yul\":648:676   */\n      and\n        /* \"#utility.yul\":638:676   */\n      swap1\n      pop\n        /* \"#utility.yul\":580:682   */\n      swap2\n      swap1\n      pop\n      jump\t// out\n        /* \"#utility.yul\":688:868   */\n    tag_235:\n        /* \"#utility.yul\":736:813   */\n      0x4e487b7100000000000000000000000000000000000000000000000000000000\n        /* \"#utility.yul\":733:734   */\n      0x00\n        /* \"#utility.yul\":726:814   */\n      mstore\n        /* \"#utility.yul\":833:837   */\n      0x41\n        /* \"#utility.yul\":830:831   */\n      0x04\n        /* \"#utility.yul\":823:838   */\n      mstore\n        /* \"#utility.yul\":857:861   */\n      0x24\n        /* \"#utility.yul\":854:855   */\n      0x00\n        /* \"#utility.yul\":847:862   */\n      revert\n        /* \"#utility.yul\":874:1155   */\n    tag_236:\n        /* \"#utility.yul\":957:984   */\n      tag_292\n        /* \"#utility.yul\":979:983   */\n      dup3\n        /* \"#utility.yul\":957:984   */\n      tag_234\n      jump\t// in\n    tag_292:\n        /* \"#utility.yul\":949:955   */\n      dup2\n        /* \"#utility.yul\":945:985   */\n      add\n        /* \"#utility.yul\":1087:1093   */\n      dup2\n        /* \"#utility.yul\":1075:1085   */\n      dup2\n        /* \"#utility.yul\":1072:1094   */\n      lt\n        /* \"#utility.yul\":1051:1069   */\n      0xffffffffffffffff\n        /* \"#utility.yul\":1039:1049   */\n      dup3\n        /* \"#utility.yul\":1036:1070   */\n      gt\n        /* \"#utility.yul\":1033:1095   */\n      or\n        /* \"#utility.yul\":1030:1118   */\n      iszero\n      tag_293\n      jumpi\n        /* \"#utility.yul\":1098:1116   */\n      tag_294\n      tag_235\n      jump\t// in\n    tag_294:\n        /* \"#utility.yul\":1030:1118   */\n    tag_293:\n        /* \"#utility.yul\":1138:1148   */\n      dup1\n        /* \"#utility.yul\":1134:1136   */\n      0x40\n        /* \"#utility.yul\":1127:1149   */\n      mstore\n        /* \"#utility.yul\":917:1155   */\n      pop\n        /* \"#utility.yul\":874:1155   */\n      pop\n      pop\n      jump\t// out\n        /* \"#utility.yul\":1161:1290   */\n    tag_237:\n        /* \"#utility.yul\":1195:1201   */\n      0x00\n        /* \"#utility.yul\":1222:1242   */\n      tag_296\n      tag_229\n      jump\t// in\n    tag_296:\n        /* \"#utility.yul\":1212:1242   */\n      swap1\n      pop\n        /* \"#utility.yul\":1251:1284   */\n      tag_297\n        /* \"#utility.yul\":1279:1283   */\n      dup3\n        /* \"#utility.yul\":1271:1277   */\n      dup3\n        /* \"#utility.yul\":1251:1284   */\n      tag_236\n      jump\t// in\n    tag_297:\n        /* \"#utility.yul\":1161:1290   */\n      swap2\n      swap1\n      pop\n      jump\t// out\n        /* \"#utility.yul\":1296:1604   */\n    tag_238:\n        /* \"#utility.yul\":1358:1362   */\n      0x00\n        /* \"#utility.yul\":1448:1466   */\n      0xffffffffffffffff\n        /* \"#utility.yul\":1440:1446   */\n      dup3\n        /* \"#utility.yul\":1437:1467   */\n      gt\n        /* \"#utility.yul\":1434:1490   */\n      iszero\n      tag_299\n      jumpi\n        /* \"#utility.yul\":1470:1488   */\n      tag_300\n      tag_235\n      jump\t// in\n    tag_300:\n        /* \"#utility.yul\":1434:1490   */\n    tag_299:\n        /* \"#utility.yul\":1508:1537   */\n      tag_301\n        /* \"#utility.yul\":1530:1536   */\n      dup3\n        /* \"#utility.yul\":1508:1537   */\n      tag_234\n      jump\t// in\n    tag_301:\n        /* \"#utility.yul\":1500:1537   */\n      swap1\n      pop\n        /* \"#utility.yul\":1592:1596   */\n      0x20\n        /* \"#utility.yul\":1586:1590   */\n      dup2\n        /* \"#utility.yul\":1582:1597   */\n      add\n        /* \"#utility.yul\":1574:1597   */\n      swap1\n      pop\n        /* \"#utility.yul\":1296:1604   */\n      swap2\n      swap1\n      pop\n      jump\t// out\n        /* \"#utility.yul\":1610:1756   */\n    tag_239:\n        /* \"#utility.yul\":1707:1713   */\n      dup3\n        /* \"#utility.yul\":1702:1705   */\n      dup2\n        /* \"#utility.yul\":1697:1700   */\n      dup4\n        /* \"#utility.yul\":1684:1714   */\n      calldatacopy\n        /* \"#utility.yul\":1748:1749   */\n      0x00\n        /* \"#utility.yul\":1739:1745   */\n      dup4\n        /* \"#utility.yul\":1734:1737   */\n      dup4\n        /* \"#utility.yul\":1730:1746   */\n      add\n        /* \"#utility.yul\":1723:1750   */\n      mstore\n        /* \"#utility.yul\":1610:1756   */\n      pop\n      pop\n      pop\n      jump\t// out\n        /* \"#utility.yul\":1762:2187   */\n    tag_240:\n        /* \"#utility.yul\":1840:1845   */\n      0x00\n        /* \"#utility.yul\":1865:1931   */\n      tag_304\n        /* \"#utility.yul\":1881:1930   */\n      tag_305\n        /* \"#utility.yul\":1923:1929   */\n      dup5\n        /* \"#utility.yul\":1881:1930   */\n      tag_238\n      jump\t// in\n    tag_305:\n        /* \"#utility.yul\":1865:1931   */\n      tag_237\n      jump\t// in\n    tag_304:\n        /* \"#utility.yul\":1856:1931   */\n      swap1\n      pop\n        /* \"#utility.yul\":1954:1960   */\n      dup3\n        /* \"#utility.yul\":1947:1952   */\n      dup2\n        /* \"#utility.yul\":1940:1961   */\n      mstore\n        /* \"#utility.yul\":1992:1996   */\n      0x20\n        /* \"#utility.yul\":1985:1990   */\n      dup2\n        /* \"#utility.yul\":1981:1997   */\n      add\n        /* \"#utility.yul\":2030:2033   */\n      dup5\n        /* \"#utility.yul\":2021:2027   */\n      dup5\n        /* \"#utility.yul\":2016:2019   */\n      dup5\n        /* \"#utility.yul\":2012:2028   */\n      add\n        /* \"#utility.yul\":2009:2034   */\n      gt\n        /* \"#utility.yul\":2006:2118   */\n      iszero\n      tag_306\n      jumpi\n        /* \"#utility.yul\":2037:2116   */\n      tag_307\n      tag_233\n      jump\t// in\n    tag_307:\n        /* \"#utility.yul\":2006:2118   */\n    tag_306:\n        /* \"#utility.yul\":2127:2181   */\n      tag_308\n        /* \"#utility.yul\":2174:2180   */\n      dup5\n        /* \"#utility.yul\":2169:2172   */\n      dup3\n        /* \"#utility.yul\":2164:2167   */\n      dup6\n        /* \"#utility.yul\":2127:2181   */\n      tag_239\n      jump\t// in\n    tag_308:\n        /* \"#utility.yul\":1846:2187   */\n      pop\n        /* \"#utility.yul\":1762:2187   */\n      swap4\n      swap3\n      pop\n      pop\n      pop\n      jump\t// out\n        /* \"#utility.yul\":2207:2547   */\n    tag_241:\n        /* \"#utility.yul\":2263:2268   */\n      0x00\n        /* \"#utility.yul\":2312:2315   */\n      dup3\n        /* \"#utility.yul\":2305:2309   */\n      0x1f\n        /* \"#utility.yul\":2297:2303   */\n      dup4\n        /* \"#utility.yul\":2293:2310   */\n      add\n        /* \"#utility.yul\":2289:2316   */\n      slt\n        /* \"#utility.yul\":2279:2401   */\n      tag_310\n      jumpi\n        /* \"#utility.yul\":2320:2399   */\n      tag_311\n      tag_232\n      jump\t// in\n    tag_311:\n        /* \"#utility.yul\":2279:2401   */\n    tag_310:\n        /* \"#utility.yul\":2437:2443   */\n      dup2\n        /* \"#utility.yul\":2424:2444   */\n      calldataload\n        /* \"#utility.yul\":2462:2541   */\n      tag_312\n        /* \"#utility.yul\":2537:2540   */\n      dup5\n        /* \"#utility.yul\":2529:2535   */\n      dup3\n        /* \"#utility.yul\":2522:2526   */\n      0x20\n        /* \"#utility.yul\":2514:2520   */\n      dup7\n        /* \"#utility.yul\":2510:2527   */\n      add\n        /* \"#utility.yul\":2462:2541   */\n      tag_240\n      jump\t// in\n    tag_312:\n        /* \"#utility.yul\":2453:2541   */\n      swap2\n      pop\n        /* \"#utility.yul\":2269:2547   */\n      pop\n        /* \"#utility.yul\":2207:2547   */\n      swap3\n      swap2\n      pop\n      pop\n      jump\t// out\n        /* \"#utility.yul\":2553:3062   */\n    tag_26:\n        /* \"#utility.yul\":2622:2628   */\n      0x00\n        /* \"#utility.yul\":2671:2673   */\n      0x20\n        /* \"#utility.yul\":2659:2668   */\n      dup3\n        /* \"#utility.yul\":2650:2657   */\n      dup5\n        /* \"#utility.yul\":2646:2669   */\n      sub\n        /* \"#utility.yul\":2642:2674   */\n      slt\n        /* \"#utility.yul\":2639:2758   */\n      iszero\n      tag_314\n      jumpi\n        /* \"#utility.yul\":2677:2756   */\n      tag_315\n      tag_230\n      jump\t// in\n    tag_315:\n        /* \"#utility.yul\":2639:2758   */\n    tag_314:\n        /* \"#utility.yul\":2825:2826   */\n      0x00\n        /* \"#utility.yul\":2814:2823   */\n      dup3\n        /* \"#utility.yul\":2810:2827   */\n      add\n        /* \"#utility.yul\":2797:2828   */\n      calldataload\n        /* \"#utility.yul\":2855:2873   */\n      0xffffffffffffffff\n        /* \"#utility.yul\":2847:2853   */\n      dup2\n        /* \"#utility.yul\":2844:2874   */\n      gt\n        /* \"#utility.yul\":2841:2958   */\n      iszero\n      tag_316\n      jumpi\n        /* \"#utility.yul\":2877:2956   */\n      tag_317\n      tag_231\n      jump\t// in\n    tag_317:\n        /* \"#utility.yul\":2841:2958   */\n    tag_316:\n        /* \"#utility.yul\":2982:3045   */\n      tag_318\n        /* \"#utility.yul\":3037:3044   */\n      dup5\n        /* \"#utility.yul\":3028:3034   */\n      dup3\n        /* \"#utility.yul\":3017:3026   */\n      dup6\n        /* \"#utility.yul\":3013:3035   */\n      add\n        /* \"#utility.yul\":2982:3045   */\n      tag_241\n      jump\t// in\n    tag_318:\n        /* \"#utility.yul\":2972:3045   */\n      swap2\n      pop\n        /* \"#utility.yul\":2768:3055   */\n      pop\n        /* \"#utility.yul\":2553:3062   */\n      swap3\n      swap2\n      pop\n      pop\n      jump\t// out\n        /* \"#utility.yul\":3068:3145   */\n    tag_242:\n        /* \"#utility.yul\":3105:3112   */\n      0x00\n        /* \"#utility.yul\":3134:3139   */\n      dup2\n        /* \"#utility.yul\":3123:3139   */\n      swap1\n      pop\n        /* \"#utility.yul\":3068:3145   */\n      swap2\n      swap1\n      pop\n      jump\t// out\n        /* \"#utility.yul\":3151:3269   */\n    tag_243:\n        /* \"#utility.yul\":3238:3262   */\n      tag_321\n        /* \"#utility.yul\":3256:3261   */\n      dup2\n        /* \"#utility.yul\":3238:3262   */\n      tag_242\n      jump\t// in\n    tag_321:\n        /* \"#utility.yul\":3233:3236   */\n      dup3\n        /* \"#utility.yul\":3226:3263   */\n      mstore\n        /* \"#utility.yul\":3151:3269   */\n      pop\n      pop\n      jump\t// out\n        /* \"#utility.yul\":3275:3401   */\n    tag_244:\n        /* \"#utility.yul\":3312:3319   */\n      0x00\n        /* \"#utility.yul\":3352:3394   */\n      0xffffffffffffffffffffffffffffffffffffffff\n        /* \"#utility.yul\":3345:3350   */\n      dup3\n        /* \"#utility.yul\":3341:3395   */\n      and\n        /* \"#utility.yul\":3330:3395   */\n      swap1\n      pop\n        /* \"#utility.yul\":3275:3401   */\n      swap2\n      swap1\n      pop\n      jump\t// out\n        /* \"#utility.yul\":3407:3503   */\n    tag_245:\n        /* \"#utility.yul\":3444:3451   */\n      0x00\n        /* \"#utility.yul\":3473:3497   */\n      tag_324\n        /* \"#utility.yul\":3491:3496   */\n      dup3\n        /* \"#utility.yul\":3473:3497   */\n      tag_244\n      jump\t// in\n    tag_324:\n        /* \"#utility.yul\":3462:3497   */\n      swap1\n      pop\n        /* \"#utility.yul\":3407:3503   */\n      swap2\n      swap1\n      pop\n      jump\t// out\n        /* \"#utility.yul\":3509:3627   */\n    tag_246:\n        /* \"#utility.yul\":3596:3620   */\n      tag_326\n        /* \"#utility.yul\":3614:3619   */\n      dup2\n        /* \"#utility.yul\":3596:3620   */\n      tag_245\n      jump\t// in\n    tag_326:\n        /* \"#utility.yul\":3591:3594   */\n      dup3\n        /* \"#utility.yul\":3584:3621   */\n      mstore\n        /* \"#utility.yul\":3509:3627   */\n      pop\n      pop\n      jump\t// out\n        /* \"#utility.yul\":3633:3965   */\n    tag_29:\n        /* \"#utility.yul\":3754:3758   */\n      0x00\n        /* \"#utility.yul\":3792:3794   */\n      0x40\n        /* \"#utility.yul\":3781:3790   */\n      dup3\n        /* \"#utility.yul\":3777:3795   */\n      add\n        /* \"#utility.yul\":3769:3795   */\n      swap1\n      pop\n        /* \"#utility.yul\":3805:3876   */\n      tag_328\n        /* \"#utility.yul\":3873:3874   */\n      0x00\n        /* \"#utility.yul\":3862:3871   */\n      dup4\n        /* \"#utility.yul\":3858:3875   */\n      add\n        /* \"#utility.yul\":3849:3855   */\n      dup6\n        /* \"#utility.yul\":3805:3876   */\n      tag_243\n      jump\t// in\n    tag_328:\n        /* \"#utility.yul\":3886:3958   */\n      tag_329\n        /* \"#utility.yul\":3954:3956   */\n      0x20\n        /* \"#utility.yul\":3943:3952   */\n      dup4\n        /* \"#utility.yul\":3939:3957   */\n      add\n        /* \"#utility.yul\":3930:3936   */\n      dup5\n        /* \"#utility.yul\":3886:3958   */\n      tag_246\n      jump\t// in\n    tag_329:\n        /* \"#utility.yul\":3633:3965   */\n      swap4\n      swap3\n      pop\n      pop\n      pop\n      jump\t// out\n        /* \"#utility.yul\":3971:4070   */\n    tag_247:\n        /* \"#utility.yul\":4023:4029   */\n      0x00\n        /* \"#utility.yul\":4057:4062   */\n      dup2\n        /* \"#utility.yul\":4051:4063   */\n      mload\n        /* \"#utility.yul\":4041:4063   */\n      swap1\n      pop\n        /* \"#utility.yul\":3971:4070   */\n      swap2\n      swap1\n      pop\n      jump\t// out\n        /* \"#utility.yul\":4076:4245   */\n    tag_248:\n        /* \"#utility.yul\":4160:4171   */\n      0x00\n        /* \"#utility.yul\":4194:4200   */\n      dup3\n        /* \"#utility.yul\":4189:4192   */\n      dup3\n        /* \"#utility.yul\":4182:4201   */\n      mstore\n        /* \"#utility.yul\":4234:4238   */\n      0x20\n        /* \"#utility.yul\":4229:4232   */\n      dup3\n        /* \"#utility.yul\":4225:4239   */\n      add\n        /* \"#utility.yul\":4210:4239   */\n      swap1\n      pop\n        /* \"#utility.yul\":4076:4245   */\n      swap3\n      swap2\n      pop\n      pop\n      jump\t// out\n        /* \"#utility.yul\":4251:4497   */\n    tag_249:\n        /* \"#utility.yul\":4332:4333   */\n      0x00\n        /* \"#utility.yul\":4342:4455   */\n    tag_333:\n        /* \"#utility.yul\":4356:4362   */\n      dup4\n        /* \"#utility.yul\":4353:4354   */\n      dup2\n        /* \"#utility.yul\":4350:4363   */\n      lt\n        /* \"#utility.yul\":4342:4455   */\n      iszero\n      tag_335\n      jumpi\n        /* \"#utility.yul\":4441:4442   */\n      dup1\n        /* \"#utility.yul\":4436:4439   */\n      dup3\n        /* \"#utility.yul\":4432:4443   */\n      add\n        /* \"#utility.yul\":4426:4444   */\n      mload\n        /* \"#utility.yul\":4422:4423   */\n      dup2\n        /* \"#utility.yul\":4417:4420   */\n      dup5\n        /* \"#utility.yul\":4413:4424   */\n      add\n        /* \"#utility.yul\":4406:4445   */\n      mstore\n        /* \"#utility.yul\":4378:4380   */\n      0x20\n        /* \"#utility.yul\":4375:4376   */\n      dup2\n        /* \"#utility.yul\":4371:4381   */\n      add\n        /* \"#utility.yul\":4366:4381   */\n      swap1\n      pop\n        /* \"#utility.yul\":4342:4455   */\n      jump(tag_333)\n    tag_335:\n        /* \"#utility.yul\":4489:4490   */\n      0x00\n        /* \"#utility.yul\":4480:4486   */\n      dup5\n        /* \"#utility.yul\":4475:4478   */\n      dup5\n        /* \"#utility.yul\":4471:4487   */\n      add\n        /* \"#utility.yul\":4464:4491   */\n      mstore\n        /* \"#utility.yul\":4313:4497   */\n      pop\n        /* \"#utility.yul\":4251:4497   */\n      pop\n      pop\n      pop\n      jump\t// out\n        /* \"#utility.yul\":4503:4880   */\n    tag_250:\n        /* \"#utility.yul\":4591:4594   */\n      0x00\n        /* \"#utility.yul\":4619:4658   */\n      tag_337\n        /* \"#utility.yul\":4652:4657   */\n      dup3\n        /* \"#utility.yul\":4619:4658   */\n      tag_247\n      jump\t// in\n    tag_337:\n        /* \"#utility.yul\":4674:4745   */\n      tag_338\n        /* \"#utility.yul\":4738:4744   */\n      dup2\n        /* \"#utility.yul\":4733:4736   */\n      dup6\n        /* \"#utility.yul\":4674:4745   */\n      tag_248\n      jump\t// in\n    tag_338:\n        /* \"#utility.yul\":4667:4745   */\n      swap4\n      pop\n        /* \"#utility.yul\":4754:4819   */\n      tag_339\n        /* \"#utility.yul\":4812:4818   */\n      dup2\n        /* \"#utility.yul\":4807:4810   */\n      dup6\n        /* \"#utility.yul\":4800:4804   */\n      0x20\n        /* \"#utility.yul\":4793:4798   */\n      dup7\n        /* \"#utility.yul\":4789:4805   */\n      add\n        /* \"#utility.yul\":4754:4819   */\n      tag_249\n      jump\t// in\n    tag_339:\n        /* \"#utility.yul\":4844:4873   */\n      tag_340\n        /* \"#utility.yul\":4866:4872   */\n      dup2\n        /* \"#utility.yul\":4844:4873   */\n      tag_234\n      jump\t// in\n    tag_340:\n        /* \"#utility.yul\":4839:4842   */\n      dup5\n        /* \"#utility.yul\":4835:4874   */\n      add\n        /* \"#utility.yul\":4828:4874   */\n      swap2\n      pop\n        /* \"#utility.yul\":4595:4880   */\n      pop\n        /* \"#utility.yul\":4503:4880   */\n      swap3\n      swap2\n      pop\n      pop\n      jump\t// out\n        /* \"#utility.yul\":4886:5199   */\n    tag_33:\n        /* \"#utility.yul\":4999:5003   */\n      0x00\n        /* \"#utility.yul\":5037:5039   */\n      0x20\n        /* \"#utility.yul\":5026:5035   */\n      dup3\n        /* \"#utility.yul\":5022:5040   */\n      add\n        /* \"#utility.yul\":5014:5040   */\n      swap1\n      pop\n        /* \"#utility.yul\":5086:5095   */\n      dup2\n        /* \"#utility.yul\":5080:5084   */\n      dup2\n        /* \"#utility.yul\":5076:5096   */\n      sub\n        /* \"#utility.yul\":5072:5073   */\n      0x00\n        /* \"#utility.yul\":5061:5070   */\n      dup4\n        /* \"#utility.yul\":5057:5074   */\n      add\n        /* \"#utility.yul\":5050:5097   */\n      mstore\n        /* \"#utility.yul\":5114:5192   */\n      tag_342\n        /* \"#utility.yul\":5187:5191   */\n      dup2\n        /* \"#utility.yul\":5178:5184   */\n      dup5\n        /* \"#utility.yul\":5114:5192   */\n      tag_250\n      jump\t// in\n    tag_342:\n        /* \"#utility.yul\":5106:5192   */\n      swap1\n      pop\n        /* \"#utility.yul\":4886:5199   */\n      swap3\n      swap2\n      pop\n      pop\n      jump\t// out\n        /* \"#utility.yul\":5205:5327   */\n    tag_251:\n        /* \"#utility.yul\":5278:5302   */\n      tag_344\n        /* \"#utility.yul\":5296:5301   */\n      dup2\n        /* \"#utility.yul\":5278:5302   */\n      tag_245\n      jump\t// in\n    tag_344:\n        /* \"#utility.yul\":5271:5276   */\n      dup2\n        /* \"#utility.yul\":5268:5303   */\n      eq\n        /* \"#utility.yul\":5258:5321   */\n      tag_345\n      jumpi\n        /* \"#utility.yul\":5317:5318   */\n      0x00\n        /* \"#utility.yul\":5314:5315   */\n      dup1\n        /* \"#utility.yul\":5307:5319   */\n      revert\n        /* \"#utility.yul\":5258:5321   */\n    tag_345:\n        /* \"#utility.yul\":5205:5327   */\n      pop\n      jump\t// out\n        /* \"#utility.yul\":5333:5472   */\n    tag_252:\n        /* \"#utility.yul\":5379:5384   */\n      0x00\n        /* \"#utility.yul\":5417:5423   */\n      dup2\n        /* \"#utility.yul\":5404:5424   */\n      calldataload\n        /* \"#utility.yul\":5395:5424   */\n      swap1\n      pop\n        /* \"#utility.yul\":5433:5466   */\n      tag_347\n        /* \"#utility.yul\":5460:5465   */\n      dup2\n        /* \"#utility.yul\":5433:5466   */\n      tag_251\n      jump\t// in\n    tag_347:\n        /* \"#utility.yul\":5333:5472   */\n      swap3\n      swap2\n      pop\n      pop\n      jump\t// out\n        /* \"#utility.yul\":5478:5600   */\n    tag_253:\n        /* \"#utility.yul\":5551:5575   */\n      tag_349\n        /* \"#utility.yul\":5569:5574   */\n      dup2\n        /* \"#utility.yul\":5551:5575   */\n      tag_242\n      jump\t// in\n    tag_349:\n        /* \"#utility.yul\":5544:5549   */\n      dup2\n        /* \"#utility.yul\":5541:5576   */\n      eq\n        /* \"#utility.yul\":5531:5594   */\n      tag_350\n      jumpi\n        /* \"#utility.yul\":5590:5591   */\n      0x00\n        /* \"#utility.yul\":5587:5588   */\n      dup1\n        /* \"#utility.yul\":5580:5592   */\n      revert\n        /* \"#utility.yul\":5531:5594   */\n    tag_350:\n        /* \"#utility.yul\":5478:5600   */\n      pop\n      jump\t// out\n        /* \"#utility.yul\":5606:5745   */\n    tag_254:\n        /* \"#utility.yul\":5652:5657   */\n      0x00\n        /* \"#utility.yul\":5690:5696   */\n      dup2\n        /* \"#utility.yul\":5677:5697   */\n      calldataload\n        /* \"#utility.yul\":5668:5697   */\n      swap1\n      pop\n        /* \"#utility.yul\":5706:5739   */\n      tag_352\n        /* \"#utility.yul\":5733:5738   */\n      dup2\n        /* \"#utility.yul\":5706:5739   */\n      tag_253\n      jump\t// in\n    tag_352:\n        /* \"#utility.yul\":5606:5745   */\n      swap3\n      swap2\n      pop\n      pop\n      jump\t// out\n        /* \"#utility.yul\":5751:6225   */\n    tag_36:\n        /* \"#utility.yul\":5819:5825   */\n      0x00\n        /* \"#utility.yul\":5827:5833   */\n      dup1\n        /* \"#utility.yul\":5876:5878   */\n      0x40\n        /* \"#utility.yul\":5864:5873   */\n      dup4\n        /* \"#utility.yul\":5855:5862   */\n      dup6\n        /* \"#utility.yul\":5851:5874   */\n      sub\n        /* \"#utility.yul\":5847:5879   */\n      slt\n        /* \"#utility.yul\":5844:5963   */\n      iszero\n      tag_354\n      jumpi\n        /* \"#utility.yul\":5882:5961   */\n      tag_355\n      tag_230\n      jump\t// in\n    tag_355:\n        /* \"#utility.yul\":5844:5963   */\n    tag_354:\n        /* \"#utility.yul\":6002:6003   */\n      0x00\n        /* \"#utility.yul\":6027:6080   */\n      tag_356\n        /* \"#utility.yul\":6072:6079   */\n      dup6\n        /* \"#utility.yul\":6063:6069   */\n      dup3\n        /* \"#utility.yul\":6052:6061   */\n      dup7\n        /* \"#utility.yul\":6048:6070   */\n      add\n        /* \"#utility.yul\":6027:6080   */\n      tag_252\n      jump\t// in\n    tag_356:\n        /* \"#utility.yul\":6017:6080   */\n      swap3\n      pop\n        /* \"#utility.yul\":5973:6090   */\n      pop\n        /* \"#utility.yul\":6129:6131   */\n      0x20\n        /* \"#utility.yul\":6155:6208   */\n      tag_357\n        /* \"#utility.yul\":6200:6207   */\n      dup6\n        /* \"#utility.yul\":6191:6197   */\n      dup3\n        /* \"#utility.yul\":6180:6189   */\n      dup7\n        /* \"#utility.yul\":6176:6198   */\n      add\n        /* \"#utility.yul\":6155:6208   */\n      tag_254\n      jump\t// in\n    tag_357:\n        /* \"#utility.yul\":6145:6208   */\n      swap2\n      pop\n        /* \"#utility.yul\":6100:6218   */\n      pop\n        /* \"#utility.yul\":5751:6225   */\n      swap3\n      pop\n      swap3\n      swap1\n      pop\n      jump\t// out\n        /* \"#utility.yul\":6231:6321   */\n    tag_255:\n        /* \"#utility.yul\":6265:6272   */\n      0x00\n        /* \"#utility.yul\":6308:6313   */\n      dup2\n        /* \"#utility.yul\":6301:6314   */\n      iszero\n        /* \"#utility.yul\":6294:6315   */\n      iszero\n        /* \"#utility.yul\":6283:6315   */\n      swap1\n      pop\n        /* \"#utility.yul\":6231:6321   */\n      swap2\n      swap1\n      pop\n      jump\t// out\n        /* \"#utility.yul\":6327:6436   */\n    tag_256:\n        /* \"#utility.yul\":6408:6429   */\n      tag_360\n        /* \"#utility.yul\":6423:6428   */\n      dup2\n        /* \"#utility.yul\":6408:6429   */\n      tag_255\n      jump\t// in\n    tag_360:\n        /* \"#utility.yul\":6403:6406   */\n      dup3\n        /* \"#utility.yul\":6396:6430   */\n      mstore\n        /* \"#utility.yul\":6327:6436   */\n      pop\n      pop\n      jump\t// out\n        /* \"#utility.yul\":6442:6652   */\n    tag_39:\n        /* \"#utility.yul\":6529:6533   */\n      0x00\n        /* \"#utility.yul\":6567:6569   */\n      0x20\n        /* \"#utility.yul\":6556:6565   */\n      dup3\n        /* \"#utility.yul\":6552:6570   */\n      add\n        /* \"#utility.yul\":6544:6570   */\n      swap1\n      pop\n        /* \"#utility.yul\":6580:6645   */\n      tag_362\n        /* \"#utility.yul\":6642:6643   */\n      0x00\n        /* \"#utility.yul\":6631:6640   */\n      dup4\n        /* \"#utility.yul\":6627:6644   */\n      add\n        /* \"#utility.yul\":6618:6624   */\n      dup5\n        /* \"#utility.yul\":6580:6645   */\n      tag_256\n      jump\t// in\n    tag_362:\n        /* \"#utility.yul\":6442:6652   */\n      swap3\n      swap2\n      pop\n      pop\n      jump\t// out\n        /* \"#utility.yul\":6658:6880   */\n    tag_45:\n        /* \"#utility.yul\":6751:6755   */\n      0x00\n        /* \"#utility.yul\":6789:6791   */\n      0x20\n        /* \"#utility.yul\":6778:6787   */\n      dup3\n        /* \"#utility.yul\":6774:6792   */\n      add\n        /* \"#utility.yul\":6766:6792   */\n      swap1\n      pop\n        /* \"#utility.yul\":6802:6873   */\n      tag_364\n        /* \"#utility.yul\":6870:6871   */\n      0x00\n        /* \"#utility.yul\":6859:6868   */\n      dup4\n        /* \"#utility.yul\":6855:6872   */\n      add\n        /* \"#utility.yul\":6846:6852   */\n      dup5\n        /* \"#utility.yul\":6802:6873   */\n      tag_243\n      jump\t// in\n    tag_364:\n        /* \"#utility.yul\":6658:6880   */\n      swap3\n      swap2\n      pop\n      pop\n      jump\t// out\n        /* \"#utility.yul\":6886:7215   */\n    tag_48:\n        /* \"#utility.yul\":6945:6951   */\n      0x00\n        /* \"#utility.yul\":6994:6996   */\n      0x20\n        /* \"#utility.yul\":6982:6991   */\n      dup3\n        /* \"#utility.yul\":6973:6980   */\n      dup5\n        /* \"#utility.yul\":6969:6992   */\n      sub\n        /* \"#utility.yul\":6965:6997   */\n      slt\n        /* \"#utility.yul\":6962:7081   */\n      iszero\n      tag_366\n      jumpi\n        /* \"#utility.yul\":7000:7079   */\n      tag_367\n      tag_230\n      jump\t// in\n    tag_367:\n        /* \"#utility.yul\":6962:7081   */\n    tag_366:\n        /* \"#utility.yul\":7120:7121   */\n      0x00\n        /* \"#utility.yul\":7145:7198   */\n      tag_368\n        /* \"#utility.yul\":7190:7197   */\n      dup5\n        /* \"#utility.yul\":7181:7187   */\n      dup3\n        /* \"#utility.yul\":7170:7179   */\n      dup6\n        /* \"#utility.yul\":7166:7188   */\n      add\n        /* \"#utility.yul\":7145:7198   */\n      tag_254\n      jump\t// in\n    tag_368:\n        /* \"#utility.yul\":7135:7198   */\n      swap2\n      pop\n        /* \"#utility.yul\":7091:7208   */\n      pop\n        /* \"#utility.yul\":6886:7215   */\n      swap3\n      swap2\n      pop\n      pop\n      jump\t// out\n        /* \"#utility.yul\":7221:7339   */\n    tag_257:\n        /* \"#utility.yul\":7308:7332   */\n      tag_370\n        /* \"#utility.yul\":7326:7331   */\n      dup2\n        /* \"#utility.yul\":7308:7332   */\n      tag_244\n      jump\t// in\n    tag_370:\n        /* \"#utility.yul\":7303:7306   */\n      dup3\n        /* \"#utility.yul\":7296:7333   */\n      mstore\n        /* \"#utility.yul\":7221:7339   */\n      pop\n      pop\n      jump\t// out\n        /* \"#utility.yul\":7345:7878   */\n    tag_51:\n        /* \"#utility.yul\":7514:7518   */\n      0x00\n        /* \"#utility.yul\":7552:7554   */\n      0x60\n        /* \"#utility.yul\":7541:7550   */\n      dup3\n        /* \"#utility.yul\":7537:7555   */\n      add\n        /* \"#utility.yul\":7529:7555   */\n      swap1\n      pop\n        /* \"#utility.yul\":7601:7610   */\n      dup2\n        /* \"#utility.yul\":7595:7599   */\n      dup2\n        /* \"#utility.yul\":7591:7611   */\n      sub\n        /* \"#utility.yul\":7587:7588   */\n      0x00\n        /* \"#utility.yul\":7576:7585   */\n      dup4\n        /* \"#utility.yul\":7572:7589   */\n      add\n        /* \"#utility.yul\":7565:7612   */\n      mstore\n        /* \"#utility.yul\":7629:7707   */\n      tag_372\n        /* \"#utility.yul\":7702:7706   */\n      dup2\n        /* \"#utility.yul\":7693:7699   */\n      dup7\n        /* \"#utility.yul\":7629:7707   */\n      tag_250\n      jump\t// in\n    tag_372:\n        /* \"#utility.yul\":7621:7707   */\n      swap1\n      pop\n        /* \"#utility.yul\":7717:7789   */\n      tag_373\n        /* \"#utility.yul\":7785:7787   */\n      0x20\n        /* \"#utility.yul\":7774:7783   */\n      dup4\n        /* \"#utility.yul\":7770:7788   */\n      add\n        /* \"#utility.yul\":7761:7767   */\n      dup6\n        /* \"#utility.yul\":7717:7789   */\n      tag_257\n      jump\t// in\n    tag_373:\n        /* \"#utility.yul\":7799:7871   */\n      tag_374\n        /* \"#utility.yul\":7867:7869   */\n      0x40\n        /* \"#utility.yul\":7856:7865   */\n      dup4\n        /* \"#utility.yul\":7852:7870   */\n      add\n        /* \"#utility.yul\":7843:7849   */\n      dup5\n        /* \"#utility.yul\":7799:7871   */\n      tag_246\n      jump\t// in\n    tag_374:\n        /* \"#utility.yul\":7345:7878   */\n      swap5\n      swap4\n      pop\n      pop\n      pop\n      pop\n      jump\t// out\n        /* \"#utility.yul\":7884:8503   */\n    tag_54:\n        /* \"#utility.yul\":7961:7967   */\n      0x00\n        /* \"#utility.yul\":7969:7975   */\n      dup1\n        /* \"#utility.yul\":7977:7983   */\n      0x00\n        /* \"#utility.yul\":8026:8028   */\n      0x60\n        /* \"#utility.yul\":8014:8023   */\n      dup5\n        /* \"#utility.yul\":8005:8012   */\n      dup7\n        /* \"#utility.yul\":8001:8024   */\n      sub\n        /* \"#utility.yul\":7997:8029   */\n      slt\n        /* \"#utility.yul\":7994:8113   */\n      iszero\n      tag_376\n      jumpi\n        /* \"#utility.yul\":8032:8111   */\n      tag_377\n      tag_230\n      jump\t// in\n    tag_377:\n        /* \"#utility.yul\":7994:8113   */\n    tag_376:\n        /* \"#utility.yul\":8152:8153   */\n      0x00\n        /* \"#utility.yul\":8177:8230   */\n      tag_378\n        /* \"#utility.yul\":8222:8229   */\n      dup7\n        /* \"#utility.yul\":8213:8219   */\n      dup3\n        /* \"#utility.yul\":8202:8211   */\n      dup8\n        /* \"#utility.yul\":8198:8220   */\n      add\n        /* \"#utility.yul\":8177:8230   */\n      tag_252\n      jump\t// in\n    tag_378:\n        /* \"#utility.yul\":8167:8230   */\n      swap4\n      pop\n        /* \"#utility.yul\":8123:8240   */\n      pop\n        /* \"#utility.yul\":8279:8281   */\n      0x20\n        /* \"#utility.yul\":8305:8358   */\n      tag_379\n        /* \"#utility.yul\":8350:8357   */\n      dup7\n        /* \"#utility.yul\":8341:8347   */\n      dup3\n        /* \"#utility.yul\":8330:8339   */\n      dup8\n        /* \"#utility.yul\":8326:8348   */\n      add\n        /* \"#utility.yul\":8305:8358   */\n      tag_252\n      jump\t// in\n    tag_379:\n        /* \"#utility.yul\":8295:8358   */\n      swap3\n      pop\n        /* \"#utility.yul\":8250:8368   */\n      pop\n        /* \"#utility.yul\":8407:8409   */\n      0x40\n        /* \"#utility.yul\":8433:8486   */\n      tag_380\n        /* \"#utility.yul\":8478:8485   */\n      dup7\n        /* \"#utility.yul\":8469:8475   */\n      dup3\n        /* \"#utility.yul\":8458:8467   */\n      dup8\n        /* \"#utility.yul\":8454:8476   */\n      add\n        /* \"#utility.yul\":8433:8486   */\n      tag_254\n      jump\t// in\n    tag_380:\n        /* \"#utility.yul\":8423:8486   */\n      swap2\n      pop\n        /* \"#utility.yul\":8378:8496   */\n      pop\n        /* \"#utility.yul\":7884:8503   */\n      swap3\n      pop\n      swap3\n      pop\n      swap3\n      jump\t// out\n        /* \"#utility.yul\":8509:8595   */\n    tag_258:\n        /* \"#utility.yul\":8544:8551   */\n      0x00\n        /* \"#utility.yul\":8584:8588   */\n      0xff\n        /* \"#utility.yul\":8577:8582   */\n      dup3\n        /* \"#utility.yul\":8573:8589   */\n      and\n        /* \"#utility.yul\":8562:8589   */\n      swap1\n      pop\n        /* \"#utility.yul\":8509:8595   */\n      swap2\n      swap1\n      pop\n      jump\t// out\n        /* \"#utility.yul\":8601:8713   */\n    tag_259:\n        /* \"#utility.yul\":8684:8706   */\n      tag_383\n        /* \"#utility.yul\":8700:8705   */\n      dup2\n        /* \"#utility.yul\":8684:8706   */\n      tag_258\n      jump\t// in\n    tag_383:\n        /* \"#utility.yul\":8679:8682   */\n      dup3\n        /* \"#utility.yul\":8672:8707   */\n      mstore\n        /* \"#utility.yul\":8601:8713   */\n      pop\n      pop\n      jump\t// out\n        /* \"#utility.yul\":8719:8933   */\n    tag_60:\n        /* \"#utility.yul\":8808:8812   */\n      0x00\n        /* \"#utility.yul\":8846:8848   */\n      0x20\n        /* \"#utility.yul\":8835:8844   */\n      dup3\n        /* \"#utility.yul\":8831:8849   */\n      add\n        /* \"#utility.yul\":8823:8849   */\n      swap1\n      pop\n        /* \"#utility.yul\":8859:8926   */\n      tag_385\n        /* \"#utility.yul\":8923:8924   */\n      0x00\n        /* \"#utility.yul\":8912:8921   */\n      dup4\n        /* \"#utility.yul\":8908:8925   */\n      add\n        /* \"#utility.yul\":8899:8905   */\n      dup5\n        /* \"#utility.yul\":8859:8926   */\n      tag_259\n      jump\t// in\n    tag_385:\n        /* \"#utility.yul\":8719:8933   */\n      swap3\n      swap2\n      pop\n      pop\n      jump\t// out\n        /* \"#utility.yul\":8939:9161   */\n    tag_64:\n        /* \"#utility.yul\":9032:9036   */\n      0x00\n        /* \"#utility.yul\":9070:9072   */\n      0x20\n        /* \"#utility.yul\":9059:9068   */\n      dup3\n        /* \"#utility.yul\":9055:9073   */\n      add\n        /* \"#utility.yul\":9047:9073   */\n      swap1\n      pop\n        /* \"#utility.yul\":9083:9154   */\n      tag_387\n        /* \"#utility.yul\":9151:9152   */\n      0x00\n        /* \"#utility.yul\":9140:9149   */\n      dup4\n        /* \"#utility.yul\":9136:9153   */\n      add\n        /* \"#utility.yul\":9127:9133   */\n      dup5\n        /* \"#utility.yul\":9083:9154   */\n      tag_257\n      jump\t// in\n    tag_387:\n        /* \"#utility.yul\":8939:9161   */\n      swap3\n      swap2\n      pop\n      pop\n      jump\t// out\n        /* \"#utility.yul\":9167:9496   */\n    tag_67:\n        /* \"#utility.yul\":9226:9232   */\n      0x00\n        /* \"#utility.yul\":9275:9277   */\n      0x20\n        /* \"#utility.yul\":9263:9272   */\n      dup3\n        /* \"#utility.yul\":9254:9261   */\n      dup5\n        /* \"#utility.yul\":9250:9273   */\n      sub\n        /* \"#utility.yul\":9246:9278   */\n      slt\n        /* \"#utility.yul\":9243:9362   */\n      iszero\n      tag_389\n      jumpi\n        /* \"#utility.yul\":9281:9360   */\n      tag_390\n      tag_230\n      jump\t// in\n    tag_390:\n        /* \"#utility.yul\":9243:9362   */\n    tag_389:\n        /* \"#utility.yul\":9401:9402   */\n      0x00\n        /* \"#utility.yul\":9426:9479   */\n      tag_391\n        /* \"#utility.yul\":9471:9478   */\n      dup5\n        /* \"#utility.yul\":9462:9468   */\n      dup3\n        /* \"#utility.yul\":9451:9460   */\n      dup6\n        /* \"#utility.yul\":9447:9469   */\n      add\n        /* \"#utility.yul\":9426:9479   */\n      tag_252\n      jump\t// in\n    tag_391:\n        /* \"#utility.yul\":9416:9479   */\n      swap2\n      pop\n        /* \"#utility.yul\":9372:9489   */\n      pop\n        /* \"#utility.yul\":9167:9496   */\n      swap3\n      swap2\n      pop\n      pop\n      jump\t// out\n        /* \"#utility.yul\":9502:9724   */\n    tag_75:\n        /* \"#utility.yul\":9595:9599   */\n      0x00\n        /* \"#utility.yul\":9633:9635   */\n      0x20\n        /* \"#utility.yul\":9622:9631   */\n      dup3\n        /* \"#utility.yul\":9618:9636   */\n      add\n        /* \"#utility.yul\":9610:9636   */\n      swap1\n      pop\n        /* \"#utility.yul\":9646:9717   */\n      tag_393\n        /* \"#utility.yul\":9714:9715   */\n      0x00\n        /* \"#utility.yul\":9703:9712   */\n      dup4\n        /* \"#utility.yul\":9699:9716   */\n      add\n        /* \"#utility.yul\":9690:9696   */\n      dup5\n        /* \"#utility.yul\":9646:9717   */\n      tag_246\n      jump\t// in\n    tag_393:\n        /* \"#utility.yul\":9502:9724   */\n      swap3\n      swap2\n      pop\n      pop\n      jump\t// out\n        /* \"#utility.yul\":9730:10204   */\n    tag_88:\n        /* \"#utility.yul\":9798:9804   */\n      0x00\n        /* \"#utility.yul\":9806:9812   */\n      dup1\n        /* \"#utility.yul\":9855:9857   */\n      0x40\n        /* \"#utility.yul\":9843:9852   */\n      dup4\n        /* \"#utility.yul\":9834:9841   */\n      dup6\n        /* \"#utility.yul\":9830:9853   */\n      sub\n        /* \"#utility.yul\":9826:9858   */\n      slt\n        /* \"#utility.yul\":9823:9942   */\n      iszero\n      tag_395\n      jumpi\n        /* \"#utility.yul\":9861:9940   */\n      tag_396\n      tag_230\n      jump\t// in\n    tag_396:\n        /* \"#utility.yul\":9823:9942   */\n    tag_395:\n        /* \"#utility.yul\":9981:9982   */\n      0x00\n        /* \"#utility.yul\":10006:10059   */\n      tag_397\n        /* \"#utility.yul\":10051:10058   */\n      dup6\n        /* \"#utility.yul\":10042:10048   */\n      dup3\n        /* \"#utility.yul\":10031:10040   */\n      dup7\n        /* \"#utility.yul\":10027:10049   */\n      add\n        /* \"#utility.yul\":10006:10059   */\n      tag_252\n      jump\t// in\n    tag_397:\n        /* \"#utility.yul\":9996:10059   */\n      swap3\n      pop\n        /* \"#utility.yul\":9952:10069   */\n      pop\n        /* \"#utility.yul\":10108:10110   */\n      0x20\n        /* \"#utility.yul\":10134:10187   */\n      tag_398\n        /* \"#utility.yul\":10179:10186   */\n      dup6\n        /* \"#utility.yul\":10170:10176   */\n      dup3\n        /* \"#utility.yul\":10159:10168   */\n      dup7\n        /* \"#utility.yul\":10155:10177   */\n      add\n        /* \"#utility.yul\":10134:10187   */\n      tag_252\n      jump\t// in\n    tag_398:\n        /* \"#utility.yul\":10124:10187   */\n      swap2\n      pop\n        /* \"#utility.yul\":10079:10197   */\n      pop\n        /* \"#utility.yul\":9730:10204   */\n      swap3\n      pop\n      swap3\n      swap1\n      pop\n      jump\t// out\n        /* \"#utility.yul\":10210:10358   */\n    tag_260:\n        /* \"#utility.yul\":10312:10323   */\n      0x00\n        /* \"#utility.yul\":10349:10352   */\n      dup2\n        /* \"#utility.yul\":10334:10352   */\n      swap1\n      pop\n        /* \"#utility.yul\":10210:10358   */\n      swap3\n      swap2\n      pop\n      pop\n      jump\t// out\n        /* \"#utility.yul\":10364:10754   */\n    tag_261:\n        /* \"#utility.yul\":10470:10473   */\n      0x00\n        /* \"#utility.yul\":10498:10537   */\n      tag_401\n        /* \"#utility.yul\":10531:10536   */\n      dup3\n        /* \"#utility.yul\":10498:10537   */\n      tag_247\n      jump\t// in\n    tag_401:\n        /* \"#utility.yul\":10553:10642   */\n      tag_402\n        /* \"#utility.yul\":10635:10641   */\n      dup2\n        /* \"#utility.yul\":10630:10633   */\n      dup6\n        /* \"#utility.yul\":10553:10642   */\n      tag_260\n      jump\t// in\n    tag_402:\n        /* \"#utility.yul\":10546:10642   */\n      swap4\n      pop\n        /* \"#utility.yul\":10651:10716   */\n      tag_403\n        /* \"#utility.yul\":10709:10715   */\n      dup2\n        /* \"#utility.yul\":10704:10707   */\n      dup6\n        /* \"#utility.yul\":10697:10701   */\n      0x20\n        /* \"#utility.yul\":10690:10695   */\n      dup7\n        /* \"#utility.yul\":10686:10702   */\n      add\n        /* \"#utility.yul\":10651:10716   */\n      tag_249\n      jump\t// in\n    tag_403:\n        /* \"#utility.yul\":10741:10747   */\n      dup1\n        /* \"#utility.yul\":10736:10739   */\n      dup5\n        /* \"#utility.yul\":10732:10748   */\n      add\n        /* \"#utility.yul\":10725:10748   */\n      swap2\n      pop\n        /* \"#utility.yul\":10474:10754   */\n      pop\n        /* \"#utility.yul\":10364:10754   */\n      swap3\n      swap2\n      pop\n      pop\n      jump\t// out\n        /* \"#utility.yul\":10760:11035   */\n    tag_99:\n        /* \"#utility.yul\":10892:10895   */\n      0x00\n        /* \"#utility.yul\":10914:11009   */\n      tag_405\n        /* \"#utility.yul\":11005:11008   */\n      dup3\n        /* \"#utility.yul\":10996:11002   */\n      dup5\n        /* \"#utility.yul\":10914:11009   */\n      tag_261\n      jump\t// in\n    tag_405:\n        /* \"#utility.yul\":10907:11009   */\n      swap2\n      pop\n        /* \"#utility.yul\":11026:11029   */\n      dup2\n        /* \"#utility.yul\":11019:11029   */\n      swap1\n      pop\n        /* \"#utility.yul\":10760:11035   */\n      swap3\n      swap2\n      pop\n      pop\n      jump\t// out\n        /* \"#utility.yul\":11041:11221   */\n    tag_262:\n        /* \"#utility.yul\":11089:11166   */\n      0x4e487b7100000000000000000000000000000000000000000000000000000000\n        /* \"#utility.yul\":11086:11087   */\n      0x00\n        /* \"#utility.yul\":11079:11167   */\n      mstore\n        /* \"#utility.yul\":11186:11190   */\n      0x22\n        /* \"#utility.yul\":11183:11184   */\n      0x04\n        /* \"#utility.yul\":11176:11191   */\n      mstore\n        /* \"#utility.yul\":11210:11214   */\n      0x24\n        /* \"#utility.yul\":11207:11208   */\n      0x00\n        /* \"#utility.yul\":11200:11215   */\n      revert\n        /* \"#utility.yul\":11227:11547   */\n    tag_103:\n        /* \"#utility.yul\":11271:11277   */\n      0x00\n        /* \"#utility.yul\":11308:11309   */\n      0x02\n        /* \"#utility.yul\":11302:11306   */\n      dup3\n        /* \"#utility.yul\":11298:11310   */\n      div\n        /* \"#utility.yul\":11288:11310   */\n      swap1\n      pop\n        /* \"#utility.yul\":11355:11356   */\n      0x01\n        /* \"#utility.yul\":11349:11353   */\n      dup3\n        /* \"#utility.yul\":11345:11357   */\n      and\n        /* \"#utility.yul\":11376:11394   */\n      dup1\n        /* \"#utility.yul\":11366:11447   */\n      tag_408\n      jumpi\n        /* \"#utility.yul\":11432:11436   */\n      0x7f\n        /* \"#utility.yul\":11424:11430   */\n      dup3\n        /* \"#utility.yul\":11420:11437   */\n      and\n        /* \"#utility.yul\":11410:11437   */\n      swap2\n      pop\n        /* \"#utility.yul\":11366:11447   */\n    tag_408:\n        /* \"#utility.yul\":11494:11496   */\n      0x20\n        /* \"#utility.yul\":11486:11492   */\n      dup3\n        /* \"#utility.yul\":11483:11497   */\n      lt\n        /* \"#utility.yul\":11463:11481   */\n      dup2\n        /* \"#utility.yul\":11460:11498   */\n      sub\n        /* \"#utility.yul\":11457:11541   */\n      tag_409\n      jumpi\n        /* \"#utility.yul\":11513:11531   */\n      tag_410\n      tag_262\n      jump\t// in\n    tag_410:\n        /* \"#utility.yul\":11457:11541   */\n    tag_409:\n        /* \"#utility.yul\":11278:11547   */\n      pop\n        /* \"#utility.yul\":11227:11547   */\n      swap2\n      swap1\n      pop\n      jump\t// out\n        /* \"#utility.yul\":11553:11733   */\n    tag_263:\n        /* \"#utility.yul\":11601:11678   */\n      0x4e487b7100000000000000000000000000000000000000000000000000000000\n        /* \"#utility.yul\":11598:11599   */\n      0x00\n        /* \"#utility.yul\":11591:11679   */\n      mstore\n        /* \"#utility.yul\":11698:11702   */\n      0x11\n        /* \"#utility.yul\":11695:11696   */\n      0x04\n        /* \"#utility.yul\":11688:11703   */\n      mstore\n        /* \"#utility.yul\":11722:11726   */\n      0x24\n        /* \"#utility.yul\":11719:11720   */\n      0x00\n        /* \"#utility.yul\":11712:11727   */\n      revert\n        /* \"#utility.yul\":11739:11906   */\n    tag_118:\n        /* \"#utility.yul\":11776:11779   */\n      0x00\n        /* \"#utility.yul\":11799:11821   */\n      tag_413\n        /* \"#utility.yul\":11815:11820   */\n      dup3\n        /* \"#utility.yul\":11799:11821   */\n      tag_258\n      jump\t// in\n    tag_413:\n        /* \"#utility.yul\":11790:11821   */\n      swap2\n      pop\n        /* \"#utility.yul\":11843:11847   */\n      0xff\n        /* \"#utility.yul\":11836:11841   */\n      dup3\n        /* \"#utility.yul\":11833:11848   */\n      sub\n        /* \"#utility.yul\":11830:11871   */\n      tag_414\n      jumpi\n        /* \"#utility.yul\":11851:11869   */\n      tag_415\n      tag_263\n      jump\t// in\n    tag_415:\n        /* \"#utility.yul\":11830:11871   */\n    tag_414:\n        /* \"#utility.yul\":11898:11899   */\n      0x01\n        /* \"#utility.yul\":11891:11896   */\n      dup3\n        /* \"#utility.yul\":11887:11900   */\n      add\n        /* \"#utility.yul\":11880:11900   */\n      swap1\n      pop\n        /* \"#utility.yul\":11739:11906   */\n      swap2\n      swap1\n      pop\n      jump\t// out\n        /* \"#utility.yul\":11912:12146   */\n    tag_264:\n        /* \"#utility.yul\":12052:12086   */\n      0x45524332303a3a204d696e7420616d6f756e742073686f756c64206265206772\n        /* \"#utility.yul\":12048:12049   */\n      0x00\n        /* \"#utility.yul\":12040:12046   */\n      dup3\n        /* \"#utility.yul\":12036:12050   */\n      add\n        /* \"#utility.yul\":12029:12087   */\n      mstore\n        /* \"#utility.yul\":12121:12138   */\n      0x6561746572207468616e207a65726f0000000000000000000000000000000000\n        /* \"#utility.yul\":12116:12118   */\n      0x20\n        /* \"#utility.yul\":12108:12114   */\n      dup3\n        /* \"#utility.yul\":12104:12119   */\n      add\n        /* \"#utility.yul\":12097:12139   */\n      mstore\n        /* \"#utility.yul\":11912:12146   */\n      pop\n      jump\t// out\n        /* \"#utility.yul\":12152:12518   */\n    tag_265:\n        /* \"#utility.yul\":12294:12297   */\n      0x00\n        /* \"#utility.yul\":12315:12382   */\n      tag_418\n        /* \"#utility.yul\":12379:12381   */\n      0x2f\n        /* \"#utility.yul\":12374:12377   */\n      dup4\n        /* \"#utility.yul\":12315:12382   */\n      tag_248\n      jump\t// in\n    tag_418:\n        /* \"#utility.yul\":12308:12382   */\n      swap2\n      pop\n        /* \"#utility.yul\":12391:12484   */\n      tag_419\n        /* \"#utility.yul\":12480:12483   */\n      dup3\n        /* \"#utility.yul\":12391:12484   */\n      tag_264\n      jump\t// in\n    tag_419:\n        /* \"#utility.yul\":12509:12511   */\n      0x40\n        /* \"#utility.yul\":12504:12507   */\n      dup3\n        /* \"#utility.yul\":12500:12512   */\n      add\n        /* \"#utility.yul\":12493:12512   */\n      swap1\n      pop\n        /* \"#utility.yul\":12152:12518   */\n      swap2\n      swap1\n      pop\n      jump\t// out\n        /* \"#utility.yul\":12524:12943   */\n    tag_126:\n        /* \"#utility.yul\":12690:12694   */\n      0x00\n        /* \"#utility.yul\":12728:12730   */\n      0x20\n        /* \"#utility.yul\":12717:12726   */\n      dup3\n        /* \"#utility.yul\":12713:12731   */\n      add\n        /* \"#utility.yul\":12705:12731   */\n      swap1\n      pop\n        /* \"#utility.yul\":12777:12786   */\n      dup2\n        /* \"#utility.yul\":12771:12775   */\n      dup2\n        /* \"#utility.yul\":12767:12787   */\n      sub\n        /* \"#utility.yul\":12763:12764   */\n      0x00\n        /* \"#utility.yul\":12752:12761   */\n      dup4\n        /* \"#utility.yul\":12748:12765   */\n      add\n        /* \"#utility.yul\":12741:12788   */\n      mstore\n        /* \"#utility.yul\":12805:12936   */\n      tag_421\n        /* \"#utility.yul\":12931:12935   */\n      dup2\n        /* \"#utility.yul\":12805:12936   */\n      tag_265\n      jump\t// in\n    tag_421:\n        /* \"#utility.yul\":12797:12936   */\n      swap1\n      pop\n        /* \"#utility.yul\":12524:12943   */\n      swap2\n      swap1\n      pop\n      jump\t// out\n        /* \"#utility.yul\":12949:13184   */\n    tag_266:\n        /* \"#utility.yul\":13089:13123   */\n      0x45524332303a3a20757365722073686f756c64206e6f7420626520657175616c\n        /* \"#utility.yul\":13085:13086   */\n      0x00\n        /* \"#utility.yul\":13077:13083   */\n      dup3\n        /* \"#utility.yul\":13073:13087   */\n      add\n        /* \"#utility.yul\":13066:13124   */\n      mstore\n        /* \"#utility.yul\":13158:13176   */\n      0x20746f2061646472657373207a65726f00000000000000000000000000000000\n        /* \"#utility.yul\":13153:13155   */\n      0x20\n        /* \"#utility.yul\":13145:13151   */\n      dup3\n        /* \"#utility.yul\":13141:13156   */\n      add\n        /* \"#utility.yul\":13134:13177   */\n      mstore\n        /* \"#utility.yul\":12949:13184   */\n      pop\n      jump\t// out\n        /* \"#utility.yul\":13190:13556   */\n    tag_267:\n        /* \"#utility.yul\":13332:13335   */\n      0x00\n        /* \"#utility.yul\":13353:13420   */\n      tag_424\n        /* \"#utility.yul\":13417:13419   */\n      0x30\n        /* \"#utility.yul\":13412:13415   */\n      dup4\n        /* \"#utility.yul\":13353:13420   */\n      tag_248\n      jump\t// in\n    tag_424:\n        /* \"#utility.yul\":13346:13420   */\n      swap2\n      pop\n        /* \"#utility.yul\":13429:13522   */\n      tag_425\n        /* \"#utility.yul\":13518:13521   */\n      dup3\n        /* \"#utility.yul\":13429:13522   */\n      tag_266\n      jump\t// in\n    tag_425:\n        /* \"#utility.yul\":13547:13549   */\n      0x40\n        /* \"#utility.yul\":13542:13545   */\n      dup3\n        /* \"#utility.yul\":13538:13550   */\n      add\n        /* \"#utility.yul\":13531:13550   */\n      swap1\n      pop\n        /* \"#utility.yul\":13190:13556   */\n      swap2\n      swap1\n      pop\n      jump\t// out\n        /* \"#utility.yul\":13562:13981   */\n    tag_129:\n        /* \"#utility.yul\":13728:13732   */\n      0x00\n        /* \"#utility.yul\":13766:13768   */\n      0x20\n        /* \"#utility.yul\":13755:13764   */\n      dup3\n        /* \"#utility.yul\":13751:13769   */\n      add\n        /* \"#utility.yul\":13743:13769   */\n      swap1\n      pop\n        /* \"#utility.yul\":13815:13824   */\n      dup2\n        /* \"#utility.yul\":13809:13813   */\n      dup2\n        /* \"#utility.yul\":13805:13825   */\n      sub\n        /* \"#utility.yul\":13801:13802   */\n      0x00\n        /* \"#utility.yul\":13790:13799   */\n      dup4\n        /* \"#utility.yul\":13786:13803   */\n      add\n        /* \"#utility.yul\":13779:13826   */\n      mstore\n        /* \"#utility.yul\":13843:13974   */\n      tag_427\n        /* \"#utility.yul\":13969:13973   */\n      dup2\n        /* \"#utility.yul\":13843:13974   */\n      tag_267\n      jump\t// in\n    tag_427:\n        /* \"#utility.yul\":13835:13974   */\n      swap1\n      pop\n        /* \"#utility.yul\":13562:13981   */\n      swap2\n      swap1\n      pop\n      jump\t// out\n        /* \"#utility.yul\":13987:14128   */\n    tag_268:\n        /* \"#utility.yul\":14036:14040   */\n      0x00\n        /* \"#utility.yul\":14059:14062   */\n      dup2\n        /* \"#utility.yul\":14051:14062   */\n      swap1\n      pop\n        /* \"#utility.yul\":14082:14085   */\n      dup2\n        /* \"#utility.yul\":14079:14080   */\n      0x00\n        /* \"#utility.yul\":14072:14086   */\n      mstore\n        /* \"#utility.yul\":14116:14120   */\n      0x20\n        /* \"#utility.yul\":14113:14114   */\n      0x00\n        /* \"#utility.yul\":14103:14121   */\n      keccak256\n        /* \"#utility.yul\":14095:14121   */\n      swap1\n      pop\n        /* \"#utility.yul\":13987:14128   */\n      swap2\n      swap1\n      pop\n      jump\t// out\n        /* \"#utility.yul\":14134:14227   */\n    tag_269:\n        /* \"#utility.yul\":14171:14177   */\n      0x00\n        /* \"#utility.yul\":14218:14220   */\n      0x20\n        /* \"#utility.yul\":14213:14215   */\n      0x1f\n        /* \"#utility.yul\":14206:14211   */\n      dup4\n        /* \"#utility.yul\":14202:14216   */\n      add\n        /* \"#utility.yul\":14198:14221   */\n      div\n        /* \"#utility.yul\":14188:14221   */\n      swap1\n      pop\n        /* \"#utility.yul\":14134:14227   */\n      swap2\n      swap1\n      pop\n      jump\t// out\n        /* \"#utility.yul\":14233:14340   */\n    tag_270:\n        /* \"#utility.yul\":14277:14285   */\n      0x00\n        /* \"#utility.yul\":14327:14332   */\n      dup3\n        /* \"#utility.yul\":14321:14325   */\n      dup3\n        /* \"#utility.yul\":14317:14333   */\n      shl\n        /* \"#utility.yul\":14296:14333   */\n      swap1\n      pop\n        /* \"#utility.yul\":14233:14340   */\n      swap3\n      swap2\n      pop\n      pop\n      jump\t// out\n        /* \"#utility.yul\":14346:14739   */\n    tag_271:\n        /* \"#utility.yul\":14415:14421   */\n      0x00\n        /* \"#utility.yul\":14465:14466   */\n      0x08\n        /* \"#utility.yul\":14453:14463   */\n      dup4\n        /* \"#utility.yul\":14449:14467   */\n      mul\n        /* \"#utility.yul\":14488:14585   */\n      tag_432\n        /* \"#utility.yul\":14518:14584   */\n      0xffffffffffffffffffffffffffffffffffffffffffffffffffffffffffffffff\n        /* \"#utility.yul\":14507:14516   */\n      dup3\n        /* \"#utility.yul\":14488:14585   */\n      tag_270\n      jump\t// in\n    tag_432:\n        /* \"#utility.yul\":14606:14645   */\n      tag_433\n        /* \"#utility.yul\":14636:14644   */\n      dup7\n        /* \"#utility.yul\":14625:14634   */\n      dup4\n        /* \"#utility.yul\":14606:14645   */\n      tag_270\n      jump\t// in\n    tag_433:\n        /* \"#utility.yul\":14594:14645   */\n      swap6\n      pop\n        /* \"#utility.yul\":14678:14682   */\n      dup1\n        /* \"#utility.yul\":14674:14683   */\n      not\n        /* \"#utility.yul\":14667:14672   */\n      dup5\n        /* \"#utility.yul\":14663:14684   */\n      and\n        /* \"#utility.yul\":14654:14684   */\n      swap4\n      pop\n        /* \"#utility.yul\":14727:14731   */\n      dup1\n        /* \"#utility.yul\":14717:14725   */\n      dup7\n        /* \"#utility.yul\":14713:14732   */\n      and\n        /* \"#utility.yul\":14706:14711   */\n      dup5\n        /* \"#utility.yul\":14703:14733   */\n      or\n        /* \"#utility.yul\":14693:14733   */\n      swap3\n      pop\n        /* \"#utility.yul\":14422:14739   */\n      pop\n      pop\n        /* \"#utility.yul\":14346:14739   */\n      swap4\n      swap3\n      pop\n      pop\n      pop\n      jump\t// out\n        /* \"#utility.yul\":14745:14805   */\n    tag_272:\n        /* \"#utility.yul\":14773:14776   */\n      0x00\n        /* \"#utility.yul\":14794:14799   */\n      dup2\n        /* \"#utility.yul\":14787:14799   */\n      swap1\n      pop\n        /* \"#utility.yul\":14745:14805   */\n      swap2\n      swap1\n      pop\n      jump\t// out\n        /* \"#utility.yul\":14811:14953   */\n    tag_273:\n        /* \"#utility.yul\":14861:14870   */\n      0x00\n        /* \"#utility.yul\":14894:14947   */\n      tag_436\n        /* \"#utility.yul\":14912:14946   */\n      tag_437\n        /* \"#utility.yul\":14921:14945   */\n      tag_438\n        /* \"#utility.yul\":14939:14944   */\n      dup5\n        /* \"#utility.yul\":14921:14945   */\n      tag_242\n      jump\t// in\n    tag_438:\n        /* \"#utility.yul\":14912:14946   */\n      tag_272\n      jump\t// in\n    tag_437:\n        /* \"#utility.yul\":14894:14947   */\n      tag_242\n      jump\t// in\n    tag_436:\n        /* \"#utility.yul\":14881:14947   */\n      swap1\n      pop\n        /* \"#utility.yul\":14811:14953   */\n      swap2\n      swap1\n      pop\n      jump\t// out\n        /* \"#utility.yul\":14959:15034   */\n    tag_274:\n        /* \"#utility.yul\":15002:15005   */\n      0x00\n        /* \"#utility.yul\":15023:15028   */\n      dup2\n        /* \"#utility.yul\":15016:15028   */\n      swap1\n      pop\n        /* \"#utility.yul\":14959:15034   */\n      swap2\n      swap1\n      pop\n      jump\t// out\n        /* \"#utility.yul\":15040:15309   */\n    tag_275:\n        /* \"#utility.yul\":15150:15189   */\n      tag_441\n        /* \"#utility.yul\":15181:15188   */\n      dup4\n        /* \"#utility.yul\":15150:15189   */\n      tag_273\n      jump\t// in\n    tag_441:\n        /* \"#utility.yul\":15211:15302   */\n      tag_442\n        /* \"#utility.yul\":15260:15301   */\n      tag_443\n        /* \"#utility.yul\":15284:15300   */\n      dup3\n        /* \"#utility.yul\":15260:15301   */\n      tag_274\n      jump\t// in\n    tag_443:\n        /* \"#utility.yul\":15252:15258   */\n      dup5\n        /* \"#utility.yul\":15245:15249   */\n      dup5\n        /* \"#utility.yul\":15239:15250   */\n      sload\n        /* \"#utility.yul\":15211:15302   */\n      tag_271\n      jump\t// in\n    tag_442:\n        /* \"#utility.yul\":15205:15209   */\n      dup3\n        /* \"#utility.yul\":15198:15303   */\n      sstore\n        /* \"#utility.yul\":15116:15309   */\n      pop\n        /* \"#utility.yul\":15040:15309   */\n      pop\n      pop\n      pop\n      jump\t// out\n        /* \"#utility.yul\":15315:15388   */\n    tag_276:\n        /* \"#utility.yul\":15360:15363   */\n      0x00\n        /* \"#utility.yul\":15315:15388   */\n      swap1\n      jump\t// out\n        /* \"#utility.yul\":15394:15583   */\n    tag_277:\n        /* \"#utility.yul\":15471:15503   */\n      tag_446\n      tag_276\n      jump\t// in\n    tag_446:\n        /* \"#utility.yul\":15512:15577   */\n      tag_447\n        /* \"#utility.yul\":15570:15576   */\n      dup2\n        /* \"#utility.yul\":15562:15568   */\n      dup5\n        /* \"#utility.yul\":15556:15560   */\n      dup5\n        /* \"#utility.yul\":15512:15577   */\n      tag_275\n      jump\t// in\n    tag_447:\n        /* \"#utility.yul\":15447:15583   */\n      pop\n        /* \"#utility.yul\":15394:15583   */\n      pop\n      pop\n      jump\t// out\n        /* \"#utility.yul\":15589:15775   */\n    tag_278:\n        /* \"#utility.yul\":15649:15769   */\n    tag_449:\n        /* \"#utility.yul\":15666:15669   */\n      dup2\n        /* \"#utility.yul\":15659:15664   */\n      dup2\n        /* \"#utility.yul\":15656:15670   */\n      lt\n        /* \"#utility.yul\":15649:15769   */\n      iszero\n      tag_451\n      jumpi\n        /* \"#utility.yul\":15720:15759   */\n      tag_452\n        /* \"#utility.yul\":15757:15758   */\n      0x00\n        /* \"#utility.yul\":15750:15755   */\n      dup3\n        /* \"#utility.yul\":15720:15759   */\n      tag_277\n      jump\t// in\n    tag_452:\n        /* \"#utility.yul\":15693:15694   */\n      0x01\n        /* \"#utility.yul\":15686:15691   */\n      dup2\n        /* \"#utility.yul\":15682:15695   */\n      add\n        /* \"#utility.yul\":15673:15695   */\n      swap1\n      pop\n        /* \"#utility.yul\":15649:15769   */\n      jump(tag_449)\n    tag_451:\n        /* \"#utility.yul\":15589:15775   */\n      pop\n      pop\n      jump\t// out\n        /* \"#utility.yul\":15781:16324   */\n    tag_279:\n        /* \"#utility.yul\":15882:15884   */\n      0x1f\n        /* \"#utility.yul\":15877:15880   */\n      dup3\n        /* \"#utility.yul\":15874:15885   */\n      gt\n        /* \"#utility.yul\":15871:16317   */\n      iszero\n      tag_454\n      jumpi\n        /* \"#utility.yul\":15916:15954   */\n      tag_455\n        /* \"#utility.yul\":15948:15953   */\n      dup2\n        /* \"#utility.yul\":15916:15954   */\n      tag_268\n      jump\t// in\n    tag_455:\n        /* \"#utility.yul\":16000:16029   */\n      tag_456\n        /* \"#utility.yul\":16018:16028   */\n      dup5\n        /* \"#utility.yul\":16000:16029   */\n      tag_269\n      jump\t// in\n    tag_456:\n        /* \"#utility.yul\":15990:15998   */\n      dup2\n        /* \"#utility.yul\":15986:16030   */\n      add\n        /* \"#utility.yul\":16183:16185   */\n      0x20\n        /* \"#utility.yul\":16171:16181   */\n      dup6\n        /* \"#utility.yul\":16168:16186   */\n      lt\n        /* \"#utility.yul\":16165:16214   */\n      iszero\n      tag_457\n      jumpi\n        /* \"#utility.yul\":16204:16212   */\n      dup2\n        /* \"#utility.yul\":16189:16212   */\n      swap1\n      pop\n        /* \"#utility.yul\":16165:16214   */\n    tag_457:\n        /* \"#utility.yul\":16227:16307   */\n      tag_458\n        /* \"#utility.yul\":16283:16305   */\n      tag_459\n        /* \"#utility.yul\":16301:16304   */\n      dup6\n        /* \"#utility.yul\":16283:16305   */\n      tag_269\n      jump\t// in\n    tag_459:\n        /* \"#utility.yul\":16273:16281   */\n      dup4\n        /* \"#utility.yul\":16269:16306   */\n      add\n        /* \"#utility.yul\":16256:16267   */\n      dup3\n        /* \"#utility.yul\":16227:16307   */\n      tag_278\n      jump\t// in\n    tag_458:\n        /* \"#utility.yul\":15886:16317   */\n      pop\n      pop\n        /* \"#utility.yul\":15871:16317   */\n    tag_454:\n        /* \"#utility.yul\":15781:16324   */\n      pop\n      pop\n      pop\n      jump\t// out\n        /* \"#utility.yul\":16330:16447   */\n    tag_280:\n        /* \"#utility.yul\":16384:16392   */\n      0x00\n        /* \"#utility.yul\":16434:16439   */\n      dup3\n        /* \"#utility.yul\":16428:16432   */\n      dup3\n        /* \"#utility.yul\":16424:16440   */\n      shr\n        /* \"#utility.yul\":16403:16440   */\n      swap1\n      pop\n        /* \"#utility.yul\":16330:16447   */\n      swap3\n      swap2\n      pop\n      pop\n      jump\t// out\n        /* \"#utility.yul\":16453:16622   */\n    tag_281:\n        /* \"#utility.yul\":16497:16503   */\n      0x00\n        /* \"#utility.yul\":16530:16581   */\n      tag_462\n        /* \"#utility.yul\":16578:16579   */\n      0x00\n        /* \"#utility.yul\":16574:16580   */\n      not\n        /* \"#utility.yul\":16566:16571   */\n      dup5\n        /* \"#utility.yul\":16563:16564   */\n      0x08\n        /* \"#utility.yul\":16559:16572   */\n      mul\n        /* \"#utility.yul\":16530:16581   */\n      tag_280\n      jump\t// in\n    tag_462:\n        /* \"#utility.yul\":16526:16582   */\n      not\n        /* \"#utility.yul\":16611:16615   */\n      dup1\n        /* \"#utility.yul\":16605:16609   */\n      dup4\n        /* \"#utility.yul\":16601:16616   */\n      and\n        /* \"#utility.yul\":16591:16616   */\n      swap2\n      pop\n        /* \"#utility.yul\":16504:16622   */\n      pop\n        /* \"#utility.yul\":16453:16622   */\n      swap3\n      swap2\n      pop\n      pop\n      jump\t// out\n        /* \"#utility.yul\":16627:16922   */\n    tag_282:\n        /* \"#utility.yul\":16703:16707   */\n      0x00\n        /* \"#utility.yul\":16849:16878   */\n      tag_464\n        /* \"#utility.yul\":16874:16877   */\n      dup4\n        /* \"#utility.yul\":16868:16872   */\n      dup4\n        /* \"#utility.yul\":16849:16878   */\n      tag_281\n      jump\t// in\n    tag_464:\n        /* \"#utility.yul\":16841:16878   */\n      swap2\n      pop\n        /* \"#utility.yul\":16911:16914   */\n      dup3\n        /* \"#utility.yul\":16908:16909   */\n      0x02\n        /* \"#utility.yul\":16904:16915   */\n      mul\n        /* \"#utility.yul\":16898:16902   */\n      dup3\n        /* \"#utility.yul\":16895:16916   */\n      or\n        /* \"#utility.yul\":16887:16916   */\n      swap1\n      pop\n        /* \"#utility.yul\":16627:16922   */\n      swap3\n      swap2\n      pop\n      pop\n      jump\t// out\n        /* \"#utility.yul\":16927:18322   */\n    tag_194:\n        /* \"#utility.yul\":17044:17081   */\n      tag_466\n        /* \"#utility.yul\":17077:17080   */\n      dup3\n        /* \"#utility.yul\":17044:17081   */\n      tag_247\n      jump\t// in\n    tag_466:\n        /* \"#utility.yul\":17146:17164   */\n      0xffffffffffffffff\n        /* \"#utility.yul\":17138:17144   */\n      dup2\n        /* \"#utility.yul\":17135:17165   */\n      gt\n        /* \"#utility.yul\":17132:17188   */\n      iszero\n      tag_467\n      jumpi\n        /* \"#utility.yul\":17168:17186   */\n      tag_468\n      tag_235\n      jump\t// in\n    tag_468:\n        /* \"#utility.yul\":17132:17188   */\n    tag_467:\n        /* \"#utility.yul\":17212:17250   */\n      tag_469\n        /* \"#utility.yul\":17244:17248   */\n      dup3\n        /* \"#utility.yul\":17238:17249   */\n      sload\n        /* \"#utility.yul\":17212:17250   */\n      tag_103\n      jump\t// in\n    tag_469:\n        /* \"#utility.yul\":17297:17364   */\n      tag_470\n        /* \"#utility.yul\":17357:17363   */\n      dup3\n        /* \"#utility.yul\":17349:17355   */\n      dup3\n        /* \"#utility.yul\":17343:17347   */\n      dup6\n        /* \"#utility.yul\":17297:17364   */\n      tag_279\n      jump\t// in\n    tag_470:\n        /* \"#utility.yul\":17391:17392   */\n      0x00\n        /* \"#utility.yul\":17415:17419   */\n      0x20\n        /* \"#utility.yul\":17402:17419   */\n      swap1\n      pop\n        /* \"#utility.yul\":17447:17449   */\n      0x1f\n        /* \"#utility.yul\":17439:17445   */\n      dup4\n        /* \"#utility.yul\":17436:17450   */\n      gt\n        /* \"#utility.yul\":17464:17465   */\n      0x01\n        /* \"#utility.yul\":17459:18077   */\n      dup2\n      eq\n      tag_472\n      jumpi\n        /* \"#utility.yul\":18121:18122   */\n      0x00\n        /* \"#utility.yul\":18138:18144   */\n      dup5\n        /* \"#utility.yul\":18135:18212   */\n      iszero\n      tag_473\n      jumpi\n        /* \"#utility.yul\":18187:18196   */\n      dup3\n        /* \"#utility.yul\":18182:18185   */\n      dup8\n        /* \"#utility.yul\":18178:18197   */\n      add\n        /* \"#utility.yul\":18172:18198   */\n      mload\n        /* \"#utility.yul\":18163:18198   */\n      swap1\n      pop\n        /* \"#utility.yul\":18135:18212   */\n    tag_473:\n        /* \"#utility.yul\":18238:18305   */\n      tag_474\n        /* \"#utility.yul\":18298:18304   */\n      dup6\n        /* \"#utility.yul\":18291:18296   */\n      dup3\n        /* \"#utility.yul\":18238:18305   */\n      tag_282\n      jump\t// in\n    tag_474:\n        /* \"#utility.yul\":18232:18236   */\n      dup7\n        /* \"#utility.yul\":18225:18306   */\n      sstore\n        /* \"#utility.yul\":18094:18316   */\n      pop\n        /* \"#utility.yul\":17429:18316   */\n      jump(tag_471)\n        /* \"#utility.yul\":17459:18077   */\n    tag_472:\n        /* \"#utility.yul\":17511:17515   */\n      0x1f\n        /* \"#utility.yul\":17507:17516   */\n      not\n        /* \"#utility.yul\":17499:17505   */\n      dup5\n        /* \"#utility.yul\":17495:17517   */\n      and\n        /* \"#utility.yul\":17545:17582   */\n      tag_475\n        /* \"#utility.yul\":17577:17581   */\n      dup7\n        /* \"#utility.yul\":17545:17582   */\n      tag_268\n      jump\t// in\n    tag_475:\n        /* \"#utility.yul\":17604:17605   */\n      0x00\n        /* \"#utility.yul\":17618:17826   */\n    tag_476:\n        /* \"#utility.yul\":17632:17639   */\n      dup3\n        /* \"#utility.yul\":17629:17630   */\n      dup2\n        /* \"#utility.yul\":17626:17640   */\n      lt\n        /* \"#utility.yul\":17618:17826   */\n      iszero\n      tag_478\n      jumpi\n        /* \"#utility.yul\":17711:17720   */\n      dup5\n        /* \"#utility.yul\":17706:17709   */\n      dup10\n        /* \"#utility.yul\":17702:17721   */\n      add\n        /* \"#utility.yul\":17696:17722   */\n      mload\n        /* \"#utility.yul\":17688:17694   */\n      dup3\n        /* \"#utility.yul\":17681:17723   */\n      sstore\n        /* \"#utility.yul\":17762:17763   */\n      0x01\n        /* \"#utility.yul\":17754:17760   */\n      dup3\n        /* \"#utility.yul\":17750:17764   */\n      add\n        /* \"#utility.yul\":17740:17764   */\n      swap2\n      pop\n        /* \"#utility.yul\":17809:17811   */\n      0x20\n        /* \"#utility.yul\":17798:17807   */\n      dup6\n        /* \"#utility.yul\":17794:17812   */\n      add\n        /* \"#utility.yul\":17781:17812   */\n      swap5\n      pop\n        /* \"#utility.yul\":17655:17659   */\n      0x20\n        /* \"#utility.yul\":17652:17653   */\n      dup2\n        /* \"#utility.yul\":17648:17660   */\n      add\n        /* \"#utility.yul\":17643:17660   */\n      swap1\n      pop\n        /* \"#utility.yul\":17618:17826   */\n      jump(tag_476)\n    tag_478:\n        /* \"#utility.yul\":17854:17860   */\n      dup7\n        /* \"#utility.yul\":17845:17852   */\n      dup4\n        /* \"#utility.yul\":17842:17861   */\n      lt\n        /* \"#utility.yul\":17839:18018   */\n      iszero\n      tag_479\n      jumpi\n        /* \"#utility.yul\":17912:17921   */\n      dup5\n        /* \"#utility.yul\":17907:17910   */\n      dup10\n        /* \"#utility.yul\":17903:17922   */\n      add\n        /* \"#utility.yul\":17897:17923   */\n      mload\n        /* \"#utility.yul\":17955:18003   */\n      tag_480\n        /* \"#utility.yul\":17997:18001   */\n      0x1f\n        /* \"#utility.yul\":17989:17995   */\n      dup10\n        /* \"#utility.yul\":17985:18002   */\n      and\n        /* \"#utility.yul\":17974:17983   */\n      dup3\n        /* \"#utility.yul\":17955:18003   */\n      tag_281\n      jump\t// in\n    tag_480:\n        /* \"#utility.yul\":17947:17953   */\n      dup4\n        /* \"#utility.yul\":17940:18004   */\n      sstore\n        /* \"#utility.yul\":17862:18018   */\n      pop\n        /* \"#utility.yul\":17839:18018   */\n    tag_479:\n        /* \"#utility.yul\":18064:18065   */\n      0x01\n        /* \"#utility.yul\":18060:18061   */\n      0x02\n        /* \"#utility.yul\":18052:18058   */\n      dup9\n        /* \"#utility.yul\":18048:18062   */\n      mul\n        /* \"#utility.yul\":18044:18066   */\n      add\n        /* \"#utility.yul\":18038:18042   */\n      dup9\n        /* \"#utility.yul\":18031:18067   */\n      sstore\n        /* \"#utility.yul\":17466:18077   */\n      pop\n      pop\n      pop\n        /* \"#utility.yul\":17429:18316   */\n    tag_471:\n      pop\n        /* \"#utility.yul\":17019:18322   */\n      pop\n      pop\n      pop\n        /* \"#utility.yul\":16927:18322   */\n      pop\n      pop\n      jump\t// out\n        /* \"#utility.yul\":18328:18770   */\n    tag_203:\n        /* \"#utility.yul\":18477:18481   */\n      0x00\n        /* \"#utility.yul\":18515:18517   */\n      0x60\n        /* \"#utility.yul\":18504:18513   */\n      dup3\n        /* \"#utility.yul\":18500:18518   */\n      add\n        /* \"#utility.yul\":18492:18518   */\n      swap1\n      pop\n        /* \"#utility.yul\":18528:18599   */\n      tag_482\n        /* \"#utility.yul\":18596:18597   */\n      0x00\n        /* \"#utility.yul\":18585:18594   */\n      dup4\n        /* \"#utility.yul\":18581:18598   */\n      add\n        /* \"#utility.yul\":18572:18578   */\n      dup7\n        /* \"#utility.yul\":18528:18599   */\n      tag_246\n      jump\t// in\n    tag_482:\n        /* \"#utility.yul\":18609:18681   */\n      tag_483\n        /* \"#utility.yul\":18677:18679   */\n      0x20\n        /* \"#utility.yul\":18666:18675   */\n      dup4\n        /* \"#utility.yul\":18662:18680   */\n      add\n        /* \"#utility.yul\":18653:18659   */\n      dup6\n        /* \"#utility.yul\":18609:18681   */\n      tag_243\n      jump\t// in\n    tag_483:\n        /* \"#utility.yul\":18691:18763   */\n      tag_484\n        /* \"#utility.yul\":18759:18761   */\n      0x40\n        /* \"#utility.yul\":18748:18757   */\n      dup4\n        /* \"#utility.yul\":18744:18762   */\n      add\n        /* \"#utility.yul\":18735:18741   */\n      dup5\n        /* \"#utility.yul\":18691:18763   */\n      tag_243\n      jump\t// in\n    tag_484:\n        /* \"#utility.yul\":18328:18770   */\n      swap5\n      swap4\n      pop\n      pop\n      pop\n      pop\n      jump\t// out\n        /* \"#utility.yul\":18776:18967   */\n    tag_222:\n        /* \"#utility.yul\":18816:18819   */\n      0x00\n        /* \"#utility.yul\":18835:18855   */\n      tag_486\n        /* \"#utility.yul\":18853:18854   */\n      dup3\n        /* \"#utility.yul\":18835:18855   */\n      tag_242\n      jump\t// in\n    tag_486:\n        /* \"#utility.yul\":18830:18855   */\n      swap2\n      pop\n        /* \"#utility.yul\":18869:18889   */\n      tag_487\n        /* \"#utility.yul\":18887:18888   */\n      dup4\n        /* \"#utility.yul\":18869:18889   */\n      tag_242\n      jump\t// in\n    tag_487:\n        /* \"#utility.yul\":18864:18889   */\n      swap3\n      pop\n        /* \"#utility.yul\":18912:18913   */\n      dup3\n        /* \"#utility.yul\":18909:18910   */\n      dup3\n        /* \"#utility.yul\":18905:18914   */\n      add\n        /* \"#utility.yul\":18898:18914   */\n      swap1\n      pop\n        /* \"#utility.yul\":18933:18936   */\n      dup1\n        /* \"#utility.yul\":18930:18931   */\n      dup3\n        /* \"#utility.yul\":18927:18937   */\n      gt\n        /* \"#utility.yul\":18924:18960   */\n      iszero\n      tag_488\n      jumpi\n        /* \"#utility.yul\":18940:18958   */\n      tag_489\n      tag_263\n      jump\t// in\n    tag_489:\n        /* \"#utility.yul\":18924:18960   */\n    tag_488:\n        /* \"#utility.yul\":18776:18967   */\n      swap3\n      swap2\n      pop\n      pop\n      jump\t// out\n\n    auxdata: 0xa26469706673582212206450326d6301f11c7aeaea3e8c40415bf3275534eabb48f14040b771269226ad64736f6c63430008130033\n}\n",
				"bytecode": {
					"linkReferences": {},
					"object": "60806040526040518060400160405280600d81526020017f465249454e445f46414d494c5900000000000000000000000000000000000000815250600690816200004a9190620010f3565b506000600760006101000a81548160ff021916908360ff1602179055503480156200007457600080fd5b50604051620036143803806200361483398181016040528101906200009a91906200133e565b3382828160039081620000ae9190620010f3565b508060049081620000c09190620010f3565b505050600073ffffffffffffffffffffffffffffffffffffffff168173ffffffffffffffffffffffffffffffffffffffff1603620001385760006040517f1e4fbdf70000000000000000000000000000000000000000000000000000000081526004016200012f919062001408565b60405180910390fd5b62000149816200016360201b60201c565b506200015b336200022960201b60201c565b5050620016d1565b6000600560009054906101000a900473ffffffffffffffffffffffffffffffffffffffff16905081600560006101000a81548173ffffffffffffffffffffffffffffffffffffffff021916908373ffffffffffffffffffffffffffffffffffffffff1602179055508173ffffffffffffffffffffffffffffffffffffffff168173ffffffffffffffffffffffffffffffffffffffff167f8be0079c531659141344cd1fd0a4f28419497f9722a3daafe3b4186f6b6457e060405160405180910390a35050565b6200027e60016040518060400160405280600d81526020017f465249454e445f46414d494c5900000000000000000000000000000000000000815250836a09ed194db19b238c000000620005e360201b60201c565b620002d360026040518060400160405280600c81526020017f505249564154455f53414c450000000000000000000000000000000000000000815250836a13da329b63364718000000620005e360201b60201c565b6200032860036040518060400160405280600b81526020017f5055424c49435f53414c45000000000000000000000000000000000000000000815250836a13da329b63364718000000620005e360201b60201c565b6200037d60046040518060400160405280600481526020017f5445414d00000000000000000000000000000000000000000000000000000000815250836a2116545850052128000000620005e360201b60201c565b620003d260056040518060400160405280600881526020017f5245534552564553000000000000000000000000000000000000000000000000815250836a52b7d2dcc80cd2e4000000620005e360201b60201c565b6200042760066040518060400160405280601a81526020017f53544f524147455f4d494e54494e475f414c4c4f434154494f4e000000000000815250836a2116545850052128000000620005e360201b60201c565b6200047c60076040518060400160405280600d81526020017f4752414e54535f52455741524400000000000000000000000000000000000000815250836a422ca8b0a00a4250000000620005e360201b60201c565b620004d160086040518060400160405280600a81526020017f4d41524b455454494e4700000000000000000000000000000000000000000000815250836a2116545850052128000000620005e360201b60201c565b6200052660096040518060400160405280600881526020017f41445649534f5253000000000000000000000000000000000000000000000000815250836a09ed194db19b238c000000620005e360201b60201c565b6200057b600a6040518060400160405280601a81526020017f4c49515549444954595f45584348414e47455f4c495354494e47000000000000815250836a108b2a2c28029094000000620005e360201b60201c565b620005d0600b6040518060400160405280600781526020017f5354414b494e4700000000000000000000000000000000000000000000000000815250836a069e10de76676d08000000620005e360201b60201c565b620005e0620006c260201b60201c565b50565b82600a60008660ff16815260200190815260200160002060000190816200060b9190620010f3565b5080600a60008660ff16815260200190815260200160002060010160006101000a81548173ffffffffffffffffffffffffffffffffffffffff021916908373ffffffffffffffffffffffffffffffffffffffff16021790555081600a60008660ff16815260200190815260200160002060020160006101000a81548173ffffffffffffffffffffffffffffffffffffffff021916908373ffffffffffffffffffffffffffffffffffffffff16021790555050505050565b620006d2620009b460201b60201c565b60006007600081819054906101000a900460ff16620006f19062001461565b91906101000a81548160ff021916908360ff160217905590506000600a60008360ff1681526020019081526020016000206040518060600160405290816000820180546200073f9062000ee2565b80601f01602080910402602001604051908101604052809291908181526020018280546200076d9062000ee2565b8015620007be5780601f106200079257610100808354040283529160200191620007be565b820191906000526020600020905b815481529060010190602001808311620007a057829003601f168201915b505050505081526020016001820160009054906101000a900473ffffffffffffffffffffffffffffffffffffffff1673ffffffffffffffffffffffffffffffffffffffff1673ffffffffffffffffffffffffffffffffffffffff1681526020016002820160009054906101000a900473ffffffffffffffffffffffffffffffffffffffff1673ffffffffffffffffffffffffffffffffffffffff1673ffffffffffffffffffffffffffffffffffffffff168152505090506000816020015173ffffffffffffffffffffffffffffffffffffffff1611620008d5576040517f08c379a0000000000000000000000000000000000000000000000000000000008152600401620008cc9062001516565b60405180910390fd5b600073ffffffffffffffffffffffffffffffffffffffff16816040015173ffffffffffffffffffffffffffffffffffffffff16036200094b576040517f08c379a00000000000000000000000000000000000000000000000000000000081526004016200094290620015ae565b60405180910390fd5b6200097b8160400151826020015173ffffffffffffffffffffffffffffffffffffffff1662000a5660201b60201c565b620009b081600001518260400151836020015173ffffffffffffffffffffffffffffffffffffffff1662000ae360201b60201c565b5050565b620009c462000c1760201b60201c565b73ffffffffffffffffffffffffffffffffffffffff16620009ea62000c1f60201b60201c565b73ffffffffffffffffffffffffffffffffffffffff161462000a545762000a1662000c1760201b60201c565b6040517f118cdaa700000000000000000000000000000000000000000000000000000000815260040162000a4b919062001408565b60405180910390fd5b565b600073ffffffffffffffffffffffffffffffffffffffff168273ffffffffffffffffffffffffffffffffffffffff160362000acb5760006040517fec442f0500000000000000000000000000000000000000000000000000000000815260040162000ac2919062001408565b60405180910390fd5b62000adf6000838362000c4960201b60201c565b5050565b826006908162000af49190620010f3565b508160088460405162000b08919062001612565b908152602001604051809103902060006101000a81548173ffffffffffffffffffffffffffffffffffffffff021916908373ffffffffffffffffffffffffffffffffffffffff1602179055508060098460405162000b67919062001612565b908152602001604051809103902060008473ffffffffffffffffffffffffffffffffffffffff1673ffffffffffffffffffffffffffffffffffffffff168152602001908152602001600020819055508173ffffffffffffffffffffffffffffffffffffffff16818460405162000bde919062001612565b60405180910390207f42e47c5f4ef490fa970d56126f2584efc00f3485d64635df2e3d0f587d4211b760405160405180910390a4505050565b600033905090565b6000600560009054906101000a900473ffffffffffffffffffffffffffffffffffffffff16905090565b600073ffffffffffffffffffffffffffffffffffffffff168373ffffffffffffffffffffffffffffffffffffffff160362000c9f57806002600082825462000c9291906200162b565b9250508190555062000d75565b60008060008573ffffffffffffffffffffffffffffffffffffffff1673ffffffffffffffffffffffffffffffffffffffff1681526020019081526020016000205490508181101562000d2e578381836040517fe450d38c00000000000000000000000000000000000000000000000000000000815260040162000d259392919062001677565b60405180910390fd5b8181036000808673ffffffffffffffffffffffffffffffffffffffff1673ffffffffffffffffffffffffffffffffffffffff16815260200190815260200160002081905550505b600073ffffffffffffffffffffffffffffffffffffffff168273ffffffffffffffffffffffffffffffffffffffff160362000dc0578060026000828254039250508190555062000e0d565b806000808473ffffffffffffffffffffffffffffffffffffffff1673ffffffffffffffffffffffffffffffffffffffff168152602001908152602001600020600082825401925050819055505b8173ffffffffffffffffffffffffffffffffffffffff168373ffffffffffffffffffffffffffffffffffffffff167fddf252ad1be2c89b69c2b068fc378daa952ba7f163c4a11628f55a4df523b3ef8360405162000e6c9190620016b4565b60405180910390a3505050565b600081519050919050565b7f4e487b7100000000000000000000000000000000000000000000000000000000600052604160045260246000fd5b7f4e487b7100000000000000000000000000000000000000000000000000000000600052602260045260246000fd5b6000600282049050600182168062000efb57607f821691505b60208210810362000f115762000f1062000eb3565b5b50919050565b60008190508160005260206000209050919050565b60006020601f8301049050919050565b600082821b905092915050565b60006008830262000f7b7fffffffffffffffffffffffffffffffffffffffffffffffffffffffffffffffff8262000f3c565b62000f87868362000f3c565b95508019841693508086168417925050509392505050565b6000819050919050565b6000819050919050565b600062000fd462000fce62000fc88462000f9f565b62000fa9565b62000f9f565b9050919050565b6000819050919050565b62000ff08362000fb3565b6200100862000fff8262000fdb565b84845462000f49565b825550505050565b600090565b6200101f62001010565b6200102c81848462000fe5565b505050565b5b8181101562001054576200104860008262001015565b60018101905062001032565b5050565b601f821115620010a3576200106d8162000f17565b620010788462000f2c565b8101602085101562001088578190505b620010a0620010978562000f2c565b83018262001031565b50505b505050565b600082821c905092915050565b6000620010c860001984600802620010a8565b1980831691505092915050565b6000620010e38383620010b5565b9150826002028217905092915050565b620010fe8262000e79565b67ffffffffffffffff8111156200111a576200111962000e84565b5b62001126825462000ee2565b6200113382828562001058565b600060209050601f8311600181146200116b576000841562001156578287015190505b620011628582620010d5565b865550620011d2565b601f1984166200117b8662000f17565b60005b82811015620011a5578489015182556001820191506020850194506020810190506200117e565b86831015620011c55784890151620011c1601f891682620010b5565b8355505b6001600288020188555050505b505050505050565b6000604051905090565b600080fd5b600080fd5b600080fd5b600080fd5b6000601f19601f8301169050919050565b6200121482620011f8565b810181811067ffffffffffffffff8211171562001236576200123562000e84565b5b80604052505050565b60006200124b620011da565b905062001259828262001209565b919050565b600067ffffffffffffffff8211156200127c576200127b62000e84565b5b6200128782620011f8565b9050602081019050919050565b60005b83811015620012b457808201518184015260208101905062001297565b60008484015250505050565b6000620012d7620012d1846200125e565b6200123f565b905082815260208101848484011115620012f657620012f5620011f3565b5b6200130384828562001294565b509392505050565b600082601f830112620013235762001322620011ee565b5b815162001335848260208601620012c0565b91505092915050565b60008060408385031215620013585762001357620011e4565b5b600083015167ffffffffffffffff811115620013795762001378620011e9565b5b62001387858286016200130b565b925050602083015167ffffffffffffffff811115620013ab57620013aa620011e9565b5b620013b9858286016200130b565b9150509250929050565b600073ffffffffffffffffffffffffffffffffffffffff82169050919050565b6000620013f082620013c3565b9050919050565b6200140281620013e3565b82525050565b60006020820190506200141f6000830184620013f7565b92915050565b7f4e487b7100000000000000000000000000000000000000000000000000000000600052601160045260246000fd5b600060ff82169050919050565b60006200146e8262001454565b915060ff820362001484576200148362001425565b5b600182019050919050565b600082825260208201905092915050565b7f45524332303a3a204d696e7420616d6f756e742073686f756c6420626520677260008201527f6561746572207468616e207a65726f0000000000000000000000000000000000602082015250565b6000620014fe602f836200148f565b91506200150b82620014a0565b604082019050919050565b600060208201905081810360008301526200153181620014ef565b9050919050565b7f45524332303a3a20757365722073686f756c64206e6f7420626520657175616c60008201527f20746f2061646472657373207a65726f00000000000000000000000000000000602082015250565b6000620015966030836200148f565b9150620015a38262001538565b604082019050919050565b60006020820190508181036000830152620015c98162001587565b9050919050565b600081905092915050565b6000620015e88262000e79565b620015f48185620015d0565b93506200160681856020860162001294565b80840191505092915050565b6000620016208284620015db565b915081905092915050565b6000620016388262000f9f565b9150620016458362000f9f565b925082820190508082111562001660576200165f62001425565b5b92915050565b620016718162000f9f565b82525050565b60006060820190506200168e6000830186620013f7565b6200169d602083018562001666565b620016ac604083018462001666565b949350505050565b6000602082019050620016cb600083018462001666565b92915050565b611f3380620016e16000396000f3fe608060405234801561001057600080fd5b50600436106101165760003560e01c806370a08231116100a257806395d89b411161007157806395d89b41146102d6578063a9059cbb146102f4578063dd62ed3e14610324578063f2fde38b14610354578063f3d22d381461037057610116565b806370a0823114610260578063715018a6146102905780638da5cb5b1461029a578063944df045146102b857610116565b806318160ddd116100e957806318160ddd146101a45780632240166d146101c257806323b872dd146101f4578063313ce567146102245780634c0f38c21461024257610116565b8063060a9aeb1461011b57806306fdde031461014c578063095ea7b31461016a5780631249c58b1461019a575b600080fd5b610135600480360381019061013091906115e8565b61038e565b60405161014392919061168b565b60405180910390f35b610154610441565b6040516101619190611733565b60405180910390f35b610184600480360381019061017f91906117ad565b6104d3565b6040516101919190611808565b60405180910390f35b6101a26104f6565b005b6101ac6107c0565b6040516101b99190611823565b60405180910390f35b6101dc60048036038101906101d7919061183e565b6107ca565b6040516101eb9392919061187a565b60405180910390f35b61020e600480360381019061020991906118b8565b6108bc565b60405161021b9190611808565b60405180910390f35b61022c6108eb565b6040516102399190611927565b60405180910390f35b61024a6108f4565b6040516102579190611942565b60405180910390f35b61027a6004803603810190610275919061195d565b610908565b6040516102879190611823565b60405180910390f35b610298610950565b005b6102a2610964565b6040516102af919061198a565b60405180910390f35b6102c061098e565b6040516102cd9190611733565b60405180910390f35b6102de610a20565b6040516102eb9190611733565b60405180910390f35b61030e600480360381019061030991906117ad565b610ab2565b60405161031b9190611808565b60405180910390f35b61033e600480360381019061033991906119a5565b610ad5565b60405161034b9190611823565b60405180910390f35b61036e6004803603810190610369919061195d565b610b5c565b005b610378610be2565b6040516103859190611927565b60405180910390f35b60008060006008846040516103a39190611a21565b908152602001604051809103902060009054906101000a900473ffffffffffffffffffffffffffffffffffffffff16905060006009856040516103e69190611a21565b908152602001604051809103902060008373ffffffffffffffffffffffffffffffffffffffff1673ffffffffffffffffffffffffffffffffffffffff1681526020019081526020016000205490508082935093505050915091565b60606003805461045090611a67565b80601f016020809104026020016040519081016040528092919081815260200182805461047c90611a67565b80156104c95780601f1061049e576101008083540402835291602001916104c9565b820191906000526020600020905b8154815290600101906020018083116104ac57829003601f168201915b5050505050905090565b6000806104de610bf5565b90506104eb818585610bfd565b600191505092915050565b6104fe610c0f565b60006007600081819054906101000a900460ff1661051b90611ac7565b91906101000a81548160ff021916908360ff160217905590506000600a60008360ff16815260200190815260200160002060405180606001604052908160008201805461056790611a67565b80601f016020809104026020016040519081016040528092919081815260200182805461059390611a67565b80156105e05780601f106105b5576101008083540402835291602001916105e0565b820191906000526020600020905b8154815290600101906020018083116105c357829003601f168201915b505050505081526020016001820160009054906101000a900473ffffffffffffffffffffffffffffffffffffffff1673ffffffffffffffffffffffffffffffffffffffff1673ffffffffffffffffffffffffffffffffffffffff1681526020016002820160009054906101000a900473ffffffffffffffffffffffffffffffffffffffff1673ffffffffffffffffffffffffffffffffffffffff1673ffffffffffffffffffffffffffffffffffffffff168152505090506000816020015173ffffffffffffffffffffffffffffffffffffffff16116106f4576040517f08c379a00000000000000000000000000000000000000000000000000000000081526004016106eb90611b62565b60405180910390fd5b600073ffffffffffffffffffffffffffffffffffffffff16816040015173ffffffffffffffffffffffffffffffffffffffff1603610767576040517f08c379a000000000000000000000000000000000000000000000000000000000815260040161075e90611bf4565b60405180910390fd5b61078f8160400151826020015173ffffffffffffffffffffffffffffffffffffffff16610c96565b6107bc81600001518260400151836020015173ffffffffffffffffffffffffffffffffffffffff16610d18565b5050565b6000600254905090565b600a6020528060005260406000206000915090508060000180546107ed90611a67565b80601f016020809104026020016040519081016040528092919081815260200182805461081990611a67565b80156108665780601f1061083b57610100808354040283529160200191610866565b820191906000526020600020905b81548152906001019060200180831161084957829003601f168201915b5050505050908060010160009054906101000a900473ffffffffffffffffffffffffffffffffffffffff16908060020160009054906101000a900473ffffffffffffffffffffffffffffffffffffffff16905083565b6000806108c7610bf5565b90506108d4858285610e44565b6108df858585610ed8565b60019150509392505050565b60006012905090565b60006b014adf4b7320334b90000000905090565b60008060008373ffffffffffffffffffffffffffffffffffffffff1673ffffffffffffffffffffffffffffffffffffffff168152602001908152602001600020549050919050565b610958610c0f565b6109626000610fcc565b565b6000600560009054906101000a900473ffffffffffffffffffffffffffffffffffffffff16905090565b60606006805461099d90611a67565b80601f01602080910402602001604051908101604052809291908181526020018280546109c990611a67565b8015610a165780601f106109eb57610100808354040283529160200191610a16565b820191906000526020600020905b8154815290600101906020018083116109f957829003601f168201915b5050505050905090565b606060048054610a2f90611a67565b80601f0160208091040260200160405190810160405280929190818152602001828054610a5b90611a67565b8015610aa85780601f10610a7d57610100808354040283529160200191610aa8565b820191906000526020600020905b815481529060010190602001808311610a8b57829003601f168201915b5050505050905090565b600080610abd610bf5565b9050610aca818585610ed8565b600191505092915050565b6000600160008473ffffffffffffffffffffffffffffffffffffffff1673ffffffffffffffffffffffffffffffffffffffff16815260200190815260200160002060008373ffffffffffffffffffffffffffffffffffffffff1673ffffffffffffffffffffffffffffffffffffffff16815260200190815260200160002054905092915050565b610b64610c0f565b600073ffffffffffffffffffffffffffffffffffffffff168173ffffffffffffffffffffffffffffffffffffffff1603610bd65760006040517f1e4fbdf7000000000000000000000000000000000000000000000000000000008152600401610bcd919061198a565b60405180910390fd5b610bdf81610fcc565b50565b600760009054906101000a900460ff1681565b600033905090565b610c0a8383836001611092565b505050565b610c17610bf5565b73ffffffffffffffffffffffffffffffffffffffff16610c35610964565b73ffffffffffffffffffffffffffffffffffffffff1614610c9457610c58610bf5565b6040517f118cdaa7000000000000000000000000000000000000000000000000000000008152600401610c8b919061198a565b60405180910390fd5b565b600073ffffffffffffffffffffffffffffffffffffffff168273ffffffffffffffffffffffffffffffffffffffff1603610d085760006040517fec442f05000000000000000000000000000000000000000000000000000000008152600401610cff919061198a565b60405180910390fd5b610d1460008383611269565b5050565b8260069081610d279190611dc0565b5081600884604051610d399190611a21565b908152602001604051809103902060006101000a81548173ffffffffffffffffffffffffffffffffffffffff021916908373ffffffffffffffffffffffffffffffffffffffff16021790555080600984604051610d969190611a21565b908152602001604051809103902060008473ffffffffffffffffffffffffffffffffffffffff1673ffffffffffffffffffffffffffffffffffffffff168152602001908152602001600020819055508173ffffffffffffffffffffffffffffffffffffffff168184604051610e0b9190611a21565b60405180910390207f42e47c5f4ef490fa970d56126f2584efc00f3485d64635df2e3d0f587d4211b760405160405180910390a4505050565b6000610e508484610ad5565b90507fffffffffffffffffffffffffffffffffffffffffffffffffffffffffffffffff8114610ed25781811015610ec2578281836040517ffb8f41b2000000000000000000000000000000000000000000000000000000008152600401610eb993929190611e92565b60405180910390fd5b610ed184848484036000611092565b5b50505050565b600073ffffffffffffffffffffffffffffffffffffffff168373ffffffffffffffffffffffffffffffffffffffff1603610f4a5760006040517f96c6fd1e000000000000000000000000000000000000000000000000000000008152600401610f41919061198a565b60405180910390fd5b600073ffffffffffffffffffffffffffffffffffffffff168273ffffffffffffffffffffffffffffffffffffffff1603610fbc5760006040517fec442f05000000000000000000000000000000000000000000000000000000008152600401610fb3919061198a565b60405180910390fd5b610fc7838383611269565b505050565b6000600560009054906101000a900473ffffffffffffffffffffffffffffffffffffffff16905081600560006101000a81548173ffffffffffffffffffffffffffffffffffffffff021916908373ffffffffffffffffffffffffffffffffffffffff1602179055508173ffffffffffffffffffffffffffffffffffffffff168173ffffffffffffffffffffffffffffffffffffffff167f8be0079c531659141344cd1fd0a4f28419497f9722a3daafe3b4186f6b6457e060405160405180910390a35050565b600073ffffffffffffffffffffffffffffffffffffffff168473ffffffffffffffffffffffffffffffffffffffff16036111045760006040517fe602df050000000000000000000000000000000000000000000000000000000081526004016110fb919061198a565b60405180910390fd5b600073ffffffffffffffffffffffffffffffffffffffff168373ffffffffffffffffffffffffffffffffffffffff16036111765760006040517f94280d6200000000000000000000000000000000000000000000000000000000815260040161116d919061198a565b60405180910390fd5b81600160008673ffffffffffffffffffffffffffffffffffffffff1673ffffffffffffffffffffffffffffffffffffffff16815260200190815260200160002060008573ffffffffffffffffffffffffffffffffffffffff1673ffffffffffffffffffffffffffffffffffffffff168152602001908152602001600020819055508015611263578273ffffffffffffffffffffffffffffffffffffffff168473ffffffffffffffffffffffffffffffffffffffff167f8c5be1e5ebec7d5bd14f71427d1e84f3dd0314c0f7b2291e5b200ac8c7c3b9258460405161125a9190611823565b60405180910390a35b50505050565b600073ffffffffffffffffffffffffffffffffffffffff168373ffffffffffffffffffffffffffffffffffffffff16036112bb5780600260008282546112af9190611ec9565b9250508190555061138e565b60008060008573ffffffffffffffffffffffffffffffffffffffff1673ffffffffffffffffffffffffffffffffffffffff16815260200190815260200160002054905081811015611347578381836040517fe450d38c00000000000000000000000000000000000000000000000000000000815260040161133e93929190611e92565b60405180910390fd5b8181036000808673ffffffffffffffffffffffffffffffffffffffff1673ffffffffffffffffffffffffffffffffffffffff16815260200190815260200160002081905550505b600073ffffffffffffffffffffffffffffffffffffffff168273ffffffffffffffffffffffffffffffffffffffff16036113d75780600260008282540392505081905550611424565b806000808473ffffffffffffffffffffffffffffffffffffffff1673ffffffffffffffffffffffffffffffffffffffff168152602001908152602001600020600082825401925050819055505b8173ffffffffffffffffffffffffffffffffffffffff168373ffffffffffffffffffffffffffffffffffffffff167fddf252ad1be2c89b69c2b068fc378daa952ba7f163c4a11628f55a4df523b3ef836040516114819190611823565b60405180910390a3505050565b6000604051905090565b600080fd5b600080fd5b600080fd5b600080fd5b6000601f19601f8301169050919050565b7f4e487b7100000000000000000000000000000000000000000000000000000000600052604160045260246000fd5b6114f5826114ac565b810181811067ffffffffffffffff82111715611514576115136114bd565b5b80604052505050565b600061152761148e565b905061153382826114ec565b919050565b600067ffffffffffffffff821115611553576115526114bd565b5b61155c826114ac565b9050602081019050919050565b82818337600083830152505050565b600061158b61158684611538565b61151d565b9050828152602081018484840111156115a7576115a66114a7565b5b6115b2848285611569565b509392505050565b600082601f8301126115cf576115ce6114a2565b5b81356115df848260208601611578565b91505092915050565b6000602082840312156115fe576115fd611498565b5b600082013567ffffffffffffffff81111561161c5761161b61149d565b5b611628848285016115ba565b91505092915050565b6000819050919050565b61164481611631565b82525050565b600073ffffffffffffffffffffffffffffffffffffffff82169050919050565b60006116758261164a565b9050919050565b6116858161166a565b82525050565b60006040820190506116a0600083018561163b565b6116ad602083018461167c565b9392505050565b600081519050919050565b600082825260208201905092915050565b60005b838110156116ee5780820151818401526020810190506116d3565b60008484015250505050565b6000611705826116b4565b61170f81856116bf565b935061171f8185602086016116d0565b611728816114ac565b840191505092915050565b6000602082019050818103600083015261174d81846116fa565b905092915050565b61175e8161166a565b811461176957600080fd5b50565b60008135905061177b81611755565b92915050565b61178a81611631565b811461179557600080fd5b50565b6000813590506117a781611781565b92915050565b600080604083850312156117c4576117c3611498565b5b60006117d28582860161176c565b92505060206117e385828601611798565b9150509250929050565b60008115159050919050565b611802816117ed565b82525050565b600060208201905061181d60008301846117f9565b92915050565b6000602082019050611838600083018461163b565b92915050565b60006020828403121561185457611853611498565b5b600061186284828501611798565b91505092915050565b6118748161164a565b82525050565b6000606082019050818103600083015261189481866116fa565b90506118a3602083018561186b565b6118b0604083018461167c565b949350505050565b6000806000606084860312156118d1576118d0611498565b5b60006118df8682870161176c565b93505060206118f08682870161176c565b925050604061190186828701611798565b9150509250925092565b600060ff82169050919050565b6119218161190b565b82525050565b600060208201905061193c6000830184611918565b92915050565b6000602082019050611957600083018461186b565b92915050565b60006020828403121561197357611972611498565b5b60006119818482850161176c565b91505092915050565b600060208201905061199f600083018461167c565b92915050565b600080604083850312156119bc576119bb611498565b5b60006119ca8582860161176c565b92505060206119db8582860161176c565b9150509250929050565b600081905092915050565b60006119fb826116b4565b611a0581856119e5565b9350611a158185602086016116d0565b80840191505092915050565b6000611a2d82846119f0565b915081905092915050565b7f4e487b7100000000000000000000000000000000000000000000000000000000600052602260045260246000fd5b60006002820490506001821680611a7f57607f821691505b602082108103611a9257611a91611a38565b5b50919050565b7f4e487b7100000000000000000000000000000000000000000000000000000000600052601160045260246000fd5b6000611ad28261190b565b915060ff8203611ae557611ae4611a98565b5b600182019050919050565b7f45524332303a3a204d696e7420616d6f756e742073686f756c6420626520677260008201527f6561746572207468616e207a65726f0000000000000000000000000000000000602082015250565b6000611b4c602f836116bf565b9150611b5782611af0565b604082019050919050565b60006020820190508181036000830152611b7b81611b3f565b9050919050565b7f45524332303a3a20757365722073686f756c64206e6f7420626520657175616c60008201527f20746f2061646472657373207a65726f00000000000000000000000000000000602082015250565b6000611bde6030836116bf565b9150611be982611b82565b604082019050919050565b60006020820190508181036000830152611c0d81611bd1565b9050919050565b60008190508160005260206000209050919050565b60006020601f8301049050919050565b600082821b905092915050565b600060088302611c767fffffffffffffffffffffffffffffffffffffffffffffffffffffffffffffffff82611c39565b611c808683611c39565b95508019841693508086168417925050509392505050565b6000819050919050565b6000611cbd611cb8611cb384611631565b611c98565b611631565b9050919050565b6000819050919050565b611cd783611ca2565b611ceb611ce382611cc4565b848454611c46565b825550505050565b600090565b611d00611cf3565b611d0b818484611cce565b505050565b5b81811015611d2f57611d24600082611cf8565b600181019050611d11565b5050565b601f821115611d7457611d4581611c14565b611d4e84611c29565b81016020851015611d5d578190505b611d71611d6985611c29565b830182611d10565b50505b505050565b600082821c905092915050565b6000611d9760001984600802611d79565b1980831691505092915050565b6000611db08383611d86565b9150826002028217905092915050565b611dc9826116b4565b67ffffffffffffffff811115611de257611de16114bd565b5b611dec8254611a67565b611df7828285611d33565b600060209050601f831160018114611e2a5760008415611e18578287015190505b611e228582611da4565b865550611e8a565b601f198416611e3886611c14565b60005b82811015611e6057848901518255600182019150602085019450602081019050611e3b565b86831015611e7d5784890151611e79601f891682611d86565b8355505b6001600288020188555050505b505050505050565b6000606082019050611ea7600083018661167c565b611eb4602083018561163b565b611ec1604083018461163b565b949350505050565b6000611ed482611631565b9150611edf83611631565b9250828201905080821115611ef757611ef6611a98565b5b9291505056fea26469706673582212206450326d6301f11c7aeaea3e8c40415bf3275534eabb48f14040b771269226ad64736f6c63430008130033",
					"opcodes": "PUSH1 0x80 PUSH1 0x40 MSTORE PUSH1 0x40 MLOAD DUP1 PUSH1 0x40 ADD PUSH1 0x40 MSTORE DUP1 PUSH1 0xD DUP2 MSTORE PUSH1 0x20 ADD PUSH32 0x465249454E445F46414D494C5900000000000000000000000000000000000000 DUP2 MSTORE POP PUSH1 0x6 SWAP1 DUP2 PUSH3 0x4A SWAP2 SWAP1 PUSH3 0x10F3 JUMP JUMPDEST POP PUSH1 0x0 PUSH1 0x7 PUSH1 0x0 PUSH2 0x100 EXP DUP2 SLOAD DUP2 PUSH1 0xFF MUL NOT AND SWAP1 DUP4 PUSH1 0xFF AND MUL OR SWAP1 SSTORE POP CALLVALUE DUP1 ISZERO PUSH3 0x74 JUMPI PUSH1 0x0 DUP1 REVERT JUMPDEST POP PUSH1 0x40 MLOAD PUSH3 0x3614 CODESIZE SUB DUP1 PUSH3 0x3614 DUP4 CODECOPY DUP2 DUP2 ADD PUSH1 0x40 MSTORE DUP2 ADD SWAP1 PUSH3 0x9A SWAP2 SWAP1 PUSH3 0x133E JUMP JUMPDEST CALLER DUP3 DUP3 DUP2 PUSH1 0x3 SWAP1 DUP2 PUSH3 0xAE SWAP2 SWAP1 PUSH3 0x10F3 JUMP JUMPDEST POP DUP1 PUSH1 0x4 SWAP1 DUP2 PUSH3 0xC0 SWAP2 SWAP1 PUSH3 0x10F3 JUMP JUMPDEST POP POP POP PUSH1 0x0 PUSH20 0xFFFFFFFFFFFFFFFFFFFFFFFFFFFFFFFFFFFFFFFF AND DUP2 PUSH20 0xFFFFFFFFFFFFFFFFFFFFFFFFFFFFFFFFFFFFFFFF AND SUB PUSH3 0x138 JUMPI PUSH1 0x0 PUSH1 0x40 MLOAD PUSH32 0x1E4FBDF700000000000000000000000000000000000000000000000000000000 DUP2 MSTORE PUSH1 0x4 ADD PUSH3 0x12F SWAP2 SWAP1 PUSH3 0x1408 JUMP JUMPDEST PUSH1 0x40 MLOAD DUP1 SWAP2 SUB SWAP1 REVERT JUMPDEST PUSH3 0x149 DUP2 PUSH3 0x163 PUSH1 0x20 SHL PUSH1 0x20 SHR JUMP JUMPDEST POP PUSH3 0x15B CALLER PUSH3 0x229 PUSH1 0x20 SHL PUSH1 0x20 SHR JUMP JUMPDEST POP POP PUSH3 0x16D1 JUMP JUMPDEST PUSH1 0x0 PUSH1 0x5 PUSH1 0x0 SWAP1 SLOAD SWAP1 PUSH2 0x100 EXP SWAP1 DIV PUSH20 0xFFFFFFFFFFFFFFFFFFFFFFFFFFFFFFFFFFFFFFFF AND SWAP1 POP DUP2 PUSH1 0x5 PUSH1 0x0 PUSH2 0x100 EXP DUP2 SLOAD DUP2 PUSH20 0xFFFFFFFFFFFFFFFFFFFFFFFFFFFFFFFFFFFFFFFF MUL NOT AND SWAP1 DUP4 PUSH20 0xFFFFFFFFFFFFFFFFFFFFFFFFFFFFFFFFFFFFFFFF AND MUL OR SWAP1 SSTORE POP DUP2 PUSH20 0xFFFFFFFFFFFFFFFFFFFFFFFFFFFFFFFFFFFFFFFF AND DUP2 PUSH20 0xFFFFFFFFFFFFFFFFFFFFFFFFFFFFFFFFFFFFFFFF AND PUSH32 0x8BE0079C531659141344CD1FD0A4F28419497F9722A3DAAFE3B4186F6B6457E0 PUSH1 0x40 MLOAD PUSH1 0x40 MLOAD DUP1 SWAP2 SUB SWAP1 LOG3 POP POP JUMP JUMPDEST PUSH3 0x27E PUSH1 0x1 PUSH1 0x40 MLOAD DUP1 PUSH1 0x40 ADD PUSH1 0x40 MSTORE DUP1 PUSH1 0xD DUP2 MSTORE PUSH1 0x20 ADD PUSH32 0x465249454E445F46414D494C5900000000000000000000000000000000000000 DUP2 MSTORE POP DUP4 PUSH11 0x9ED194DB19B238C000000 PUSH3 0x5E3 PUSH1 0x20 SHL PUSH1 0x20 SHR JUMP JUMPDEST PUSH3 0x2D3 PUSH1 0x2 PUSH1 0x40 MLOAD DUP1 PUSH1 0x40 ADD PUSH1 0x40 MSTORE DUP1 PUSH1 0xC DUP2 MSTORE PUSH1 0x20 ADD PUSH32 0x505249564154455F53414C450000000000000000000000000000000000000000 DUP2 MSTORE POP DUP4 PUSH11 0x13DA329B63364718000000 PUSH3 0x5E3 PUSH1 0x20 SHL PUSH1 0x20 SHR JUMP JUMPDEST PUSH3 0x328 PUSH1 0x3 PUSH1 0x40 MLOAD DUP1 PUSH1 0x40 ADD PUSH1 0x40 MSTORE DUP1 PUSH1 0xB DUP2 MSTORE PUSH1 0x20 ADD PUSH32 0x5055424C49435F53414C45000000000000000000000000000000000000000000 DUP2 MSTORE POP DUP4 PUSH11 0x13DA329B63364718000000 PUSH3 0x5E3 PUSH1 0x20 SHL PUSH1 0x20 SHR JUMP JUMPDEST PUSH3 0x37D PUSH1 0x4 PUSH1 0x40 MLOAD DUP1 PUSH1 0x40 ADD PUSH1 0x40 MSTORE DUP1 PUSH1 0x4 DUP2 MSTORE PUSH1 0x20 ADD PUSH32 0x5445414D00000000000000000000000000000000000000000000000000000000 DUP2 MSTORE POP DUP4 PUSH11 0x2116545850052128000000 PUSH3 0x5E3 PUSH1 0x20 SHL PUSH1 0x20 SHR JUMP JUMPDEST PUSH3 0x3D2 PUSH1 0x5 PUSH1 0x40 MLOAD DUP1 PUSH1 0x40 ADD PUSH1 0x40 MSTORE DUP1 PUSH1 0x8 DUP2 MSTORE PUSH1 0x20 ADD PUSH32 0x5245534552564553000000000000000000000000000000000000000000000000 DUP2 MSTORE POP DUP4 PUSH11 0x52B7D2DCC80CD2E4000000 PUSH3 0x5E3 PUSH1 0x20 SHL PUSH1 0x20 SHR JUMP JUMPDEST PUSH3 0x427 PUSH1 0x6 PUSH1 0x40 MLOAD DUP1 PUSH1 0x40 ADD PUSH1 0x40 MSTORE DUP1 PUSH1 0x1A DUP2 MSTORE PUSH1 0x20 ADD PUSH32 0x53544F524147455F4D494E54494E475F414C4C4F434154494F4E000000000000 DUP2 MSTORE POP DUP4 PUSH11 0x2116545850052128000000 PUSH3 0x5E3 PUSH1 0x20 SHL PUSH1 0x20 SHR JUMP JUMPDEST PUSH3 0x47C PUSH1 0x7 PUSH1 0x40 MLOAD DUP1 PUSH1 0x40 ADD PUSH1 0x40 MSTORE DUP1 PUSH1 0xD DUP2 MSTORE PUSH1 0x20 ADD PUSH32 0x4752414E54535F52455741524400000000000000000000000000000000000000 DUP2 MSTORE POP DUP4 PUSH11 0x422CA8B0A00A4250000000 PUSH3 0x5E3 PUSH1 0x20 SHL PUSH1 0x20 SHR JUMP JUMPDEST PUSH3 0x4D1 PUSH1 0x8 PUSH1 0x40 MLOAD DUP1 PUSH1 0x40 ADD PUSH1 0x40 MSTORE DUP1 PUSH1 0xA DUP2 MSTORE PUSH1 0x20 ADD PUSH32 0x4D41524B455454494E4700000000000000000000000000000000000000000000 DUP2 MSTORE POP DUP4 PUSH11 0x2116545850052128000000 PUSH3 0x5E3 PUSH1 0x20 SHL PUSH1 0x20 SHR JUMP JUMPDEST PUSH3 0x526 PUSH1 0x9 PUSH1 0x40 MLOAD DUP1 PUSH1 0x40 ADD PUSH1 0x40 MSTORE DUP1 PUSH1 0x8 DUP2 MSTORE PUSH1 0x20 ADD PUSH32 0x41445649534F5253000000000000000000000000000000000000000000000000 DUP2 MSTORE POP DUP4 PUSH11 0x9ED194DB19B238C000000 PUSH3 0x5E3 PUSH1 0x20 SHL PUSH1 0x20 SHR JUMP JUMPDEST PUSH3 0x57B PUSH1 0xA PUSH1 0x40 MLOAD DUP1 PUSH1 0x40 ADD PUSH1 0x40 MSTORE DUP1 PUSH1 0x1A DUP2 MSTORE PUSH1 0x20 ADD PUSH32 0x4C49515549444954595F45584348414E47455F4C495354494E47000000000000 DUP2 MSTORE POP DUP4 PUSH11 0x108B2A2C28029094000000 PUSH3 0x5E3 PUSH1 0x20 SHL PUSH1 0x20 SHR JUMP JUMPDEST PUSH3 0x5D0 PUSH1 0xB PUSH1 0x40 MLOAD DUP1 PUSH1 0x40 ADD PUSH1 0x40 MSTORE DUP1 PUSH1 0x7 DUP2 MSTORE PUSH1 0x20 ADD PUSH32 0x5354414B494E4700000000000000000000000000000000000000000000000000 DUP2 MSTORE POP DUP4 PUSH11 0x69E10DE76676D08000000 PUSH3 0x5E3 PUSH1 0x20 SHL PUSH1 0x20 SHR JUMP JUMPDEST PUSH3 0x5E0 PUSH3 0x6C2 PUSH1 0x20 SHL PUSH1 0x20 SHR JUMP JUMPDEST POP JUMP JUMPDEST DUP3 PUSH1 0xA PUSH1 0x0 DUP7 PUSH1 0xFF AND DUP2 MSTORE PUSH1 0x20 ADD SWAP1 DUP2 MSTORE PUSH1 0x20 ADD PUSH1 0x0 KECCAK256 PUSH1 0x0 ADD SWAP1 DUP2 PUSH3 0x60B SWAP2 SWAP1 PUSH3 0x10F3 JUMP JUMPDEST POP DUP1 PUSH1 0xA PUSH1 0x0 DUP7 PUSH1 0xFF AND DUP2 MSTORE PUSH1 0x20 ADD SWAP1 DUP2 MSTORE PUSH1 0x20 ADD PUSH1 0x0 KECCAK256 PUSH1 0x1 ADD PUSH1 0x0 PUSH2 0x100 EXP DUP2 SLOAD DUP2 PUSH20 0xFFFFFFFFFFFFFFFFFFFFFFFFFFFFFFFFFFFFFFFF MUL NOT AND SWAP1 DUP4 PUSH20 0xFFFFFFFFFFFFFFFFFFFFFFFFFFFFFFFFFFFFFFFF AND MUL OR SWAP1 SSTORE POP DUP2 PUSH1 0xA PUSH1 0x0 DUP7 PUSH1 0xFF AND DUP2 MSTORE PUSH1 0x20 ADD SWAP1 DUP2 MSTORE PUSH1 0x20 ADD PUSH1 0x0 KECCAK256 PUSH1 0x2 ADD PUSH1 0x0 PUSH2 0x100 EXP DUP2 SLOAD DUP2 PUSH20 0xFFFFFFFFFFFFFFFFFFFFFFFFFFFFFFFFFFFFFFFF MUL NOT AND SWAP1 DUP4 PUSH20 0xFFFFFFFFFFFFFFFFFFFFFFFFFFFFFFFFFFFFFFFF AND MUL OR SWAP1 SSTORE POP POP POP POP POP JUMP JUMPDEST PUSH3 0x6D2 PUSH3 0x9B4 PUSH1 0x20 SHL PUSH1 0x20 SHR JUMP JUMPDEST PUSH1 0x0 PUSH1 0x7 PUSH1 0x0 DUP2 DUP2 SWAP1 SLOAD SWAP1 PUSH2 0x100 EXP SWAP1 DIV PUSH1 0xFF AND PUSH3 0x6F1 SWAP1 PUSH3 0x1461 JUMP JUMPDEST SWAP2 SWAP1 PUSH2 0x100 EXP DUP2 SLOAD DUP2 PUSH1 0xFF MUL NOT AND SWAP1 DUP4 PUSH1 0xFF AND MUL OR SWAP1 SSTORE SWAP1 POP PUSH1 0x0 PUSH1 0xA PUSH1 0x0 DUP4 PUSH1 0xFF AND DUP2 MSTORE PUSH1 0x20 ADD SWAP1 DUP2 MSTORE PUSH1 0x20 ADD PUSH1 0x0 KECCAK256 PUSH1 0x40 MLOAD DUP1 PUSH1 0x60 ADD PUSH1 0x40 MSTORE SWAP1 DUP2 PUSH1 0x0 DUP3 ADD DUP1 SLOAD PUSH3 0x73F SWAP1 PUSH3 0xEE2 JUMP JUMPDEST DUP1 PUSH1 0x1F ADD PUSH1 0x20 DUP1 SWAP2 DIV MUL PUSH1 0x20 ADD PUSH1 0x40 MLOAD SWAP1 DUP2 ADD PUSH1 0x40 MSTORE DUP1 SWAP3 SWAP2 SWAP1 DUP2 DUP2 MSTORE PUSH1 0x20 ADD DUP3 DUP1 SLOAD PUSH3 0x76D SWAP1 PUSH3 0xEE2 JUMP JUMPDEST DUP1 ISZERO PUSH3 0x7BE JUMPI DUP1 PUSH1 0x1F LT PUSH3 0x792 JUMPI PUSH2 0x100 DUP1 DUP4 SLOAD DIV MUL DUP4 MSTORE SWAP2 PUSH1 0x20 ADD SWAP2 PUSH3 0x7BE JUMP JUMPDEST DUP3 ADD SWAP2 SWAP1 PUSH1 0x0 MSTORE PUSH1 0x20 PUSH1 0x0 KECCAK256 SWAP1 JUMPDEST DUP2 SLOAD DUP2 MSTORE SWAP1 PUSH1 0x1 ADD SWAP1 PUSH1 0x20 ADD DUP1 DUP4 GT PUSH3 0x7A0 JUMPI DUP3 SWAP1 SUB PUSH1 0x1F AND DUP3 ADD SWAP2 JUMPDEST POP POP POP POP POP DUP2 MSTORE PUSH1 0x20 ADD PUSH1 0x1 DUP3 ADD PUSH1 0x0 SWAP1 SLOAD SWAP1 PUSH2 0x100 EXP SWAP1 DIV PUSH20 0xFFFFFFFFFFFFFFFFFFFFFFFFFFFFFFFFFFFFFFFF AND PUSH20 0xFFFFFFFFFFFFFFFFFFFFFFFFFFFFFFFFFFFFFFFF AND PUSH20 0xFFFFFFFFFFFFFFFFFFFFFFFFFFFFFFFFFFFFFFFF AND DUP2 MSTORE PUSH1 0x20 ADD PUSH1 0x2 DUP3 ADD PUSH1 0x0 SWAP1 SLOAD SWAP1 PUSH2 0x100 EXP SWAP1 DIV PUSH20 0xFFFFFFFFFFFFFFFFFFFFFFFFFFFFFFFFFFFFFFFF AND PUSH20 0xFFFFFFFFFFFFFFFFFFFFFFFFFFFFFFFFFFFFFFFF AND PUSH20 0xFFFFFFFFFFFFFFFFFFFFFFFFFFFFFFFFFFFFFFFF AND DUP2 MSTORE POP POP SWAP1 POP PUSH1 0x0 DUP2 PUSH1 0x20 ADD MLOAD PUSH20 0xFFFFFFFFFFFFFFFFFFFFFFFFFFFFFFFFFFFFFFFF AND GT PUSH3 0x8D5 JUMPI PUSH1 0x40 MLOAD PUSH32 0x8C379A000000000000000000000000000000000000000000000000000000000 DUP2 MSTORE PUSH1 0x4 ADD PUSH3 0x8CC SWAP1 PUSH3 0x1516 JUMP JUMPDEST PUSH1 0x40 MLOAD DUP1 SWAP2 SUB SWAP1 REVERT JUMPDEST PUSH1 0x0 PUSH20 0xFFFFFFFFFFFFFFFFFFFFFFFFFFFFFFFFFFFFFFFF AND DUP2 PUSH1 0x40 ADD MLOAD PUSH20 0xFFFFFFFFFFFFFFFFFFFFFFFFFFFFFFFFFFFFFFFF AND SUB PUSH3 0x94B JUMPI PUSH1 0x40 MLOAD PUSH32 0x8C379A000000000000000000000000000000000000000000000000000000000 DUP2 MSTORE PUSH1 0x4 ADD PUSH3 0x942 SWAP1 PUSH3 0x15AE JUMP JUMPDEST PUSH1 0x40 MLOAD DUP1 SWAP2 SUB SWAP1 REVERT JUMPDEST PUSH3 0x97B DUP2 PUSH1 0x40 ADD MLOAD DUP3 PUSH1 0x20 ADD MLOAD PUSH20 0xFFFFFFFFFFFFFFFFFFFFFFFFFFFFFFFFFFFFFFFF AND PUSH3 0xA56 PUSH1 0x20 SHL PUSH1 0x20 SHR JUMP JUMPDEST PUSH3 0x9B0 DUP2 PUSH1 0x0 ADD MLOAD DUP3 PUSH1 0x40 ADD MLOAD DUP4 PUSH1 0x20 ADD MLOAD PUSH20 0xFFFFFFFFFFFFFFFFFFFFFFFFFFFFFFFFFFFFFFFF AND PUSH3 0xAE3 PUSH1 0x20 SHL PUSH1 0x20 SHR JUMP JUMPDEST POP POP JUMP JUMPDEST PUSH3 0x9C4 PUSH3 0xC17 PUSH1 0x20 SHL PUSH1 0x20 SHR JUMP JUMPDEST PUSH20 0xFFFFFFFFFFFFFFFFFFFFFFFFFFFFFFFFFFFFFFFF AND PUSH3 0x9EA PUSH3 0xC1F PUSH1 0x20 SHL PUSH1 0x20 SHR JUMP JUMPDEST PUSH20 0xFFFFFFFFFFFFFFFFFFFFFFFFFFFFFFFFFFFFFFFF AND EQ PUSH3 0xA54 JUMPI PUSH3 0xA16 PUSH3 0xC17 PUSH1 0x20 SHL PUSH1 0x20 SHR JUMP JUMPDEST PUSH1 0x40 MLOAD PUSH32 0x118CDAA700000000000000000000000000000000000000000000000000000000 DUP2 MSTORE PUSH1 0x4 ADD PUSH3 0xA4B SWAP2 SWAP1 PUSH3 0x1408 JUMP JUMPDEST PUSH1 0x40 MLOAD DUP1 SWAP2 SUB SWAP1 REVERT JUMPDEST JUMP JUMPDEST PUSH1 0x0 PUSH20 0xFFFFFFFFFFFFFFFFFFFFFFFFFFFFFFFFFFFFFFFF AND DUP3 PUSH20 0xFFFFFFFFFFFFFFFFFFFFFFFFFFFFFFFFFFFFFFFF AND SUB PUSH3 0xACB JUMPI PUSH1 0x0 PUSH1 0x40 MLOAD PUSH32 0xEC442F0500000000000000000000000000000000000000000000000000000000 DUP2 MSTORE PUSH1 0x4 ADD PUSH3 0xAC2 SWAP2 SWAP1 PUSH3 0x1408 JUMP JUMPDEST PUSH1 0x40 MLOAD DUP1 SWAP2 SUB SWAP1 REVERT JUMPDEST PUSH3 0xADF PUSH1 0x0 DUP4 DUP4 PUSH3 0xC49 PUSH1 0x20 SHL PUSH1 0x20 SHR JUMP JUMPDEST POP POP JUMP JUMPDEST DUP3 PUSH1 0x6 SWAP1 DUP2 PUSH3 0xAF4 SWAP2 SWAP1 PUSH3 0x10F3 JUMP JUMPDEST POP DUP2 PUSH1 0x8 DUP5 PUSH1 0x40 MLOAD PUSH3 0xB08 SWAP2 SWAP1 PUSH3 0x1612 JUMP JUMPDEST SWAP1 DUP2 MSTORE PUSH1 0x20 ADD PUSH1 0x40 MLOAD DUP1 SWAP2 SUB SWAP1 KECCAK256 PUSH1 0x0 PUSH2 0x100 EXP DUP2 SLOAD DUP2 PUSH20 0xFFFFFFFFFFFFFFFFFFFFFFFFFFFFFFFFFFFFFFFF MUL NOT AND SWAP1 DUP4 PUSH20 0xFFFFFFFFFFFFFFFFFFFFFFFFFFFFFFFFFFFFFFFF AND MUL OR SWAP1 SSTORE POP DUP1 PUSH1 0x9 DUP5 PUSH1 0x40 MLOAD PUSH3 0xB67 SWAP2 SWAP1 PUSH3 0x1612 JUMP JUMPDEST SWAP1 DUP2 MSTORE PUSH1 0x20 ADD PUSH1 0x40 MLOAD DUP1 SWAP2 SUB SWAP1 KECCAK256 PUSH1 0x0 DUP5 PUSH20 0xFFFFFFFFFFFFFFFFFFFFFFFFFFFFFFFFFFFFFFFF AND PUSH20 0xFFFFFFFFFFFFFFFFFFFFFFFFFFFFFFFFFFFFFFFF AND DUP2 MSTORE PUSH1 0x20 ADD SWAP1 DUP2 MSTORE PUSH1 0x20 ADD PUSH1 0x0 KECCAK256 DUP2 SWAP1 SSTORE POP DUP2 PUSH20 0xFFFFFFFFFFFFFFFFFFFFFFFFFFFFFFFFFFFFFFFF AND DUP2 DUP5 PUSH1 0x40 MLOAD PUSH3 0xBDE SWAP2 SWAP1 PUSH3 0x1612 JUMP JUMPDEST PUSH1 0x40 MLOAD DUP1 SWAP2 SUB SWAP1 KECCAK256 PUSH32 0x42E47C5F4EF490FA970D56126F2584EFC00F3485D64635DF2E3D0F587D4211B7 PUSH1 0x40 MLOAD PUSH1 0x40 MLOAD DUP1 SWAP2 SUB SWAP1 LOG4 POP POP POP JUMP JUMPDEST PUSH1 0x0 CALLER SWAP1 POP SWAP1 JUMP JUMPDEST PUSH1 0x0 PUSH1 0x5 PUSH1 0x0 SWAP1 SLOAD SWAP1 PUSH2 0x100 EXP SWAP1 DIV PUSH20 0xFFFFFFFFFFFFFFFFFFFFFFFFFFFFFFFFFFFFFFFF AND SWAP1 POP SWAP1 JUMP JUMPDEST PUSH1 0x0 PUSH20 0xFFFFFFFFFFFFFFFFFFFFFFFFFFFFFFFFFFFFFFFF AND DUP4 PUSH20 0xFFFFFFFFFFFFFFFFFFFFFFFFFFFFFFFFFFFFFFFF AND SUB PUSH3 0xC9F JUMPI DUP1 PUSH1 0x2 PUSH1 0x0 DUP3 DUP3 SLOAD PUSH3 0xC92 SWAP2 SWAP1 PUSH3 0x162B JUMP JUMPDEST SWAP3 POP POP DUP2 SWAP1 SSTORE POP PUSH3 0xD75 JUMP JUMPDEST PUSH1 0x0 DUP1 PUSH1 0x0 DUP6 PUSH20 0xFFFFFFFFFFFFFFFFFFFFFFFFFFFFFFFFFFFFFFFF AND PUSH20 0xFFFFFFFFFFFFFFFFFFFFFFFFFFFFFFFFFFFFFFFF AND DUP2 MSTORE PUSH1 0x20 ADD SWAP1 DUP2 MSTORE PUSH1 0x20 ADD PUSH1 0x0 KECCAK256 SLOAD SWAP1 POP DUP2 DUP2 LT ISZERO PUSH3 0xD2E JUMPI DUP4 DUP2 DUP4 PUSH1 0x40 MLOAD PUSH32 0xE450D38C00000000000000000000000000000000000000000000000000000000 DUP2 MSTORE PUSH1 0x4 ADD PUSH3 0xD25 SWAP4 SWAP3 SWAP2 SWAP1 PUSH3 0x1677 JUMP JUMPDEST PUSH1 0x40 MLOAD DUP1 SWAP2 SUB SWAP1 REVERT JUMPDEST DUP2 DUP2 SUB PUSH1 0x0 DUP1 DUP7 PUSH20 0xFFFFFFFFFFFFFFFFFFFFFFFFFFFFFFFFFFFFFFFF AND PUSH20 0xFFFFFFFFFFFFFFFFFFFFFFFFFFFFFFFFFFFFFFFF AND DUP2 MSTORE PUSH1 0x20 ADD SWAP1 DUP2 MSTORE PUSH1 0x20 ADD PUSH1 0x0 KECCAK256 DUP2 SWAP1 SSTORE POP POP JUMPDEST PUSH1 0x0 PUSH20 0xFFFFFFFFFFFFFFFFFFFFFFFFFFFFFFFFFFFFFFFF AND DUP3 PUSH20 0xFFFFFFFFFFFFFFFFFFFFFFFFFFFFFFFFFFFFFFFF AND SUB PUSH3 0xDC0 JUMPI DUP1 PUSH1 0x2 PUSH1 0x0 DUP3 DUP3 SLOAD SUB SWAP3 POP POP DUP2 SWAP1 SSTORE POP PUSH3 0xE0D JUMP JUMPDEST DUP1 PUSH1 0x0 DUP1 DUP5 PUSH20 0xFFFFFFFFFFFFFFFFFFFFFFFFFFFFFFFFFFFFFFFF AND PUSH20 0xFFFFFFFFFFFFFFFFFFFFFFFFFFFFFFFFFFFFFFFF AND DUP2 MSTORE PUSH1 0x20 ADD SWAP1 DUP2 MSTORE PUSH1 0x20 ADD PUSH1 0x0 KECCAK256 PUSH1 0x0 DUP3 DUP3 SLOAD ADD SWAP3 POP POP DUP2 SWAP1 SSTORE POP JUMPDEST DUP2 PUSH20 0xFFFFFFFFFFFFFFFFFFFFFFFFFFFFFFFFFFFFFFFF AND DUP4 PUSH20 0xFFFFFFFFFFFFFFFFFFFFFFFFFFFFFFFFFFFFFFFF AND PUSH32 0xDDF252AD1BE2C89B69C2B068FC378DAA952BA7F163C4A11628F55A4DF523B3EF DUP4 PUSH1 0x40 MLOAD PUSH3 0xE6C SWAP2 SWAP1 PUSH3 0x16B4 JUMP JUMPDEST PUSH1 0x40 MLOAD DUP1 SWAP2 SUB SWAP1 LOG3 POP POP POP JUMP JUMPDEST PUSH1 0x0 DUP2 MLOAD SWAP1 POP SWAP2 SWAP1 POP JUMP JUMPDEST PUSH32 0x4E487B7100000000000000000000000000000000000000000000000000000000 PUSH1 0x0 MSTORE PUSH1 0x41 PUSH1 0x4 MSTORE PUSH1 0x24 PUSH1 0x0 REVERT JUMPDEST PUSH32 0x4E487B7100000000000000000000000000000000000000000000000000000000 PUSH1 0x0 MSTORE PUSH1 0x22 PUSH1 0x4 MSTORE PUSH1 0x24 PUSH1 0x0 REVERT JUMPDEST PUSH1 0x0 PUSH1 0x2 DUP3 DIV SWAP1 POP PUSH1 0x1 DUP3 AND DUP1 PUSH3 0xEFB JUMPI PUSH1 0x7F DUP3 AND SWAP2 POP JUMPDEST PUSH1 0x20 DUP3 LT DUP2 SUB PUSH3 0xF11 JUMPI PUSH3 0xF10 PUSH3 0xEB3 JUMP JUMPDEST JUMPDEST POP SWAP2 SWAP1 POP JUMP JUMPDEST PUSH1 0x0 DUP2 SWAP1 POP DUP2 PUSH1 0x0 MSTORE PUSH1 0x20 PUSH1 0x0 KECCAK256 SWAP1 POP SWAP2 SWAP1 POP JUMP JUMPDEST PUSH1 0x0 PUSH1 0x20 PUSH1 0x1F DUP4 ADD DIV SWAP1 POP SWAP2 SWAP1 POP JUMP JUMPDEST PUSH1 0x0 DUP3 DUP3 SHL SWAP1 POP SWAP3 SWAP2 POP POP JUMP JUMPDEST PUSH1 0x0 PUSH1 0x8 DUP4 MUL PUSH3 0xF7B PUSH32 0xFFFFFFFFFFFFFFFFFFFFFFFFFFFFFFFFFFFFFFFFFFFFFFFFFFFFFFFFFFFFFFFF DUP3 PUSH3 0xF3C JUMP JUMPDEST PUSH3 0xF87 DUP7 DUP4 PUSH3 0xF3C JUMP JUMPDEST SWAP6 POP DUP1 NOT DUP5 AND SWAP4 POP DUP1 DUP7 AND DUP5 OR SWAP3 POP POP POP SWAP4 SWAP3 POP POP POP JUMP JUMPDEST PUSH1 0x0 DUP2 SWAP1 POP SWAP2 SWAP1 POP JUMP JUMPDEST PUSH1 0x0 DUP2 SWAP1 POP SWAP2 SWAP1 POP JUMP JUMPDEST PUSH1 0x0 PUSH3 0xFD4 PUSH3 0xFCE PUSH3 0xFC8 DUP5 PUSH3 0xF9F JUMP JUMPDEST PUSH3 0xFA9 JUMP JUMPDEST PUSH3 0xF9F JUMP JUMPDEST SWAP1 POP SWAP2 SWAP1 POP JUMP JUMPDEST PUSH1 0x0 DUP2 SWAP1 POP SWAP2 SWAP1 POP JUMP JUMPDEST PUSH3 0xFF0 DUP4 PUSH3 0xFB3 JUMP JUMPDEST PUSH3 0x1008 PUSH3 0xFFF DUP3 PUSH3 0xFDB JUMP JUMPDEST DUP5 DUP5 SLOAD PUSH3 0xF49 JUMP JUMPDEST DUP3 SSTORE POP POP POP POP JUMP JUMPDEST PUSH1 0x0 SWAP1 JUMP JUMPDEST PUSH3 0x101F PUSH3 0x1010 JUMP JUMPDEST PUSH3 0x102C DUP2 DUP5 DUP5 PUSH3 0xFE5 JUMP JUMPDEST POP POP POP JUMP JUMPDEST JUMPDEST DUP2 DUP2 LT ISZERO PUSH3 0x1054 JUMPI PUSH3 0x1048 PUSH1 0x0 DUP3 PUSH3 0x1015 JUMP JUMPDEST PUSH1 0x1 DUP2 ADD SWAP1 POP PUSH3 0x1032 JUMP JUMPDEST POP POP JUMP JUMPDEST PUSH1 0x1F DUP3 GT ISZERO PUSH3 0x10A3 JUMPI PUSH3 0x106D DUP2 PUSH3 0xF17 JUMP JUMPDEST PUSH3 0x1078 DUP5 PUSH3 0xF2C JUMP JUMPDEST DUP2 ADD PUSH1 0x20 DUP6 LT ISZERO PUSH3 0x1088 JUMPI DUP2 SWAP1 POP JUMPDEST PUSH3 0x10A0 PUSH3 0x1097 DUP6 PUSH3 0xF2C JUMP JUMPDEST DUP4 ADD DUP3 PUSH3 0x1031 JUMP JUMPDEST POP POP JUMPDEST POP POP POP JUMP JUMPDEST PUSH1 0x0 DUP3 DUP3 SHR SWAP1 POP SWAP3 SWAP2 POP POP JUMP JUMPDEST PUSH1 0x0 PUSH3 0x10C8 PUSH1 0x0 NOT DUP5 PUSH1 0x8 MUL PUSH3 0x10A8 JUMP JUMPDEST NOT DUP1 DUP4 AND SWAP2 POP POP SWAP3 SWAP2 POP POP JUMP JUMPDEST PUSH1 0x0 PUSH3 0x10E3 DUP4 DUP4 PUSH3 0x10B5 JUMP JUMPDEST SWAP2 POP DUP3 PUSH1 0x2 MUL DUP3 OR SWAP1 POP SWAP3 SWAP2 POP POP JUMP JUMPDEST PUSH3 0x10FE DUP3 PUSH3 0xE79 JUMP JUMPDEST PUSH8 0xFFFFFFFFFFFFFFFF DUP2 GT ISZERO PUSH3 0x111A JUMPI PUSH3 0x1119 PUSH3 0xE84 JUMP JUMPDEST JUMPDEST PUSH3 0x1126 DUP3 SLOAD PUSH3 0xEE2 JUMP JUMPDEST PUSH3 0x1133 DUP3 DUP3 DUP6 PUSH3 0x1058 JUMP JUMPDEST PUSH1 0x0 PUSH1 0x20 SWAP1 POP PUSH1 0x1F DUP4 GT PUSH1 0x1 DUP2 EQ PUSH3 0x116B JUMPI PUSH1 0x0 DUP5 ISZERO PUSH3 0x1156 JUMPI DUP3 DUP8 ADD MLOAD SWAP1 POP JUMPDEST PUSH3 0x1162 DUP6 DUP3 PUSH3 0x10D5 JUMP JUMPDEST DUP7 SSTORE POP PUSH3 0x11D2 JUMP JUMPDEST PUSH1 0x1F NOT DUP5 AND PUSH3 0x117B DUP7 PUSH3 0xF17 JUMP JUMPDEST PUSH1 0x0 JUMPDEST DUP3 DUP2 LT ISZERO PUSH3 0x11A5 JUMPI DUP5 DUP10 ADD MLOAD DUP3 SSTORE PUSH1 0x1 DUP3 ADD SWAP2 POP PUSH1 0x20 DUP6 ADD SWAP5 POP PUSH1 0x20 DUP2 ADD SWAP1 POP PUSH3 0x117E JUMP JUMPDEST DUP7 DUP4 LT ISZERO PUSH3 0x11C5 JUMPI DUP5 DUP10 ADD MLOAD PUSH3 0x11C1 PUSH1 0x1F DUP10 AND DUP3 PUSH3 0x10B5 JUMP JUMPDEST DUP4 SSTORE POP JUMPDEST PUSH1 0x1 PUSH1 0x2 DUP9 MUL ADD DUP9 SSTORE POP POP POP JUMPDEST POP POP POP POP POP POP JUMP JUMPDEST PUSH1 0x0 PUSH1 0x40 MLOAD SWAP1 POP SWAP1 JUMP JUMPDEST PUSH1 0x0 DUP1 REVERT JUMPDEST PUSH1 0x0 DUP1 REVERT JUMPDEST PUSH1 0x0 DUP1 REVERT JUMPDEST PUSH1 0x0 DUP1 REVERT JUMPDEST PUSH1 0x0 PUSH1 0x1F NOT PUSH1 0x1F DUP4 ADD AND SWAP1 POP SWAP2 SWAP1 POP JUMP JUMPDEST PUSH3 0x1214 DUP3 PUSH3 0x11F8 JUMP JUMPDEST DUP2 ADD DUP2 DUP2 LT PUSH8 0xFFFFFFFFFFFFFFFF DUP3 GT OR ISZERO PUSH3 0x1236 JUMPI PUSH3 0x1235 PUSH3 0xE84 JUMP JUMPDEST JUMPDEST DUP1 PUSH1 0x40 MSTORE POP POP POP JUMP JUMPDEST PUSH1 0x0 PUSH3 0x124B PUSH3 0x11DA JUMP JUMPDEST SWAP1 POP PUSH3 0x1259 DUP3 DUP3 PUSH3 0x1209 JUMP JUMPDEST SWAP2 SWAP1 POP JUMP JUMPDEST PUSH1 0x0 PUSH8 0xFFFFFFFFFFFFFFFF DUP3 GT ISZERO PUSH3 0x127C JUMPI PUSH3 0x127B PUSH3 0xE84 JUMP JUMPDEST JUMPDEST PUSH3 0x1287 DUP3 PUSH3 0x11F8 JUMP JUMPDEST SWAP1 POP PUSH1 0x20 DUP2 ADD SWAP1 POP SWAP2 SWAP1 POP JUMP JUMPDEST PUSH1 0x0 JUMPDEST DUP4 DUP2 LT ISZERO PUSH3 0x12B4 JUMPI DUP1 DUP3 ADD MLOAD DUP2 DUP5 ADD MSTORE PUSH1 0x20 DUP2 ADD SWAP1 POP PUSH3 0x1297 JUMP JUMPDEST PUSH1 0x0 DUP5 DUP5 ADD MSTORE POP POP POP POP JUMP JUMPDEST PUSH1 0x0 PUSH3 0x12D7 PUSH3 0x12D1 DUP5 PUSH3 0x125E JUMP JUMPDEST PUSH3 0x123F JUMP JUMPDEST SWAP1 POP DUP3 DUP2 MSTORE PUSH1 0x20 DUP2 ADD DUP5 DUP5 DUP5 ADD GT ISZERO PUSH3 0x12F6 JUMPI PUSH3 0x12F5 PUSH3 0x11F3 JUMP JUMPDEST JUMPDEST PUSH3 0x1303 DUP5 DUP3 DUP6 PUSH3 0x1294 JUMP JUMPDEST POP SWAP4 SWAP3 POP POP POP JUMP JUMPDEST PUSH1 0x0 DUP3 PUSH1 0x1F DUP4 ADD SLT PUSH3 0x1323 JUMPI PUSH3 0x1322 PUSH3 0x11EE JUMP JUMPDEST JUMPDEST DUP2 MLOAD PUSH3 0x1335 DUP5 DUP3 PUSH1 0x20 DUP7 ADD PUSH3 0x12C0 JUMP JUMPDEST SWAP2 POP POP SWAP3 SWAP2 POP POP JUMP JUMPDEST PUSH1 0x0 DUP1 PUSH1 0x40 DUP4 DUP6 SUB SLT ISZERO PUSH3 0x1358 JUMPI PUSH3 0x1357 PUSH3 0x11E4 JUMP JUMPDEST JUMPDEST PUSH1 0x0 DUP4 ADD MLOAD PUSH8 0xFFFFFFFFFFFFFFFF DUP2 GT ISZERO PUSH3 0x1379 JUMPI PUSH3 0x1378 PUSH3 0x11E9 JUMP JUMPDEST JUMPDEST PUSH3 0x1387 DUP6 DUP3 DUP7 ADD PUSH3 0x130B JUMP JUMPDEST SWAP3 POP POP PUSH1 0x20 DUP4 ADD MLOAD PUSH8 0xFFFFFFFFFFFFFFFF DUP2 GT ISZERO PUSH3 0x13AB JUMPI PUSH3 0x13AA PUSH3 0x11E9 JUMP JUMPDEST JUMPDEST PUSH3 0x13B9 DUP6 DUP3 DUP7 ADD PUSH3 0x130B JUMP JUMPDEST SWAP2 POP POP SWAP3 POP SWAP3 SWAP1 POP JUMP JUMPDEST PUSH1 0x0 PUSH20 0xFFFFFFFFFFFFFFFFFFFFFFFFFFFFFFFFFFFFFFFF DUP3 AND SWAP1 POP SWAP2 SWAP1 POP JUMP JUMPDEST PUSH1 0x0 PUSH3 0x13F0 DUP3 PUSH3 0x13C3 JUMP JUMPDEST SWAP1 POP SWAP2 SWAP1 POP JUMP JUMPDEST PUSH3 0x1402 DUP2 PUSH3 0x13E3 JUMP JUMPDEST DUP3 MSTORE POP POP JUMP JUMPDEST PUSH1 0x0 PUSH1 0x20 DUP3 ADD SWAP1 POP PUSH3 0x141F PUSH1 0x0 DUP4 ADD DUP5 PUSH3 0x13F7 JUMP JUMPDEST SWAP3 SWAP2 POP POP JUMP JUMPDEST PUSH32 0x4E487B7100000000000000000000000000000000000000000000000000000000 PUSH1 0x0 MSTORE PUSH1 0x11 PUSH1 0x4 MSTORE PUSH1 0x24 PUSH1 0x0 REVERT JUMPDEST PUSH1 0x0 PUSH1 0xFF DUP3 AND SWAP1 POP SWAP2 SWAP1 POP JUMP JUMPDEST PUSH1 0x0 PUSH3 0x146E DUP3 PUSH3 0x1454 JUMP JUMPDEST SWAP2 POP PUSH1 0xFF DUP3 SUB PUSH3 0x1484 JUMPI PUSH3 0x1483 PUSH3 0x1425 JUMP JUMPDEST JUMPDEST PUSH1 0x1 DUP3 ADD SWAP1 POP SWAP2 SWAP1 POP JUMP JUMPDEST PUSH1 0x0 DUP3 DUP3 MSTORE PUSH1 0x20 DUP3 ADD SWAP1 POP SWAP3 SWAP2 POP POP JUMP JUMPDEST PUSH32 0x45524332303A3A204D696E7420616D6F756E742073686F756C64206265206772 PUSH1 0x0 DUP3 ADD MSTORE PUSH32 0x6561746572207468616E207A65726F0000000000000000000000000000000000 PUSH1 0x20 DUP3 ADD MSTORE POP JUMP JUMPDEST PUSH1 0x0 PUSH3 0x14FE PUSH1 0x2F DUP4 PUSH3 0x148F JUMP JUMPDEST SWAP2 POP PUSH3 0x150B DUP3 PUSH3 0x14A0 JUMP JUMPDEST PUSH1 0x40 DUP3 ADD SWAP1 POP SWAP2 SWAP1 POP JUMP JUMPDEST PUSH1 0x0 PUSH1 0x20 DUP3 ADD SWAP1 POP DUP2 DUP2 SUB PUSH1 0x0 DUP4 ADD MSTORE PUSH3 0x1531 DUP2 PUSH3 0x14EF JUMP JUMPDEST SWAP1 POP SWAP2 SWAP1 POP JUMP JUMPDEST PUSH32 0x45524332303A3A20757365722073686F756C64206E6F7420626520657175616C PUSH1 0x0 DUP3 ADD MSTORE PUSH32 0x20746F2061646472657373207A65726F00000000000000000000000000000000 PUSH1 0x20 DUP3 ADD MSTORE POP JUMP JUMPDEST PUSH1 0x0 PUSH3 0x1596 PUSH1 0x30 DUP4 PUSH3 0x148F JUMP JUMPDEST SWAP2 POP PUSH3 0x15A3 DUP3 PUSH3 0x1538 JUMP JUMPDEST PUSH1 0x40 DUP3 ADD SWAP1 POP SWAP2 SWAP1 POP JUMP JUMPDEST PUSH1 0x0 PUSH1 0x20 DUP3 ADD SWAP1 POP DUP2 DUP2 SUB PUSH1 0x0 DUP4 ADD MSTORE PUSH3 0x15C9 DUP2 PUSH3 0x1587 JUMP JUMPDEST SWAP1 POP SWAP2 SWAP1 POP JUMP JUMPDEST PUSH1 0x0 DUP2 SWAP1 POP SWAP3 SWAP2 POP POP JUMP JUMPDEST PUSH1 0x0 PUSH3 0x15E8 DUP3 PUSH3 0xE79 JUMP JUMPDEST PUSH3 0x15F4 DUP2 DUP6 PUSH3 0x15D0 JUMP JUMPDEST SWAP4 POP PUSH3 0x1606 DUP2 DUP6 PUSH1 0x20 DUP7 ADD PUSH3 0x1294 JUMP JUMPDEST DUP1 DUP5 ADD SWAP2 POP POP SWAP3 SWAP2 POP POP JUMP JUMPDEST PUSH1 0x0 PUSH3 0x1620 DUP3 DUP5 PUSH3 0x15DB JUMP JUMPDEST SWAP2 POP DUP2 SWAP1 POP SWAP3 SWAP2 POP POP JUMP JUMPDEST PUSH1 0x0 PUSH3 0x1638 DUP3 PUSH3 0xF9F JUMP JUMPDEST SWAP2 POP PUSH3 0x1645 DUP4 PUSH3 0xF9F JUMP JUMPDEST SWAP3 POP DUP3 DUP3 ADD SWAP1 POP DUP1 DUP3 GT ISZERO PUSH3 0x1660 JUMPI PUSH3 0x165F PUSH3 0x1425 JUMP JUMPDEST JUMPDEST SWAP3 SWAP2 POP POP JUMP JUMPDEST PUSH3 0x1671 DUP2 PUSH3 0xF9F JUMP JUMPDEST DUP3 MSTORE POP POP JUMP JUMPDEST PUSH1 0x0 PUSH1 0x60 DUP3 ADD SWAP1 POP PUSH3 0x168E PUSH1 0x0 DUP4 ADD DUP7 PUSH3 0x13F7 JUMP JUMPDEST PUSH3 0x169D PUSH1 0x20 DUP4 ADD DUP6 PUSH3 0x1666 JUMP JUMPDEST PUSH3 0x16AC PUSH1 0x40 DUP4 ADD DUP5 PUSH3 0x1666 JUMP JUMPDEST SWAP5 SWAP4 POP POP POP POP JUMP JUMPDEST PUSH1 0x0 PUSH1 0x20 DUP3 ADD SWAP1 POP PUSH3 0x16CB PUSH1 0x0 DUP4 ADD DUP5 PUSH3 0x1666 JUMP JUMPDEST SWAP3 SWAP2 POP POP JUMP JUMPDEST PUSH2 0x1F33 DUP1 PUSH3 0x16E1 PUSH1 0x0 CODECOPY PUSH1 0x0 RETURN INVALID PUSH1 0x80 PUSH1 0x40 MSTORE CALLVALUE DUP1 ISZERO PUSH2 0x10 JUMPI PUSH1 0x0 DUP1 REVERT JUMPDEST POP PUSH1 0x4 CALLDATASIZE LT PUSH2 0x116 JUMPI PUSH1 0x0 CALLDATALOAD PUSH1 0xE0 SHR DUP1 PUSH4 0x70A08231 GT PUSH2 0xA2 JUMPI DUP1 PUSH4 0x95D89B41 GT PUSH2 0x71 JUMPI DUP1 PUSH4 0x95D89B41 EQ PUSH2 0x2D6 JUMPI DUP1 PUSH4 0xA9059CBB EQ PUSH2 0x2F4 JUMPI DUP1 PUSH4 0xDD62ED3E EQ PUSH2 0x324 JUMPI DUP1 PUSH4 0xF2FDE38B EQ PUSH2 0x354 JUMPI DUP1 PUSH4 0xF3D22D38 EQ PUSH2 0x370 JUMPI PUSH2 0x116 JUMP JUMPDEST DUP1 PUSH4 0x70A08231 EQ PUSH2 0x260 JUMPI DUP1 PUSH4 0x715018A6 EQ PUSH2 0x290 JUMPI DUP1 PUSH4 0x8DA5CB5B EQ PUSH2 0x29A JUMPI DUP1 PUSH4 0x944DF045 EQ PUSH2 0x2B8 JUMPI PUSH2 0x116 JUMP JUMPDEST DUP1 PUSH4 0x18160DDD GT PUSH2 0xE9 JUMPI DUP1 PUSH4 0x18160DDD EQ PUSH2 0x1A4 JUMPI DUP1 PUSH4 0x2240166D EQ PUSH2 0x1C2 JUMPI DUP1 PUSH4 0x23B872DD EQ PUSH2 0x1F4 JUMPI DUP1 PUSH4 0x313CE567 EQ PUSH2 0x224 JUMPI DUP1 PUSH4 0x4C0F38C2 EQ PUSH2 0x242 JUMPI PUSH2 0x116 JUMP JUMPDEST DUP1 PUSH4 0x60A9AEB EQ PUSH2 0x11B JUMPI DUP1 PUSH4 0x6FDDE03 EQ PUSH2 0x14C JUMPI DUP1 PUSH4 0x95EA7B3 EQ PUSH2 0x16A JUMPI DUP1 PUSH4 0x1249C58B EQ PUSH2 0x19A JUMPI JUMPDEST PUSH1 0x0 DUP1 REVERT JUMPDEST PUSH2 0x135 PUSH1 0x4 DUP1 CALLDATASIZE SUB DUP2 ADD SWAP1 PUSH2 0x130 SWAP2 SWAP1 PUSH2 0x15E8 JUMP JUMPDEST PUSH2 0x38E JUMP JUMPDEST PUSH1 0x40 MLOAD PUSH2 0x143 SWAP3 SWAP2 SWAP1 PUSH2 0x168B JUMP JUMPDEST PUSH1 0x40 MLOAD DUP1 SWAP2 SUB SWAP1 RETURN JUMPDEST PUSH2 0x154 PUSH2 0x441 JUMP JUMPDEST PUSH1 0x40 MLOAD PUSH2 0x161 SWAP2 SWAP1 PUSH2 0x1733 JUMP JUMPDEST PUSH1 0x40 MLOAD DUP1 SWAP2 SUB SWAP1 RETURN JUMPDEST PUSH2 0x184 PUSH1 0x4 DUP1 CALLDATASIZE SUB DUP2 ADD SWAP1 PUSH2 0x17F SWAP2 SWAP1 PUSH2 0x17AD JUMP JUMPDEST PUSH2 0x4D3 JUMP JUMPDEST PUSH1 0x40 MLOAD PUSH2 0x191 SWAP2 SWAP1 PUSH2 0x1808 JUMP JUMPDEST PUSH1 0x40 MLOAD DUP1 SWAP2 SUB SWAP1 RETURN JUMPDEST PUSH2 0x1A2 PUSH2 0x4F6 JUMP JUMPDEST STOP JUMPDEST PUSH2 0x1AC PUSH2 0x7C0 JUMP JUMPDEST PUSH1 0x40 MLOAD PUSH2 0x1B9 SWAP2 SWAP1 PUSH2 0x1823 JUMP JUMPDEST PUSH1 0x40 MLOAD DUP1 SWAP2 SUB SWAP1 RETURN JUMPDEST PUSH2 0x1DC PUSH1 0x4 DUP1 CALLDATASIZE SUB DUP2 ADD SWAP1 PUSH2 0x1D7 SWAP2 SWAP1 PUSH2 0x183E JUMP JUMPDEST PUSH2 0x7CA JUMP JUMPDEST PUSH1 0x40 MLOAD PUSH2 0x1EB SWAP4 SWAP3 SWAP2 SWAP1 PUSH2 0x187A JUMP JUMPDEST PUSH1 0x40 MLOAD DUP1 SWAP2 SUB SWAP1 RETURN JUMPDEST PUSH2 0x20E PUSH1 0x4 DUP1 CALLDATASIZE SUB DUP2 ADD SWAP1 PUSH2 0x209 SWAP2 SWAP1 PUSH2 0x18B8 JUMP JUMPDEST PUSH2 0x8BC JUMP JUMPDEST PUSH1 0x40 MLOAD PUSH2 0x21B SWAP2 SWAP1 PUSH2 0x1808 JUMP JUMPDEST PUSH1 0x40 MLOAD DUP1 SWAP2 SUB SWAP1 RETURN JUMPDEST PUSH2 0x22C PUSH2 0x8EB JUMP JUMPDEST PUSH1 0x40 MLOAD PUSH2 0x239 SWAP2 SWAP1 PUSH2 0x1927 JUMP JUMPDEST PUSH1 0x40 MLOAD DUP1 SWAP2 SUB SWAP1 RETURN JUMPDEST PUSH2 0x24A PUSH2 0x8F4 JUMP JUMPDEST PUSH1 0x40 MLOAD PUSH2 0x257 SWAP2 SWAP1 PUSH2 0x1942 JUMP JUMPDEST PUSH1 0x40 MLOAD DUP1 SWAP2 SUB SWAP1 RETURN JUMPDEST PUSH2 0x27A PUSH1 0x4 DUP1 CALLDATASIZE SUB DUP2 ADD SWAP1 PUSH2 0x275 SWAP2 SWAP1 PUSH2 0x195D JUMP JUMPDEST PUSH2 0x908 JUMP JUMPDEST PUSH1 0x40 MLOAD PUSH2 0x287 SWAP2 SWAP1 PUSH2 0x1823 JUMP JUMPDEST PUSH1 0x40 MLOAD DUP1 SWAP2 SUB SWAP1 RETURN JUMPDEST PUSH2 0x298 PUSH2 0x950 JUMP JUMPDEST STOP JUMPDEST PUSH2 0x2A2 PUSH2 0x964 JUMP JUMPDEST PUSH1 0x40 MLOAD PUSH2 0x2AF SWAP2 SWAP1 PUSH2 0x198A JUMP JUMPDEST PUSH1 0x40 MLOAD DUP1 SWAP2 SUB SWAP1 RETURN JUMPDEST PUSH2 0x2C0 PUSH2 0x98E JUMP JUMPDEST PUSH1 0x40 MLOAD PUSH2 0x2CD SWAP2 SWAP1 PUSH2 0x1733 JUMP JUMPDEST PUSH1 0x40 MLOAD DUP1 SWAP2 SUB SWAP1 RETURN JUMPDEST PUSH2 0x2DE PUSH2 0xA20 JUMP JUMPDEST PUSH1 0x40 MLOAD PUSH2 0x2EB SWAP2 SWAP1 PUSH2 0x1733 JUMP JUMPDEST PUSH1 0x40 MLOAD DUP1 SWAP2 SUB SWAP1 RETURN JUMPDEST PUSH2 0x30E PUSH1 0x4 DUP1 CALLDATASIZE SUB DUP2 ADD SWAP1 PUSH2 0x309 SWAP2 SWAP1 PUSH2 0x17AD JUMP JUMPDEST PUSH2 0xAB2 JUMP JUMPDEST PUSH1 0x40 MLOAD PUSH2 0x31B SWAP2 SWAP1 PUSH2 0x1808 JUMP JUMPDEST PUSH1 0x40 MLOAD DUP1 SWAP2 SUB SWAP1 RETURN JUMPDEST PUSH2 0x33E PUSH1 0x4 DUP1 CALLDATASIZE SUB DUP2 ADD SWAP1 PUSH2 0x339 SWAP2 SWAP1 PUSH2 0x19A5 JUMP JUMPDEST PUSH2 0xAD5 JUMP JUMPDEST PUSH1 0x40 MLOAD PUSH2 0x34B SWAP2 SWAP1 PUSH2 0x1823 JUMP JUMPDEST PUSH1 0x40 MLOAD DUP1 SWAP2 SUB SWAP1 RETURN JUMPDEST PUSH2 0x36E PUSH1 0x4 DUP1 CALLDATASIZE SUB DUP2 ADD SWAP1 PUSH2 0x369 SWAP2 SWAP1 PUSH2 0x195D JUMP JUMPDEST PUSH2 0xB5C JUMP JUMPDEST STOP JUMPDEST PUSH2 0x378 PUSH2 0xBE2 JUMP JUMPDEST PUSH1 0x40 MLOAD PUSH2 0x385 SWAP2 SWAP1 PUSH2 0x1927 JUMP JUMPDEST PUSH1 0x40 MLOAD DUP1 SWAP2 SUB SWAP1 RETURN JUMPDEST PUSH1 0x0 DUP1 PUSH1 0x0 PUSH1 0x8 DUP5 PUSH1 0x40 MLOAD PUSH2 0x3A3 SWAP2 SWAP1 PUSH2 0x1A21 JUMP JUMPDEST SWAP1 DUP2 MSTORE PUSH1 0x20 ADD PUSH1 0x40 MLOAD DUP1 SWAP2 SUB SWAP1 KECCAK256 PUSH1 0x0 SWAP1 SLOAD SWAP1 PUSH2 0x100 EXP SWAP1 DIV PUSH20 0xFFFFFFFFFFFFFFFFFFFFFFFFFFFFFFFFFFFFFFFF AND SWAP1 POP PUSH1 0x0 PUSH1 0x9 DUP6 PUSH1 0x40 MLOAD PUSH2 0x3E6 SWAP2 SWAP1 PUSH2 0x1A21 JUMP JUMPDEST SWAP1 DUP2 MSTORE PUSH1 0x20 ADD PUSH1 0x40 MLOAD DUP1 SWAP2 SUB SWAP1 KECCAK256 PUSH1 0x0 DUP4 PUSH20 0xFFFFFFFFFFFFFFFFFFFFFFFFFFFFFFFFFFFFFFFF AND PUSH20 0xFFFFFFFFFFFFFFFFFFFFFFFFFFFFFFFFFFFFFFFF AND DUP2 MSTORE PUSH1 0x20 ADD SWAP1 DUP2 MSTORE PUSH1 0x20 ADD PUSH1 0x0 KECCAK256 SLOAD SWAP1 POP DUP1 DUP3 SWAP4 POP SWAP4 POP POP POP SWAP2 POP SWAP2 JUMP JUMPDEST PUSH1 0x60 PUSH1 0x3 DUP1 SLOAD PUSH2 0x450 SWAP1 PUSH2 0x1A67 JUMP JUMPDEST DUP1 PUSH1 0x1F ADD PUSH1 0x20 DUP1 SWAP2 DIV MUL PUSH1 0x20 ADD PUSH1 0x40 MLOAD SWAP1 DUP2 ADD PUSH1 0x40 MSTORE DUP1 SWAP3 SWAP2 SWAP1 DUP2 DUP2 MSTORE PUSH1 0x20 ADD DUP3 DUP1 SLOAD PUSH2 0x47C SWAP1 PUSH2 0x1A67 JUMP JUMPDEST DUP1 ISZERO PUSH2 0x4C9 JUMPI DUP1 PUSH1 0x1F LT PUSH2 0x49E JUMPI PUSH2 0x100 DUP1 DUP4 SLOAD DIV MUL DUP4 MSTORE SWAP2 PUSH1 0x20 ADD SWAP2 PUSH2 0x4C9 JUMP JUMPDEST DUP3 ADD SWAP2 SWAP1 PUSH1 0x0 MSTORE PUSH1 0x20 PUSH1 0x0 KECCAK256 SWAP1 JUMPDEST DUP2 SLOAD DUP2 MSTORE SWAP1 PUSH1 0x1 ADD SWAP1 PUSH1 0x20 ADD DUP1 DUP4 GT PUSH2 0x4AC JUMPI DUP3 SWAP1 SUB PUSH1 0x1F AND DUP3 ADD SWAP2 JUMPDEST POP POP POP POP POP SWAP1 POP SWAP1 JUMP JUMPDEST PUSH1 0x0 DUP1 PUSH2 0x4DE PUSH2 0xBF5 JUMP JUMPDEST SWAP1 POP PUSH2 0x4EB DUP2 DUP6 DUP6 PUSH2 0xBFD JUMP JUMPDEST PUSH1 0x1 SWAP2 POP POP SWAP3 SWAP2 POP POP JUMP JUMPDEST PUSH2 0x4FE PUSH2 0xC0F JUMP JUMPDEST PUSH1 0x0 PUSH1 0x7 PUSH1 0x0 DUP2 DUP2 SWAP1 SLOAD SWAP1 PUSH2 0x100 EXP SWAP1 DIV PUSH1 0xFF AND PUSH2 0x51B SWAP1 PUSH2 0x1AC7 JUMP JUMPDEST SWAP2 SWAP1 PUSH2 0x100 EXP DUP2 SLOAD DUP2 PUSH1 0xFF MUL NOT AND SWAP1 DUP4 PUSH1 0xFF AND MUL OR SWAP1 SSTORE SWAP1 POP PUSH1 0x0 PUSH1 0xA PUSH1 0x0 DUP4 PUSH1 0xFF AND DUP2 MSTORE PUSH1 0x20 ADD SWAP1 DUP2 MSTORE PUSH1 0x20 ADD PUSH1 0x0 KECCAK256 PUSH1 0x40 MLOAD DUP1 PUSH1 0x60 ADD PUSH1 0x40 MSTORE SWAP1 DUP2 PUSH1 0x0 DUP3 ADD DUP1 SLOAD PUSH2 0x567 SWAP1 PUSH2 0x1A67 JUMP JUMPDEST DUP1 PUSH1 0x1F ADD PUSH1 0x20 DUP1 SWAP2 DIV MUL PUSH1 0x20 ADD PUSH1 0x40 MLOAD SWAP1 DUP2 ADD PUSH1 0x40 MSTORE DUP1 SWAP3 SWAP2 SWAP1 DUP2 DUP2 MSTORE PUSH1 0x20 ADD DUP3 DUP1 SLOAD PUSH2 0x593 SWAP1 PUSH2 0x1A67 JUMP JUMPDEST DUP1 ISZERO PUSH2 0x5E0 JUMPI DUP1 PUSH1 0x1F LT PUSH2 0x5B5 JUMPI PUSH2 0x100 DUP1 DUP4 SLOAD DIV MUL DUP4 MSTORE SWAP2 PUSH1 0x20 ADD SWAP2 PUSH2 0x5E0 JUMP JUMPDEST DUP3 ADD SWAP2 SWAP1 PUSH1 0x0 MSTORE PUSH1 0x20 PUSH1 0x0 KECCAK256 SWAP1 JUMPDEST DUP2 SLOAD DUP2 MSTORE SWAP1 PUSH1 0x1 ADD SWAP1 PUSH1 0x20 ADD DUP1 DUP4 GT PUSH2 0x5C3 JUMPI DUP3 SWAP1 SUB PUSH1 0x1F AND DUP3 ADD SWAP2 JUMPDEST POP POP POP POP POP DUP2 MSTORE PUSH1 0x20 ADD PUSH1 0x1 DUP3 ADD PUSH1 0x0 SWAP1 SLOAD SWAP1 PUSH2 0x100 EXP SWAP1 DIV PUSH20 0xFFFFFFFFFFFFFFFFFFFFFFFFFFFFFFFFFFFFFFFF AND PUSH20 0xFFFFFFFFFFFFFFFFFFFFFFFFFFFFFFFFFFFFFFFF AND PUSH20 0xFFFFFFFFFFFFFFFFFFFFFFFFFFFFFFFFFFFFFFFF AND DUP2 MSTORE PUSH1 0x20 ADD PUSH1 0x2 DUP3 ADD PUSH1 0x0 SWAP1 SLOAD SWAP1 PUSH2 0x100 EXP SWAP1 DIV PUSH20 0xFFFFFFFFFFFFFFFFFFFFFFFFFFFFFFFFFFFFFFFF AND PUSH20 0xFFFFFFFFFFFFFFFFFFFFFFFFFFFFFFFFFFFFFFFF AND PUSH20 0xFFFFFFFFFFFFFFFFFFFFFFFFFFFFFFFFFFFFFFFF AND DUP2 MSTORE POP POP SWAP1 POP PUSH1 0x0 DUP2 PUSH1 0x20 ADD MLOAD PUSH20 0xFFFFFFFFFFFFFFFFFFFFFFFFFFFFFFFFFFFFFFFF AND GT PUSH2 0x6F4 JUMPI PUSH1 0x40 MLOAD PUSH32 0x8C379A000000000000000000000000000000000000000000000000000000000 DUP2 MSTORE PUSH1 0x4 ADD PUSH2 0x6EB SWAP1 PUSH2 0x1B62 JUMP JUMPDEST PUSH1 0x40 MLOAD DUP1 SWAP2 SUB SWAP1 REVERT JUMPDEST PUSH1 0x0 PUSH20 0xFFFFFFFFFFFFFFFFFFFFFFFFFFFFFFFFFFFFFFFF AND DUP2 PUSH1 0x40 ADD MLOAD PUSH20 0xFFFFFFFFFFFFFFFFFFFFFFFFFFFFFFFFFFFFFFFF AND SUB PUSH2 0x767 JUMPI PUSH1 0x40 MLOAD PUSH32 0x8C379A000000000000000000000000000000000000000000000000000000000 DUP2 MSTORE PUSH1 0x4 ADD PUSH2 0x75E SWAP1 PUSH2 0x1BF4 JUMP JUMPDEST PUSH1 0x40 MLOAD DUP1 SWAP2 SUB SWAP1 REVERT JUMPDEST PUSH2 0x78F DUP2 PUSH1 0x40 ADD MLOAD DUP3 PUSH1 0x20 ADD MLOAD PUSH20 0xFFFFFFFFFFFFFFFFFFFFFFFFFFFFFFFFFFFFFFFF AND PUSH2 0xC96 JUMP JUMPDEST PUSH2 0x7BC DUP2 PUSH1 0x0 ADD MLOAD DUP3 PUSH1 0x40 ADD MLOAD DUP4 PUSH1 0x20 ADD MLOAD PUSH20 0xFFFFFFFFFFFFFFFFFFFFFFFFFFFFFFFFFFFFFFFF AND PUSH2 0xD18 JUMP JUMPDEST POP POP JUMP JUMPDEST PUSH1 0x0 PUSH1 0x2 SLOAD SWAP1 POP SWAP1 JUMP JUMPDEST PUSH1 0xA PUSH1 0x20 MSTORE DUP1 PUSH1 0x0 MSTORE PUSH1 0x40 PUSH1 0x0 KECCAK256 PUSH1 0x0 SWAP2 POP SWAP1 POP DUP1 PUSH1 0x0 ADD DUP1 SLOAD PUSH2 0x7ED SWAP1 PUSH2 0x1A67 JUMP JUMPDEST DUP1 PUSH1 0x1F ADD PUSH1 0x20 DUP1 SWAP2 DIV MUL PUSH1 0x20 ADD PUSH1 0x40 MLOAD SWAP1 DUP2 ADD PUSH1 0x40 MSTORE DUP1 SWAP3 SWAP2 SWAP1 DUP2 DUP2 MSTORE PUSH1 0x20 ADD DUP3 DUP1 SLOAD PUSH2 0x819 SWAP1 PUSH2 0x1A67 JUMP JUMPDEST DUP1 ISZERO PUSH2 0x866 JUMPI DUP1 PUSH1 0x1F LT PUSH2 0x83B JUMPI PUSH2 0x100 DUP1 DUP4 SLOAD DIV MUL DUP4 MSTORE SWAP2 PUSH1 0x20 ADD SWAP2 PUSH2 0x866 JUMP JUMPDEST DUP3 ADD SWAP2 SWAP1 PUSH1 0x0 MSTORE PUSH1 0x20 PUSH1 0x0 KECCAK256 SWAP1 JUMPDEST DUP2 SLOAD DUP2 MSTORE SWAP1 PUSH1 0x1 ADD SWAP1 PUSH1 0x20 ADD DUP1 DUP4 GT PUSH2 0x849 JUMPI DUP3 SWAP1 SUB PUSH1 0x1F AND DUP3 ADD SWAP2 JUMPDEST POP POP POP POP POP SWAP1 DUP1 PUSH1 0x1 ADD PUSH1 0x0 SWAP1 SLOAD SWAP1 PUSH2 0x100 EXP SWAP1 DIV PUSH20 0xFFFFFFFFFFFFFFFFFFFFFFFFFFFFFFFFFFFFFFFF AND SWAP1 DUP1 PUSH1 0x2 ADD PUSH1 0x0 SWAP1 SLOAD SWAP1 PUSH2 0x100 EXP SWAP1 DIV PUSH20 0xFFFFFFFFFFFFFFFFFFFFFFFFFFFFFFFFFFFFFFFF AND SWAP1 POP DUP4 JUMP JUMPDEST PUSH1 0x0 DUP1 PUSH2 0x8C7 PUSH2 0xBF5 JUMP JUMPDEST SWAP1 POP PUSH2 0x8D4 DUP6 DUP3 DUP6 PUSH2 0xE44 JUMP JUMPDEST PUSH2 0x8DF DUP6 DUP6 DUP6 PUSH2 0xED8 JUMP JUMPDEST PUSH1 0x1 SWAP2 POP POP SWAP4 SWAP3 POP POP POP JUMP JUMPDEST PUSH1 0x0 PUSH1 0x12 SWAP1 POP SWAP1 JUMP JUMPDEST PUSH1 0x0 PUSH12 0x14ADF4B7320334B90000000 SWAP1 POP SWAP1 JUMP JUMPDEST PUSH1 0x0 DUP1 PUSH1 0x0 DUP4 PUSH20 0xFFFFFFFFFFFFFFFFFFFFFFFFFFFFFFFFFFFFFFFF AND PUSH20 0xFFFFFFFFFFFFFFFFFFFFFFFFFFFFFFFFFFFFFFFF AND DUP2 MSTORE PUSH1 0x20 ADD SWAP1 DUP2 MSTORE PUSH1 0x20 ADD PUSH1 0x0 KECCAK256 SLOAD SWAP1 POP SWAP2 SWAP1 POP JUMP JUMPDEST PUSH2 0x958 PUSH2 0xC0F JUMP JUMPDEST PUSH2 0x962 PUSH1 0x0 PUSH2 0xFCC JUMP JUMPDEST JUMP JUMPDEST PUSH1 0x0 PUSH1 0x5 PUSH1 0x0 SWAP1 SLOAD SWAP1 PUSH2 0x100 EXP SWAP1 DIV PUSH20 0xFFFFFFFFFFFFFFFFFFFFFFFFFFFFFFFFFFFFFFFF AND SWAP1 POP SWAP1 JUMP JUMPDEST PUSH1 0x60 PUSH1 0x6 DUP1 SLOAD PUSH2 0x99D SWAP1 PUSH2 0x1A67 JUMP JUMPDEST DUP1 PUSH1 0x1F ADD PUSH1 0x20 DUP1 SWAP2 DIV MUL PUSH1 0x20 ADD PUSH1 0x40 MLOAD SWAP1 DUP2 ADD PUSH1 0x40 MSTORE DUP1 SWAP3 SWAP2 SWAP1 DUP2 DUP2 MSTORE PUSH1 0x20 ADD DUP3 DUP1 SLOAD PUSH2 0x9C9 SWAP1 PUSH2 0x1A67 JUMP JUMPDEST DUP1 ISZERO PUSH2 0xA16 JUMPI DUP1 PUSH1 0x1F LT PUSH2 0x9EB JUMPI PUSH2 0x100 DUP1 DUP4 SLOAD DIV MUL DUP4 MSTORE SWAP2 PUSH1 0x20 ADD SWAP2 PUSH2 0xA16 JUMP JUMPDEST DUP3 ADD SWAP2 SWAP1 PUSH1 0x0 MSTORE PUSH1 0x20 PUSH1 0x0 KECCAK256 SWAP1 JUMPDEST DUP2 SLOAD DUP2 MSTORE SWAP1 PUSH1 0x1 ADD SWAP1 PUSH1 0x20 ADD DUP1 DUP4 GT PUSH2 0x9F9 JUMPI DUP3 SWAP1 SUB PUSH1 0x1F AND DUP3 ADD SWAP2 JUMPDEST POP POP POP POP POP SWAP1 POP SWAP1 JUMP JUMPDEST PUSH1 0x60 PUSH1 0x4 DUP1 SLOAD PUSH2 0xA2F SWAP1 PUSH2 0x1A67 JUMP JUMPDEST DUP1 PUSH1 0x1F ADD PUSH1 0x20 DUP1 SWAP2 DIV MUL PUSH1 0x20 ADD PUSH1 0x40 MLOAD SWAP1 DUP2 ADD PUSH1 0x40 MSTORE DUP1 SWAP3 SWAP2 SWAP1 DUP2 DUP2 MSTORE PUSH1 0x20 ADD DUP3 DUP1 SLOAD PUSH2 0xA5B SWAP1 PUSH2 0x1A67 JUMP JUMPDEST DUP1 ISZERO PUSH2 0xAA8 JUMPI DUP1 PUSH1 0x1F LT PUSH2 0xA7D JUMPI PUSH2 0x100 DUP1 DUP4 SLOAD DIV MUL DUP4 MSTORE SWAP2 PUSH1 0x20 ADD SWAP2 PUSH2 0xAA8 JUMP JUMPDEST DUP3 ADD SWAP2 SWAP1 PUSH1 0x0 MSTORE PUSH1 0x20 PUSH1 0x0 KECCAK256 SWAP1 JUMPDEST DUP2 SLOAD DUP2 MSTORE SWAP1 PUSH1 0x1 ADD SWAP1 PUSH1 0x20 ADD DUP1 DUP4 GT PUSH2 0xA8B JUMPI DUP3 SWAP1 SUB PUSH1 0x1F AND DUP3 ADD SWAP2 JUMPDEST POP POP POP POP POP SWAP1 POP SWAP1 JUMP JUMPDEST PUSH1 0x0 DUP1 PUSH2 0xABD PUSH2 0xBF5 JUMP JUMPDEST SWAP1 POP PUSH2 0xACA DUP2 DUP6 DUP6 PUSH2 0xED8 JUMP JUMPDEST PUSH1 0x1 SWAP2 POP POP SWAP3 SWAP2 POP POP JUMP JUMPDEST PUSH1 0x0 PUSH1 0x1 PUSH1 0x0 DUP5 PUSH20 0xFFFFFFFFFFFFFFFFFFFFFFFFFFFFFFFFFFFFFFFF AND PUSH20 0xFFFFFFFFFFFFFFFFFFFFFFFFFFFFFFFFFFFFFFFF AND DUP2 MSTORE PUSH1 0x20 ADD SWAP1 DUP2 MSTORE PUSH1 0x20 ADD PUSH1 0x0 KECCAK256 PUSH1 0x0 DUP4 PUSH20 0xFFFFFFFFFFFFFFFFFFFFFFFFFFFFFFFFFFFFFFFF AND PUSH20 0xFFFFFFFFFFFFFFFFFFFFFFFFFFFFFFFFFFFFFFFF AND DUP2 MSTORE PUSH1 0x20 ADD SWAP1 DUP2 MSTORE PUSH1 0x20 ADD PUSH1 0x0 KECCAK256 SLOAD SWAP1 POP SWAP3 SWAP2 POP POP JUMP JUMPDEST PUSH2 0xB64 PUSH2 0xC0F JUMP JUMPDEST PUSH1 0x0 PUSH20 0xFFFFFFFFFFFFFFFFFFFFFFFFFFFFFFFFFFFFFFFF AND DUP2 PUSH20 0xFFFFFFFFFFFFFFFFFFFFFFFFFFFFFFFFFFFFFFFF AND SUB PUSH2 0xBD6 JUMPI PUSH1 0x0 PUSH1 0x40 MLOAD PUSH32 0x1E4FBDF700000000000000000000000000000000000000000000000000000000 DUP2 MSTORE PUSH1 0x4 ADD PUSH2 0xBCD SWAP2 SWAP1 PUSH2 0x198A JUMP JUMPDEST PUSH1 0x40 MLOAD DUP1 SWAP2 SUB SWAP1 REVERT JUMPDEST PUSH2 0xBDF DUP2 PUSH2 0xFCC JUMP JUMPDEST POP JUMP JUMPDEST PUSH1 0x7 PUSH1 0x0 SWAP1 SLOAD SWAP1 PUSH2 0x100 EXP SWAP1 DIV PUSH1 0xFF AND DUP2 JUMP JUMPDEST PUSH1 0x0 CALLER SWAP1 POP SWAP1 JUMP JUMPDEST PUSH2 0xC0A DUP4 DUP4 DUP4 PUSH1 0x1 PUSH2 0x1092 JUMP JUMPDEST POP POP POP JUMP JUMPDEST PUSH2 0xC17 PUSH2 0xBF5 JUMP JUMPDEST PUSH20 0xFFFFFFFFFFFFFFFFFFFFFFFFFFFFFFFFFFFFFFFF AND PUSH2 0xC35 PUSH2 0x964 JUMP JUMPDEST PUSH20 0xFFFFFFFFFFFFFFFFFFFFFFFFFFFFFFFFFFFFFFFF AND EQ PUSH2 0xC94 JUMPI PUSH2 0xC58 PUSH2 0xBF5 JUMP JUMPDEST PUSH1 0x40 MLOAD PUSH32 0x118CDAA700000000000000000000000000000000000000000000000000000000 DUP2 MSTORE PUSH1 0x4 ADD PUSH2 0xC8B SWAP2 SWAP1 PUSH2 0x198A JUMP JUMPDEST PUSH1 0x40 MLOAD DUP1 SWAP2 SUB SWAP1 REVERT JUMPDEST JUMP JUMPDEST PUSH1 0x0 PUSH20 0xFFFFFFFFFFFFFFFFFFFFFFFFFFFFFFFFFFFFFFFF AND DUP3 PUSH20 0xFFFFFFFFFFFFFFFFFFFFFFFFFFFFFFFFFFFFFFFF AND SUB PUSH2 0xD08 JUMPI PUSH1 0x0 PUSH1 0x40 MLOAD PUSH32 0xEC442F0500000000000000000000000000000000000000000000000000000000 DUP2 MSTORE PUSH1 0x4 ADD PUSH2 0xCFF SWAP2 SWAP1 PUSH2 0x198A JUMP JUMPDEST PUSH1 0x40 MLOAD DUP1 SWAP2 SUB SWAP1 REVERT JUMPDEST PUSH2 0xD14 PUSH1 0x0 DUP4 DUP4 PUSH2 0x1269 JUMP JUMPDEST POP POP JUMP JUMPDEST DUP3 PUSH1 0x6 SWAP1 DUP2 PUSH2 0xD27 SWAP2 SWAP1 PUSH2 0x1DC0 JUMP JUMPDEST POP DUP2 PUSH1 0x8 DUP5 PUSH1 0x40 MLOAD PUSH2 0xD39 SWAP2 SWAP1 PUSH2 0x1A21 JUMP JUMPDEST SWAP1 DUP2 MSTORE PUSH1 0x20 ADD PUSH1 0x40 MLOAD DUP1 SWAP2 SUB SWAP1 KECCAK256 PUSH1 0x0 PUSH2 0x100 EXP DUP2 SLOAD DUP2 PUSH20 0xFFFFFFFFFFFFFFFFFFFFFFFFFFFFFFFFFFFFFFFF MUL NOT AND SWAP1 DUP4 PUSH20 0xFFFFFFFFFFFFFFFFFFFFFFFFFFFFFFFFFFFFFFFF AND MUL OR SWAP1 SSTORE POP DUP1 PUSH1 0x9 DUP5 PUSH1 0x40 MLOAD PUSH2 0xD96 SWAP2 SWAP1 PUSH2 0x1A21 JUMP JUMPDEST SWAP1 DUP2 MSTORE PUSH1 0x20 ADD PUSH1 0x40 MLOAD DUP1 SWAP2 SUB SWAP1 KECCAK256 PUSH1 0x0 DUP5 PUSH20 0xFFFFFFFFFFFFFFFFFFFFFFFFFFFFFFFFFFFFFFFF AND PUSH20 0xFFFFFFFFFFFFFFFFFFFFFFFFFFFFFFFFFFFFFFFF AND DUP2 MSTORE PUSH1 0x20 ADD SWAP1 DUP2 MSTORE PUSH1 0x20 ADD PUSH1 0x0 KECCAK256 DUP2 SWAP1 SSTORE POP DUP2 PUSH20 0xFFFFFFFFFFFFFFFFFFFFFFFFFFFFFFFFFFFFFFFF AND DUP2 DUP5 PUSH1 0x40 MLOAD PUSH2 0xE0B SWAP2 SWAP1 PUSH2 0x1A21 JUMP JUMPDEST PUSH1 0x40 MLOAD DUP1 SWAP2 SUB SWAP1 KECCAK256 PUSH32 0x42E47C5F4EF490FA970D56126F2584EFC00F3485D64635DF2E3D0F587D4211B7 PUSH1 0x40 MLOAD PUSH1 0x40 MLOAD DUP1 SWAP2 SUB SWAP1 LOG4 POP POP POP JUMP JUMPDEST PUSH1 0x0 PUSH2 0xE50 DUP5 DUP5 PUSH2 0xAD5 JUMP JUMPDEST SWAP1 POP PUSH32 0xFFFFFFFFFFFFFFFFFFFFFFFFFFFFFFFFFFFFFFFFFFFFFFFFFFFFFFFFFFFFFFFF DUP2 EQ PUSH2 0xED2 JUMPI DUP2 DUP2 LT ISZERO PUSH2 0xEC2 JUMPI DUP3 DUP2 DUP4 PUSH1 0x40 MLOAD PUSH32 0xFB8F41B200000000000000000000000000000000000000000000000000000000 DUP2 MSTORE PUSH1 0x4 ADD PUSH2 0xEB9 SWAP4 SWAP3 SWAP2 SWAP1 PUSH2 0x1E92 JUMP JUMPDEST PUSH1 0x40 MLOAD DUP1 SWAP2 SUB SWAP1 REVERT JUMPDEST PUSH2 0xED1 DUP5 DUP5 DUP5 DUP5 SUB PUSH1 0x0 PUSH2 0x1092 JUMP JUMPDEST JUMPDEST POP POP POP POP JUMP JUMPDEST PUSH1 0x0 PUSH20 0xFFFFFFFFFFFFFFFFFFFFFFFFFFFFFFFFFFFFFFFF AND DUP4 PUSH20 0xFFFFFFFFFFFFFFFFFFFFFFFFFFFFFFFFFFFFFFFF AND SUB PUSH2 0xF4A JUMPI PUSH1 0x0 PUSH1 0x40 MLOAD PUSH32 0x96C6FD1E00000000000000000000000000000000000000000000000000000000 DUP2 MSTORE PUSH1 0x4 ADD PUSH2 0xF41 SWAP2 SWAP1 PUSH2 0x198A JUMP JUMPDEST PUSH1 0x40 MLOAD DUP1 SWAP2 SUB SWAP1 REVERT JUMPDEST PUSH1 0x0 PUSH20 0xFFFFFFFFFFFFFFFFFFFFFFFFFFFFFFFFFFFFFFFF AND DUP3 PUSH20 0xFFFFFFFFFFFFFFFFFFFFFFFFFFFFFFFFFFFFFFFF AND SUB PUSH2 0xFBC JUMPI PUSH1 0x0 PUSH1 0x40 MLOAD PUSH32 0xEC442F0500000000000000000000000000000000000000000000000000000000 DUP2 MSTORE PUSH1 0x4 ADD PUSH2 0xFB3 SWAP2 SWAP1 PUSH2 0x198A JUMP JUMPDEST PUSH1 0x40 MLOAD DUP1 SWAP2 SUB SWAP1 REVERT JUMPDEST PUSH2 0xFC7 DUP4 DUP4 DUP4 PUSH2 0x1269 JUMP JUMPDEST POP POP POP JUMP JUMPDEST PUSH1 0x0 PUSH1 0x5 PUSH1 0x0 SWAP1 SLOAD SWAP1 PUSH2 0x100 EXP SWAP1 DIV PUSH20 0xFFFFFFFFFFFFFFFFFFFFFFFFFFFFFFFFFFFFFFFF AND SWAP1 POP DUP2 PUSH1 0x5 PUSH1 0x0 PUSH2 0x100 EXP DUP2 SLOAD DUP2 PUSH20 0xFFFFFFFFFFFFFFFFFFFFFFFFFFFFFFFFFFFFFFFF MUL NOT AND SWAP1 DUP4 PUSH20 0xFFFFFFFFFFFFFFFFFFFFFFFFFFFFFFFFFFFFFFFF AND MUL OR SWAP1 SSTORE POP DUP2 PUSH20 0xFFFFFFFFFFFFFFFFFFFFFFFFFFFFFFFFFFFFFFFF AND DUP2 PUSH20 0xFFFFFFFFFFFFFFFFFFFFFFFFFFFFFFFFFFFFFFFF AND PUSH32 0x8BE0079C531659141344CD1FD0A4F28419497F9722A3DAAFE3B4186F6B6457E0 PUSH1 0x40 MLOAD PUSH1 0x40 MLOAD DUP1 SWAP2 SUB SWAP1 LOG3 POP POP JUMP JUMPDEST PUSH1 0x0 PUSH20 0xFFFFFFFFFFFFFFFFFFFFFFFFFFFFFFFFFFFFFFFF AND DUP5 PUSH20 0xFFFFFFFFFFFFFFFFFFFFFFFFFFFFFFFFFFFFFFFF AND SUB PUSH2 0x1104 JUMPI PUSH1 0x0 PUSH1 0x40 MLOAD PUSH32 0xE602DF0500000000000000000000000000000000000000000000000000000000 DUP2 MSTORE PUSH1 0x4 ADD PUSH2 0x10FB SWAP2 SWAP1 PUSH2 0x198A JUMP JUMPDEST PUSH1 0x40 MLOAD DUP1 SWAP2 SUB SWAP1 REVERT JUMPDEST PUSH1 0x0 PUSH20 0xFFFFFFFFFFFFFFFFFFFFFFFFFFFFFFFFFFFFFFFF AND DUP4 PUSH20 0xFFFFFFFFFFFFFFFFFFFFFFFFFFFFFFFFFFFFFFFF AND SUB PUSH2 0x1176 JUMPI PUSH1 0x0 PUSH1 0x40 MLOAD PUSH32 0x94280D6200000000000000000000000000000000000000000000000000000000 DUP2 MSTORE PUSH1 0x4 ADD PUSH2 0x116D SWAP2 SWAP1 PUSH2 0x198A JUMP JUMPDEST PUSH1 0x40 MLOAD DUP1 SWAP2 SUB SWAP1 REVERT JUMPDEST DUP2 PUSH1 0x1 PUSH1 0x0 DUP7 PUSH20 0xFFFFFFFFFFFFFFFFFFFFFFFFFFFFFFFFFFFFFFFF AND PUSH20 0xFFFFFFFFFFFFFFFFFFFFFFFFFFFFFFFFFFFFFFFF AND DUP2 MSTORE PUSH1 0x20 ADD SWAP1 DUP2 MSTORE PUSH1 0x20 ADD PUSH1 0x0 KECCAK256 PUSH1 0x0 DUP6 PUSH20 0xFFFFFFFFFFFFFFFFFFFFFFFFFFFFFFFFFFFFFFFF AND PUSH20 0xFFFFFFFFFFFFFFFFFFFFFFFFFFFFFFFFFFFFFFFF AND DUP2 MSTORE PUSH1 0x20 ADD SWAP1 DUP2 MSTORE PUSH1 0x20 ADD PUSH1 0x0 KECCAK256 DUP2 SWAP1 SSTORE POP DUP1 ISZERO PUSH2 0x1263 JUMPI DUP3 PUSH20 0xFFFFFFFFFFFFFFFFFFFFFFFFFFFFFFFFFFFFFFFF AND DUP5 PUSH20 0xFFFFFFFFFFFFFFFFFFFFFFFFFFFFFFFFFFFFFFFF AND PUSH32 0x8C5BE1E5EBEC7D5BD14F71427D1E84F3DD0314C0F7B2291E5B200AC8C7C3B925 DUP5 PUSH1 0x40 MLOAD PUSH2 0x125A SWAP2 SWAP1 PUSH2 0x1823 JUMP JUMPDEST PUSH1 0x40 MLOAD DUP1 SWAP2 SUB SWAP1 LOG3 JUMPDEST POP POP POP POP JUMP JUMPDEST PUSH1 0x0 PUSH20 0xFFFFFFFFFFFFFFFFFFFFFFFFFFFFFFFFFFFFFFFF AND DUP4 PUSH20 0xFFFFFFFFFFFFFFFFFFFFFFFFFFFFFFFFFFFFFFFF AND SUB PUSH2 0x12BB JUMPI DUP1 PUSH1 0x2 PUSH1 0x0 DUP3 DUP3 SLOAD PUSH2 0x12AF SWAP2 SWAP1 PUSH2 0x1EC9 JUMP JUMPDEST SWAP3 POP POP DUP2 SWAP1 SSTORE POP PUSH2 0x138E JUMP JUMPDEST PUSH1 0x0 DUP1 PUSH1 0x0 DUP6 PUSH20 0xFFFFFFFFFFFFFFFFFFFFFFFFFFFFFFFFFFFFFFFF AND PUSH20 0xFFFFFFFFFFFFFFFFFFFFFFFFFFFFFFFFFFFFFFFF AND DUP2 MSTORE PUSH1 0x20 ADD SWAP1 DUP2 MSTORE PUSH1 0x20 ADD PUSH1 0x0 KECCAK256 SLOAD SWAP1 POP DUP2 DUP2 LT ISZERO PUSH2 0x1347 JUMPI DUP4 DUP2 DUP4 PUSH1 0x40 MLOAD PUSH32 0xE450D38C00000000000000000000000000000000000000000000000000000000 DUP2 MSTORE PUSH1 0x4 ADD PUSH2 0x133E SWAP4 SWAP3 SWAP2 SWAP1 PUSH2 0x1E92 JUMP JUMPDEST PUSH1 0x40 MLOAD DUP1 SWAP2 SUB SWAP1 REVERT JUMPDEST DUP2 DUP2 SUB PUSH1 0x0 DUP1 DUP7 PUSH20 0xFFFFFFFFFFFFFFFFFFFFFFFFFFFFFFFFFFFFFFFF AND PUSH20 0xFFFFFFFFFFFFFFFFFFFFFFFFFFFFFFFFFFFFFFFF AND DUP2 MSTORE PUSH1 0x20 ADD SWAP1 DUP2 MSTORE PUSH1 0x20 ADD PUSH1 0x0 KECCAK256 DUP2 SWAP1 SSTORE POP POP JUMPDEST PUSH1 0x0 PUSH20 0xFFFFFFFFFFFFFFFFFFFFFFFFFFFFFFFFFFFFFFFF AND DUP3 PUSH20 0xFFFFFFFFFFFFFFFFFFFFFFFFFFFFFFFFFFFFFFFF AND SUB PUSH2 0x13D7 JUMPI DUP1 PUSH1 0x2 PUSH1 0x0 DUP3 DUP3 SLOAD SUB SWAP3 POP POP DUP2 SWAP1 SSTORE POP PUSH2 0x1424 JUMP JUMPDEST DUP1 PUSH1 0x0 DUP1 DUP5 PUSH20 0xFFFFFFFFFFFFFFFFFFFFFFFFFFFFFFFFFFFFFFFF AND PUSH20 0xFFFFFFFFFFFFFFFFFFFFFFFFFFFFFFFFFFFFFFFF AND DUP2 MSTORE PUSH1 0x20 ADD SWAP1 DUP2 MSTORE PUSH1 0x20 ADD PUSH1 0x0 KECCAK256 PUSH1 0x0 DUP3 DUP3 SLOAD ADD SWAP3 POP POP DUP2 SWAP1 SSTORE POP JUMPDEST DUP2 PUSH20 0xFFFFFFFFFFFFFFFFFFFFFFFFFFFFFFFFFFFFFFFF AND DUP4 PUSH20 0xFFFFFFFFFFFFFFFFFFFFFFFFFFFFFFFFFFFFFFFF AND PUSH32 0xDDF252AD1BE2C89B69C2B068FC378DAA952BA7F163C4A11628F55A4DF523B3EF DUP4 PUSH1 0x40 MLOAD PUSH2 0x1481 SWAP2 SWAP1 PUSH2 0x1823 JUMP JUMPDEST PUSH1 0x40 MLOAD DUP1 SWAP2 SUB SWAP1 LOG3 POP POP POP JUMP JUMPDEST PUSH1 0x0 PUSH1 0x40 MLOAD SWAP1 POP SWAP1 JUMP JUMPDEST PUSH1 0x0 DUP1 REVERT JUMPDEST PUSH1 0x0 DUP1 REVERT JUMPDEST PUSH1 0x0 DUP1 REVERT JUMPDEST PUSH1 0x0 DUP1 REVERT JUMPDEST PUSH1 0x0 PUSH1 0x1F NOT PUSH1 0x1F DUP4 ADD AND SWAP1 POP SWAP2 SWAP1 POP JUMP JUMPDEST PUSH32 0x4E487B7100000000000000000000000000000000000000000000000000000000 PUSH1 0x0 MSTORE PUSH1 0x41 PUSH1 0x4 MSTORE PUSH1 0x24 PUSH1 0x0 REVERT JUMPDEST PUSH2 0x14F5 DUP3 PUSH2 0x14AC JUMP JUMPDEST DUP2 ADD DUP2 DUP2 LT PUSH8 0xFFFFFFFFFFFFFFFF DUP3 GT OR ISZERO PUSH2 0x1514 JUMPI PUSH2 0x1513 PUSH2 0x14BD JUMP JUMPDEST JUMPDEST DUP1 PUSH1 0x40 MSTORE POP POP POP JUMP JUMPDEST PUSH1 0x0 PUSH2 0x1527 PUSH2 0x148E JUMP JUMPDEST SWAP1 POP PUSH2 0x1533 DUP3 DUP3 PUSH2 0x14EC JUMP JUMPDEST SWAP2 SWAP1 POP JUMP JUMPDEST PUSH1 0x0 PUSH8 0xFFFFFFFFFFFFFFFF DUP3 GT ISZERO PUSH2 0x1553 JUMPI PUSH2 0x1552 PUSH2 0x14BD JUMP JUMPDEST JUMPDEST PUSH2 0x155C DUP3 PUSH2 0x14AC JUMP JUMPDEST SWAP1 POP PUSH1 0x20 DUP2 ADD SWAP1 POP SWAP2 SWAP1 POP JUMP JUMPDEST DUP3 DUP2 DUP4 CALLDATACOPY PUSH1 0x0 DUP4 DUP4 ADD MSTORE POP POP POP JUMP JUMPDEST PUSH1 0x0 PUSH2 0x158B PUSH2 0x1586 DUP5 PUSH2 0x1538 JUMP JUMPDEST PUSH2 0x151D JUMP JUMPDEST SWAP1 POP DUP3 DUP2 MSTORE PUSH1 0x20 DUP2 ADD DUP5 DUP5 DUP5 ADD GT ISZERO PUSH2 0x15A7 JUMPI PUSH2 0x15A6 PUSH2 0x14A7 JUMP JUMPDEST JUMPDEST PUSH2 0x15B2 DUP5 DUP3 DUP6 PUSH2 0x1569 JUMP JUMPDEST POP SWAP4 SWAP3 POP POP POP JUMP JUMPDEST PUSH1 0x0 DUP3 PUSH1 0x1F DUP4 ADD SLT PUSH2 0x15CF JUMPI PUSH2 0x15CE PUSH2 0x14A2 JUMP JUMPDEST JUMPDEST DUP2 CALLDATALOAD PUSH2 0x15DF DUP5 DUP3 PUSH1 0x20 DUP7 ADD PUSH2 0x1578 JUMP JUMPDEST SWAP2 POP POP SWAP3 SWAP2 POP POP JUMP JUMPDEST PUSH1 0x0 PUSH1 0x20 DUP3 DUP5 SUB SLT ISZERO PUSH2 0x15FE JUMPI PUSH2 0x15FD PUSH2 0x1498 JUMP JUMPDEST JUMPDEST PUSH1 0x0 DUP3 ADD CALLDATALOAD PUSH8 0xFFFFFFFFFFFFFFFF DUP2 GT ISZERO PUSH2 0x161C JUMPI PUSH2 0x161B PUSH2 0x149D JUMP JUMPDEST JUMPDEST PUSH2 0x1628 DUP5 DUP3 DUP6 ADD PUSH2 0x15BA JUMP JUMPDEST SWAP2 POP POP SWAP3 SWAP2 POP POP JUMP JUMPDEST PUSH1 0x0 DUP2 SWAP1 POP SWAP2 SWAP1 POP JUMP JUMPDEST PUSH2 0x1644 DUP2 PUSH2 0x1631 JUMP JUMPDEST DUP3 MSTORE POP POP JUMP JUMPDEST PUSH1 0x0 PUSH20 0xFFFFFFFFFFFFFFFFFFFFFFFFFFFFFFFFFFFFFFFF DUP3 AND SWAP1 POP SWAP2 SWAP1 POP JUMP JUMPDEST PUSH1 0x0 PUSH2 0x1675 DUP3 PUSH2 0x164A JUMP JUMPDEST SWAP1 POP SWAP2 SWAP1 POP JUMP JUMPDEST PUSH2 0x1685 DUP2 PUSH2 0x166A JUMP JUMPDEST DUP3 MSTORE POP POP JUMP JUMPDEST PUSH1 0x0 PUSH1 0x40 DUP3 ADD SWAP1 POP PUSH2 0x16A0 PUSH1 0x0 DUP4 ADD DUP6 PUSH2 0x163B JUMP JUMPDEST PUSH2 0x16AD PUSH1 0x20 DUP4 ADD DUP5 PUSH2 0x167C JUMP JUMPDEST SWAP4 SWAP3 POP POP POP JUMP JUMPDEST PUSH1 0x0 DUP2 MLOAD SWAP1 POP SWAP2 SWAP1 POP JUMP JUMPDEST PUSH1 0x0 DUP3 DUP3 MSTORE PUSH1 0x20 DUP3 ADD SWAP1 POP SWAP3 SWAP2 POP POP JUMP JUMPDEST PUSH1 0x0 JUMPDEST DUP4 DUP2 LT ISZERO PUSH2 0x16EE JUMPI DUP1 DUP3 ADD MLOAD DUP2 DUP5 ADD MSTORE PUSH1 0x20 DUP2 ADD SWAP1 POP PUSH2 0x16D3 JUMP JUMPDEST PUSH1 0x0 DUP5 DUP5 ADD MSTORE POP POP POP POP JUMP JUMPDEST PUSH1 0x0 PUSH2 0x1705 DUP3 PUSH2 0x16B4 JUMP JUMPDEST PUSH2 0x170F DUP2 DUP6 PUSH2 0x16BF JUMP JUMPDEST SWAP4 POP PUSH2 0x171F DUP2 DUP6 PUSH1 0x20 DUP7 ADD PUSH2 0x16D0 JUMP JUMPDEST PUSH2 0x1728 DUP2 PUSH2 0x14AC JUMP JUMPDEST DUP5 ADD SWAP2 POP POP SWAP3 SWAP2 POP POP JUMP JUMPDEST PUSH1 0x0 PUSH1 0x20 DUP3 ADD SWAP1 POP DUP2 DUP2 SUB PUSH1 0x0 DUP4 ADD MSTORE PUSH2 0x174D DUP2 DUP5 PUSH2 0x16FA JUMP JUMPDEST SWAP1 POP SWAP3 SWAP2 POP POP JUMP JUMPDEST PUSH2 0x175E DUP2 PUSH2 0x166A JUMP JUMPDEST DUP2 EQ PUSH2 0x1769 JUMPI PUSH1 0x0 DUP1 REVERT JUMPDEST POP JUMP JUMPDEST PUSH1 0x0 DUP2 CALLDATALOAD SWAP1 POP PUSH2 0x177B DUP2 PUSH2 0x1755 JUMP JUMPDEST SWAP3 SWAP2 POP POP JUMP JUMPDEST PUSH2 0x178A DUP2 PUSH2 0x1631 JUMP JUMPDEST DUP2 EQ PUSH2 0x1795 JUMPI PUSH1 0x0 DUP1 REVERT JUMPDEST POP JUMP JUMPDEST PUSH1 0x0 DUP2 CALLDATALOAD SWAP1 POP PUSH2 0x17A7 DUP2 PUSH2 0x1781 JUMP JUMPDEST SWAP3 SWAP2 POP POP JUMP JUMPDEST PUSH1 0x0 DUP1 PUSH1 0x40 DUP4 DUP6 SUB SLT ISZERO PUSH2 0x17C4 JUMPI PUSH2 0x17C3 PUSH2 0x1498 JUMP JUMPDEST JUMPDEST PUSH1 0x0 PUSH2 0x17D2 DUP6 DUP3 DUP7 ADD PUSH2 0x176C JUMP JUMPDEST SWAP3 POP POP PUSH1 0x20 PUSH2 0x17E3 DUP6 DUP3 DUP7 ADD PUSH2 0x1798 JUMP JUMPDEST SWAP2 POP POP SWAP3 POP SWAP3 SWAP1 POP JUMP JUMPDEST PUSH1 0x0 DUP2 ISZERO ISZERO SWAP1 POP SWAP2 SWAP1 POP JUMP JUMPDEST PUSH2 0x1802 DUP2 PUSH2 0x17ED JUMP JUMPDEST DUP3 MSTORE POP POP JUMP JUMPDEST PUSH1 0x0 PUSH1 0x20 DUP3 ADD SWAP1 POP PUSH2 0x181D PUSH1 0x0 DUP4 ADD DUP5 PUSH2 0x17F9 JUMP JUMPDEST SWAP3 SWAP2 POP POP JUMP JUMPDEST PUSH1 0x0 PUSH1 0x20 DUP3 ADD SWAP1 POP PUSH2 0x1838 PUSH1 0x0 DUP4 ADD DUP5 PUSH2 0x163B JUMP JUMPDEST SWAP3 SWAP2 POP POP JUMP JUMPDEST PUSH1 0x0 PUSH1 0x20 DUP3 DUP5 SUB SLT ISZERO PUSH2 0x1854 JUMPI PUSH2 0x1853 PUSH2 0x1498 JUMP JUMPDEST JUMPDEST PUSH1 0x0 PUSH2 0x1862 DUP5 DUP3 DUP6 ADD PUSH2 0x1798 JUMP JUMPDEST SWAP2 POP POP SWAP3 SWAP2 POP POP JUMP JUMPDEST PUSH2 0x1874 DUP2 PUSH2 0x164A JUMP JUMPDEST DUP3 MSTORE POP POP JUMP JUMPDEST PUSH1 0x0 PUSH1 0x60 DUP3 ADD SWAP1 POP DUP2 DUP2 SUB PUSH1 0x0 DUP4 ADD MSTORE PUSH2 0x1894 DUP2 DUP7 PUSH2 0x16FA JUMP JUMPDEST SWAP1 POP PUSH2 0x18A3 PUSH1 0x20 DUP4 ADD DUP6 PUSH2 0x186B JUMP JUMPDEST PUSH2 0x18B0 PUSH1 0x40 DUP4 ADD DUP5 PUSH2 0x167C JUMP JUMPDEST SWAP5 SWAP4 POP POP POP POP JUMP JUMPDEST PUSH1 0x0 DUP1 PUSH1 0x0 PUSH1 0x60 DUP5 DUP7 SUB SLT ISZERO PUSH2 0x18D1 JUMPI PUSH2 0x18D0 PUSH2 0x1498 JUMP JUMPDEST JUMPDEST PUSH1 0x0 PUSH2 0x18DF DUP7 DUP3 DUP8 ADD PUSH2 0x176C JUMP JUMPDEST SWAP4 POP POP PUSH1 0x20 PUSH2 0x18F0 DUP7 DUP3 DUP8 ADD PUSH2 0x176C JUMP JUMPDEST SWAP3 POP POP PUSH1 0x40 PUSH2 0x1901 DUP7 DUP3 DUP8 ADD PUSH2 0x1798 JUMP JUMPDEST SWAP2 POP POP SWAP3 POP SWAP3 POP SWAP3 JUMP JUMPDEST PUSH1 0x0 PUSH1 0xFF DUP3 AND SWAP1 POP SWAP2 SWAP1 POP JUMP JUMPDEST PUSH2 0x1921 DUP2 PUSH2 0x190B JUMP JUMPDEST DUP3 MSTORE POP POP JUMP JUMPDEST PUSH1 0x0 PUSH1 0x20 DUP3 ADD SWAP1 POP PUSH2 0x193C PUSH1 0x0 DUP4 ADD DUP5 PUSH2 0x1918 JUMP JUMPDEST SWAP3 SWAP2 POP POP JUMP JUMPDEST PUSH1 0x0 PUSH1 0x20 DUP3 ADD SWAP1 POP PUSH2 0x1957 PUSH1 0x0 DUP4 ADD DUP5 PUSH2 0x186B JUMP JUMPDEST SWAP3 SWAP2 POP POP JUMP JUMPDEST PUSH1 0x0 PUSH1 0x20 DUP3 DUP5 SUB SLT ISZERO PUSH2 0x1973 JUMPI PUSH2 0x1972 PUSH2 0x1498 JUMP JUMPDEST JUMPDEST PUSH1 0x0 PUSH2 0x1981 DUP5 DUP3 DUP6 ADD PUSH2 0x176C JUMP JUMPDEST SWAP2 POP POP SWAP3 SWAP2 POP POP JUMP JUMPDEST PUSH1 0x0 PUSH1 0x20 DUP3 ADD SWAP1 POP PUSH2 0x199F PUSH1 0x0 DUP4 ADD DUP5 PUSH2 0x167C JUMP JUMPDEST SWAP3 SWAP2 POP POP JUMP JUMPDEST PUSH1 0x0 DUP1 PUSH1 0x40 DUP4 DUP6 SUB SLT ISZERO PUSH2 0x19BC JUMPI PUSH2 0x19BB PUSH2 0x1498 JUMP JUMPDEST JUMPDEST PUSH1 0x0 PUSH2 0x19CA DUP6 DUP3 DUP7 ADD PUSH2 0x176C JUMP JUMPDEST SWAP3 POP POP PUSH1 0x20 PUSH2 0x19DB DUP6 DUP3 DUP7 ADD PUSH2 0x176C JUMP JUMPDEST SWAP2 POP POP SWAP3 POP SWAP3 SWAP1 POP JUMP JUMPDEST PUSH1 0x0 DUP2 SWAP1 POP SWAP3 SWAP2 POP POP JUMP JUMPDEST PUSH1 0x0 PUSH2 0x19FB DUP3 PUSH2 0x16B4 JUMP JUMPDEST PUSH2 0x1A05 DUP2 DUP6 PUSH2 0x19E5 JUMP JUMPDEST SWAP4 POP PUSH2 0x1A15 DUP2 DUP6 PUSH1 0x20 DUP7 ADD PUSH2 0x16D0 JUMP JUMPDEST DUP1 DUP5 ADD SWAP2 POP POP SWAP3 SWAP2 POP POP JUMP JUMPDEST PUSH1 0x0 PUSH2 0x1A2D DUP3 DUP5 PUSH2 0x19F0 JUMP JUMPDEST SWAP2 POP DUP2 SWAP1 POP SWAP3 SWAP2 POP POP JUMP JUMPDEST PUSH32 0x4E487B7100000000000000000000000000000000000000000000000000000000 PUSH1 0x0 MSTORE PUSH1 0x22 PUSH1 0x4 MSTORE PUSH1 0x24 PUSH1 0x0 REVERT JUMPDEST PUSH1 0x0 PUSH1 0x2 DUP3 DIV SWAP1 POP PUSH1 0x1 DUP3 AND DUP1 PUSH2 0x1A7F JUMPI PUSH1 0x7F DUP3 AND SWAP2 POP JUMPDEST PUSH1 0x20 DUP3 LT DUP2 SUB PUSH2 0x1A92 JUMPI PUSH2 0x1A91 PUSH2 0x1A38 JUMP JUMPDEST JUMPDEST POP SWAP2 SWAP1 POP JUMP JUMPDEST PUSH32 0x4E487B7100000000000000000000000000000000000000000000000000000000 PUSH1 0x0 MSTORE PUSH1 0x11 PUSH1 0x4 MSTORE PUSH1 0x24 PUSH1 0x0 REVERT JUMPDEST PUSH1 0x0 PUSH2 0x1AD2 DUP3 PUSH2 0x190B JUMP JUMPDEST SWAP2 POP PUSH1 0xFF DUP3 SUB PUSH2 0x1AE5 JUMPI PUSH2 0x1AE4 PUSH2 0x1A98 JUMP JUMPDEST JUMPDEST PUSH1 0x1 DUP3 ADD SWAP1 POP SWAP2 SWAP1 POP JUMP JUMPDEST PUSH32 0x45524332303A3A204D696E7420616D6F756E742073686F756C64206265206772 PUSH1 0x0 DUP3 ADD MSTORE PUSH32 0x6561746572207468616E207A65726F0000000000000000000000000000000000 PUSH1 0x20 DUP3 ADD MSTORE POP JUMP JUMPDEST PUSH1 0x0 PUSH2 0x1B4C PUSH1 0x2F DUP4 PUSH2 0x16BF JUMP JUMPDEST SWAP2 POP PUSH2 0x1B57 DUP3 PUSH2 0x1AF0 JUMP JUMPDEST PUSH1 0x40 DUP3 ADD SWAP1 POP SWAP2 SWAP1 POP JUMP JUMPDEST PUSH1 0x0 PUSH1 0x20 DUP3 ADD SWAP1 POP DUP2 DUP2 SUB PUSH1 0x0 DUP4 ADD MSTORE PUSH2 0x1B7B DUP2 PUSH2 0x1B3F JUMP JUMPDEST SWAP1 POP SWAP2 SWAP1 POP JUMP JUMPDEST PUSH32 0x45524332303A3A20757365722073686F756C64206E6F7420626520657175616C PUSH1 0x0 DUP3 ADD MSTORE PUSH32 0x20746F2061646472657373207A65726F00000000000000000000000000000000 PUSH1 0x20 DUP3 ADD MSTORE POP JUMP JUMPDEST PUSH1 0x0 PUSH2 0x1BDE PUSH1 0x30 DUP4 PUSH2 0x16BF JUMP JUMPDEST SWAP2 POP PUSH2 0x1BE9 DUP3 PUSH2 0x1B82 JUMP JUMPDEST PUSH1 0x40 DUP3 ADD SWAP1 POP SWAP2 SWAP1 POP JUMP JUMPDEST PUSH1 0x0 PUSH1 0x20 DUP3 ADD SWAP1 POP DUP2 DUP2 SUB PUSH1 0x0 DUP4 ADD MSTORE PUSH2 0x1C0D DUP2 PUSH2 0x1BD1 JUMP JUMPDEST SWAP1 POP SWAP2 SWAP1 POP JUMP JUMPDEST PUSH1 0x0 DUP2 SWAP1 POP DUP2 PUSH1 0x0 MSTORE PUSH1 0x20 PUSH1 0x0 KECCAK256 SWAP1 POP SWAP2 SWAP1 POP JUMP JUMPDEST PUSH1 0x0 PUSH1 0x20 PUSH1 0x1F DUP4 ADD DIV SWAP1 POP SWAP2 SWAP1 POP JUMP JUMPDEST PUSH1 0x0 DUP3 DUP3 SHL SWAP1 POP SWAP3 SWAP2 POP POP JUMP JUMPDEST PUSH1 0x0 PUSH1 0x8 DUP4 MUL PUSH2 0x1C76 PUSH32 0xFFFFFFFFFFFFFFFFFFFFFFFFFFFFFFFFFFFFFFFFFFFFFFFFFFFFFFFFFFFFFFFF DUP3 PUSH2 0x1C39 JUMP JUMPDEST PUSH2 0x1C80 DUP7 DUP4 PUSH2 0x1C39 JUMP JUMPDEST SWAP6 POP DUP1 NOT DUP5 AND SWAP4 POP DUP1 DUP7 AND DUP5 OR SWAP3 POP POP POP SWAP4 SWAP3 POP POP POP JUMP JUMPDEST PUSH1 0x0 DUP2 SWAP1 POP SWAP2 SWAP1 POP JUMP JUMPDEST PUSH1 0x0 PUSH2 0x1CBD PUSH2 0x1CB8 PUSH2 0x1CB3 DUP5 PUSH2 0x1631 JUMP JUMPDEST PUSH2 0x1C98 JUMP JUMPDEST PUSH2 0x1631 JUMP JUMPDEST SWAP1 POP SWAP2 SWAP1 POP JUMP JUMPDEST PUSH1 0x0 DUP2 SWAP1 POP SWAP2 SWAP1 POP JUMP JUMPDEST PUSH2 0x1CD7 DUP4 PUSH2 0x1CA2 JUMP JUMPDEST PUSH2 0x1CEB PUSH2 0x1CE3 DUP3 PUSH2 0x1CC4 JUMP JUMPDEST DUP5 DUP5 SLOAD PUSH2 0x1C46 JUMP JUMPDEST DUP3 SSTORE POP POP POP POP JUMP JUMPDEST PUSH1 0x0 SWAP1 JUMP JUMPDEST PUSH2 0x1D00 PUSH2 0x1CF3 JUMP JUMPDEST PUSH2 0x1D0B DUP2 DUP5 DUP5 PUSH2 0x1CCE JUMP JUMPDEST POP POP POP JUMP JUMPDEST JUMPDEST DUP2 DUP2 LT ISZERO PUSH2 0x1D2F JUMPI PUSH2 0x1D24 PUSH1 0x0 DUP3 PUSH2 0x1CF8 JUMP JUMPDEST PUSH1 0x1 DUP2 ADD SWAP1 POP PUSH2 0x1D11 JUMP JUMPDEST POP POP JUMP JUMPDEST PUSH1 0x1F DUP3 GT ISZERO PUSH2 0x1D74 JUMPI PUSH2 0x1D45 DUP2 PUSH2 0x1C14 JUMP JUMPDEST PUSH2 0x1D4E DUP5 PUSH2 0x1C29 JUMP JUMPDEST DUP2 ADD PUSH1 0x20 DUP6 LT ISZERO PUSH2 0x1D5D JUMPI DUP2 SWAP1 POP JUMPDEST PUSH2 0x1D71 PUSH2 0x1D69 DUP6 PUSH2 0x1C29 JUMP JUMPDEST DUP4 ADD DUP3 PUSH2 0x1D10 JUMP JUMPDEST POP POP JUMPDEST POP POP POP JUMP JUMPDEST PUSH1 0x0 DUP3 DUP3 SHR SWAP1 POP SWAP3 SWAP2 POP POP JUMP JUMPDEST PUSH1 0x0 PUSH2 0x1D97 PUSH1 0x0 NOT DUP5 PUSH1 0x8 MUL PUSH2 0x1D79 JUMP JUMPDEST NOT DUP1 DUP4 AND SWAP2 POP POP SWAP3 SWAP2 POP POP JUMP JUMPDEST PUSH1 0x0 PUSH2 0x1DB0 DUP4 DUP4 PUSH2 0x1D86 JUMP JUMPDEST SWAP2 POP DUP3 PUSH1 0x2 MUL DUP3 OR SWAP1 POP SWAP3 SWAP2 POP POP JUMP JUMPDEST PUSH2 0x1DC9 DUP3 PUSH2 0x16B4 JUMP JUMPDEST PUSH8 0xFFFFFFFFFFFFFFFF DUP2 GT ISZERO PUSH2 0x1DE2 JUMPI PUSH2 0x1DE1 PUSH2 0x14BD JUMP JUMPDEST JUMPDEST PUSH2 0x1DEC DUP3 SLOAD PUSH2 0x1A67 JUMP JUMPDEST PUSH2 0x1DF7 DUP3 DUP3 DUP6 PUSH2 0x1D33 JUMP JUMPDEST PUSH1 0x0 PUSH1 0x20 SWAP1 POP PUSH1 0x1F DUP4 GT PUSH1 0x1 DUP2 EQ PUSH2 0x1E2A JUMPI PUSH1 0x0 DUP5 ISZERO PUSH2 0x1E18 JUMPI DUP3 DUP8 ADD MLOAD SWAP1 POP JUMPDEST PUSH2 0x1E22 DUP6 DUP3 PUSH2 0x1DA4 JUMP JUMPDEST DUP7 SSTORE POP PUSH2 0x1E8A JUMP JUMPDEST PUSH1 0x1F NOT DUP5 AND PUSH2 0x1E38 DUP7 PUSH2 0x1C14 JUMP JUMPDEST PUSH1 0x0 JUMPDEST DUP3 DUP2 LT ISZERO PUSH2 0x1E60 JUMPI DUP5 DUP10 ADD MLOAD DUP3 SSTORE PUSH1 0x1 DUP3 ADD SWAP2 POP PUSH1 0x20 DUP6 ADD SWAP5 POP PUSH1 0x20 DUP2 ADD SWAP1 POP PUSH2 0x1E3B JUMP JUMPDEST DUP7 DUP4 LT ISZERO PUSH2 0x1E7D JUMPI DUP5 DUP10 ADD MLOAD PUSH2 0x1E79 PUSH1 0x1F DUP10 AND DUP3 PUSH2 0x1D86 JUMP JUMPDEST DUP4 SSTORE POP JUMPDEST PUSH1 0x1 PUSH1 0x2 DUP9 MUL ADD DUP9 SSTORE POP POP POP JUMPDEST POP POP POP POP POP POP JUMP JUMPDEST PUSH1 0x0 PUSH1 0x60 DUP3 ADD SWAP1 POP PUSH2 0x1EA7 PUSH1 0x0 DUP4 ADD DUP7 PUSH2 0x167C JUMP JUMPDEST PUSH2 0x1EB4 PUSH1 0x20 DUP4 ADD DUP6 PUSH2 0x163B JUMP JUMPDEST PUSH2 0x1EC1 PUSH1 0x40 DUP4 ADD DUP5 PUSH2 0x163B JUMP JUMPDEST SWAP5 SWAP4 POP POP POP POP JUMP JUMPDEST PUSH1 0x0 PUSH2 0x1ED4 DUP3 PUSH2 0x1631 JUMP JUMPDEST SWAP2 POP PUSH2 0x1EDF DUP4 PUSH2 0x1631 JUMP JUMPDEST SWAP3 POP DUP3 DUP3 ADD SWAP1 POP DUP1 DUP3 GT ISZERO PUSH2 0x1EF7 JUMPI PUSH2 0x1EF6 PUSH2 0x1A98 JUMP JUMPDEST JUMPDEST SWAP3 SWAP2 POP POP JUMP INVALID LOG2 PUSH5 0x6970667358 0x22 SLT KECCAK256 PUSH5 0x50326D6301 CALL SHR PUSH27 0xEAEA3E8C40415BF3275534EABB48F14040B771269226AD64736F6C PUSH4 0x43000813 STOP CALLER "
				},
				"gasEstimates": {
					"creation": {
						"codeDepositCost": "1597400",
						"executionCost": "infinite",
						"totalCost": "infinite"
					},
					"external": {
						"allowance(address,address)": "infinite",
						"approve(address,uint256)": "infinite",
						"balanceOf(address)": "2864",
						"decimals()": "432",
						"getAssignedWalletAndSupply(string)": "infinite",
						"getLatestSale()": "infinite",
						"getMaxSupply()": "454",
						"mint()": "infinite",
						"mintedSale(uint256)": "infinite",
						"mintingCounter()": "2581",
						"name()": "infinite",
						"owner()": "2589",
						"renounceOwnership()": "infinite",
						"symbol()": "infinite",
						"totalSupply()": "2460",
						"transfer(address,uint256)": "infinite",
						"transferFrom(address,address,uint256)": "infinite",
						"transferOwnership(address)": "infinite"
					},
					"internal": {
						"_calcSaleSupply(uint8,string memory,address,uint160)": "infinite",
						"_setCommissions(address)": "infinite",
						"_setSaleSupplyWallet(string memory,address,uint256)": "infinite"
					}
				},
				"methodIdentifiers": {
					"allowance(address,address)": "dd62ed3e",
					"approve(address,uint256)": "095ea7b3",
					"balanceOf(address)": "70a08231",
					"decimals()": "313ce567",
					"getAssignedWalletAndSupply(string)": "060a9aeb",
					"getLatestSale()": "944df045",
					"getMaxSupply()": "4c0f38c2",
					"mint()": "1249c58b",
					"mintedSale(uint256)": "2240166d",
					"mintingCounter()": "f3d22d38",
					"name()": "06fdde03",
					"owner()": "8da5cb5b",
					"renounceOwnership()": "715018a6",
					"symbol()": "95d89b41",
					"totalSupply()": "18160ddd",
					"transfer(address,uint256)": "a9059cbb",
					"transferFrom(address,address,uint256)": "23b872dd",
					"transferOwnership(address)": "f2fde38b"
				}
			},
			"storageLayout": {
				"storage": [
					{
						"astId": 307,
						"contract": "contracts/Anryton.sol:Anryton",
						"label": "_balances",
						"offset": 0,
						"slot": "0",
						"type": "t_mapping(t_address,t_uint256)"
					},
					{
						"astId": 313,
						"contract": "contracts/Anryton.sol:Anryton",
						"label": "_allowances",
						"offset": 0,
						"slot": "1",
						"type": "t_mapping(t_address,t_mapping(t_address,t_uint256))"
					},
					{
						"astId": 315,
						"contract": "contracts/Anryton.sol:Anryton",
						"label": "_totalSupply",
						"offset": 0,
						"slot": "2",
						"type": "t_uint256"
					},
					{
						"astId": 317,
						"contract": "contracts/Anryton.sol:Anryton",
						"label": "_name",
						"offset": 0,
						"slot": "3",
						"type": "t_string_storage"
					},
					{
						"astId": 319,
						"contract": "contracts/Anryton.sol:Anryton",
						"label": "_symbol",
						"offset": 0,
						"slot": "4",
						"type": "t_string_storage"
					},
					{
						"astId": 8,
						"contract": "contracts/Anryton.sol:Anryton",
						"label": "_owner",
						"offset": 0,
						"slot": "5",
						"type": "t_address"
					},
					{
						"astId": 954,
						"contract": "contracts/Anryton.sol:Anryton",
						"label": "_latestSale",
						"offset": 0,
						"slot": "6",
						"type": "t_string_storage"
					},
					{
						"astId": 957,
						"contract": "contracts/Anryton.sol:Anryton",
						"label": "mintingCounter",
						"offset": 0,
						"slot": "7",
						"type": "t_uint8"
					},
					{
						"astId": 962,
						"contract": "contracts/Anryton.sol:Anryton",
						"label": "assignedWalletToSale",
						"offset": 0,
						"slot": "8",
						"type": "t_mapping(t_string_memory_ptr,t_address)"
					},
					{
						"astId": 968,
						"contract": "contracts/Anryton.sol:Anryton",
						"label": "mintedWalletSupply",
						"offset": 0,
						"slot": "9",
						"type": "t_mapping(t_string_memory_ptr,t_mapping(t_address,t_uint256))"
					},
					{
						"astId": 973,
						"contract": "contracts/Anryton.sol:Anryton",
						"label": "mintedSale",
						"offset": 0,
						"slot": "10",
						"type": "t_mapping(t_uint256,t_struct(MintingSale)948_storage)"
					}
				],
				"types": {
					"t_address": {
						"encoding": "inplace",
						"label": "address",
						"numberOfBytes": "20"
					},
					"t_mapping(t_address,t_mapping(t_address,t_uint256))": {
						"encoding": "mapping",
						"key": "t_address",
						"label": "mapping(address => mapping(address => uint256))",
						"numberOfBytes": "32",
						"value": "t_mapping(t_address,t_uint256)"
					},
					"t_mapping(t_address,t_uint256)": {
						"encoding": "mapping",
						"key": "t_address",
						"label": "mapping(address => uint256)",
						"numberOfBytes": "32",
						"value": "t_uint256"
					},
					"t_mapping(t_string_memory_ptr,t_address)": {
						"encoding": "mapping",
						"key": "t_string_memory_ptr",
						"label": "mapping(string => address)",
						"numberOfBytes": "32",
						"value": "t_address"
					},
					"t_mapping(t_string_memory_ptr,t_mapping(t_address,t_uint256))": {
						"encoding": "mapping",
						"key": "t_string_memory_ptr",
						"label": "mapping(string => mapping(address => uint256))",
						"numberOfBytes": "32",
						"value": "t_mapping(t_address,t_uint256)"
					},
					"t_mapping(t_uint256,t_struct(MintingSale)948_storage)": {
						"encoding": "mapping",
						"key": "t_uint256",
						"label": "mapping(uint256 => struct Anryton.MintingSale)",
						"numberOfBytes": "32",
						"value": "t_struct(MintingSale)948_storage"
					},
					"t_string_memory_ptr": {
						"encoding": "bytes",
						"label": "string",
						"numberOfBytes": "32"
					},
					"t_string_storage": {
						"encoding": "bytes",
						"label": "string",
						"numberOfBytes": "32"
					},
					"t_struct(MintingSale)948_storage": {
						"encoding": "inplace",
						"label": "struct Anryton.MintingSale",
						"members": [
							{
								"astId": 943,
								"contract": "contracts/Anryton.sol:Anryton",
								"label": "name",
								"offset": 0,
								"slot": "0",
								"type": "t_string_storage"
							},
							{
								"astId": 945,
								"contract": "contracts/Anryton.sol:Anryton",
								"label": "supply",
								"offset": 0,
								"slot": "1",
								"type": "t_uint160"
							},
							{
								"astId": 947,
								"contract": "contracts/Anryton.sol:Anryton",
								"label": "walletAddress",
								"offset": 0,
								"slot": "2",
								"type": "t_address"
							}
						],
						"numberOfBytes": "96"
					},
					"t_uint160": {
						"encoding": "inplace",
						"label": "uint160",
						"numberOfBytes": "20"
					},
					"t_uint256": {
						"encoding": "inplace",
						"label": "uint256",
						"numberOfBytes": "32"
					},
					"t_uint8": {
						"encoding": "inplace",
						"label": "uint8",
						"numberOfBytes": "1"
					}
				}
			},
			"userdoc": {
				"kind": "user",
				"methods": {},
				"version": 1
			}
		}
	}
}