{
	"data": {
		"bytecode": {
			"linkReferences": {},
			"object": "60a060405260006001556064600560006101000a81548161ffff021916908361ffff1602179055503480156200003457600080fd5b50604051620063883803806200638883398181016040528101906200005a919062000637565b8033600073ffffffffffffffffffffffffffffffffffffffff168173ffffffffffffffffffffffffffffffffffffffff1603620000d15760006040517f1e4fbdf7000000000000000000000000000000000000000000000000000000008152600401620000c891906200067a565b60405180910390fd5b620000e2816200013760201b60201c565b508073ffffffffffffffffffffffffffffffffffffffff1660808173ffffffffffffffffffffffffffffffffffffffff168152505062000127620001fb60201b60201c565b5060016004819055505062000d5e565b60008060009054906101000a900473ffffffffffffffffffffffffffffffffffffffff169050816000806101000a81548173ffffffffffffffffffffffffffffffffffffffff021916908373ffffffffffffffffffffffffffffffffffffffff1602179055508173ffffffffffffffffffffffffffffffffffffffff168173ffffffffffffffffffffffffffffffffffffffff167f8be0079c531659141344cd1fd0a4f28419497f9722a3daafe3b4186f6b6457e060405160405180910390a35050565b6200020b6200020d60201b60201c565b565b6200021d6200027460201b60201c565b600042905060006001600081546200023590620006d0565b91905081905590506000806000620002526200031660201b60201c565b9250925092506200026d84848484896200043060201b60201c565b5050505050565b620002846200058d60201b60201c565b73ffffffffffffffffffffffffffffffffffffffff16620002aa6200059560201b60201c565b73ffffffffffffffffffffffffffffffffffffffff16146200031457620002d66200058d60201b60201c565b6040517f118cdaa70000000000000000000000000000000000000000000000000000000081526004016200030b91906200067a565b60405180910390fd5b565b6060600080600060805173ffffffffffffffffffffffffffffffffffffffff1663944df0456040518163ffffffff1660e01b8152600401600060405180830381865afa1580156200036b573d6000803e3d6000fd5b505050506040513d6000823e3d601f19601f820116820180604052508101906200039691906200089c565b905060008060805173ffffffffffffffffffffffffffffffffffffffff1663060a9aeb846040518263ffffffff1660e01b8152600401620003d891906200094a565b6040805180830381865afa158015620003f5573d6000803e3d6000fd5b505050506040513d601f19601f820116820180604052508101906200041b91906200099f565b91509150828282955095509550505050909192565b8360036000878152602001908152602001600020600001908162000455919062000c1c565b50826003600087815260200190815260200160002060010160006101000a81548173ffffffffffffffffffffffffffffffffffffffff021916908373ffffffffffffffffffffffffffffffffffffffff160217905550816003600087815260200190815260200160002060020160006101000a81548173ffffffffffffffffffffffffffffffffffffffff021916908373ffffffffffffffffffffffffffffffffffffffff160217905550806003600087815260200190815260200160002060030181905550846002856040516200052e919062000d45565b908152602001604051809103902081905550808460405162000551919062000d45565b6040518091039020867f0c19bb44b59579be200a2b8014813f052e8d673471778b18db3aae536dce7ba560405160405180910390a45050505050565b600033905090565b60008060009054906101000a900473ffffffffffffffffffffffffffffffffffffffff16905090565b6000604051905090565b600080fd5b600080fd5b600073ffffffffffffffffffffffffffffffffffffffff82169050919050565b6000620005ff82620005d2565b9050919050565b6200061181620005f2565b81146200061d57600080fd5b50565b600081519050620006318162000606565b92915050565b60006020828403121562000650576200064f620005c8565b5b6000620006608482850162000620565b91505092915050565b6200067481620005f2565b82525050565b600060208201905062000691600083018462000669565b92915050565b7f4e487b7100000000000000000000000000000000000000000000000000000000600052601160045260246000fd5b6000819050919050565b6000620006dd82620006c6565b91507fffffffffffffffffffffffffffffffffffffffffffffffffffffffffffffffff820362000712576200071162000697565b5b600182019050919050565b600080fd5b600080fd5b6000601f19601f8301169050919050565b7f4e487b7100000000000000000000000000000000000000000000000000000000600052604160045260246000fd5b620007728262000727565b810181811067ffffffffffffffff8211171562000794576200079362000738565b5b80604052505050565b6000620007a9620005be565b9050620007b7828262000767565b919050565b600067ffffffffffffffff821115620007da57620007d962000738565b5b620007e58262000727565b9050602081019050919050565b60005b8381101562000812578082015181840152602081019050620007f5565b60008484015250505050565b6000620008356200082f84620007bc565b6200079d565b90508281526020810184848401111562000854576200085362000722565b5b62000861848285620007f2565b509392505050565b600082601f8301126200088157620008806200071d565b5b8151620008938482602086016200081e565b91505092915050565b600060208284031215620008b557620008b4620005c8565b5b600082015167ffffffffffffffff811115620008d657620008d5620005cd565b5b620008e48482850162000869565b91505092915050565b600081519050919050565b600082825260208201905092915050565b60006200091682620008ed565b620009228185620008f8565b935062000934818560208601620007f2565b6200093f8162000727565b840191505092915050565b6000602082019050818103600083015262000966818462000909565b905092915050565b6200097981620006c6565b81146200098557600080fd5b50565b60008151905062000999816200096e565b92915050565b60008060408385031215620009b957620009b8620005c8565b5b6000620009c98582860162000988565b9250506020620009dc8582860162000620565b9150509250929050565b7f4e487b7100000000000000000000000000000000000000000000000000000000600052602260045260246000fd5b6000600282049050600182168062000a2e57607f821691505b60208210810362000a445762000a43620009e6565b5b50919050565b60008190508160005260206000209050919050565b60006020601f8301049050919050565b600082821b905092915050565b60006008830262000aae7fffffffffffffffffffffffffffffffffffffffffffffffffffffffffffffffff8262000a6f565b62000aba868362000a6f565b95508019841693508086168417925050509392505050565b6000819050919050565b600062000afd62000af762000af184620006c6565b62000ad2565b620006c6565b9050919050565b6000819050919050565b62000b198362000adc565b62000b3162000b288262000b04565b84845462000a7c565b825550505050565b600090565b62000b4862000b39565b62000b5581848462000b0e565b505050565b5b8181101562000b7d5762000b7160008262000b3e565b60018101905062000b5b565b5050565b601f82111562000bcc5762000b968162000a4a565b62000ba18462000a5f565b8101602085101562000bb1578190505b62000bc962000bc08562000a5f565b83018262000b5a565b50505b505050565b600082821c905092915050565b600062000bf16000198460080262000bd1565b1980831691505092915050565b600062000c0c838362000bde565b9150826002028217905092915050565b62000c2782620008ed565b67ffffffffffffffff81111562000c435762000c4262000738565b5b62000c4f825462000a15565b62000c5c82828562000b81565b600060209050601f83116001811462000c94576000841562000c7f578287015190505b62000c8b858262000bfe565b86555062000cfb565b601f19841662000ca48662000a4a565b60005b8281101562000cce5784890151825560018201915060208501945060208101905062000ca7565b8683101562000cee578489015162000cea601f89168262000bde565b8355505b6001600288020188555050505b505050505050565b600081905092915050565b600062000d1b82620008ed565b62000d27818562000d03565b935062000d39818560208601620007f2565b80840191505092915050565b600062000d53828462000d0e565b915081905092915050565b6080516155d662000db26000396000818161072501528181610cf4015281816113a60152818161143f01528181611f6b01528181612ead015281816131e0015281816135e2015261392201526155d66000f3fe608060405234801561001057600080fd5b506004361061014d5760003560e01c80638da5cb5b116100c3578063d6d681771161007c578063d6d68177146103d9578063df81ddc51461040d578063e388c4231461043d578063f0509d401461046d578063f2fde38b1461049d578063fc0c546a146104b95761014d565b80638da5cb5b1461030f57806398f36ca71461032d578063a87430ba14610349578063aa9a09121461037f578063b66a0e5d146103af578063c5dc51d4146103b95761014d565b80633ccfd60b116101155780633ccfd60b1461024b57806354f9eede14610269578063715018a61461029957806381e1ccba146102a35780638734c045146102c15780638ce902f2146102f15761014d565b806302eb4b88146101525780630ee141c2146101855780631849d8ea146101b8578063191a07b4146101eb5780632c7283c31461021b575b600080fd5b61016c60048036038101906101679190613e3a565b6104d7565b60405161017c9493929190613f56565b60405180910390f35b61019f600480360381019061019a9190613fce565b6105cf565b6040516101af9493929190614063565b60405180910390f35b6101d260048036038101906101cd9190613fce565b610644565b6040516101e294939291906140e0565b60405180910390f35b61020560048036038101906102009190614177565b6106d7565b60405161021291906141b7565b60405180910390f35b61023560048036038101906102309190614307565b6107d7565b6040516102429190614350565b60405180910390f35b610253610805565b60405161026091906141b7565b60405180910390f35b610283600480360381019061027e919061436b565b610d9c565b6040516102909190614350565b60405180910390f35b6102a1611020565b005b6102ab611034565b6040516102b891906143b5565b60405180910390f35b6102db60048036038101906102d69190614307565b611048565b6040516102e891906141b7565b60405180910390f35b6102f961114b565b6040516103069190614350565b60405180910390f35b610317611155565b60405161032491906143d0565b60405180910390f35b61034760048036038101906103429190614424565b61117e565b005b610363600480360381019061035e919061436b565b611238565b60405161037697969594939291906144cf565b60405180910390f35b6103996004803603810190610394919061453e565b61132e565b6040516103a69190614350565b60405180910390f35b6103b7611350565b005b6103c161139d565b6040516103d093929190614591565b60405180910390f35b6103f360048036038101906103ee9190613fce565b6114eb565b6040516104049594939291906145de565b60405180910390f35b61042760048036038101906104229190614664565b61160f565b60405161043491906141b7565b60405180910390f35b6104576004803603810190610452919061436b565b611933565b6040516104649190614350565b60405180910390f35b6104876004803603810190610482919061436b565b611c31565b6040516104949190614350565b60405180910390f35b6104b760048036038101906104b2919061436b565b611ee3565b005b6104c1611f69565b6040516104ce9190614732565b60405180910390f35b60036020528060005260406000206000915090508060000180546104fa9061477c565b80601f01602080910402602001604051908101604052809291908181526020018280546105269061477c565b80156105735780601f1061054857610100808354040283529160200191610573565b820191906000526020600020905b81548152906001019060200180831161055657829003601f168201915b5050505050908060010160009054906101000a900473ffffffffffffffffffffffffffffffffffffffff16908060020160009054906101000a900473ffffffffffffffffffffffffffffffffffffffff16908060030154905084565b6008602052816000526040600020602052806000526040600020600091509150508060000160009054906101000a90047effffffffffffffffffffffffffffffffffffffffffffffffffffffffffffff16908060010154908060020154908060030160009054906101000a900460ff16905084565b6007602052816000526040600020602052806000526040600020600091509150508060000160009054906101000a90047cffffffffffffffffffffffffffffffffffffffffffffffffffffffffff16908060010160009054906101000a900473ffffffffffffffffffffffffffffffffffffffff16908060020154908060030160009054906101000a900460ff16905084565b60006106e1611f8d565b61072183836040518060400160405280600781526020017f4445504f53495400000000000000000000000000000000000000000000000000815250611fd3565b60007f000000000000000000000000000000000000000000000000000000000000000073ffffffffffffffffffffffffffffffffffffffff166323b872dd3330866040518463ffffffff1660e01b8152600401610780939291906147de565b6020604051808303816000875af115801561079f573d6000803e3d6000fd5b505050506040513d601f19601f820116820180604052508101906107c39190614841565b9050809150506107d16123d0565b92915050565b6002818051602081018201805184825260208301602085012081835280955050505050506000915090505481565b6000804290506000806000600790505b602a8111610c4857600080600190505b600660003373ffffffffffffffffffffffffffffffffffffffff1673ffffffffffffffffffffffffffffffffffffffff168152602001908152602001600020600301600c9054906101000a900465ffffffffffff1665ffffffffffff168111610c26576000600960003373ffffffffffffffffffffffffffffffffffffffff1673ffffffffffffffffffffffffffffffffffffffff16815260200190815260200160002060008381526020019081526020016000206040518060a00160405290816000820160009054906101000a900479ffffffffffffffffffffffffffffffffffffffffffffffffffff1679ffffffffffffffffffffffffffffffffffffffffffffffffffff1679ffffffffffffffffffffffffffffffffffffffffffffffffffff1681526020016001820160009054906101000a900479ffffffffffffffffffffffffffffffffffffffffffffffffffff1679ffffffffffffffffffffffffffffffffffffffffffffffffffff1679ffffffffffffffffffffffffffffffffffffffffffffffffffff168152602001600282015481526020016003820180546109cf9061477c565b80601f01602080910402602001604051908101604052809291908181526020018280546109fb9061477c565b8015610a485780601f10610a1d57610100808354040283529160200191610a48565b820191906000526020600020905b815481529060010190602001808311610a2b57829003601f168201915b505050505081526020016004820160009054906101000a900460ff16151515158152505090508060800151610c12576000806000610a87878b866123da565b9250925092506000831115610c0e578289610aa2919061489d565b98508186610ab0919061489d565b95508273ffffffffffffffffffffffffffffffffffffffff16600960003373ffffffffffffffffffffffffffffffffffffffff1673ffffffffffffffffffffffffffffffffffffffff168152602001908152602001600020600087815260200190815260200160002060010160008282829054906101000a900479ffffffffffffffffffffffffffffffffffffffffffffffffffff16610b5091906148d1565b92506101000a81548179ffffffffffffffffffffffffffffffffffffffffffffffffffff021916908379ffffffffffffffffffffffffffffffffffffffffffffffffffff1602179055508015610c0d576001600960003373ffffffffffffffffffffffffffffffffffffffff1673ffffffffffffffffffffffffffffffffffffffff168152602001908152602001600020600087815260200190815260200160002060040160006101000a81548160ff0219169083151502179055505b5b5050505b508080610c1e9061491f565b915050610825565b506000811115610c34578092505b508080610c409061491f565b915050610815565b508082610c559190614967565b915060008211610c9a576040517f08c379a0000000000000000000000000000000000000000000000000000000008152600401610c9190614a0d565b60405180910390fd5b610cf0338373ffffffffffffffffffffffffffffffffffffffff166040518060400160405280600881526020017f5749544844524157000000000000000000000000000000000000000000000000815250611fd3565b60007f000000000000000000000000000000000000000000000000000000000000000073ffffffffffffffffffffffffffffffffffffffff1663a9059cbb33856040518363ffffffff1660e01b8152600401610d4d929190614a2d565b6020604051808303816000875af1158015610d6c573d6000803e3d6000fd5b505050506040513d601f19601f82011682018060405250810190610d909190614841565b90508094505050505090565b600080600660008473ffffffffffffffffffffffffffffffffffffffff1673ffffffffffffffffffffffffffffffffffffffff1681526020019081526020016000206040518060e00160405290816000820160009054906101000a900476ffffffffffffffffffffffffffffffffffffffffffffff1676ffffffffffffffffffffffffffffffffffffffffffffff1676ffffffffffffffffffffffffffffffffffffffffffffff1681526020016001820160009054906101000a900476ffffffffffffffffffffffffffffffffffffffffffffff1676ffffffffffffffffffffffffffffffffffffffffffffff1676ffffffffffffffffffffffffffffffffffffffffffffff1681526020016002820160009054906101000a90046fffffffffffffffffffffffffffffffff166fffffffffffffffffffffffffffffffff166fffffffffffffffffffffffffffffffff1681526020016002820160109054906101000a90046fffffffffffffffffffffffffffffffff166fffffffffffffffffffffffffffffffff166fffffffffffffffffffffffffffffffff1681526020016003820160009054906101000a900465ffffffffffff1665ffffffffffff1665ffffffffffff1681526020016003820160069054906101000a900465ffffffffffff1665ffffffffffff1665ffffffffffff16815260200160038201600c9054906101000a900465ffffffffffff1665ffffffffffff1665ffffffffffff16815250509050600081606001518260400151610fd79190614a56565b6fffffffffffffffffffffffffffffffff16905080826000015176ffffffffffffffffffffffffffffffffffffffffffffff166110149190614967565b90508092505050919050565b611028612919565b61103260006129a0565b565b600560009054906101000a900461ffff1681565b6000611052611f8d565b6000429050611096836040518060400160405280600881526020017f554e5f5354414b45000000000000000000000000000000000000000000000000815250612a64565b156110ad576110a53382612a7f565b91505061113e565b6110ec836040518060400160405280600781526020017f554e5f4c4f434b00000000000000000000000000000000000000000000000000815250612a64565b15611103576110fb3382612f58565b91505061113e565b6040517f08c379a000000000000000000000000000000000000000000000000000000000815260040161113590614b0c565b60405180910390fd5b6111466123d0565b919050565b6000600154905090565b60008060009054906101000a900473ffffffffffffffffffffffffffffffffffffffff16905090565b8060ff16600081116111c5576040517f08c379a00000000000000000000000000000000000000000000000000000000081526004016111bc90614b9e565b60405180910390fd5b6111cd612919565b8160ff16600560006101000a81548161ffff021916908361ffff1602179055503373ffffffffffffffffffffffffffffffffffffffff168260ff167fc33d7f95e5c54d034e8457f6c4cd07fe2d3402a6ae284ad891a2406f9d6e13a660405160405180910390a35050565b60066020528060005260406000206000915090508060000160009054906101000a900476ffffffffffffffffffffffffffffffffffffffffffffff16908060010160009054906101000a900476ffffffffffffffffffffffffffffffffffffffffffffff16908060020160009054906101000a90046fffffffffffffffffffffffffffffffff16908060020160109054906101000a90046fffffffffffffffffffffffffffffffff16908060030160009054906101000a900465ffffffffffff16908060030160069054906101000a900465ffffffffffff169080600301600c9054906101000a900465ffffffffffff16905087565b600081838561133d9190614bbe565b6113479190614c2f565b90509392505050565b611358612919565b6000429050600060016000815461136e9061491f565b9190508190559050600080600061138361139d565b9250925092506113968484848489613289565b5050505050565b606060008060007f000000000000000000000000000000000000000000000000000000000000000073ffffffffffffffffffffffffffffffffffffffff1663944df0456040518163ffffffff1660e01b8152600401600060405180830381865afa15801561140f573d6000803e3d6000fd5b505050506040513d6000823e3d601f19601f820116820180604052508101906114389190614cd0565b90506000807f000000000000000000000000000000000000000000000000000000000000000073ffffffffffffffffffffffffffffffffffffffff1663060a9aeb846040518263ffffffff1660e01b81526004016114969190614d19565b6040805180830381865afa1580156114b2573d6000803e3d6000fd5b505050506040513d601f19601f820116820180604052508101906114d69190614d65565b91509150828282955095509550505050909192565b6009602052816000526040600020602052806000526040600020600091509150508060000160009054906101000a900479ffffffffffffffffffffffffffffffffffffffffffffffffffff16908060010160009054906101000a900479ffffffffffffffffffffffffffffffffffffffffffffffffffff16908060020154908060030180546115799061477c565b80601f01602080910402602001604051908101604052809291908181526020018280546115a59061477c565b80156115f25780601f106115c7576101008083540402835291602001916115f2565b820191906000526020600020905b8154815290600101906020018083116115d557829003601f168201915b5050505050908060040160009054906101000a900460ff16905085565b6000827cffffffffffffffffffffffffffffffffffffffffffffffffffffffffff1660008111611674576040517f08c379a000000000000000000000000000000000000000000000000000000000815260040161166b90614b9e565b60405180910390fd5b84600073ffffffffffffffffffffffffffffffffffffffff168173ffffffffffffffffffffffffffffffffffffffff16036116e4576040517f08c379a00000000000000000000000000000000000000000000000000000000081526004016116db90614e17565b60405180910390fd5b6116ec611f8d565b6000429050611730856040518060400160405280600581526020017f5354414b45000000000000000000000000000000000000000000000000000000815250612a64565b156117ec5785600660008973ffffffffffffffffffffffffffffffffffffffff1673ffffffffffffffffffffffffffffffffffffffff16815260200190815260200160002060020160008282829054906101000a90046fffffffffffffffffffffffffffffffff166117a29190614a56565b92506101000a8154816fffffffffffffffffffffffffffffffff02191690836fffffffffffffffffffffffffffffffff1602179055506117e4338888846133e0565b935050611922565b61182b856040518060400160405280600481526020017f4c4f434b00000000000000000000000000000000000000000000000000000000815250612a64565b156118e75785600660008973ffffffffffffffffffffffffffffffffffffffff1673ffffffffffffffffffffffffffffffffffffffff16815260200190815260200160002060020160108282829054906101000a90046fffffffffffffffffffffffffffffffff1661189d9190614a56565b92506101000a8154816fffffffffffffffffffffffffffffffff02191690836fffffffffffffffffffffffffffffffff1602179055506118df3388888461368f565b935050611922565b6040517f08c379a000000000000000000000000000000000000000000000000000000000815260040161191990614ea9565b60405180910390fd5b61192a6123d0565b50509392505050565b6000804290506000806000600790505b602a8111611c1757600080600190505b600660008973ffffffffffffffffffffffffffffffffffffffff1673ffffffffffffffffffffffffffffffffffffffff168152602001908152602001600020600301600c9054906101000a900465ffffffffffff1665ffffffffffff168111611bf5576000600960008a73ffffffffffffffffffffffffffffffffffffffff1673ffffffffffffffffffffffffffffffffffffffff16815260200190815260200160002060008381526020019081526020016000206040518060a00160405290816000820160009054906101000a900479ffffffffffffffffffffffffffffffffffffffffffffffffffff1679ffffffffffffffffffffffffffffffffffffffffffffffffffff1679ffffffffffffffffffffffffffffffffffffffffffffffffffff1681526020016001820160009054906101000a900479ffffffffffffffffffffffffffffffffffffffffffffffffffff1679ffffffffffffffffffffffffffffffffffffffffffffffffffff1679ffffffffffffffffffffffffffffffffffffffffffffffffffff16815260200160028201548152602001600382018054611afd9061477c565b80601f0160208091040260200160405190810160405280929190818152602001828054611b299061477c565b8015611b765780601f10611b4b57610100808354040283529160200191611b76565b820191906000526020600020905b815481529060010190602001808311611b5957829003601f168201915b505050505081526020016004820160009054906101000a900460ff16151515158152505090508060800151611be157600080611bb3868a856123da565b50915091506000821115611bde578188611bcd919061489d565b97508085611bdb919061489d565b94505b50505b508080611bed9061491f565b915050611953565b506000811115611c03578092505b508080611c0f9061491f565b915050611943565b508082611c249190614967565b9150819350505050919050565b6000806000905060008060004290506000600d90505b60128111611ec857600093506000600190505b600660008973ffffffffffffffffffffffffffffffffffffffff1673ffffffffffffffffffffffffffffffffffffffff16815260200190815260200160002060030160009054906101000a900465ffffffffffff1665ffffffffffff168111611eb4576000600760008a73ffffffffffffffffffffffffffffffffffffffff1673ffffffffffffffffffffffffffffffffffffffff16815260200190815260200160002060008381526020019081526020016000206040518060800160405290816000820160009054906101000a90047cffffffffffffffffffffffffffffffffffffffffffffffffffffffffff167cffffffffffffffffffffffffffffffffffffffffffffffffffffffffff167cffffffffffffffffffffffffffffffffffffffffffffffffffffffffff1681526020016001820160009054906101000a900473ffffffffffffffffffffffffffffffffffffffff1673ffffffffffffffffffffffffffffffffffffffff1673ffffffffffffffffffffffffffffffffffffffff168152602001600282015481526020016003820160009054906101000a900460ff16151515158152505090508060600151611ea057600d8303611e3757806020015173ffffffffffffffffffffffffffffffffffffffff1694505b6000611e448486846139cf565b5090506000811115611e9e576000611e7382600560009054906101000a900461ffff1661ffff166103e861132e565b90508082611e81919061489d565b89611e8c919061489d565b98508688611e9a919061489d565b9750505b505b508080611eac9061491f565b915050611c5a565b508080611ec09061491f565b915050611c47565b508284611ed59190614967565b935083945050505050919050565b611eeb612919565b600073ffffffffffffffffffffffffffffffffffffffff168173ffffffffffffffffffffffffffffffffffffffff1603611f5d5760006040517f1e4fbdf7000000000000000000000000000000000000000000000000000000008152600401611f5491906143d0565b60405180910390fd5b611f66816129a0565b50565b7f000000000000000000000000000000000000000000000000000000000000000081565b600260045403611fc9576040517f3ee5aeb500000000000000000000000000000000000000000000000000000000815260040160405180910390fd5b6002600481905550565b8179ffffffffffffffffffffffffffffffffffffffffffffffffffff1660008111612033576040517f08c379a000000000000000000000000000000000000000000000000000000000815260040161202a90614b9e565b60405180910390fd5b83600073ffffffffffffffffffffffffffffffffffffffff168173ffffffffffffffffffffffffffffffffffffffff16036120a3576040517f08c379a000000000000000000000000000000000000000000000000000000000815260040161209a90614e17565b60405180910390fd5b6000600660008773ffffffffffffffffffffffffffffffffffffffff1673ffffffffffffffffffffffffffffffffffffffff16815260200190815260200160002060000160009054906101000a900476ffffffffffffffffffffffffffffffffffffffffffffff1676ffffffffffffffffffffffffffffffffffffffffffffff169050612165846040518060400160405280600781526020017f4445504f53495400000000000000000000000000000000000000000000000000815250612a64565b156121a3578479ffffffffffffffffffffffffffffffffffffffffffffffffffff1681612192919061489d565b905061219e8686613a82565b6122cb565b6121e2846040518060400160405280600881526020017f5749544844524157000000000000000000000000000000000000000000000000815250612a64565b156122ca578479ffffffffffffffffffffffffffffffffffffffffffffffffffff168161220f9190614967565b905084600660008873ffffffffffffffffffffffffffffffffffffffff1673ffffffffffffffffffffffffffffffffffffffff16815260200190815260200160002060010160008282829054906101000a900476ffffffffffffffffffffffffffffffffffffffffffffff166122859190614ec9565b92506101000a81548176ffffffffffffffffffffffffffffffffffffffffffffff021916908376ffffffffffffffffffffffffffffffffffffffffffffff1602179055505b5b80600660008873ffffffffffffffffffffffffffffffffffffffff1673ffffffffffffffffffffffffffffffffffffffff16815260200190815260200160002060000160006101000a81548176ffffffffffffffffffffffffffffffffffffffffffffff021916908376ffffffffffffffffffffffffffffffffffffffffffffff160217905550836040516123609190614f50565b60405180910390208579ffffffffffffffffffffffffffffffffffffffffffffffffffff168773ffffffffffffffffffffffffffffffffffffffff167f580b799b7daf8b70733791ba3fc6accbe6aec46f721af6c7a7f076e044d9c25560405160405180910390a4505050505050565b6001600481905550565b60008060008060009050600080600060078a0361240c576123fb888a613c9d565b92508284612409919061489d565b93505b6000603c806018601e8e6124209190614bbe565b61242a9190614bbe565b6124349190614bbe565b61243e9190614bbe565b896040015161244d919061489d565b9050808a1115612902578373ffffffffffffffffffffffffffffffffffffffff168960000181815161247f9190614f67565b91509079ffffffffffffffffffffffffffffffffffffffffffffffffffff16908179ffffffffffffffffffffffffffffffffffffffffffffffffffff168152505061250389606001516040518060400160405280600d81526020017f465249454e445f46414d494c5900000000000000000000000000000000000000815250612a64565b8061254d575061254c89606001516040518060400160405280600c81526020017f505249564154455f53414c450000000000000000000000000000000000000000815250612a64565b5b80612597575061259689606001516040518060400160405280600b81526020017f5055424c49435f53414c45000000000000000000000000000000000000000000815250612a64565b5b156126285760078b101580156125ae575060128b11155b156126275760078b036125df57886020015179ffffffffffffffffffffffffffffffffffffffffffffffffffff1692505b600c89600001516125f09190614fb5565b79ffffffffffffffffffffffffffffffffffffffffffffffffffff1685612617919061489d565b945060128b0361262657600191505b5b5b61266b89606001516040518060400160405280600481526020017f5445414d00000000000000000000000000000000000000000000000000000000815250612a64565b806126b557506126b489606001516040518060400160405280600881526020017f41445649534f5253000000000000000000000000000000000000000000000000815250612a64565b5b1561274657600d8b101580156126cc575060248b11155b1561274557600d8b036126fd57886020015179ffffffffffffffffffffffffffffffffffffffffffffffffffff1692505b6018896000015161270e9190614fb5565b79ffffffffffffffffffffffffffffffffffffffffffffffffffff1685612735919061489d565b945060248b0361274457600191505b5b5b61278989606001516040518060400160405280600881526020017f5245534552564553000000000000000000000000000000000000000000000000815250612a64565b806127d357506127d289606001516040518060400160405280601a81526020017f53544f524147455f4d494e54494e475f414c4c4f434154494f4e000000000000815250612a64565b5b156128645760198b101580156127ea575060248b11155b156128635760198b0361281b57886020015179ffffffffffffffffffffffffffffffffffffffffffffffffffff1692505b600c896000015161282c9190614fb5565b79ffffffffffffffffffffffffffffffffffffffffffffffffffff1685612853919061489d565b945060248b0361286257600191505b5b5b6128a789606001516040518060400160405280600a81526020017f4d41524b455454494e4700000000000000000000000000000000000000000000815250612a64565b156129015760128b036128d857886020015179ffffffffffffffffffffffffffffffffffffffffffffffffffff1692505b6128e68b8a60000151613d47565b856128f1919061489d565b9450602a8b0361290057600191505b5b5b848383975097509750505050505093509350939050565b612921613de8565b73ffffffffffffffffffffffffffffffffffffffff1661293f611155565b73ffffffffffffffffffffffffffffffffffffffff161461299e57612962613de8565b6040517f118cdaa700000000000000000000000000000000000000000000000000000000815260040161299591906143d0565b60405180910390fd5b565b60008060009054906101000a900473ffffffffffffffffffffffffffffffffffffffff169050816000806101000a81548173ffffffffffffffffffffffffffffffffffffffff021916908373ffffffffffffffffffffffffffffffffffffffff1602179055508173ffffffffffffffffffffffffffffffffffffffff168173ffffffffffffffffffffffffffffffffffffffff167f8be0079c531659141344cd1fd0a4f28419497f9722a3daafe3b4186f6b6457e060405160405180910390a35050565b60008180519060200120838051906020012014905092915050565b600080600090506000806000600d90505b60128111612e5757600092506000600190505b600660008973ffffffffffffffffffffffffffffffffffffffff1673ffffffffffffffffffffffffffffffffffffffff16815260200190815260200160002060030160009054906101000a900465ffffffffffff1665ffffffffffff168111612e43576000600760008a73ffffffffffffffffffffffffffffffffffffffff1673ffffffffffffffffffffffffffffffffffffffff16815260200190815260200160002060008381526020019081526020016000206040518060800160405290816000820160009054906101000a90047cffffffffffffffffffffffffffffffffffffffffffffffffffffffffff167cffffffffffffffffffffffffffffffffffffffffffffffffffffffffff167cffffffffffffffffffffffffffffffffffffffffffffffffffffffffff1681526020016001820160009054906101000a900473ffffffffffffffffffffffffffffffffffffffff1673ffffffffffffffffffffffffffffffffffffffff1673ffffffffffffffffffffffffffffffffffffffff168152602001600282015481526020016003820160009054906101000a900460ff16151515158152505090508060600151612e2f57600d8303612c8057806020015173ffffffffffffffffffffffffffffffffffffffff1693505b600080612c8e858b856139cf565b915091506000821115612e2c576000612cbe83600560009054906101000a900461ffff1661ffff166103e861132e565b90508083612ccc919061489d565b89612cd7919061489d565b98508688612ce5919061489d565b97508083612cf3919061489d565b600760008e73ffffffffffffffffffffffffffffffffffffffff1673ffffffffffffffffffffffffffffffffffffffff168152602001908152602001600020600087815260200190815260200160002060010160008282829054906101000a900473ffffffffffffffffffffffffffffffffffffffff16612d749190614fe6565b92506101000a81548173ffffffffffffffffffffffffffffffffffffffff021916908373ffffffffffffffffffffffffffffffffffffffff1602179055506001151582151503612e2a5781600760008e73ffffffffffffffffffffffffffffffffffffffff1673ffffffffffffffffffffffffffffffffffffffff168152602001908152602001600020600087815260200190815260200160002060030160006101000a81548160ff0219169083151502179055505b505b50505b508080612e3b9061491f565b915050612aa3565b508080612e4f9061491f565b915050612a90565b508183612e649190614967565b925060008303612ea9576040517f08c379a0000000000000000000000000000000000000000000000000000000008152600401612ea0906150a0565b60405180910390fd5b60007f000000000000000000000000000000000000000000000000000000000000000073ffffffffffffffffffffffffffffffffffffffff1663a9059cbb88866040518363ffffffff1660e01b8152600401612f06929190614a2d565b6020604051808303816000875af1158015612f25573d6000803e3d6000fd5b505050506040513d601f19601f82011682018060405250810190612f499190614841565b90508094505050505092915050565b600080600090506000600190505b600660008673ffffffffffffffffffffffffffffffffffffffff1673ffffffffffffffffffffffffffffffffffffffff16815260200190815260200160002060030160069054906101000a900465ffffffffffff1665ffffffffffff168111613198576000600860003373ffffffffffffffffffffffffffffffffffffffff1673ffffffffffffffffffffffffffffffffffffffff16815260200190815260200160002060008381526020019081526020016000206040518060800160405290816000820160009054906101000a90047effffffffffffffffffffffffffffffffffffffffffffffffffffffffffffff167effffffffffffffffffffffffffffffffffffffffffffffffffffffffffffff167effffffffffffffffffffffffffffffffffffffffffffffffffffffffffffff16815260200160018201548152602001600282015481526020016003820160009054906101000a900460ff161515151581525050905080606001516131845780604001518511156131835780600001517effffffffffffffffffffffffffffffffffffffffffffffffffffffffffffff1683613114919061489d565b92506001600860008873ffffffffffffffffffffffffffffffffffffffff1673ffffffffffffffffffffffffffffffffffffffff168152602001908152602001600020600084815260200190815260200160002060030160006101000a81548160ff0219169083151502179055505b5b5080806131909061491f565b915050612f66565b50600081036131dc576040517f08c379a00000000000000000000000000000000000000000000000000000000081526004016131d390615132565b60405180910390fd5b60007f000000000000000000000000000000000000000000000000000000000000000073ffffffffffffffffffffffffffffffffffffffff1663a9059cbb86846040518363ffffffff1660e01b8152600401613239929190614a2d565b6020604051808303816000875af1158015613258573d6000803e3d6000fd5b505050506040513d601f19601f8201168201806040525081019061327c9190614841565b9050809250505092915050565b836003600087815260200190815260200160002060000190816132ac91906152f4565b50826003600087815260200190815260200160002060010160006101000a81548173ffffffffffffffffffffffffffffffffffffffff021916908373ffffffffffffffffffffffffffffffffffffffff160217905550816003600087815260200190815260200160002060020160006101000a81548173ffffffffffffffffffffffffffffffffffffffff021916908373ffffffffffffffffffffffffffffffffffffffff160217905550806003600087815260200190815260200160002060030181905550846002856040516133839190614f50565b90815260200160405180910390208190555080846040516133a49190614f50565b6040518091039020867f0c19bb44b59579be200a2b8014813f052e8d673471778b18db3aae536dce7ba560405160405180910390a45050505050565b600080600660008673ffffffffffffffffffffffffffffffffffffffff1673ffffffffffffffffffffffffffffffffffffffff168152602001908152602001600020600301600081819054906101000a900465ffffffffffff16613443906153c6565b91906101000a81548165ffffffffffff021916908365ffffffffffff1602179055905082600760008773ffffffffffffffffffffffffffffffffffffffff1673ffffffffffffffffffffffffffffffffffffffff16815260200190815260200160002060008365ffffffffffff1681526020019081526020016000206002018190555083600760008773ffffffffffffffffffffffffffffffffffffffff1673ffffffffffffffffffffffffffffffffffffffff16815260200190815260200160002060008365ffffffffffff16815260200190815260200160002060000160006101000a8154817cffffffffffffffffffffffffffffffffffffffffffffffffffffffffff02191690837cffffffffffffffffffffffffffffffffffffffffffffffffffffffffff1602179055508065ffffffffffff16847cffffffffffffffffffffffffffffffffffffffffffffffffffffffffff168673ffffffffffffffffffffffffffffffffffffffff167fb7ae71bd615e1d1e5d496e36876dd8e9dd2842ba7f262d351041ceb43eae40cf60405160405180910390a460007f000000000000000000000000000000000000000000000000000000000000000073ffffffffffffffffffffffffffffffffffffffff166323b872dd8830886040518463ffffffff1660e01b815260040161363d93929190615425565b6020604051808303816000875af115801561365c573d6000803e3d6000fd5b505050506040513d601f19601f820116820180604052508101906136809190614841565b90508092505050949350505050565b600080600660008673ffffffffffffffffffffffffffffffffffffffff1673ffffffffffffffffffffffffffffffffffffffff168152602001908152602001600020600301600681819054906101000a900465ffffffffffff166136f2906153c6565b91906101000a81548165ffffffffffff021916908365ffffffffffff1602179055905082600860008773ffffffffffffffffffffffffffffffffffffffff1673ffffffffffffffffffffffffffffffffffffffff16815260200190815260200160002060008365ffffffffffff1681526020019081526020016000206001018190555062278d0083613784919061489d565b600860008773ffffffffffffffffffffffffffffffffffffffff1673ffffffffffffffffffffffffffffffffffffffff16815260200190815260200160002060008365ffffffffffff16815260200190815260200160002060020181905550837cffffffffffffffffffffffffffffffffffffffffffffffffffffffffff16600860008773ffffffffffffffffffffffffffffffffffffffff1673ffffffffffffffffffffffffffffffffffffffff16815260200190815260200160002060008365ffffffffffff16815260200190815260200160002060000160006101000a8154817effffffffffffffffffffffffffffffffffffffffffffffffffffffffffffff02191690837effffffffffffffffffffffffffffffffffffffffffffffffffffffffffffff1602179055508065ffffffffffff16847cffffffffffffffffffffffffffffffffffffffffffffffffffffffffff168673ffffffffffffffffffffffffffffffffffffffff167f96480d0485518da027da30c099c5ed78006afe441dbb13b237bbc485bfa886c060405160405180910390a460007f000000000000000000000000000000000000000000000000000000000000000073ffffffffffffffffffffffffffffffffffffffff166323b872dd8830886040518463ffffffff1660e01b815260040161397d93929190615425565b6020604051808303816000875af115801561399c573d6000803e3d6000fd5b505050506040513d601f19601f820116820180604052508101906139c09190614841565b90508092505050949350505050565b6000806000806000603c806018601e8b6139e99190614bbe565b6139f39190614bbe565b6139fd9190614bbe565b613a079190614bbe565b8660400151613a16919061489d565b905080871115613a7157600060068760000151613a33919061545c565b7cffffffffffffffffffffffffffffffffffffffffffffffffffffffffff1690508084613a60919061489d565b935060128903613a6f57600192505b505b828294509450505050935093915050565b6000613a8c61114b565b90506000600660008573ffffffffffffffffffffffffffffffffffffffff1673ffffffffffffffffffffffffffffffffffffffff168152602001908152602001600020600301600c81819054906101000a900465ffffffffffff16613af0906153c6565b91906101000a81548165ffffffffffff021916908365ffffffffffff1602179055905082600960008673ffffffffffffffffffffffffffffffffffffffff1673ffffffffffffffffffffffffffffffffffffffff16815260200190815260200160002060008365ffffffffffff16815260200190815260200160002060000160006101000a81548179ffffffffffffffffffffffffffffffffffffffffffffffffffff021916908379ffffffffffffffffffffffffffffffffffffffffffffffffffff16021790555042600960008673ffffffffffffffffffffffffffffffffffffffff1673ffffffffffffffffffffffffffffffffffffffff16815260200190815260200160002060008365ffffffffffff1681526020019081526020016000206002018190555060036000838152602001908152602001600020600001600960008673ffffffffffffffffffffffffffffffffffffffff1673ffffffffffffffffffffffffffffffffffffffff16815260200190815260200160002060008365ffffffffffff1681526020019081526020016000206003019081613c9691906154b8565b5050505050565b60008060009050613ce784606001516040518060400160405280600b81526020017f5055424c49435f53414c45000000000000000000000000000000000000000000815250612a64565b15613d3d5760006202a3008560400151613d01919061489d565b905080841115613d3b57613d38856000015179ffffffffffffffffffffffffffffffffffffffffffffffffffff166014606461132e565b91505b505b8091505092915050565b600080600090506000602a8503613d615760059050613da5565b60248503613d725760049050613da4565b601e8503613d835760039050613da3565b60188503613d945760029050613da2565b60128503613da157600190505b5b5b5b5b60008160ff161115613ddd57613dda8479ffffffffffffffffffffffffffffffffffffffffffffffffffff166014606461132e565b91505b819250505092915050565b600033905090565b6000604051905090565b600080fd5b600080fd5b6000819050919050565b613e1781613e04565b8114613e2257600080fd5b50565b600081359050613e3481613e0e565b92915050565b600060208284031215613e5057613e4f613dfa565b5b6000613e5e84828501613e25565b91505092915050565b600081519050919050565b600082825260208201905092915050565b60005b83811015613ea1578082015181840152602081019050613e86565b60008484015250505050565b6000601f19601f8301169050919050565b6000613ec982613e67565b613ed38185613e72565b9350613ee3818560208601613e83565b613eec81613ead565b840191505092915050565b600073ffffffffffffffffffffffffffffffffffffffff82169050919050565b613f2081613ef7565b82525050565b6000613f3182613ef7565b9050919050565b613f4181613f26565b82525050565b613f5081613e04565b82525050565b60006080820190508181036000830152613f708187613ebe565b9050613f7f6020830186613f17565b613f8c6040830185613f38565b613f996060830184613f47565b95945050505050565b613fab81613f26565b8114613fb657600080fd5b50565b600081359050613fc881613fa2565b92915050565b60008060408385031215613fe557613fe4613dfa565b5b6000613ff385828601613fb9565b925050602061400485828601613e25565b9150509250929050565b60007effffffffffffffffffffffffffffffffffffffffffffffffffffffffffffff82169050919050565b6140428161400e565b82525050565b60008115159050919050565b61405d81614048565b82525050565b60006080820190506140786000830187614039565b6140856020830186613f47565b6140926040830185613f47565b61409f6060830184614054565b95945050505050565b60007cffffffffffffffffffffffffffffffffffffffffffffffffffffffffff82169050919050565b6140da816140a8565b82525050565b60006080820190506140f560008301876140d1565b6141026020830186613f17565b61410f6040830185613f47565b61411c6060830184614054565b95945050505050565b600079ffffffffffffffffffffffffffffffffffffffffffffffffffff82169050919050565b61415481614125565b811461415f57600080fd5b50565b6000813590506141718161414b565b92915050565b6000806040838503121561418e5761418d613dfa565b5b600061419c85828601613fb9565b92505060206141ad85828601614162565b9150509250929050565b60006020820190506141cc6000830184614054565b92915050565b600080fd5b600080fd5b7f4e487b7100000000000000000000000000000000000000000000000000000000600052604160045260246000fd5b61421482613ead565b810181811067ffffffffffffffff82111715614233576142326141dc565b5b80604052505050565b6000614246613df0565b9050614252828261420b565b919050565b600067ffffffffffffffff821115614272576142716141dc565b5b61427b82613ead565b9050602081019050919050565b82818337600083830152505050565b60006142aa6142a584614257565b61423c565b9050828152602081018484840111156142c6576142c56141d7565b5b6142d1848285614288565b509392505050565b600082601f8301126142ee576142ed6141d2565b5b81356142fe848260208601614297565b91505092915050565b60006020828403121561431d5761431c613dfa565b5b600082013567ffffffffffffffff81111561433b5761433a613dff565b5b614347848285016142d9565b91505092915050565b60006020820190506143656000830184613f47565b92915050565b60006020828403121561438157614380613dfa565b5b600061438f84828501613fb9565b91505092915050565b600061ffff82169050919050565b6143af81614398565b82525050565b60006020820190506143ca60008301846143a6565b92915050565b60006020820190506143e56000830184613f38565b92915050565b600060ff82169050919050565b614401816143eb565b811461440c57600080fd5b50565b60008135905061441e816143f8565b92915050565b60006020828403121561443a57614439613dfa565b5b60006144488482850161440f565b91505092915050565b600076ffffffffffffffffffffffffffffffffffffffffffffff82169050919050565b61447d81614451565b82525050565b60006fffffffffffffffffffffffffffffffff82169050919050565b6144a881614483565b82525050565b600065ffffffffffff82169050919050565b6144c9816144ae565b82525050565b600060e0820190506144e4600083018a614474565b6144f16020830189614474565b6144fe604083018861449f565b61450b606083018761449f565b61451860808301866144c0565b61452560a08301856144c0565b61453260c08301846144c0565b98975050505050505050565b60008060006060848603121561455757614556613dfa565b5b600061456586828701613e25565b935050602061457686828701613e25565b925050604061458786828701613e25565b9150509250925092565b600060608201905081810360008301526145ab8186613ebe565b90506145ba6020830185613f47565b6145c76040830184613f38565b949350505050565b6145d881614125565b82525050565b600060a0820190506145f360008301886145cf565b61460060208301876145cf565b61460d6040830186613f47565b818103606083015261461f8185613ebe565b905061462e6080830184614054565b9695505050505050565b614641816140a8565b811461464c57600080fd5b50565b60008135905061465e81614638565b92915050565b60008060006060848603121561467d5761467c613dfa565b5b600061468b86828701613fb9565b935050602061469c8682870161464f565b925050604084013567ffffffffffffffff8111156146bd576146bc613dff565b5b6146c9868287016142d9565b9150509250925092565b6000819050919050565b60006146f86146f36146ee84613ef7565b6146d3565b613ef7565b9050919050565b600061470a826146dd565b9050919050565b600061471c826146ff565b9050919050565b61472c81614711565b82525050565b60006020820190506147476000830184614723565b92915050565b7f4e487b7100000000000000000000000000000000000000000000000000000000600052602260045260246000fd5b6000600282049050600182168061479457607f821691505b6020821081036147a7576147a661474d565b5b50919050565b60006147c86147c36147be84614125565b6146d3565b613e04565b9050919050565b6147d8816147ad565b82525050565b60006060820190506147f36000830186613f38565b6148006020830185613f38565b61480d60408301846147cf565b949350505050565b61481e81614048565b811461482957600080fd5b50565b60008151905061483b81614815565b92915050565b60006020828403121561485757614856613dfa565b5b60006148658482850161482c565b91505092915050565b7f4e487b7100000000000000000000000000000000000000000000000000000000600052601160045260246000fd5b60006148a882613e04565b91506148b383613e04565b92508282019050808211156148cb576148ca61486e565b5b92915050565b60006148dc82614125565b91506148e783614125565b9250828201905079ffffffffffffffffffffffffffffffffffffffffffffffffffff8111156149195761491861486e565b5b92915050565b600061492a82613e04565b91507fffffffffffffffffffffffffffffffffffffffffffffffffffffffffffffffff820361495c5761495b61486e565b5b600182019050919050565b600061497282613e04565b915061497d83613e04565b92508282039050818111156149955761499461486e565b5b92915050565b7f5354414b453a3a207468657265206973206e6f2066756e647320746f2062652060008201527f7472616e736665727265642e0000000000000000000000000000000000000000602082015250565b60006149f7602c83613e72565b9150614a028261499b565b604082019050919050565b60006020820190508181036000830152614a26816149ea565b9050919050565b6000604082019050614a426000830185613f38565b614a4f6020830184613f47565b9392505050565b6000614a6182614483565b9150614a6c83614483565b925082820190506fffffffffffffffffffffffffffffffff811115614a9457614a9361486e565b5b92915050565b7f5354414b453a3a20747970652073686f756c642062652027554e5f4c4f434b2760008201527f206f722027554e5f5354414b4527000000000000000000000000000000000000602082015250565b6000614af6602e83613e72565b9150614b0182614a9a565b604082019050919050565b60006020820190508181036000830152614b2581614ae9565b9050919050565b7f5354414b453a3a20616d6f756e742073686f756c64206265206772656174657260008201527f207468616e207a65726f2e000000000000000000000000000000000000000000602082015250565b6000614b88602b83613e72565b9150614b9382614b2c565b604082019050919050565b60006020820190508181036000830152614bb781614b7b565b9050919050565b6000614bc982613e04565b9150614bd483613e04565b9250828202614be281613e04565b91508282048414831517614bf957614bf861486e565b5b5092915050565b7f4e487b7100000000000000000000000000000000000000000000000000000000600052601260045260246000fd5b6000614c3a82613e04565b9150614c4583613e04565b925082614c5557614c54614c00565b5b828204905092915050565b6000614c73614c6e84614257565b61423c565b905082815260208101848484011115614c8f57614c8e6141d7565b5b614c9a848285613e83565b509392505050565b600082601f830112614cb757614cb66141d2565b5b8151614cc7848260208601614c60565b91505092915050565b600060208284031215614ce657614ce5613dfa565b5b600082015167ffffffffffffffff811115614d0457614d03613dff565b5b614d1084828501614ca2565b91505092915050565b60006020820190508181036000830152614d338184613ebe565b905092915050565b600081519050614d4a81613e0e565b92915050565b600081519050614d5f81613fa2565b92915050565b60008060408385031215614d7c57614d7b613dfa565b5b6000614d8a85828601614d3b565b9250506020614d9b85828601614d50565b9150509250929050565b7f5354414b453a3a20757365722073686f756c64206e6f7420626520657175616c60008201527f20746f2061646472657373207a65726f00000000000000000000000000000000602082015250565b6000614e01603083613e72565b9150614e0c82614da5565b604082019050919050565b60006020820190508181036000830152614e3081614df4565b9050919050565b7f5354414b453a3a20747970652073686f756c6420626520274c4f434b27206f7260008201527f20275354414b4527000000000000000000000000000000000000000000000000602082015250565b6000614e93602883613e72565b9150614e9e82614e37565b604082019050919050565b60006020820190508181036000830152614ec281614e86565b9050919050565b6000614ed482614451565b9150614edf83614451565b9250828201905076ffffffffffffffffffffffffffffffffffffffffffffff811115614f0e57614f0d61486e565b5b92915050565b600081905092915050565b6000614f2a82613e67565b614f348185614f14565b9350614f44818560208601613e83565b80840191505092915050565b6000614f5c8284614f1f565b915081905092915050565b6000614f7282614125565b9150614f7d83614125565b9250828203905079ffffffffffffffffffffffffffffffffffffffffffffffffffff811115614faf57614fae61486e565b5b92915050565b6000614fc082614125565b9150614fcb83614125565b925082614fdb57614fda614c00565b5b828204905092915050565b6000614ff182613ef7565b9150614ffc83613ef7565b9250828201905073ffffffffffffffffffffffffffffffffffffffff8111156150285761502761486e565b5b92915050565b7f5354414b453a3a207468657265206973206e6f20746f6b656e20746f2062652060008201527f756e2d7374616b65000000000000000000000000000000000000000000000000602082015250565b600061508a602883613e72565b91506150958261502e565b604082019050919050565b600060208201905081810360008301526150b98161507d565b9050919050565b7f5354414b453a207468657265206973206e6f20616d6f756e7420746f2062652060008201527f7472616e736665727265642e0000000000000000000000000000000000000000602082015250565b600061511c602c83613e72565b9150615127826150c0565b604082019050919050565b6000602082019050818103600083015261514b8161510f565b9050919050565b60008190508160005260206000209050919050565b60006020601f8301049050919050565b600082821b905092915050565b6000600883026151b47fffffffffffffffffffffffffffffffffffffffffffffffffffffffffffffffff82615177565b6151be8683615177565b95508019841693508086168417925050509392505050565b60006151f16151ec6151e784613e04565b6146d3565b613e04565b9050919050565b6000819050919050565b61520b836151d6565b61521f615217826151f8565b848454615184565b825550505050565b600090565b615234615227565b61523f818484615202565b505050565b5b818110156152635761525860008261522c565b600181019050615245565b5050565b601f8211156152a85761527981615152565b61528284615167565b81016020851015615291578190505b6152a561529d85615167565b830182615244565b50505b505050565b600082821c905092915050565b60006152cb600019846008026152ad565b1980831691505092915050565b60006152e483836152ba565b9150826002028217905092915050565b6152fd82613e67565b67ffffffffffffffff811115615316576153156141dc565b5b615320825461477c565b61532b828285615267565b600060209050601f83116001811461535e576000841561534c578287015190505b61535685826152d8565b8655506153be565b601f19841661536c86615152565b60005b828110156153945784890151825560018201915060208501945060208101905061536f565b868310156153b157848901516153ad601f8916826152ba565b8355505b6001600288020188555050505b505050505050565b60006153d1826144ae565b915065ffffffffffff82036153e9576153e861486e565b5b600182019050919050565b600061540f61540a615405846140a8565b6146d3565b613e04565b9050919050565b61541f816153f4565b82525050565b600060608201905061543a6000830186613f38565b6154476020830185613f38565b6154546040830184615416565b949350505050565b6000615467826140a8565b9150615472836140a8565b92508261548257615481614c00565b5b828204905092915050565b60008154905061549c8161477c565b9050919050565b60008190508160005260206000209050919050565b8181036154c657505061559e565b6154cf8261548d565b67ffffffffffffffff8111156154e8576154e76141dc565b5b6154f2825461477c565b6154fd828285615267565b6000601f83116001811461552c576000841561551a578287015490505b61552485826152d8565b865550615597565b601f19841661553a876154a3565b965061554586615152565b60005b8281101561556d57848901548255600182019150600185019450602081019050615548565b8683101561558a5784890154615586601f8916826152ba565b8355505b6001600288020188555050505b5050505050505b56fea2646970667358221220a62e89aa998c5b8fb030c693fb352210889b43512a7afd0eb0d28208193bb00d64736f6c63430008130033",
			"opcodes": "PUSH1 0xA0 PUSH1 0x40 MSTORE PUSH1 0x0 PUSH1 0x1 SSTORE PUSH1 0x64 PUSH1 0x5 PUSH1 0x0 PUSH2 0x100 EXP DUP2 SLOAD DUP2 PUSH2 0xFFFF MUL NOT AND SWAP1 DUP4 PUSH2 0xFFFF AND MUL OR SWAP1 SSTORE POP CALLVALUE DUP1 ISZERO PUSH3 0x34 JUMPI PUSH1 0x0 DUP1 REVERT JUMPDEST POP PUSH1 0x40 MLOAD PUSH3 0x6388 CODESIZE SUB DUP1 PUSH3 0x6388 DUP4 CODECOPY DUP2 DUP2 ADD PUSH1 0x40 MSTORE DUP2 ADD SWAP1 PUSH3 0x5A SWAP2 SWAP1 PUSH3 0x637 JUMP JUMPDEST DUP1 CALLER PUSH1 0x0 PUSH20 0xFFFFFFFFFFFFFFFFFFFFFFFFFFFFFFFFFFFFFFFF AND DUP2 PUSH20 0xFFFFFFFFFFFFFFFFFFFFFFFFFFFFFFFFFFFFFFFF AND SUB PUSH3 0xD1 JUMPI PUSH1 0x0 PUSH1 0x40 MLOAD PUSH32 0x1E4FBDF700000000000000000000000000000000000000000000000000000000 DUP2 MSTORE PUSH1 0x4 ADD PUSH3 0xC8 SWAP2 SWAP1 PUSH3 0x67A JUMP JUMPDEST PUSH1 0x40 MLOAD DUP1 SWAP2 SUB SWAP1 REVERT JUMPDEST PUSH3 0xE2 DUP2 PUSH3 0x137 PUSH1 0x20 SHL PUSH1 0x20 SHR JUMP JUMPDEST POP DUP1 PUSH20 0xFFFFFFFFFFFFFFFFFFFFFFFFFFFFFFFFFFFFFFFF AND PUSH1 0x80 DUP2 PUSH20 0xFFFFFFFFFFFFFFFFFFFFFFFFFFFFFFFFFFFFFFFF AND DUP2 MSTORE POP POP PUSH3 0x127 PUSH3 0x1FB PUSH1 0x20 SHL PUSH1 0x20 SHR JUMP JUMPDEST POP PUSH1 0x1 PUSH1 0x4 DUP2 SWAP1 SSTORE POP POP PUSH3 0xD5E JUMP JUMPDEST PUSH1 0x0 DUP1 PUSH1 0x0 SWAP1 SLOAD SWAP1 PUSH2 0x100 EXP SWAP1 DIV PUSH20 0xFFFFFFFFFFFFFFFFFFFFFFFFFFFFFFFFFFFFFFFF AND SWAP1 POP DUP2 PUSH1 0x0 DUP1 PUSH2 0x100 EXP DUP2 SLOAD DUP2 PUSH20 0xFFFFFFFFFFFFFFFFFFFFFFFFFFFFFFFFFFFFFFFF MUL NOT AND SWAP1 DUP4 PUSH20 0xFFFFFFFFFFFFFFFFFFFFFFFFFFFFFFFFFFFFFFFF AND MUL OR SWAP1 SSTORE POP DUP2 PUSH20 0xFFFFFFFFFFFFFFFFFFFFFFFFFFFFFFFFFFFFFFFF AND DUP2 PUSH20 0xFFFFFFFFFFFFFFFFFFFFFFFFFFFFFFFFFFFFFFFF AND PUSH32 0x8BE0079C531659141344CD1FD0A4F28419497F9722A3DAAFE3B4186F6B6457E0 PUSH1 0x40 MLOAD PUSH1 0x40 MLOAD DUP1 SWAP2 SUB SWAP1 LOG3 POP POP JUMP JUMPDEST PUSH3 0x20B PUSH3 0x20D PUSH1 0x20 SHL PUSH1 0x20 SHR JUMP JUMPDEST JUMP JUMPDEST PUSH3 0x21D PUSH3 0x274 PUSH1 0x20 SHL PUSH1 0x20 SHR JUMP JUMPDEST PUSH1 0x0 TIMESTAMP SWAP1 POP PUSH1 0x0 PUSH1 0x1 PUSH1 0x0 DUP2 SLOAD PUSH3 0x235 SWAP1 PUSH3 0x6D0 JUMP JUMPDEST SWAP2 SWAP1 POP DUP2 SWAP1 SSTORE SWAP1 POP PUSH1 0x0 DUP1 PUSH1 0x0 PUSH3 0x252 PUSH3 0x316 PUSH1 0x20 SHL PUSH1 0x20 SHR JUMP JUMPDEST SWAP3 POP SWAP3 POP SWAP3 POP PUSH3 0x26D DUP5 DUP5 DUP5 DUP5 DUP10 PUSH3 0x430 PUSH1 0x20 SHL PUSH1 0x20 SHR JUMP JUMPDEST POP POP POP POP POP JUMP JUMPDEST PUSH3 0x284 PUSH3 0x58D PUSH1 0x20 SHL PUSH1 0x20 SHR JUMP JUMPDEST PUSH20 0xFFFFFFFFFFFFFFFFFFFFFFFFFFFFFFFFFFFFFFFF AND PUSH3 0x2AA PUSH3 0x595 PUSH1 0x20 SHL PUSH1 0x20 SHR JUMP JUMPDEST PUSH20 0xFFFFFFFFFFFFFFFFFFFFFFFFFFFFFFFFFFFFFFFF AND EQ PUSH3 0x314 JUMPI PUSH3 0x2D6 PUSH3 0x58D PUSH1 0x20 SHL PUSH1 0x20 SHR JUMP JUMPDEST PUSH1 0x40 MLOAD PUSH32 0x118CDAA700000000000000000000000000000000000000000000000000000000 DUP2 MSTORE PUSH1 0x4 ADD PUSH3 0x30B SWAP2 SWAP1 PUSH3 0x67A JUMP JUMPDEST PUSH1 0x40 MLOAD DUP1 SWAP2 SUB SWAP1 REVERT JUMPDEST JUMP JUMPDEST PUSH1 0x60 PUSH1 0x0 DUP1 PUSH1 0x0 PUSH1 0x80 MLOAD PUSH20 0xFFFFFFFFFFFFFFFFFFFFFFFFFFFFFFFFFFFFFFFF AND PUSH4 0x944DF045 PUSH1 0x40 MLOAD DUP2 PUSH4 0xFFFFFFFF AND PUSH1 0xE0 SHL DUP2 MSTORE PUSH1 0x4 ADD PUSH1 0x0 PUSH1 0x40 MLOAD DUP1 DUP4 SUB DUP2 DUP7 GAS STATICCALL ISZERO DUP1 ISZERO PUSH3 0x36B JUMPI RETURNDATASIZE PUSH1 0x0 DUP1 RETURNDATACOPY RETURNDATASIZE PUSH1 0x0 REVERT JUMPDEST POP POP POP POP PUSH1 0x40 MLOAD RETURNDATASIZE PUSH1 0x0 DUP3 RETURNDATACOPY RETURNDATASIZE PUSH1 0x1F NOT PUSH1 0x1F DUP3 ADD AND DUP3 ADD DUP1 PUSH1 0x40 MSTORE POP DUP2 ADD SWAP1 PUSH3 0x396 SWAP2 SWAP1 PUSH3 0x89C JUMP JUMPDEST SWAP1 POP PUSH1 0x0 DUP1 PUSH1 0x80 MLOAD PUSH20 0xFFFFFFFFFFFFFFFFFFFFFFFFFFFFFFFFFFFFFFFF AND PUSH4 0x60A9AEB DUP5 PUSH1 0x40 MLOAD DUP3 PUSH4 0xFFFFFFFF AND PUSH1 0xE0 SHL DUP2 MSTORE PUSH1 0x4 ADD PUSH3 0x3D8 SWAP2 SWAP1 PUSH3 0x94A JUMP JUMPDEST PUSH1 0x40 DUP1 MLOAD DUP1 DUP4 SUB DUP2 DUP7 GAS STATICCALL ISZERO DUP1 ISZERO PUSH3 0x3F5 JUMPI RETURNDATASIZE PUSH1 0x0 DUP1 RETURNDATACOPY RETURNDATASIZE PUSH1 0x0 REVERT JUMPDEST POP POP POP POP PUSH1 0x40 MLOAD RETURNDATASIZE PUSH1 0x1F NOT PUSH1 0x1F DUP3 ADD AND DUP3 ADD DUP1 PUSH1 0x40 MSTORE POP DUP2 ADD SWAP1 PUSH3 0x41B SWAP2 SWAP1 PUSH3 0x99F JUMP JUMPDEST SWAP2 POP SWAP2 POP DUP3 DUP3 DUP3 SWAP6 POP SWAP6 POP SWAP6 POP POP POP POP SWAP1 SWAP2 SWAP3 JUMP JUMPDEST DUP4 PUSH1 0x3 PUSH1 0x0 DUP8 DUP2 MSTORE PUSH1 0x20 ADD SWAP1 DUP2 MSTORE PUSH1 0x20 ADD PUSH1 0x0 KECCAK256 PUSH1 0x0 ADD SWAP1 DUP2 PUSH3 0x455 SWAP2 SWAP1 PUSH3 0xC1C JUMP JUMPDEST POP DUP3 PUSH1 0x3 PUSH1 0x0 DUP8 DUP2 MSTORE PUSH1 0x20 ADD SWAP1 DUP2 MSTORE PUSH1 0x20 ADD PUSH1 0x0 KECCAK256 PUSH1 0x1 ADD PUSH1 0x0 PUSH2 0x100 EXP DUP2 SLOAD DUP2 PUSH20 0xFFFFFFFFFFFFFFFFFFFFFFFFFFFFFFFFFFFFFFFF MUL NOT AND SWAP1 DUP4 PUSH20 0xFFFFFFFFFFFFFFFFFFFFFFFFFFFFFFFFFFFFFFFF AND MUL OR SWAP1 SSTORE POP DUP2 PUSH1 0x3 PUSH1 0x0 DUP8 DUP2 MSTORE PUSH1 0x20 ADD SWAP1 DUP2 MSTORE PUSH1 0x20 ADD PUSH1 0x0 KECCAK256 PUSH1 0x2 ADD PUSH1 0x0 PUSH2 0x100 EXP DUP2 SLOAD DUP2 PUSH20 0xFFFFFFFFFFFFFFFFFFFFFFFFFFFFFFFFFFFFFFFF MUL NOT AND SWAP1 DUP4 PUSH20 0xFFFFFFFFFFFFFFFFFFFFFFFFFFFFFFFFFFFFFFFF AND MUL OR SWAP1 SSTORE POP DUP1 PUSH1 0x3 PUSH1 0x0 DUP8 DUP2 MSTORE PUSH1 0x20 ADD SWAP1 DUP2 MSTORE PUSH1 0x20 ADD PUSH1 0x0 KECCAK256 PUSH1 0x3 ADD DUP2 SWAP1 SSTORE POP DUP5 PUSH1 0x2 DUP6 PUSH1 0x40 MLOAD PUSH3 0x52E SWAP2 SWAP1 PUSH3 0xD45 JUMP JUMPDEST SWAP1 DUP2 MSTORE PUSH1 0x20 ADD PUSH1 0x40 MLOAD DUP1 SWAP2 SUB SWAP1 KECCAK256 DUP2 SWAP1 SSTORE POP DUP1 DUP5 PUSH1 0x40 MLOAD PUSH3 0x551 SWAP2 SWAP1 PUSH3 0xD45 JUMP JUMPDEST PUSH1 0x40 MLOAD DUP1 SWAP2 SUB SWAP1 KECCAK256 DUP7 PUSH32 0xC19BB44B59579BE200A2B8014813F052E8D673471778B18DB3AAE536DCE7BA5 PUSH1 0x40 MLOAD PUSH1 0x40 MLOAD DUP1 SWAP2 SUB SWAP1 LOG4 POP POP POP POP POP JUMP JUMPDEST PUSH1 0x0 CALLER SWAP1 POP SWAP1 JUMP JUMPDEST PUSH1 0x0 DUP1 PUSH1 0x0 SWAP1 SLOAD SWAP1 PUSH2 0x100 EXP SWAP1 DIV PUSH20 0xFFFFFFFFFFFFFFFFFFFFFFFFFFFFFFFFFFFFFFFF AND SWAP1 POP SWAP1 JUMP JUMPDEST PUSH1 0x0 PUSH1 0x40 MLOAD SWAP1 POP SWAP1 JUMP JUMPDEST PUSH1 0x0 DUP1 REVERT JUMPDEST PUSH1 0x0 DUP1 REVERT JUMPDEST PUSH1 0x0 PUSH20 0xFFFFFFFFFFFFFFFFFFFFFFFFFFFFFFFFFFFFFFFF DUP3 AND SWAP1 POP SWAP2 SWAP1 POP JUMP JUMPDEST PUSH1 0x0 PUSH3 0x5FF DUP3 PUSH3 0x5D2 JUMP JUMPDEST SWAP1 POP SWAP2 SWAP1 POP JUMP JUMPDEST PUSH3 0x611 DUP2 PUSH3 0x5F2 JUMP JUMPDEST DUP2 EQ PUSH3 0x61D JUMPI PUSH1 0x0 DUP1 REVERT JUMPDEST POP JUMP JUMPDEST PUSH1 0x0 DUP2 MLOAD SWAP1 POP PUSH3 0x631 DUP2 PUSH3 0x606 JUMP JUMPDEST SWAP3 SWAP2 POP POP JUMP JUMPDEST PUSH1 0x0 PUSH1 0x20 DUP3 DUP5 SUB SLT ISZERO PUSH3 0x650 JUMPI PUSH3 0x64F PUSH3 0x5C8 JUMP JUMPDEST JUMPDEST PUSH1 0x0 PUSH3 0x660 DUP5 DUP3 DUP6 ADD PUSH3 0x620 JUMP JUMPDEST SWAP2 POP POP SWAP3 SWAP2 POP POP JUMP JUMPDEST PUSH3 0x674 DUP2 PUSH3 0x5F2 JUMP JUMPDEST DUP3 MSTORE POP POP JUMP JUMPDEST PUSH1 0x0 PUSH1 0x20 DUP3 ADD SWAP1 POP PUSH3 0x691 PUSH1 0x0 DUP4 ADD DUP5 PUSH3 0x669 JUMP JUMPDEST SWAP3 SWAP2 POP POP JUMP JUMPDEST PUSH32 0x4E487B7100000000000000000000000000000000000000000000000000000000 PUSH1 0x0 MSTORE PUSH1 0x11 PUSH1 0x4 MSTORE PUSH1 0x24 PUSH1 0x0 REVERT JUMPDEST PUSH1 0x0 DUP2 SWAP1 POP SWAP2 SWAP1 POP JUMP JUMPDEST PUSH1 0x0 PUSH3 0x6DD DUP3 PUSH3 0x6C6 JUMP JUMPDEST SWAP2 POP PUSH32 0xFFFFFFFFFFFFFFFFFFFFFFFFFFFFFFFFFFFFFFFFFFFFFFFFFFFFFFFFFFFFFFFF DUP3 SUB PUSH3 0x712 JUMPI PUSH3 0x711 PUSH3 0x697 JUMP JUMPDEST JUMPDEST PUSH1 0x1 DUP3 ADD SWAP1 POP SWAP2 SWAP1 POP JUMP JUMPDEST PUSH1 0x0 DUP1 REVERT JUMPDEST PUSH1 0x0 DUP1 REVERT JUMPDEST PUSH1 0x0 PUSH1 0x1F NOT PUSH1 0x1F DUP4 ADD AND SWAP1 POP SWAP2 SWAP1 POP JUMP JUMPDEST PUSH32 0x4E487B7100000000000000000000000000000000000000000000000000000000 PUSH1 0x0 MSTORE PUSH1 0x41 PUSH1 0x4 MSTORE PUSH1 0x24 PUSH1 0x0 REVERT JUMPDEST PUSH3 0x772 DUP3 PUSH3 0x727 JUMP JUMPDEST DUP2 ADD DUP2 DUP2 LT PUSH8 0xFFFFFFFFFFFFFFFF DUP3 GT OR ISZERO PUSH3 0x794 JUMPI PUSH3 0x793 PUSH3 0x738 JUMP JUMPDEST JUMPDEST DUP1 PUSH1 0x40 MSTORE POP POP POP JUMP JUMPDEST PUSH1 0x0 PUSH3 0x7A9 PUSH3 0x5BE JUMP JUMPDEST SWAP1 POP PUSH3 0x7B7 DUP3 DUP3 PUSH3 0x767 JUMP JUMPDEST SWAP2 SWAP1 POP JUMP JUMPDEST PUSH1 0x0 PUSH8 0xFFFFFFFFFFFFFFFF DUP3 GT ISZERO PUSH3 0x7DA JUMPI PUSH3 0x7D9 PUSH3 0x738 JUMP JUMPDEST JUMPDEST PUSH3 0x7E5 DUP3 PUSH3 0x727 JUMP JUMPDEST SWAP1 POP PUSH1 0x20 DUP2 ADD SWAP1 POP SWAP2 SWAP1 POP JUMP JUMPDEST PUSH1 0x0 JUMPDEST DUP4 DUP2 LT ISZERO PUSH3 0x812 JUMPI DUP1 DUP3 ADD MLOAD DUP2 DUP5 ADD MSTORE PUSH1 0x20 DUP2 ADD SWAP1 POP PUSH3 0x7F5 JUMP JUMPDEST PUSH1 0x0 DUP5 DUP5 ADD MSTORE POP POP POP POP JUMP JUMPDEST PUSH1 0x0 PUSH3 0x835 PUSH3 0x82F DUP5 PUSH3 0x7BC JUMP JUMPDEST PUSH3 0x79D JUMP JUMPDEST SWAP1 POP DUP3 DUP2 MSTORE PUSH1 0x20 DUP2 ADD DUP5 DUP5 DUP5 ADD GT ISZERO PUSH3 0x854 JUMPI PUSH3 0x853 PUSH3 0x722 JUMP JUMPDEST JUMPDEST PUSH3 0x861 DUP5 DUP3 DUP6 PUSH3 0x7F2 JUMP JUMPDEST POP SWAP4 SWAP3 POP POP POP JUMP JUMPDEST PUSH1 0x0 DUP3 PUSH1 0x1F DUP4 ADD SLT PUSH3 0x881 JUMPI PUSH3 0x880 PUSH3 0x71D JUMP JUMPDEST JUMPDEST DUP2 MLOAD PUSH3 0x893 DUP5 DUP3 PUSH1 0x20 DUP7 ADD PUSH3 0x81E JUMP JUMPDEST SWAP2 POP POP SWAP3 SWAP2 POP POP JUMP JUMPDEST PUSH1 0x0 PUSH1 0x20 DUP3 DUP5 SUB SLT ISZERO PUSH3 0x8B5 JUMPI PUSH3 0x8B4 PUSH3 0x5C8 JUMP JUMPDEST JUMPDEST PUSH1 0x0 DUP3 ADD MLOAD PUSH8 0xFFFFFFFFFFFFFFFF DUP2 GT ISZERO PUSH3 0x8D6 JUMPI PUSH3 0x8D5 PUSH3 0x5CD JUMP JUMPDEST JUMPDEST PUSH3 0x8E4 DUP5 DUP3 DUP6 ADD PUSH3 0x869 JUMP JUMPDEST SWAP2 POP POP SWAP3 SWAP2 POP POP JUMP JUMPDEST PUSH1 0x0 DUP2 MLOAD SWAP1 POP SWAP2 SWAP1 POP JUMP JUMPDEST PUSH1 0x0 DUP3 DUP3 MSTORE PUSH1 0x20 DUP3 ADD SWAP1 POP SWAP3 SWAP2 POP POP JUMP JUMPDEST PUSH1 0x0 PUSH3 0x916 DUP3 PUSH3 0x8ED JUMP JUMPDEST PUSH3 0x922 DUP2 DUP6 PUSH3 0x8F8 JUMP JUMPDEST SWAP4 POP PUSH3 0x934 DUP2 DUP6 PUSH1 0x20 DUP7 ADD PUSH3 0x7F2 JUMP JUMPDEST PUSH3 0x93F DUP2 PUSH3 0x727 JUMP JUMPDEST DUP5 ADD SWAP2 POP POP SWAP3 SWAP2 POP POP JUMP JUMPDEST PUSH1 0x0 PUSH1 0x20 DUP3 ADD SWAP1 POP DUP2 DUP2 SUB PUSH1 0x0 DUP4 ADD MSTORE PUSH3 0x966 DUP2 DUP5 PUSH3 0x909 JUMP JUMPDEST SWAP1 POP SWAP3 SWAP2 POP POP JUMP JUMPDEST PUSH3 0x979 DUP2 PUSH3 0x6C6 JUMP JUMPDEST DUP2 EQ PUSH3 0x985 JUMPI PUSH1 0x0 DUP1 REVERT JUMPDEST POP JUMP JUMPDEST PUSH1 0x0 DUP2 MLOAD SWAP1 POP PUSH3 0x999 DUP2 PUSH3 0x96E JUMP JUMPDEST SWAP3 SWAP2 POP POP JUMP JUMPDEST PUSH1 0x0 DUP1 PUSH1 0x40 DUP4 DUP6 SUB SLT ISZERO PUSH3 0x9B9 JUMPI PUSH3 0x9B8 PUSH3 0x5C8 JUMP JUMPDEST JUMPDEST PUSH1 0x0 PUSH3 0x9C9 DUP6 DUP3 DUP7 ADD PUSH3 0x988 JUMP JUMPDEST SWAP3 POP POP PUSH1 0x20 PUSH3 0x9DC DUP6 DUP3 DUP7 ADD PUSH3 0x620 JUMP JUMPDEST SWAP2 POP POP SWAP3 POP SWAP3 SWAP1 POP JUMP JUMPDEST PUSH32 0x4E487B7100000000000000000000000000000000000000000000000000000000 PUSH1 0x0 MSTORE PUSH1 0x22 PUSH1 0x4 MSTORE PUSH1 0x24 PUSH1 0x0 REVERT JUMPDEST PUSH1 0x0 PUSH1 0x2 DUP3 DIV SWAP1 POP PUSH1 0x1 DUP3 AND DUP1 PUSH3 0xA2E JUMPI PUSH1 0x7F DUP3 AND SWAP2 POP JUMPDEST PUSH1 0x20 DUP3 LT DUP2 SUB PUSH3 0xA44 JUMPI PUSH3 0xA43 PUSH3 0x9E6 JUMP JUMPDEST JUMPDEST POP SWAP2 SWAP1 POP JUMP JUMPDEST PUSH1 0x0 DUP2 SWAP1 POP DUP2 PUSH1 0x0 MSTORE PUSH1 0x20 PUSH1 0x0 KECCAK256 SWAP1 POP SWAP2 SWAP1 POP JUMP JUMPDEST PUSH1 0x0 PUSH1 0x20 PUSH1 0x1F DUP4 ADD DIV SWAP1 POP SWAP2 SWAP1 POP JUMP JUMPDEST PUSH1 0x0 DUP3 DUP3 SHL SWAP1 POP SWAP3 SWAP2 POP POP JUMP JUMPDEST PUSH1 0x0 PUSH1 0x8 DUP4 MUL PUSH3 0xAAE PUSH32 0xFFFFFFFFFFFFFFFFFFFFFFFFFFFFFFFFFFFFFFFFFFFFFFFFFFFFFFFFFFFFFFFF DUP3 PUSH3 0xA6F JUMP JUMPDEST PUSH3 0xABA DUP7 DUP4 PUSH3 0xA6F JUMP JUMPDEST SWAP6 POP DUP1 NOT DUP5 AND SWAP4 POP DUP1 DUP7 AND DUP5 OR SWAP3 POP POP POP SWAP4 SWAP3 POP POP POP JUMP JUMPDEST PUSH1 0x0 DUP2 SWAP1 POP SWAP2 SWAP1 POP JUMP JUMPDEST PUSH1 0x0 PUSH3 0xAFD PUSH3 0xAF7 PUSH3 0xAF1 DUP5 PUSH3 0x6C6 JUMP JUMPDEST PUSH3 0xAD2 JUMP JUMPDEST PUSH3 0x6C6 JUMP JUMPDEST SWAP1 POP SWAP2 SWAP1 POP JUMP JUMPDEST PUSH1 0x0 DUP2 SWAP1 POP SWAP2 SWAP1 POP JUMP JUMPDEST PUSH3 0xB19 DUP4 PUSH3 0xADC JUMP JUMPDEST PUSH3 0xB31 PUSH3 0xB28 DUP3 PUSH3 0xB04 JUMP JUMPDEST DUP5 DUP5 SLOAD PUSH3 0xA7C JUMP JUMPDEST DUP3 SSTORE POP POP POP POP JUMP JUMPDEST PUSH1 0x0 SWAP1 JUMP JUMPDEST PUSH3 0xB48 PUSH3 0xB39 JUMP JUMPDEST PUSH3 0xB55 DUP2 DUP5 DUP5 PUSH3 0xB0E JUMP JUMPDEST POP POP POP JUMP JUMPDEST JUMPDEST DUP2 DUP2 LT ISZERO PUSH3 0xB7D JUMPI PUSH3 0xB71 PUSH1 0x0 DUP3 PUSH3 0xB3E JUMP JUMPDEST PUSH1 0x1 DUP2 ADD SWAP1 POP PUSH3 0xB5B JUMP JUMPDEST POP POP JUMP JUMPDEST PUSH1 0x1F DUP3 GT ISZERO PUSH3 0xBCC JUMPI PUSH3 0xB96 DUP2 PUSH3 0xA4A JUMP JUMPDEST PUSH3 0xBA1 DUP5 PUSH3 0xA5F JUMP JUMPDEST DUP2 ADD PUSH1 0x20 DUP6 LT ISZERO PUSH3 0xBB1 JUMPI DUP2 SWAP1 POP JUMPDEST PUSH3 0xBC9 PUSH3 0xBC0 DUP6 PUSH3 0xA5F JUMP JUMPDEST DUP4 ADD DUP3 PUSH3 0xB5A JUMP JUMPDEST POP POP JUMPDEST POP POP POP JUMP JUMPDEST PUSH1 0x0 DUP3 DUP3 SHR SWAP1 POP SWAP3 SWAP2 POP POP JUMP JUMPDEST PUSH1 0x0 PUSH3 0xBF1 PUSH1 0x0 NOT DUP5 PUSH1 0x8 MUL PUSH3 0xBD1 JUMP JUMPDEST NOT DUP1 DUP4 AND SWAP2 POP POP SWAP3 SWAP2 POP POP JUMP JUMPDEST PUSH1 0x0 PUSH3 0xC0C DUP4 DUP4 PUSH3 0xBDE JUMP JUMPDEST SWAP2 POP DUP3 PUSH1 0x2 MUL DUP3 OR SWAP1 POP SWAP3 SWAP2 POP POP JUMP JUMPDEST PUSH3 0xC27 DUP3 PUSH3 0x8ED JUMP JUMPDEST PUSH8 0xFFFFFFFFFFFFFFFF DUP2 GT ISZERO PUSH3 0xC43 JUMPI PUSH3 0xC42 PUSH3 0x738 JUMP JUMPDEST JUMPDEST PUSH3 0xC4F DUP3 SLOAD PUSH3 0xA15 JUMP JUMPDEST PUSH3 0xC5C DUP3 DUP3 DUP6 PUSH3 0xB81 JUMP JUMPDEST PUSH1 0x0 PUSH1 0x20 SWAP1 POP PUSH1 0x1F DUP4 GT PUSH1 0x1 DUP2 EQ PUSH3 0xC94 JUMPI PUSH1 0x0 DUP5 ISZERO PUSH3 0xC7F JUMPI DUP3 DUP8 ADD MLOAD SWAP1 POP JUMPDEST PUSH3 0xC8B DUP6 DUP3 PUSH3 0xBFE JUMP JUMPDEST DUP7 SSTORE POP PUSH3 0xCFB JUMP JUMPDEST PUSH1 0x1F NOT DUP5 AND PUSH3 0xCA4 DUP7 PUSH3 0xA4A JUMP JUMPDEST PUSH1 0x0 JUMPDEST DUP3 DUP2 LT ISZERO PUSH3 0xCCE JUMPI DUP5 DUP10 ADD MLOAD DUP3 SSTORE PUSH1 0x1 DUP3 ADD SWAP2 POP PUSH1 0x20 DUP6 ADD SWAP5 POP PUSH1 0x20 DUP2 ADD SWAP1 POP PUSH3 0xCA7 JUMP JUMPDEST DUP7 DUP4 LT ISZERO PUSH3 0xCEE JUMPI DUP5 DUP10 ADD MLOAD PUSH3 0xCEA PUSH1 0x1F DUP10 AND DUP3 PUSH3 0xBDE JUMP JUMPDEST DUP4 SSTORE POP JUMPDEST PUSH1 0x1 PUSH1 0x2 DUP9 MUL ADD DUP9 SSTORE POP POP POP JUMPDEST POP POP POP POP POP POP JUMP JUMPDEST PUSH1 0x0 DUP2 SWAP1 POP SWAP3 SWAP2 POP POP JUMP JUMPDEST PUSH1 0x0 PUSH3 0xD1B DUP3 PUSH3 0x8ED JUMP JUMPDEST PUSH3 0xD27 DUP2 DUP6 PUSH3 0xD03 JUMP JUMPDEST SWAP4 POP PUSH3 0xD39 DUP2 DUP6 PUSH1 0x20 DUP7 ADD PUSH3 0x7F2 JUMP JUMPDEST DUP1 DUP5 ADD SWAP2 POP POP SWAP3 SWAP2 POP POP JUMP JUMPDEST PUSH1 0x0 PUSH3 0xD53 DUP3 DUP5 PUSH3 0xD0E JUMP JUMPDEST SWAP2 POP DUP2 SWAP1 POP SWAP3 SWAP2 POP POP JUMP JUMPDEST PUSH1 0x80 MLOAD PUSH2 0x55D6 PUSH3 0xDB2 PUSH1 0x0 CODECOPY PUSH1 0x0 DUP2 DUP2 PUSH2 0x725 ADD MSTORE DUP2 DUP2 PUSH2 0xCF4 ADD MSTORE DUP2 DUP2 PUSH2 0x13A6 ADD MSTORE DUP2 DUP2 PUSH2 0x143F ADD MSTORE DUP2 DUP2 PUSH2 0x1F6B ADD MSTORE DUP2 DUP2 PUSH2 0x2EAD ADD MSTORE DUP2 DUP2 PUSH2 0x31E0 ADD MSTORE DUP2 DUP2 PUSH2 0x35E2 ADD MSTORE PUSH2 0x3922 ADD MSTORE PUSH2 0x55D6 PUSH1 0x0 RETURN INVALID PUSH1 0x80 PUSH1 0x40 MSTORE CALLVALUE DUP1 ISZERO PUSH2 0x10 JUMPI PUSH1 0x0 DUP1 REVERT JUMPDEST POP PUSH1 0x4 CALLDATASIZE LT PUSH2 0x14D JUMPI PUSH1 0x0 CALLDATALOAD PUSH1 0xE0 SHR DUP1 PUSH4 0x8DA5CB5B GT PUSH2 0xC3 JUMPI DUP1 PUSH4 0xD6D68177 GT PUSH2 0x7C JUMPI DUP1 PUSH4 0xD6D68177 EQ PUSH2 0x3D9 JUMPI DUP1 PUSH4 0xDF81DDC5 EQ PUSH2 0x40D JUMPI DUP1 PUSH4 0xE388C423 EQ PUSH2 0x43D JUMPI DUP1 PUSH4 0xF0509D40 EQ PUSH2 0x46D JUMPI DUP1 PUSH4 0xF2FDE38B EQ PUSH2 0x49D JUMPI DUP1 PUSH4 0xFC0C546A EQ PUSH2 0x4B9 JUMPI PUSH2 0x14D JUMP JUMPDEST DUP1 PUSH4 0x8DA5CB5B EQ PUSH2 0x30F JUMPI DUP1 PUSH4 0x98F36CA7 EQ PUSH2 0x32D JUMPI DUP1 PUSH4 0xA87430BA EQ PUSH2 0x349 JUMPI DUP1 PUSH4 0xAA9A0912 EQ PUSH2 0x37F JUMPI DUP1 PUSH4 0xB66A0E5D EQ PUSH2 0x3AF JUMPI DUP1 PUSH4 0xC5DC51D4 EQ PUSH2 0x3B9 JUMPI PUSH2 0x14D JUMP JUMPDEST DUP1 PUSH4 0x3CCFD60B GT PUSH2 0x115 JUMPI DUP1 PUSH4 0x3CCFD60B EQ PUSH2 0x24B JUMPI DUP1 PUSH4 0x54F9EEDE EQ PUSH2 0x269 JUMPI DUP1 PUSH4 0x715018A6 EQ PUSH2 0x299 JUMPI DUP1 PUSH4 0x81E1CCBA EQ PUSH2 0x2A3 JUMPI DUP1 PUSH4 0x8734C045 EQ PUSH2 0x2C1 JUMPI DUP1 PUSH4 0x8CE902F2 EQ PUSH2 0x2F1 JUMPI PUSH2 0x14D JUMP JUMPDEST DUP1 PUSH4 0x2EB4B88 EQ PUSH2 0x152 JUMPI DUP1 PUSH4 0xEE141C2 EQ PUSH2 0x185 JUMPI DUP1 PUSH4 0x1849D8EA EQ PUSH2 0x1B8 JUMPI DUP1 PUSH4 0x191A07B4 EQ PUSH2 0x1EB JUMPI DUP1 PUSH4 0x2C7283C3 EQ PUSH2 0x21B JUMPI JUMPDEST PUSH1 0x0 DUP1 REVERT JUMPDEST PUSH2 0x16C PUSH1 0x4 DUP1 CALLDATASIZE SUB DUP2 ADD SWAP1 PUSH2 0x167 SWAP2 SWAP1 PUSH2 0x3E3A JUMP JUMPDEST PUSH2 0x4D7 JUMP JUMPDEST PUSH1 0x40 MLOAD PUSH2 0x17C SWAP5 SWAP4 SWAP3 SWAP2 SWAP1 PUSH2 0x3F56 JUMP JUMPDEST PUSH1 0x40 MLOAD DUP1 SWAP2 SUB SWAP1 RETURN JUMPDEST PUSH2 0x19F PUSH1 0x4 DUP1 CALLDATASIZE SUB DUP2 ADD SWAP1 PUSH2 0x19A SWAP2 SWAP1 PUSH2 0x3FCE JUMP JUMPDEST PUSH2 0x5CF JUMP JUMPDEST PUSH1 0x40 MLOAD PUSH2 0x1AF SWAP5 SWAP4 SWAP3 SWAP2 SWAP1 PUSH2 0x4063 JUMP JUMPDEST PUSH1 0x40 MLOAD DUP1 SWAP2 SUB SWAP1 RETURN JUMPDEST PUSH2 0x1D2 PUSH1 0x4 DUP1 CALLDATASIZE SUB DUP2 ADD SWAP1 PUSH2 0x1CD SWAP2 SWAP1 PUSH2 0x3FCE JUMP JUMPDEST PUSH2 0x644 JUMP JUMPDEST PUSH1 0x40 MLOAD PUSH2 0x1E2 SWAP5 SWAP4 SWAP3 SWAP2 SWAP1 PUSH2 0x40E0 JUMP JUMPDEST PUSH1 0x40 MLOAD DUP1 SWAP2 SUB SWAP1 RETURN JUMPDEST PUSH2 0x205 PUSH1 0x4 DUP1 CALLDATASIZE SUB DUP2 ADD SWAP1 PUSH2 0x200 SWAP2 SWAP1 PUSH2 0x4177 JUMP JUMPDEST PUSH2 0x6D7 JUMP JUMPDEST PUSH1 0x40 MLOAD PUSH2 0x212 SWAP2 SWAP1 PUSH2 0x41B7 JUMP JUMPDEST PUSH1 0x40 MLOAD DUP1 SWAP2 SUB SWAP1 RETURN JUMPDEST PUSH2 0x235 PUSH1 0x4 DUP1 CALLDATASIZE SUB DUP2 ADD SWAP1 PUSH2 0x230 SWAP2 SWAP1 PUSH2 0x4307 JUMP JUMPDEST PUSH2 0x7D7 JUMP JUMPDEST PUSH1 0x40 MLOAD PUSH2 0x242 SWAP2 SWAP1 PUSH2 0x4350 JUMP JUMPDEST PUSH1 0x40 MLOAD DUP1 SWAP2 SUB SWAP1 RETURN JUMPDEST PUSH2 0x253 PUSH2 0x805 JUMP JUMPDEST PUSH1 0x40 MLOAD PUSH2 0x260 SWAP2 SWAP1 PUSH2 0x41B7 JUMP JUMPDEST PUSH1 0x40 MLOAD DUP1 SWAP2 SUB SWAP1 RETURN JUMPDEST PUSH2 0x283 PUSH1 0x4 DUP1 CALLDATASIZE SUB DUP2 ADD SWAP1 PUSH2 0x27E SWAP2 SWAP1 PUSH2 0x436B JUMP JUMPDEST PUSH2 0xD9C JUMP JUMPDEST PUSH1 0x40 MLOAD PUSH2 0x290 SWAP2 SWAP1 PUSH2 0x4350 JUMP JUMPDEST PUSH1 0x40 MLOAD DUP1 SWAP2 SUB SWAP1 RETURN JUMPDEST PUSH2 0x2A1 PUSH2 0x1020 JUMP JUMPDEST STOP JUMPDEST PUSH2 0x2AB PUSH2 0x1034 JUMP JUMPDEST PUSH1 0x40 MLOAD PUSH2 0x2B8 SWAP2 SWAP1 PUSH2 0x43B5 JUMP JUMPDEST PUSH1 0x40 MLOAD DUP1 SWAP2 SUB SWAP1 RETURN JUMPDEST PUSH2 0x2DB PUSH1 0x4 DUP1 CALLDATASIZE SUB DUP2 ADD SWAP1 PUSH2 0x2D6 SWAP2 SWAP1 PUSH2 0x4307 JUMP JUMPDEST PUSH2 0x1048 JUMP JUMPDEST PUSH1 0x40 MLOAD PUSH2 0x2E8 SWAP2 SWAP1 PUSH2 0x41B7 JUMP JUMPDEST PUSH1 0x40 MLOAD DUP1 SWAP2 SUB SWAP1 RETURN JUMPDEST PUSH2 0x2F9 PUSH2 0x114B JUMP JUMPDEST PUSH1 0x40 MLOAD PUSH2 0x306 SWAP2 SWAP1 PUSH2 0x4350 JUMP JUMPDEST PUSH1 0x40 MLOAD DUP1 SWAP2 SUB SWAP1 RETURN JUMPDEST PUSH2 0x317 PUSH2 0x1155 JUMP JUMPDEST PUSH1 0x40 MLOAD PUSH2 0x324 SWAP2 SWAP1 PUSH2 0x43D0 JUMP JUMPDEST PUSH1 0x40 MLOAD DUP1 SWAP2 SUB SWAP1 RETURN JUMPDEST PUSH2 0x347 PUSH1 0x4 DUP1 CALLDATASIZE SUB DUP2 ADD SWAP1 PUSH2 0x342 SWAP2 SWAP1 PUSH2 0x4424 JUMP JUMPDEST PUSH2 0x117E JUMP JUMPDEST STOP JUMPDEST PUSH2 0x363 PUSH1 0x4 DUP1 CALLDATASIZE SUB DUP2 ADD SWAP1 PUSH2 0x35E SWAP2 SWAP1 PUSH2 0x436B JUMP JUMPDEST PUSH2 0x1238 JUMP JUMPDEST PUSH1 0x40 MLOAD PUSH2 0x376 SWAP8 SWAP7 SWAP6 SWAP5 SWAP4 SWAP3 SWAP2 SWAP1 PUSH2 0x44CF JUMP JUMPDEST PUSH1 0x40 MLOAD DUP1 SWAP2 SUB SWAP1 RETURN JUMPDEST PUSH2 0x399 PUSH1 0x4 DUP1 CALLDATASIZE SUB DUP2 ADD SWAP1 PUSH2 0x394 SWAP2 SWAP1 PUSH2 0x453E JUMP JUMPDEST PUSH2 0x132E JUMP JUMPDEST PUSH1 0x40 MLOAD PUSH2 0x3A6 SWAP2 SWAP1 PUSH2 0x4350 JUMP JUMPDEST PUSH1 0x40 MLOAD DUP1 SWAP2 SUB SWAP1 RETURN JUMPDEST PUSH2 0x3B7 PUSH2 0x1350 JUMP JUMPDEST STOP JUMPDEST PUSH2 0x3C1 PUSH2 0x139D JUMP JUMPDEST PUSH1 0x40 MLOAD PUSH2 0x3D0 SWAP4 SWAP3 SWAP2 SWAP1 PUSH2 0x4591 JUMP JUMPDEST PUSH1 0x40 MLOAD DUP1 SWAP2 SUB SWAP1 RETURN JUMPDEST PUSH2 0x3F3 PUSH1 0x4 DUP1 CALLDATASIZE SUB DUP2 ADD SWAP1 PUSH2 0x3EE SWAP2 SWAP1 PUSH2 0x3FCE JUMP JUMPDEST PUSH2 0x14EB JUMP JUMPDEST PUSH1 0x40 MLOAD PUSH2 0x404 SWAP6 SWAP5 SWAP4 SWAP3 SWAP2 SWAP1 PUSH2 0x45DE JUMP JUMPDEST PUSH1 0x40 MLOAD DUP1 SWAP2 SUB SWAP1 RETURN JUMPDEST PUSH2 0x427 PUSH1 0x4 DUP1 CALLDATASIZE SUB DUP2 ADD SWAP1 PUSH2 0x422 SWAP2 SWAP1 PUSH2 0x4664 JUMP JUMPDEST PUSH2 0x160F JUMP JUMPDEST PUSH1 0x40 MLOAD PUSH2 0x434 SWAP2 SWAP1 PUSH2 0x41B7 JUMP JUMPDEST PUSH1 0x40 MLOAD DUP1 SWAP2 SUB SWAP1 RETURN JUMPDEST PUSH2 0x457 PUSH1 0x4 DUP1 CALLDATASIZE SUB DUP2 ADD SWAP1 PUSH2 0x452 SWAP2 SWAP1 PUSH2 0x436B JUMP JUMPDEST PUSH2 0x1933 JUMP JUMPDEST PUSH1 0x40 MLOAD PUSH2 0x464 SWAP2 SWAP1 PUSH2 0x4350 JUMP JUMPDEST PUSH1 0x40 MLOAD DUP1 SWAP2 SUB SWAP1 RETURN JUMPDEST PUSH2 0x487 PUSH1 0x4 DUP1 CALLDATASIZE SUB DUP2 ADD SWAP1 PUSH2 0x482 SWAP2 SWAP1 PUSH2 0x436B JUMP JUMPDEST PUSH2 0x1C31 JUMP JUMPDEST PUSH1 0x40 MLOAD PUSH2 0x494 SWAP2 SWAP1 PUSH2 0x4350 JUMP JUMPDEST PUSH1 0x40 MLOAD DUP1 SWAP2 SUB SWAP1 RETURN JUMPDEST PUSH2 0x4B7 PUSH1 0x4 DUP1 CALLDATASIZE SUB DUP2 ADD SWAP1 PUSH2 0x4B2 SWAP2 SWAP1 PUSH2 0x436B JUMP JUMPDEST PUSH2 0x1EE3 JUMP JUMPDEST STOP JUMPDEST PUSH2 0x4C1 PUSH2 0x1F69 JUMP JUMPDEST PUSH1 0x40 MLOAD PUSH2 0x4CE SWAP2 SWAP1 PUSH2 0x4732 JUMP JUMPDEST PUSH1 0x40 MLOAD DUP1 SWAP2 SUB SWAP1 RETURN JUMPDEST PUSH1 0x3 PUSH1 0x20 MSTORE DUP1 PUSH1 0x0 MSTORE PUSH1 0x40 PUSH1 0x0 KECCAK256 PUSH1 0x0 SWAP2 POP SWAP1 POP DUP1 PUSH1 0x0 ADD DUP1 SLOAD PUSH2 0x4FA SWAP1 PUSH2 0x477C JUMP JUMPDEST DUP1 PUSH1 0x1F ADD PUSH1 0x20 DUP1 SWAP2 DIV MUL PUSH1 0x20 ADD PUSH1 0x40 MLOAD SWAP1 DUP2 ADD PUSH1 0x40 MSTORE DUP1 SWAP3 SWAP2 SWAP1 DUP2 DUP2 MSTORE PUSH1 0x20 ADD DUP3 DUP1 SLOAD PUSH2 0x526 SWAP1 PUSH2 0x477C JUMP JUMPDEST DUP1 ISZERO PUSH2 0x573 JUMPI DUP1 PUSH1 0x1F LT PUSH2 0x548 JUMPI PUSH2 0x100 DUP1 DUP4 SLOAD DIV MUL DUP4 MSTORE SWAP2 PUSH1 0x20 ADD SWAP2 PUSH2 0x573 JUMP JUMPDEST DUP3 ADD SWAP2 SWAP1 PUSH1 0x0 MSTORE PUSH1 0x20 PUSH1 0x0 KECCAK256 SWAP1 JUMPDEST DUP2 SLOAD DUP2 MSTORE SWAP1 PUSH1 0x1 ADD SWAP1 PUSH1 0x20 ADD DUP1 DUP4 GT PUSH2 0x556 JUMPI DUP3 SWAP1 SUB PUSH1 0x1F AND DUP3 ADD SWAP2 JUMPDEST POP POP POP POP POP SWAP1 DUP1 PUSH1 0x1 ADD PUSH1 0x0 SWAP1 SLOAD SWAP1 PUSH2 0x100 EXP SWAP1 DIV PUSH20 0xFFFFFFFFFFFFFFFFFFFFFFFFFFFFFFFFFFFFFFFF AND SWAP1 DUP1 PUSH1 0x2 ADD PUSH1 0x0 SWAP1 SLOAD SWAP1 PUSH2 0x100 EXP SWAP1 DIV PUSH20 0xFFFFFFFFFFFFFFFFFFFFFFFFFFFFFFFFFFFFFFFF AND SWAP1 DUP1 PUSH1 0x3 ADD SLOAD SWAP1 POP DUP5 JUMP JUMPDEST PUSH1 0x8 PUSH1 0x20 MSTORE DUP2 PUSH1 0x0 MSTORE PUSH1 0x40 PUSH1 0x0 KECCAK256 PUSH1 0x20 MSTORE DUP1 PUSH1 0x0 MSTORE PUSH1 0x40 PUSH1 0x0 KECCAK256 PUSH1 0x0 SWAP2 POP SWAP2 POP POP DUP1 PUSH1 0x0 ADD PUSH1 0x0 SWAP1 SLOAD SWAP1 PUSH2 0x100 EXP SWAP1 DIV PUSH31 0xFFFFFFFFFFFFFFFFFFFFFFFFFFFFFFFFFFFFFFFFFFFFFFFFFFFFFFFFFFFFFF AND SWAP1 DUP1 PUSH1 0x1 ADD SLOAD SWAP1 DUP1 PUSH1 0x2 ADD SLOAD SWAP1 DUP1 PUSH1 0x3 ADD PUSH1 0x0 SWAP1 SLOAD SWAP1 PUSH2 0x100 EXP SWAP1 DIV PUSH1 0xFF AND SWAP1 POP DUP5 JUMP JUMPDEST PUSH1 0x7 PUSH1 0x20 MSTORE DUP2 PUSH1 0x0 MSTORE PUSH1 0x40 PUSH1 0x0 KECCAK256 PUSH1 0x20 MSTORE DUP1 PUSH1 0x0 MSTORE PUSH1 0x40 PUSH1 0x0 KECCAK256 PUSH1 0x0 SWAP2 POP SWAP2 POP POP DUP1 PUSH1 0x0 ADD PUSH1 0x0 SWAP1 SLOAD SWAP1 PUSH2 0x100 EXP SWAP1 DIV PUSH29 0xFFFFFFFFFFFFFFFFFFFFFFFFFFFFFFFFFFFFFFFFFFFFFFFFFFFFFFFFFF AND SWAP1 DUP1 PUSH1 0x1 ADD PUSH1 0x0 SWAP1 SLOAD SWAP1 PUSH2 0x100 EXP SWAP1 DIV PUSH20 0xFFFFFFFFFFFFFFFFFFFFFFFFFFFFFFFFFFFFFFFF AND SWAP1 DUP1 PUSH1 0x2 ADD SLOAD SWAP1 DUP1 PUSH1 0x3 ADD PUSH1 0x0 SWAP1 SLOAD SWAP1 PUSH2 0x100 EXP SWAP1 DIV PUSH1 0xFF AND SWAP1 POP DUP5 JUMP JUMPDEST PUSH1 0x0 PUSH2 0x6E1 PUSH2 0x1F8D JUMP JUMPDEST PUSH2 0x721 DUP4 DUP4 PUSH1 0x40 MLOAD DUP1 PUSH1 0x40 ADD PUSH1 0x40 MSTORE DUP1 PUSH1 0x7 DUP2 MSTORE PUSH1 0x20 ADD PUSH32 0x4445504F53495400000000000000000000000000000000000000000000000000 DUP2 MSTORE POP PUSH2 0x1FD3 JUMP JUMPDEST PUSH1 0x0 PUSH32 0x0 PUSH20 0xFFFFFFFFFFFFFFFFFFFFFFFFFFFFFFFFFFFFFFFF AND PUSH4 0x23B872DD CALLER ADDRESS DUP7 PUSH1 0x40 MLOAD DUP5 PUSH4 0xFFFFFFFF AND PUSH1 0xE0 SHL DUP2 MSTORE PUSH1 0x4 ADD PUSH2 0x780 SWAP4 SWAP3 SWAP2 SWAP1 PUSH2 0x47DE JUMP JUMPDEST PUSH1 0x20 PUSH1 0x40 MLOAD DUP1 DUP4 SUB DUP2 PUSH1 0x0 DUP8 GAS CALL ISZERO DUP1 ISZERO PUSH2 0x79F JUMPI RETURNDATASIZE PUSH1 0x0 DUP1 RETURNDATACOPY RETURNDATASIZE PUSH1 0x0 REVERT JUMPDEST POP POP POP POP PUSH1 0x40 MLOAD RETURNDATASIZE PUSH1 0x1F NOT PUSH1 0x1F DUP3 ADD AND DUP3 ADD DUP1 PUSH1 0x40 MSTORE POP DUP2 ADD SWAP1 PUSH2 0x7C3 SWAP2 SWAP1 PUSH2 0x4841 JUMP JUMPDEST SWAP1 POP DUP1 SWAP2 POP POP PUSH2 0x7D1 PUSH2 0x23D0 JUMP JUMPDEST SWAP3 SWAP2 POP POP JUMP JUMPDEST PUSH1 0x2 DUP2 DUP1 MLOAD PUSH1 0x20 DUP2 ADD DUP3 ADD DUP1 MLOAD DUP5 DUP3 MSTORE PUSH1 0x20 DUP4 ADD PUSH1 0x20 DUP6 ADD KECCAK256 DUP2 DUP4 MSTORE DUP1 SWAP6 POP POP POP POP POP POP PUSH1 0x0 SWAP2 POP SWAP1 POP SLOAD DUP2 JUMP JUMPDEST PUSH1 0x0 DUP1 TIMESTAMP SWAP1 POP PUSH1 0x0 DUP1 PUSH1 0x0 PUSH1 0x7 SWAP1 POP JUMPDEST PUSH1 0x2A DUP2 GT PUSH2 0xC48 JUMPI PUSH1 0x0 DUP1 PUSH1 0x1 SWAP1 POP JUMPDEST PUSH1 0x6 PUSH1 0x0 CALLER PUSH20 0xFFFFFFFFFFFFFFFFFFFFFFFFFFFFFFFFFFFFFFFF AND PUSH20 0xFFFFFFFFFFFFFFFFFFFFFFFFFFFFFFFFFFFFFFFF AND DUP2 MSTORE PUSH1 0x20 ADD SWAP1 DUP2 MSTORE PUSH1 0x20 ADD PUSH1 0x0 KECCAK256 PUSH1 0x3 ADD PUSH1 0xC SWAP1 SLOAD SWAP1 PUSH2 0x100 EXP SWAP1 DIV PUSH6 0xFFFFFFFFFFFF AND PUSH6 0xFFFFFFFFFFFF AND DUP2 GT PUSH2 0xC26 JUMPI PUSH1 0x0 PUSH1 0x9 PUSH1 0x0 CALLER PUSH20 0xFFFFFFFFFFFFFFFFFFFFFFFFFFFFFFFFFFFFFFFF AND PUSH20 0xFFFFFFFFFFFFFFFFFFFFFFFFFFFFFFFFFFFFFFFF AND DUP2 MSTORE PUSH1 0x20 ADD SWAP1 DUP2 MSTORE PUSH1 0x20 ADD PUSH1 0x0 KECCAK256 PUSH1 0x0 DUP4 DUP2 MSTORE PUSH1 0x20 ADD SWAP1 DUP2 MSTORE PUSH1 0x20 ADD PUSH1 0x0 KECCAK256 PUSH1 0x40 MLOAD DUP1 PUSH1 0xA0 ADD PUSH1 0x40 MSTORE SWAP1 DUP2 PUSH1 0x0 DUP3 ADD PUSH1 0x0 SWAP1 SLOAD SWAP1 PUSH2 0x100 EXP SWAP1 DIV PUSH26 0xFFFFFFFFFFFFFFFFFFFFFFFFFFFFFFFFFFFFFFFFFFFFFFFFFFFF AND PUSH26 0xFFFFFFFFFFFFFFFFFFFFFFFFFFFFFFFFFFFFFFFFFFFFFFFFFFFF AND PUSH26 0xFFFFFFFFFFFFFFFFFFFFFFFFFFFFFFFFFFFFFFFFFFFFFFFFFFFF AND DUP2 MSTORE PUSH1 0x20 ADD PUSH1 0x1 DUP3 ADD PUSH1 0x0 SWAP1 SLOAD SWAP1 PUSH2 0x100 EXP SWAP1 DIV PUSH26 0xFFFFFFFFFFFFFFFFFFFFFFFFFFFFFFFFFFFFFFFFFFFFFFFFFFFF AND PUSH26 0xFFFFFFFFFFFFFFFFFFFFFFFFFFFFFFFFFFFFFFFFFFFFFFFFFFFF AND PUSH26 0xFFFFFFFFFFFFFFFFFFFFFFFFFFFFFFFFFFFFFFFFFFFFFFFFFFFF AND DUP2 MSTORE PUSH1 0x20 ADD PUSH1 0x2 DUP3 ADD SLOAD DUP2 MSTORE PUSH1 0x20 ADD PUSH1 0x3 DUP3 ADD DUP1 SLOAD PUSH2 0x9CF SWAP1 PUSH2 0x477C JUMP JUMPDEST DUP1 PUSH1 0x1F ADD PUSH1 0x20 DUP1 SWAP2 DIV MUL PUSH1 0x20 ADD PUSH1 0x40 MLOAD SWAP1 DUP2 ADD PUSH1 0x40 MSTORE DUP1 SWAP3 SWAP2 SWAP1 DUP2 DUP2 MSTORE PUSH1 0x20 ADD DUP3 DUP1 SLOAD PUSH2 0x9FB SWAP1 PUSH2 0x477C JUMP JUMPDEST DUP1 ISZERO PUSH2 0xA48 JUMPI DUP1 PUSH1 0x1F LT PUSH2 0xA1D JUMPI PUSH2 0x100 DUP1 DUP4 SLOAD DIV MUL DUP4 MSTORE SWAP2 PUSH1 0x20 ADD SWAP2 PUSH2 0xA48 JUMP JUMPDEST DUP3 ADD SWAP2 SWAP1 PUSH1 0x0 MSTORE PUSH1 0x20 PUSH1 0x0 KECCAK256 SWAP1 JUMPDEST DUP2 SLOAD DUP2 MSTORE SWAP1 PUSH1 0x1 ADD SWAP1 PUSH1 0x20 ADD DUP1 DUP4 GT PUSH2 0xA2B JUMPI DUP3 SWAP1 SUB PUSH1 0x1F AND DUP3 ADD SWAP2 JUMPDEST POP POP POP POP POP DUP2 MSTORE PUSH1 0x20 ADD PUSH1 0x4 DUP3 ADD PUSH1 0x0 SWAP1 SLOAD SWAP1 PUSH2 0x100 EXP SWAP1 DIV PUSH1 0xFF AND ISZERO ISZERO ISZERO ISZERO DUP2 MSTORE POP POP SWAP1 POP DUP1 PUSH1 0x80 ADD MLOAD PUSH2 0xC12 JUMPI PUSH1 0x0 DUP1 PUSH1 0x0 PUSH2 0xA87 DUP8 DUP12 DUP7 PUSH2 0x23DA JUMP JUMPDEST SWAP3 POP SWAP3 POP SWAP3 POP PUSH1 0x0 DUP4 GT ISZERO PUSH2 0xC0E JUMPI DUP3 DUP10 PUSH2 0xAA2 SWAP2 SWAP1 PUSH2 0x489D JUMP JUMPDEST SWAP9 POP DUP2 DUP7 PUSH2 0xAB0 SWAP2 SWAP1 PUSH2 0x489D JUMP JUMPDEST SWAP6 POP DUP3 PUSH20 0xFFFFFFFFFFFFFFFFFFFFFFFFFFFFFFFFFFFFFFFF AND PUSH1 0x9 PUSH1 0x0 CALLER PUSH20 0xFFFFFFFFFFFFFFFFFFFFFFFFFFFFFFFFFFFFFFFF AND PUSH20 0xFFFFFFFFFFFFFFFFFFFFFFFFFFFFFFFFFFFFFFFF AND DUP2 MSTORE PUSH1 0x20 ADD SWAP1 DUP2 MSTORE PUSH1 0x20 ADD PUSH1 0x0 KECCAK256 PUSH1 0x0 DUP8 DUP2 MSTORE PUSH1 0x20 ADD SWAP1 DUP2 MSTORE PUSH1 0x20 ADD PUSH1 0x0 KECCAK256 PUSH1 0x1 ADD PUSH1 0x0 DUP3 DUP3 DUP3 SWAP1 SLOAD SWAP1 PUSH2 0x100 EXP SWAP1 DIV PUSH26 0xFFFFFFFFFFFFFFFFFFFFFFFFFFFFFFFFFFFFFFFFFFFFFFFFFFFF AND PUSH2 0xB50 SWAP2 SWAP1 PUSH2 0x48D1 JUMP JUMPDEST SWAP3 POP PUSH2 0x100 EXP DUP2 SLOAD DUP2 PUSH26 0xFFFFFFFFFFFFFFFFFFFFFFFFFFFFFFFFFFFFFFFFFFFFFFFFFFFF MUL NOT AND SWAP1 DUP4 PUSH26 0xFFFFFFFFFFFFFFFFFFFFFFFFFFFFFFFFFFFFFFFFFFFFFFFFFFFF AND MUL OR SWAP1 SSTORE POP DUP1 ISZERO PUSH2 0xC0D JUMPI PUSH1 0x1 PUSH1 0x9 PUSH1 0x0 CALLER PUSH20 0xFFFFFFFFFFFFFFFFFFFFFFFFFFFFFFFFFFFFFFFF AND PUSH20 0xFFFFFFFFFFFFFFFFFFFFFFFFFFFFFFFFFFFFFFFF AND DUP2 MSTORE PUSH1 0x20 ADD SWAP1 DUP2 MSTORE PUSH1 0x20 ADD PUSH1 0x0 KECCAK256 PUSH1 0x0 DUP8 DUP2 MSTORE PUSH1 0x20 ADD SWAP1 DUP2 MSTORE PUSH1 0x20 ADD PUSH1 0x0 KECCAK256 PUSH1 0x4 ADD PUSH1 0x0 PUSH2 0x100 EXP DUP2 SLOAD DUP2 PUSH1 0xFF MUL NOT AND SWAP1 DUP4 ISZERO ISZERO MUL OR SWAP1 SSTORE POP JUMPDEST JUMPDEST POP POP POP JUMPDEST POP DUP1 DUP1 PUSH2 0xC1E SWAP1 PUSH2 0x491F JUMP JUMPDEST SWAP2 POP POP PUSH2 0x825 JUMP JUMPDEST POP PUSH1 0x0 DUP2 GT ISZERO PUSH2 0xC34 JUMPI DUP1 SWAP3 POP JUMPDEST POP DUP1 DUP1 PUSH2 0xC40 SWAP1 PUSH2 0x491F JUMP JUMPDEST SWAP2 POP POP PUSH2 0x815 JUMP JUMPDEST POP DUP1 DUP3 PUSH2 0xC55 SWAP2 SWAP1 PUSH2 0x4967 JUMP JUMPDEST SWAP2 POP PUSH1 0x0 DUP3 GT PUSH2 0xC9A JUMPI PUSH1 0x40 MLOAD PUSH32 0x8C379A000000000000000000000000000000000000000000000000000000000 DUP2 MSTORE PUSH1 0x4 ADD PUSH2 0xC91 SWAP1 PUSH2 0x4A0D JUMP JUMPDEST PUSH1 0x40 MLOAD DUP1 SWAP2 SUB SWAP1 REVERT JUMPDEST PUSH2 0xCF0 CALLER DUP4 PUSH20 0xFFFFFFFFFFFFFFFFFFFFFFFFFFFFFFFFFFFFFFFF AND PUSH1 0x40 MLOAD DUP1 PUSH1 0x40 ADD PUSH1 0x40 MSTORE DUP1 PUSH1 0x8 DUP2 MSTORE PUSH1 0x20 ADD PUSH32 0x5749544844524157000000000000000000000000000000000000000000000000 DUP2 MSTORE POP PUSH2 0x1FD3 JUMP JUMPDEST PUSH1 0x0 PUSH32 0x0 PUSH20 0xFFFFFFFFFFFFFFFFFFFFFFFFFFFFFFFFFFFFFFFF AND PUSH4 0xA9059CBB CALLER DUP6 PUSH1 0x40 MLOAD DUP4 PUSH4 0xFFFFFFFF AND PUSH1 0xE0 SHL DUP2 MSTORE PUSH1 0x4 ADD PUSH2 0xD4D SWAP3 SWAP2 SWAP1 PUSH2 0x4A2D JUMP JUMPDEST PUSH1 0x20 PUSH1 0x40 MLOAD DUP1 DUP4 SUB DUP2 PUSH1 0x0 DUP8 GAS CALL ISZERO DUP1 ISZERO PUSH2 0xD6C JUMPI RETURNDATASIZE PUSH1 0x0 DUP1 RETURNDATACOPY RETURNDATASIZE PUSH1 0x0 REVERT JUMPDEST POP POP POP POP PUSH1 0x40 MLOAD RETURNDATASIZE PUSH1 0x1F NOT PUSH1 0x1F DUP3 ADD AND DUP3 ADD DUP1 PUSH1 0x40 MSTORE POP DUP2 ADD SWAP1 PUSH2 0xD90 SWAP2 SWAP1 PUSH2 0x4841 JUMP JUMPDEST SWAP1 POP DUP1 SWAP5 POP POP POP POP POP SWAP1 JUMP JUMPDEST PUSH1 0x0 DUP1 PUSH1 0x6 PUSH1 0x0 DUP5 PUSH20 0xFFFFFFFFFFFFFFFFFFFFFFFFFFFFFFFFFFFFFFFF AND PUSH20 0xFFFFFFFFFFFFFFFFFFFFFFFFFFFFFFFFFFFFFFFF AND DUP2 MSTORE PUSH1 0x20 ADD SWAP1 DUP2 MSTORE PUSH1 0x20 ADD PUSH1 0x0 KECCAK256 PUSH1 0x40 MLOAD DUP1 PUSH1 0xE0 ADD PUSH1 0x40 MSTORE SWAP1 DUP2 PUSH1 0x0 DUP3 ADD PUSH1 0x0 SWAP1 SLOAD SWAP1 PUSH2 0x100 EXP SWAP1 DIV PUSH23 0xFFFFFFFFFFFFFFFFFFFFFFFFFFFFFFFFFFFFFFFFFFFFFF AND PUSH23 0xFFFFFFFFFFFFFFFFFFFFFFFFFFFFFFFFFFFFFFFFFFFFFF AND PUSH23 0xFFFFFFFFFFFFFFFFFFFFFFFFFFFFFFFFFFFFFFFFFFFFFF AND DUP2 MSTORE PUSH1 0x20 ADD PUSH1 0x1 DUP3 ADD PUSH1 0x0 SWAP1 SLOAD SWAP1 PUSH2 0x100 EXP SWAP1 DIV PUSH23 0xFFFFFFFFFFFFFFFFFFFFFFFFFFFFFFFFFFFFFFFFFFFFFF AND PUSH23 0xFFFFFFFFFFFFFFFFFFFFFFFFFFFFFFFFFFFFFFFFFFFFFF AND PUSH23 0xFFFFFFFFFFFFFFFFFFFFFFFFFFFFFFFFFFFFFFFFFFFFFF AND DUP2 MSTORE PUSH1 0x20 ADD PUSH1 0x2 DUP3 ADD PUSH1 0x0 SWAP1 SLOAD SWAP1 PUSH2 0x100 EXP SWAP1 DIV PUSH16 0xFFFFFFFFFFFFFFFFFFFFFFFFFFFFFFFF AND PUSH16 0xFFFFFFFFFFFFFFFFFFFFFFFFFFFFFFFF AND PUSH16 0xFFFFFFFFFFFFFFFFFFFFFFFFFFFFFFFF AND DUP2 MSTORE PUSH1 0x20 ADD PUSH1 0x2 DUP3 ADD PUSH1 0x10 SWAP1 SLOAD SWAP1 PUSH2 0x100 EXP SWAP1 DIV PUSH16 0xFFFFFFFFFFFFFFFFFFFFFFFFFFFFFFFF AND PUSH16 0xFFFFFFFFFFFFFFFFFFFFFFFFFFFFFFFF AND PUSH16 0xFFFFFFFFFFFFFFFFFFFFFFFFFFFFFFFF AND DUP2 MSTORE PUSH1 0x20 ADD PUSH1 0x3 DUP3 ADD PUSH1 0x0 SWAP1 SLOAD SWAP1 PUSH2 0x100 EXP SWAP1 DIV PUSH6 0xFFFFFFFFFFFF AND PUSH6 0xFFFFFFFFFFFF AND PUSH6 0xFFFFFFFFFFFF AND DUP2 MSTORE PUSH1 0x20 ADD PUSH1 0x3 DUP3 ADD PUSH1 0x6 SWAP1 SLOAD SWAP1 PUSH2 0x100 EXP SWAP1 DIV PUSH6 0xFFFFFFFFFFFF AND PUSH6 0xFFFFFFFFFFFF AND PUSH6 0xFFFFFFFFFFFF AND DUP2 MSTORE PUSH1 0x20 ADD PUSH1 0x3 DUP3 ADD PUSH1 0xC SWAP1 SLOAD SWAP1 PUSH2 0x100 EXP SWAP1 DIV PUSH6 0xFFFFFFFFFFFF AND PUSH6 0xFFFFFFFFFFFF AND PUSH6 0xFFFFFFFFFFFF AND DUP2 MSTORE POP POP SWAP1 POP PUSH1 0x0 DUP2 PUSH1 0x60 ADD MLOAD DUP3 PUSH1 0x40 ADD MLOAD PUSH2 0xFD7 SWAP2 SWAP1 PUSH2 0x4A56 JUMP JUMPDEST PUSH16 0xFFFFFFFFFFFFFFFFFFFFFFFFFFFFFFFF AND SWAP1 POP DUP1 DUP3 PUSH1 0x0 ADD MLOAD PUSH23 0xFFFFFFFFFFFFFFFFFFFFFFFFFFFFFFFFFFFFFFFFFFFFFF AND PUSH2 0x1014 SWAP2 SWAP1 PUSH2 0x4967 JUMP JUMPDEST SWAP1 POP DUP1 SWAP3 POP POP POP SWAP2 SWAP1 POP JUMP JUMPDEST PUSH2 0x1028 PUSH2 0x2919 JUMP JUMPDEST PUSH2 0x1032 PUSH1 0x0 PUSH2 0x29A0 JUMP JUMPDEST JUMP JUMPDEST PUSH1 0x5 PUSH1 0x0 SWAP1 SLOAD SWAP1 PUSH2 0x100 EXP SWAP1 DIV PUSH2 0xFFFF AND DUP2 JUMP JUMPDEST PUSH1 0x0 PUSH2 0x1052 PUSH2 0x1F8D JUMP JUMPDEST PUSH1 0x0 TIMESTAMP SWAP1 POP PUSH2 0x1096 DUP4 PUSH1 0x40 MLOAD DUP1 PUSH1 0x40 ADD PUSH1 0x40 MSTORE DUP1 PUSH1 0x8 DUP2 MSTORE PUSH1 0x20 ADD PUSH32 0x554E5F5354414B45000000000000000000000000000000000000000000000000 DUP2 MSTORE POP PUSH2 0x2A64 JUMP JUMPDEST ISZERO PUSH2 0x10AD JUMPI PUSH2 0x10A5 CALLER DUP3 PUSH2 0x2A7F JUMP JUMPDEST SWAP2 POP POP PUSH2 0x113E JUMP JUMPDEST PUSH2 0x10EC DUP4 PUSH1 0x40 MLOAD DUP1 PUSH1 0x40 ADD PUSH1 0x40 MSTORE DUP1 PUSH1 0x7 DUP2 MSTORE PUSH1 0x20 ADD PUSH32 0x554E5F4C4F434B00000000000000000000000000000000000000000000000000 DUP2 MSTORE POP PUSH2 0x2A64 JUMP JUMPDEST ISZERO PUSH2 0x1103 JUMPI PUSH2 0x10FB CALLER DUP3 PUSH2 0x2F58 JUMP JUMPDEST SWAP2 POP POP PUSH2 0x113E JUMP JUMPDEST PUSH1 0x40 MLOAD PUSH32 0x8C379A000000000000000000000000000000000000000000000000000000000 DUP2 MSTORE PUSH1 0x4 ADD PUSH2 0x1135 SWAP1 PUSH2 0x4B0C JUMP JUMPDEST PUSH1 0x40 MLOAD DUP1 SWAP2 SUB SWAP1 REVERT JUMPDEST PUSH2 0x1146 PUSH2 0x23D0 JUMP JUMPDEST SWAP2 SWAP1 POP JUMP JUMPDEST PUSH1 0x0 PUSH1 0x1 SLOAD SWAP1 POP SWAP1 JUMP JUMPDEST PUSH1 0x0 DUP1 PUSH1 0x0 SWAP1 SLOAD SWAP1 PUSH2 0x100 EXP SWAP1 DIV PUSH20 0xFFFFFFFFFFFFFFFFFFFFFFFFFFFFFFFFFFFFFFFF AND SWAP1 POP SWAP1 JUMP JUMPDEST DUP1 PUSH1 0xFF AND PUSH1 0x0 DUP2 GT PUSH2 0x11C5 JUMPI PUSH1 0x40 MLOAD PUSH32 0x8C379A000000000000000000000000000000000000000000000000000000000 DUP2 MSTORE PUSH1 0x4 ADD PUSH2 0x11BC SWAP1 PUSH2 0x4B9E JUMP JUMPDEST PUSH1 0x40 MLOAD DUP1 SWAP2 SUB SWAP1 REVERT JUMPDEST PUSH2 0x11CD PUSH2 0x2919 JUMP JUMPDEST DUP2 PUSH1 0xFF AND PUSH1 0x5 PUSH1 0x0 PUSH2 0x100 EXP DUP2 SLOAD DUP2 PUSH2 0xFFFF MUL NOT AND SWAP1 DUP4 PUSH2 0xFFFF AND MUL OR SWAP1 SSTORE POP CALLER PUSH20 0xFFFFFFFFFFFFFFFFFFFFFFFFFFFFFFFFFFFFFFFF AND DUP3 PUSH1 0xFF AND PUSH32 0xC33D7F95E5C54D034E8457F6C4CD07FE2D3402A6AE284AD891A2406F9D6E13A6 PUSH1 0x40 MLOAD PUSH1 0x40 MLOAD DUP1 SWAP2 SUB SWAP1 LOG3 POP POP JUMP JUMPDEST PUSH1 0x6 PUSH1 0x20 MSTORE DUP1 PUSH1 0x0 MSTORE PUSH1 0x40 PUSH1 0x0 KECCAK256 PUSH1 0x0 SWAP2 POP SWAP1 POP DUP1 PUSH1 0x0 ADD PUSH1 0x0 SWAP1 SLOAD SWAP1 PUSH2 0x100 EXP SWAP1 DIV PUSH23 0xFFFFFFFFFFFFFFFFFFFFFFFFFFFFFFFFFFFFFFFFFFFFFF AND SWAP1 DUP1 PUSH1 0x1 ADD PUSH1 0x0 SWAP1 SLOAD SWAP1 PUSH2 0x100 EXP SWAP1 DIV PUSH23 0xFFFFFFFFFFFFFFFFFFFFFFFFFFFFFFFFFFFFFFFFFFFFFF AND SWAP1 DUP1 PUSH1 0x2 ADD PUSH1 0x0 SWAP1 SLOAD SWAP1 PUSH2 0x100 EXP SWAP1 DIV PUSH16 0xFFFFFFFFFFFFFFFFFFFFFFFFFFFFFFFF AND SWAP1 DUP1 PUSH1 0x2 ADD PUSH1 0x10 SWAP1 SLOAD SWAP1 PUSH2 0x100 EXP SWAP1 DIV PUSH16 0xFFFFFFFFFFFFFFFFFFFFFFFFFFFFFFFF AND SWAP1 DUP1 PUSH1 0x3 ADD PUSH1 0x0 SWAP1 SLOAD SWAP1 PUSH2 0x100 EXP SWAP1 DIV PUSH6 0xFFFFFFFFFFFF AND SWAP1 DUP1 PUSH1 0x3 ADD PUSH1 0x6 SWAP1 SLOAD SWAP1 PUSH2 0x100 EXP SWAP1 DIV PUSH6 0xFFFFFFFFFFFF AND SWAP1 DUP1 PUSH1 0x3 ADD PUSH1 0xC SWAP1 SLOAD SWAP1 PUSH2 0x100 EXP SWAP1 DIV PUSH6 0xFFFFFFFFFFFF AND SWAP1 POP DUP8 JUMP JUMPDEST PUSH1 0x0 DUP2 DUP4 DUP6 PUSH2 0x133D SWAP2 SWAP1 PUSH2 0x4BBE JUMP JUMPDEST PUSH2 0x1347 SWAP2 SWAP1 PUSH2 0x4C2F JUMP JUMPDEST SWAP1 POP SWAP4 SWAP3 POP POP POP JUMP JUMPDEST PUSH2 0x1358 PUSH2 0x2919 JUMP JUMPDEST PUSH1 0x0 TIMESTAMP SWAP1 POP PUSH1 0x0 PUSH1 0x1 PUSH1 0x0 DUP2 SLOAD PUSH2 0x136E SWAP1 PUSH2 0x491F JUMP JUMPDEST SWAP2 SWAP1 POP DUP2 SWAP1 SSTORE SWAP1 POP PUSH1 0x0 DUP1 PUSH1 0x0 PUSH2 0x1383 PUSH2 0x139D JUMP JUMPDEST SWAP3 POP SWAP3 POP SWAP3 POP PUSH2 0x1396 DUP5 DUP5 DUP5 DUP5 DUP10 PUSH2 0x3289 JUMP JUMPDEST POP POP POP POP POP JUMP JUMPDEST PUSH1 0x60 PUSH1 0x0 DUP1 PUSH1 0x0 PUSH32 0x0 PUSH20 0xFFFFFFFFFFFFFFFFFFFFFFFFFFFFFFFFFFFFFFFF AND PUSH4 0x944DF045 PUSH1 0x40 MLOAD DUP2 PUSH4 0xFFFFFFFF AND PUSH1 0xE0 SHL DUP2 MSTORE PUSH1 0x4 ADD PUSH1 0x0 PUSH1 0x40 MLOAD DUP1 DUP4 SUB DUP2 DUP7 GAS STATICCALL ISZERO DUP1 ISZERO PUSH2 0x140F JUMPI RETURNDATASIZE PUSH1 0x0 DUP1 RETURNDATACOPY RETURNDATASIZE PUSH1 0x0 REVERT JUMPDEST POP POP POP POP PUSH1 0x40 MLOAD RETURNDATASIZE PUSH1 0x0 DUP3 RETURNDATACOPY RETURNDATASIZE PUSH1 0x1F NOT PUSH1 0x1F DUP3 ADD AND DUP3 ADD DUP1 PUSH1 0x40 MSTORE POP DUP2 ADD SWAP1 PUSH2 0x1438 SWAP2 SWAP1 PUSH2 0x4CD0 JUMP JUMPDEST SWAP1 POP PUSH1 0x0 DUP1 PUSH32 0x0 PUSH20 0xFFFFFFFFFFFFFFFFFFFFFFFFFFFFFFFFFFFFFFFF AND PUSH4 0x60A9AEB DUP5 PUSH1 0x40 MLOAD DUP3 PUSH4 0xFFFFFFFF AND PUSH1 0xE0 SHL DUP2 MSTORE PUSH1 0x4 ADD PUSH2 0x1496 SWAP2 SWAP1 PUSH2 0x4D19 JUMP JUMPDEST PUSH1 0x40 DUP1 MLOAD DUP1 DUP4 SUB DUP2 DUP7 GAS STATICCALL ISZERO DUP1 ISZERO PUSH2 0x14B2 JUMPI RETURNDATASIZE PUSH1 0x0 DUP1 RETURNDATACOPY RETURNDATASIZE PUSH1 0x0 REVERT JUMPDEST POP POP POP POP PUSH1 0x40 MLOAD RETURNDATASIZE PUSH1 0x1F NOT PUSH1 0x1F DUP3 ADD AND DUP3 ADD DUP1 PUSH1 0x40 MSTORE POP DUP2 ADD SWAP1 PUSH2 0x14D6 SWAP2 SWAP1 PUSH2 0x4D65 JUMP JUMPDEST SWAP2 POP SWAP2 POP DUP3 DUP3 DUP3 SWAP6 POP SWAP6 POP SWAP6 POP POP POP POP SWAP1 SWAP2 SWAP3 JUMP JUMPDEST PUSH1 0x9 PUSH1 0x20 MSTORE DUP2 PUSH1 0x0 MSTORE PUSH1 0x40 PUSH1 0x0 KECCAK256 PUSH1 0x20 MSTORE DUP1 PUSH1 0x0 MSTORE PUSH1 0x40 PUSH1 0x0 KECCAK256 PUSH1 0x0 SWAP2 POP SWAP2 POP POP DUP1 PUSH1 0x0 ADD PUSH1 0x0 SWAP1 SLOAD SWAP1 PUSH2 0x100 EXP SWAP1 DIV PUSH26 0xFFFFFFFFFFFFFFFFFFFFFFFFFFFFFFFFFFFFFFFFFFFFFFFFFFFF AND SWAP1 DUP1 PUSH1 0x1 ADD PUSH1 0x0 SWAP1 SLOAD SWAP1 PUSH2 0x100 EXP SWAP1 DIV PUSH26 0xFFFFFFFFFFFFFFFFFFFFFFFFFFFFFFFFFFFFFFFFFFFFFFFFFFFF AND SWAP1 DUP1 PUSH1 0x2 ADD SLOAD SWAP1 DUP1 PUSH1 0x3 ADD DUP1 SLOAD PUSH2 0x1579 SWAP1 PUSH2 0x477C JUMP JUMPDEST DUP1 PUSH1 0x1F ADD PUSH1 0x20 DUP1 SWAP2 DIV MUL PUSH1 0x20 ADD PUSH1 0x40 MLOAD SWAP1 DUP2 ADD PUSH1 0x40 MSTORE DUP1 SWAP3 SWAP2 SWAP1 DUP2 DUP2 MSTORE PUSH1 0x20 ADD DUP3 DUP1 SLOAD PUSH2 0x15A5 SWAP1 PUSH2 0x477C JUMP JUMPDEST DUP1 ISZERO PUSH2 0x15F2 JUMPI DUP1 PUSH1 0x1F LT PUSH2 0x15C7 JUMPI PUSH2 0x100 DUP1 DUP4 SLOAD DIV MUL DUP4 MSTORE SWAP2 PUSH1 0x20 ADD SWAP2 PUSH2 0x15F2 JUMP JUMPDEST DUP3 ADD SWAP2 SWAP1 PUSH1 0x0 MSTORE PUSH1 0x20 PUSH1 0x0 KECCAK256 SWAP1 JUMPDEST DUP2 SLOAD DUP2 MSTORE SWAP1 PUSH1 0x1 ADD SWAP1 PUSH1 0x20 ADD DUP1 DUP4 GT PUSH2 0x15D5 JUMPI DUP3 SWAP1 SUB PUSH1 0x1F AND DUP3 ADD SWAP2 JUMPDEST POP POP POP POP POP SWAP1 DUP1 PUSH1 0x4 ADD PUSH1 0x0 SWAP1 SLOAD SWAP1 PUSH2 0x100 EXP SWAP1 DIV PUSH1 0xFF AND SWAP1 POP DUP6 JUMP JUMPDEST PUSH1 0x0 DUP3 PUSH29 0xFFFFFFFFFFFFFFFFFFFFFFFFFFFFFFFFFFFFFFFFFFFFFFFFFFFFFFFFFF AND PUSH1 0x0 DUP2 GT PUSH2 0x1674 JUMPI PUSH1 0x40 MLOAD PUSH32 0x8C379A000000000000000000000000000000000000000000000000000000000 DUP2 MSTORE PUSH1 0x4 ADD PUSH2 0x166B SWAP1 PUSH2 0x4B9E JUMP JUMPDEST PUSH1 0x40 MLOAD DUP1 SWAP2 SUB SWAP1 REVERT JUMPDEST DUP5 PUSH1 0x0 PUSH20 0xFFFFFFFFFFFFFFFFFFFFFFFFFFFFFFFFFFFFFFFF AND DUP2 PUSH20 0xFFFFFFFFFFFFFFFFFFFFFFFFFFFFFFFFFFFFFFFF AND SUB PUSH2 0x16E4 JUMPI PUSH1 0x40 MLOAD PUSH32 0x8C379A000000000000000000000000000000000000000000000000000000000 DUP2 MSTORE PUSH1 0x4 ADD PUSH2 0x16DB SWAP1 PUSH2 0x4E17 JUMP JUMPDEST PUSH1 0x40 MLOAD DUP1 SWAP2 SUB SWAP1 REVERT JUMPDEST PUSH2 0x16EC PUSH2 0x1F8D JUMP JUMPDEST PUSH1 0x0 TIMESTAMP SWAP1 POP PUSH2 0x1730 DUP6 PUSH1 0x40 MLOAD DUP1 PUSH1 0x40 ADD PUSH1 0x40 MSTORE DUP1 PUSH1 0x5 DUP2 MSTORE PUSH1 0x20 ADD PUSH32 0x5354414B45000000000000000000000000000000000000000000000000000000 DUP2 MSTORE POP PUSH2 0x2A64 JUMP JUMPDEST ISZERO PUSH2 0x17EC JUMPI DUP6 PUSH1 0x6 PUSH1 0x0 DUP10 PUSH20 0xFFFFFFFFFFFFFFFFFFFFFFFFFFFFFFFFFFFFFFFF AND PUSH20 0xFFFFFFFFFFFFFFFFFFFFFFFFFFFFFFFFFFFFFFFF AND DUP2 MSTORE PUSH1 0x20 ADD SWAP1 DUP2 MSTORE PUSH1 0x20 ADD PUSH1 0x0 KECCAK256 PUSH1 0x2 ADD PUSH1 0x0 DUP3 DUP3 DUP3 SWAP1 SLOAD SWAP1 PUSH2 0x100 EXP SWAP1 DIV PUSH16 0xFFFFFFFFFFFFFFFFFFFFFFFFFFFFFFFF AND PUSH2 0x17A2 SWAP2 SWAP1 PUSH2 0x4A56 JUMP JUMPDEST SWAP3 POP PUSH2 0x100 EXP DUP2 SLOAD DUP2 PUSH16 0xFFFFFFFFFFFFFFFFFFFFFFFFFFFFFFFF MUL NOT AND SWAP1 DUP4 PUSH16 0xFFFFFFFFFFFFFFFFFFFFFFFFFFFFFFFF AND MUL OR SWAP1 SSTORE POP PUSH2 0x17E4 CALLER DUP9 DUP9 DUP5 PUSH2 0x33E0 JUMP JUMPDEST SWAP4 POP POP PUSH2 0x1922 JUMP JUMPDEST PUSH2 0x182B DUP6 PUSH1 0x40 MLOAD DUP1 PUSH1 0x40 ADD PUSH1 0x40 MSTORE DUP1 PUSH1 0x4 DUP2 MSTORE PUSH1 0x20 ADD PUSH32 0x4C4F434B00000000000000000000000000000000000000000000000000000000 DUP2 MSTORE POP PUSH2 0x2A64 JUMP JUMPDEST ISZERO PUSH2 0x18E7 JUMPI DUP6 PUSH1 0x6 PUSH1 0x0 DUP10 PUSH20 0xFFFFFFFFFFFFFFFFFFFFFFFFFFFFFFFFFFFFFFFF AND PUSH20 0xFFFFFFFFFFFFFFFFFFFFFFFFFFFFFFFFFFFFFFFF AND DUP2 MSTORE PUSH1 0x20 ADD SWAP1 DUP2 MSTORE PUSH1 0x20 ADD PUSH1 0x0 KECCAK256 PUSH1 0x2 ADD PUSH1 0x10 DUP3 DUP3 DUP3 SWAP1 SLOAD SWAP1 PUSH2 0x100 EXP SWAP1 DIV PUSH16 0xFFFFFFFFFFFFFFFFFFFFFFFFFFFFFFFF AND PUSH2 0x189D SWAP2 SWAP1 PUSH2 0x4A56 JUMP JUMPDEST SWAP3 POP PUSH2 0x100 EXP DUP2 SLOAD DUP2 PUSH16 0xFFFFFFFFFFFFFFFFFFFFFFFFFFFFFFFF MUL NOT AND SWAP1 DUP4 PUSH16 0xFFFFFFFFFFFFFFFFFFFFFFFFFFFFFFFF AND MUL OR SWAP1 SSTORE POP PUSH2 0x18DF CALLER DUP9 DUP9 DUP5 PUSH2 0x368F JUMP JUMPDEST SWAP4 POP POP PUSH2 0x1922 JUMP JUMPDEST PUSH1 0x40 MLOAD PUSH32 0x8C379A000000000000000000000000000000000000000000000000000000000 DUP2 MSTORE PUSH1 0x4 ADD PUSH2 0x1919 SWAP1 PUSH2 0x4EA9 JUMP JUMPDEST PUSH1 0x40 MLOAD DUP1 SWAP2 SUB SWAP1 REVERT JUMPDEST PUSH2 0x192A PUSH2 0x23D0 JUMP JUMPDEST POP POP SWAP4 SWAP3 POP POP POP JUMP JUMPDEST PUSH1 0x0 DUP1 TIMESTAMP SWAP1 POP PUSH1 0x0 DUP1 PUSH1 0x0 PUSH1 0x7 SWAP1 POP JUMPDEST PUSH1 0x2A DUP2 GT PUSH2 0x1C17 JUMPI PUSH1 0x0 DUP1 PUSH1 0x1 SWAP1 POP JUMPDEST PUSH1 0x6 PUSH1 0x0 DUP10 PUSH20 0xFFFFFFFFFFFFFFFFFFFFFFFFFFFFFFFFFFFFFFFF AND PUSH20 0xFFFFFFFFFFFFFFFFFFFFFFFFFFFFFFFFFFFFFFFF AND DUP2 MSTORE PUSH1 0x20 ADD SWAP1 DUP2 MSTORE PUSH1 0x20 ADD PUSH1 0x0 KECCAK256 PUSH1 0x3 ADD PUSH1 0xC SWAP1 SLOAD SWAP1 PUSH2 0x100 EXP SWAP1 DIV PUSH6 0xFFFFFFFFFFFF AND PUSH6 0xFFFFFFFFFFFF AND DUP2 GT PUSH2 0x1BF5 JUMPI PUSH1 0x0 PUSH1 0x9 PUSH1 0x0 DUP11 PUSH20 0xFFFFFFFFFFFFFFFFFFFFFFFFFFFFFFFFFFFFFFFF AND PUSH20 0xFFFFFFFFFFFFFFFFFFFFFFFFFFFFFFFFFFFFFFFF AND DUP2 MSTORE PUSH1 0x20 ADD SWAP1 DUP2 MSTORE PUSH1 0x20 ADD PUSH1 0x0 KECCAK256 PUSH1 0x0 DUP4 DUP2 MSTORE PUSH1 0x20 ADD SWAP1 DUP2 MSTORE PUSH1 0x20 ADD PUSH1 0x0 KECCAK256 PUSH1 0x40 MLOAD DUP1 PUSH1 0xA0 ADD PUSH1 0x40 MSTORE SWAP1 DUP2 PUSH1 0x0 DUP3 ADD PUSH1 0x0 SWAP1 SLOAD SWAP1 PUSH2 0x100 EXP SWAP1 DIV PUSH26 0xFFFFFFFFFFFFFFFFFFFFFFFFFFFFFFFFFFFFFFFFFFFFFFFFFFFF AND PUSH26 0xFFFFFFFFFFFFFFFFFFFFFFFFFFFFFFFFFFFFFFFFFFFFFFFFFFFF AND PUSH26 0xFFFFFFFFFFFFFFFFFFFFFFFFFFFFFFFFFFFFFFFFFFFFFFFFFFFF AND DUP2 MSTORE PUSH1 0x20 ADD PUSH1 0x1 DUP3 ADD PUSH1 0x0 SWAP1 SLOAD SWAP1 PUSH2 0x100 EXP SWAP1 DIV PUSH26 0xFFFFFFFFFFFFFFFFFFFFFFFFFFFFFFFFFFFFFFFFFFFFFFFFFFFF AND PUSH26 0xFFFFFFFFFFFFFFFFFFFFFFFFFFFFFFFFFFFFFFFFFFFFFFFFFFFF AND PUSH26 0xFFFFFFFFFFFFFFFFFFFFFFFFFFFFFFFFFFFFFFFFFFFFFFFFFFFF AND DUP2 MSTORE PUSH1 0x20 ADD PUSH1 0x2 DUP3 ADD SLOAD DUP2 MSTORE PUSH1 0x20 ADD PUSH1 0x3 DUP3 ADD DUP1 SLOAD PUSH2 0x1AFD SWAP1 PUSH2 0x477C JUMP JUMPDEST DUP1 PUSH1 0x1F ADD PUSH1 0x20 DUP1 SWAP2 DIV MUL PUSH1 0x20 ADD PUSH1 0x40 MLOAD SWAP1 DUP2 ADD PUSH1 0x40 MSTORE DUP1 SWAP3 SWAP2 SWAP1 DUP2 DUP2 MSTORE PUSH1 0x20 ADD DUP3 DUP1 SLOAD PUSH2 0x1B29 SWAP1 PUSH2 0x477C JUMP JUMPDEST DUP1 ISZERO PUSH2 0x1B76 JUMPI DUP1 PUSH1 0x1F LT PUSH2 0x1B4B JUMPI PUSH2 0x100 DUP1 DUP4 SLOAD DIV MUL DUP4 MSTORE SWAP2 PUSH1 0x20 ADD SWAP2 PUSH2 0x1B76 JUMP JUMPDEST DUP3 ADD SWAP2 SWAP1 PUSH1 0x0 MSTORE PUSH1 0x20 PUSH1 0x0 KECCAK256 SWAP1 JUMPDEST DUP2 SLOAD DUP2 MSTORE SWAP1 PUSH1 0x1 ADD SWAP1 PUSH1 0x20 ADD DUP1 DUP4 GT PUSH2 0x1B59 JUMPI DUP3 SWAP1 SUB PUSH1 0x1F AND DUP3 ADD SWAP2 JUMPDEST POP POP POP POP POP DUP2 MSTORE PUSH1 0x20 ADD PUSH1 0x4 DUP3 ADD PUSH1 0x0 SWAP1 SLOAD SWAP1 PUSH2 0x100 EXP SWAP1 DIV PUSH1 0xFF AND ISZERO ISZERO ISZERO ISZERO DUP2 MSTORE POP POP SWAP1 POP DUP1 PUSH1 0x80 ADD MLOAD PUSH2 0x1BE1 JUMPI PUSH1 0x0 DUP1 PUSH2 0x1BB3 DUP7 DUP11 DUP6 PUSH2 0x23DA JUMP JUMPDEST POP SWAP2 POP SWAP2 POP PUSH1 0x0 DUP3 GT ISZERO PUSH2 0x1BDE JUMPI DUP2 DUP9 PUSH2 0x1BCD SWAP2 SWAP1 PUSH2 0x489D JUMP JUMPDEST SWAP8 POP DUP1 DUP6 PUSH2 0x1BDB SWAP2 SWAP1 PUSH2 0x489D JUMP JUMPDEST SWAP5 POP JUMPDEST POP POP JUMPDEST POP DUP1 DUP1 PUSH2 0x1BED SWAP1 PUSH2 0x491F JUMP JUMPDEST SWAP2 POP POP PUSH2 0x1953 JUMP JUMPDEST POP PUSH1 0x0 DUP2 GT ISZERO PUSH2 0x1C03 JUMPI DUP1 SWAP3 POP JUMPDEST POP DUP1 DUP1 PUSH2 0x1C0F SWAP1 PUSH2 0x491F JUMP JUMPDEST SWAP2 POP POP PUSH2 0x1943 JUMP JUMPDEST POP DUP1 DUP3 PUSH2 0x1C24 SWAP2 SWAP1 PUSH2 0x4967 JUMP JUMPDEST SWAP2 POP DUP2 SWAP4 POP POP POP POP SWAP2 SWAP1 POP JUMP JUMPDEST PUSH1 0x0 DUP1 PUSH1 0x0 SWAP1 POP PUSH1 0x0 DUP1 PUSH1 0x0 TIMESTAMP SWAP1 POP PUSH1 0x0 PUSH1 0xD SWAP1 POP JUMPDEST PUSH1 0x12 DUP2 GT PUSH2 0x1EC8 JUMPI PUSH1 0x0 SWAP4 POP PUSH1 0x0 PUSH1 0x1 SWAP1 POP JUMPDEST PUSH1 0x6 PUSH1 0x0 DUP10 PUSH20 0xFFFFFFFFFFFFFFFFFFFFFFFFFFFFFFFFFFFFFFFF AND PUSH20 0xFFFFFFFFFFFFFFFFFFFFFFFFFFFFFFFFFFFFFFFF AND DUP2 MSTORE PUSH1 0x20 ADD SWAP1 DUP2 MSTORE PUSH1 0x20 ADD PUSH1 0x0 KECCAK256 PUSH1 0x3 ADD PUSH1 0x0 SWAP1 SLOAD SWAP1 PUSH2 0x100 EXP SWAP1 DIV PUSH6 0xFFFFFFFFFFFF AND PUSH6 0xFFFFFFFFFFFF AND DUP2 GT PUSH2 0x1EB4 JUMPI PUSH1 0x0 PUSH1 0x7 PUSH1 0x0 DUP11 PUSH20 0xFFFFFFFFFFFFFFFFFFFFFFFFFFFFFFFFFFFFFFFF AND PUSH20 0xFFFFFFFFFFFFFFFFFFFFFFFFFFFFFFFFFFFFFFFF AND DUP2 MSTORE PUSH1 0x20 ADD SWAP1 DUP2 MSTORE PUSH1 0x20 ADD PUSH1 0x0 KECCAK256 PUSH1 0x0 DUP4 DUP2 MSTORE PUSH1 0x20 ADD SWAP1 DUP2 MSTORE PUSH1 0x20 ADD PUSH1 0x0 KECCAK256 PUSH1 0x40 MLOAD DUP1 PUSH1 0x80 ADD PUSH1 0x40 MSTORE SWAP1 DUP2 PUSH1 0x0 DUP3 ADD PUSH1 0x0 SWAP1 SLOAD SWAP1 PUSH2 0x100 EXP SWAP1 DIV PUSH29 0xFFFFFFFFFFFFFFFFFFFFFFFFFFFFFFFFFFFFFFFFFFFFFFFFFFFFFFFFFF AND PUSH29 0xFFFFFFFFFFFFFFFFFFFFFFFFFFFFFFFFFFFFFFFFFFFFFFFFFFFFFFFFFF AND PUSH29 0xFFFFFFFFFFFFFFFFFFFFFFFFFFFFFFFFFFFFFFFFFFFFFFFFFFFFFFFFFF AND DUP2 MSTORE PUSH1 0x20 ADD PUSH1 0x1 DUP3 ADD PUSH1 0x0 SWAP1 SLOAD SWAP1 PUSH2 0x100 EXP SWAP1 DIV PUSH20 0xFFFFFFFFFFFFFFFFFFFFFFFFFFFFFFFFFFFFFFFF AND PUSH20 0xFFFFFFFFFFFFFFFFFFFFFFFFFFFFFFFFFFFFFFFF AND PUSH20 0xFFFFFFFFFFFFFFFFFFFFFFFFFFFFFFFFFFFFFFFF AND DUP2 MSTORE PUSH1 0x20 ADD PUSH1 0x2 DUP3 ADD SLOAD DUP2 MSTORE PUSH1 0x20 ADD PUSH1 0x3 DUP3 ADD PUSH1 0x0 SWAP1 SLOAD SWAP1 PUSH2 0x100 EXP SWAP1 DIV PUSH1 0xFF AND ISZERO ISZERO ISZERO ISZERO DUP2 MSTORE POP POP SWAP1 POP DUP1 PUSH1 0x60 ADD MLOAD PUSH2 0x1EA0 JUMPI PUSH1 0xD DUP4 SUB PUSH2 0x1E37 JUMPI DUP1 PUSH1 0x20 ADD MLOAD PUSH20 0xFFFFFFFFFFFFFFFFFFFFFFFFFFFFFFFFFFFFFFFF AND SWAP5 POP JUMPDEST PUSH1 0x0 PUSH2 0x1E44 DUP5 DUP7 DUP5 PUSH2 0x39CF JUMP JUMPDEST POP SWAP1 POP PUSH1 0x0 DUP2 GT ISZERO PUSH2 0x1E9E JUMPI PUSH1 0x0 PUSH2 0x1E73 DUP3 PUSH1 0x5 PUSH1 0x0 SWAP1 SLOAD SWAP1 PUSH2 0x100 EXP SWAP1 DIV PUSH2 0xFFFF AND PUSH2 0xFFFF AND PUSH2 0x3E8 PUSH2 0x132E JUMP JUMPDEST SWAP1 POP DUP1 DUP3 PUSH2 0x1E81 SWAP2 SWAP1 PUSH2 0x489D JUMP JUMPDEST DUP10 PUSH2 0x1E8C SWAP2 SWAP1 PUSH2 0x489D JUMP JUMPDEST SWAP9 POP DUP7 DUP9 PUSH2 0x1E9A SWAP2 SWAP1 PUSH2 0x489D JUMP JUMPDEST SWAP8 POP POP JUMPDEST POP JUMPDEST POP DUP1 DUP1 PUSH2 0x1EAC SWAP1 PUSH2 0x491F JUMP JUMPDEST SWAP2 POP POP PUSH2 0x1C5A JUMP JUMPDEST POP DUP1 DUP1 PUSH2 0x1EC0 SWAP1 PUSH2 0x491F JUMP JUMPDEST SWAP2 POP POP PUSH2 0x1C47 JUMP JUMPDEST POP DUP3 DUP5 PUSH2 0x1ED5 SWAP2 SWAP1 PUSH2 0x4967 JUMP JUMPDEST SWAP4 POP DUP4 SWAP5 POP POP POP POP POP SWAP2 SWAP1 POP JUMP JUMPDEST PUSH2 0x1EEB PUSH2 0x2919 JUMP JUMPDEST PUSH1 0x0 PUSH20 0xFFFFFFFFFFFFFFFFFFFFFFFFFFFFFFFFFFFFFFFF AND DUP2 PUSH20 0xFFFFFFFFFFFFFFFFFFFFFFFFFFFFFFFFFFFFFFFF AND SUB PUSH2 0x1F5D JUMPI PUSH1 0x0 PUSH1 0x40 MLOAD PUSH32 0x1E4FBDF700000000000000000000000000000000000000000000000000000000 DUP2 MSTORE PUSH1 0x4 ADD PUSH2 0x1F54 SWAP2 SWAP1 PUSH2 0x43D0 JUMP JUMPDEST PUSH1 0x40 MLOAD DUP1 SWAP2 SUB SWAP1 REVERT JUMPDEST PUSH2 0x1F66 DUP2 PUSH2 0x29A0 JUMP JUMPDEST POP JUMP JUMPDEST PUSH32 0x0 DUP2 JUMP JUMPDEST PUSH1 0x2 PUSH1 0x4 SLOAD SUB PUSH2 0x1FC9 JUMPI PUSH1 0x40 MLOAD PUSH32 0x3EE5AEB500000000000000000000000000000000000000000000000000000000 DUP2 MSTORE PUSH1 0x4 ADD PUSH1 0x40 MLOAD DUP1 SWAP2 SUB SWAP1 REVERT JUMPDEST PUSH1 0x2 PUSH1 0x4 DUP2 SWAP1 SSTORE POP JUMP JUMPDEST DUP2 PUSH26 0xFFFFFFFFFFFFFFFFFFFFFFFFFFFFFFFFFFFFFFFFFFFFFFFFFFFF AND PUSH1 0x0 DUP2 GT PUSH2 0x2033 JUMPI PUSH1 0x40 MLOAD PUSH32 0x8C379A000000000000000000000000000000000000000000000000000000000 DUP2 MSTORE PUSH1 0x4 ADD PUSH2 0x202A SWAP1 PUSH2 0x4B9E JUMP JUMPDEST PUSH1 0x40 MLOAD DUP1 SWAP2 SUB SWAP1 REVERT JUMPDEST DUP4 PUSH1 0x0 PUSH20 0xFFFFFFFFFFFFFFFFFFFFFFFFFFFFFFFFFFFFFFFF AND DUP2 PUSH20 0xFFFFFFFFFFFFFFFFFFFFFFFFFFFFFFFFFFFFFFFF AND SUB PUSH2 0x20A3 JUMPI PUSH1 0x40 MLOAD PUSH32 0x8C379A000000000000000000000000000000000000000000000000000000000 DUP2 MSTORE PUSH1 0x4 ADD PUSH2 0x209A SWAP1 PUSH2 0x4E17 JUMP JUMPDEST PUSH1 0x40 MLOAD DUP1 SWAP2 SUB SWAP1 REVERT JUMPDEST PUSH1 0x0 PUSH1 0x6 PUSH1 0x0 DUP8 PUSH20 0xFFFFFFFFFFFFFFFFFFFFFFFFFFFFFFFFFFFFFFFF AND PUSH20 0xFFFFFFFFFFFFFFFFFFFFFFFFFFFFFFFFFFFFFFFF AND DUP2 MSTORE PUSH1 0x20 ADD SWAP1 DUP2 MSTORE PUSH1 0x20 ADD PUSH1 0x0 KECCAK256 PUSH1 0x0 ADD PUSH1 0x0 SWAP1 SLOAD SWAP1 PUSH2 0x100 EXP SWAP1 DIV PUSH23 0xFFFFFFFFFFFFFFFFFFFFFFFFFFFFFFFFFFFFFFFFFFFFFF AND PUSH23 0xFFFFFFFFFFFFFFFFFFFFFFFFFFFFFFFFFFFFFFFFFFFFFF AND SWAP1 POP PUSH2 0x2165 DUP5 PUSH1 0x40 MLOAD DUP1 PUSH1 0x40 ADD PUSH1 0x40 MSTORE DUP1 PUSH1 0x7 DUP2 MSTORE PUSH1 0x20 ADD PUSH32 0x4445504F53495400000000000000000000000000000000000000000000000000 DUP2 MSTORE POP PUSH2 0x2A64 JUMP JUMPDEST ISZERO PUSH2 0x21A3 JUMPI DUP5 PUSH26 0xFFFFFFFFFFFFFFFFFFFFFFFFFFFFFFFFFFFFFFFFFFFFFFFFFFFF AND DUP2 PUSH2 0x2192 SWAP2 SWAP1 PUSH2 0x489D JUMP JUMPDEST SWAP1 POP PUSH2 0x219E DUP7 DUP7 PUSH2 0x3A82 JUMP JUMPDEST PUSH2 0x22CB JUMP JUMPDEST PUSH2 0x21E2 DUP5 PUSH1 0x40 MLOAD DUP1 PUSH1 0x40 ADD PUSH1 0x40 MSTORE DUP1 PUSH1 0x8 DUP2 MSTORE PUSH1 0x20 ADD PUSH32 0x5749544844524157000000000000000000000000000000000000000000000000 DUP2 MSTORE POP PUSH2 0x2A64 JUMP JUMPDEST ISZERO PUSH2 0x22CA JUMPI DUP5 PUSH26 0xFFFFFFFFFFFFFFFFFFFFFFFFFFFFFFFFFFFFFFFFFFFFFFFFFFFF AND DUP2 PUSH2 0x220F SWAP2 SWAP1 PUSH2 0x4967 JUMP JUMPDEST SWAP1 POP DUP5 PUSH1 0x6 PUSH1 0x0 DUP9 PUSH20 0xFFFFFFFFFFFFFFFFFFFFFFFFFFFFFFFFFFFFFFFF AND PUSH20 0xFFFFFFFFFFFFFFFFFFFFFFFFFFFFFFFFFFFFFFFF AND DUP2 MSTORE PUSH1 0x20 ADD SWAP1 DUP2 MSTORE PUSH1 0x20 ADD PUSH1 0x0 KECCAK256 PUSH1 0x1 ADD PUSH1 0x0 DUP3 DUP3 DUP3 SWAP1 SLOAD SWAP1 PUSH2 0x100 EXP SWAP1 DIV PUSH23 0xFFFFFFFFFFFFFFFFFFFFFFFFFFFFFFFFFFFFFFFFFFFFFF AND PUSH2 0x2285 SWAP2 SWAP1 PUSH2 0x4EC9 JUMP JUMPDEST SWAP3 POP PUSH2 0x100 EXP DUP2 SLOAD DUP2 PUSH23 0xFFFFFFFFFFFFFFFFFFFFFFFFFFFFFFFFFFFFFFFFFFFFFF MUL NOT AND SWAP1 DUP4 PUSH23 0xFFFFFFFFFFFFFFFFFFFFFFFFFFFFFFFFFFFFFFFFFFFFFF AND MUL OR SWAP1 SSTORE POP JUMPDEST JUMPDEST DUP1 PUSH1 0x6 PUSH1 0x0 DUP9 PUSH20 0xFFFFFFFFFFFFFFFFFFFFFFFFFFFFFFFFFFFFFFFF AND PUSH20 0xFFFFFFFFFFFFFFFFFFFFFFFFFFFFFFFFFFFFFFFF AND DUP2 MSTORE PUSH1 0x20 ADD SWAP1 DUP2 MSTORE PUSH1 0x20 ADD PUSH1 0x0 KECCAK256 PUSH1 0x0 ADD PUSH1 0x0 PUSH2 0x100 EXP DUP2 SLOAD DUP2 PUSH23 0xFFFFFFFFFFFFFFFFFFFFFFFFFFFFFFFFFFFFFFFFFFFFFF MUL NOT AND SWAP1 DUP4 PUSH23 0xFFFFFFFFFFFFFFFFFFFFFFFFFFFFFFFFFFFFFFFFFFFFFF AND MUL OR SWAP1 SSTORE POP DUP4 PUSH1 0x40 MLOAD PUSH2 0x2360 SWAP2 SWAP1 PUSH2 0x4F50 JUMP JUMPDEST PUSH1 0x40 MLOAD DUP1 SWAP2 SUB SWAP1 KECCAK256 DUP6 PUSH26 0xFFFFFFFFFFFFFFFFFFFFFFFFFFFFFFFFFFFFFFFFFFFFFFFFFFFF AND DUP8 PUSH20 0xFFFFFFFFFFFFFFFFFFFFFFFFFFFFFFFFFFFFFFFF AND PUSH32 0x580B799B7DAF8B70733791BA3FC6ACCBE6AEC46F721AF6C7A7F076E044D9C255 PUSH1 0x40 MLOAD PUSH1 0x40 MLOAD DUP1 SWAP2 SUB SWAP1 LOG4 POP POP POP POP POP POP JUMP JUMPDEST PUSH1 0x1 PUSH1 0x4 DUP2 SWAP1 SSTORE POP JUMP JUMPDEST PUSH1 0x0 DUP1 PUSH1 0x0 DUP1 PUSH1 0x0 SWAP1 POP PUSH1 0x0 DUP1 PUSH1 0x0 PUSH1 0x7 DUP11 SUB PUSH2 0x240C JUMPI PUSH2 0x23FB DUP9 DUP11 PUSH2 0x3C9D JUMP JUMPDEST SWAP3 POP DUP3 DUP5 PUSH2 0x2409 SWAP2 SWAP1 PUSH2 0x489D JUMP JUMPDEST SWAP4 POP JUMPDEST PUSH1 0x0 PUSH1 0x3C DUP1 PUSH1 0x18 PUSH1 0x1E DUP15 PUSH2 0x2420 SWAP2 SWAP1 PUSH2 0x4BBE JUMP JUMPDEST PUSH2 0x242A SWAP2 SWAP1 PUSH2 0x4BBE JUMP JUMPDEST PUSH2 0x2434 SWAP2 SWAP1 PUSH2 0x4BBE JUMP JUMPDEST PUSH2 0x243E SWAP2 SWAP1 PUSH2 0x4BBE JUMP JUMPDEST DUP10 PUSH1 0x40 ADD MLOAD PUSH2 0x244D SWAP2 SWAP1 PUSH2 0x489D JUMP JUMPDEST SWAP1 POP DUP1 DUP11 GT ISZERO PUSH2 0x2902 JUMPI DUP4 PUSH20 0xFFFFFFFFFFFFFFFFFFFFFFFFFFFFFFFFFFFFFFFF AND DUP10 PUSH1 0x0 ADD DUP2 DUP2 MLOAD PUSH2 0x247F SWAP2 SWAP1 PUSH2 0x4F67 JUMP JUMPDEST SWAP2 POP SWAP1 PUSH26 0xFFFFFFFFFFFFFFFFFFFFFFFFFFFFFFFFFFFFFFFFFFFFFFFFFFFF AND SWAP1 DUP2 PUSH26 0xFFFFFFFFFFFFFFFFFFFFFFFFFFFFFFFFFFFFFFFFFFFFFFFFFFFF AND DUP2 MSTORE POP POP PUSH2 0x2503 DUP10 PUSH1 0x60 ADD MLOAD PUSH1 0x40 MLOAD DUP1 PUSH1 0x40 ADD PUSH1 0x40 MSTORE DUP1 PUSH1 0xD DUP2 MSTORE PUSH1 0x20 ADD PUSH32 0x465249454E445F46414D494C5900000000000000000000000000000000000000 DUP2 MSTORE POP PUSH2 0x2A64 JUMP JUMPDEST DUP1 PUSH2 0x254D JUMPI POP PUSH2 0x254C DUP10 PUSH1 0x60 ADD MLOAD PUSH1 0x40 MLOAD DUP1 PUSH1 0x40 ADD PUSH1 0x40 MSTORE DUP1 PUSH1 0xC DUP2 MSTORE PUSH1 0x20 ADD PUSH32 0x505249564154455F53414C450000000000000000000000000000000000000000 DUP2 MSTORE POP PUSH2 0x2A64 JUMP JUMPDEST JUMPDEST DUP1 PUSH2 0x2597 JUMPI POP PUSH2 0x2596 DUP10 PUSH1 0x60 ADD MLOAD PUSH1 0x40 MLOAD DUP1 PUSH1 0x40 ADD PUSH1 0x40 MSTORE DUP1 PUSH1 0xB DUP2 MSTORE PUSH1 0x20 ADD PUSH32 0x5055424C49435F53414C45000000000000000000000000000000000000000000 DUP2 MSTORE POP PUSH2 0x2A64 JUMP JUMPDEST JUMPDEST ISZERO PUSH2 0x2628 JUMPI PUSH1 0x7 DUP12 LT ISZERO DUP1 ISZERO PUSH2 0x25AE JUMPI POP PUSH1 0x12 DUP12 GT ISZERO JUMPDEST ISZERO PUSH2 0x2627 JUMPI PUSH1 0x7 DUP12 SUB PUSH2 0x25DF JUMPI DUP9 PUSH1 0x20 ADD MLOAD PUSH26 0xFFFFFFFFFFFFFFFFFFFFFFFFFFFFFFFFFFFFFFFFFFFFFFFFFFFF AND SWAP3 POP JUMPDEST PUSH1 0xC DUP10 PUSH1 0x0 ADD MLOAD PUSH2 0x25F0 SWAP2 SWAP1 PUSH2 0x4FB5 JUMP JUMPDEST PUSH26 0xFFFFFFFFFFFFFFFFFFFFFFFFFFFFFFFFFFFFFFFFFFFFFFFFFFFF AND DUP6 PUSH2 0x2617 SWAP2 SWAP1 PUSH2 0x489D JUMP JUMPDEST SWAP5 POP PUSH1 0x12 DUP12 SUB PUSH2 0x2626 JUMPI PUSH1 0x1 SWAP2 POP JUMPDEST JUMPDEST JUMPDEST PUSH2 0x266B DUP10 PUSH1 0x60 ADD MLOAD PUSH1 0x40 MLOAD DUP1 PUSH1 0x40 ADD PUSH1 0x40 MSTORE DUP1 PUSH1 0x4 DUP2 MSTORE PUSH1 0x20 ADD PUSH32 0x5445414D00000000000000000000000000000000000000000000000000000000 DUP2 MSTORE POP PUSH2 0x2A64 JUMP JUMPDEST DUP1 PUSH2 0x26B5 JUMPI POP PUSH2 0x26B4 DUP10 PUSH1 0x60 ADD MLOAD PUSH1 0x40 MLOAD DUP1 PUSH1 0x40 ADD PUSH1 0x40 MSTORE DUP1 PUSH1 0x8 DUP2 MSTORE PUSH1 0x20 ADD PUSH32 0x41445649534F5253000000000000000000000000000000000000000000000000 DUP2 MSTORE POP PUSH2 0x2A64 JUMP JUMPDEST JUMPDEST ISZERO PUSH2 0x2746 JUMPI PUSH1 0xD DUP12 LT ISZERO DUP1 ISZERO PUSH2 0x26CC JUMPI POP PUSH1 0x24 DUP12 GT ISZERO JUMPDEST ISZERO PUSH2 0x2745 JUMPI PUSH1 0xD DUP12 SUB PUSH2 0x26FD JUMPI DUP9 PUSH1 0x20 ADD MLOAD PUSH26 0xFFFFFFFFFFFFFFFFFFFFFFFFFFFFFFFFFFFFFFFFFFFFFFFFFFFF AND SWAP3 POP JUMPDEST PUSH1 0x18 DUP10 PUSH1 0x0 ADD MLOAD PUSH2 0x270E SWAP2 SWAP1 PUSH2 0x4FB5 JUMP JUMPDEST PUSH26 0xFFFFFFFFFFFFFFFFFFFFFFFFFFFFFFFFFFFFFFFFFFFFFFFFFFFF AND DUP6 PUSH2 0x2735 SWAP2 SWAP1 PUSH2 0x489D JUMP JUMPDEST SWAP5 POP PUSH1 0x24 DUP12 SUB PUSH2 0x2744 JUMPI PUSH1 0x1 SWAP2 POP JUMPDEST JUMPDEST JUMPDEST PUSH2 0x2789 DUP10 PUSH1 0x60 ADD MLOAD PUSH1 0x40 MLOAD DUP1 PUSH1 0x40 ADD PUSH1 0x40 MSTORE DUP1 PUSH1 0x8 DUP2 MSTORE PUSH1 0x20 ADD PUSH32 0x5245534552564553000000000000000000000000000000000000000000000000 DUP2 MSTORE POP PUSH2 0x2A64 JUMP JUMPDEST DUP1 PUSH2 0x27D3 JUMPI POP PUSH2 0x27D2 DUP10 PUSH1 0x60 ADD MLOAD PUSH1 0x40 MLOAD DUP1 PUSH1 0x40 ADD PUSH1 0x40 MSTORE DUP1 PUSH1 0x1A DUP2 MSTORE PUSH1 0x20 ADD PUSH32 0x53544F524147455F4D494E54494E475F414C4C4F434154494F4E000000000000 DUP2 MSTORE POP PUSH2 0x2A64 JUMP JUMPDEST JUMPDEST ISZERO PUSH2 0x2864 JUMPI PUSH1 0x19 DUP12 LT ISZERO DUP1 ISZERO PUSH2 0x27EA JUMPI POP PUSH1 0x24 DUP12 GT ISZERO JUMPDEST ISZERO PUSH2 0x2863 JUMPI PUSH1 0x19 DUP12 SUB PUSH2 0x281B JUMPI DUP9 PUSH1 0x20 ADD MLOAD PUSH26 0xFFFFFFFFFFFFFFFFFFFFFFFFFFFFFFFFFFFFFFFFFFFFFFFFFFFF AND SWAP3 POP JUMPDEST PUSH1 0xC DUP10 PUSH1 0x0 ADD MLOAD PUSH2 0x282C SWAP2 SWAP1 PUSH2 0x4FB5 JUMP JUMPDEST PUSH26 0xFFFFFFFFFFFFFFFFFFFFFFFFFFFFFFFFFFFFFFFFFFFFFFFFFFFF AND DUP6 PUSH2 0x2853 SWAP2 SWAP1 PUSH2 0x489D JUMP JUMPDEST SWAP5 POP PUSH1 0x24 DUP12 SUB PUSH2 0x2862 JUMPI PUSH1 0x1 SWAP2 POP JUMPDEST JUMPDEST JUMPDEST PUSH2 0x28A7 DUP10 PUSH1 0x60 ADD MLOAD PUSH1 0x40 MLOAD DUP1 PUSH1 0x40 ADD PUSH1 0x40 MSTORE DUP1 PUSH1 0xA DUP2 MSTORE PUSH1 0x20 ADD PUSH32 0x4D41524B455454494E4700000000000000000000000000000000000000000000 DUP2 MSTORE POP PUSH2 0x2A64 JUMP JUMPDEST ISZERO PUSH2 0x2901 JUMPI PUSH1 0x12 DUP12 SUB PUSH2 0x28D8 JUMPI DUP9 PUSH1 0x20 ADD MLOAD PUSH26 0xFFFFFFFFFFFFFFFFFFFFFFFFFFFFFFFFFFFFFFFFFFFFFFFFFFFF AND SWAP3 POP JUMPDEST PUSH2 0x28E6 DUP12 DUP11 PUSH1 0x0 ADD MLOAD PUSH2 0x3D47 JUMP JUMPDEST DUP6 PUSH2 0x28F1 SWAP2 SWAP1 PUSH2 0x489D JUMP JUMPDEST SWAP5 POP PUSH1 0x2A DUP12 SUB PUSH2 0x2900 JUMPI PUSH1 0x1 SWAP2 POP JUMPDEST JUMPDEST JUMPDEST DUP5 DUP4 DUP4 SWAP8 POP SWAP8 POP SWAP8 POP POP POP POP POP POP SWAP4 POP SWAP4 POP SWAP4 SWAP1 POP JUMP JUMPDEST PUSH2 0x2921 PUSH2 0x3DE8 JUMP JUMPDEST PUSH20 0xFFFFFFFFFFFFFFFFFFFFFFFFFFFFFFFFFFFFFFFF AND PUSH2 0x293F PUSH2 0x1155 JUMP JUMPDEST PUSH20 0xFFFFFFFFFFFFFFFFFFFFFFFFFFFFFFFFFFFFFFFF AND EQ PUSH2 0x299E JUMPI PUSH2 0x2962 PUSH2 0x3DE8 JUMP JUMPDEST PUSH1 0x40 MLOAD PUSH32 0x118CDAA700000000000000000000000000000000000000000000000000000000 DUP2 MSTORE PUSH1 0x4 ADD PUSH2 0x2995 SWAP2 SWAP1 PUSH2 0x43D0 JUMP JUMPDEST PUSH1 0x40 MLOAD DUP1 SWAP2 SUB SWAP1 REVERT JUMPDEST JUMP JUMPDEST PUSH1 0x0 DUP1 PUSH1 0x0 SWAP1 SLOAD SWAP1 PUSH2 0x100 EXP SWAP1 DIV PUSH20 0xFFFFFFFFFFFFFFFFFFFFFFFFFFFFFFFFFFFFFFFF AND SWAP1 POP DUP2 PUSH1 0x0 DUP1 PUSH2 0x100 EXP DUP2 SLOAD DUP2 PUSH20 0xFFFFFFFFFFFFFFFFFFFFFFFFFFFFFFFFFFFFFFFF MUL NOT AND SWAP1 DUP4 PUSH20 0xFFFFFFFFFFFFFFFFFFFFFFFFFFFFFFFFFFFFFFFF AND MUL OR SWAP1 SSTORE POP DUP2 PUSH20 0xFFFFFFFFFFFFFFFFFFFFFFFFFFFFFFFFFFFFFFFF AND DUP2 PUSH20 0xFFFFFFFFFFFFFFFFFFFFFFFFFFFFFFFFFFFFFFFF AND PUSH32 0x8BE0079C531659141344CD1FD0A4F28419497F9722A3DAAFE3B4186F6B6457E0 PUSH1 0x40 MLOAD PUSH1 0x40 MLOAD DUP1 SWAP2 SUB SWAP1 LOG3 POP POP JUMP JUMPDEST PUSH1 0x0 DUP2 DUP1 MLOAD SWAP1 PUSH1 0x20 ADD KECCAK256 DUP4 DUP1 MLOAD SWAP1 PUSH1 0x20 ADD KECCAK256 EQ SWAP1 POP SWAP3 SWAP2 POP POP JUMP JUMPDEST PUSH1 0x0 DUP1 PUSH1 0x0 SWAP1 POP PUSH1 0x0 DUP1 PUSH1 0x0 PUSH1 0xD SWAP1 POP JUMPDEST PUSH1 0x12 DUP2 GT PUSH2 0x2E57 JUMPI PUSH1 0x0 SWAP3 POP PUSH1 0x0 PUSH1 0x1 SWAP1 POP JUMPDEST PUSH1 0x6 PUSH1 0x0 DUP10 PUSH20 0xFFFFFFFFFFFFFFFFFFFFFFFFFFFFFFFFFFFFFFFF AND PUSH20 0xFFFFFFFFFFFFFFFFFFFFFFFFFFFFFFFFFFFFFFFF AND DUP2 MSTORE PUSH1 0x20 ADD SWAP1 DUP2 MSTORE PUSH1 0x20 ADD PUSH1 0x0 KECCAK256 PUSH1 0x3 ADD PUSH1 0x0 SWAP1 SLOAD SWAP1 PUSH2 0x100 EXP SWAP1 DIV PUSH6 0xFFFFFFFFFFFF AND PUSH6 0xFFFFFFFFFFFF AND DUP2 GT PUSH2 0x2E43 JUMPI PUSH1 0x0 PUSH1 0x7 PUSH1 0x0 DUP11 PUSH20 0xFFFFFFFFFFFFFFFFFFFFFFFFFFFFFFFFFFFFFFFF AND PUSH20 0xFFFFFFFFFFFFFFFFFFFFFFFFFFFFFFFFFFFFFFFF AND DUP2 MSTORE PUSH1 0x20 ADD SWAP1 DUP2 MSTORE PUSH1 0x20 ADD PUSH1 0x0 KECCAK256 PUSH1 0x0 DUP4 DUP2 MSTORE PUSH1 0x20 ADD SWAP1 DUP2 MSTORE PUSH1 0x20 ADD PUSH1 0x0 KECCAK256 PUSH1 0x40 MLOAD DUP1 PUSH1 0x80 ADD PUSH1 0x40 MSTORE SWAP1 DUP2 PUSH1 0x0 DUP3 ADD PUSH1 0x0 SWAP1 SLOAD SWAP1 PUSH2 0x100 EXP SWAP1 DIV PUSH29 0xFFFFFFFFFFFFFFFFFFFFFFFFFFFFFFFFFFFFFFFFFFFFFFFFFFFFFFFFFF AND PUSH29 0xFFFFFFFFFFFFFFFFFFFFFFFFFFFFFFFFFFFFFFFFFFFFFFFFFFFFFFFFFF AND PUSH29 0xFFFFFFFFFFFFFFFFFFFFFFFFFFFFFFFFFFFFFFFFFFFFFFFFFFFFFFFFFF AND DUP2 MSTORE PUSH1 0x20 ADD PUSH1 0x1 DUP3 ADD PUSH1 0x0 SWAP1 SLOAD SWAP1 PUSH2 0x100 EXP SWAP1 DIV PUSH20 0xFFFFFFFFFFFFFFFFFFFFFFFFFFFFFFFFFFFFFFFF AND PUSH20 0xFFFFFFFFFFFFFFFFFFFFFFFFFFFFFFFFFFFFFFFF AND PUSH20 0xFFFFFFFFFFFFFFFFFFFFFFFFFFFFFFFFFFFFFFFF AND DUP2 MSTORE PUSH1 0x20 ADD PUSH1 0x2 DUP3 ADD SLOAD DUP2 MSTORE PUSH1 0x20 ADD PUSH1 0x3 DUP3 ADD PUSH1 0x0 SWAP1 SLOAD SWAP1 PUSH2 0x100 EXP SWAP1 DIV PUSH1 0xFF AND ISZERO ISZERO ISZERO ISZERO DUP2 MSTORE POP POP SWAP1 POP DUP1 PUSH1 0x60 ADD MLOAD PUSH2 0x2E2F JUMPI PUSH1 0xD DUP4 SUB PUSH2 0x2C80 JUMPI DUP1 PUSH1 0x20 ADD MLOAD PUSH20 0xFFFFFFFFFFFFFFFFFFFFFFFFFFFFFFFFFFFFFFFF AND SWAP4 POP JUMPDEST PUSH1 0x0 DUP1 PUSH2 0x2C8E DUP6 DUP12 DUP6 PUSH2 0x39CF JUMP JUMPDEST SWAP2 POP SWAP2 POP PUSH1 0x0 DUP3 GT ISZERO PUSH2 0x2E2C JUMPI PUSH1 0x0 PUSH2 0x2CBE DUP4 PUSH1 0x5 PUSH1 0x0 SWAP1 SLOAD SWAP1 PUSH2 0x100 EXP SWAP1 DIV PUSH2 0xFFFF AND PUSH2 0xFFFF AND PUSH2 0x3E8 PUSH2 0x132E JUMP JUMPDEST SWAP1 POP DUP1 DUP4 PUSH2 0x2CCC SWAP2 SWAP1 PUSH2 0x489D JUMP JUMPDEST DUP10 PUSH2 0x2CD7 SWAP2 SWAP1 PUSH2 0x489D JUMP JUMPDEST SWAP9 POP DUP7 DUP9 PUSH2 0x2CE5 SWAP2 SWAP1 PUSH2 0x489D JUMP JUMPDEST SWAP8 POP DUP1 DUP4 PUSH2 0x2CF3 SWAP2 SWAP1 PUSH2 0x489D JUMP JUMPDEST PUSH1 0x7 PUSH1 0x0 DUP15 PUSH20 0xFFFFFFFFFFFFFFFFFFFFFFFFFFFFFFFFFFFFFFFF AND PUSH20 0xFFFFFFFFFFFFFFFFFFFFFFFFFFFFFFFFFFFFFFFF AND DUP2 MSTORE PUSH1 0x20 ADD SWAP1 DUP2 MSTORE PUSH1 0x20 ADD PUSH1 0x0 KECCAK256 PUSH1 0x0 DUP8 DUP2 MSTORE PUSH1 0x20 ADD SWAP1 DUP2 MSTORE PUSH1 0x20 ADD PUSH1 0x0 KECCAK256 PUSH1 0x1 ADD PUSH1 0x0 DUP3 DUP3 DUP3 SWAP1 SLOAD SWAP1 PUSH2 0x100 EXP SWAP1 DIV PUSH20 0xFFFFFFFFFFFFFFFFFFFFFFFFFFFFFFFFFFFFFFFF AND PUSH2 0x2D74 SWAP2 SWAP1 PUSH2 0x4FE6 JUMP JUMPDEST SWAP3 POP PUSH2 0x100 EXP DUP2 SLOAD DUP2 PUSH20 0xFFFFFFFFFFFFFFFFFFFFFFFFFFFFFFFFFFFFFFFF MUL NOT AND SWAP1 DUP4 PUSH20 0xFFFFFFFFFFFFFFFFFFFFFFFFFFFFFFFFFFFFFFFF AND MUL OR SWAP1 SSTORE POP PUSH1 0x1 ISZERO ISZERO DUP3 ISZERO ISZERO SUB PUSH2 0x2E2A JUMPI DUP2 PUSH1 0x7 PUSH1 0x0 DUP15 PUSH20 0xFFFFFFFFFFFFFFFFFFFFFFFFFFFFFFFFFFFFFFFF AND PUSH20 0xFFFFFFFFFFFFFFFFFFFFFFFFFFFFFFFFFFFFFFFF AND DUP2 MSTORE PUSH1 0x20 ADD SWAP1 DUP2 MSTORE PUSH1 0x20 ADD PUSH1 0x0 KECCAK256 PUSH1 0x0 DUP8 DUP2 MSTORE PUSH1 0x20 ADD SWAP1 DUP2 MSTORE PUSH1 0x20 ADD PUSH1 0x0 KECCAK256 PUSH1 0x3 ADD PUSH1 0x0 PUSH2 0x100 EXP DUP2 SLOAD DUP2 PUSH1 0xFF MUL NOT AND SWAP1 DUP4 ISZERO ISZERO MUL OR SWAP1 SSTORE POP JUMPDEST POP JUMPDEST POP POP JUMPDEST POP DUP1 DUP1 PUSH2 0x2E3B SWAP1 PUSH2 0x491F JUMP JUMPDEST SWAP2 POP POP PUSH2 0x2AA3 JUMP JUMPDEST POP DUP1 DUP1 PUSH2 0x2E4F SWAP1 PUSH2 0x491F JUMP JUMPDEST SWAP2 POP POP PUSH2 0x2A90 JUMP JUMPDEST POP DUP2 DUP4 PUSH2 0x2E64 SWAP2 SWAP1 PUSH2 0x4967 JUMP JUMPDEST SWAP3 POP PUSH1 0x0 DUP4 SUB PUSH2 0x2EA9 JUMPI PUSH1 0x40 MLOAD PUSH32 0x8C379A000000000000000000000000000000000000000000000000000000000 DUP2 MSTORE PUSH1 0x4 ADD PUSH2 0x2EA0 SWAP1 PUSH2 0x50A0 JUMP JUMPDEST PUSH1 0x40 MLOAD DUP1 SWAP2 SUB SWAP1 REVERT JUMPDEST PUSH1 0x0 PUSH32 0x0 PUSH20 0xFFFFFFFFFFFFFFFFFFFFFFFFFFFFFFFFFFFFFFFF AND PUSH4 0xA9059CBB DUP9 DUP7 PUSH1 0x40 MLOAD DUP4 PUSH4 0xFFFFFFFF AND PUSH1 0xE0 SHL DUP2 MSTORE PUSH1 0x4 ADD PUSH2 0x2F06 SWAP3 SWAP2 SWAP1 PUSH2 0x4A2D JUMP JUMPDEST PUSH1 0x20 PUSH1 0x40 MLOAD DUP1 DUP4 SUB DUP2 PUSH1 0x0 DUP8 GAS CALL ISZERO DUP1 ISZERO PUSH2 0x2F25 JUMPI RETURNDATASIZE PUSH1 0x0 DUP1 RETURNDATACOPY RETURNDATASIZE PUSH1 0x0 REVERT JUMPDEST POP POP POP POP PUSH1 0x40 MLOAD RETURNDATASIZE PUSH1 0x1F NOT PUSH1 0x1F DUP3 ADD AND DUP3 ADD DUP1 PUSH1 0x40 MSTORE POP DUP2 ADD SWAP1 PUSH2 0x2F49 SWAP2 SWAP1 PUSH2 0x4841 JUMP JUMPDEST SWAP1 POP DUP1 SWAP5 POP POP POP POP POP SWAP3 SWAP2 POP POP JUMP JUMPDEST PUSH1 0x0 DUP1 PUSH1 0x0 SWAP1 POP PUSH1 0x0 PUSH1 0x1 SWAP1 POP JUMPDEST PUSH1 0x6 PUSH1 0x0 DUP7 PUSH20 0xFFFFFFFFFFFFFFFFFFFFFFFFFFFFFFFFFFFFFFFF AND PUSH20 0xFFFFFFFFFFFFFFFFFFFFFFFFFFFFFFFFFFFFFFFF AND DUP2 MSTORE PUSH1 0x20 ADD SWAP1 DUP2 MSTORE PUSH1 0x20 ADD PUSH1 0x0 KECCAK256 PUSH1 0x3 ADD PUSH1 0x6 SWAP1 SLOAD SWAP1 PUSH2 0x100 EXP SWAP1 DIV PUSH6 0xFFFFFFFFFFFF AND PUSH6 0xFFFFFFFFFFFF AND DUP2 GT PUSH2 0x3198 JUMPI PUSH1 0x0 PUSH1 0x8 PUSH1 0x0 CALLER PUSH20 0xFFFFFFFFFFFFFFFFFFFFFFFFFFFFFFFFFFFFFFFF AND PUSH20 0xFFFFFFFFFFFFFFFFFFFFFFFFFFFFFFFFFFFFFFFF AND DUP2 MSTORE PUSH1 0x20 ADD SWAP1 DUP2 MSTORE PUSH1 0x20 ADD PUSH1 0x0 KECCAK256 PUSH1 0x0 DUP4 DUP2 MSTORE PUSH1 0x20 ADD SWAP1 DUP2 MSTORE PUSH1 0x20 ADD PUSH1 0x0 KECCAK256 PUSH1 0x40 MLOAD DUP1 PUSH1 0x80 ADD PUSH1 0x40 MSTORE SWAP1 DUP2 PUSH1 0x0 DUP3 ADD PUSH1 0x0 SWAP1 SLOAD SWAP1 PUSH2 0x100 EXP SWAP1 DIV PUSH31 0xFFFFFFFFFFFFFFFFFFFFFFFFFFFFFFFFFFFFFFFFFFFFFFFFFFFFFFFFFFFFFF AND PUSH31 0xFFFFFFFFFFFFFFFFFFFFFFFFFFFFFFFFFFFFFFFFFFFFFFFFFFFFFFFFFFFFFF AND PUSH31 0xFFFFFFFFFFFFFFFFFFFFFFFFFFFFFFFFFFFFFFFFFFFFFFFFFFFFFFFFFFFFFF AND DUP2 MSTORE PUSH1 0x20 ADD PUSH1 0x1 DUP3 ADD SLOAD DUP2 MSTORE PUSH1 0x20 ADD PUSH1 0x2 DUP3 ADD SLOAD DUP2 MSTORE PUSH1 0x20 ADD PUSH1 0x3 DUP3 ADD PUSH1 0x0 SWAP1 SLOAD SWAP1 PUSH2 0x100 EXP SWAP1 DIV PUSH1 0xFF AND ISZERO ISZERO ISZERO ISZERO DUP2 MSTORE POP POP SWAP1 POP DUP1 PUSH1 0x60 ADD MLOAD PUSH2 0x3184 JUMPI DUP1 PUSH1 0x40 ADD MLOAD DUP6 GT ISZERO PUSH2 0x3183 JUMPI DUP1 PUSH1 0x0 ADD MLOAD PUSH31 0xFFFFFFFFFFFFFFFFFFFFFFFFFFFFFFFFFFFFFFFFFFFFFFFFFFFFFFFFFFFFFF AND DUP4 PUSH2 0x3114 SWAP2 SWAP1 PUSH2 0x489D JUMP JUMPDEST SWAP3 POP PUSH1 0x1 PUSH1 0x8 PUSH1 0x0 DUP9 PUSH20 0xFFFFFFFFFFFFFFFFFFFFFFFFFFFFFFFFFFFFFFFF AND PUSH20 0xFFFFFFFFFFFFFFFFFFFFFFFFFFFFFFFFFFFFFFFF AND DUP2 MSTORE PUSH1 0x20 ADD SWAP1 DUP2 MSTORE PUSH1 0x20 ADD PUSH1 0x0 KECCAK256 PUSH1 0x0 DUP5 DUP2 MSTORE PUSH1 0x20 ADD SWAP1 DUP2 MSTORE PUSH1 0x20 ADD PUSH1 0x0 KECCAK256 PUSH1 0x3 ADD PUSH1 0x0 PUSH2 0x100 EXP DUP2 SLOAD DUP2 PUSH1 0xFF MUL NOT AND SWAP1 DUP4 ISZERO ISZERO MUL OR SWAP1 SSTORE POP JUMPDEST JUMPDEST POP DUP1 DUP1 PUSH2 0x3190 SWAP1 PUSH2 0x491F JUMP JUMPDEST SWAP2 POP POP PUSH2 0x2F66 JUMP JUMPDEST POP PUSH1 0x0 DUP2 SUB PUSH2 0x31DC JUMPI PUSH1 0x40 MLOAD PUSH32 0x8C379A000000000000000000000000000000000000000000000000000000000 DUP2 MSTORE PUSH1 0x4 ADD PUSH2 0x31D3 SWAP1 PUSH2 0x5132 JUMP JUMPDEST PUSH1 0x40 MLOAD DUP1 SWAP2 SUB SWAP1 REVERT JUMPDEST PUSH1 0x0 PUSH32 0x0 PUSH20 0xFFFFFFFFFFFFFFFFFFFFFFFFFFFFFFFFFFFFFFFF AND PUSH4 0xA9059CBB DUP7 DUP5 PUSH1 0x40 MLOAD DUP4 PUSH4 0xFFFFFFFF AND PUSH1 0xE0 SHL DUP2 MSTORE PUSH1 0x4 ADD PUSH2 0x3239 SWAP3 SWAP2 SWAP1 PUSH2 0x4A2D JUMP JUMPDEST PUSH1 0x20 PUSH1 0x40 MLOAD DUP1 DUP4 SUB DUP2 PUSH1 0x0 DUP8 GAS CALL ISZERO DUP1 ISZERO PUSH2 0x3258 JUMPI RETURNDATASIZE PUSH1 0x0 DUP1 RETURNDATACOPY RETURNDATASIZE PUSH1 0x0 REVERT JUMPDEST POP POP POP POP PUSH1 0x40 MLOAD RETURNDATASIZE PUSH1 0x1F NOT PUSH1 0x1F DUP3 ADD AND DUP3 ADD DUP1 PUSH1 0x40 MSTORE POP DUP2 ADD SWAP1 PUSH2 0x327C SWAP2 SWAP1 PUSH2 0x4841 JUMP JUMPDEST SWAP1 POP DUP1 SWAP3 POP POP POP SWAP3 SWAP2 POP POP JUMP JUMPDEST DUP4 PUSH1 0x3 PUSH1 0x0 DUP8 DUP2 MSTORE PUSH1 0x20 ADD SWAP1 DUP2 MSTORE PUSH1 0x20 ADD PUSH1 0x0 KECCAK256 PUSH1 0x0 ADD SWAP1 DUP2 PUSH2 0x32AC SWAP2 SWAP1 PUSH2 0x52F4 JUMP JUMPDEST POP DUP3 PUSH1 0x3 PUSH1 0x0 DUP8 DUP2 MSTORE PUSH1 0x20 ADD SWAP1 DUP2 MSTORE PUSH1 0x20 ADD PUSH1 0x0 KECCAK256 PUSH1 0x1 ADD PUSH1 0x0 PUSH2 0x100 EXP DUP2 SLOAD DUP2 PUSH20 0xFFFFFFFFFFFFFFFFFFFFFFFFFFFFFFFFFFFFFFFF MUL NOT AND SWAP1 DUP4 PUSH20 0xFFFFFFFFFFFFFFFFFFFFFFFFFFFFFFFFFFFFFFFF AND MUL OR SWAP1 SSTORE POP DUP2 PUSH1 0x3 PUSH1 0x0 DUP8 DUP2 MSTORE PUSH1 0x20 ADD SWAP1 DUP2 MSTORE PUSH1 0x20 ADD PUSH1 0x0 KECCAK256 PUSH1 0x2 ADD PUSH1 0x0 PUSH2 0x100 EXP DUP2 SLOAD DUP2 PUSH20 0xFFFFFFFFFFFFFFFFFFFFFFFFFFFFFFFFFFFFFFFF MUL NOT AND SWAP1 DUP4 PUSH20 0xFFFFFFFFFFFFFFFFFFFFFFFFFFFFFFFFFFFFFFFF AND MUL OR SWAP1 SSTORE POP DUP1 PUSH1 0x3 PUSH1 0x0 DUP8 DUP2 MSTORE PUSH1 0x20 ADD SWAP1 DUP2 MSTORE PUSH1 0x20 ADD PUSH1 0x0 KECCAK256 PUSH1 0x3 ADD DUP2 SWAP1 SSTORE POP DUP5 PUSH1 0x2 DUP6 PUSH1 0x40 MLOAD PUSH2 0x3383 SWAP2 SWAP1 PUSH2 0x4F50 JUMP JUMPDEST SWAP1 DUP2 MSTORE PUSH1 0x20 ADD PUSH1 0x40 MLOAD DUP1 SWAP2 SUB SWAP1 KECCAK256 DUP2 SWAP1 SSTORE POP DUP1 DUP5 PUSH1 0x40 MLOAD PUSH2 0x33A4 SWAP2 SWAP1 PUSH2 0x4F50 JUMP JUMPDEST PUSH1 0x40 MLOAD DUP1 SWAP2 SUB SWAP1 KECCAK256 DUP7 PUSH32 0xC19BB44B59579BE200A2B8014813F052E8D673471778B18DB3AAE536DCE7BA5 PUSH1 0x40 MLOAD PUSH1 0x40 MLOAD DUP1 SWAP2 SUB SWAP1 LOG4 POP POP POP POP POP JUMP JUMPDEST PUSH1 0x0 DUP1 PUSH1 0x6 PUSH1 0x0 DUP7 PUSH20 0xFFFFFFFFFFFFFFFFFFFFFFFFFFFFFFFFFFFFFFFF AND PUSH20 0xFFFFFFFFFFFFFFFFFFFFFFFFFFFFFFFFFFFFFFFF AND DUP2 MSTORE PUSH1 0x20 ADD SWAP1 DUP2 MSTORE PUSH1 0x20 ADD PUSH1 0x0 KECCAK256 PUSH1 0x3 ADD PUSH1 0x0 DUP2 DUP2 SWAP1 SLOAD SWAP1 PUSH2 0x100 EXP SWAP1 DIV PUSH6 0xFFFFFFFFFFFF AND PUSH2 0x3443 SWAP1 PUSH2 0x53C6 JUMP JUMPDEST SWAP2 SWAP1 PUSH2 0x100 EXP DUP2 SLOAD DUP2 PUSH6 0xFFFFFFFFFFFF MUL NOT AND SWAP1 DUP4 PUSH6 0xFFFFFFFFFFFF AND MUL OR SWAP1 SSTORE SWAP1 POP DUP3 PUSH1 0x7 PUSH1 0x0 DUP8 PUSH20 0xFFFFFFFFFFFFFFFFFFFFFFFFFFFFFFFFFFFFFFFF AND PUSH20 0xFFFFFFFFFFFFFFFFFFFFFFFFFFFFFFFFFFFFFFFF AND DUP2 MSTORE PUSH1 0x20 ADD SWAP1 DUP2 MSTORE PUSH1 0x20 ADD PUSH1 0x0 KECCAK256 PUSH1 0x0 DUP4 PUSH6 0xFFFFFFFFFFFF AND DUP2 MSTORE PUSH1 0x20 ADD SWAP1 DUP2 MSTORE PUSH1 0x20 ADD PUSH1 0x0 KECCAK256 PUSH1 0x2 ADD DUP2 SWAP1 SSTORE POP DUP4 PUSH1 0x7 PUSH1 0x0 DUP8 PUSH20 0xFFFFFFFFFFFFFFFFFFFFFFFFFFFFFFFFFFFFFFFF AND PUSH20 0xFFFFFFFFFFFFFFFFFFFFFFFFFFFFFFFFFFFFFFFF AND DUP2 MSTORE PUSH1 0x20 ADD SWAP1 DUP2 MSTORE PUSH1 0x20 ADD PUSH1 0x0 KECCAK256 PUSH1 0x0 DUP4 PUSH6 0xFFFFFFFFFFFF AND DUP2 MSTORE PUSH1 0x20 ADD SWAP1 DUP2 MSTORE PUSH1 0x20 ADD PUSH1 0x0 KECCAK256 PUSH1 0x0 ADD PUSH1 0x0 PUSH2 0x100 EXP DUP2 SLOAD DUP2 PUSH29 0xFFFFFFFFFFFFFFFFFFFFFFFFFFFFFFFFFFFFFFFFFFFFFFFFFFFFFFFFFF MUL NOT AND SWAP1 DUP4 PUSH29 0xFFFFFFFFFFFFFFFFFFFFFFFFFFFFFFFFFFFFFFFFFFFFFFFFFFFFFFFFFF AND MUL OR SWAP1 SSTORE POP DUP1 PUSH6 0xFFFFFFFFFFFF AND DUP5 PUSH29 0xFFFFFFFFFFFFFFFFFFFFFFFFFFFFFFFFFFFFFFFFFFFFFFFFFFFFFFFFFF AND DUP7 PUSH20 0xFFFFFFFFFFFFFFFFFFFFFFFFFFFFFFFFFFFFFFFF AND PUSH32 0xB7AE71BD615E1D1E5D496E36876DD8E9DD2842BA7F262D351041CEB43EAE40CF PUSH1 0x40 MLOAD PUSH1 0x40 MLOAD DUP1 SWAP2 SUB SWAP1 LOG4 PUSH1 0x0 PUSH32 0x0 PUSH20 0xFFFFFFFFFFFFFFFFFFFFFFFFFFFFFFFFFFFFFFFF AND PUSH4 0x23B872DD DUP9 ADDRESS DUP9 PUSH1 0x40 MLOAD DUP5 PUSH4 0xFFFFFFFF AND PUSH1 0xE0 SHL DUP2 MSTORE PUSH1 0x4 ADD PUSH2 0x363D SWAP4 SWAP3 SWAP2 SWAP1 PUSH2 0x5425 JUMP JUMPDEST PUSH1 0x20 PUSH1 0x40 MLOAD DUP1 DUP4 SUB DUP2 PUSH1 0x0 DUP8 GAS CALL ISZERO DUP1 ISZERO PUSH2 0x365C JUMPI RETURNDATASIZE PUSH1 0x0 DUP1 RETURNDATACOPY RETURNDATASIZE PUSH1 0x0 REVERT JUMPDEST POP POP POP POP PUSH1 0x40 MLOAD RETURNDATASIZE PUSH1 0x1F NOT PUSH1 0x1F DUP3 ADD AND DUP3 ADD DUP1 PUSH1 0x40 MSTORE POP DUP2 ADD SWAP1 PUSH2 0x3680 SWAP2 SWAP1 PUSH2 0x4841 JUMP JUMPDEST SWAP1 POP DUP1 SWAP3 POP POP POP SWAP5 SWAP4 POP POP POP POP JUMP JUMPDEST PUSH1 0x0 DUP1 PUSH1 0x6 PUSH1 0x0 DUP7 PUSH20 0xFFFFFFFFFFFFFFFFFFFFFFFFFFFFFFFFFFFFFFFF AND PUSH20 0xFFFFFFFFFFFFFFFFFFFFFFFFFFFFFFFFFFFFFFFF AND DUP2 MSTORE PUSH1 0x20 ADD SWAP1 DUP2 MSTORE PUSH1 0x20 ADD PUSH1 0x0 KECCAK256 PUSH1 0x3 ADD PUSH1 0x6 DUP2 DUP2 SWAP1 SLOAD SWAP1 PUSH2 0x100 EXP SWAP1 DIV PUSH6 0xFFFFFFFFFFFF AND PUSH2 0x36F2 SWAP1 PUSH2 0x53C6 JUMP JUMPDEST SWAP2 SWAP1 PUSH2 0x100 EXP DUP2 SLOAD DUP2 PUSH6 0xFFFFFFFFFFFF MUL NOT AND SWAP1 DUP4 PUSH6 0xFFFFFFFFFFFF AND MUL OR SWAP1 SSTORE SWAP1 POP DUP3 PUSH1 0x8 PUSH1 0x0 DUP8 PUSH20 0xFFFFFFFFFFFFFFFFFFFFFFFFFFFFFFFFFFFFFFFF AND PUSH20 0xFFFFFFFFFFFFFFFFFFFFFFFFFFFFFFFFFFFFFFFF AND DUP2 MSTORE PUSH1 0x20 ADD SWAP1 DUP2 MSTORE PUSH1 0x20 ADD PUSH1 0x0 KECCAK256 PUSH1 0x0 DUP4 PUSH6 0xFFFFFFFFFFFF AND DUP2 MSTORE PUSH1 0x20 ADD SWAP1 DUP2 MSTORE PUSH1 0x20 ADD PUSH1 0x0 KECCAK256 PUSH1 0x1 ADD DUP2 SWAP1 SSTORE POP PUSH3 0x278D00 DUP4 PUSH2 0x3784 SWAP2 SWAP1 PUSH2 0x489D JUMP JUMPDEST PUSH1 0x8 PUSH1 0x0 DUP8 PUSH20 0xFFFFFFFFFFFFFFFFFFFFFFFFFFFFFFFFFFFFFFFF AND PUSH20 0xFFFFFFFFFFFFFFFFFFFFFFFFFFFFFFFFFFFFFFFF AND DUP2 MSTORE PUSH1 0x20 ADD SWAP1 DUP2 MSTORE PUSH1 0x20 ADD PUSH1 0x0 KECCAK256 PUSH1 0x0 DUP4 PUSH6 0xFFFFFFFFFFFF AND DUP2 MSTORE PUSH1 0x20 ADD SWAP1 DUP2 MSTORE PUSH1 0x20 ADD PUSH1 0x0 KECCAK256 PUSH1 0x2 ADD DUP2 SWAP1 SSTORE POP DUP4 PUSH29 0xFFFFFFFFFFFFFFFFFFFFFFFFFFFFFFFFFFFFFFFFFFFFFFFFFFFFFFFFFF AND PUSH1 0x8 PUSH1 0x0 DUP8 PUSH20 0xFFFFFFFFFFFFFFFFFFFFFFFFFFFFFFFFFFFFFFFF AND PUSH20 0xFFFFFFFFFFFFFFFFFFFFFFFFFFFFFFFFFFFFFFFF AND DUP2 MSTORE PUSH1 0x20 ADD SWAP1 DUP2 MSTORE PUSH1 0x20 ADD PUSH1 0x0 KECCAK256 PUSH1 0x0 DUP4 PUSH6 0xFFFFFFFFFFFF AND DUP2 MSTORE PUSH1 0x20 ADD SWAP1 DUP2 MSTORE PUSH1 0x20 ADD PUSH1 0x0 KECCAK256 PUSH1 0x0 ADD PUSH1 0x0 PUSH2 0x100 EXP DUP2 SLOAD DUP2 PUSH31 0xFFFFFFFFFFFFFFFFFFFFFFFFFFFFFFFFFFFFFFFFFFFFFFFFFFFFFFFFFFFFFF MUL NOT AND SWAP1 DUP4 PUSH31 0xFFFFFFFFFFFFFFFFFFFFFFFFFFFFFFFFFFFFFFFFFFFFFFFFFFFFFFFFFFFFFF AND MUL OR SWAP1 SSTORE POP DUP1 PUSH6 0xFFFFFFFFFFFF AND DUP5 PUSH29 0xFFFFFFFFFFFFFFFFFFFFFFFFFFFFFFFFFFFFFFFFFFFFFFFFFFFFFFFFFF AND DUP7 PUSH20 0xFFFFFFFFFFFFFFFFFFFFFFFFFFFFFFFFFFFFFFFF AND PUSH32 0x96480D0485518DA027DA30C099C5ED78006AFE441DBB13B237BBC485BFA886C0 PUSH1 0x40 MLOAD PUSH1 0x40 MLOAD DUP1 SWAP2 SUB SWAP1 LOG4 PUSH1 0x0 PUSH32 0x0 PUSH20 0xFFFFFFFFFFFFFFFFFFFFFFFFFFFFFFFFFFFFFFFF AND PUSH4 0x23B872DD DUP9 ADDRESS DUP9 PUSH1 0x40 MLOAD DUP5 PUSH4 0xFFFFFFFF AND PUSH1 0xE0 SHL DUP2 MSTORE PUSH1 0x4 ADD PUSH2 0x397D SWAP4 SWAP3 SWAP2 SWAP1 PUSH2 0x5425 JUMP JUMPDEST PUSH1 0x20 PUSH1 0x40 MLOAD DUP1 DUP4 SUB DUP2 PUSH1 0x0 DUP8 GAS CALL ISZERO DUP1 ISZERO PUSH2 0x399C JUMPI RETURNDATASIZE PUSH1 0x0 DUP1 RETURNDATACOPY RETURNDATASIZE PUSH1 0x0 REVERT JUMPDEST POP POP POP POP PUSH1 0x40 MLOAD RETURNDATASIZE PUSH1 0x1F NOT PUSH1 0x1F DUP3 ADD AND DUP3 ADD DUP1 PUSH1 0x40 MSTORE POP DUP2 ADD SWAP1 PUSH2 0x39C0 SWAP2 SWAP1 PUSH2 0x4841 JUMP JUMPDEST SWAP1 POP DUP1 SWAP3 POP POP POP SWAP5 SWAP4 POP POP POP POP JUMP JUMPDEST PUSH1 0x0 DUP1 PUSH1 0x0 DUP1 PUSH1 0x0 PUSH1 0x3C DUP1 PUSH1 0x18 PUSH1 0x1E DUP12 PUSH2 0x39E9 SWAP2 SWAP1 PUSH2 0x4BBE JUMP JUMPDEST PUSH2 0x39F3 SWAP2 SWAP1 PUSH2 0x4BBE JUMP JUMPDEST PUSH2 0x39FD SWAP2 SWAP1 PUSH2 0x4BBE JUMP JUMPDEST PUSH2 0x3A07 SWAP2 SWAP1 PUSH2 0x4BBE JUMP JUMPDEST DUP7 PUSH1 0x40 ADD MLOAD PUSH2 0x3A16 SWAP2 SWAP1 PUSH2 0x489D JUMP JUMPDEST SWAP1 POP DUP1 DUP8 GT ISZERO PUSH2 0x3A71 JUMPI PUSH1 0x0 PUSH1 0x6 DUP8 PUSH1 0x0 ADD MLOAD PUSH2 0x3A33 SWAP2 SWAP1 PUSH2 0x545C JUMP JUMPDEST PUSH29 0xFFFFFFFFFFFFFFFFFFFFFFFFFFFFFFFFFFFFFFFFFFFFFFFFFFFFFFFFFF AND SWAP1 POP DUP1 DUP5 PUSH2 0x3A60 SWAP2 SWAP1 PUSH2 0x489D JUMP JUMPDEST SWAP4 POP PUSH1 0x12 DUP10 SUB PUSH2 0x3A6F JUMPI PUSH1 0x1 SWAP3 POP JUMPDEST POP JUMPDEST DUP3 DUP3 SWAP5 POP SWAP5 POP POP POP POP SWAP4 POP SWAP4 SWAP2 POP POP JUMP JUMPDEST PUSH1 0x0 PUSH2 0x3A8C PUSH2 0x114B JUMP JUMPDEST SWAP1 POP PUSH1 0x0 PUSH1 0x6 PUSH1 0x0 DUP6 PUSH20 0xFFFFFFFFFFFFFFFFFFFFFFFFFFFFFFFFFFFFFFFF AND PUSH20 0xFFFFFFFFFFFFFFFFFFFFFFFFFFFFFFFFFFFFFFFF AND DUP2 MSTORE PUSH1 0x20 ADD SWAP1 DUP2 MSTORE PUSH1 0x20 ADD PUSH1 0x0 KECCAK256 PUSH1 0x3 ADD PUSH1 0xC DUP2 DUP2 SWAP1 SLOAD SWAP1 PUSH2 0x100 EXP SWAP1 DIV PUSH6 0xFFFFFFFFFFFF AND PUSH2 0x3AF0 SWAP1 PUSH2 0x53C6 JUMP JUMPDEST SWAP2 SWAP1 PUSH2 0x100 EXP DUP2 SLOAD DUP2 PUSH6 0xFFFFFFFFFFFF MUL NOT AND SWAP1 DUP4 PUSH6 0xFFFFFFFFFFFF AND MUL OR SWAP1 SSTORE SWAP1 POP DUP3 PUSH1 0x9 PUSH1 0x0 DUP7 PUSH20 0xFFFFFFFFFFFFFFFFFFFFFFFFFFFFFFFFFFFFFFFF AND PUSH20 0xFFFFFFFFFFFFFFFFFFFFFFFFFFFFFFFFFFFFFFFF AND DUP2 MSTORE PUSH1 0x20 ADD SWAP1 DUP2 MSTORE PUSH1 0x20 ADD PUSH1 0x0 KECCAK256 PUSH1 0x0 DUP4 PUSH6 0xFFFFFFFFFFFF AND DUP2 MSTORE PUSH1 0x20 ADD SWAP1 DUP2 MSTORE PUSH1 0x20 ADD PUSH1 0x0 KECCAK256 PUSH1 0x0 ADD PUSH1 0x0 PUSH2 0x100 EXP DUP2 SLOAD DUP2 PUSH26 0xFFFFFFFFFFFFFFFFFFFFFFFFFFFFFFFFFFFFFFFFFFFFFFFFFFFF MUL NOT AND SWAP1 DUP4 PUSH26 0xFFFFFFFFFFFFFFFFFFFFFFFFFFFFFFFFFFFFFFFFFFFFFFFFFFFF AND MUL OR SWAP1 SSTORE POP TIMESTAMP PUSH1 0x9 PUSH1 0x0 DUP7 PUSH20 0xFFFFFFFFFFFFFFFFFFFFFFFFFFFFFFFFFFFFFFFF AND PUSH20 0xFFFFFFFFFFFFFFFFFFFFFFFFFFFFFFFFFFFFFFFF AND DUP2 MSTORE PUSH1 0x20 ADD SWAP1 DUP2 MSTORE PUSH1 0x20 ADD PUSH1 0x0 KECCAK256 PUSH1 0x0 DUP4 PUSH6 0xFFFFFFFFFFFF AND DUP2 MSTORE PUSH1 0x20 ADD SWAP1 DUP2 MSTORE PUSH1 0x20 ADD PUSH1 0x0 KECCAK256 PUSH1 0x2 ADD DUP2 SWAP1 SSTORE POP PUSH1 0x3 PUSH1 0x0 DUP4 DUP2 MSTORE PUSH1 0x20 ADD SWAP1 DUP2 MSTORE PUSH1 0x20 ADD PUSH1 0x0 KECCAK256 PUSH1 0x0 ADD PUSH1 0x9 PUSH1 0x0 DUP7 PUSH20 0xFFFFFFFFFFFFFFFFFFFFFFFFFFFFFFFFFFFFFFFF AND PUSH20 0xFFFFFFFFFFFFFFFFFFFFFFFFFFFFFFFFFFFFFFFF AND DUP2 MSTORE PUSH1 0x20 ADD SWAP1 DUP2 MSTORE PUSH1 0x20 ADD PUSH1 0x0 KECCAK256 PUSH1 0x0 DUP4 PUSH6 0xFFFFFFFFFFFF AND DUP2 MSTORE PUSH1 0x20 ADD SWAP1 DUP2 MSTORE PUSH1 0x20 ADD PUSH1 0x0 KECCAK256 PUSH1 0x3 ADD SWAP1 DUP2 PUSH2 0x3C96 SWAP2 SWAP1 PUSH2 0x54B8 JUMP JUMPDEST POP POP POP POP POP JUMP JUMPDEST PUSH1 0x0 DUP1 PUSH1 0x0 SWAP1 POP PUSH2 0x3CE7 DUP5 PUSH1 0x60 ADD MLOAD PUSH1 0x40 MLOAD DUP1 PUSH1 0x40 ADD PUSH1 0x40 MSTORE DUP1 PUSH1 0xB DUP2 MSTORE PUSH1 0x20 ADD PUSH32 0x5055424C49435F53414C45000000000000000000000000000000000000000000 DUP2 MSTORE POP PUSH2 0x2A64 JUMP JUMPDEST ISZERO PUSH2 0x3D3D JUMPI PUSH1 0x0 PUSH3 0x2A300 DUP6 PUSH1 0x40 ADD MLOAD PUSH2 0x3D01 SWAP2 SWAP1 PUSH2 0x489D JUMP JUMPDEST SWAP1 POP DUP1 DUP5 GT ISZERO PUSH2 0x3D3B JUMPI PUSH2 0x3D38 DUP6 PUSH1 0x0 ADD MLOAD PUSH26 0xFFFFFFFFFFFFFFFFFFFFFFFFFFFFFFFFFFFFFFFFFFFFFFFFFFFF AND PUSH1 0x14 PUSH1 0x64 PUSH2 0x132E JUMP JUMPDEST SWAP2 POP JUMPDEST POP JUMPDEST DUP1 SWAP2 POP POP SWAP3 SWAP2 POP POP JUMP JUMPDEST PUSH1 0x0 DUP1 PUSH1 0x0 SWAP1 POP PUSH1 0x0 PUSH1 0x2A DUP6 SUB PUSH2 0x3D61 JUMPI PUSH1 0x5 SWAP1 POP PUSH2 0x3DA5 JUMP JUMPDEST PUSH1 0x24 DUP6 SUB PUSH2 0x3D72 JUMPI PUSH1 0x4 SWAP1 POP PUSH2 0x3DA4 JUMP JUMPDEST PUSH1 0x1E DUP6 SUB PUSH2 0x3D83 JUMPI PUSH1 0x3 SWAP1 POP PUSH2 0x3DA3 JUMP JUMPDEST PUSH1 0x18 DUP6 SUB PUSH2 0x3D94 JUMPI PUSH1 0x2 SWAP1 POP PUSH2 0x3DA2 JUMP JUMPDEST PUSH1 0x12 DUP6 SUB PUSH2 0x3DA1 JUMPI PUSH1 0x1 SWAP1 POP JUMPDEST JUMPDEST JUMPDEST JUMPDEST JUMPDEST PUSH1 0x0 DUP2 PUSH1 0xFF AND GT ISZERO PUSH2 0x3DDD JUMPI PUSH2 0x3DDA DUP5 PUSH26 0xFFFFFFFFFFFFFFFFFFFFFFFFFFFFFFFFFFFFFFFFFFFFFFFFFFFF AND PUSH1 0x14 PUSH1 0x64 PUSH2 0x132E JUMP JUMPDEST SWAP2 POP JUMPDEST DUP2 SWAP3 POP POP POP SWAP3 SWAP2 POP POP JUMP JUMPDEST PUSH1 0x0 CALLER SWAP1 POP SWAP1 JUMP JUMPDEST PUSH1 0x0 PUSH1 0x40 MLOAD SWAP1 POP SWAP1 JUMP JUMPDEST PUSH1 0x0 DUP1 REVERT JUMPDEST PUSH1 0x0 DUP1 REVERT JUMPDEST PUSH1 0x0 DUP2 SWAP1 POP SWAP2 SWAP1 POP JUMP JUMPDEST PUSH2 0x3E17 DUP2 PUSH2 0x3E04 JUMP JUMPDEST DUP2 EQ PUSH2 0x3E22 JUMPI PUSH1 0x0 DUP1 REVERT JUMPDEST POP JUMP JUMPDEST PUSH1 0x0 DUP2 CALLDATALOAD SWAP1 POP PUSH2 0x3E34 DUP2 PUSH2 0x3E0E JUMP JUMPDEST SWAP3 SWAP2 POP POP JUMP JUMPDEST PUSH1 0x0 PUSH1 0x20 DUP3 DUP5 SUB SLT ISZERO PUSH2 0x3E50 JUMPI PUSH2 0x3E4F PUSH2 0x3DFA JUMP JUMPDEST JUMPDEST PUSH1 0x0 PUSH2 0x3E5E DUP5 DUP3 DUP6 ADD PUSH2 0x3E25 JUMP JUMPDEST SWAP2 POP POP SWAP3 SWAP2 POP POP JUMP JUMPDEST PUSH1 0x0 DUP2 MLOAD SWAP1 POP SWAP2 SWAP1 POP JUMP JUMPDEST PUSH1 0x0 DUP3 DUP3 MSTORE PUSH1 0x20 DUP3 ADD SWAP1 POP SWAP3 SWAP2 POP POP JUMP JUMPDEST PUSH1 0x0 JUMPDEST DUP4 DUP2 LT ISZERO PUSH2 0x3EA1 JUMPI DUP1 DUP3 ADD MLOAD DUP2 DUP5 ADD MSTORE PUSH1 0x20 DUP2 ADD SWAP1 POP PUSH2 0x3E86 JUMP JUMPDEST PUSH1 0x0 DUP5 DUP5 ADD MSTORE POP POP POP POP JUMP JUMPDEST PUSH1 0x0 PUSH1 0x1F NOT PUSH1 0x1F DUP4 ADD AND SWAP1 POP SWAP2 SWAP1 POP JUMP JUMPDEST PUSH1 0x0 PUSH2 0x3EC9 DUP3 PUSH2 0x3E67 JUMP JUMPDEST PUSH2 0x3ED3 DUP2 DUP6 PUSH2 0x3E72 JUMP JUMPDEST SWAP4 POP PUSH2 0x3EE3 DUP2 DUP6 PUSH1 0x20 DUP7 ADD PUSH2 0x3E83 JUMP JUMPDEST PUSH2 0x3EEC DUP2 PUSH2 0x3EAD JUMP JUMPDEST DUP5 ADD SWAP2 POP POP SWAP3 SWAP2 POP POP JUMP JUMPDEST PUSH1 0x0 PUSH20 0xFFFFFFFFFFFFFFFFFFFFFFFFFFFFFFFFFFFFFFFF DUP3 AND SWAP1 POP SWAP2 SWAP1 POP JUMP JUMPDEST PUSH2 0x3F20 DUP2 PUSH2 0x3EF7 JUMP JUMPDEST DUP3 MSTORE POP POP JUMP JUMPDEST PUSH1 0x0 PUSH2 0x3F31 DUP3 PUSH2 0x3EF7 JUMP JUMPDEST SWAP1 POP SWAP2 SWAP1 POP JUMP JUMPDEST PUSH2 0x3F41 DUP2 PUSH2 0x3F26 JUMP JUMPDEST DUP3 MSTORE POP POP JUMP JUMPDEST PUSH2 0x3F50 DUP2 PUSH2 0x3E04 JUMP JUMPDEST DUP3 MSTORE POP POP JUMP JUMPDEST PUSH1 0x0 PUSH1 0x80 DUP3 ADD SWAP1 POP DUP2 DUP2 SUB PUSH1 0x0 DUP4 ADD MSTORE PUSH2 0x3F70 DUP2 DUP8 PUSH2 0x3EBE JUMP JUMPDEST SWAP1 POP PUSH2 0x3F7F PUSH1 0x20 DUP4 ADD DUP7 PUSH2 0x3F17 JUMP JUMPDEST PUSH2 0x3F8C PUSH1 0x40 DUP4 ADD DUP6 PUSH2 0x3F38 JUMP JUMPDEST PUSH2 0x3F99 PUSH1 0x60 DUP4 ADD DUP5 PUSH2 0x3F47 JUMP JUMPDEST SWAP6 SWAP5 POP POP POP POP POP JUMP JUMPDEST PUSH2 0x3FAB DUP2 PUSH2 0x3F26 JUMP JUMPDEST DUP2 EQ PUSH2 0x3FB6 JUMPI PUSH1 0x0 DUP1 REVERT JUMPDEST POP JUMP JUMPDEST PUSH1 0x0 DUP2 CALLDATALOAD SWAP1 POP PUSH2 0x3FC8 DUP2 PUSH2 0x3FA2 JUMP JUMPDEST SWAP3 SWAP2 POP POP JUMP JUMPDEST PUSH1 0x0 DUP1 PUSH1 0x40 DUP4 DUP6 SUB SLT ISZERO PUSH2 0x3FE5 JUMPI PUSH2 0x3FE4 PUSH2 0x3DFA JUMP JUMPDEST JUMPDEST PUSH1 0x0 PUSH2 0x3FF3 DUP6 DUP3 DUP7 ADD PUSH2 0x3FB9 JUMP JUMPDEST SWAP3 POP POP PUSH1 0x20 PUSH2 0x4004 DUP6 DUP3 DUP7 ADD PUSH2 0x3E25 JUMP JUMPDEST SWAP2 POP POP SWAP3 POP SWAP3 SWAP1 POP JUMP JUMPDEST PUSH1 0x0 PUSH31 0xFFFFFFFFFFFFFFFFFFFFFFFFFFFFFFFFFFFFFFFFFFFFFFFFFFFFFFFFFFFFFF DUP3 AND SWAP1 POP SWAP2 SWAP1 POP JUMP JUMPDEST PUSH2 0x4042 DUP2 PUSH2 0x400E JUMP JUMPDEST DUP3 MSTORE POP POP JUMP JUMPDEST PUSH1 0x0 DUP2 ISZERO ISZERO SWAP1 POP SWAP2 SWAP1 POP JUMP JUMPDEST PUSH2 0x405D DUP2 PUSH2 0x4048 JUMP JUMPDEST DUP3 MSTORE POP POP JUMP JUMPDEST PUSH1 0x0 PUSH1 0x80 DUP3 ADD SWAP1 POP PUSH2 0x4078 PUSH1 0x0 DUP4 ADD DUP8 PUSH2 0x4039 JUMP JUMPDEST PUSH2 0x4085 PUSH1 0x20 DUP4 ADD DUP7 PUSH2 0x3F47 JUMP JUMPDEST PUSH2 0x4092 PUSH1 0x40 DUP4 ADD DUP6 PUSH2 0x3F47 JUMP JUMPDEST PUSH2 0x409F PUSH1 0x60 DUP4 ADD DUP5 PUSH2 0x4054 JUMP JUMPDEST SWAP6 SWAP5 POP POP POP POP POP JUMP JUMPDEST PUSH1 0x0 PUSH29 0xFFFFFFFFFFFFFFFFFFFFFFFFFFFFFFFFFFFFFFFFFFFFFFFFFFFFFFFFFF DUP3 AND SWAP1 POP SWAP2 SWAP1 POP JUMP JUMPDEST PUSH2 0x40DA DUP2 PUSH2 0x40A8 JUMP JUMPDEST DUP3 MSTORE POP POP JUMP JUMPDEST PUSH1 0x0 PUSH1 0x80 DUP3 ADD SWAP1 POP PUSH2 0x40F5 PUSH1 0x0 DUP4 ADD DUP8 PUSH2 0x40D1 JUMP JUMPDEST PUSH2 0x4102 PUSH1 0x20 DUP4 ADD DUP7 PUSH2 0x3F17 JUMP JUMPDEST PUSH2 0x410F PUSH1 0x40 DUP4 ADD DUP6 PUSH2 0x3F47 JUMP JUMPDEST PUSH2 0x411C PUSH1 0x60 DUP4 ADD DUP5 PUSH2 0x4054 JUMP JUMPDEST SWAP6 SWAP5 POP POP POP POP POP JUMP JUMPDEST PUSH1 0x0 PUSH26 0xFFFFFFFFFFFFFFFFFFFFFFFFFFFFFFFFFFFFFFFFFFFFFFFFFFFF DUP3 AND SWAP1 POP SWAP2 SWAP1 POP JUMP JUMPDEST PUSH2 0x4154 DUP2 PUSH2 0x4125 JUMP JUMPDEST DUP2 EQ PUSH2 0x415F JUMPI PUSH1 0x0 DUP1 REVERT JUMPDEST POP JUMP JUMPDEST PUSH1 0x0 DUP2 CALLDATALOAD SWAP1 POP PUSH2 0x4171 DUP2 PUSH2 0x414B JUMP JUMPDEST SWAP3 SWAP2 POP POP JUMP JUMPDEST PUSH1 0x0 DUP1 PUSH1 0x40 DUP4 DUP6 SUB SLT ISZERO PUSH2 0x418E JUMPI PUSH2 0x418D PUSH2 0x3DFA JUMP JUMPDEST JUMPDEST PUSH1 0x0 PUSH2 0x419C DUP6 DUP3 DUP7 ADD PUSH2 0x3FB9 JUMP JUMPDEST SWAP3 POP POP PUSH1 0x20 PUSH2 0x41AD DUP6 DUP3 DUP7 ADD PUSH2 0x4162 JUMP JUMPDEST SWAP2 POP POP SWAP3 POP SWAP3 SWAP1 POP JUMP JUMPDEST PUSH1 0x0 PUSH1 0x20 DUP3 ADD SWAP1 POP PUSH2 0x41CC PUSH1 0x0 DUP4 ADD DUP5 PUSH2 0x4054 JUMP JUMPDEST SWAP3 SWAP2 POP POP JUMP JUMPDEST PUSH1 0x0 DUP1 REVERT JUMPDEST PUSH1 0x0 DUP1 REVERT JUMPDEST PUSH32 0x4E487B7100000000000000000000000000000000000000000000000000000000 PUSH1 0x0 MSTORE PUSH1 0x41 PUSH1 0x4 MSTORE PUSH1 0x24 PUSH1 0x0 REVERT JUMPDEST PUSH2 0x4214 DUP3 PUSH2 0x3EAD JUMP JUMPDEST DUP2 ADD DUP2 DUP2 LT PUSH8 0xFFFFFFFFFFFFFFFF DUP3 GT OR ISZERO PUSH2 0x4233 JUMPI PUSH2 0x4232 PUSH2 0x41DC JUMP JUMPDEST JUMPDEST DUP1 PUSH1 0x40 MSTORE POP POP POP JUMP JUMPDEST PUSH1 0x0 PUSH2 0x4246 PUSH2 0x3DF0 JUMP JUMPDEST SWAP1 POP PUSH2 0x4252 DUP3 DUP3 PUSH2 0x420B JUMP JUMPDEST SWAP2 SWAP1 POP JUMP JUMPDEST PUSH1 0x0 PUSH8 0xFFFFFFFFFFFFFFFF DUP3 GT ISZERO PUSH2 0x4272 JUMPI PUSH2 0x4271 PUSH2 0x41DC JUMP JUMPDEST JUMPDEST PUSH2 0x427B DUP3 PUSH2 0x3EAD JUMP JUMPDEST SWAP1 POP PUSH1 0x20 DUP2 ADD SWAP1 POP SWAP2 SWAP1 POP JUMP JUMPDEST DUP3 DUP2 DUP4 CALLDATACOPY PUSH1 0x0 DUP4 DUP4 ADD MSTORE POP POP POP JUMP JUMPDEST PUSH1 0x0 PUSH2 0x42AA PUSH2 0x42A5 DUP5 PUSH2 0x4257 JUMP JUMPDEST PUSH2 0x423C JUMP JUMPDEST SWAP1 POP DUP3 DUP2 MSTORE PUSH1 0x20 DUP2 ADD DUP5 DUP5 DUP5 ADD GT ISZERO PUSH2 0x42C6 JUMPI PUSH2 0x42C5 PUSH2 0x41D7 JUMP JUMPDEST JUMPDEST PUSH2 0x42D1 DUP5 DUP3 DUP6 PUSH2 0x4288 JUMP JUMPDEST POP SWAP4 SWAP3 POP POP POP JUMP JUMPDEST PUSH1 0x0 DUP3 PUSH1 0x1F DUP4 ADD SLT PUSH2 0x42EE JUMPI PUSH2 0x42ED PUSH2 0x41D2 JUMP JUMPDEST JUMPDEST DUP2 CALLDATALOAD PUSH2 0x42FE DUP5 DUP3 PUSH1 0x20 DUP7 ADD PUSH2 0x4297 JUMP JUMPDEST SWAP2 POP POP SWAP3 SWAP2 POP POP JUMP JUMPDEST PUSH1 0x0 PUSH1 0x20 DUP3 DUP5 SUB SLT ISZERO PUSH2 0x431D JUMPI PUSH2 0x431C PUSH2 0x3DFA JUMP JUMPDEST JUMPDEST PUSH1 0x0 DUP3 ADD CALLDATALOAD PUSH8 0xFFFFFFFFFFFFFFFF DUP2 GT ISZERO PUSH2 0x433B JUMPI PUSH2 0x433A PUSH2 0x3DFF JUMP JUMPDEST JUMPDEST PUSH2 0x4347 DUP5 DUP3 DUP6 ADD PUSH2 0x42D9 JUMP JUMPDEST SWAP2 POP POP SWAP3 SWAP2 POP POP JUMP JUMPDEST PUSH1 0x0 PUSH1 0x20 DUP3 ADD SWAP1 POP PUSH2 0x4365 PUSH1 0x0 DUP4 ADD DUP5 PUSH2 0x3F47 JUMP JUMPDEST SWAP3 SWAP2 POP POP JUMP JUMPDEST PUSH1 0x0 PUSH1 0x20 DUP3 DUP5 SUB SLT ISZERO PUSH2 0x4381 JUMPI PUSH2 0x4380 PUSH2 0x3DFA JUMP JUMPDEST JUMPDEST PUSH1 0x0 PUSH2 0x438F DUP5 DUP3 DUP6 ADD PUSH2 0x3FB9 JUMP JUMPDEST SWAP2 POP POP SWAP3 SWAP2 POP POP JUMP JUMPDEST PUSH1 0x0 PUSH2 0xFFFF DUP3 AND SWAP1 POP SWAP2 SWAP1 POP JUMP JUMPDEST PUSH2 0x43AF DUP2 PUSH2 0x4398 JUMP JUMPDEST DUP3 MSTORE POP POP JUMP JUMPDEST PUSH1 0x0 PUSH1 0x20 DUP3 ADD SWAP1 POP PUSH2 0x43CA PUSH1 0x0 DUP4 ADD DUP5 PUSH2 0x43A6 JUMP JUMPDEST SWAP3 SWAP2 POP POP JUMP JUMPDEST PUSH1 0x0 PUSH1 0x20 DUP3 ADD SWAP1 POP PUSH2 0x43E5 PUSH1 0x0 DUP4 ADD DUP5 PUSH2 0x3F38 JUMP JUMPDEST SWAP3 SWAP2 POP POP JUMP JUMPDEST PUSH1 0x0 PUSH1 0xFF DUP3 AND SWAP1 POP SWAP2 SWAP1 POP JUMP JUMPDEST PUSH2 0x4401 DUP2 PUSH2 0x43EB JUMP JUMPDEST DUP2 EQ PUSH2 0x440C JUMPI PUSH1 0x0 DUP1 REVERT JUMPDEST POP JUMP JUMPDEST PUSH1 0x0 DUP2 CALLDATALOAD SWAP1 POP PUSH2 0x441E DUP2 PUSH2 0x43F8 JUMP JUMPDEST SWAP3 SWAP2 POP POP JUMP JUMPDEST PUSH1 0x0 PUSH1 0x20 DUP3 DUP5 SUB SLT ISZERO PUSH2 0x443A JUMPI PUSH2 0x4439 PUSH2 0x3DFA JUMP JUMPDEST JUMPDEST PUSH1 0x0 PUSH2 0x4448 DUP5 DUP3 DUP6 ADD PUSH2 0x440F JUMP JUMPDEST SWAP2 POP POP SWAP3 SWAP2 POP POP JUMP JUMPDEST PUSH1 0x0 PUSH23 0xFFFFFFFFFFFFFFFFFFFFFFFFFFFFFFFFFFFFFFFFFFFFFF DUP3 AND SWAP1 POP SWAP2 SWAP1 POP JUMP JUMPDEST PUSH2 0x447D DUP2 PUSH2 0x4451 JUMP JUMPDEST DUP3 MSTORE POP POP JUMP JUMPDEST PUSH1 0x0 PUSH16 0xFFFFFFFFFFFFFFFFFFFFFFFFFFFFFFFF DUP3 AND SWAP1 POP SWAP2 SWAP1 POP JUMP JUMPDEST PUSH2 0x44A8 DUP2 PUSH2 0x4483 JUMP JUMPDEST DUP3 MSTORE POP POP JUMP JUMPDEST PUSH1 0x0 PUSH6 0xFFFFFFFFFFFF DUP3 AND SWAP1 POP SWAP2 SWAP1 POP JUMP JUMPDEST PUSH2 0x44C9 DUP2 PUSH2 0x44AE JUMP JUMPDEST DUP3 MSTORE POP POP JUMP JUMPDEST PUSH1 0x0 PUSH1 0xE0 DUP3 ADD SWAP1 POP PUSH2 0x44E4 PUSH1 0x0 DUP4 ADD DUP11 PUSH2 0x4474 JUMP JUMPDEST PUSH2 0x44F1 PUSH1 0x20 DUP4 ADD DUP10 PUSH2 0x4474 JUMP JUMPDEST PUSH2 0x44FE PUSH1 0x40 DUP4 ADD DUP9 PUSH2 0x449F JUMP JUMPDEST PUSH2 0x450B PUSH1 0x60 DUP4 ADD DUP8 PUSH2 0x449F JUMP JUMPDEST PUSH2 0x4518 PUSH1 0x80 DUP4 ADD DUP7 PUSH2 0x44C0 JUMP JUMPDEST PUSH2 0x4525 PUSH1 0xA0 DUP4 ADD DUP6 PUSH2 0x44C0 JUMP JUMPDEST PUSH2 0x4532 PUSH1 0xC0 DUP4 ADD DUP5 PUSH2 0x44C0 JUMP JUMPDEST SWAP9 SWAP8 POP POP POP POP POP POP POP POP JUMP JUMPDEST PUSH1 0x0 DUP1 PUSH1 0x0 PUSH1 0x60 DUP5 DUP7 SUB SLT ISZERO PUSH2 0x4557 JUMPI PUSH2 0x4556 PUSH2 0x3DFA JUMP JUMPDEST JUMPDEST PUSH1 0x0 PUSH2 0x4565 DUP7 DUP3 DUP8 ADD PUSH2 0x3E25 JUMP JUMPDEST SWAP4 POP POP PUSH1 0x20 PUSH2 0x4576 DUP7 DUP3 DUP8 ADD PUSH2 0x3E25 JUMP JUMPDEST SWAP3 POP POP PUSH1 0x40 PUSH2 0x4587 DUP7 DUP3 DUP8 ADD PUSH2 0x3E25 JUMP JUMPDEST SWAP2 POP POP SWAP3 POP SWAP3 POP SWAP3 JUMP JUMPDEST PUSH1 0x0 PUSH1 0x60 DUP3 ADD SWAP1 POP DUP2 DUP2 SUB PUSH1 0x0 DUP4 ADD MSTORE PUSH2 0x45AB DUP2 DUP7 PUSH2 0x3EBE JUMP JUMPDEST SWAP1 POP PUSH2 0x45BA PUSH1 0x20 DUP4 ADD DUP6 PUSH2 0x3F47 JUMP JUMPDEST PUSH2 0x45C7 PUSH1 0x40 DUP4 ADD DUP5 PUSH2 0x3F38 JUMP JUMPDEST SWAP5 SWAP4 POP POP POP POP JUMP JUMPDEST PUSH2 0x45D8 DUP2 PUSH2 0x4125 JUMP JUMPDEST DUP3 MSTORE POP POP JUMP JUMPDEST PUSH1 0x0 PUSH1 0xA0 DUP3 ADD SWAP1 POP PUSH2 0x45F3 PUSH1 0x0 DUP4 ADD DUP9 PUSH2 0x45CF JUMP JUMPDEST PUSH2 0x4600 PUSH1 0x20 DUP4 ADD DUP8 PUSH2 0x45CF JUMP JUMPDEST PUSH2 0x460D PUSH1 0x40 DUP4 ADD DUP7 PUSH2 0x3F47 JUMP JUMPDEST DUP2 DUP2 SUB PUSH1 0x60 DUP4 ADD MSTORE PUSH2 0x461F DUP2 DUP6 PUSH2 0x3EBE JUMP JUMPDEST SWAP1 POP PUSH2 0x462E PUSH1 0x80 DUP4 ADD DUP5 PUSH2 0x4054 JUMP JUMPDEST SWAP7 SWAP6 POP POP POP POP POP POP JUMP JUMPDEST PUSH2 0x4641 DUP2 PUSH2 0x40A8 JUMP JUMPDEST DUP2 EQ PUSH2 0x464C JUMPI PUSH1 0x0 DUP1 REVERT JUMPDEST POP JUMP JUMPDEST PUSH1 0x0 DUP2 CALLDATALOAD SWAP1 POP PUSH2 0x465E DUP2 PUSH2 0x4638 JUMP JUMPDEST SWAP3 SWAP2 POP POP JUMP JUMPDEST PUSH1 0x0 DUP1 PUSH1 0x0 PUSH1 0x60 DUP5 DUP7 SUB SLT ISZERO PUSH2 0x467D JUMPI PUSH2 0x467C PUSH2 0x3DFA JUMP JUMPDEST JUMPDEST PUSH1 0x0 PUSH2 0x468B DUP7 DUP3 DUP8 ADD PUSH2 0x3FB9 JUMP JUMPDEST SWAP4 POP POP PUSH1 0x20 PUSH2 0x469C DUP7 DUP3 DUP8 ADD PUSH2 0x464F JUMP JUMPDEST SWAP3 POP POP PUSH1 0x40 DUP5 ADD CALLDATALOAD PUSH8 0xFFFFFFFFFFFFFFFF DUP2 GT ISZERO PUSH2 0x46BD JUMPI PUSH2 0x46BC PUSH2 0x3DFF JUMP JUMPDEST JUMPDEST PUSH2 0x46C9 DUP7 DUP3 DUP8 ADD PUSH2 0x42D9 JUMP JUMPDEST SWAP2 POP POP SWAP3 POP SWAP3 POP SWAP3 JUMP JUMPDEST PUSH1 0x0 DUP2 SWAP1 POP SWAP2 SWAP1 POP JUMP JUMPDEST PUSH1 0x0 PUSH2 0x46F8 PUSH2 0x46F3 PUSH2 0x46EE DUP5 PUSH2 0x3EF7 JUMP JUMPDEST PUSH2 0x46D3 JUMP JUMPDEST PUSH2 0x3EF7 JUMP JUMPDEST SWAP1 POP SWAP2 SWAP1 POP JUMP JUMPDEST PUSH1 0x0 PUSH2 0x470A DUP3 PUSH2 0x46DD JUMP JUMPDEST SWAP1 POP SWAP2 SWAP1 POP JUMP JUMPDEST PUSH1 0x0 PUSH2 0x471C DUP3 PUSH2 0x46FF JUMP JUMPDEST SWAP1 POP SWAP2 SWAP1 POP JUMP JUMPDEST PUSH2 0x472C DUP2 PUSH2 0x4711 JUMP JUMPDEST DUP3 MSTORE POP POP JUMP JUMPDEST PUSH1 0x0 PUSH1 0x20 DUP3 ADD SWAP1 POP PUSH2 0x4747 PUSH1 0x0 DUP4 ADD DUP5 PUSH2 0x4723 JUMP JUMPDEST SWAP3 SWAP2 POP POP JUMP JUMPDEST PUSH32 0x4E487B7100000000000000000000000000000000000000000000000000000000 PUSH1 0x0 MSTORE PUSH1 0x22 PUSH1 0x4 MSTORE PUSH1 0x24 PUSH1 0x0 REVERT JUMPDEST PUSH1 0x0 PUSH1 0x2 DUP3 DIV SWAP1 POP PUSH1 0x1 DUP3 AND DUP1 PUSH2 0x4794 JUMPI PUSH1 0x7F DUP3 AND SWAP2 POP JUMPDEST PUSH1 0x20 DUP3 LT DUP2 SUB PUSH2 0x47A7 JUMPI PUSH2 0x47A6 PUSH2 0x474D JUMP JUMPDEST JUMPDEST POP SWAP2 SWAP1 POP JUMP JUMPDEST PUSH1 0x0 PUSH2 0x47C8 PUSH2 0x47C3 PUSH2 0x47BE DUP5 PUSH2 0x4125 JUMP JUMPDEST PUSH2 0x46D3 JUMP JUMPDEST PUSH2 0x3E04 JUMP JUMPDEST SWAP1 POP SWAP2 SWAP1 POP JUMP JUMPDEST PUSH2 0x47D8 DUP2 PUSH2 0x47AD JUMP JUMPDEST DUP3 MSTORE POP POP JUMP JUMPDEST PUSH1 0x0 PUSH1 0x60 DUP3 ADD SWAP1 POP PUSH2 0x47F3 PUSH1 0x0 DUP4 ADD DUP7 PUSH2 0x3F38 JUMP JUMPDEST PUSH2 0x4800 PUSH1 0x20 DUP4 ADD DUP6 PUSH2 0x3F38 JUMP JUMPDEST PUSH2 0x480D PUSH1 0x40 DUP4 ADD DUP5 PUSH2 0x47CF JUMP JUMPDEST SWAP5 SWAP4 POP POP POP POP JUMP JUMPDEST PUSH2 0x481E DUP2 PUSH2 0x4048 JUMP JUMPDEST DUP2 EQ PUSH2 0x4829 JUMPI PUSH1 0x0 DUP1 REVERT JUMPDEST POP JUMP JUMPDEST PUSH1 0x0 DUP2 MLOAD SWAP1 POP PUSH2 0x483B DUP2 PUSH2 0x4815 JUMP JUMPDEST SWAP3 SWAP2 POP POP JUMP JUMPDEST PUSH1 0x0 PUSH1 0x20 DUP3 DUP5 SUB SLT ISZERO PUSH2 0x4857 JUMPI PUSH2 0x4856 PUSH2 0x3DFA JUMP JUMPDEST JUMPDEST PUSH1 0x0 PUSH2 0x4865 DUP5 DUP3 DUP6 ADD PUSH2 0x482C JUMP JUMPDEST SWAP2 POP POP SWAP3 SWAP2 POP POP JUMP JUMPDEST PUSH32 0x4E487B7100000000000000000000000000000000000000000000000000000000 PUSH1 0x0 MSTORE PUSH1 0x11 PUSH1 0x4 MSTORE PUSH1 0x24 PUSH1 0x0 REVERT JUMPDEST PUSH1 0x0 PUSH2 0x48A8 DUP3 PUSH2 0x3E04 JUMP JUMPDEST SWAP2 POP PUSH2 0x48B3 DUP4 PUSH2 0x3E04 JUMP JUMPDEST SWAP3 POP DUP3 DUP3 ADD SWAP1 POP DUP1 DUP3 GT ISZERO PUSH2 0x48CB JUMPI PUSH2 0x48CA PUSH2 0x486E JUMP JUMPDEST JUMPDEST SWAP3 SWAP2 POP POP JUMP JUMPDEST PUSH1 0x0 PUSH2 0x48DC DUP3 PUSH2 0x4125 JUMP JUMPDEST SWAP2 POP PUSH2 0x48E7 DUP4 PUSH2 0x4125 JUMP JUMPDEST SWAP3 POP DUP3 DUP3 ADD SWAP1 POP PUSH26 0xFFFFFFFFFFFFFFFFFFFFFFFFFFFFFFFFFFFFFFFFFFFFFFFFFFFF DUP2 GT ISZERO PUSH2 0x4919 JUMPI PUSH2 0x4918 PUSH2 0x486E JUMP JUMPDEST JUMPDEST SWAP3 SWAP2 POP POP JUMP JUMPDEST PUSH1 0x0 PUSH2 0x492A DUP3 PUSH2 0x3E04 JUMP JUMPDEST SWAP2 POP PUSH32 0xFFFFFFFFFFFFFFFFFFFFFFFFFFFFFFFFFFFFFFFFFFFFFFFFFFFFFFFFFFFFFFFF DUP3 SUB PUSH2 0x495C JUMPI PUSH2 0x495B PUSH2 0x486E JUMP JUMPDEST JUMPDEST PUSH1 0x1 DUP3 ADD SWAP1 POP SWAP2 SWAP1 POP JUMP JUMPDEST PUSH1 0x0 PUSH2 0x4972 DUP3 PUSH2 0x3E04 JUMP JUMPDEST SWAP2 POP PUSH2 0x497D DUP4 PUSH2 0x3E04 JUMP JUMPDEST SWAP3 POP DUP3 DUP3 SUB SWAP1 POP DUP2 DUP2 GT ISZERO PUSH2 0x4995 JUMPI PUSH2 0x4994 PUSH2 0x486E JUMP JUMPDEST JUMPDEST SWAP3 SWAP2 POP POP JUMP JUMPDEST PUSH32 0x5354414B453A3A207468657265206973206E6F2066756E647320746F20626520 PUSH1 0x0 DUP3 ADD MSTORE PUSH32 0x7472616E736665727265642E0000000000000000000000000000000000000000 PUSH1 0x20 DUP3 ADD MSTORE POP JUMP JUMPDEST PUSH1 0x0 PUSH2 0x49F7 PUSH1 0x2C DUP4 PUSH2 0x3E72 JUMP JUMPDEST SWAP2 POP PUSH2 0x4A02 DUP3 PUSH2 0x499B JUMP JUMPDEST PUSH1 0x40 DUP3 ADD SWAP1 POP SWAP2 SWAP1 POP JUMP JUMPDEST PUSH1 0x0 PUSH1 0x20 DUP3 ADD SWAP1 POP DUP2 DUP2 SUB PUSH1 0x0 DUP4 ADD MSTORE PUSH2 0x4A26 DUP2 PUSH2 0x49EA JUMP JUMPDEST SWAP1 POP SWAP2 SWAP1 POP JUMP JUMPDEST PUSH1 0x0 PUSH1 0x40 DUP3 ADD SWAP1 POP PUSH2 0x4A42 PUSH1 0x0 DUP4 ADD DUP6 PUSH2 0x3F38 JUMP JUMPDEST PUSH2 0x4A4F PUSH1 0x20 DUP4 ADD DUP5 PUSH2 0x3F47 JUMP JUMPDEST SWAP4 SWAP3 POP POP POP JUMP JUMPDEST PUSH1 0x0 PUSH2 0x4A61 DUP3 PUSH2 0x4483 JUMP JUMPDEST SWAP2 POP PUSH2 0x4A6C DUP4 PUSH2 0x4483 JUMP JUMPDEST SWAP3 POP DUP3 DUP3 ADD SWAP1 POP PUSH16 0xFFFFFFFFFFFFFFFFFFFFFFFFFFFFFFFF DUP2 GT ISZERO PUSH2 0x4A94 JUMPI PUSH2 0x4A93 PUSH2 0x486E JUMP JUMPDEST JUMPDEST SWAP3 SWAP2 POP POP JUMP JUMPDEST PUSH32 0x5354414B453A3A20747970652073686F756C642062652027554E5F4C4F434B27 PUSH1 0x0 DUP3 ADD MSTORE PUSH32 0x206F722027554E5F5354414B4527000000000000000000000000000000000000 PUSH1 0x20 DUP3 ADD MSTORE POP JUMP JUMPDEST PUSH1 0x0 PUSH2 0x4AF6 PUSH1 0x2E DUP4 PUSH2 0x3E72 JUMP JUMPDEST SWAP2 POP PUSH2 0x4B01 DUP3 PUSH2 0x4A9A JUMP JUMPDEST PUSH1 0x40 DUP3 ADD SWAP1 POP SWAP2 SWAP1 POP JUMP JUMPDEST PUSH1 0x0 PUSH1 0x20 DUP3 ADD SWAP1 POP DUP2 DUP2 SUB PUSH1 0x0 DUP4 ADD MSTORE PUSH2 0x4B25 DUP2 PUSH2 0x4AE9 JUMP JUMPDEST SWAP1 POP SWAP2 SWAP1 POP JUMP JUMPDEST PUSH32 0x5354414B453A3A20616D6F756E742073686F756C642062652067726561746572 PUSH1 0x0 DUP3 ADD MSTORE PUSH32 0x207468616E207A65726F2E000000000000000000000000000000000000000000 PUSH1 0x20 DUP3 ADD MSTORE POP JUMP JUMPDEST PUSH1 0x0 PUSH2 0x4B88 PUSH1 0x2B DUP4 PUSH2 0x3E72 JUMP JUMPDEST SWAP2 POP PUSH2 0x4B93 DUP3 PUSH2 0x4B2C JUMP JUMPDEST PUSH1 0x40 DUP3 ADD SWAP1 POP SWAP2 SWAP1 POP JUMP JUMPDEST PUSH1 0x0 PUSH1 0x20 DUP3 ADD SWAP1 POP DUP2 DUP2 SUB PUSH1 0x0 DUP4 ADD MSTORE PUSH2 0x4BB7 DUP2 PUSH2 0x4B7B JUMP JUMPDEST SWAP1 POP SWAP2 SWAP1 POP JUMP JUMPDEST PUSH1 0x0 PUSH2 0x4BC9 DUP3 PUSH2 0x3E04 JUMP JUMPDEST SWAP2 POP PUSH2 0x4BD4 DUP4 PUSH2 0x3E04 JUMP JUMPDEST SWAP3 POP DUP3 DUP3 MUL PUSH2 0x4BE2 DUP2 PUSH2 0x3E04 JUMP JUMPDEST SWAP2 POP DUP3 DUP3 DIV DUP5 EQ DUP4 ISZERO OR PUSH2 0x4BF9 JUMPI PUSH2 0x4BF8 PUSH2 0x486E JUMP JUMPDEST JUMPDEST POP SWAP3 SWAP2 POP POP JUMP JUMPDEST PUSH32 0x4E487B7100000000000000000000000000000000000000000000000000000000 PUSH1 0x0 MSTORE PUSH1 0x12 PUSH1 0x4 MSTORE PUSH1 0x24 PUSH1 0x0 REVERT JUMPDEST PUSH1 0x0 PUSH2 0x4C3A DUP3 PUSH2 0x3E04 JUMP JUMPDEST SWAP2 POP PUSH2 0x4C45 DUP4 PUSH2 0x3E04 JUMP JUMPDEST SWAP3 POP DUP3 PUSH2 0x4C55 JUMPI PUSH2 0x4C54 PUSH2 0x4C00 JUMP JUMPDEST JUMPDEST DUP3 DUP3 DIV SWAP1 POP SWAP3 SWAP2 POP POP JUMP JUMPDEST PUSH1 0x0 PUSH2 0x4C73 PUSH2 0x4C6E DUP5 PUSH2 0x4257 JUMP JUMPDEST PUSH2 0x423C JUMP JUMPDEST SWAP1 POP DUP3 DUP2 MSTORE PUSH1 0x20 DUP2 ADD DUP5 DUP5 DUP5 ADD GT ISZERO PUSH2 0x4C8F JUMPI PUSH2 0x4C8E PUSH2 0x41D7 JUMP JUMPDEST JUMPDEST PUSH2 0x4C9A DUP5 DUP3 DUP6 PUSH2 0x3E83 JUMP JUMPDEST POP SWAP4 SWAP3 POP POP POP JUMP JUMPDEST PUSH1 0x0 DUP3 PUSH1 0x1F DUP4 ADD SLT PUSH2 0x4CB7 JUMPI PUSH2 0x4CB6 PUSH2 0x41D2 JUMP JUMPDEST JUMPDEST DUP2 MLOAD PUSH2 0x4CC7 DUP5 DUP3 PUSH1 0x20 DUP7 ADD PUSH2 0x4C60 JUMP JUMPDEST SWAP2 POP POP SWAP3 SWAP2 POP POP JUMP JUMPDEST PUSH1 0x0 PUSH1 0x20 DUP3 DUP5 SUB SLT ISZERO PUSH2 0x4CE6 JUMPI PUSH2 0x4CE5 PUSH2 0x3DFA JUMP JUMPDEST JUMPDEST PUSH1 0x0 DUP3 ADD MLOAD PUSH8 0xFFFFFFFFFFFFFFFF DUP2 GT ISZERO PUSH2 0x4D04 JUMPI PUSH2 0x4D03 PUSH2 0x3DFF JUMP JUMPDEST JUMPDEST PUSH2 0x4D10 DUP5 DUP3 DUP6 ADD PUSH2 0x4CA2 JUMP JUMPDEST SWAP2 POP POP SWAP3 SWAP2 POP POP JUMP JUMPDEST PUSH1 0x0 PUSH1 0x20 DUP3 ADD SWAP1 POP DUP2 DUP2 SUB PUSH1 0x0 DUP4 ADD MSTORE PUSH2 0x4D33 DUP2 DUP5 PUSH2 0x3EBE JUMP JUMPDEST SWAP1 POP SWAP3 SWAP2 POP POP JUMP JUMPDEST PUSH1 0x0 DUP2 MLOAD SWAP1 POP PUSH2 0x4D4A DUP2 PUSH2 0x3E0E JUMP JUMPDEST SWAP3 SWAP2 POP POP JUMP JUMPDEST PUSH1 0x0 DUP2 MLOAD SWAP1 POP PUSH2 0x4D5F DUP2 PUSH2 0x3FA2 JUMP JUMPDEST SWAP3 SWAP2 POP POP JUMP JUMPDEST PUSH1 0x0 DUP1 PUSH1 0x40 DUP4 DUP6 SUB SLT ISZERO PUSH2 0x4D7C JUMPI PUSH2 0x4D7B PUSH2 0x3DFA JUMP JUMPDEST JUMPDEST PUSH1 0x0 PUSH2 0x4D8A DUP6 DUP3 DUP7 ADD PUSH2 0x4D3B JUMP JUMPDEST SWAP3 POP POP PUSH1 0x20 PUSH2 0x4D9B DUP6 DUP3 DUP7 ADD PUSH2 0x4D50 JUMP JUMPDEST SWAP2 POP POP SWAP3 POP SWAP3 SWAP1 POP JUMP JUMPDEST PUSH32 0x5354414B453A3A20757365722073686F756C64206E6F7420626520657175616C PUSH1 0x0 DUP3 ADD MSTORE PUSH32 0x20746F2061646472657373207A65726F00000000000000000000000000000000 PUSH1 0x20 DUP3 ADD MSTORE POP JUMP JUMPDEST PUSH1 0x0 PUSH2 0x4E01 PUSH1 0x30 DUP4 PUSH2 0x3E72 JUMP JUMPDEST SWAP2 POP PUSH2 0x4E0C DUP3 PUSH2 0x4DA5 JUMP JUMPDEST PUSH1 0x40 DUP3 ADD SWAP1 POP SWAP2 SWAP1 POP JUMP JUMPDEST PUSH1 0x0 PUSH1 0x20 DUP3 ADD SWAP1 POP DUP2 DUP2 SUB PUSH1 0x0 DUP4 ADD MSTORE PUSH2 0x4E30 DUP2 PUSH2 0x4DF4 JUMP JUMPDEST SWAP1 POP SWAP2 SWAP1 POP JUMP JUMPDEST PUSH32 0x5354414B453A3A20747970652073686F756C6420626520274C4F434B27206F72 PUSH1 0x0 DUP3 ADD MSTORE PUSH32 0x20275354414B4527000000000000000000000000000000000000000000000000 PUSH1 0x20 DUP3 ADD MSTORE POP JUMP JUMPDEST PUSH1 0x0 PUSH2 0x4E93 PUSH1 0x28 DUP4 PUSH2 0x3E72 JUMP JUMPDEST SWAP2 POP PUSH2 0x4E9E DUP3 PUSH2 0x4E37 JUMP JUMPDEST PUSH1 0x40 DUP3 ADD SWAP1 POP SWAP2 SWAP1 POP JUMP JUMPDEST PUSH1 0x0 PUSH1 0x20 DUP3 ADD SWAP1 POP DUP2 DUP2 SUB PUSH1 0x0 DUP4 ADD MSTORE PUSH2 0x4EC2 DUP2 PUSH2 0x4E86 JUMP JUMPDEST SWAP1 POP SWAP2 SWAP1 POP JUMP JUMPDEST PUSH1 0x0 PUSH2 0x4ED4 DUP3 PUSH2 0x4451 JUMP JUMPDEST SWAP2 POP PUSH2 0x4EDF DUP4 PUSH2 0x4451 JUMP JUMPDEST SWAP3 POP DUP3 DUP3 ADD SWAP1 POP PUSH23 0xFFFFFFFFFFFFFFFFFFFFFFFFFFFFFFFFFFFFFFFFFFFFFF DUP2 GT ISZERO PUSH2 0x4F0E JUMPI PUSH2 0x4F0D PUSH2 0x486E JUMP JUMPDEST JUMPDEST SWAP3 SWAP2 POP POP JUMP JUMPDEST PUSH1 0x0 DUP2 SWAP1 POP SWAP3 SWAP2 POP POP JUMP JUMPDEST PUSH1 0x0 PUSH2 0x4F2A DUP3 PUSH2 0x3E67 JUMP JUMPDEST PUSH2 0x4F34 DUP2 DUP6 PUSH2 0x4F14 JUMP JUMPDEST SWAP4 POP PUSH2 0x4F44 DUP2 DUP6 PUSH1 0x20 DUP7 ADD PUSH2 0x3E83 JUMP JUMPDEST DUP1 DUP5 ADD SWAP2 POP POP SWAP3 SWAP2 POP POP JUMP JUMPDEST PUSH1 0x0 PUSH2 0x4F5C DUP3 DUP5 PUSH2 0x4F1F JUMP JUMPDEST SWAP2 POP DUP2 SWAP1 POP SWAP3 SWAP2 POP POP JUMP JUMPDEST PUSH1 0x0 PUSH2 0x4F72 DUP3 PUSH2 0x4125 JUMP JUMPDEST SWAP2 POP PUSH2 0x4F7D DUP4 PUSH2 0x4125 JUMP JUMPDEST SWAP3 POP DUP3 DUP3 SUB SWAP1 POP PUSH26 0xFFFFFFFFFFFFFFFFFFFFFFFFFFFFFFFFFFFFFFFFFFFFFFFFFFFF DUP2 GT ISZERO PUSH2 0x4FAF JUMPI PUSH2 0x4FAE PUSH2 0x486E JUMP JUMPDEST JUMPDEST SWAP3 SWAP2 POP POP JUMP JUMPDEST PUSH1 0x0 PUSH2 0x4FC0 DUP3 PUSH2 0x4125 JUMP JUMPDEST SWAP2 POP PUSH2 0x4FCB DUP4 PUSH2 0x4125 JUMP JUMPDEST SWAP3 POP DUP3 PUSH2 0x4FDB JUMPI PUSH2 0x4FDA PUSH2 0x4C00 JUMP JUMPDEST JUMPDEST DUP3 DUP3 DIV SWAP1 POP SWAP3 SWAP2 POP POP JUMP JUMPDEST PUSH1 0x0 PUSH2 0x4FF1 DUP3 PUSH2 0x3EF7 JUMP JUMPDEST SWAP2 POP PUSH2 0x4FFC DUP4 PUSH2 0x3EF7 JUMP JUMPDEST SWAP3 POP DUP3 DUP3 ADD SWAP1 POP PUSH20 0xFFFFFFFFFFFFFFFFFFFFFFFFFFFFFFFFFFFFFFFF DUP2 GT ISZERO PUSH2 0x5028 JUMPI PUSH2 0x5027 PUSH2 0x486E JUMP JUMPDEST JUMPDEST SWAP3 SWAP2 POP POP JUMP JUMPDEST PUSH32 0x5354414B453A3A207468657265206973206E6F20746F6B656E20746F20626520 PUSH1 0x0 DUP3 ADD MSTORE PUSH32 0x756E2D7374616B65000000000000000000000000000000000000000000000000 PUSH1 0x20 DUP3 ADD MSTORE POP JUMP JUMPDEST PUSH1 0x0 PUSH2 0x508A PUSH1 0x28 DUP4 PUSH2 0x3E72 JUMP JUMPDEST SWAP2 POP PUSH2 0x5095 DUP3 PUSH2 0x502E JUMP JUMPDEST PUSH1 0x40 DUP3 ADD SWAP1 POP SWAP2 SWAP1 POP JUMP JUMPDEST PUSH1 0x0 PUSH1 0x20 DUP3 ADD SWAP1 POP DUP2 DUP2 SUB PUSH1 0x0 DUP4 ADD MSTORE PUSH2 0x50B9 DUP2 PUSH2 0x507D JUMP JUMPDEST SWAP1 POP SWAP2 SWAP1 POP JUMP JUMPDEST PUSH32 0x5354414B453A207468657265206973206E6F20616D6F756E7420746F20626520 PUSH1 0x0 DUP3 ADD MSTORE PUSH32 0x7472616E736665727265642E0000000000000000000000000000000000000000 PUSH1 0x20 DUP3 ADD MSTORE POP JUMP JUMPDEST PUSH1 0x0 PUSH2 0x511C PUSH1 0x2C DUP4 PUSH2 0x3E72 JUMP JUMPDEST SWAP2 POP PUSH2 0x5127 DUP3 PUSH2 0x50C0 JUMP JUMPDEST PUSH1 0x40 DUP3 ADD SWAP1 POP SWAP2 SWAP1 POP JUMP JUMPDEST PUSH1 0x0 PUSH1 0x20 DUP3 ADD SWAP1 POP DUP2 DUP2 SUB PUSH1 0x0 DUP4 ADD MSTORE PUSH2 0x514B DUP2 PUSH2 0x510F JUMP JUMPDEST SWAP1 POP SWAP2 SWAP1 POP JUMP JUMPDEST PUSH1 0x0 DUP2 SWAP1 POP DUP2 PUSH1 0x0 MSTORE PUSH1 0x20 PUSH1 0x0 KECCAK256 SWAP1 POP SWAP2 SWAP1 POP JUMP JUMPDEST PUSH1 0x0 PUSH1 0x20 PUSH1 0x1F DUP4 ADD DIV SWAP1 POP SWAP2 SWAP1 POP JUMP JUMPDEST PUSH1 0x0 DUP3 DUP3 SHL SWAP1 POP SWAP3 SWAP2 POP POP JUMP JUMPDEST PUSH1 0x0 PUSH1 0x8 DUP4 MUL PUSH2 0x51B4 PUSH32 0xFFFFFFFFFFFFFFFFFFFFFFFFFFFFFFFFFFFFFFFFFFFFFFFFFFFFFFFFFFFFFFFF DUP3 PUSH2 0x5177 JUMP JUMPDEST PUSH2 0x51BE DUP7 DUP4 PUSH2 0x5177 JUMP JUMPDEST SWAP6 POP DUP1 NOT DUP5 AND SWAP4 POP DUP1 DUP7 AND DUP5 OR SWAP3 POP POP POP SWAP4 SWAP3 POP POP POP JUMP JUMPDEST PUSH1 0x0 PUSH2 0x51F1 PUSH2 0x51EC PUSH2 0x51E7 DUP5 PUSH2 0x3E04 JUMP JUMPDEST PUSH2 0x46D3 JUMP JUMPDEST PUSH2 0x3E04 JUMP JUMPDEST SWAP1 POP SWAP2 SWAP1 POP JUMP JUMPDEST PUSH1 0x0 DUP2 SWAP1 POP SWAP2 SWAP1 POP JUMP JUMPDEST PUSH2 0x520B DUP4 PUSH2 0x51D6 JUMP JUMPDEST PUSH2 0x521F PUSH2 0x5217 DUP3 PUSH2 0x51F8 JUMP JUMPDEST DUP5 DUP5 SLOAD PUSH2 0x5184 JUMP JUMPDEST DUP3 SSTORE POP POP POP POP JUMP JUMPDEST PUSH1 0x0 SWAP1 JUMP JUMPDEST PUSH2 0x5234 PUSH2 0x5227 JUMP JUMPDEST PUSH2 0x523F DUP2 DUP5 DUP5 PUSH2 0x5202 JUMP JUMPDEST POP POP POP JUMP JUMPDEST JUMPDEST DUP2 DUP2 LT ISZERO PUSH2 0x5263 JUMPI PUSH2 0x5258 PUSH1 0x0 DUP3 PUSH2 0x522C JUMP JUMPDEST PUSH1 0x1 DUP2 ADD SWAP1 POP PUSH2 0x5245 JUMP JUMPDEST POP POP JUMP JUMPDEST PUSH1 0x1F DUP3 GT ISZERO PUSH2 0x52A8 JUMPI PUSH2 0x5279 DUP2 PUSH2 0x5152 JUMP JUMPDEST PUSH2 0x5282 DUP5 PUSH2 0x5167 JUMP JUMPDEST DUP2 ADD PUSH1 0x20 DUP6 LT ISZERO PUSH2 0x5291 JUMPI DUP2 SWAP1 POP JUMPDEST PUSH2 0x52A5 PUSH2 0x529D DUP6 PUSH2 0x5167 JUMP JUMPDEST DUP4 ADD DUP3 PUSH2 0x5244 JUMP JUMPDEST POP POP JUMPDEST POP POP POP JUMP JUMPDEST PUSH1 0x0 DUP3 DUP3 SHR SWAP1 POP SWAP3 SWAP2 POP POP JUMP JUMPDEST PUSH1 0x0 PUSH2 0x52CB PUSH1 0x0 NOT DUP5 PUSH1 0x8 MUL PUSH2 0x52AD JUMP JUMPDEST NOT DUP1 DUP4 AND SWAP2 POP POP SWAP3 SWAP2 POP POP JUMP JUMPDEST PUSH1 0x0 PUSH2 0x52E4 DUP4 DUP4 PUSH2 0x52BA JUMP JUMPDEST SWAP2 POP DUP3 PUSH1 0x2 MUL DUP3 OR SWAP1 POP SWAP3 SWAP2 POP POP JUMP JUMPDEST PUSH2 0x52FD DUP3 PUSH2 0x3E67 JUMP JUMPDEST PUSH8 0xFFFFFFFFFFFFFFFF DUP2 GT ISZERO PUSH2 0x5316 JUMPI PUSH2 0x5315 PUSH2 0x41DC JUMP JUMPDEST JUMPDEST PUSH2 0x5320 DUP3 SLOAD PUSH2 0x477C JUMP JUMPDEST PUSH2 0x532B DUP3 DUP3 DUP6 PUSH2 0x5267 JUMP JUMPDEST PUSH1 0x0 PUSH1 0x20 SWAP1 POP PUSH1 0x1F DUP4 GT PUSH1 0x1 DUP2 EQ PUSH2 0x535E JUMPI PUSH1 0x0 DUP5 ISZERO PUSH2 0x534C JUMPI DUP3 DUP8 ADD MLOAD SWAP1 POP JUMPDEST PUSH2 0x5356 DUP6 DUP3 PUSH2 0x52D8 JUMP JUMPDEST DUP7 SSTORE POP PUSH2 0x53BE JUMP JUMPDEST PUSH1 0x1F NOT DUP5 AND PUSH2 0x536C DUP7 PUSH2 0x5152 JUMP JUMPDEST PUSH1 0x0 JUMPDEST DUP3 DUP2 LT ISZERO PUSH2 0x5394 JUMPI DUP5 DUP10 ADD MLOAD DUP3 SSTORE PUSH1 0x1 DUP3 ADD SWAP2 POP PUSH1 0x20 DUP6 ADD SWAP5 POP PUSH1 0x20 DUP2 ADD SWAP1 POP PUSH2 0x536F JUMP JUMPDEST DUP7 DUP4 LT ISZERO PUSH2 0x53B1 JUMPI DUP5 DUP10 ADD MLOAD PUSH2 0x53AD PUSH1 0x1F DUP10 AND DUP3 PUSH2 0x52BA JUMP JUMPDEST DUP4 SSTORE POP JUMPDEST PUSH1 0x1 PUSH1 0x2 DUP9 MUL ADD DUP9 SSTORE POP POP POP JUMPDEST POP POP POP POP POP POP JUMP JUMPDEST PUSH1 0x0 PUSH2 0x53D1 DUP3 PUSH2 0x44AE JUMP JUMPDEST SWAP2 POP PUSH6 0xFFFFFFFFFFFF DUP3 SUB PUSH2 0x53E9 JUMPI PUSH2 0x53E8 PUSH2 0x486E JUMP JUMPDEST JUMPDEST PUSH1 0x1 DUP3 ADD SWAP1 POP SWAP2 SWAP1 POP JUMP JUMPDEST PUSH1 0x0 PUSH2 0x540F PUSH2 0x540A PUSH2 0x5405 DUP5 PUSH2 0x40A8 JUMP JUMPDEST PUSH2 0x46D3 JUMP JUMPDEST PUSH2 0x3E04 JUMP JUMPDEST SWAP1 POP SWAP2 SWAP1 POP JUMP JUMPDEST PUSH2 0x541F DUP2 PUSH2 0x53F4 JUMP JUMPDEST DUP3 MSTORE POP POP JUMP JUMPDEST PUSH1 0x0 PUSH1 0x60 DUP3 ADD SWAP1 POP PUSH2 0x543A PUSH1 0x0 DUP4 ADD DUP7 PUSH2 0x3F38 JUMP JUMPDEST PUSH2 0x5447 PUSH1 0x20 DUP4 ADD DUP6 PUSH2 0x3F38 JUMP JUMPDEST PUSH2 0x5454 PUSH1 0x40 DUP4 ADD DUP5 PUSH2 0x5416 JUMP JUMPDEST SWAP5 SWAP4 POP POP POP POP JUMP JUMPDEST PUSH1 0x0 PUSH2 0x5467 DUP3 PUSH2 0x40A8 JUMP JUMPDEST SWAP2 POP PUSH2 0x5472 DUP4 PUSH2 0x40A8 JUMP JUMPDEST SWAP3 POP DUP3 PUSH2 0x5482 JUMPI PUSH2 0x5481 PUSH2 0x4C00 JUMP JUMPDEST JUMPDEST DUP3 DUP3 DIV SWAP1 POP SWAP3 SWAP2 POP POP JUMP JUMPDEST PUSH1 0x0 DUP2 SLOAD SWAP1 POP PUSH2 0x549C DUP2 PUSH2 0x477C JUMP JUMPDEST SWAP1 POP SWAP2 SWAP1 POP JUMP JUMPDEST PUSH1 0x0 DUP2 SWAP1 POP DUP2 PUSH1 0x0 MSTORE PUSH1 0x20 PUSH1 0x0 KECCAK256 SWAP1 POP SWAP2 SWAP1 POP JUMP JUMPDEST DUP2 DUP2 SUB PUSH2 0x54C6 JUMPI POP POP PUSH2 0x559E JUMP JUMPDEST PUSH2 0x54CF DUP3 PUSH2 0x548D JUMP JUMPDEST PUSH8 0xFFFFFFFFFFFFFFFF DUP2 GT ISZERO PUSH2 0x54E8 JUMPI PUSH2 0x54E7 PUSH2 0x41DC JUMP JUMPDEST JUMPDEST PUSH2 0x54F2 DUP3 SLOAD PUSH2 0x477C JUMP JUMPDEST PUSH2 0x54FD DUP3 DUP3 DUP6 PUSH2 0x5267 JUMP JUMPDEST PUSH1 0x0 PUSH1 0x1F DUP4 GT PUSH1 0x1 DUP2 EQ PUSH2 0x552C JUMPI PUSH1 0x0 DUP5 ISZERO PUSH2 0x551A JUMPI DUP3 DUP8 ADD SLOAD SWAP1 POP JUMPDEST PUSH2 0x5524 DUP6 DUP3 PUSH2 0x52D8 JUMP JUMPDEST DUP7 SSTORE POP PUSH2 0x5597 JUMP JUMPDEST PUSH1 0x1F NOT DUP5 AND PUSH2 0x553A DUP8 PUSH2 0x54A3 JUMP JUMPDEST SWAP7 POP PUSH2 0x5545 DUP7 PUSH2 0x5152 JUMP JUMPDEST PUSH1 0x0 JUMPDEST DUP3 DUP2 LT ISZERO PUSH2 0x556D JUMPI DUP5 DUP10 ADD SLOAD DUP3 SSTORE PUSH1 0x1 DUP3 ADD SWAP2 POP PUSH1 0x1 DUP6 ADD SWAP5 POP PUSH1 0x20 DUP2 ADD SWAP1 POP PUSH2 0x5548 JUMP JUMPDEST DUP7 DUP4 LT ISZERO PUSH2 0x558A JUMPI DUP5 DUP10 ADD SLOAD PUSH2 0x5586 PUSH1 0x1F DUP10 AND DUP3 PUSH2 0x52BA JUMP JUMPDEST DUP4 SSTORE POP JUMPDEST PUSH1 0x1 PUSH1 0x2 DUP9 MUL ADD DUP9 SSTORE POP POP POP JUMPDEST POP POP POP POP POP POP JUMPDEST JUMP INVALID LOG2 PUSH5 0x6970667358 0x22 SLT KECCAK256 0xA6 0x2E DUP10 0xAA SWAP10 DUP13 JUMPDEST DUP16 0xB0 ADDRESS 0xC6 SWAP4 0xFB CALLDATALOAD 0x22 LT DUP9 SWAP12 NUMBER MLOAD 0x2A PUSH27 0xFD0EB0D28208193BB00D64736F6C63430008130033000000000000 "
		},
		"gasEstimates": {
			"creation": {
				"codeDepositCost": "4394800",
				"executionCost": "infinite",
				"totalCost": "infinite"
			},
			"external": {
				"changeStakePercentage(uint8)": "infinite",
				"deposit(address,uint208)": "infinite",
				"deposits(address,uint256)": "infinite",
				"getLatestMintedSale()": "infinite",
				"getLatestSaleCount()": "2570",
				"getLeftBalance(address)": "infinite",
				"getMaturedStakedAmt(address)": "infinite",
				"lockings(address,uint256)": "infinite",
				"mulDiv(uint256,uint256,uint256)": "infinite",
				"owner()": "2545",
				"renounceOwnership()": "infinite",
				"saleId(string)": "infinite",
				"saleInfo(uint256)": "infinite",
				"stakeOrLockTokens(address,uint232,string)": "infinite",
				"stakingPercentage()": "2560",
				"stakings(address,uint256)": "infinite",
				"startSale()": "infinite",
				"token()": "infinite",
				"transferOwnership(address)": "infinite",
				"unStakeOrUnLock(string)": "infinite",
				"users(address)": "infinite",
				"vesting(address)": "infinite",
				"withdraw()": "infinite"
			},
			"internal": {
				"_calcMarketting(uint256,uint208)": "infinite",
				"_calcTgcAmount(struct Stake.Deposit memory,uint256)": "infinite",
				"_compareEqual(string memory,string memory)": "infinite",
				"_deposit(address,uint208)": "infinite",
				"_getMaturedStakeAmt(uint256,uint256,struct Stake.Staking memory)": "infinite",
				"_lockTokens(address,address,uint232,uint256)": "infinite",
				"_stakeTokens(address,address,uint232,uint256)": "infinite",
				"_unLockTokens(address,uint256)": "infinite",
				"_unStakeTokens(address,uint256)": "infinite",
				"_updateTokenBalance(address,uint208,string memory)": "infinite",
				"_vesting(uint256,uint256,struct Stake.Deposit memory)": "infinite"
			}
		},
		"methodIdentifiers": {
			"changeStakePercentage(uint8)": "98f36ca7",
			"deposit(address,uint208)": "191a07b4",
			"deposits(address,uint256)": "d6d68177",
			"getLatestMintedSale()": "c5dc51d4",
			"getLatestSaleCount()": "8ce902f2",
			"getLeftBalance(address)": "54f9eede",
			"getMaturedStakedAmt(address)": "f0509d40",
			"lockings(address,uint256)": "0ee141c2",
			"mulDiv(uint256,uint256,uint256)": "aa9a0912",
			"owner()": "8da5cb5b",
			"renounceOwnership()": "715018a6",
			"saleId(string)": "2c7283c3",
			"saleInfo(uint256)": "02eb4b88",
			"stakeOrLockTokens(address,uint232,string)": "df81ddc5",
			"stakingPercentage()": "81e1ccba",
			"stakings(address,uint256)": "1849d8ea",
			"startSale()": "b66a0e5d",
			"token()": "fc0c546a",
			"transferOwnership(address)": "f2fde38b",
			"unStakeOrUnLock(string)": "8734c045",
			"users(address)": "a87430ba",
			"vesting(address)": "e388c423",
			"withdraw()": "3ccfd60b"
		}
	},
	"abi": [
		{
			"inputs": [
				{
					"internalType": "address",
					"name": "_token",
					"type": "address"
				}
			],
			"stateMutability": "nonpayable",
			"type": "constructor"
		},
		{
			"inputs": [
				{
					"internalType": "address",
					"name": "owner",
					"type": "address"
				}
			],
			"name": "OwnableInvalidOwner",
			"type": "error"
		},
		{
			"inputs": [
				{
					"internalType": "address",
					"name": "account",
					"type": "address"
				}
			],
			"name": "OwnableUnauthorizedAccount",
			"type": "error"
		},
		{
			"inputs": [],
			"name": "ReentrancyGuardReentrantCall",
			"type": "error"
		},
		{
			"anonymous": false,
			"inputs": [
				{
					"indexed": true,
					"internalType": "address",
					"name": "user",
					"type": "address"
				},
				{
					"indexed": true,
					"internalType": "uint256",
					"name": "amount",
					"type": "uint256"
				},
				{
					"indexed": true,
					"internalType": "string",
					"name": "action",
					"type": "string"
				}
			],
			"name": "DepositWithdraw",
			"type": "event"
		},
		{
			"anonymous": false,
			"inputs": [
				{
					"indexed": true,
					"internalType": "address",
					"name": "user",
					"type": "address"
				},
				{
					"indexed": true,
					"internalType": "uint256",
					"name": "amount",
					"type": "uint256"
				},
				{
					"indexed": true,
					"internalType": "uint256",
					"name": "serialNo",
					"type": "uint256"
				}
			],
			"name": "LockedTokens",
			"type": "event"
		},
		{
			"anonymous": false,
			"inputs": [
				{
					"indexed": true,
					"internalType": "address",
					"name": "previousOwner",
					"type": "address"
				},
				{
					"indexed": true,
					"internalType": "address",
					"name": "newOwner",
					"type": "address"
				}
			],
			"name": "OwnershipTransferred",
			"type": "event"
		},
		{
			"anonymous": false,
			"inputs": [
				{
					"indexed": true,
					"internalType": "uint256",
					"name": "saleId",
					"type": "uint256"
				},
				{
					"indexed": true,
					"internalType": "string",
					"name": "name",
					"type": "string"
				},
				{
					"indexed": true,
					"internalType": "uint256",
					"name": "startAt",
					"type": "uint256"
				}
			],
			"name": "SaleInfo",
			"type": "event"
		},
		{
			"anonymous": false,
			"inputs": [
				{
					"indexed": true,
					"internalType": "uint8",
					"name": "percentage",
					"type": "uint8"
				},
				{
					"indexed": true,
					"internalType": "address",
					"name": "changedBy",
					"type": "address"
				}
			],
			"name": "StakePercentage",
			"type": "event"
		},
		{
			"anonymous": false,
			"inputs": [
				{
					"indexed": true,
					"internalType": "address",
					"name": "user",
					"type": "address"
				},
				{
					"indexed": true,
					"internalType": "uint256",
					"name": "amount",
					"type": "uint256"
				},
				{
					"indexed": true,
					"internalType": "uint256",
					"name": "serialNo",
					"type": "uint256"
				}
			],
			"name": "StakedTokens",
			"type": "event"
		},
		{
			"inputs": [
				{
					"internalType": "uint8",
					"name": "percentage",
					"type": "uint8"
				}
			],
			"name": "changeStakePercentage",
			"outputs": [],
			"stateMutability": "nonpayable",
			"type": "function"
		},
		{
			"inputs": [
				{
					"internalType": "address",
					"name": "user",
					"type": "address"
				},
				{
					"internalType": "uint208",
					"name": "tokenAmount",
					"type": "uint208"
				}
			],
			"name": "deposit",
			"outputs": [
				{
					"internalType": "bool",
					"name": "",
					"type": "bool"
				}
			],
			"stateMutability": "nonpayable",
			"type": "function"
		},
		{
			"inputs": [
				{
					"internalType": "address",
					"name": "",
					"type": "address"
				},
				{
					"internalType": "uint256",
					"name": "",
					"type": "uint256"
				}
			],
			"name": "deposits",
			"outputs": [
				{
					"internalType": "uint208",
					"name": "depositAmount",
					"type": "uint208"
				},
				{
					"internalType": "uint208",
					"name": "withdrawAmount",
					"type": "uint208"
				},
				{
					"internalType": "uint256",
					"name": "depositedAt",
					"type": "uint256"
				},
				{
					"internalType": "string",
					"name": "sale",
					"type": "string"
				},
				{
					"internalType": "bool",
					"name": "isMatured",
					"type": "bool"
				}
			],
			"stateMutability": "view",
			"type": "function"
		},
		{
			"inputs": [],
			"name": "getLatestMintedSale",
			"outputs": [
				{
					"internalType": "string",
					"name": "",
					"type": "string"
				},
				{
					"internalType": "uint256",
					"name": "",
					"type": "uint256"
				},
				{
					"internalType": "address",
					"name": "",
					"type": "address"
				}
			],
			"stateMutability": "view",
			"type": "function"
		},
		{
			"inputs": [],
			"name": "getLatestSaleCount",
			"outputs": [
				{
					"internalType": "uint256",
					"name": "",
					"type": "uint256"
				}
			],
			"stateMutability": "view",
			"type": "function"
		},
		{
			"inputs": [
				{
					"internalType": "address",
					"name": "user",
					"type": "address"
				}
			],
			"name": "getLeftBalance",
			"outputs": [
				{
					"internalType": "uint256",
					"name": "",
					"type": "uint256"
				}
			],
			"stateMutability": "view",
			"type": "function"
		},
		{
			"inputs": [
				{
					"internalType": "address",
					"name": "user",
					"type": "address"
				}
			],
			"name": "getMaturedStakedAmt",
			"outputs": [
				{
					"internalType": "uint256",
					"name": "",
					"type": "uint256"
				}
			],
			"stateMutability": "view",
			"type": "function"
		},
		{
			"inputs": [
				{
					"internalType": "address",
					"name": "",
					"type": "address"
				},
				{
					"internalType": "uint256",
					"name": "",
					"type": "uint256"
				}
			],
			"name": "lockings",
			"outputs": [
				{
					"internalType": "uint248",
					"name": "lockedAmount",
					"type": "uint248"
				},
				{
					"internalType": "uint256",
					"name": "lockedAt",
					"type": "uint256"
				},
				{
					"internalType": "uint256",
					"name": "unLockedAt",
					"type": "uint256"
				},
				{
					"internalType": "bool",
					"name": "isUnlocked",
					"type": "bool"
				}
			],
			"stateMutability": "view",
			"type": "function"
		},
		{
			"inputs": [
				{
					"internalType": "uint256",
					"name": "value",
					"type": "uint256"
				},
				{
					"internalType": "uint256",
					"name": "percentage",
					"type": "uint256"
				},
				{
					"internalType": "uint256",
					"name": "denominator",
					"type": "uint256"
				}
			],
			"name": "mulDiv",
			"outputs": [
				{
					"internalType": "uint256",
					"name": "",
					"type": "uint256"
				}
			],
			"stateMutability": "pure",
			"type": "function"
		},
		{
			"inputs": [],
			"name": "owner",
			"outputs": [
				{
					"internalType": "address",
					"name": "",
					"type": "address"
				}
			],
			"stateMutability": "view",
			"type": "function"
		},
		{
			"inputs": [],
			"name": "renounceOwnership",
			"outputs": [],
			"stateMutability": "nonpayable",
			"type": "function"
		},
		{
			"inputs": [
				{
					"internalType": "string",
					"name": "",
					"type": "string"
				}
			],
			"name": "saleId",
			"outputs": [
				{
					"internalType": "uint256",
					"name": "",
					"type": "uint256"
				}
			],
			"stateMutability": "view",
			"type": "function"
		},
		{
			"inputs": [
				{
					"internalType": "uint256",
					"name": "",
					"type": "uint256"
				}
			],
			"name": "saleInfo",
			"outputs": [
				{
					"internalType": "string",
					"name": "name",
					"type": "string"
				},
				{
					"internalType": "uint160",
					"name": "supply",
					"type": "uint160"
				},
				{
					"internalType": "address",
					"name": "walletAddress",
					"type": "address"
				},
				{
					"internalType": "uint256",
					"name": "startAt",
					"type": "uint256"
				}
			],
			"stateMutability": "view",
			"type": "function"
		},
		{
			"inputs": [
				{
					"internalType": "address",
					"name": "to",
					"type": "address"
				},
				{
					"internalType": "uint232",
					"name": "tokenAmount",
					"type": "uint232"
				},
				{
					"internalType": "string",
					"name": "stakeOrLockType",
					"type": "string"
				}
			],
			"name": "stakeOrLockTokens",
			"outputs": [
				{
					"internalType": "bool",
					"name": "",
					"type": "bool"
				}
			],
			"stateMutability": "nonpayable",
			"type": "function"
		},
		{
			"inputs": [],
			"name": "stakingPercentage",
			"outputs": [
				{
					"internalType": "uint16",
					"name": "",
					"type": "uint16"
				}
			],
			"stateMutability": "view",
			"type": "function"
		},
		{
			"inputs": [
				{
					"internalType": "address",
					"name": "",
					"type": "address"
				},
				{
					"internalType": "uint256",
					"name": "",
					"type": "uint256"
				}
			],
			"name": "stakings",
			"outputs": [
				{
					"internalType": "uint232",
					"name": "stakeAmount",
					"type": "uint232"
				},
				{
					"internalType": "uint160",
					"name": "unStakedAmount",
					"type": "uint160"
				},
				{
					"internalType": "uint256",
					"name": "stakedAt",
					"type": "uint256"
				},
				{
					"internalType": "bool",
					"name": "isUnstaked",
					"type": "bool"
				}
			],
			"stateMutability": "view",
			"type": "function"
		},
		{
			"inputs": [],
			"name": "startSale",
			"outputs": [],
			"stateMutability": "nonpayable",
			"type": "function"
		},
		{
			"inputs": [],
			"name": "token",
			"outputs": [
				{
					"internalType": "contract IAnryton",
					"name": "",
					"type": "address"
				}
			],
			"stateMutability": "view",
			"type": "function"
		},
		{
			"inputs": [
				{
					"internalType": "address",
					"name": "newOwner",
					"type": "address"
				}
			],
			"name": "transferOwnership",
			"outputs": [],
			"stateMutability": "nonpayable",
			"type": "function"
		},
		{
			"inputs": [
				{
					"internalType": "string",
					"name": "stakeOrLock",
					"type": "string"
				}
			],
			"name": "unStakeOrUnLock",
			"outputs": [
				{
					"internalType": "bool",
					"name": "",
					"type": "bool"
				}
			],
			"stateMutability": "nonpayable",
			"type": "function"
		},
		{
			"inputs": [
				{
					"internalType": "address",
					"name": "",
					"type": "address"
				}
			],
			"name": "users",
			"outputs": [
				{
					"internalType": "uint184",
					"name": "tokenBalance",
					"type": "uint184"
				},
				{
					"internalType": "uint184",
					"name": "withdrawTokens",
					"type": "uint184"
				},
				{
					"internalType": "uint128",
					"name": "stakedTokens",
					"type": "uint128"
				},
				{
					"internalType": "uint128",
					"name": "lockedTokens",
					"type": "uint128"
				},
				{
					"internalType": "uint48",
					"name": "totalStakes",
					"type": "uint48"
				},
				{
					"internalType": "uint48",
					"name": "totalLocks",
					"type": "uint48"
				},
				{
					"internalType": "uint48",
					"name": "totalDeposits",
					"type": "uint48"
				}
			],
			"stateMutability": "view",
			"type": "function"
		},
		{
			"inputs": [
				{
					"internalType": "address",
					"name": "user",
					"type": "address"
				}
			],
			"name": "vesting",
			"outputs": [
				{
					"internalType": "uint256",
					"name": "",
					"type": "uint256"
				}
			],
			"stateMutability": "view",
			"type": "function"
		},
		{
			"inputs": [],
			"name": "withdraw",
			"outputs": [
				{
					"internalType": "bool",
					"name": "",
					"type": "bool"
				}
			],
			"stateMutability": "nonpayable",
			"type": "function"
		}
	]
}